{
	"XODEX2.sol": {
		"XODEX": {
			"abi": [
				{
					"inputs": [],
					"stateMutability": "nonpayable",
					"type": "constructor"
				},
				{
					"anonymous": false,
					"inputs": [
						{
							"indexed": true,
							"internalType": "address",
							"name": "owner",
							"type": "address"
						},
						{
							"indexed": true,
							"internalType": "address",
							"name": "spender",
							"type": "address"
						},
						{
							"indexed": false,
							"internalType": "uint256",
							"name": "value",
							"type": "uint256"
						}
					],
					"name": "Approval",
					"type": "event"
				},
				{
					"anonymous": false,
					"inputs": [
						{
							"indexed": true,
							"internalType": "address",
							"name": "previousOwner",
							"type": "address"
						},
						{
							"indexed": true,
							"internalType": "address",
							"name": "newOwner",
							"type": "address"
						}
					],
					"name": "OwnershipTransferred",
					"type": "event"
				},
				{
					"anonymous": false,
					"inputs": [
						{
							"indexed": false,
							"internalType": "uint256",
							"name": "tokensSwapped",
							"type": "uint256"
						},
						{
							"indexed": false,
							"internalType": "uint256",
							"name": "ethReceived",
							"type": "uint256"
						},
						{
							"indexed": false,
							"internalType": "uint256",
							"name": "tokensIntoLiqudity",
							"type": "uint256"
						}
					],
					"name": "SwapAndLiquify",
					"type": "event"
				},
				{
					"anonymous": false,
					"inputs": [
						{
							"indexed": false,
							"internalType": "bool",
							"name": "enabled",
							"type": "bool"
						}
					],
					"name": "SwapAndLiquifyEnabledUpdated",
					"type": "event"
				},
				{
					"anonymous": false,
					"inputs": [
						{
							"indexed": true,
							"internalType": "address",
							"name": "from",
							"type": "address"
						},
						{
							"indexed": true,
							"internalType": "address",
							"name": "to",
							"type": "address"
						},
						{
							"indexed": false,
							"internalType": "uint256",
							"name": "value",
							"type": "uint256"
						}
					],
					"name": "Transfer",
					"type": "event"
				},
				{
					"inputs": [
						{
							"internalType": "address payable",
							"name": "wallet",
							"type": "address"
						}
					],
					"name": "Update__Dev_Wallet",
					"outputs": [],
					"stateMutability": "nonpayable",
					"type": "function"
				},
				{
					"inputs": [],
					"name": "_TotalFee",
					"outputs": [
						{
							"internalType": "uint256",
							"name": "",
							"type": "uint256"
						}
					],
					"stateMutability": "view",
					"type": "function"
				},
				{
					"inputs": [],
					"name": "_buyFee",
					"outputs": [
						{
							"internalType": "uint256",
							"name": "",
							"type": "uint256"
						}
					],
					"stateMutability": "view",
					"type": "function"
				},
				{
					"inputs": [
						{
							"internalType": "address",
							"name": "",
							"type": "address"
						}
					],
					"name": "_isBlacklisted",
					"outputs": [
						{
							"internalType": "bool",
							"name": "",
							"type": "bool"
						}
					],
					"stateMutability": "view",
					"type": "function"
				},
				{
					"inputs": [
						{
							"internalType": "address",
							"name": "",
							"type": "address"
						}
					],
					"name": "_isExcludedFromFee",
					"outputs": [
						{
							"internalType": "bool",
							"name": "",
							"type": "bool"
						}
					],
					"stateMutability": "view",
					"type": "function"
				},
				{
					"inputs": [],
					"name": "_maxToken",
					"outputs": [
						{
							"internalType": "uint256",
							"name": "",
							"type": "uint256"
						}
					],
					"stateMutability": "view",
					"type": "function"
				},
				{
					"inputs": [],
					"name": "_maxTxAmount",
					"outputs": [
						{
							"internalType": "uint256",
							"name": "",
							"type": "uint256"
						}
					],
					"stateMutability": "view",
					"type": "function"
				},
				{
					"inputs": [],
					"name": "_sellFee",
					"outputs": [
						{
							"internalType": "uint256",
							"name": "",
							"type": "uint256"
						}
					],
					"stateMutability": "view",
					"type": "function"
				},
				{
					"inputs": [
						{
							"internalType": "uint256",
							"name": "Buy_Fee",
							"type": "uint256"
						},
						{
							"internalType": "uint256",
							"name": "Sell_Fee",
							"type": "uint256"
						}
					],
					"name": "_set_Fees",
					"outputs": [],
					"stateMutability": "nonpayable",
					"type": "function"
				},
				{
					"inputs": [
						{
							"internalType": "uint256",
							"name": "Transfer_Fee",
							"type": "uint256"
						}
					],
					"name": "_set_Transfer_Fee",
					"outputs": [],
					"stateMutability": "nonpayable",
					"type": "function"
				},
				{
					"inputs": [
						{
							"internalType": "address",
							"name": "owner",
							"type": "address"
						},
						{
							"internalType": "address",
							"name": "spender",
							"type": "address"
						}
					],
					"name": "allowance",
					"outputs": [
						{
							"internalType": "uint256",
							"name": "",
							"type": "uint256"
						}
					],
					"stateMutability": "view",
					"type": "function"
				},
				{
					"inputs": [
						{
							"internalType": "address",
							"name": "spender",
							"type": "address"
						},
						{
							"internalType": "uint256",
							"name": "amount",
							"type": "uint256"
						}
					],
					"name": "approve",
					"outputs": [
						{
							"internalType": "bool",
							"name": "",
							"type": "bool"
						}
					],
					"stateMutability": "nonpayable",
					"type": "function"
				},
				{
					"inputs": [
						{
							"internalType": "address",
							"name": "account",
							"type": "address"
						}
					],
					"name": "balanceOf",
					"outputs": [
						{
							"internalType": "uint256",
							"name": "",
							"type": "uint256"
						}
					],
					"stateMutability": "view",
					"type": "function"
				},
				{
					"inputs": [
						{
							"internalType": "bool",
							"name": "true_or_false",
							"type": "bool"
						}
					],
					"name": "blacklist_Toggle",
					"outputs": [],
					"stateMutability": "nonpayable",
					"type": "function"
				},
				{
					"inputs": [
						{
							"internalType": "address[]",
							"name": "addresses",
							"type": "address[]"
						}
					],
					"name": "blacklist_Wallets",
					"outputs": [],
					"stateMutability": "nonpayable",
					"type": "function"
				},
				{
					"inputs": [],
					"name": "decimals",
					"outputs": [
						{
							"internalType": "uint8",
							"name": "",
							"type": "uint8"
						}
					],
					"stateMutability": "view",
					"type": "function"
				},
				{
					"inputs": [
						{
							"internalType": "address",
							"name": "spender",
							"type": "address"
						},
						{
							"internalType": "uint256",
							"name": "subtractedValue",
							"type": "uint256"
						}
					],
					"name": "decreaseAllowance",
					"outputs": [
						{
							"internalType": "bool",
							"name": "",
							"type": "bool"
						}
					],
					"stateMutability": "nonpayable",
					"type": "function"
				},
				{
					"inputs": [
						{
							"internalType": "address",
							"name": "account",
							"type": "address"
						}
					],
					"name": "excludeFromFee",
					"outputs": [],
					"stateMutability": "nonpayable",
					"type": "function"
				},
				{
					"inputs": [
						{
							"internalType": "address",
							"name": "account",
							"type": "address"
						}
					],
					"name": "includeInFee",
					"outputs": [],
					"stateMutability": "nonpayable",
					"type": "function"
				},
				{
					"inputs": [
						{
							"internalType": "address",
							"name": "spender",
							"type": "address"
						},
						{
							"internalType": "uint256",
							"name": "addedValue",
							"type": "uint256"
						}
					],
					"name": "increaseAllowance",
					"outputs": [
						{
							"internalType": "bool",
							"name": "",
							"type": "bool"
						}
					],
					"stateMutability": "nonpayable",
					"type": "function"
				},
				{
					"inputs": [],
					"name": "isBlackList",
					"outputs": [
						{
							"internalType": "bool",
							"name": "",
							"type": "bool"
						}
					],
					"stateMutability": "view",
					"type": "function"
				},
				{
					"inputs": [],
					"name": "isSwapping",
					"outputs": [
						{
							"internalType": "bool",
							"name": "",
							"type": "bool"
						}
					],
					"stateMutability": "view",
					"type": "function"
				},
				{
					"inputs": [],
					"name": "name",
					"outputs": [
						{
							"internalType": "string",
							"name": "",
							"type": "string"
						}
					],
					"stateMutability": "view",
					"type": "function"
				},
				{
					"inputs": [],
					"name": "noTransferFee",
					"outputs": [
						{
							"internalType": "bool",
							"name": "",
							"type": "bool"
						}
					],
					"stateMutability": "view",
					"type": "function"
				},
				{
					"inputs": [],
					"name": "owner",
					"outputs": [
						{
							"internalType": "address",
							"name": "",
							"type": "address"
						}
					],
					"stateMutability": "view",
					"type": "function"
				},
				{
					"inputs": [
						{
							"internalType": "uint256",
							"name": "percent_Of_Tokens_To_Process",
							"type": "uint256"
						}
					],
					"name": "process_Tokens",
					"outputs": [],
					"stateMutability": "nonpayable",
					"type": "function"
				},
				{
					"inputs": [
						{
							"internalType": "address",
							"name": "Token_Address",
							"type": "address"
						},
						{
							"internalType": "address",
							"name": "send_to_wallet",
							"type": "address"
						},
						{
							"internalType": "uint256",
							"name": "number_of_tokens",
							"type": "uint256"
						}
					],
					"name": "recover_Tokens",
					"outputs": [
						{
							"internalType": "bool",
							"name": "_sent",
							"type": "bool"
						}
					],
					"stateMutability": "nonpayable",
					"type": "function"
				},
				{
					"inputs": [],
					"name": "renounceOwnership",
					"outputs": [],
					"stateMutability": "nonpayable",
					"type": "function"
				},
				{
					"inputs": [
						{
							"internalType": "uint256",
							"name": "maxTxPercent_x100",
							"type": "uint256"
						}
					],
					"name": "set_Max_TX_Percent",
					"outputs": [],
					"stateMutability": "nonpayable",
					"type": "function"
				},
				{
					"inputs": [
						{
							"internalType": "uint256",
							"name": "maxWallPercent_x100",
							"type": "uint256"
						}
					],
					"name": "set_Max_Wal_Percent",
					"outputs": [],
					"stateMutability": "nonpayable",
					"type": "function"
				},
				{
					"inputs": [
						{
							"internalType": "address",
							"name": "newPair",
							"type": "address"
						}
					],
					"name": "set_New_Pair_Address",
					"outputs": [],
					"stateMutability": "nonpayable",
					"type": "function"
				},
				{
					"inputs": [
						{
							"internalType": "address",
							"name": "newRouter",
							"type": "address"
						}
					],
					"name": "set_New_Router_Address",
					"outputs": [],
					"stateMutability": "nonpayable",
					"type": "function"
				},
				{
					"inputs": [
						{
							"internalType": "address",
							"name": "newRouter",
							"type": "address"
						}
					],
					"name": "set_New_Router_and_Make_Pair",
					"outputs": [],
					"stateMutability": "nonpayable",
					"type": "function"
				},
				{
					"inputs": [
						{
							"internalType": "uint8",
							"name": "number_of_transactions",
							"type": "uint8"
						}
					],
					"name": "set_Number_Of_Transactions_Before_Liquify_Trigger",
					"outputs": [],
					"stateMutability": "nonpayable",
					"type": "function"
				},
				{
					"inputs": [
						{
							"internalType": "bool",
							"name": "true_or_false",
							"type": "bool"
						}
					],
					"name": "set_Swap_And_Liquify_Enabled",
					"outputs": [],
					"stateMutability": "nonpayable",
					"type": "function"
				},
				{
					"inputs": [
						{
							"internalType": "bool",
							"name": "true_or_false",
							"type": "bool"
						}
					],
					"name": "set_TransferFees",
					"outputs": [],
					"stateMutability": "nonpayable",
					"type": "function"
				},
				{
					"inputs": [],
					"name": "swapAndLiqEnabled",
					"outputs": [
						{
							"internalType": "bool",
							"name": "",
							"type": "bool"
						}
					],
					"stateMutability": "view",
					"type": "function"
				},
				{
					"inputs": [],
					"name": "symbol",
					"outputs": [
						{
							"internalType": "string",
							"name": "",
							"type": "string"
						}
					],
					"stateMutability": "view",
					"type": "function"
				},
				{
					"inputs": [],
					"name": "totalSupply",
					"outputs": [
						{
							"internalType": "uint256",
							"name": "",
							"type": "uint256"
						}
					],
					"stateMutability": "view",
					"type": "function"
				},
				{
					"inputs": [
						{
							"internalType": "address",
							"name": "recipient",
							"type": "address"
						},
						{
							"internalType": "uint256",
							"name": "amount",
							"type": "uint256"
						}
					],
					"name": "transfer",
					"outputs": [
						{
							"internalType": "bool",
							"name": "",
							"type": "bool"
						}
					],
					"stateMutability": "nonpayable",
					"type": "function"
				},
				{
					"inputs": [
						{
							"internalType": "address",
							"name": "sender",
							"type": "address"
						},
						{
							"internalType": "address",
							"name": "recipient",
							"type": "address"
						},
						{
							"internalType": "uint256",
							"name": "amount",
							"type": "uint256"
						}
					],
					"name": "transferFrom",
					"outputs": [
						{
							"internalType": "bool",
							"name": "",
							"type": "bool"
						}
					],
					"stateMutability": "nonpayable",
					"type": "function"
				},
				{
					"inputs": [
						{
							"internalType": "address",
							"name": "newOwner",
							"type": "address"
						}
					],
					"name": "transferOwnership",
					"outputs": [],
					"stateMutability": "nonpayable",
					"type": "function"
				},
				{
					"inputs": [
						{
							"internalType": "address[]",
							"name": "addresses",
							"type": "address[]"
						}
					],
					"name": "unBlacklist_Wallets",
					"outputs": [],
					"stateMutability": "nonpayable",
					"type": "function"
				},
				{
					"inputs": [],
					"name": "uniswapV2Pair",
					"outputs": [
						{
							"internalType": "address",
							"name": "",
							"type": "address"
						}
					],
					"stateMutability": "view",
					"type": "function"
				},
				{
					"inputs": [],
					"name": "uniswapV2Router",
					"outputs": [
						{
							"internalType": "contract IUniswapV2Router02",
							"name": "",
							"type": "address"
						}
					],
					"stateMutability": "view",
					"type": "function"
				},
				{
					"stateMutability": "payable",
					"type": "receive"
				}
			],
			"devdoc": {
				"kind": "dev",
				"methods": {},
				"version": 1
			},
			"evm": {
				"assembly": "    /* \"XODEX2.sol\":11635:25226  contract XODEX is Context, IERC20, Ownable {... */\n  mstore(0x40, 0x80)\n    /* \"XODEX2.sol\":12223:12265  0x60EE6569662EE29295e2F09a0B657b8D535090b9 */\n  0x60ee6569662ee29295e2f09a0b657b8d535090b9\n    /* \"XODEX2.sol\":12178:12266  address payable private Dev_Wallet = payable(0x60EE6569662EE29295e2F09a0B657b8D535090b9) */\n  0x05\n  exp(0x0100, 0x01)\n  dup2\n  sload\n  dup2\n  0xffffffffffffffffffffffffffffffffffffffff\n  mul\n  not\n  and\n  swap1\n  dup4\n  0xffffffffffffffffffffffffffffffffffffffff\n  and\n  mul\n  or\n  swap1\n  sstore\n  pop\n    /* \"XODEX2.sol\":12393:12394  0 */\n  0x00\n    /* \"XODEX2.sol\":12369:12394  uint8 private txCount = 0 */\n  0x05\n  exp(0x0100, 0x15)\n  dup2\n  sload\n  dup2\n  0xff\n  mul\n  not\n  and\n  swap1\n  dup4\n  0xff\n  and\n  mul\n  or\n  swap1\n  sstore\n  pop\n    /* \"XODEX2.sol\":12428:12429  3 */\n  0x03\n    /* \"XODEX2.sol\":12400:12429  uint8 private swapTrigger = 3 */\n  0x05\n  exp(0x0100, 0x16)\n  dup2\n  sload\n  dup2\n  0xff\n  mul\n  not\n  and\n  swap1\n  dup4\n  0xff\n  and\n  mul\n  or\n  swap1\n  sstore\n  pop\n    /* \"XODEX2.sol\":12503:12505  10 */\n  0x0a\n    /* \"XODEX2.sol\":12470:12505  uint256 private maxTransferFee = 10 */\n  0x06\n  sstore\n    /* \"XODEX2.sol\":12538:12561  _tTotal.mul(2).div(100) */\n  tag_1\n    /* \"XODEX2.sol\":12557:12560  100 */\n  0x64\n    /* \"XODEX2.sol\":12538:12552  _tTotal.mul(2) */\n  tag_2\n    /* \"XODEX2.sol\":12550:12551  2 */\n  0x02\n    /* \"XODEX2.sol\":12121:12141  10000000000 * 10**18 */\n  0x204fce5e3e25026110000000\n    /* \"XODEX2.sol\":12538:12549  _tTotal.mul */\n  or(tag_0_262, shl(0x20, tag_3))\n  swap1\n    /* \"XODEX2.sol\":12538:12552  _tTotal.mul(2) */\n  swap2\n  swap1\n  0x20\n  shr\n  jump\t// in\ntag_2:\n    /* \"XODEX2.sol\":12538:12556  _tTotal.mul(2).div */\n  or(tag_0_263, shl(0x20, tag_4))\n  swap1\n    /* \"XODEX2.sol\":12538:12561  _tTotal.mul(2).div(100) */\n  swap2\n  swap1\n  0x20\n  shr\n  jump\t// in\ntag_1:\n    /* \"XODEX2.sol\":12511:12561  uint256 public _maxToken = _tTotal.mul(2).div(100) */\n  0x07\n  sstore\n    /* \"XODEX2.sol\":12599:12608  _maxToken */\n  sload(0x07)\n    /* \"XODEX2.sol\":12567:12608  uint256 private _prevMaxToken = _maxToken */\n  0x08\n  sstore\n    /* \"XODEX2.sol\":12644:12667  _tTotal.mul(1).div(100) */\n  tag_5\n    /* \"XODEX2.sol\":12663:12666  100 */\n  0x64\n    /* \"XODEX2.sol\":12644:12658  _tTotal.mul(1) */\n  tag_6\n    /* \"XODEX2.sol\":12656:12657  1 */\n  0x01\n    /* \"XODEX2.sol\":12121:12141  10000000000 * 10**18 */\n  0x204fce5e3e25026110000000\n    /* \"XODEX2.sol\":12644:12655  _tTotal.mul */\n  or(tag_0_262, shl(0x20, tag_3))\n  swap1\n    /* \"XODEX2.sol\":12644:12658  _tTotal.mul(1) */\n  swap2\n  swap1\n  0x20\n  shr\n  jump\t// in\ntag_6:\n    /* \"XODEX2.sol\":12644:12662  _tTotal.mul(1).div */\n  or(tag_0_263, shl(0x20, tag_4))\n  swap1\n    /* \"XODEX2.sol\":12644:12667  _tTotal.mul(1).div(100) */\n  swap2\n  swap1\n  0x20\n  shr\n  jump\t// in\ntag_5:\n    /* \"XODEX2.sol\":12614:12667  uint256 public _maxTxAmount = _tTotal.mul(1).div(100) */\n  0x09\n  sstore\n    /* \"XODEX2.sol\":12708:12720  _maxTxAmount */\n  sload(0x09)\n    /* \"XODEX2.sol\":12673:12720  uint256 private _prevMaxTxAmount = _maxTxAmount */\n  0x0a\n  sstore\n    /* \"XODEX2.sol\":12754:12756  10 */\n  0x0a\n    /* \"XODEX2.sol\":12727:12756  uint256 public _TotalFee = 10 */\n  0x0b\n  sstore\n    /* \"XODEX2.sol\":12787:12788  5 */\n  0x05\n    /* \"XODEX2.sol\":12762:12788  uint256 public _buyFee = 5 */\n  0x0c\n  sstore\n    /* \"XODEX2.sol\":12820:12821  5 */\n  0x05\n    /* \"XODEX2.sol\":12794:12821  uint256 public _sellFee = 5 */\n  0x0d\n  sstore\n    /* \"XODEX2.sol\":12860:12869  _TotalFee */\n  sload(0x0b)\n    /* \"XODEX2.sol\":12828:12869  uint256 private _prevTotalFee = _TotalFee */\n  0x0e\n  sstore\n    /* \"XODEX2.sol\":12905:12912  _buyFee */\n  sload(0x0c)\n    /* \"XODEX2.sol\":12875:12912  uint256 private _prevBuyFee = _buyFee */\n  0x0f\n  sstore\n    /* \"XODEX2.sol\":12949:12957  _sellFee */\n  sload(0x0d)\n    /* \"XODEX2.sol\":12918:12957  uint256 private _prevSellFee = _sellFee */\n  0x10\n  sstore\n    /* \"XODEX2.sol\":12992:12996  true */\n  0x01\n    /* \"XODEX2.sol\":12964:12996  bool public noTransferFee = true */\n  0x11\n  exp(0x0100, 0x00)\n  dup2\n  sload\n  dup2\n  0xff\n  mul\n  not\n  and\n  swap1\n  dup4\n  iszero\n  iszero\n  mul\n  or\n  swap1\n  sstore\n  pop\n    /* \"XODEX2.sol\":13144:13148  true */\n  0x01\n    /* \"XODEX2.sol\":13112:13148  bool public swapAndLiqEnabled = true */\n  0x12\n  exp(0x0100, 0x15)\n  dup2\n  sload\n  dup2\n  0xff\n  mul\n  not\n  and\n  swap1\n  dup4\n  iszero\n  iszero\n  mul\n  or\n  swap1\n  sstore\n  pop\n    /* \"XODEX2.sol\":13407:13975  constructor() {... */\n  callvalue\n  dup1\n  iszero\n  tag_7\n  jumpi\n  0x00\n  dup1\n  revert\ntag_7:\n  pop\n    /* \"XODEX2.sol\":2130:2172  0xc402FE06948516567f2E59AB88172FEE49F5a84c */\n  0xc402fe06948516567f2e59ab88172fee49f5a84c\n    /* \"XODEX2.sol\":2121:2127  _owner */\n  0x00\n  dup1\n    /* \"XODEX2.sol\":2121:2172  _owner = 0xc402FE06948516567f2E59AB88172FEE49F5a84c */\n  0x0100\n  exp\n  dup2\n  sload\n  dup2\n  0xffffffffffffffffffffffffffffffffffffffff\n  mul\n  not\n  and\n  swap1\n  dup4\n  0xffffffffffffffffffffffffffffffffffffffff\n  and\n  mul\n  or\n  swap1\n  sstore\n  pop\n    /* \"XODEX2.sol\":2220:2226  _owner */\n  0x00\n  dup1\n  sload\n  swap1\n  0x0100\n  exp\n  swap1\n  div\n  0xffffffffffffffffffffffffffffffffffffffff\n  and\n    /* \"XODEX2.sol\":2187:2227  OwnershipTransferred(address(0), _owner) */\n  0xffffffffffffffffffffffffffffffffffffffff\n  and\n    /* \"XODEX2.sol\":2216:2217  0 */\n  0x00\n    /* \"XODEX2.sol\":2187:2227  OwnershipTransferred(address(0), _owner) */\n  0xffffffffffffffffffffffffffffffffffffffff\n  and\n  0x8be0079c531659141344cd1fd0a4f28419497f9722a3daafe3b4186f6b6457e0\n  mload(0x40)\n  mload(0x40)\n  dup1\n  swap2\n  sub\n  swap1\n  log3\n    /* \"XODEX2.sol\":12121:12141  10000000000 * 10**18 */\n  0x204fce5e3e25026110000000\n    /* \"XODEX2.sol\":13431:13442  _totalOwned */\n  0x01\n    /* \"XODEX2.sol\":13431:13451  _totalOwned[owner()] */\n  0x00\n    /* \"XODEX2.sol\":13443:13450  owner() */\n  tag_12\n    /* \"XODEX2.sol\":13443:13448  owner */\n  shl(0x20, tag_13)\n    /* \"XODEX2.sol\":13443:13450  owner() */\n  0x20\n  shr\n  jump\t// in\ntag_12:\n    /* \"XODEX2.sol\":13431:13451  _totalOwned[owner()] */\n  0xffffffffffffffffffffffffffffffffffffffff\n  and\n  0xffffffffffffffffffffffffffffffffffffffff\n  and\n  dup2\n  mstore\n  0x20\n  add\n  swap1\n  dup2\n  mstore\n  0x20\n  add\n  0x00\n  keccak256\n    /* \"XODEX2.sol\":13431:13461  _totalOwned[owner()] = _tTotal */\n  dup2\n  swap1\n  sstore\n  pop\n    /* \"XODEX2.sol\":13472:13507  IUniswapV2Router02 _uniswapV2Router */\n  0x00\n    /* \"XODEX2.sol\":13529:13571  0x10ED43C718714eb63d5aA57B78B54704E256024E */\n  0x10ed43c718714eb63d5aa57b78b54704e256024e\n    /* \"XODEX2.sol\":13472:13572  IUniswapV2Router02 _uniswapV2Router = IUniswapV2Router02(0x10ED43C718714eb63d5aA57B78B54704E256024E) */\n  swap1\n  pop\n    /* \"XODEX2.sol\":13617:13633  _uniswapV2Router */\n  dup1\n    /* \"XODEX2.sol\":13617:13641  _uniswapV2Router.factory */\n  0xffffffffffffffffffffffffffffffffffffffff\n  and\n  0xc45a0155\n    /* \"XODEX2.sol\":13617:13643  _uniswapV2Router.factory() */\n  mload(0x40)\n  dup2\n  0xffffffff\n  and\n  0xe0\n  shl\n  dup2\n  mstore\n  0x04\n  add\n  0x20\n  mload(0x40)\n  dup1\n  dup4\n  sub\n  dup2\n  dup7\n  gas\n  staticcall\n  iszero\n  dup1\n  iszero\n  tag_15\n  jumpi\n  returndatasize\n  0x00\n  dup1\n  returndatacopy\n  revert(0x00, returndatasize)\ntag_15:\n  pop\n  pop\n  pop\n  pop\n  mload(0x40)\n  returndatasize\n  not(0x1f)\n  0x1f\n  dup3\n  add\n  and\n  dup3\n  add\n  dup1\n  0x40\n  mstore\n  pop\n  dup2\n  add\n  swap1\n  tag_16\n  swap2\n  swap1\n  tag_17\n  jump\t// in\ntag_16:\n    /* \"XODEX2.sol\":13599:13655  IUniswapV2Factory(_uniswapV2Router.factory()).createPair */\n  0xffffffffffffffffffffffffffffffffffffffff\n  and\n  0xc9c65396\n    /* \"XODEX2.sol\":13677:13681  this */\n  address\n    /* \"XODEX2.sol\":13696:13712  _uniswapV2Router */\n  dup4\n    /* \"XODEX2.sol\":13696:13717  _uniswapV2Router.WETH */\n  0xffffffffffffffffffffffffffffffffffffffff\n  and\n  0xad5c4648\n    /* \"XODEX2.sol\":13696:13719  _uniswapV2Router.WETH() */\n  mload(0x40)\n  dup2\n  0xffffffff\n  and\n  0xe0\n  shl\n  dup2\n  mstore\n  0x04\n  add\n  0x20\n  mload(0x40)\n  dup1\n  dup4\n  sub\n  dup2\n  dup7\n  gas\n  staticcall\n  iszero\n  dup1\n  iszero\n  tag_19\n  jumpi\n  returndatasize\n  0x00\n  dup1\n  returndatacopy\n  revert(0x00, returndatasize)\ntag_19:\n  pop\n  pop\n  pop\n  pop\n  mload(0x40)\n  returndatasize\n  not(0x1f)\n  0x1f\n  dup3\n  add\n  and\n  dup3\n  add\n  dup1\n  0x40\n  mstore\n  pop\n  dup2\n  add\n  swap1\n  tag_20\n  swap2\n  swap1\n  tag_17\n  jump\t// in\ntag_20:\n    /* \"XODEX2.sol\":13599:13729  IUniswapV2Factory(_uniswapV2Router.factory()).createPair(... */\n  mload(0x40)\n  dup4\n  0xffffffff\n  and\n  0xe0\n  shl\n  dup2\n  mstore\n  0x04\n  add\n  tag_21\n  swap3\n  swap2\n  swap1\n  tag_22\n  jump\t// in\ntag_21:\n  0x20\n  mload(0x40)\n  dup1\n  dup4\n  sub\n  dup2\n  0x00\n  dup8\n  gas\n  call\n  iszero\n  dup1\n  iszero\n  tag_24\n  jumpi\n  returndatasize\n  0x00\n  dup1\n  returndatacopy\n  revert(0x00, returndatasize)\ntag_24:\n  pop\n  pop\n  pop\n  pop\n  mload(0x40)\n  returndatasize\n  not(0x1f)\n  0x1f\n  dup3\n  add\n  and\n  dup3\n  add\n  dup1\n  0x40\n  mstore\n  pop\n  dup2\n  add\n  swap1\n  tag_25\n  swap2\n  swap1\n  tag_17\n  jump\t// in\ntag_25:\n    /* \"XODEX2.sol\":13583:13596  uniswapV2Pair */\n  0x12\n  0x00\n    /* \"XODEX2.sol\":13583:13729  uniswapV2Pair = IUniswapV2Factory(_uniswapV2Router.factory()).createPair(... */\n  0x0100\n  exp\n  dup2\n  sload\n  dup2\n  0xffffffffffffffffffffffffffffffffffffffff\n  mul\n  not\n  and\n  swap1\n  dup4\n  0xffffffffffffffffffffffffffffffffffffffff\n  and\n  mul\n  or\n  swap1\n  sstore\n  pop\n    /* \"XODEX2.sol\":13757:13773  _uniswapV2Router */\n  dup1\n    /* \"XODEX2.sol\":13739:13754  uniswapV2Router */\n  0x11\n  0x01\n    /* \"XODEX2.sol\":13739:13773  uniswapV2Router = _uniswapV2Router */\n  0x0100\n  exp\n  dup2\n  sload\n  dup2\n  0xffffffffffffffffffffffffffffffffffffffff\n  mul\n  not\n  and\n  swap1\n  dup4\n  0xffffffffffffffffffffffffffffffffffffffff\n  and\n  mul\n  or\n  swap1\n  sstore\n  pop\n    /* \"XODEX2.sol\":13813:13817  true */\n  0x01\n    /* \"XODEX2.sol\":13783:13801  _isExcludedFromFee */\n  0x03\n    /* \"XODEX2.sol\":13783:13810  _isExcludedFromFee[owner()] */\n  0x00\n    /* \"XODEX2.sol\":13802:13809  owner() */\n  tag_26\n    /* \"XODEX2.sol\":13802:13807  owner */\n  shl(0x20, tag_13)\n    /* \"XODEX2.sol\":13802:13809  owner() */\n  0x20\n  shr\n  jump\t// in\ntag_26:\n    /* \"XODEX2.sol\":13783:13810  _isExcludedFromFee[owner()] */\n  0xffffffffffffffffffffffffffffffffffffffff\n  and\n  0xffffffffffffffffffffffffffffffffffffffff\n  and\n  dup2\n  mstore\n  0x20\n  add\n  swap1\n  dup2\n  mstore\n  0x20\n  add\n  0x00\n  keccak256\n  0x00\n    /* \"XODEX2.sol\":13783:13817  _isExcludedFromFee[owner()] = true */\n  0x0100\n  exp\n  dup2\n  sload\n  dup2\n  0xff\n  mul\n  not\n  and\n  swap1\n  dup4\n  iszero\n  iszero\n  mul\n  or\n  swap1\n  sstore\n  pop\n    /* \"XODEX2.sol\":13863:13867  true */\n  0x01\n    /* \"XODEX2.sol\":13827:13845  _isExcludedFromFee */\n  0x03\n    /* \"XODEX2.sol\":13827:13860  _isExcludedFromFee[address(this)] */\n  0x00\n    /* \"XODEX2.sol\":13854:13858  this */\n  address\n    /* \"XODEX2.sol\":13827:13860  _isExcludedFromFee[address(this)] */\n  0xffffffffffffffffffffffffffffffffffffffff\n  and\n  0xffffffffffffffffffffffffffffffffffffffff\n  and\n  dup2\n  mstore\n  0x20\n  add\n  swap1\n  dup2\n  mstore\n  0x20\n  add\n  0x00\n  keccak256\n  0x00\n    /* \"XODEX2.sol\":13827:13867  _isExcludedFromFee[address(this)] = true */\n  0x0100\n  exp\n  dup2\n  sload\n  dup2\n  0xff\n  mul\n  not\n  and\n  swap1\n  dup4\n  iszero\n  iszero\n  mul\n  or\n  swap1\n  sstore\n  pop\n    /* \"XODEX2.sol\":13910:13914  true */\n  0x01\n    /* \"XODEX2.sol\":13877:13895  _isExcludedFromFee */\n  0x03\n    /* \"XODEX2.sol\":13877:13907  _isExcludedFromFee[Dev_Wallet] */\n  0x00\n    /* \"XODEX2.sol\":13896:13906  Dev_Wallet */\n  0x05\n  0x01\n  swap1\n  sload\n  swap1\n  0x0100\n  exp\n  swap1\n  div\n  0xffffffffffffffffffffffffffffffffffffffff\n  and\n    /* \"XODEX2.sol\":13877:13907  _isExcludedFromFee[Dev_Wallet] */\n  0xffffffffffffffffffffffffffffffffffffffff\n  and\n  0xffffffffffffffffffffffffffffffffffffffff\n  and\n  dup2\n  mstore\n  0x20\n  add\n  swap1\n  dup2\n  mstore\n  0x20\n  add\n  0x00\n  keccak256\n  0x00\n    /* \"XODEX2.sol\":13877:13914  _isExcludedFromFee[Dev_Wallet] = true */\n  0x0100\n  exp\n  dup2\n  sload\n  dup2\n  0xff\n  mul\n  not\n  and\n  swap1\n  dup4\n  iszero\n  iszero\n  mul\n  or\n  swap1\n  sstore\n  pop\n    /* \"XODEX2.sol\":13951:13958  owner() */\n  tag_27\n    /* \"XODEX2.sol\":13951:13956  owner */\n  shl(0x20, tag_13)\n    /* \"XODEX2.sol\":13951:13958  owner() */\n  0x20\n  shr\n  jump\t// in\ntag_27:\n    /* \"XODEX2.sol\":13930:13968  Transfer(address(0), owner(), _tTotal) */\n  0xffffffffffffffffffffffffffffffffffffffff\n  and\n    /* \"XODEX2.sol\":13947:13948  0 */\n  0x00\n    /* \"XODEX2.sol\":13930:13968  Transfer(address(0), owner(), _tTotal) */\n  0xffffffffffffffffffffffffffffffffffffffff\n  and\n  0xddf252ad1be2c89b69c2b068fc378daa952ba7f163c4a11628f55a4df523b3ef\n    /* \"XODEX2.sol\":12121:12141  10000000000 * 10**18 */\n  0x204fce5e3e25026110000000\n    /* \"XODEX2.sol\":13930:13968  Transfer(address(0), owner(), _tTotal) */\n  mload(0x40)\n  tag_28\n  swap2\n  swap1\n  tag_29\n  jump\t// in\ntag_28:\n  mload(0x40)\n  dup1\n  swap2\n  sub\n  swap1\n  log3\n    /* \"XODEX2.sol\":13421:13975  {... */\n  pop\n    /* \"XODEX2.sol\":11635:25226  contract XODEX is Context, IERC20, Ownable {... */\n  jump(tag_30)\n    /* \"XODEX2.sol\":983:1079  function mul(uint256 a, uint256 b) internal pure returns (uint256) {... */\ntag_3:\n    /* \"XODEX2.sol\":1041:1048  uint256 */\n  0x00\n    /* \"XODEX2.sol\":1071:1072  b */\n  dup2\n    /* \"XODEX2.sol\":1067:1068  a */\n  dup4\n    /* \"XODEX2.sol\":1067:1072  a * b */\n  tag_32\n  swap2\n  swap1\n  tag_33\n  jump\t// in\ntag_32:\n    /* \"XODEX2.sol\":1060:1072  return a * b */\n  swap1\n  pop\n    /* \"XODEX2.sol\":983:1079  function mul(uint256 a, uint256 b) internal pure returns (uint256) {... */\n  swap3\n  swap2\n  pop\n  pop\n  jump\t// out\n    /* \"XODEX2.sol\":1085:1181  function div(uint256 a, uint256 b) internal pure returns (uint256) {... */\ntag_4:\n    /* \"XODEX2.sol\":1143:1150  uint256 */\n  0x00\n    /* \"XODEX2.sol\":1173:1174  b */\n  dup2\n    /* \"XODEX2.sol\":1169:1170  a */\n  dup4\n    /* \"XODEX2.sol\":1169:1174  a / b */\n  tag_35\n  swap2\n  swap1\n  tag_36\n  jump\t// in\ntag_35:\n    /* \"XODEX2.sol\":1162:1174  return a / b */\n  swap1\n  pop\n    /* \"XODEX2.sol\":1085:1181  function div(uint256 a, uint256 b) internal pure returns (uint256) {... */\n  swap3\n  swap2\n  pop\n  pop\n  jump\t// out\n    /* \"XODEX2.sol\":2268:2353  function owner() public view virtual returns (address) {... */\ntag_13:\n    /* \"XODEX2.sol\":2314:2321  address */\n  0x00\n    /* \"XODEX2.sol\":2340:2346  _owner */\n  dup1\n  0x00\n  swap1\n  sload\n  swap1\n  0x0100\n  exp\n  swap1\n  div\n  0xffffffffffffffffffffffffffffffffffffffff\n  and\n    /* \"XODEX2.sol\":2333:2346  return _owner */\n  swap1\n  pop\n    /* \"XODEX2.sol\":2268:2353  function owner() public view virtual returns (address) {... */\n  swap1\n  jump\t// out\n    /* \"#utility.yul\":88:205   */\ntag_39:\n    /* \"#utility.yul\":197:198   */\n  0x00\n    /* \"#utility.yul\":194:195   */\n  dup1\n    /* \"#utility.yul\":187:199   */\n  revert\n    /* \"#utility.yul\":334:460   */\ntag_41:\n    /* \"#utility.yul\":371:378   */\n  0x00\n    /* \"#utility.yul\":411:453   */\n  0xffffffffffffffffffffffffffffffffffffffff\n    /* \"#utility.yul\":404:409   */\n  dup3\n    /* \"#utility.yul\":400:454   */\n  and\n    /* \"#utility.yul\":389:454   */\n  swap1\n  pop\n    /* \"#utility.yul\":334:460   */\n  swap2\n  swap1\n  pop\n  jump\t// out\n    /* \"#utility.yul\":466:562   */\ntag_42:\n    /* \"#utility.yul\":503:510   */\n  0x00\n    /* \"#utility.yul\":532:556   */\n  tag_56\n    /* \"#utility.yul\":550:555   */\n  dup3\n    /* \"#utility.yul\":532:556   */\n  tag_41\n  jump\t// in\ntag_56:\n    /* \"#utility.yul\":521:556   */\n  swap1\n  pop\n    /* \"#utility.yul\":466:562   */\n  swap2\n  swap1\n  pop\n  jump\t// out\n    /* \"#utility.yul\":568:690   */\ntag_43:\n    /* \"#utility.yul\":641:665   */\n  tag_58\n    /* \"#utility.yul\":659:664   */\n  dup2\n    /* \"#utility.yul\":641:665   */\n  tag_42\n  jump\t// in\ntag_58:\n    /* \"#utility.yul\":634:639   */\n  dup2\n    /* \"#utility.yul\":631:666   */\n  eq\n    /* \"#utility.yul\":621:684   */\n  tag_59\n  jumpi\n    /* \"#utility.yul\":680:681   */\n  0x00\n    /* \"#utility.yul\":677:678   */\n  dup1\n    /* \"#utility.yul\":670:682   */\n  revert\n    /* \"#utility.yul\":621:684   */\ntag_59:\n    /* \"#utility.yul\":568:690   */\n  pop\n  jump\t// out\n    /* \"#utility.yul\":696:839   */\ntag_44:\n    /* \"#utility.yul\":753:758   */\n  0x00\n    /* \"#utility.yul\":784:790   */\n  dup2\n    /* \"#utility.yul\":778:791   */\n  mload\n    /* \"#utility.yul\":769:791   */\n  swap1\n  pop\n    /* \"#utility.yul\":800:833   */\n  tag_61\n    /* \"#utility.yul\":827:832   */\n  dup2\n    /* \"#utility.yul\":800:833   */\n  tag_43\n  jump\t// in\ntag_61:\n    /* \"#utility.yul\":696:839   */\n  swap3\n  swap2\n  pop\n  pop\n  jump\t// out\n    /* \"#utility.yul\":845:1196   */\ntag_17:\n    /* \"#utility.yul\":915:921   */\n  0x00\n    /* \"#utility.yul\":964:966   */\n  0x20\n    /* \"#utility.yul\":952:961   */\n  dup3\n    /* \"#utility.yul\":943:950   */\n  dup5\n    /* \"#utility.yul\":939:962   */\n  sub\n    /* \"#utility.yul\":935:967   */\n  slt\n    /* \"#utility.yul\":932:1051   */\n  iszero\n  tag_63\n  jumpi\n    /* \"#utility.yul\":970:1049   */\n  tag_64\n  tag_39\n  jump\t// in\ntag_64:\n    /* \"#utility.yul\":932:1051   */\ntag_63:\n    /* \"#utility.yul\":1090:1091   */\n  0x00\n    /* \"#utility.yul\":1115:1179   */\n  tag_65\n    /* \"#utility.yul\":1171:1178   */\n  dup5\n    /* \"#utility.yul\":1162:1168   */\n  dup3\n    /* \"#utility.yul\":1151:1160   */\n  dup6\n    /* \"#utility.yul\":1147:1169   */\n  add\n    /* \"#utility.yul\":1115:1179   */\n  tag_44\n  jump\t// in\ntag_65:\n    /* \"#utility.yul\":1105:1179   */\n  swap2\n  pop\n    /* \"#utility.yul\":1061:1189   */\n  pop\n    /* \"#utility.yul\":845:1196   */\n  swap3\n  swap2\n  pop\n  pop\n  jump\t// out\n    /* \"#utility.yul\":1202:1320   */\ntag_45:\n    /* \"#utility.yul\":1289:1313   */\n  tag_67\n    /* \"#utility.yul\":1307:1312   */\n  dup2\n    /* \"#utility.yul\":1289:1313   */\n  tag_42\n  jump\t// in\ntag_67:\n    /* \"#utility.yul\":1284:1287   */\n  dup3\n    /* \"#utility.yul\":1277:1314   */\n  mstore\n    /* \"#utility.yul\":1202:1320   */\n  pop\n  pop\n  jump\t// out\n    /* \"#utility.yul\":1326:1658   */\ntag_22:\n    /* \"#utility.yul\":1447:1451   */\n  0x00\n    /* \"#utility.yul\":1485:1487   */\n  0x40\n    /* \"#utility.yul\":1474:1483   */\n  dup3\n    /* \"#utility.yul\":1470:1488   */\n  add\n    /* \"#utility.yul\":1462:1488   */\n  swap1\n  pop\n    /* \"#utility.yul\":1498:1569   */\n  tag_69\n    /* \"#utility.yul\":1566:1567   */\n  0x00\n    /* \"#utility.yul\":1555:1564   */\n  dup4\n    /* \"#utility.yul\":1551:1568   */\n  add\n    /* \"#utility.yul\":1542:1548   */\n  dup6\n    /* \"#utility.yul\":1498:1569   */\n  tag_45\n  jump\t// in\ntag_69:\n    /* \"#utility.yul\":1579:1651   */\n  tag_70\n    /* \"#utility.yul\":1647:1649   */\n  0x20\n    /* \"#utility.yul\":1636:1645   */\n  dup4\n    /* \"#utility.yul\":1632:1650   */\n  add\n    /* \"#utility.yul\":1623:1629   */\n  dup5\n    /* \"#utility.yul\":1579:1651   */\n  tag_45\n  jump\t// in\ntag_70:\n    /* \"#utility.yul\":1326:1658   */\n  swap4\n  swap3\n  pop\n  pop\n  pop\n  jump\t// out\n    /* \"#utility.yul\":1664:1741   */\ntag_46:\n    /* \"#utility.yul\":1701:1708   */\n  0x00\n    /* \"#utility.yul\":1730:1735   */\n  dup2\n    /* \"#utility.yul\":1719:1735   */\n  swap1\n  pop\n    /* \"#utility.yul\":1664:1741   */\n  swap2\n  swap1\n  pop\n  jump\t// out\n    /* \"#utility.yul\":1747:1865   */\ntag_47:\n    /* \"#utility.yul\":1834:1858   */\n  tag_73\n    /* \"#utility.yul\":1852:1857   */\n  dup2\n    /* \"#utility.yul\":1834:1858   */\n  tag_46\n  jump\t// in\ntag_73:\n    /* \"#utility.yul\":1829:1832   */\n  dup3\n    /* \"#utility.yul\":1822:1859   */\n  mstore\n    /* \"#utility.yul\":1747:1865   */\n  pop\n  pop\n  jump\t// out\n    /* \"#utility.yul\":1871:2093   */\ntag_29:\n    /* \"#utility.yul\":1964:1968   */\n  0x00\n    /* \"#utility.yul\":2002:2004   */\n  0x20\n    /* \"#utility.yul\":1991:2000   */\n  dup3\n    /* \"#utility.yul\":1987:2005   */\n  add\n    /* \"#utility.yul\":1979:2005   */\n  swap1\n  pop\n    /* \"#utility.yul\":2015:2086   */\n  tag_75\n    /* \"#utility.yul\":2083:2084   */\n  0x00\n    /* \"#utility.yul\":2072:2081   */\n  dup4\n    /* \"#utility.yul\":2068:2085   */\n  add\n    /* \"#utility.yul\":2059:2065   */\n  dup5\n    /* \"#utility.yul\":2015:2086   */\n  tag_47\n  jump\t// in\ntag_75:\n    /* \"#utility.yul\":1871:2093   */\n  swap3\n  swap2\n  pop\n  pop\n  jump\t// out\n    /* \"#utility.yul\":2099:2279   */\ntag_48:\n    /* \"#utility.yul\":2147:2224   */\n  0x4e487b7100000000000000000000000000000000000000000000000000000000\n    /* \"#utility.yul\":2144:2145   */\n  0x00\n    /* \"#utility.yul\":2137:2225   */\n  mstore\n    /* \"#utility.yul\":2244:2248   */\n  0x11\n    /* \"#utility.yul\":2241:2242   */\n  0x04\n    /* \"#utility.yul\":2234:2249   */\n  mstore\n    /* \"#utility.yul\":2268:2272   */\n  0x24\n    /* \"#utility.yul\":2265:2266   */\n  0x00\n    /* \"#utility.yul\":2258:2273   */\n  revert\n    /* \"#utility.yul\":2285:2695   */\ntag_33:\n    /* \"#utility.yul\":2325:2332   */\n  0x00\n    /* \"#utility.yul\":2348:2368   */\n  tag_78\n    /* \"#utility.yul\":2366:2367   */\n  dup3\n    /* \"#utility.yul\":2348:2368   */\n  tag_46\n  jump\t// in\ntag_78:\n    /* \"#utility.yul\":2343:2368   */\n  swap2\n  pop\n    /* \"#utility.yul\":2382:2402   */\n  tag_79\n    /* \"#utility.yul\":2400:2401   */\n  dup4\n    /* \"#utility.yul\":2382:2402   */\n  tag_46\n  jump\t// in\ntag_79:\n    /* \"#utility.yul\":2377:2402   */\n  swap3\n  pop\n    /* \"#utility.yul\":2437:2438   */\n  dup3\n    /* \"#utility.yul\":2434:2435   */\n  dup3\n    /* \"#utility.yul\":2430:2439   */\n  mul\n    /* \"#utility.yul\":2459:2489   */\n  tag_80\n    /* \"#utility.yul\":2477:2488   */\n  dup2\n    /* \"#utility.yul\":2459:2489   */\n  tag_46\n  jump\t// in\ntag_80:\n    /* \"#utility.yul\":2448:2489   */\n  swap2\n  pop\n    /* \"#utility.yul\":2638:2639   */\n  dup3\n    /* \"#utility.yul\":2629:2636   */\n  dup3\n    /* \"#utility.yul\":2625:2640   */\n  div\n    /* \"#utility.yul\":2622:2623   */\n  dup5\n    /* \"#utility.yul\":2619:2641   */\n  eq\n    /* \"#utility.yul\":2599:2600   */\n  dup4\n    /* \"#utility.yul\":2592:2601   */\n  iszero\n    /* \"#utility.yul\":2572:2655   */\n  or\n    /* \"#utility.yul\":2549:2688   */\n  tag_81\n  jumpi\n    /* \"#utility.yul\":2668:2686   */\n  tag_82\n  tag_48\n  jump\t// in\ntag_82:\n    /* \"#utility.yul\":2549:2688   */\ntag_81:\n    /* \"#utility.yul\":2333:2695   */\n  pop\n    /* \"#utility.yul\":2285:2695   */\n  swap3\n  swap2\n  pop\n  pop\n  jump\t// out\n    /* \"#utility.yul\":2701:2881   */\ntag_49:\n    /* \"#utility.yul\":2749:2826   */\n  0x4e487b7100000000000000000000000000000000000000000000000000000000\n    /* \"#utility.yul\":2746:2747   */\n  0x00\n    /* \"#utility.yul\":2739:2827   */\n  mstore\n    /* \"#utility.yul\":2846:2850   */\n  0x12\n    /* \"#utility.yul\":2843:2844   */\n  0x04\n    /* \"#utility.yul\":2836:2851   */\n  mstore\n    /* \"#utility.yul\":2870:2874   */\n  0x24\n    /* \"#utility.yul\":2867:2868   */\n  0x00\n    /* \"#utility.yul\":2860:2875   */\n  revert\n    /* \"#utility.yul\":2887:3072   */\ntag_36:\n    /* \"#utility.yul\":2927:2928   */\n  0x00\n    /* \"#utility.yul\":2944:2964   */\n  tag_85\n    /* \"#utility.yul\":2962:2963   */\n  dup3\n    /* \"#utility.yul\":2944:2964   */\n  tag_46\n  jump\t// in\ntag_85:\n    /* \"#utility.yul\":2939:2964   */\n  swap2\n  pop\n    /* \"#utility.yul\":2978:2998   */\n  tag_86\n    /* \"#utility.yul\":2996:2997   */\n  dup4\n    /* \"#utility.yul\":2978:2998   */\n  tag_46\n  jump\t// in\ntag_86:\n    /* \"#utility.yul\":2973:2998   */\n  swap3\n  pop\n    /* \"#utility.yul\":3017:3018   */\n  dup3\n    /* \"#utility.yul\":3007:3042   */\n  tag_87\n  jumpi\n    /* \"#utility.yul\":3022:3040   */\n  tag_88\n  tag_49\n  jump\t// in\ntag_88:\n    /* \"#utility.yul\":3007:3042   */\ntag_87:\n    /* \"#utility.yul\":3064:3065   */\n  dup3\n    /* \"#utility.yul\":3061:3062   */\n  dup3\n    /* \"#utility.yul\":3057:3066   */\n  div\n    /* \"#utility.yul\":3052:3066   */\n  swap1\n  pop\n    /* \"#utility.yul\":2887:3072   */\n  swap3\n  swap2\n  pop\n  pop\n  jump\t// out\n    /* \"XODEX2.sol\":11635:25226  contract XODEX is Context, IERC20, Ownable {... */\ntag_30:\n  dataSize(sub_0)\n  dup1\n  dataOffset(sub_0)\n  0x00\n  codecopy\n  0x00\n  return\nstop\n\nsub_0: assembly {\n        /* \"XODEX2.sol\":11635:25226  contract XODEX is Context, IERC20, Ownable {... */\n      mstore(0x40, 0x80)\n      jumpi(tag_1, lt(calldatasize, 0x04))\n      shr(0xe0, calldataload(0x00))\n      dup1\n      0x70a08231\n      gt\n      tag_48\n      jumpi\n      dup1\n      0xa9059cbb\n      gt\n      tag_49\n      jumpi\n      dup1\n      0xdcff0237\n      gt\n      tag_50\n      jumpi\n      dup1\n      0xdcff0237\n      eq\n      tag_42\n      jumpi\n      dup1\n      0xdd62ed3e\n      eq\n      tag_43\n      jumpi\n      dup1\n      0xea2f0b37\n      eq\n      tag_44\n      jumpi\n      dup1\n      0xf2fde38b\n      eq\n      tag_45\n      jumpi\n      dup1\n      0xf73980f9\n      eq\n      tag_46\n      jumpi\n      dup1\n      0xf7739b5f\n      eq\n      tag_47\n      jumpi\n      jump(tag_2)\n    tag_50:\n      dup1\n      0xa9059cbb\n      eq\n      tag_36\n      jumpi\n      dup1\n      0xae7bd3f2\n      eq\n      tag_37\n      jumpi\n      dup1\n      0xb8863115\n      eq\n      tag_38\n      jumpi\n      dup1\n      0xba6a6cdb\n      eq\n      tag_39\n      jumpi\n      dup1\n      0xc7039528\n      eq\n      tag_40\n      jumpi\n      dup1\n      0xd785d5be\n      eq\n      tag_41\n      jumpi\n      jump(tag_2)\n    tag_49:\n      dup1\n      0x85ae099f\n      gt\n      tag_51\n      jumpi\n      dup1\n      0x85ae099f\n      eq\n      tag_30\n      jumpi\n      dup1\n      0x8da5cb5b\n      eq\n      tag_31\n      jumpi\n      dup1\n      0x95d89b41\n      eq\n      tag_32\n      jumpi\n      dup1\n      0xa01cbf9a\n      eq\n      tag_33\n      jumpi\n      dup1\n      0xa2a02c33\n      eq\n      tag_34\n      jumpi\n      dup1\n      0xa457c2d7\n      eq\n      tag_35\n      jumpi\n      jump(tag_2)\n    tag_51:\n      dup1\n      0x70a08231\n      eq\n      tag_25\n      jumpi\n      dup1\n      0x715018a6\n      eq\n      tag_26\n      jumpi\n      dup1\n      0x768dc710\n      eq\n      tag_27\n      jumpi\n      dup1\n      0x7caefa89\n      eq\n      tag_28\n      jumpi\n      dup1\n      0x7d1db4a5\n      eq\n      tag_29\n      jumpi\n      jump(tag_2)\n    tag_48:\n      dup1\n      0x2f536344\n      gt\n      tag_52\n      jumpi\n      dup1\n      0x40b9a54b\n      gt\n      tag_53\n      jumpi\n      dup1\n      0x40b9a54b\n      eq\n      tag_19\n      jumpi\n      dup1\n      0x437823ec\n      eq\n      tag_20\n      jumpi\n      dup1\n      0x49bd5a5e\n      eq\n      tag_21\n      jumpi\n      dup1\n      0x5238f0e3\n      eq\n      tag_22\n      jumpi\n      dup1\n      0x590f897e\n      eq\n      tag_23\n      jumpi\n      dup1\n      0x67cbd84c\n      eq\n      tag_24\n      jumpi\n      jump(tag_2)\n    tag_53:\n      dup1\n      0x2f536344\n      eq\n      tag_14\n      jumpi\n      dup1\n      0x313ce567\n      eq\n      tag_15\n      jumpi\n      dup1\n      0x36b1a1bc\n      eq\n      tag_16\n      jumpi\n      dup1\n      0x39509351\n      eq\n      tag_17\n      jumpi\n      dup1\n      0x3e66c435\n      eq\n      tag_18\n      jumpi\n      jump(tag_2)\n    tag_52:\n      dup1\n      0x18160ddd\n      gt\n      tag_54\n      jumpi\n      dup1\n      0x18160ddd\n      eq\n      tag_8\n      jumpi\n      dup1\n      0x1b123b71\n      eq\n      tag_9\n      jumpi\n      dup1\n      0x1cdd3be3\n      eq\n      tag_10\n      jumpi\n      dup1\n      0x23b872dd\n      eq\n      tag_11\n      jumpi\n      dup1\n      0x2a77c076\n      eq\n      tag_12\n      jumpi\n      dup1\n      0x2b37b69b\n      eq\n      tag_13\n      jumpi\n      jump(tag_2)\n    tag_54:\n      dup1\n      0x06fdde03\n      eq\n      tag_3\n      jumpi\n      dup1\n      0x095ea7b3\n      eq\n      tag_4\n      jumpi\n      dup1\n      0x1282a0a0\n      eq\n      tag_5\n      jumpi\n      dup1\n      0x15a2f349\n      eq\n      tag_6\n      jumpi\n      dup1\n      0x1694505e\n      eq\n      tag_7\n      jumpi\n      jump(tag_2)\n    tag_1:\n      jumpi(tag_2, calldatasize)\n      stop\n    tag_2:\n      0x00\n      dup1\n      revert\n        /* \"XODEX2.sol\":16232:16313  function name() public view returns (string memory) {... */\n    tag_3:\n      callvalue\n      dup1\n      iszero\n      tag_57\n      jumpi\n      0x00\n      dup1\n      revert\n    tag_57:\n      pop\n      tag_58\n      tag_59\n      jump\t// in\n    tag_58:\n      mload(0x40)\n      tag_60\n      swap2\n      swap1\n      tag_61\n      jump\t// in\n    tag_60:\n      mload(0x40)\n      dup1\n      swap2\n      sub\n      swap1\n      return\n        /* \"XODEX2.sol\":14163:14321  function approve(address spender, uint256 amount) public override returns (bool) {... */\n    tag_4:\n      callvalue\n      dup1\n      iszero\n      tag_62\n      jumpi\n      0x00\n      dup1\n      revert\n    tag_62:\n      pop\n      tag_63\n      0x04\n      dup1\n      calldatasize\n      sub\n      dup2\n      add\n      swap1\n      tag_64\n      swap2\n      swap1\n      tag_65\n      jump\t// in\n    tag_64:\n      tag_66\n      jump\t// in\n    tag_63:\n      mload(0x40)\n      tag_67\n      swap2\n      swap1\n      tag_68\n      jump\t// in\n    tag_67:\n      mload(0x40)\n      dup1\n      swap2\n      sub\n      swap1\n      return\n        /* \"XODEX2.sol\":18664:19040  function set_New_Router_and_Make_Pair(address newRouter) public onlyOwner {... */\n    tag_5:\n      callvalue\n      dup1\n      iszero\n      tag_69\n      jumpi\n      0x00\n      dup1\n      revert\n    tag_69:\n      pop\n      tag_70\n      0x04\n      dup1\n      calldatasize\n      sub\n      dup2\n      add\n      swap1\n      tag_71\n      swap2\n      swap1\n      tag_72\n      jump\t// in\n    tag_71:\n      tag_73\n      jump\t// in\n    tag_70:\n      stop\n        /* \"XODEX2.sol\":20039:20182  function set_Max_TX_Percent(uint256 maxTxPercent_x100) external onlyOwner {... */\n    tag_6:\n      callvalue\n      dup1\n      iszero\n      tag_74\n      jumpi\n      0x00\n      dup1\n      revert\n    tag_74:\n      pop\n      tag_75\n      0x04\n      dup1\n      calldatasize\n      sub\n      dup2\n      add\n      swap1\n      tag_76\n      swap2\n      swap1\n      tag_77\n      jump\t// in\n    tag_76:\n      tag_78\n      jump\t// in\n    tag_75:\n      stop\n        /* \"XODEX2.sol\":13003:13044  IUniswapV2Router02 public uniswapV2Router */\n    tag_7:\n      callvalue\n      dup1\n      iszero\n      tag_79\n      jumpi\n      0x00\n      dup1\n      revert\n    tag_79:\n      pop\n      tag_80\n      tag_81\n      jump\t// in\n    tag_80:\n      mload(0x40)\n      tag_82\n      swap2\n      swap1\n      tag_83\n      jump\t// in\n    tag_82:\n      mload(0x40)\n      dup1\n      swap2\n      sub\n      swap1\n      return\n        /* \"XODEX2.sol\":20339:20432  function totalSupply() public view override returns (uint256) {... */\n    tag_8:\n      callvalue\n      dup1\n      iszero\n      tag_84\n      jumpi\n      0x00\n      dup1\n      revert\n    tag_84:\n      pop\n      tag_85\n      tag_86\n      jump\t// in\n    tag_85:\n      mload(0x40)\n      tag_87\n      swap2\n      swap1\n      tag_88\n      jump\t// in\n    tag_87:\n      mload(0x40)\n      dup1\n      swap2\n      sub\n      swap1\n      return\n        /* \"XODEX2.sol\":14327:14792  function blacklist_Wallets(address[] calldata addresses) external onlyOwner {... */\n    tag_9:\n      callvalue\n      dup1\n      iszero\n      tag_89\n      jumpi\n      0x00\n      dup1\n      revert\n    tag_89:\n      pop\n      tag_90\n      0x04\n      dup1\n      calldatasize\n      sub\n      dup2\n      add\n      swap1\n      tag_91\n      swap2\n      swap1\n      tag_92\n      jump\t// in\n    tag_91:\n      tag_93\n      jump\t// in\n    tag_90:\n      stop\n        /* \"XODEX2.sol\":11930:11976  mapping(address => bool) public _isBlacklisted */\n    tag_10:\n      callvalue\n      dup1\n      iszero\n      tag_94\n      jumpi\n      0x00\n      dup1\n      revert\n    tag_94:\n      pop\n      tag_95\n      0x04\n      dup1\n      calldatasize\n      sub\n      dup2\n      add\n      swap1\n      tag_96\n      swap2\n      swap1\n      tag_72\n      jump\t// in\n    tag_96:\n      tag_97\n      jump\t// in\n    tag_95:\n      mload(0x40)\n      tag_98\n      swap2\n      swap1\n      tag_68\n      jump\t// in\n    tag_98:\n      mload(0x40)\n      dup1\n      swap2\n      sub\n      swap1\n      return\n        /* \"XODEX2.sol\":20608:20993  function transferFrom(... */\n    tag_11:\n      callvalue\n      dup1\n      iszero\n      tag_99\n      jumpi\n      0x00\n      dup1\n      revert\n    tag_99:\n      pop\n      tag_100\n      0x04\n      dup1\n      calldatasize\n      sub\n      dup2\n      add\n      swap1\n      tag_101\n      swap2\n      swap1\n      tag_102\n      jump\t// in\n    tag_101:\n      tag_103\n      jump\t// in\n    tag_100:\n      mload(0x40)\n      tag_104\n      swap2\n      swap1\n      tag_68\n      jump\t// in\n    tag_104:\n      mload(0x40)\n      dup1\n      swap2\n      sub\n      swap1\n      return\n        /* \"XODEX2.sol\":12148:12171  bool public isBlackList */\n    tag_12:\n      callvalue\n      dup1\n      iszero\n      tag_105\n      jumpi\n      0x00\n      dup1\n      revert\n    tag_105:\n      pop\n      tag_106\n      tag_107\n      jump\t// in\n    tag_106:\n      mload(0x40)\n      tag_108\n      swap2\n      swap1\n      tag_68\n      jump\t// in\n    tag_108:\n      mload(0x40)\n      dup1\n      swap2\n      sub\n      swap1\n      return\n        /* \"XODEX2.sol\":12727:12756  uint256 public _TotalFee = 10 */\n    tag_13:\n      callvalue\n      dup1\n      iszero\n      tag_109\n      jumpi\n      0x00\n      dup1\n      revert\n    tag_109:\n      pop\n      tag_110\n      tag_111\n      jump\t// in\n    tag_110:\n      mload(0x40)\n      tag_112\n      swap2\n      swap1\n      tag_88\n      jump\t// in\n    tag_112:\n      mload(0x40)\n      dup1\n      swap2\n      sub\n      swap1\n      return\n        /* \"XODEX2.sol\":16809:17428  function recover_Tokens(... */\n    tag_14:\n      callvalue\n      dup1\n      iszero\n      tag_113\n      jumpi\n      0x00\n      dup1\n      revert\n    tag_113:\n      pop\n      tag_114\n      0x04\n      dup1\n      calldatasize\n      sub\n      dup2\n      add\n      swap1\n      tag_115\n      swap2\n      swap1\n      tag_102\n      jump\t// in\n    tag_115:\n      tag_116\n      jump\t// in\n    tag_114:\n      mload(0x40)\n      tag_117\n      swap2\n      swap1\n      tag_68\n      jump\t// in\n    tag_117:\n      mload(0x40)\n      dup1\n      swap2\n      sub\n      swap1\n      return\n        /* \"XODEX2.sol\":15572:15653  function decimals() public view returns (uint8) {... */\n    tag_15:\n      callvalue\n      dup1\n      iszero\n      tag_118\n      jumpi\n      0x00\n      dup1\n      revert\n    tag_118:\n      pop\n      tag_119\n      tag_120\n      jump\t// in\n    tag_119:\n      mload(0x40)\n      tag_121\n      swap2\n      swap1\n      tag_122\n      jump\t// in\n    tag_121:\n      mload(0x40)\n      dup1\n      swap2\n      sub\n      swap1\n      return\n        /* \"XODEX2.sol\":19046:19300  function set_New_Router_Address(address newRouter) public onlyOwner {... */\n    tag_16:\n      callvalue\n      dup1\n      iszero\n      tag_123\n      jumpi\n      0x00\n      dup1\n      revert\n    tag_123:\n      pop\n      tag_124\n      0x04\n      dup1\n      calldatasize\n      sub\n      dup2\n      add\n      swap1\n      tag_125\n      swap2\n      swap1\n      tag_72\n      jump\t// in\n    tag_125:\n      tag_126\n      jump\t// in\n    tag_124:\n      stop\n        /* \"XODEX2.sol\":15835:16050  function increaseAllowance(address spender, uint256 addedValue) public virtual returns (bool) {... */\n    tag_17:\n      callvalue\n      dup1\n      iszero\n      tag_127\n      jumpi\n      0x00\n      dup1\n      revert\n    tag_127:\n      pop\n      tag_128\n      0x04\n      dup1\n      calldatasize\n      sub\n      dup2\n      add\n      swap1\n      tag_129\n      swap2\n      swap1\n      tag_65\n      jump\t// in\n    tag_129:\n      tag_130\n      jump\t// in\n    tag_128:\n      mload(0x40)\n      tag_131\n      swap2\n      swap1\n      tag_68\n      jump\t// in\n    tag_131:\n      mload(0x40)\n      dup1\n      swap2\n      sub\n      swap1\n      return\n        /* \"XODEX2.sol\":20999:21466  function unBlacklist_Wallets(address[] calldata addresses) external onlyOwner {... */\n    tag_18:\n      callvalue\n      dup1\n      iszero\n      tag_132\n      jumpi\n      0x00\n      dup1\n      revert\n    tag_132:\n      pop\n      tag_133\n      0x04\n      dup1\n      calldatasize\n      sub\n      dup2\n      add\n      swap1\n      tag_134\n      swap2\n      swap1\n      tag_92\n      jump\t// in\n    tag_134:\n      tag_135\n      jump\t// in\n    tag_133:\n      stop\n        /* \"XODEX2.sol\":12762:12788  uint256 public _buyFee = 5 */\n    tag_19:\n      callvalue\n      dup1\n      iszero\n      tag_136\n      jumpi\n      0x00\n      dup1\n      revert\n    tag_136:\n      pop\n      tag_137\n      tag_138\n      jump\t// in\n    tag_137:\n      mload(0x40)\n      tag_139\n      swap2\n      swap1\n      tag_88\n      jump\t// in\n    tag_139:\n      mload(0x40)\n      dup1\n      swap2\n      sub\n      swap1\n      return\n        /* \"XODEX2.sol\":15659:15829  function excludeFromFee(address account) public onlyOwner {... */\n    tag_20:\n      callvalue\n      dup1\n      iszero\n      tag_140\n      jumpi\n      0x00\n      dup1\n      revert\n    tag_140:\n      pop\n      tag_141\n      0x04\n      dup1\n      calldatasize\n      sub\n      dup2\n      add\n      swap1\n      tag_142\n      swap2\n      swap1\n      tag_72\n      jump\t// in\n    tag_142:\n      tag_143\n      jump\t// in\n    tag_141:\n      stop\n        /* \"XODEX2.sol\":13050:13078  address public uniswapV2Pair */\n    tag_21:\n      callvalue\n      dup1\n      iszero\n      tag_144\n      jumpi\n      0x00\n      dup1\n      revert\n    tag_144:\n      pop\n      tag_145\n      tag_146\n      jump\t// in\n    tag_145:\n      mload(0x40)\n      tag_147\n      swap2\n      swap1\n      tag_148\n      jump\t// in\n    tag_147:\n      mload(0x40)\n      dup1\n      swap2\n      sub\n      swap1\n      return\n        /* \"XODEX2.sol\":12511:12561  uint256 public _maxToken = _tTotal.mul(2).div(100) */\n    tag_22:\n      callvalue\n      dup1\n      iszero\n      tag_149\n      jumpi\n      0x00\n      dup1\n      revert\n    tag_149:\n      pop\n      tag_150\n      tag_151\n      jump\t// in\n    tag_150:\n      mload(0x40)\n      tag_152\n      swap2\n      swap1\n      tag_88\n      jump\t// in\n    tag_152:\n      mload(0x40)\n      dup1\n      swap2\n      sub\n      swap1\n      return\n        /* \"XODEX2.sol\":12794:12821  uint256 public _sellFee = 5 */\n    tag_23:\n      callvalue\n      dup1\n      iszero\n      tag_153\n      jumpi\n      0x00\n      dup1\n      revert\n    tag_153:\n      pop\n      tag_154\n      tag_155\n      jump\t// in\n    tag_154:\n      mload(0x40)\n      tag_156\n      swap2\n      swap1\n      tag_88\n      jump\t// in\n    tag_156:\n      mload(0x40)\n      dup1\n      swap2\n      sub\n      swap1\n      return\n        /* \"XODEX2.sol\":24835:25040  function _set_Fees(uint256 Buy_Fee, uint256 Sell_Fee) external onlyOwner {... */\n    tag_24:\n      callvalue\n      dup1\n      iszero\n      tag_157\n      jumpi\n      0x00\n      dup1\n      revert\n    tag_157:\n      pop\n      tag_158\n      0x04\n      dup1\n      calldatasize\n      sub\n      dup2\n      add\n      swap1\n      tag_159\n      swap2\n      swap1\n      tag_160\n      jump\t// in\n    tag_159:\n      tag_161\n      jump\t// in\n    tag_158:\n      stop\n        /* \"XODEX2.sol\":14911:15030  function balanceOf(address account) public view override returns (uint256) {... */\n    tag_25:\n      callvalue\n      dup1\n      iszero\n      tag_162\n      jumpi\n      0x00\n      dup1\n      revert\n    tag_162:\n      pop\n      tag_163\n      0x04\n      dup1\n      calldatasize\n      sub\n      dup2\n      add\n      swap1\n      tag_164\n      swap2\n      swap1\n      tag_72\n      jump\t// in\n    tag_164:\n      tag_165\n      jump\t// in\n    tag_163:\n      mload(0x40)\n      tag_166\n      swap2\n      swap1\n      tag_88\n      jump\t// in\n    tag_166:\n      mload(0x40)\n      dup1\n      swap2\n      sub\n      swap1\n      return\n        /* \"XODEX2.sol\":2572:2717  function renounceOwnership() public virtual onlyOwner {... */\n    tag_26:\n      callvalue\n      dup1\n      iszero\n      tag_167\n      jumpi\n      0x00\n      dup1\n      revert\n    tag_167:\n      pop\n      tag_168\n      tag_169\n      jump\t// in\n    tag_168:\n      stop\n        /* \"XODEX2.sol\":11874:11924  mapping(address => bool) public _isExcludedFromFee */\n    tag_27:\n      callvalue\n      dup1\n      iszero\n      tag_170\n      jumpi\n      0x00\n      dup1\n      revert\n    tag_170:\n      pop\n      tag_171\n      0x04\n      dup1\n      calldatasize\n      sub\n      dup2\n      add\n      swap1\n      tag_172\n      swap2\n      swap1\n      tag_72\n      jump\t// in\n    tag_172:\n      tag_173\n      jump\t// in\n    tag_171:\n      mload(0x40)\n      tag_174\n      swap2\n      swap1\n      tag_68\n      jump\t// in\n    tag_174:\n      mload(0x40)\n      dup1\n      swap2\n      sub\n      swap1\n      return\n        /* \"XODEX2.sol\":19757:19916  function set_Number_Of_Transactions_Before_Liquify_Trigger(uint8 number_of_transactions) public onlyOwner {... */\n    tag_28:\n      callvalue\n      dup1\n      iszero\n      tag_175\n      jumpi\n      0x00\n      dup1\n      revert\n    tag_175:\n      pop\n      tag_176\n      0x04\n      dup1\n      calldatasize\n      sub\n      dup2\n      add\n      swap1\n      tag_177\n      swap2\n      swap1\n      tag_178\n      jump\t// in\n    tag_177:\n      tag_179\n      jump\t// in\n    tag_176:\n      stop\n        /* \"XODEX2.sol\":12614:12667  uint256 public _maxTxAmount = _tTotal.mul(1).div(100) */\n    tag_29:\n      callvalue\n      dup1\n      iszero\n      tag_180\n      jumpi\n      0x00\n      dup1\n      revert\n    tag_180:\n      pop\n      tag_181\n      tag_182\n      jump\t// in\n    tag_181:\n      mload(0x40)\n      tag_183\n      swap2\n      swap1\n      tag_88\n      jump\t// in\n    tag_183:\n      mload(0x40)\n      dup1\n      swap2\n      sub\n      swap1\n      return\n        /* \"XODEX2.sol\":13112:13148  bool public swapAndLiqEnabled = true */\n    tag_30:\n      callvalue\n      dup1\n      iszero\n      tag_184\n      jumpi\n      0x00\n      dup1\n      revert\n    tag_184:\n      pop\n      tag_185\n      tag_186\n      jump\t// in\n    tag_185:\n      mload(0x40)\n      tag_187\n      swap2\n      swap1\n      tag_68\n      jump\t// in\n    tag_187:\n      mload(0x40)\n      dup1\n      swap2\n      sub\n      swap1\n      return\n        /* \"XODEX2.sol\":2268:2353  function owner() public view virtual returns (address) {... */\n    tag_31:\n      callvalue\n      dup1\n      iszero\n      tag_188\n      jumpi\n      0x00\n      dup1\n      revert\n    tag_188:\n      pop\n      tag_189\n      tag_190\n      jump\t// in\n    tag_189:\n      mload(0x40)\n      tag_191\n      swap2\n      swap1\n      tag_148\n      jump\t// in\n    tag_191:\n      mload(0x40)\n      dup1\n      swap2\n      sub\n      swap1\n      return\n        /* \"XODEX2.sol\":19477:19562  function symbol() public view returns (string memory) {... */\n    tag_32:\n      callvalue\n      dup1\n      iszero\n      tag_192\n      jumpi\n      0x00\n      dup1\n      revert\n    tag_192:\n      pop\n      tag_193\n      tag_194\n      jump\t// in\n    tag_193:\n      mload(0x40)\n      tag_195\n      swap2\n      swap1\n      tag_61\n      jump\t// in\n    tag_195:\n      mload(0x40)\n      dup1\n      swap2\n      sub\n      swap1\n      return\n        /* \"XODEX2.sol\":20188:20333  function set_Max_Wal_Percent(uint256 maxWallPercent_x100) external onlyOwner {... */\n    tag_33:\n      callvalue\n      dup1\n      iszero\n      tag_196\n      jumpi\n      0x00\n      dup1\n      revert\n    tag_196:\n      pop\n      tag_197\n      0x04\n      dup1\n      calldatasize\n      sub\n      dup2\n      add\n      swap1\n      tag_198\n      swap2\n      swap1\n      tag_77\n      jump\t// in\n    tag_198:\n      tag_199\n      jump\t// in\n    tag_197:\n      stop\n        /* \"XODEX2.sol\":14798:14905  function blacklist_Toggle(bool true_or_false) public onlyOwner {... */\n    tag_34:\n      callvalue\n      dup1\n      iszero\n      tag_200\n      jumpi\n      0x00\n      dup1\n      revert\n    tag_200:\n      pop\n      tag_201\n      0x04\n      dup1\n      calldatasize\n      sub\n      dup2\n      add\n      swap1\n      tag_202\n      swap2\n      swap1\n      tag_203\n      jump\t// in\n    tag_202:\n      tag_204\n      jump\t// in\n    tag_201:\n      stop\n        /* \"XODEX2.sol\":15036:15348  function decreaseAllowance(address spender, uint256 subtractedValue) public virtual returns (bool) {... */\n    tag_35:\n      callvalue\n      dup1\n      iszero\n      tag_205\n      jumpi\n      0x00\n      dup1\n      revert\n    tag_205:\n      pop\n      tag_206\n      0x04\n      dup1\n      calldatasize\n      sub\n      dup2\n      add\n      swap1\n      tag_207\n      swap2\n      swap1\n      tag_65\n      jump\t// in\n    tag_207:\n      tag_208\n      jump\t// in\n    tag_206:\n      mload(0x40)\n      tag_209\n      swap2\n      swap1\n      tag_68\n      jump\t// in\n    tag_209:\n      mload(0x40)\n      dup1\n      swap2\n      sub\n      swap1\n      return\n        /* \"XODEX2.sol\":20438:20602  function transfer(address recipient, uint256 amount) public override returns (bool) {... */\n    tag_36:\n      callvalue\n      dup1\n      iszero\n      tag_210\n      jumpi\n      0x00\n      dup1\n      revert\n    tag_210:\n      pop\n      tag_211\n      0x04\n      dup1\n      calldatasize\n      sub\n      dup2\n      add\n      swap1\n      tag_212\n      swap2\n      swap1\n      tag_65\n      jump\t// in\n    tag_212:\n      tag_213\n      jump\t// in\n    tag_211:\n      mload(0x40)\n      tag_214\n      swap2\n      swap1\n      tag_68\n      jump\t// in\n    tag_214:\n      mload(0x40)\n      dup1\n      swap2\n      sub\n      swap1\n      return\n        /* \"XODEX2.sol\":19922:20033  function set_TransferFees(bool true_or_false) external onlyOwner {... */\n    tag_37:\n      callvalue\n      dup1\n      iszero\n      tag_215\n      jumpi\n      0x00\n      dup1\n      revert\n    tag_215:\n      pop\n      tag_216\n      0x04\n      dup1\n      calldatasize\n      sub\n      dup2\n      add\n      swap1\n      tag_217\n      swap2\n      swap1\n      tag_203\n      jump\t// in\n    tag_217:\n      tag_218\n      jump\t// in\n    tag_216:\n      stop\n        /* \"XODEX2.sol\":13084:13106  bool public isSwapping */\n    tag_38:\n      callvalue\n      dup1\n      iszero\n      tag_219\n      jumpi\n      0x00\n      dup1\n      revert\n    tag_219:\n      pop\n      tag_220\n      tag_221\n      jump\t// in\n    tag_220:\n      mload(0x40)\n      tag_222\n      swap2\n      swap1\n      tag_68\n      jump\t// in\n    tag_222:\n      mload(0x40)\n      dup1\n      swap2\n      sub\n      swap1\n      return\n        /* \"XODEX2.sol\":25046:25224  function _set_Transfer_Fee(uint256 Transfer_Fee) external onlyOwner {... */\n    tag_39:\n      callvalue\n      dup1\n      iszero\n      tag_223\n      jumpi\n      0x00\n      dup1\n      revert\n    tag_223:\n      pop\n      tag_224\n      0x04\n      dup1\n      calldatasize\n      sub\n      dup2\n      add\n      swap1\n      tag_225\n      swap2\n      swap1\n      tag_77\n      jump\t// in\n    tag_225:\n      tag_226\n      jump\t// in\n    tag_224:\n      stop\n        /* \"XODEX2.sol\":12964:12996  bool public noTransferFee = true */\n    tag_40:\n      callvalue\n      dup1\n      iszero\n      tag_227\n      jumpi\n      0x00\n      dup1\n      revert\n    tag_227:\n      pop\n      tag_228\n      tag_229\n      jump\t// in\n    tag_228:\n      mload(0x40)\n      tag_230\n      swap2\n      swap1\n      tag_68\n      jump\t// in\n    tag_230:\n      mload(0x40)\n      dup1\n      swap2\n      sub\n      swap1\n      return\n        /* \"XODEX2.sol\":19306:19471  function set_New_Pair_Address(address newPair) public onlyOwner {... */\n    tag_41:\n      callvalue\n      dup1\n      iszero\n      tag_231\n      jumpi\n      0x00\n      dup1\n      revert\n    tag_231:\n      pop\n      tag_232\n      0x04\n      dup1\n      calldatasize\n      sub\n      dup2\n      add\n      swap1\n      tag_233\n      swap2\n      swap1\n      tag_72\n      jump\t// in\n    tag_233:\n      tag_234\n      jump\t// in\n    tag_232:\n      stop\n        /* \"XODEX2.sol\":16319:16803  function process_Tokens(uint256 percent_Of_Tokens_To_Process) public onlyOwner {... */\n    tag_42:\n      callvalue\n      dup1\n      iszero\n      tag_235\n      jumpi\n      0x00\n      dup1\n      revert\n    tag_235:\n      pop\n      tag_236\n      0x04\n      dup1\n      calldatasize\n      sub\n      dup2\n      add\n      swap1\n      tag_237\n      swap2\n      swap1\n      tag_77\n      jump\t// in\n    tag_237:\n      tag_238\n      jump\t// in\n    tag_236:\n      stop\n        /* \"XODEX2.sol\":14016:14157  function allowance(address owner, address spender) public view override returns (uint256) {... */\n    tag_43:\n      callvalue\n      dup1\n      iszero\n      tag_239\n      jumpi\n      0x00\n      dup1\n      revert\n    tag_239:\n      pop\n      tag_240\n      0x04\n      dup1\n      calldatasize\n      sub\n      dup2\n      add\n      swap1\n      tag_241\n      swap2\n      swap1\n      tag_242\n      jump\t// in\n    tag_241:\n      tag_243\n      jump\t// in\n    tag_240:\n      mload(0x40)\n      tag_244\n      swap2\n      swap1\n      tag_88\n      jump\t// in\n    tag_244:\n      mload(0x40)\n      dup1\n      swap2\n      sub\n      swap1\n      return\n        /* \"XODEX2.sol\":16056:16226  function includeInFee(address account) public onlyOwner {... */\n    tag_44:\n      callvalue\n      dup1\n      iszero\n      tag_245\n      jumpi\n      0x00\n      dup1\n      revert\n    tag_245:\n      pop\n      tag_246\n      0x04\n      dup1\n      calldatasize\n      sub\n      dup2\n      add\n      swap1\n      tag_247\n      swap2\n      swap1\n      tag_72\n      jump\t// in\n    tag_247:\n      tag_248\n      jump\t// in\n    tag_246:\n      stop\n        /* \"XODEX2.sol\":2770:3010  function transferOwnership(address newOwner) public virtual onlyOwner {... */\n    tag_45:\n      callvalue\n      dup1\n      iszero\n      tag_249\n      jumpi\n      0x00\n      dup1\n      revert\n    tag_249:\n      pop\n      tag_250\n      0x04\n      dup1\n      calldatasize\n      sub\n      dup2\n      add\n      swap1\n      tag_251\n      swap2\n      swap1\n      tag_72\n      jump\t// in\n    tag_251:\n      tag_252\n      jump\t// in\n    tag_250:\n      stop\n        /* \"XODEX2.sol\":15354:15566  function Update__Dev_Wallet(address payable wallet) public onlyOwner {... */\n    tag_46:\n      callvalue\n      dup1\n      iszero\n      tag_253\n      jumpi\n      0x00\n      dup1\n      revert\n    tag_253:\n      pop\n      tag_254\n      0x04\n      dup1\n      calldatasize\n      sub\n      dup2\n      add\n      swap1\n      tag_255\n      swap2\n      swap1\n      tag_256\n      jump\t// in\n    tag_255:\n      tag_257\n      jump\t// in\n    tag_254:\n      stop\n        /* \"XODEX2.sol\":19568:19751  function set_Swap_And_Liquify_Enabled(bool true_or_false) public onlyOwner {... */\n    tag_47:\n      callvalue\n      dup1\n      iszero\n      tag_258\n      jumpi\n      0x00\n      dup1\n      revert\n    tag_258:\n      pop\n      tag_259\n      0x04\n      dup1\n      calldatasize\n      sub\n      dup2\n      add\n      swap1\n      tag_260\n      swap2\n      swap1\n      tag_203\n      jump\t// in\n    tag_260:\n      tag_261\n      jump\t// in\n    tag_259:\n      stop\n        /* \"XODEX2.sol\":16232:16313  function name() public view returns (string memory) {... */\n    tag_59:\n        /* \"XODEX2.sol\":16269:16282  string memory */\n      0x60\n        /* \"XODEX2.sol\":16301:16306  _name */\n      mload(0x40)\n      dup1\n      0x40\n      add\n      0x40\n      mstore\n      dup1\n      0x05\n      dup2\n      mstore\n      0x20\n      add\n      0x584f444558000000000000000000000000000000000000000000000000000000\n      dup2\n      mstore\n      pop\n        /* \"XODEX2.sol\":16294:16306  return _name */\n      swap1\n      pop\n        /* \"XODEX2.sol\":16232:16313  function name() public view returns (string memory) {... */\n      swap1\n      jump\t// out\n        /* \"XODEX2.sol\":14163:14321  function approve(address spender, uint256 amount) public override returns (bool) {... */\n    tag_66:\n        /* \"XODEX2.sol\":14238:14242  bool */\n      0x00\n        /* \"XODEX2.sol\":14254:14293  _approve(_msgSender(), spender, amount) */\n      tag_266\n        /* \"XODEX2.sol\":14263:14275  _msgSender() */\n      tag_267\n        /* \"XODEX2.sol\":14263:14273  _msgSender */\n      tag_268\n        /* \"XODEX2.sol\":14263:14275  _msgSender() */\n      jump\t// in\n    tag_267:\n        /* \"XODEX2.sol\":14277:14284  spender */\n      dup5\n        /* \"XODEX2.sol\":14286:14292  amount */\n      dup5\n        /* \"XODEX2.sol\":14254:14262  _approve */\n      tag_269\n        /* \"XODEX2.sol\":14254:14293  _approve(_msgSender(), spender, amount) */\n      jump\t// in\n    tag_266:\n        /* \"XODEX2.sol\":14310:14314  true */\n      0x01\n        /* \"XODEX2.sol\":14303:14314  return true */\n      swap1\n      pop\n        /* \"XODEX2.sol\":14163:14321  function approve(address spender, uint256 amount) public override returns (bool) {... */\n      swap3\n      swap2\n      pop\n      pop\n      jump\t// out\n        /* \"XODEX2.sol\":18664:19040  function set_New_Router_and_Make_Pair(address newRouter) public onlyOwner {... */\n    tag_73:\n        /* \"XODEX2.sol\":2457:2469  _msgSender() */\n      tag_271\n        /* \"XODEX2.sol\":2457:2467  _msgSender */\n      tag_268\n        /* \"XODEX2.sol\":2457:2469  _msgSender() */\n      jump\t// in\n    tag_271:\n        /* \"XODEX2.sol\":2446:2469  owner() == _msgSender() */\n      0xffffffffffffffffffffffffffffffffffffffff\n      and\n        /* \"XODEX2.sol\":2446:2453  owner() */\n      tag_272\n        /* \"XODEX2.sol\":2446:2451  owner */\n      tag_190\n        /* \"XODEX2.sol\":2446:2453  owner() */\n      jump\t// in\n    tag_272:\n        /* \"XODEX2.sol\":2446:2469  owner() == _msgSender() */\n      0xffffffffffffffffffffffffffffffffffffffff\n      and\n      eq\n        /* \"XODEX2.sol\":2438:2506  require(owner() == _msgSender(), \"Ownable: caller is not the owner\") */\n      tag_273\n      jumpi\n      mload(0x40)\n      0x08c379a000000000000000000000000000000000000000000000000000000000\n      dup2\n      mstore\n      0x04\n      add\n      tag_274\n      swap1\n      tag_275\n      jump\t// in\n    tag_274:\n      mload(0x40)\n      dup1\n      swap2\n      sub\n      swap1\n      revert\n    tag_273:\n        /* \"XODEX2.sol\":18777:18778  0 */\n      0x00\n        /* \"XODEX2.sol\":18756:18779  newRouter != address(0) */\n      0xffffffffffffffffffffffffffffffffffffffff\n      and\n        /* \"XODEX2.sol\":18756:18765  newRouter */\n      dup2\n        /* \"XODEX2.sol\":18756:18779  newRouter != address(0) */\n      0xffffffffffffffffffffffffffffffffffffffff\n      and\n      sub\n        /* \"XODEX2.sol\":18748:18801  require(newRouter != address(0), \"ERR: zero address\") */\n      tag_277\n      jumpi\n      mload(0x40)\n      0x08c379a000000000000000000000000000000000000000000000000000000000\n      dup2\n      mstore\n      0x04\n      add\n      tag_278\n      swap1\n      tag_279\n      jump\t// in\n    tag_278:\n      mload(0x40)\n      dup1\n      swap2\n      sub\n      swap1\n      revert\n    tag_277:\n        /* \"XODEX2.sol\":18812:18844  IUniswapV2Router02 _newPCSRouter */\n      0x00\n        /* \"XODEX2.sol\":18866:18875  newRouter */\n      dup2\n        /* \"XODEX2.sol\":18812:18876  IUniswapV2Router02 _newPCSRouter = IUniswapV2Router02(newRouter) */\n      swap1\n      pop\n        /* \"XODEX2.sol\":18920:18933  _newPCSRouter */\n      dup1\n        /* \"XODEX2.sol\":18920:18941  _newPCSRouter.factory */\n      0xffffffffffffffffffffffffffffffffffffffff\n      and\n      0xc45a0155\n        /* \"XODEX2.sol\":18920:18943  _newPCSRouter.factory() */\n      mload(0x40)\n      dup2\n      0xffffffff\n      and\n      0xe0\n      shl\n      dup2\n      mstore\n      0x04\n      add\n      0x20\n      mload(0x40)\n      dup1\n      dup4\n      sub\n      dup2\n      dup7\n      gas\n      staticcall\n      iszero\n      dup1\n      iszero\n      tag_281\n      jumpi\n      returndatasize\n      0x00\n      dup1\n      returndatacopy\n      revert(0x00, returndatasize)\n    tag_281:\n      pop\n      pop\n      pop\n      pop\n      mload(0x40)\n      returndatasize\n      not(0x1f)\n      0x1f\n      dup3\n      add\n      and\n      dup3\n      add\n      dup1\n      0x40\n      mstore\n      pop\n      dup2\n      add\n      swap1\n      tag_282\n      swap2\n      swap1\n      tag_283\n      jump\t// in\n    tag_282:\n        /* \"XODEX2.sol\":18902:18955  IUniswapV2Factory(_newPCSRouter.factory()).createPair */\n      0xffffffffffffffffffffffffffffffffffffffff\n      and\n      0xc9c65396\n        /* \"XODEX2.sol\":18964:18968  this */\n      address\n        /* \"XODEX2.sol\":18971:18984  _newPCSRouter */\n      dup4\n        /* \"XODEX2.sol\":18971:18989  _newPCSRouter.WETH */\n      0xffffffffffffffffffffffffffffffffffffffff\n      and\n      0xad5c4648\n        /* \"XODEX2.sol\":18971:18991  _newPCSRouter.WETH() */\n      mload(0x40)\n      dup2\n      0xffffffff\n      and\n      0xe0\n      shl\n      dup2\n      mstore\n      0x04\n      add\n      0x20\n      mload(0x40)\n      dup1\n      dup4\n      sub\n      dup2\n      dup7\n      gas\n      staticcall\n      iszero\n      dup1\n      iszero\n      tag_285\n      jumpi\n      returndatasize\n      0x00\n      dup1\n      returndatacopy\n      revert(0x00, returndatasize)\n    tag_285:\n      pop\n      pop\n      pop\n      pop\n      mload(0x40)\n      returndatasize\n      not(0x1f)\n      0x1f\n      dup3\n      add\n      and\n      dup3\n      add\n      dup1\n      0x40\n      mstore\n      pop\n      dup2\n      add\n      swap1\n      tag_286\n      swap2\n      swap1\n      tag_283\n      jump\t// in\n    tag_286:\n        /* \"XODEX2.sol\":18902:18992  IUniswapV2Factory(_newPCSRouter.factory()).createPair(address(this), _newPCSRouter.WETH()) */\n      mload(0x40)\n      dup4\n      0xffffffff\n      and\n      0xe0\n      shl\n      dup2\n      mstore\n      0x04\n      add\n      tag_287\n      swap3\n      swap2\n      swap1\n      tag_288\n      jump\t// in\n    tag_287:\n      0x20\n      mload(0x40)\n      dup1\n      dup4\n      sub\n      dup2\n      0x00\n      dup8\n      gas\n      call\n      iszero\n      dup1\n      iszero\n      tag_290\n      jumpi\n      returndatasize\n      0x00\n      dup1\n      returndatacopy\n      revert(0x00, returndatasize)\n    tag_290:\n      pop\n      pop\n      pop\n      pop\n      mload(0x40)\n      returndatasize\n      not(0x1f)\n      0x1f\n      dup3\n      add\n      and\n      dup3\n      add\n      dup1\n      0x40\n      mstore\n      pop\n      dup2\n      add\n      swap1\n      tag_291\n      swap2\n      swap1\n      tag_283\n      jump\t// in\n    tag_291:\n        /* \"XODEX2.sol\":18886:18899  uniswapV2Pair */\n      0x12\n      0x00\n        /* \"XODEX2.sol\":18886:18992  uniswapV2Pair = IUniswapV2Factory(_newPCSRouter.factory()).createPair(address(this), _newPCSRouter.WETH()) */\n      0x0100\n      exp\n      dup2\n      sload\n      dup2\n      0xffffffffffffffffffffffffffffffffffffffff\n      mul\n      not\n      and\n      swap1\n      dup4\n      0xffffffffffffffffffffffffffffffffffffffff\n      and\n      mul\n      or\n      swap1\n      sstore\n      pop\n        /* \"XODEX2.sol\":19020:19033  _newPCSRouter */\n      dup1\n        /* \"XODEX2.sol\":19002:19017  uniswapV2Router */\n      0x11\n      0x01\n        /* \"XODEX2.sol\":19002:19033  uniswapV2Router = _newPCSRouter */\n      0x0100\n      exp\n      dup2\n      sload\n      dup2\n      0xffffffffffffffffffffffffffffffffffffffff\n      mul\n      not\n      and\n      swap1\n      dup4\n      0xffffffffffffffffffffffffffffffffffffffff\n      and\n      mul\n      or\n      swap1\n      sstore\n      pop\n        /* \"XODEX2.sol\":18738:19040  {... */\n      pop\n        /* \"XODEX2.sol\":18664:19040  function set_New_Router_and_Make_Pair(address newRouter) public onlyOwner {... */\n      pop\n      jump\t// out\n        /* \"XODEX2.sol\":20039:20182  function set_Max_TX_Percent(uint256 maxTxPercent_x100) external onlyOwner {... */\n    tag_78:\n        /* \"XODEX2.sol\":2457:2469  _msgSender() */\n      tag_293\n        /* \"XODEX2.sol\":2457:2467  _msgSender */\n      tag_268\n        /* \"XODEX2.sol\":2457:2469  _msgSender() */\n      jump\t// in\n    tag_293:\n        /* \"XODEX2.sol\":2446:2469  owner() == _msgSender() */\n      0xffffffffffffffffffffffffffffffffffffffff\n      and\n        /* \"XODEX2.sol\":2446:2453  owner() */\n      tag_294\n        /* \"XODEX2.sol\":2446:2451  owner */\n      tag_190\n        /* \"XODEX2.sol\":2446:2453  owner() */\n      jump\t// in\n    tag_294:\n        /* \"XODEX2.sol\":2446:2469  owner() == _msgSender() */\n      0xffffffffffffffffffffffffffffffffffffffff\n      and\n      eq\n        /* \"XODEX2.sol\":2438:2506  require(owner() == _msgSender(), \"Ownable: caller is not the owner\") */\n      tag_295\n      jumpi\n      mload(0x40)\n      0x08c379a000000000000000000000000000000000000000000000000000000000\n      dup2\n      mstore\n      0x04\n      add\n      tag_296\n      swap1\n      tag_275\n      jump\t// in\n    tag_296:\n      mload(0x40)\n      dup1\n      swap2\n      sub\n      swap1\n      revert\n    tag_295:\n        /* \"XODEX2.sol\":20170:20175  10000 */\n      0x2710\n        /* \"XODEX2.sol\":20149:20166  maxTxPercent_x100 */\n      dup2\n        /* \"XODEX2.sol\":12121:12141  10000000000 * 10**18 */\n      0x204fce5e3e25026110000000\n        /* \"XODEX2.sol\":20139:20166  _tTotal * maxTxPercent_x100 */\n      tag_298\n      swap2\n      swap1\n      tag_299\n      jump\t// in\n    tag_298:\n        /* \"XODEX2.sol\":20138:20175  (_tTotal * maxTxPercent_x100) / 10000 */\n      tag_300\n      swap2\n      swap1\n      tag_301\n      jump\t// in\n    tag_300:\n        /* \"XODEX2.sol\":20123:20135  _maxTxAmount */\n      0x09\n        /* \"XODEX2.sol\":20123:20175  _maxTxAmount = (_tTotal * maxTxPercent_x100) / 10000 */\n      dup2\n      swap1\n      sstore\n      pop\n        /* \"XODEX2.sol\":20039:20182  function set_Max_TX_Percent(uint256 maxTxPercent_x100) external onlyOwner {... */\n      pop\n      jump\t// out\n        /* \"XODEX2.sol\":13003:13044  IUniswapV2Router02 public uniswapV2Router */\n    tag_81:\n      0x11\n      0x01\n      swap1\n      sload\n      swap1\n      0x0100\n      exp\n      swap1\n      div\n      0xffffffffffffffffffffffffffffffffffffffff\n      and\n      dup2\n      jump\t// out\n        /* \"XODEX2.sol\":20339:20432  function totalSupply() public view override returns (uint256) {... */\n    tag_86:\n        /* \"XODEX2.sol\":20392:20399  uint256 */\n      0x00\n        /* \"XODEX2.sol\":12121:12141  10000000000 * 10**18 */\n      0x204fce5e3e25026110000000\n        /* \"XODEX2.sol\":20411:20425  return _tTotal */\n      swap1\n      pop\n        /* \"XODEX2.sol\":20339:20432  function totalSupply() public view override returns (uint256) {... */\n      swap1\n      jump\t// out\n        /* \"XODEX2.sol\":14327:14792  function blacklist_Wallets(address[] calldata addresses) external onlyOwner {... */\n    tag_93:\n        /* \"XODEX2.sol\":2457:2469  _msgSender() */\n      tag_304\n        /* \"XODEX2.sol\":2457:2467  _msgSender */\n      tag_268\n        /* \"XODEX2.sol\":2457:2469  _msgSender() */\n      jump\t// in\n    tag_304:\n        /* \"XODEX2.sol\":2446:2469  owner() == _msgSender() */\n      0xffffffffffffffffffffffffffffffffffffffff\n      and\n        /* \"XODEX2.sol\":2446:2453  owner() */\n      tag_305\n        /* \"XODEX2.sol\":2446:2451  owner */\n      tag_190\n        /* \"XODEX2.sol\":2446:2453  owner() */\n      jump\t// in\n    tag_305:\n        /* \"XODEX2.sol\":2446:2469  owner() == _msgSender() */\n      0xffffffffffffffffffffffffffffffffffffffff\n      and\n      eq\n        /* \"XODEX2.sol\":2438:2506  require(owner() == _msgSender(), \"Ownable: caller is not the owner\") */\n      tag_306\n      jumpi\n      mload(0x40)\n      0x08c379a000000000000000000000000000000000000000000000000000000000\n      dup2\n      mstore\n      0x04\n      add\n      tag_307\n      swap1\n      tag_275\n      jump\t// in\n    tag_307:\n      mload(0x40)\n      dup1\n      swap2\n      sub\n      swap1\n      revert\n    tag_306:\n        /* \"XODEX2.sol\":14413:14429  uint256 startGas */\n      0x00\n        /* \"XODEX2.sol\":14439:14454  uint256 gasUsed */\n      dup1\n        /* \"XODEX2.sol\":14470:14479  uint256 i */\n      0x00\n        /* \"XODEX2.sol\":14465:14786  for (uint256 i; i < addresses.length; ++i) {... */\n    tag_309:\n        /* \"XODEX2.sol\":14485:14494  addresses */\n      dup5\n      dup5\n        /* \"XODEX2.sol\":14485:14501  addresses.length */\n      swap1\n      pop\n        /* \"XODEX2.sol\":14481:14482  i */\n      dup2\n        /* \"XODEX2.sol\":14481:14501  i < addresses.length */\n      lt\n        /* \"XODEX2.sol\":14465:14786  for (uint256 i; i < addresses.length; ++i) {... */\n      iszero\n      tag_310\n      jumpi\n        /* \"XODEX2.sol\":14536:14545  gasleft() */\n      gas\n        /* \"XODEX2.sol\":14526:14533  gasUsed */\n      dup3\n        /* \"XODEX2.sol\":14526:14545  gasUsed < gasleft() */\n      lt\n        /* \"XODEX2.sol\":14522:14776  if (gasUsed < gasleft()) {... */\n      iszero\n      tag_312\n      jumpi\n        /* \"XODEX2.sol\":14576:14585  gasleft() */\n      gas\n        /* \"XODEX2.sol\":14565:14585  startGas = gasleft() */\n      swap3\n      pop\n        /* \"XODEX2.sol\":14608:14622  _isBlacklisted */\n      0x04\n        /* \"XODEX2.sol\":14608:14636  _isBlacklisted[addresses[i]] */\n      0x00\n        /* \"XODEX2.sol\":14623:14632  addresses */\n      dup7\n      dup7\n        /* \"XODEX2.sol\":14633:14634  i */\n      dup5\n        /* \"XODEX2.sol\":14623:14635  addresses[i] */\n      dup2\n      dup2\n      lt\n      tag_313\n      jumpi\n      tag_314\n      tag_315\n      jump\t// in\n    tag_314:\n    tag_313:\n      swap1\n      pop\n      0x20\n      mul\n      add\n      0x20\n      dup2\n      add\n      swap1\n      tag_316\n      swap2\n      swap1\n      tag_72\n      jump\t// in\n    tag_316:\n        /* \"XODEX2.sol\":14608:14636  _isBlacklisted[addresses[i]] */\n      0xffffffffffffffffffffffffffffffffffffffff\n      and\n      0xffffffffffffffffffffffffffffffffffffffff\n      and\n      dup2\n      mstore\n      0x20\n      add\n      swap1\n      dup2\n      mstore\n      0x20\n      add\n      0x00\n      keccak256\n      0x00\n      swap1\n      sload\n      swap1\n      0x0100\n      exp\n      swap1\n      div\n      0xff\n      and\n        /* \"XODEX2.sol\":14603:14714  if (!_isBlacklisted[addresses[i]]) {... */\n      tag_317\n      jumpi\n        /* \"XODEX2.sol\":14691:14695  true */\n      0x01\n        /* \"XODEX2.sol\":14660:14674  _isBlacklisted */\n      0x04\n        /* \"XODEX2.sol\":14660:14688  _isBlacklisted[addresses[i]] */\n      0x00\n        /* \"XODEX2.sol\":14675:14684  addresses */\n      dup8\n      dup8\n        /* \"XODEX2.sol\":14685:14686  i */\n      dup6\n        /* \"XODEX2.sol\":14675:14687  addresses[i] */\n      dup2\n      dup2\n      lt\n      tag_318\n      jumpi\n      tag_319\n      tag_315\n      jump\t// in\n    tag_319:\n    tag_318:\n      swap1\n      pop\n      0x20\n      mul\n      add\n      0x20\n      dup2\n      add\n      swap1\n      tag_320\n      swap2\n      swap1\n      tag_72\n      jump\t// in\n    tag_320:\n        /* \"XODEX2.sol\":14660:14688  _isBlacklisted[addresses[i]] */\n      0xffffffffffffffffffffffffffffffffffffffff\n      and\n      0xffffffffffffffffffffffffffffffffffffffff\n      and\n      dup2\n      mstore\n      0x20\n      add\n      swap1\n      dup2\n      mstore\n      0x20\n      add\n      0x00\n      keccak256\n      0x00\n        /* \"XODEX2.sol\":14660:14695  _isBlacklisted[addresses[i]] = true */\n      0x0100\n      exp\n      dup2\n      sload\n      dup2\n      0xff\n      mul\n      not\n      and\n      swap1\n      dup4\n      iszero\n      iszero\n      mul\n      or\n      swap1\n      sstore\n      pop\n        /* \"XODEX2.sol\":14603:14714  if (!_isBlacklisted[addresses[i]]) {... */\n    tag_317:\n        /* \"XODEX2.sol\":14752:14761  gasleft() */\n      gas\n        /* \"XODEX2.sol\":14741:14749  startGas */\n      dup4\n        /* \"XODEX2.sol\":14741:14761  startGas - gasleft() */\n      tag_321\n      swap2\n      swap1\n      tag_322\n      jump\t// in\n    tag_321:\n        /* \"XODEX2.sol\":14731:14761  gasUsed = startGas - gasleft() */\n      swap2\n      pop\n        /* \"XODEX2.sol\":14522:14776  if (gasUsed < gasleft()) {... */\n    tag_312:\n        /* \"XODEX2.sol\":14503:14506  ++i */\n      dup1\n      tag_323\n      swap1\n      tag_324\n      jump\t// in\n    tag_323:\n      swap1\n      pop\n        /* \"XODEX2.sol\":14465:14786  for (uint256 i; i < addresses.length; ++i) {... */\n      jump(tag_309)\n    tag_310:\n      pop\n        /* \"XODEX2.sol\":14403:14792  {... */\n      pop\n      pop\n        /* \"XODEX2.sol\":14327:14792  function blacklist_Wallets(address[] calldata addresses) external onlyOwner {... */\n      pop\n      pop\n      jump\t// out\n        /* \"XODEX2.sol\":11930:11976  mapping(address => bool) public _isBlacklisted */\n    tag_97:\n      mstore(0x20, 0x04)\n      dup1\n      0x00\n      mstore\n      keccak256(0x00, 0x40)\n      0x00\n      swap2\n      pop\n      sload\n      swap1\n      0x0100\n      exp\n      swap1\n      div\n      0xff\n      and\n      dup2\n      jump\t// out\n        /* \"XODEX2.sol\":20608:20993  function transferFrom(... */\n    tag_103:\n        /* \"XODEX2.sol\":20736:20740  bool */\n      0x00\n        /* \"XODEX2.sol\":20752:20788  _transfer(sender, recipient, amount) */\n      tag_326\n        /* \"XODEX2.sol\":20762:20768  sender */\n      dup5\n        /* \"XODEX2.sol\":20770:20779  recipient */\n      dup5\n        /* \"XODEX2.sol\":20781:20787  amount */\n      dup5\n        /* \"XODEX2.sol\":20752:20761  _transfer */\n      tag_327\n        /* \"XODEX2.sol\":20752:20788  _transfer(sender, recipient, amount) */\n      jump\t// in\n    tag_326:\n        /* \"XODEX2.sol\":20798:20965  _approve(... */\n      tag_328\n        /* \"XODEX2.sol\":20820:20826  sender */\n      dup5\n        /* \"XODEX2.sol\":20840:20852  _msgSender() */\n      tag_329\n        /* \"XODEX2.sol\":20840:20850  _msgSender */\n      tag_268\n        /* \"XODEX2.sol\":20840:20852  _msgSender() */\n      jump\t// in\n    tag_329:\n        /* \"XODEX2.sol\":20866:20955  _allowances[sender][_msgSender()].sub(amount, \"ERC20: transfer amount exceeds allowance\") */\n      tag_330\n        /* \"XODEX2.sol\":20904:20910  amount */\n      dup6\n        /* \"XODEX2.sol\":20866:20955  _allowances[sender][_msgSender()].sub(amount, \"ERC20: transfer amount exceeds allowance\") */\n      mload(0x40)\n      dup1\n      0x60\n      add\n      0x40\n      mstore\n      dup1\n      0x28\n      dup2\n      mstore\n      0x20\n      add\n      data_974d1b4421da69cc60b481194f0dad36a5bb4e23da810da7a7fb30cdba178330\n      0x28\n      swap2\n      codecopy\n        /* \"XODEX2.sol\":20866:20877  _allowances */\n      0x02\n        /* \"XODEX2.sol\":20866:20885  _allowances[sender] */\n      0x00\n        /* \"XODEX2.sol\":20878:20884  sender */\n      dup12\n        /* \"XODEX2.sol\":20866:20885  _allowances[sender] */\n      0xffffffffffffffffffffffffffffffffffffffff\n      and\n      0xffffffffffffffffffffffffffffffffffffffff\n      and\n      dup2\n      mstore\n      0x20\n      add\n      swap1\n      dup2\n      mstore\n      0x20\n      add\n      0x00\n      keccak256\n        /* \"XODEX2.sol\":20866:20899  _allowances[sender][_msgSender()] */\n      0x00\n        /* \"XODEX2.sol\":20886:20898  _msgSender() */\n      tag_331\n        /* \"XODEX2.sol\":20886:20896  _msgSender */\n      tag_268\n        /* \"XODEX2.sol\":20886:20898  _msgSender() */\n      jump\t// in\n    tag_331:\n        /* \"XODEX2.sol\":20866:20899  _allowances[sender][_msgSender()] */\n      0xffffffffffffffffffffffffffffffffffffffff\n      and\n      0xffffffffffffffffffffffffffffffffffffffff\n      and\n      dup2\n      mstore\n      0x20\n      add\n      swap1\n      dup2\n      mstore\n      0x20\n      add\n      0x00\n      keccak256\n      sload\n        /* \"XODEX2.sol\":20866:20903  _allowances[sender][_msgSender()].sub */\n      tag_332\n      swap1\n        /* \"XODEX2.sol\":20866:20955  _allowances[sender][_msgSender()].sub(amount, \"ERC20: transfer amount exceeds allowance\") */\n      swap3\n      swap2\n      swap1\n      0xffffffff\n      and\n      jump\t// in\n    tag_330:\n        /* \"XODEX2.sol\":20798:20806  _approve */\n      tag_269\n        /* \"XODEX2.sol\":20798:20965  _approve(... */\n      jump\t// in\n    tag_328:\n        /* \"XODEX2.sol\":20982:20986  true */\n      0x01\n        /* \"XODEX2.sol\":20975:20986  return true */\n      swap1\n      pop\n        /* \"XODEX2.sol\":20608:20993  function transferFrom(... */\n      swap4\n      swap3\n      pop\n      pop\n      pop\n      jump\t// out\n        /* \"XODEX2.sol\":12148:12171  bool public isBlackList */\n    tag_107:\n      0x05\n      0x00\n      swap1\n      sload\n      swap1\n      0x0100\n      exp\n      swap1\n      div\n      0xff\n      and\n      dup2\n      jump\t// out\n        /* \"XODEX2.sol\":12727:12756  uint256 public _TotalFee = 10 */\n    tag_111:\n      sload(0x0b)\n      dup2\n      jump\t// out\n        /* \"XODEX2.sol\":16809:17428  function recover_Tokens(... */\n    tag_116:\n        /* \"XODEX2.sol\":16962:16972  bool _sent */\n      0x00\n        /* \"XODEX2.sol\":2457:2469  _msgSender() */\n      tag_334\n        /* \"XODEX2.sol\":2457:2467  _msgSender */\n      tag_268\n        /* \"XODEX2.sol\":2457:2469  _msgSender() */\n      jump\t// in\n    tag_334:\n        /* \"XODEX2.sol\":2446:2469  owner() == _msgSender() */\n      0xffffffffffffffffffffffffffffffffffffffff\n      and\n        /* \"XODEX2.sol\":2446:2453  owner() */\n      tag_335\n        /* \"XODEX2.sol\":2446:2451  owner */\n      tag_190\n        /* \"XODEX2.sol\":2446:2453  owner() */\n      jump\t// in\n    tag_335:\n        /* \"XODEX2.sol\":2446:2469  owner() == _msgSender() */\n      0xffffffffffffffffffffffffffffffffffffffff\n      and\n      eq\n        /* \"XODEX2.sol\":2438:2506  require(owner() == _msgSender(), \"Ownable: caller is not the owner\") */\n      tag_336\n      jumpi\n      mload(0x40)\n      0x08c379a000000000000000000000000000000000000000000000000000000000\n      dup2\n      mstore\n      0x04\n      add\n      tag_337\n      swap1\n      tag_275\n      jump\t// in\n    tag_337:\n      mload(0x40)\n      dup1\n      swap2\n      sub\n      swap1\n      revert\n    tag_336:\n        /* \"XODEX2.sol\":17017:17018  0 */\n      0x00\n        /* \"XODEX2.sol\":16992:17019  Token_Address != address(0) */\n      0xffffffffffffffffffffffffffffffffffffffff\n      and\n        /* \"XODEX2.sol\":16992:17005  Token_Address */\n      dup5\n        /* \"XODEX2.sol\":16992:17019  Token_Address != address(0) */\n      0xffffffffffffffffffffffffffffffffffffffff\n      and\n      eq\n      iszero\n        /* \"XODEX2.sol\":16992:17051  Token_Address != address(0) && send_to_wallet != address(0) */\n      dup1\n      iszero\n      tag_339\n      jumpi\n      pop\n        /* \"XODEX2.sol\":17049:17050  0 */\n      0x00\n        /* \"XODEX2.sol\":17023:17051  send_to_wallet != address(0) */\n      0xffffffffffffffffffffffffffffffffffffffff\n      and\n        /* \"XODEX2.sol\":17023:17037  send_to_wallet */\n      dup4\n        /* \"XODEX2.sol\":17023:17051  send_to_wallet != address(0) */\n      0xffffffffffffffffffffffffffffffffffffffff\n      and\n      eq\n      iszero\n        /* \"XODEX2.sol\":16992:17051  Token_Address != address(0) && send_to_wallet != address(0) */\n    tag_339:\n        /* \"XODEX2.sol\":16984:17073  require(Token_Address != address(0) && send_to_wallet != address(0), \"ERR: zero address\") */\n      tag_340\n      jumpi\n      mload(0x40)\n      0x08c379a000000000000000000000000000000000000000000000000000000000\n      dup2\n      mstore\n      0x04\n      add\n      tag_341\n      swap1\n      tag_279\n      jump\t// in\n    tag_341:\n      mload(0x40)\n      dup1\n      swap2\n      sub\n      swap1\n      revert\n    tag_340:\n        /* \"XODEX2.sol\":17116:17120  this */\n      address\n        /* \"XODEX2.sol\":17091:17121  Token_Address != address(this) */\n      0xffffffffffffffffffffffffffffffffffffffff\n      and\n        /* \"XODEX2.sol\":17091:17104  Token_Address */\n      dup5\n        /* \"XODEX2.sol\":17091:17121  Token_Address != address(this) */\n      0xffffffffffffffffffffffffffffffffffffffff\n      and\n      sub\n        /* \"XODEX2.sol\":17083:17153  require(Token_Address != address(this), \"Can not remove native token\") */\n      tag_342\n      jumpi\n      mload(0x40)\n      0x08c379a000000000000000000000000000000000000000000000000000000000\n      dup2\n      mstore\n      0x04\n      add\n      tag_343\n      swap1\n      tag_344\n      jump\t// in\n    tag_343:\n      mload(0x40)\n      dup1\n      swap2\n      sub\n      swap1\n      revert\n    tag_342:\n        /* \"XODEX2.sol\":17165:17186  uint256 randomBalance */\n      0x00\n        /* \"XODEX2.sol\":17196:17209  Token_Address */\n      dup5\n        /* \"XODEX2.sol\":17189:17220  IERC20(Token_Address).balanceOf */\n      0xffffffffffffffffffffffffffffffffffffffff\n      and\n      0x70a08231\n        /* \"XODEX2.sol\":17229:17233  this */\n      address\n        /* \"XODEX2.sol\":17189:17235  IERC20(Token_Address).balanceOf(address(this)) */\n      mload(0x40)\n      dup3\n      0xffffffff\n      and\n      0xe0\n      shl\n      dup2\n      mstore\n      0x04\n      add\n      tag_345\n      swap2\n      swap1\n      tag_148\n      jump\t// in\n    tag_345:\n      0x20\n      mload(0x40)\n      dup1\n      dup4\n      sub\n      dup2\n      dup7\n      gas\n      staticcall\n      iszero\n      dup1\n      iszero\n      tag_347\n      jumpi\n      returndatasize\n      0x00\n      dup1\n      returndatacopy\n      revert(0x00, returndatasize)\n    tag_347:\n      pop\n      pop\n      pop\n      pop\n      mload(0x40)\n      returndatasize\n      not(0x1f)\n      0x1f\n      dup3\n      add\n      and\n      dup3\n      add\n      dup1\n      0x40\n      mstore\n      pop\n      dup2\n      add\n      swap1\n      tag_348\n      swap2\n      swap1\n      tag_349\n      jump\t// in\n    tag_348:\n        /* \"XODEX2.sol\":17165:17235  uint256 randomBalance = IERC20(Token_Address).balanceOf(address(this)) */\n      swap1\n      pop\n        /* \"XODEX2.sol\":17268:17281  randomBalance */\n      dup1\n        /* \"XODEX2.sol\":17249:17265  number_of_tokens */\n      dup4\n        /* \"XODEX2.sol\":17249:17281  number_of_tokens > randomBalance */\n      gt\n        /* \"XODEX2.sol\":17245:17340  if (number_of_tokens > randomBalance) {... */\n      iszero\n      tag_350\n      jumpi\n        /* \"XODEX2.sol\":17316:17329  randomBalance */\n      dup1\n        /* \"XODEX2.sol\":17297:17329  number_of_tokens = randomBalance */\n      swap3\n      pop\n        /* \"XODEX2.sol\":17245:17340  if (number_of_tokens > randomBalance) {... */\n    tag_350:\n        /* \"XODEX2.sol\":17364:17377  Token_Address */\n      dup5\n        /* \"XODEX2.sol\":17357:17387  IERC20(Token_Address).transfer */\n      0xffffffffffffffffffffffffffffffffffffffff\n      and\n      0xa9059cbb\n        /* \"XODEX2.sol\":17388:17402  send_to_wallet */\n      dup6\n        /* \"XODEX2.sol\":17404:17420  number_of_tokens */\n      dup6\n        /* \"XODEX2.sol\":17357:17421  IERC20(Token_Address).transfer(send_to_wallet, number_of_tokens) */\n      mload(0x40)\n      dup4\n      0xffffffff\n      and\n      0xe0\n      shl\n      dup2\n      mstore\n      0x04\n      add\n      tag_351\n      swap3\n      swap2\n      swap1\n      tag_352\n      jump\t// in\n    tag_351:\n      0x20\n      mload(0x40)\n      dup1\n      dup4\n      sub\n      dup2\n      0x00\n      dup8\n      gas\n      call\n      iszero\n      dup1\n      iszero\n      tag_354\n      jumpi\n      returndatasize\n      0x00\n      dup1\n      returndatacopy\n      revert(0x00, returndatasize)\n    tag_354:\n      pop\n      pop\n      pop\n      pop\n      mload(0x40)\n      returndatasize\n      not(0x1f)\n      0x1f\n      dup3\n      add\n      and\n      dup3\n      add\n      dup1\n      0x40\n      mstore\n      pop\n      dup2\n      add\n      swap1\n      tag_355\n      swap2\n      swap1\n      tag_356\n      jump\t// in\n    tag_355:\n        /* \"XODEX2.sol\":17349:17421  _sent = IERC20(Token_Address).transfer(send_to_wallet, number_of_tokens) */\n      swap2\n      pop\n        /* \"XODEX2.sol\":16974:17428  {... */\n      pop\n        /* \"XODEX2.sol\":16809:17428  function recover_Tokens(... */\n      swap4\n      swap3\n      pop\n      pop\n      pop\n      jump\t// out\n        /* \"XODEX2.sol\":15572:15653  function decimals() public view returns (uint8) {... */\n    tag_120:\n        /* \"XODEX2.sol\":15613:15618  uint8 */\n      0x00\n        /* \"XODEX2.sol\":12086:12088  18 */\n      0x12\n        /* \"XODEX2.sol\":15630:15646  return _decimals */\n      swap1\n      pop\n        /* \"XODEX2.sol\":15572:15653  function decimals() public view returns (uint8) {... */\n      swap1\n      jump\t// out\n        /* \"XODEX2.sol\":19046:19300  function set_New_Router_Address(address newRouter) public onlyOwner {... */\n    tag_126:\n        /* \"XODEX2.sol\":2457:2469  _msgSender() */\n      tag_359\n        /* \"XODEX2.sol\":2457:2467  _msgSender */\n      tag_268\n        /* \"XODEX2.sol\":2457:2469  _msgSender() */\n      jump\t// in\n    tag_359:\n        /* \"XODEX2.sol\":2446:2469  owner() == _msgSender() */\n      0xffffffffffffffffffffffffffffffffffffffff\n      and\n        /* \"XODEX2.sol\":2446:2453  owner() */\n      tag_360\n        /* \"XODEX2.sol\":2446:2451  owner */\n      tag_190\n        /* \"XODEX2.sol\":2446:2453  owner() */\n      jump\t// in\n    tag_360:\n        /* \"XODEX2.sol\":2446:2469  owner() == _msgSender() */\n      0xffffffffffffffffffffffffffffffffffffffff\n      and\n      eq\n        /* \"XODEX2.sol\":2438:2506  require(owner() == _msgSender(), \"Ownable: caller is not the owner\") */\n      tag_361\n      jumpi\n      mload(0x40)\n      0x08c379a000000000000000000000000000000000000000000000000000000000\n      dup2\n      mstore\n      0x04\n      add\n      tag_362\n      swap1\n      tag_275\n      jump\t// in\n    tag_362:\n      mload(0x40)\n      dup1\n      swap2\n      sub\n      swap1\n      revert\n    tag_361:\n        /* \"XODEX2.sol\":19153:19154  0 */\n      0x00\n        /* \"XODEX2.sol\":19132:19155  newRouter != address(0) */\n      0xffffffffffffffffffffffffffffffffffffffff\n      and\n        /* \"XODEX2.sol\":19132:19141  newRouter */\n      dup2\n        /* \"XODEX2.sol\":19132:19155  newRouter != address(0) */\n      0xffffffffffffffffffffffffffffffffffffffff\n      and\n      sub\n        /* \"XODEX2.sol\":19124:19177  require(newRouter != address(0), \"ERR: zero address\") */\n      tag_364\n      jumpi\n      mload(0x40)\n      0x08c379a000000000000000000000000000000000000000000000000000000000\n      dup2\n      mstore\n      0x04\n      add\n      tag_365\n      swap1\n      tag_279\n      jump\t// in\n    tag_365:\n      mload(0x40)\n      dup1\n      swap2\n      sub\n      swap1\n      revert\n    tag_364:\n        /* \"XODEX2.sol\":19188:19220  IUniswapV2Router02 _newPCSRouter */\n      0x00\n        /* \"XODEX2.sol\":19242:19251  newRouter */\n      dup2\n        /* \"XODEX2.sol\":19188:19252  IUniswapV2Router02 _newPCSRouter = IUniswapV2Router02(newRouter) */\n      swap1\n      pop\n        /* \"XODEX2.sol\":19280:19293  _newPCSRouter */\n      dup1\n        /* \"XODEX2.sol\":19262:19277  uniswapV2Router */\n      0x11\n      0x01\n        /* \"XODEX2.sol\":19262:19293  uniswapV2Router = _newPCSRouter */\n      0x0100\n      exp\n      dup2\n      sload\n      dup2\n      0xffffffffffffffffffffffffffffffffffffffff\n      mul\n      not\n      and\n      swap1\n      dup4\n      0xffffffffffffffffffffffffffffffffffffffff\n      and\n      mul\n      or\n      swap1\n      sstore\n      pop\n        /* \"XODEX2.sol\":19114:19300  {... */\n      pop\n        /* \"XODEX2.sol\":19046:19300  function set_New_Router_Address(address newRouter) public onlyOwner {... */\n      pop\n      jump\t// out\n        /* \"XODEX2.sol\":15835:16050  function increaseAllowance(address spender, uint256 addedValue) public virtual returns (bool) {... */\n    tag_130:\n        /* \"XODEX2.sol\":15923:15927  bool */\n      0x00\n        /* \"XODEX2.sol\":15939:16022  _approve(_msgSender(), spender, _allowances[_msgSender()][spender].add(addedValue)) */\n      tag_367\n        /* \"XODEX2.sol\":15948:15960  _msgSender() */\n      tag_368\n        /* \"XODEX2.sol\":15948:15958  _msgSender */\n      tag_268\n        /* \"XODEX2.sol\":15948:15960  _msgSender() */\n      jump\t// in\n    tag_368:\n        /* \"XODEX2.sol\":15962:15969  spender */\n      dup5\n        /* \"XODEX2.sol\":15971:16021  _allowances[_msgSender()][spender].add(addedValue) */\n      tag_369\n        /* \"XODEX2.sol\":16010:16020  addedValue */\n      dup6\n        /* \"XODEX2.sol\":15971:15982  _allowances */\n      0x02\n        /* \"XODEX2.sol\":15971:15996  _allowances[_msgSender()] */\n      0x00\n        /* \"XODEX2.sol\":15983:15995  _msgSender() */\n      tag_370\n        /* \"XODEX2.sol\":15983:15993  _msgSender */\n      tag_268\n        /* \"XODEX2.sol\":15983:15995  _msgSender() */\n      jump\t// in\n    tag_370:\n        /* \"XODEX2.sol\":15971:15996  _allowances[_msgSender()] */\n      0xffffffffffffffffffffffffffffffffffffffff\n      and\n      0xffffffffffffffffffffffffffffffffffffffff\n      and\n      dup2\n      mstore\n      0x20\n      add\n      swap1\n      dup2\n      mstore\n      0x20\n      add\n      0x00\n      keccak256\n        /* \"XODEX2.sol\":15971:16005  _allowances[_msgSender()][spender] */\n      0x00\n        /* \"XODEX2.sol\":15997:16004  spender */\n      dup10\n        /* \"XODEX2.sol\":15971:16005  _allowances[_msgSender()][spender] */\n      0xffffffffffffffffffffffffffffffffffffffff\n      and\n      0xffffffffffffffffffffffffffffffffffffffff\n      and\n      dup2\n      mstore\n      0x20\n      add\n      swap1\n      dup2\n      mstore\n      0x20\n      add\n      0x00\n      keccak256\n      sload\n        /* \"XODEX2.sol\":15971:16009  _allowances[_msgSender()][spender].add */\n      tag_371\n      swap1\n        /* \"XODEX2.sol\":15971:16021  _allowances[_msgSender()][spender].add(addedValue) */\n      swap2\n      swap1\n      0xffffffff\n      and\n      jump\t// in\n    tag_369:\n        /* \"XODEX2.sol\":15939:15947  _approve */\n      tag_269\n        /* \"XODEX2.sol\":15939:16022  _approve(_msgSender(), spender, _allowances[_msgSender()][spender].add(addedValue)) */\n      jump\t// in\n    tag_367:\n        /* \"XODEX2.sol\":16039:16043  true */\n      0x01\n        /* \"XODEX2.sol\":16032:16043  return true */\n      swap1\n      pop\n        /* \"XODEX2.sol\":15835:16050  function increaseAllowance(address spender, uint256 addedValue) public virtual returns (bool) {... */\n      swap3\n      swap2\n      pop\n      pop\n      jump\t// out\n        /* \"XODEX2.sol\":20999:21466  function unBlacklist_Wallets(address[] calldata addresses) external onlyOwner {... */\n    tag_135:\n        /* \"XODEX2.sol\":2457:2469  _msgSender() */\n      tag_373\n        /* \"XODEX2.sol\":2457:2467  _msgSender */\n      tag_268\n        /* \"XODEX2.sol\":2457:2469  _msgSender() */\n      jump\t// in\n    tag_373:\n        /* \"XODEX2.sol\":2446:2469  owner() == _msgSender() */\n      0xffffffffffffffffffffffffffffffffffffffff\n      and\n        /* \"XODEX2.sol\":2446:2453  owner() */\n      tag_374\n        /* \"XODEX2.sol\":2446:2451  owner */\n      tag_190\n        /* \"XODEX2.sol\":2446:2453  owner() */\n      jump\t// in\n    tag_374:\n        /* \"XODEX2.sol\":2446:2469  owner() == _msgSender() */\n      0xffffffffffffffffffffffffffffffffffffffff\n      and\n      eq\n        /* \"XODEX2.sol\":2438:2506  require(owner() == _msgSender(), \"Ownable: caller is not the owner\") */\n      tag_375\n      jumpi\n      mload(0x40)\n      0x08c379a000000000000000000000000000000000000000000000000000000000\n      dup2\n      mstore\n      0x04\n      add\n      tag_376\n      swap1\n      tag_275\n      jump\t// in\n    tag_376:\n      mload(0x40)\n      dup1\n      swap2\n      sub\n      swap1\n      revert\n    tag_375:\n        /* \"XODEX2.sol\":21087:21103  uint256 startGas */\n      0x00\n        /* \"XODEX2.sol\":21113:21128  uint256 gasUsed */\n      dup1\n        /* \"XODEX2.sol\":21144:21153  uint256 i */\n      0x00\n        /* \"XODEX2.sol\":21139:21460  for (uint256 i; i < addresses.length; ++i) {... */\n    tag_378:\n        /* \"XODEX2.sol\":21159:21168  addresses */\n      dup5\n      dup5\n        /* \"XODEX2.sol\":21159:21175  addresses.length */\n      swap1\n      pop\n        /* \"XODEX2.sol\":21155:21156  i */\n      dup2\n        /* \"XODEX2.sol\":21155:21175  i < addresses.length */\n      lt\n        /* \"XODEX2.sol\":21139:21460  for (uint256 i; i < addresses.length; ++i) {... */\n      iszero\n      tag_379\n      jumpi\n        /* \"XODEX2.sol\":21210:21219  gasleft() */\n      gas\n        /* \"XODEX2.sol\":21200:21207  gasUsed */\n      dup3\n        /* \"XODEX2.sol\":21200:21219  gasUsed < gasleft() */\n      lt\n        /* \"XODEX2.sol\":21196:21450  if (gasUsed < gasleft()) {... */\n      iszero\n      tag_381\n      jumpi\n        /* \"XODEX2.sol\":21250:21259  gasleft() */\n      gas\n        /* \"XODEX2.sol\":21239:21259  startGas = gasleft() */\n      swap3\n      pop\n        /* \"XODEX2.sol\":21281:21295  _isBlacklisted */\n      0x04\n        /* \"XODEX2.sol\":21281:21309  _isBlacklisted[addresses[i]] */\n      0x00\n        /* \"XODEX2.sol\":21296:21305  addresses */\n      dup7\n      dup7\n        /* \"XODEX2.sol\":21306:21307  i */\n      dup5\n        /* \"XODEX2.sol\":21296:21308  addresses[i] */\n      dup2\n      dup2\n      lt\n      tag_382\n      jumpi\n      tag_383\n      tag_315\n      jump\t// in\n    tag_383:\n    tag_382:\n      swap1\n      pop\n      0x20\n      mul\n      add\n      0x20\n      dup2\n      add\n      swap1\n      tag_384\n      swap2\n      swap1\n      tag_72\n      jump\t// in\n    tag_384:\n        /* \"XODEX2.sol\":21281:21309  _isBlacklisted[addresses[i]] */\n      0xffffffffffffffffffffffffffffffffffffffff\n      and\n      0xffffffffffffffffffffffffffffffffffffffff\n      and\n      dup2\n      mstore\n      0x20\n      add\n      swap1\n      dup2\n      mstore\n      0x20\n      add\n      0x00\n      keccak256\n      0x00\n      swap1\n      sload\n      swap1\n      0x0100\n      exp\n      swap1\n      div\n      0xff\n      and\n        /* \"XODEX2.sol\":21277:21388  if (_isBlacklisted[addresses[i]]) {... */\n      iszero\n      tag_385\n      jumpi\n        /* \"XODEX2.sol\":21364:21369  false */\n      0x00\n        /* \"XODEX2.sol\":21333:21347  _isBlacklisted */\n      0x04\n        /* \"XODEX2.sol\":21333:21361  _isBlacklisted[addresses[i]] */\n      0x00\n        /* \"XODEX2.sol\":21348:21357  addresses */\n      dup8\n      dup8\n        /* \"XODEX2.sol\":21358:21359  i */\n      dup6\n        /* \"XODEX2.sol\":21348:21360  addresses[i] */\n      dup2\n      dup2\n      lt\n      tag_386\n      jumpi\n      tag_387\n      tag_315\n      jump\t// in\n    tag_387:\n    tag_386:\n      swap1\n      pop\n      0x20\n      mul\n      add\n      0x20\n      dup2\n      add\n      swap1\n      tag_388\n      swap2\n      swap1\n      tag_72\n      jump\t// in\n    tag_388:\n        /* \"XODEX2.sol\":21333:21361  _isBlacklisted[addresses[i]] */\n      0xffffffffffffffffffffffffffffffffffffffff\n      and\n      0xffffffffffffffffffffffffffffffffffffffff\n      and\n      dup2\n      mstore\n      0x20\n      add\n      swap1\n      dup2\n      mstore\n      0x20\n      add\n      0x00\n      keccak256\n      0x00\n        /* \"XODEX2.sol\":21333:21369  _isBlacklisted[addresses[i]] = false */\n      0x0100\n      exp\n      dup2\n      sload\n      dup2\n      0xff\n      mul\n      not\n      and\n      swap1\n      dup4\n      iszero\n      iszero\n      mul\n      or\n      swap1\n      sstore\n      pop\n        /* \"XODEX2.sol\":21277:21388  if (_isBlacklisted[addresses[i]]) {... */\n    tag_385:\n        /* \"XODEX2.sol\":21426:21435  gasleft() */\n      gas\n        /* \"XODEX2.sol\":21415:21423  startGas */\n      dup4\n        /* \"XODEX2.sol\":21415:21435  startGas - gasleft() */\n      tag_389\n      swap2\n      swap1\n      tag_322\n      jump\t// in\n    tag_389:\n        /* \"XODEX2.sol\":21405:21435  gasUsed = startGas - gasleft() */\n      swap2\n      pop\n        /* \"XODEX2.sol\":21196:21450  if (gasUsed < gasleft()) {... */\n    tag_381:\n        /* \"XODEX2.sol\":21177:21180  ++i */\n      dup1\n      tag_390\n      swap1\n      tag_324\n      jump\t// in\n    tag_390:\n      swap1\n      pop\n        /* \"XODEX2.sol\":21139:21460  for (uint256 i; i < addresses.length; ++i) {... */\n      jump(tag_378)\n    tag_379:\n      pop\n        /* \"XODEX2.sol\":21077:21466  {... */\n      pop\n      pop\n        /* \"XODEX2.sol\":20999:21466  function unBlacklist_Wallets(address[] calldata addresses) external onlyOwner {... */\n      pop\n      pop\n      jump\t// out\n        /* \"XODEX2.sol\":12762:12788  uint256 public _buyFee = 5 */\n    tag_138:\n      sload(0x0c)\n      dup2\n      jump\t// out\n        /* \"XODEX2.sol\":15659:15829  function excludeFromFee(address account) public onlyOwner {... */\n    tag_143:\n        /* \"XODEX2.sol\":2457:2469  _msgSender() */\n      tag_392\n        /* \"XODEX2.sol\":2457:2467  _msgSender */\n      tag_268\n        /* \"XODEX2.sol\":2457:2469  _msgSender() */\n      jump\t// in\n    tag_392:\n        /* \"XODEX2.sol\":2446:2469  owner() == _msgSender() */\n      0xffffffffffffffffffffffffffffffffffffffff\n      and\n        /* \"XODEX2.sol\":2446:2453  owner() */\n      tag_393\n        /* \"XODEX2.sol\":2446:2451  owner */\n      tag_190\n        /* \"XODEX2.sol\":2446:2453  owner() */\n      jump\t// in\n    tag_393:\n        /* \"XODEX2.sol\":2446:2469  owner() == _msgSender() */\n      0xffffffffffffffffffffffffffffffffffffffff\n      and\n      eq\n        /* \"XODEX2.sol\":2438:2506  require(owner() == _msgSender(), \"Ownable: caller is not the owner\") */\n      tag_394\n      jumpi\n      mload(0x40)\n      0x08c379a000000000000000000000000000000000000000000000000000000000\n      dup2\n      mstore\n      0x04\n      add\n      tag_395\n      swap1\n      tag_275\n      jump\t// in\n    tag_395:\n      mload(0x40)\n      dup1\n      swap2\n      sub\n      swap1\n      revert\n    tag_394:\n        /* \"XODEX2.sol\":15754:15755  0 */\n      0x00\n        /* \"XODEX2.sol\":15735:15756  account != address(0) */\n      0xffffffffffffffffffffffffffffffffffffffff\n      and\n        /* \"XODEX2.sol\":15735:15742  account */\n      dup2\n        /* \"XODEX2.sol\":15735:15756  account != address(0) */\n      0xffffffffffffffffffffffffffffffffffffffff\n      and\n      sub\n        /* \"XODEX2.sol\":15727:15778  require(account != address(0), \"ERR: zero address\") */\n      tag_397\n      jumpi\n      mload(0x40)\n      0x08c379a000000000000000000000000000000000000000000000000000000000\n      dup2\n      mstore\n      0x04\n      add\n      tag_398\n      swap1\n      tag_279\n      jump\t// in\n    tag_398:\n      mload(0x40)\n      dup1\n      swap2\n      sub\n      swap1\n      revert\n    tag_397:\n        /* \"XODEX2.sol\":15818:15822  true */\n      0x01\n        /* \"XODEX2.sol\":15788:15806  _isExcludedFromFee */\n      0x03\n        /* \"XODEX2.sol\":15788:15815  _isExcludedFromFee[account] */\n      0x00\n        /* \"XODEX2.sol\":15807:15814  account */\n      dup4\n        /* \"XODEX2.sol\":15788:15815  _isExcludedFromFee[account] */\n      0xffffffffffffffffffffffffffffffffffffffff\n      and\n      0xffffffffffffffffffffffffffffffffffffffff\n      and\n      dup2\n      mstore\n      0x20\n      add\n      swap1\n      dup2\n      mstore\n      0x20\n      add\n      0x00\n      keccak256\n      0x00\n        /* \"XODEX2.sol\":15788:15822  _isExcludedFromFee[account] = true */\n      0x0100\n      exp\n      dup2\n      sload\n      dup2\n      0xff\n      mul\n      not\n      and\n      swap1\n      dup4\n      iszero\n      iszero\n      mul\n      or\n      swap1\n      sstore\n      pop\n        /* \"XODEX2.sol\":15659:15829  function excludeFromFee(address account) public onlyOwner {... */\n      pop\n      jump\t// out\n        /* \"XODEX2.sol\":13050:13078  address public uniswapV2Pair */\n    tag_146:\n      0x12\n      0x00\n      swap1\n      sload\n      swap1\n      0x0100\n      exp\n      swap1\n      div\n      0xffffffffffffffffffffffffffffffffffffffff\n      and\n      dup2\n      jump\t// out\n        /* \"XODEX2.sol\":12511:12561  uint256 public _maxToken = _tTotal.mul(2).div(100) */\n    tag_151:\n      sload(0x07)\n      dup2\n      jump\t// out\n        /* \"XODEX2.sol\":12794:12821  uint256 public _sellFee = 5 */\n    tag_155:\n      sload(0x0d)\n      dup2\n      jump\t// out\n        /* \"XODEX2.sol\":24835:25040  function _set_Fees(uint256 Buy_Fee, uint256 Sell_Fee) external onlyOwner {... */\n    tag_161:\n        /* \"XODEX2.sol\":2457:2469  _msgSender() */\n      tag_400\n        /* \"XODEX2.sol\":2457:2467  _msgSender */\n      tag_268\n        /* \"XODEX2.sol\":2457:2469  _msgSender() */\n      jump\t// in\n    tag_400:\n        /* \"XODEX2.sol\":2446:2469  owner() == _msgSender() */\n      0xffffffffffffffffffffffffffffffffffffffff\n      and\n        /* \"XODEX2.sol\":2446:2453  owner() */\n      tag_401\n        /* \"XODEX2.sol\":2446:2451  owner */\n      tag_190\n        /* \"XODEX2.sol\":2446:2453  owner() */\n      jump\t// in\n    tag_401:\n        /* \"XODEX2.sol\":2446:2469  owner() == _msgSender() */\n      0xffffffffffffffffffffffffffffffffffffffff\n      and\n      eq\n        /* \"XODEX2.sol\":2438:2506  require(owner() == _msgSender(), \"Ownable: caller is not the owner\") */\n      tag_402\n      jumpi\n      mload(0x40)\n      0x08c379a000000000000000000000000000000000000000000000000000000000\n      dup2\n      mstore\n      0x04\n      add\n      tag_403\n      swap1\n      tag_275\n      jump\t// in\n    tag_403:\n      mload(0x40)\n      dup1\n      swap2\n      sub\n      swap1\n      revert\n    tag_402:\n        /* \"XODEX2.sol\":12462:12464  25 */\n      0x19\n        /* \"XODEX2.sol\":24937:24945  Sell_Fee */\n      dup2\n        /* \"XODEX2.sol\":24927:24934  Buy_Fee */\n      dup4\n        /* \"XODEX2.sol\":24927:24945  Buy_Fee + Sell_Fee */\n      tag_405\n      swap2\n      swap1\n      tag_406\n      jump\t// in\n    tag_405:\n        /* \"XODEX2.sol\":24926:24956  (Buy_Fee + Sell_Fee) <= maxFee */\n      gt\n      iszero\n        /* \"XODEX2.sol\":24918:24977  require((Buy_Fee + Sell_Fee) <= maxFee, \"Fee is too high!\") */\n      tag_407\n      jumpi\n      mload(0x40)\n      0x08c379a000000000000000000000000000000000000000000000000000000000\n      dup2\n      mstore\n      0x04\n      add\n      tag_408\n      swap1\n      tag_409\n      jump\t// in\n    tag_408:\n      mload(0x40)\n      dup1\n      swap2\n      sub\n      swap1\n      revert\n    tag_407:\n        /* \"XODEX2.sol\":24998:25006  Sell_Fee */\n      dup1\n        /* \"XODEX2.sol\":24987:24995  _sellFee */\n      0x0d\n        /* \"XODEX2.sol\":24987:25006  _sellFee = Sell_Fee */\n      dup2\n      swap1\n      sstore\n      pop\n        /* \"XODEX2.sol\":25026:25033  Buy_Fee */\n      dup2\n        /* \"XODEX2.sol\":25016:25023  _buyFee */\n      0x0c\n        /* \"XODEX2.sol\":25016:25033  _buyFee = Buy_Fee */\n      dup2\n      swap1\n      sstore\n      pop\n        /* \"XODEX2.sol\":24835:25040  function _set_Fees(uint256 Buy_Fee, uint256 Sell_Fee) external onlyOwner {... */\n      pop\n      pop\n      jump\t// out\n        /* \"XODEX2.sol\":14911:15030  function balanceOf(address account) public view override returns (uint256) {... */\n    tag_165:\n        /* \"XODEX2.sol\":14977:14984  uint256 */\n      0x00\n        /* \"XODEX2.sol\":15003:15014  _totalOwned */\n      0x01\n        /* \"XODEX2.sol\":15003:15023  _totalOwned[account] */\n      0x00\n        /* \"XODEX2.sol\":15015:15022  account */\n      dup4\n        /* \"XODEX2.sol\":15003:15023  _totalOwned[account] */\n      0xffffffffffffffffffffffffffffffffffffffff\n      and\n      0xffffffffffffffffffffffffffffffffffffffff\n      and\n      dup2\n      mstore\n      0x20\n      add\n      swap1\n      dup2\n      mstore\n      0x20\n      add\n      0x00\n      keccak256\n      sload\n        /* \"XODEX2.sol\":14996:15023  return _totalOwned[account] */\n      swap1\n      pop\n        /* \"XODEX2.sol\":14911:15030  function balanceOf(address account) public view override returns (uint256) {... */\n      swap2\n      swap1\n      pop\n      jump\t// out\n        /* \"XODEX2.sol\":2572:2717  function renounceOwnership() public virtual onlyOwner {... */\n    tag_169:\n        /* \"XODEX2.sol\":2457:2469  _msgSender() */\n      tag_412\n        /* \"XODEX2.sol\":2457:2467  _msgSender */\n      tag_268\n        /* \"XODEX2.sol\":2457:2469  _msgSender() */\n      jump\t// in\n    tag_412:\n        /* \"XODEX2.sol\":2446:2469  owner() == _msgSender() */\n      0xffffffffffffffffffffffffffffffffffffffff\n      and\n        /* \"XODEX2.sol\":2446:2453  owner() */\n      tag_413\n        /* \"XODEX2.sol\":2446:2451  owner */\n      tag_190\n        /* \"XODEX2.sol\":2446:2453  owner() */\n      jump\t// in\n    tag_413:\n        /* \"XODEX2.sol\":2446:2469  owner() == _msgSender() */\n      0xffffffffffffffffffffffffffffffffffffffff\n      and\n      eq\n        /* \"XODEX2.sol\":2438:2506  require(owner() == _msgSender(), \"Ownable: caller is not the owner\") */\n      tag_414\n      jumpi\n      mload(0x40)\n      0x08c379a000000000000000000000000000000000000000000000000000000000\n      dup2\n      mstore\n      0x04\n      add\n      tag_415\n      swap1\n      tag_275\n      jump\t// in\n    tag_415:\n      mload(0x40)\n      dup1\n      swap2\n      sub\n      swap1\n      revert\n    tag_414:\n        /* \"XODEX2.sol\":2678:2679  0 */\n      0x00\n        /* \"XODEX2.sol\":2641:2681  OwnershipTransferred(_owner, address(0)) */\n      0xffffffffffffffffffffffffffffffffffffffff\n      and\n        /* \"XODEX2.sol\":2662:2668  _owner */\n      0x00\n      dup1\n      sload\n      swap1\n      0x0100\n      exp\n      swap1\n      div\n      0xffffffffffffffffffffffffffffffffffffffff\n      and\n        /* \"XODEX2.sol\":2641:2681  OwnershipTransferred(_owner, address(0)) */\n      0xffffffffffffffffffffffffffffffffffffffff\n      and\n      0x8be0079c531659141344cd1fd0a4f28419497f9722a3daafe3b4186f6b6457e0\n      mload(0x40)\n      mload(0x40)\n      dup1\n      swap2\n      sub\n      swap1\n      log3\n        /* \"XODEX2.sol\":2708:2709  0 */\n      0x00\n        /* \"XODEX2.sol\":2691:2697  _owner */\n      dup1\n      0x00\n        /* \"XODEX2.sol\":2691:2710  _owner = address(0) */\n      0x0100\n      exp\n      dup2\n      sload\n      dup2\n      0xffffffffffffffffffffffffffffffffffffffff\n      mul\n      not\n      and\n      swap1\n      dup4\n      0xffffffffffffffffffffffffffffffffffffffff\n      and\n      mul\n      or\n      swap1\n      sstore\n      pop\n        /* \"XODEX2.sol\":2572:2717  function renounceOwnership() public virtual onlyOwner {... */\n      jump\t// out\n        /* \"XODEX2.sol\":11874:11924  mapping(address => bool) public _isExcludedFromFee */\n    tag_173:\n      mstore(0x20, 0x03)\n      dup1\n      0x00\n      mstore\n      keccak256(0x00, 0x40)\n      0x00\n      swap2\n      pop\n      sload\n      swap1\n      0x0100\n      exp\n      swap1\n      div\n      0xff\n      and\n      dup2\n      jump\t// out\n        /* \"XODEX2.sol\":19757:19916  function set_Number_Of_Transactions_Before_Liquify_Trigger(uint8 number_of_transactions) public onlyOwner {... */\n    tag_179:\n        /* \"XODEX2.sol\":2457:2469  _msgSender() */\n      tag_418\n        /* \"XODEX2.sol\":2457:2467  _msgSender */\n      tag_268\n        /* \"XODEX2.sol\":2457:2469  _msgSender() */\n      jump\t// in\n    tag_418:\n        /* \"XODEX2.sol\":2446:2469  owner() == _msgSender() */\n      0xffffffffffffffffffffffffffffffffffffffff\n      and\n        /* \"XODEX2.sol\":2446:2453  owner() */\n      tag_419\n        /* \"XODEX2.sol\":2446:2451  owner */\n      tag_190\n        /* \"XODEX2.sol\":2446:2453  owner() */\n      jump\t// in\n    tag_419:\n        /* \"XODEX2.sol\":2446:2469  owner() == _msgSender() */\n      0xffffffffffffffffffffffffffffffffffffffff\n      and\n      eq\n        /* \"XODEX2.sol\":2438:2506  require(owner() == _msgSender(), \"Ownable: caller is not the owner\") */\n      tag_420\n      jumpi\n      mload(0x40)\n      0x08c379a000000000000000000000000000000000000000000000000000000000\n      dup2\n      mstore\n      0x04\n      add\n      tag_421\n      swap1\n      tag_275\n      jump\t// in\n    tag_421:\n      mload(0x40)\n      dup1\n      swap2\n      sub\n      swap1\n      revert\n    tag_420:\n        /* \"XODEX2.sol\":19887:19909  number_of_transactions */\n      dup1\n        /* \"XODEX2.sol\":19873:19884  swapTrigger */\n      0x05\n      0x16\n        /* \"XODEX2.sol\":19873:19909  swapTrigger = number_of_transactions */\n      0x0100\n      exp\n      dup2\n      sload\n      dup2\n      0xff\n      mul\n      not\n      and\n      swap1\n      dup4\n      0xff\n      and\n      mul\n      or\n      swap1\n      sstore\n      pop\n        /* \"XODEX2.sol\":19757:19916  function set_Number_Of_Transactions_Before_Liquify_Trigger(uint8 number_of_transactions) public onlyOwner {... */\n      pop\n      jump\t// out\n        /* \"XODEX2.sol\":12614:12667  uint256 public _maxTxAmount = _tTotal.mul(1).div(100) */\n    tag_182:\n      sload(0x09)\n      dup2\n      jump\t// out\n        /* \"XODEX2.sol\":13112:13148  bool public swapAndLiqEnabled = true */\n    tag_186:\n      0x12\n      0x15\n      swap1\n      sload\n      swap1\n      0x0100\n      exp\n      swap1\n      div\n      0xff\n      and\n      dup2\n      jump\t// out\n        /* \"XODEX2.sol\":2268:2353  function owner() public view virtual returns (address) {... */\n    tag_190:\n        /* \"XODEX2.sol\":2314:2321  address */\n      0x00\n        /* \"XODEX2.sol\":2340:2346  _owner */\n      dup1\n      0x00\n      swap1\n      sload\n      swap1\n      0x0100\n      exp\n      swap1\n      div\n      0xffffffffffffffffffffffffffffffffffffffff\n      and\n        /* \"XODEX2.sol\":2333:2346  return _owner */\n      swap1\n      pop\n        /* \"XODEX2.sol\":2268:2353  function owner() public view virtual returns (address) {... */\n      swap1\n      jump\t// out\n        /* \"XODEX2.sol\":19477:19562  function symbol() public view returns (string memory) {... */\n    tag_194:\n        /* \"XODEX2.sol\":19516:19529  string memory */\n      0x60\n        /* \"XODEX2.sol\":19548:19555  _symbol */\n      mload(0x40)\n      dup1\n      0x40\n      add\n      0x40\n      mstore\n      dup1\n      0x05\n      dup2\n      mstore\n      0x20\n      add\n      0x584f444558000000000000000000000000000000000000000000000000000000\n      dup2\n      mstore\n      pop\n        /* \"XODEX2.sol\":19541:19555  return _symbol */\n      swap1\n      pop\n        /* \"XODEX2.sol\":19477:19562  function symbol() public view returns (string memory) {... */\n      swap1\n      jump\t// out\n        /* \"XODEX2.sol\":20188:20333  function set_Max_Wal_Percent(uint256 maxWallPercent_x100) external onlyOwner {... */\n    tag_199:\n        /* \"XODEX2.sol\":2457:2469  _msgSender() */\n      tag_426\n        /* \"XODEX2.sol\":2457:2467  _msgSender */\n      tag_268\n        /* \"XODEX2.sol\":2457:2469  _msgSender() */\n      jump\t// in\n    tag_426:\n        /* \"XODEX2.sol\":2446:2469  owner() == _msgSender() */\n      0xffffffffffffffffffffffffffffffffffffffff\n      and\n        /* \"XODEX2.sol\":2446:2453  owner() */\n      tag_427\n        /* \"XODEX2.sol\":2446:2451  owner */\n      tag_190\n        /* \"XODEX2.sol\":2446:2453  owner() */\n      jump\t// in\n    tag_427:\n        /* \"XODEX2.sol\":2446:2469  owner() == _msgSender() */\n      0xffffffffffffffffffffffffffffffffffffffff\n      and\n      eq\n        /* \"XODEX2.sol\":2438:2506  require(owner() == _msgSender(), \"Ownable: caller is not the owner\") */\n      tag_428\n      jumpi\n      mload(0x40)\n      0x08c379a000000000000000000000000000000000000000000000000000000000\n      dup2\n      mstore\n      0x04\n      add\n      tag_429\n      swap1\n      tag_275\n      jump\t// in\n    tag_429:\n      mload(0x40)\n      dup1\n      swap2\n      sub\n      swap1\n      revert\n    tag_428:\n        /* \"XODEX2.sol\":20321:20326  10000 */\n      0x2710\n        /* \"XODEX2.sol\":20298:20317  maxWallPercent_x100 */\n      dup2\n        /* \"XODEX2.sol\":12121:12141  10000000000 * 10**18 */\n      0x204fce5e3e25026110000000\n        /* \"XODEX2.sol\":20288:20317  _tTotal * maxWallPercent_x100 */\n      tag_431\n      swap2\n      swap1\n      tag_299\n      jump\t// in\n    tag_431:\n        /* \"XODEX2.sol\":20287:20326  (_tTotal * maxWallPercent_x100) / 10000 */\n      tag_432\n      swap2\n      swap1\n      tag_301\n      jump\t// in\n    tag_432:\n        /* \"XODEX2.sol\":20275:20284  _maxToken */\n      0x07\n        /* \"XODEX2.sol\":20275:20326  _maxToken = (_tTotal * maxWallPercent_x100) / 10000 */\n      dup2\n      swap1\n      sstore\n      pop\n        /* \"XODEX2.sol\":20188:20333  function set_Max_Wal_Percent(uint256 maxWallPercent_x100) external onlyOwner {... */\n      pop\n      jump\t// out\n        /* \"XODEX2.sol\":14798:14905  function blacklist_Toggle(bool true_or_false) public onlyOwner {... */\n    tag_204:\n        /* \"XODEX2.sol\":2457:2469  _msgSender() */\n      tag_434\n        /* \"XODEX2.sol\":2457:2467  _msgSender */\n      tag_268\n        /* \"XODEX2.sol\":2457:2469  _msgSender() */\n      jump\t// in\n    tag_434:\n        /* \"XODEX2.sol\":2446:2469  owner() == _msgSender() */\n      0xffffffffffffffffffffffffffffffffffffffff\n      and\n        /* \"XODEX2.sol\":2446:2453  owner() */\n      tag_435\n        /* \"XODEX2.sol\":2446:2451  owner */\n      tag_190\n        /* \"XODEX2.sol\":2446:2453  owner() */\n      jump\t// in\n    tag_435:\n        /* \"XODEX2.sol\":2446:2469  owner() == _msgSender() */\n      0xffffffffffffffffffffffffffffffffffffffff\n      and\n      eq\n        /* \"XODEX2.sol\":2438:2506  require(owner() == _msgSender(), \"Ownable: caller is not the owner\") */\n      tag_436\n      jumpi\n      mload(0x40)\n      0x08c379a000000000000000000000000000000000000000000000000000000000\n      dup2\n      mstore\n      0x04\n      add\n      tag_437\n      swap1\n      tag_275\n      jump\t// in\n    tag_437:\n      mload(0x40)\n      dup1\n      swap2\n      sub\n      swap1\n      revert\n    tag_436:\n        /* \"XODEX2.sol\":14885:14898  true_or_false */\n      dup1\n        /* \"XODEX2.sol\":14871:14882  isBlackList */\n      0x05\n      0x00\n        /* \"XODEX2.sol\":14871:14898  isBlackList = true_or_false */\n      0x0100\n      exp\n      dup2\n      sload\n      dup2\n      0xff\n      mul\n      not\n      and\n      swap1\n      dup4\n      iszero\n      iszero\n      mul\n      or\n      swap1\n      sstore\n      pop\n        /* \"XODEX2.sol\":14798:14905  function blacklist_Toggle(bool true_or_false) public onlyOwner {... */\n      pop\n      jump\t// out\n        /* \"XODEX2.sol\":15036:15348  function decreaseAllowance(address spender, uint256 subtractedValue) public virtual returns (bool) {... */\n    tag_208:\n        /* \"XODEX2.sol\":15129:15133  bool */\n      0x00\n        /* \"XODEX2.sol\":15145:15320  _approve(... */\n      tag_440\n        /* \"XODEX2.sol\":15167:15179  _msgSender() */\n      tag_441\n        /* \"XODEX2.sol\":15167:15177  _msgSender */\n      tag_268\n        /* \"XODEX2.sol\":15167:15179  _msgSender() */\n      jump\t// in\n    tag_441:\n        /* \"XODEX2.sol\":15193:15200  spender */\n      dup5\n        /* \"XODEX2.sol\":15214:15310  _allowances[_msgSender()][spender].sub(subtractedValue, \"ERC20: decreased allowance below zero\") */\n      tag_442\n        /* \"XODEX2.sol\":15253:15268  subtractedValue */\n      dup6\n        /* \"XODEX2.sol\":15214:15310  _allowances[_msgSender()][spender].sub(subtractedValue, \"ERC20: decreased allowance below zero\") */\n      mload(0x40)\n      dup1\n      0x60\n      add\n      0x40\n      mstore\n      dup1\n      0x25\n      dup2\n      mstore\n      0x20\n      add\n      data_f8b476f7d28209d77d4a4ac1fe36b9f8259aa1bb6bddfa6e89de7e51615cf8a8\n      0x25\n      swap2\n      codecopy\n        /* \"XODEX2.sol\":15214:15225  _allowances */\n      0x02\n        /* \"XODEX2.sol\":15214:15239  _allowances[_msgSender()] */\n      0x00\n        /* \"XODEX2.sol\":15226:15238  _msgSender() */\n      tag_443\n        /* \"XODEX2.sol\":15226:15236  _msgSender */\n      tag_268\n        /* \"XODEX2.sol\":15226:15238  _msgSender() */\n      jump\t// in\n    tag_443:\n        /* \"XODEX2.sol\":15214:15239  _allowances[_msgSender()] */\n      0xffffffffffffffffffffffffffffffffffffffff\n      and\n      0xffffffffffffffffffffffffffffffffffffffff\n      and\n      dup2\n      mstore\n      0x20\n      add\n      swap1\n      dup2\n      mstore\n      0x20\n      add\n      0x00\n      keccak256\n        /* \"XODEX2.sol\":15214:15248  _allowances[_msgSender()][spender] */\n      0x00\n        /* \"XODEX2.sol\":15240:15247  spender */\n      dup11\n        /* \"XODEX2.sol\":15214:15248  _allowances[_msgSender()][spender] */\n      0xffffffffffffffffffffffffffffffffffffffff\n      and\n      0xffffffffffffffffffffffffffffffffffffffff\n      and\n      dup2\n      mstore\n      0x20\n      add\n      swap1\n      dup2\n      mstore\n      0x20\n      add\n      0x00\n      keccak256\n      sload\n        /* \"XODEX2.sol\":15214:15252  _allowances[_msgSender()][spender].sub */\n      tag_332\n      swap1\n        /* \"XODEX2.sol\":15214:15310  _allowances[_msgSender()][spender].sub(subtractedValue, \"ERC20: decreased allowance below zero\") */\n      swap3\n      swap2\n      swap1\n      0xffffffff\n      and\n      jump\t// in\n    tag_442:\n        /* \"XODEX2.sol\":15145:15153  _approve */\n      tag_269\n        /* \"XODEX2.sol\":15145:15320  _approve(... */\n      jump\t// in\n    tag_440:\n        /* \"XODEX2.sol\":15337:15341  true */\n      0x01\n        /* \"XODEX2.sol\":15330:15341  return true */\n      swap1\n      pop\n        /* \"XODEX2.sol\":15036:15348  function decreaseAllowance(address spender, uint256 subtractedValue) public virtual returns (bool) {... */\n      swap3\n      swap2\n      pop\n      pop\n      jump\t// out\n        /* \"XODEX2.sol\":20438:20602  function transfer(address recipient, uint256 amount) public override returns (bool) {... */\n    tag_213:\n        /* \"XODEX2.sol\":20516:20520  bool */\n      0x00\n        /* \"XODEX2.sol\":20532:20574  _transfer(_msgSender(), recipient, amount) */\n      tag_445\n        /* \"XODEX2.sol\":20542:20554  _msgSender() */\n      tag_446\n        /* \"XODEX2.sol\":20542:20552  _msgSender */\n      tag_268\n        /* \"XODEX2.sol\":20542:20554  _msgSender() */\n      jump\t// in\n    tag_446:\n        /* \"XODEX2.sol\":20556:20565  recipient */\n      dup5\n        /* \"XODEX2.sol\":20567:20573  amount */\n      dup5\n        /* \"XODEX2.sol\":20532:20541  _transfer */\n      tag_327\n        /* \"XODEX2.sol\":20532:20574  _transfer(_msgSender(), recipient, amount) */\n      jump\t// in\n    tag_445:\n        /* \"XODEX2.sol\":20591:20595  true */\n      0x01\n        /* \"XODEX2.sol\":20584:20595  return true */\n      swap1\n      pop\n        /* \"XODEX2.sol\":20438:20602  function transfer(address recipient, uint256 amount) public override returns (bool) {... */\n      swap3\n      swap2\n      pop\n      pop\n      jump\t// out\n        /* \"XODEX2.sol\":19922:20033  function set_TransferFees(bool true_or_false) external onlyOwner {... */\n    tag_218:\n        /* \"XODEX2.sol\":2457:2469  _msgSender() */\n      tag_448\n        /* \"XODEX2.sol\":2457:2467  _msgSender */\n      tag_268\n        /* \"XODEX2.sol\":2457:2469  _msgSender() */\n      jump\t// in\n    tag_448:\n        /* \"XODEX2.sol\":2446:2469  owner() == _msgSender() */\n      0xffffffffffffffffffffffffffffffffffffffff\n      and\n        /* \"XODEX2.sol\":2446:2453  owner() */\n      tag_449\n        /* \"XODEX2.sol\":2446:2451  owner */\n      tag_190\n        /* \"XODEX2.sol\":2446:2453  owner() */\n      jump\t// in\n    tag_449:\n        /* \"XODEX2.sol\":2446:2469  owner() == _msgSender() */\n      0xffffffffffffffffffffffffffffffffffffffff\n      and\n      eq\n        /* \"XODEX2.sol\":2438:2506  require(owner() == _msgSender(), \"Ownable: caller is not the owner\") */\n      tag_450\n      jumpi\n      mload(0x40)\n      0x08c379a000000000000000000000000000000000000000000000000000000000\n      dup2\n      mstore\n      0x04\n      add\n      tag_451\n      swap1\n      tag_275\n      jump\t// in\n    tag_451:\n      mload(0x40)\n      dup1\n      swap2\n      sub\n      swap1\n      revert\n    tag_450:\n        /* \"XODEX2.sol\":20013:20026  true_or_false */\n      dup1\n        /* \"XODEX2.sol\":19997:20010  noTransferFee */\n      0x11\n      0x00\n        /* \"XODEX2.sol\":19997:20026  noTransferFee = true_or_false */\n      0x0100\n      exp\n      dup2\n      sload\n      dup2\n      0xff\n      mul\n      not\n      and\n      swap1\n      dup4\n      iszero\n      iszero\n      mul\n      or\n      swap1\n      sstore\n      pop\n        /* \"XODEX2.sol\":19922:20033  function set_TransferFees(bool true_or_false) external onlyOwner {... */\n      pop\n      jump\t// out\n        /* \"XODEX2.sol\":13084:13106  bool public isSwapping */\n    tag_221:\n      0x12\n      0x14\n      swap1\n      sload\n      swap1\n      0x0100\n      exp\n      swap1\n      div\n      0xff\n      and\n      dup2\n      jump\t// out\n        /* \"XODEX2.sol\":25046:25224  function _set_Transfer_Fee(uint256 Transfer_Fee) external onlyOwner {... */\n    tag_226:\n        /* \"XODEX2.sol\":2457:2469  _msgSender() */\n      tag_454\n        /* \"XODEX2.sol\":2457:2467  _msgSender */\n      tag_268\n        /* \"XODEX2.sol\":2457:2469  _msgSender() */\n      jump\t// in\n    tag_454:\n        /* \"XODEX2.sol\":2446:2469  owner() == _msgSender() */\n      0xffffffffffffffffffffffffffffffffffffffff\n      and\n        /* \"XODEX2.sol\":2446:2453  owner() */\n      tag_455\n        /* \"XODEX2.sol\":2446:2451  owner */\n      tag_190\n        /* \"XODEX2.sol\":2446:2453  owner() */\n      jump\t// in\n    tag_455:\n        /* \"XODEX2.sol\":2446:2469  owner() == _msgSender() */\n      0xffffffffffffffffffffffffffffffffffffffff\n      and\n      eq\n        /* \"XODEX2.sol\":2438:2506  require(owner() == _msgSender(), \"Ownable: caller is not the owner\") */\n      tag_456\n      jumpi\n      mload(0x40)\n      0x08c379a000000000000000000000000000000000000000000000000000000000\n      dup2\n      mstore\n      0x04\n      add\n      tag_457\n      swap1\n      tag_275\n      jump\t// in\n    tag_457:\n      mload(0x40)\n      dup1\n      swap2\n      sub\n      swap1\n      revert\n    tag_456:\n        /* \"XODEX2.sol\":25148:25162  maxTransferFee */\n      sload(0x06)\n        /* \"XODEX2.sol\":25132:25144  Transfer_Fee */\n      dup2\n        /* \"XODEX2.sol\":25132:25162  Transfer_Fee <= maxTransferFee */\n      gt\n      iszero\n        /* \"XODEX2.sol\":25124:25183  require(Transfer_Fee <= maxTransferFee, \"Fee is too high!\") */\n      tag_459\n      jumpi\n      mload(0x40)\n      0x08c379a000000000000000000000000000000000000000000000000000000000\n      dup2\n      mstore\n      0x04\n      add\n      tag_460\n      swap1\n      tag_409\n      jump\t// in\n    tag_460:\n      mload(0x40)\n      dup1\n      swap2\n      sub\n      swap1\n      revert\n    tag_459:\n        /* \"XODEX2.sol\":25205:25217  Transfer_Fee */\n      dup1\n        /* \"XODEX2.sol\":25193:25202  _TotalFee */\n      0x0b\n        /* \"XODEX2.sol\":25193:25217  _TotalFee = Transfer_Fee */\n      dup2\n      swap1\n      sstore\n      pop\n        /* \"XODEX2.sol\":25046:25224  function _set_Transfer_Fee(uint256 Transfer_Fee) external onlyOwner {... */\n      pop\n      jump\t// out\n        /* \"XODEX2.sol\":12964:12996  bool public noTransferFee = true */\n    tag_229:\n      0x11\n      0x00\n      swap1\n      sload\n      swap1\n      0x0100\n      exp\n      swap1\n      div\n      0xff\n      and\n      dup2\n      jump\t// out\n        /* \"XODEX2.sol\":19306:19471  function set_New_Pair_Address(address newPair) public onlyOwner {... */\n    tag_234:\n        /* \"XODEX2.sol\":2457:2469  _msgSender() */\n      tag_462\n        /* \"XODEX2.sol\":2457:2467  _msgSender */\n      tag_268\n        /* \"XODEX2.sol\":2457:2469  _msgSender() */\n      jump\t// in\n    tag_462:\n        /* \"XODEX2.sol\":2446:2469  owner() == _msgSender() */\n      0xffffffffffffffffffffffffffffffffffffffff\n      and\n        /* \"XODEX2.sol\":2446:2453  owner() */\n      tag_463\n        /* \"XODEX2.sol\":2446:2451  owner */\n      tag_190\n        /* \"XODEX2.sol\":2446:2453  owner() */\n      jump\t// in\n    tag_463:\n        /* \"XODEX2.sol\":2446:2469  owner() == _msgSender() */\n      0xffffffffffffffffffffffffffffffffffffffff\n      and\n      eq\n        /* \"XODEX2.sol\":2438:2506  require(owner() == _msgSender(), \"Ownable: caller is not the owner\") */\n      tag_464\n      jumpi\n      mload(0x40)\n      0x08c379a000000000000000000000000000000000000000000000000000000000\n      dup2\n      mstore\n      0x04\n      add\n      tag_465\n      swap1\n      tag_275\n      jump\t// in\n    tag_465:\n      mload(0x40)\n      dup1\n      swap2\n      sub\n      swap1\n      revert\n    tag_464:\n        /* \"XODEX2.sol\":19407:19408  0 */\n      0x00\n        /* \"XODEX2.sol\":19388:19409  newPair != address(0) */\n      0xffffffffffffffffffffffffffffffffffffffff\n      and\n        /* \"XODEX2.sol\":19388:19395  newPair */\n      dup2\n        /* \"XODEX2.sol\":19388:19409  newPair != address(0) */\n      0xffffffffffffffffffffffffffffffffffffffff\n      and\n      sub\n        /* \"XODEX2.sol\":19380:19431  require(newPair != address(0), \"ERR: zero address\") */\n      tag_467\n      jumpi\n      mload(0x40)\n      0x08c379a000000000000000000000000000000000000000000000000000000000\n      dup2\n      mstore\n      0x04\n      add\n      tag_468\n      swap1\n      tag_279\n      jump\t// in\n    tag_468:\n      mload(0x40)\n      dup1\n      swap2\n      sub\n      swap1\n      revert\n    tag_467:\n        /* \"XODEX2.sol\":19457:19464  newPair */\n      dup1\n        /* \"XODEX2.sol\":19441:19454  uniswapV2Pair */\n      0x12\n      0x00\n        /* \"XODEX2.sol\":19441:19464  uniswapV2Pair = newPair */\n      0x0100\n      exp\n      dup2\n      sload\n      dup2\n      0xffffffffffffffffffffffffffffffffffffffff\n      mul\n      not\n      and\n      swap1\n      dup4\n      0xffffffffffffffffffffffffffffffffffffffff\n      and\n      mul\n      or\n      swap1\n      sstore\n      pop\n        /* \"XODEX2.sol\":19306:19471  function set_New_Pair_Address(address newPair) public onlyOwner {... */\n      pop\n      jump\t// out\n        /* \"XODEX2.sol\":16319:16803  function process_Tokens(uint256 percent_Of_Tokens_To_Process) public onlyOwner {... */\n    tag_238:\n        /* \"XODEX2.sol\":2457:2469  _msgSender() */\n      tag_470\n        /* \"XODEX2.sol\":2457:2467  _msgSender */\n      tag_268\n        /* \"XODEX2.sol\":2457:2469  _msgSender() */\n      jump\t// in\n    tag_470:\n        /* \"XODEX2.sol\":2446:2469  owner() == _msgSender() */\n      0xffffffffffffffffffffffffffffffffffffffff\n      and\n        /* \"XODEX2.sol\":2446:2453  owner() */\n      tag_471\n        /* \"XODEX2.sol\":2446:2451  owner */\n      tag_190\n        /* \"XODEX2.sol\":2446:2453  owner() */\n      jump\t// in\n    tag_471:\n        /* \"XODEX2.sol\":2446:2469  owner() == _msgSender() */\n      0xffffffffffffffffffffffffffffffffffffffff\n      and\n      eq\n        /* \"XODEX2.sol\":2438:2506  require(owner() == _msgSender(), \"Ownable: caller is not the owner\") */\n      tag_472\n      jumpi\n      mload(0x40)\n      0x08c379a000000000000000000000000000000000000000000000000000000000\n      dup2\n      mstore\n      0x04\n      add\n      tag_473\n      swap1\n      tag_275\n      jump\t// in\n    tag_473:\n      mload(0x40)\n      dup1\n      swap2\n      sub\n      swap1\n      revert\n    tag_472:\n        /* \"XODEX2.sol\":16462:16472  isSwapping */\n      0x12\n      0x14\n      swap1\n      sload\n      swap1\n      0x0100\n      exp\n      swap1\n      div\n      0xff\n      and\n        /* \"XODEX2.sol\":16461:16472  !isSwapping */\n      iszero\n        /* \"XODEX2.sol\":16453:16509  require(!isSwapping, \"Currently processing, try later.\") */\n      tag_475\n      jumpi\n      mload(0x40)\n      0x08c379a000000000000000000000000000000000000000000000000000000000\n      dup2\n      mstore\n      0x04\n      add\n      tag_476\n      swap1\n      tag_477\n      jump\t// in\n    tag_476:\n      mload(0x40)\n      dup1\n      swap2\n      sub\n      swap1\n      revert\n    tag_475:\n        /* \"XODEX2.sol\":16554:16557  100 */\n      0x64\n        /* \"XODEX2.sol\":16523:16551  percent_Of_Tokens_To_Process */\n      dup2\n        /* \"XODEX2.sol\":16523:16557  percent_Of_Tokens_To_Process > 100 */\n      gt\n        /* \"XODEX2.sol\":16519:16618  if (percent_Of_Tokens_To_Process > 100) {... */\n      iszero\n      tag_478\n      jumpi\n        /* \"XODEX2.sol\":16604:16607  100 */\n      0x64\n        /* \"XODEX2.sol\":16573:16607  percent_Of_Tokens_To_Process = 100 */\n      swap1\n      pop\n        /* \"XODEX2.sol\":16519:16618  if (percent_Of_Tokens_To_Process > 100) {... */\n    tag_478:\n        /* \"XODEX2.sol\":16627:16651  uint256 tokensOnContract */\n      0x00\n        /* \"XODEX2.sol\":16654:16678  balanceOf(address(this)) */\n      tag_479\n        /* \"XODEX2.sol\":16672:16676  this */\n      address\n        /* \"XODEX2.sol\":16654:16663  balanceOf */\n      tag_165\n        /* \"XODEX2.sol\":16654:16678  balanceOf(address(this)) */\n      jump\t// in\n    tag_479:\n        /* \"XODEX2.sol\":16627:16678  uint256 tokensOnContract = balanceOf(address(this)) */\n      swap1\n      pop\n        /* \"XODEX2.sol\":16688:16706  uint256 sendTokens */\n      0x00\n        /* \"XODEX2.sol\":16761:16764  100 */\n      0x64\n        /* \"XODEX2.sol\":16729:16757  percent_Of_Tokens_To_Process */\n      dup4\n        /* \"XODEX2.sol\":16710:16726  tokensOnContract */\n      dup4\n        /* \"XODEX2.sol\":16710:16757  tokensOnContract * percent_Of_Tokens_To_Process */\n      tag_480\n      swap2\n      swap1\n      tag_299\n      jump\t// in\n    tag_480:\n        /* \"XODEX2.sol\":16709:16764  (tokensOnContract * percent_Of_Tokens_To_Process) / 100 */\n      tag_481\n      swap2\n      swap1\n      tag_301\n      jump\t// in\n    tag_481:\n        /* \"XODEX2.sol\":16688:16764  uint256 sendTokens = (tokensOnContract * percent_Of_Tokens_To_Process) / 100 */\n      swap1\n      pop\n        /* \"XODEX2.sol\":16774:16796  swapTokens(sendTokens) */\n      tag_482\n        /* \"XODEX2.sol\":16785:16795  sendTokens */\n      dup2\n        /* \"XODEX2.sol\":16774:16784  swapTokens */\n      tag_483\n        /* \"XODEX2.sol\":16774:16796  swapTokens(sendTokens) */\n      jump\t// in\n    tag_482:\n        /* \"XODEX2.sol\":16398:16803  {... */\n      pop\n      pop\n        /* \"XODEX2.sol\":16319:16803  function process_Tokens(uint256 percent_Of_Tokens_To_Process) public onlyOwner {... */\n      pop\n      jump\t// out\n        /* \"XODEX2.sol\":14016:14157  function allowance(address owner, address spender) public view override returns (uint256) {... */\n    tag_243:\n        /* \"XODEX2.sol\":14097:14104  uint256 */\n      0x00\n        /* \"XODEX2.sol\":14123:14134  _allowances */\n      0x02\n        /* \"XODEX2.sol\":14123:14141  _allowances[owner] */\n      0x00\n        /* \"XODEX2.sol\":14135:14140  owner */\n      dup5\n        /* \"XODEX2.sol\":14123:14141  _allowances[owner] */\n      0xffffffffffffffffffffffffffffffffffffffff\n      and\n      0xffffffffffffffffffffffffffffffffffffffff\n      and\n      dup2\n      mstore\n      0x20\n      add\n      swap1\n      dup2\n      mstore\n      0x20\n      add\n      0x00\n      keccak256\n        /* \"XODEX2.sol\":14123:14150  _allowances[owner][spender] */\n      0x00\n        /* \"XODEX2.sol\":14142:14149  spender */\n      dup4\n        /* \"XODEX2.sol\":14123:14150  _allowances[owner][spender] */\n      0xffffffffffffffffffffffffffffffffffffffff\n      and\n      0xffffffffffffffffffffffffffffffffffffffff\n      and\n      dup2\n      mstore\n      0x20\n      add\n      swap1\n      dup2\n      mstore\n      0x20\n      add\n      0x00\n      keccak256\n      sload\n        /* \"XODEX2.sol\":14116:14150  return _allowances[owner][spender] */\n      swap1\n      pop\n        /* \"XODEX2.sol\":14016:14157  function allowance(address owner, address spender) public view override returns (uint256) {... */\n      swap3\n      swap2\n      pop\n      pop\n      jump\t// out\n        /* \"XODEX2.sol\":16056:16226  function includeInFee(address account) public onlyOwner {... */\n    tag_248:\n        /* \"XODEX2.sol\":2457:2469  _msgSender() */\n      tag_486\n        /* \"XODEX2.sol\":2457:2467  _msgSender */\n      tag_268\n        /* \"XODEX2.sol\":2457:2469  _msgSender() */\n      jump\t// in\n    tag_486:\n        /* \"XODEX2.sol\":2446:2469  owner() == _msgSender() */\n      0xffffffffffffffffffffffffffffffffffffffff\n      and\n        /* \"XODEX2.sol\":2446:2453  owner() */\n      tag_487\n        /* \"XODEX2.sol\":2446:2451  owner */\n      tag_190\n        /* \"XODEX2.sol\":2446:2453  owner() */\n      jump\t// in\n    tag_487:\n        /* \"XODEX2.sol\":2446:2469  owner() == _msgSender() */\n      0xffffffffffffffffffffffffffffffffffffffff\n      and\n      eq\n        /* \"XODEX2.sol\":2438:2506  require(owner() == _msgSender(), \"Ownable: caller is not the owner\") */\n      tag_488\n      jumpi\n      mload(0x40)\n      0x08c379a000000000000000000000000000000000000000000000000000000000\n      dup2\n      mstore\n      0x04\n      add\n      tag_489\n      swap1\n      tag_275\n      jump\t// in\n    tag_489:\n      mload(0x40)\n      dup1\n      swap2\n      sub\n      swap1\n      revert\n    tag_488:\n        /* \"XODEX2.sol\":16149:16150  0 */\n      0x00\n        /* \"XODEX2.sol\":16130:16151  account != address(0) */\n      0xffffffffffffffffffffffffffffffffffffffff\n      and\n        /* \"XODEX2.sol\":16130:16137  account */\n      dup2\n        /* \"XODEX2.sol\":16130:16151  account != address(0) */\n      0xffffffffffffffffffffffffffffffffffffffff\n      and\n      sub\n        /* \"XODEX2.sol\":16122:16173  require(account != address(0), \"ERR: zero address\") */\n      tag_491\n      jumpi\n      mload(0x40)\n      0x08c379a000000000000000000000000000000000000000000000000000000000\n      dup2\n      mstore\n      0x04\n      add\n      tag_492\n      swap1\n      tag_279\n      jump\t// in\n    tag_492:\n      mload(0x40)\n      dup1\n      swap2\n      sub\n      swap1\n      revert\n    tag_491:\n        /* \"XODEX2.sol\":16214:16219  false */\n      0x00\n        /* \"XODEX2.sol\":16184:16202  _isExcludedFromFee */\n      0x03\n        /* \"XODEX2.sol\":16184:16211  _isExcludedFromFee[account] */\n      0x00\n        /* \"XODEX2.sol\":16203:16210  account */\n      dup4\n        /* \"XODEX2.sol\":16184:16211  _isExcludedFromFee[account] */\n      0xffffffffffffffffffffffffffffffffffffffff\n      and\n      0xffffffffffffffffffffffffffffffffffffffff\n      and\n      dup2\n      mstore\n      0x20\n      add\n      swap1\n      dup2\n      mstore\n      0x20\n      add\n      0x00\n      keccak256\n      0x00\n        /* \"XODEX2.sol\":16184:16219  _isExcludedFromFee[account] = false */\n      0x0100\n      exp\n      dup2\n      sload\n      dup2\n      0xff\n      mul\n      not\n      and\n      swap1\n      dup4\n      iszero\n      iszero\n      mul\n      or\n      swap1\n      sstore\n      pop\n        /* \"XODEX2.sol\":16056:16226  function includeInFee(address account) public onlyOwner {... */\n      pop\n      jump\t// out\n        /* \"XODEX2.sol\":2770:3010  function transferOwnership(address newOwner) public virtual onlyOwner {... */\n    tag_252:\n        /* \"XODEX2.sol\":2457:2469  _msgSender() */\n      tag_494\n        /* \"XODEX2.sol\":2457:2467  _msgSender */\n      tag_268\n        /* \"XODEX2.sol\":2457:2469  _msgSender() */\n      jump\t// in\n    tag_494:\n        /* \"XODEX2.sol\":2446:2469  owner() == _msgSender() */\n      0xffffffffffffffffffffffffffffffffffffffff\n      and\n        /* \"XODEX2.sol\":2446:2453  owner() */\n      tag_495\n        /* \"XODEX2.sol\":2446:2451  owner */\n      tag_190\n        /* \"XODEX2.sol\":2446:2453  owner() */\n      jump\t// in\n    tag_495:\n        /* \"XODEX2.sol\":2446:2469  owner() == _msgSender() */\n      0xffffffffffffffffffffffffffffffffffffffff\n      and\n      eq\n        /* \"XODEX2.sol\":2438:2506  require(owner() == _msgSender(), \"Ownable: caller is not the owner\") */\n      tag_496\n      jumpi\n      mload(0x40)\n      0x08c379a000000000000000000000000000000000000000000000000000000000\n      dup2\n      mstore\n      0x04\n      add\n      tag_497\n      swap1\n      tag_275\n      jump\t// in\n    tag_497:\n      mload(0x40)\n      dup1\n      swap2\n      sub\n      swap1\n      revert\n    tag_496:\n        /* \"XODEX2.sol\":2878:2879  0 */\n      0x00\n        /* \"XODEX2.sol\":2858:2880  newOwner != address(0) */\n      0xffffffffffffffffffffffffffffffffffffffff\n      and\n        /* \"XODEX2.sol\":2858:2866  newOwner */\n      dup2\n        /* \"XODEX2.sol\":2858:2880  newOwner != address(0) */\n      0xffffffffffffffffffffffffffffffffffffffff\n      and\n      sub\n        /* \"XODEX2.sol\":2850:2923  require(newOwner != address(0), \"Ownable: new owner is the zero address\") */\n      tag_499\n      jumpi\n      mload(0x40)\n      0x08c379a000000000000000000000000000000000000000000000000000000000\n      dup2\n      mstore\n      0x04\n      add\n      tag_500\n      swap1\n      tag_501\n      jump\t// in\n    tag_500:\n      mload(0x40)\n      dup1\n      swap2\n      sub\n      swap1\n      revert\n    tag_499:\n        /* \"XODEX2.sol\":2967:2975  newOwner */\n      dup1\n        /* \"XODEX2.sol\":2938:2976  OwnershipTransferred(_owner, newOwner) */\n      0xffffffffffffffffffffffffffffffffffffffff\n      and\n        /* \"XODEX2.sol\":2959:2965  _owner */\n      0x00\n      dup1\n      sload\n      swap1\n      0x0100\n      exp\n      swap1\n      div\n      0xffffffffffffffffffffffffffffffffffffffff\n      and\n        /* \"XODEX2.sol\":2938:2976  OwnershipTransferred(_owner, newOwner) */\n      0xffffffffffffffffffffffffffffffffffffffff\n      and\n      0x8be0079c531659141344cd1fd0a4f28419497f9722a3daafe3b4186f6b6457e0\n      mload(0x40)\n      mload(0x40)\n      dup1\n      swap2\n      sub\n      swap1\n      log3\n        /* \"XODEX2.sol\":2995:3003  newOwner */\n      dup1\n        /* \"XODEX2.sol\":2986:2992  _owner */\n      0x00\n      dup1\n        /* \"XODEX2.sol\":2986:3003  _owner = newOwner */\n      0x0100\n      exp\n      dup2\n      sload\n      dup2\n      0xffffffffffffffffffffffffffffffffffffffff\n      mul\n      not\n      and\n      swap1\n      dup4\n      0xffffffffffffffffffffffffffffffffffffffff\n      and\n      mul\n      or\n      swap1\n      sstore\n      pop\n        /* \"XODEX2.sol\":2770:3010  function transferOwnership(address newOwner) public virtual onlyOwner {... */\n      pop\n      jump\t// out\n        /* \"XODEX2.sol\":15354:15566  function Update__Dev_Wallet(address payable wallet) public onlyOwner {... */\n    tag_257:\n        /* \"XODEX2.sol\":2457:2469  _msgSender() */\n      tag_503\n        /* \"XODEX2.sol\":2457:2467  _msgSender */\n      tag_268\n        /* \"XODEX2.sol\":2457:2469  _msgSender() */\n      jump\t// in\n    tag_503:\n        /* \"XODEX2.sol\":2446:2469  owner() == _msgSender() */\n      0xffffffffffffffffffffffffffffffffffffffff\n      and\n        /* \"XODEX2.sol\":2446:2453  owner() */\n      tag_504\n        /* \"XODEX2.sol\":2446:2451  owner */\n      tag_190\n        /* \"XODEX2.sol\":2446:2453  owner() */\n      jump\t// in\n    tag_504:\n        /* \"XODEX2.sol\":2446:2469  owner() == _msgSender() */\n      0xffffffffffffffffffffffffffffffffffffffff\n      and\n      eq\n        /* \"XODEX2.sol\":2438:2506  require(owner() == _msgSender(), \"Ownable: caller is not the owner\") */\n      tag_505\n      jumpi\n      mload(0x40)\n      0x08c379a000000000000000000000000000000000000000000000000000000000\n      dup2\n      mstore\n      0x04\n      add\n      tag_506\n      swap1\n      tag_275\n      jump\t// in\n    tag_506:\n      mload(0x40)\n      dup1\n      swap2\n      sub\n      swap1\n      revert\n    tag_505:\n        /* \"XODEX2.sol\":15459:15460  0 */\n      0x00\n        /* \"XODEX2.sol\":15441:15461  wallet != address(0) */\n      0xffffffffffffffffffffffffffffffffffffffff\n      and\n        /* \"XODEX2.sol\":15441:15447  wallet */\n      dup2\n        /* \"XODEX2.sol\":15441:15461  wallet != address(0) */\n      0xffffffffffffffffffffffffffffffffffffffff\n      and\n      sub\n        /* \"XODEX2.sol\":15433:15483  require(wallet != address(0), \"ERR: zero address\") */\n      tag_508\n      jumpi\n      mload(0x40)\n      0x08c379a000000000000000000000000000000000000000000000000000000000\n      dup2\n      mstore\n      0x04\n      add\n      tag_509\n      swap1\n      tag_279\n      jump\t// in\n    tag_509:\n      mload(0x40)\n      dup1\n      swap2\n      sub\n      swap1\n      revert\n    tag_508:\n        /* \"XODEX2.sol\":15506:15512  wallet */\n      dup1\n        /* \"XODEX2.sol\":15493:15503  Dev_Wallet */\n      0x05\n      0x01\n        /* \"XODEX2.sol\":15493:15512  Dev_Wallet = wallet */\n      0x0100\n      exp\n      dup2\n      sload\n      dup2\n      0xffffffffffffffffffffffffffffffffffffffff\n      mul\n      not\n      and\n      swap1\n      dup4\n      0xffffffffffffffffffffffffffffffffffffffff\n      and\n      mul\n      or\n      swap1\n      sstore\n      pop\n        /* \"XODEX2.sol\":15555:15559  true */\n      0x01\n        /* \"XODEX2.sol\":15522:15540  _isExcludedFromFee */\n      0x03\n        /* \"XODEX2.sol\":15522:15552  _isExcludedFromFee[Dev_Wallet] */\n      0x00\n        /* \"XODEX2.sol\":15541:15551  Dev_Wallet */\n      0x05\n      0x01\n      swap1\n      sload\n      swap1\n      0x0100\n      exp\n      swap1\n      div\n      0xffffffffffffffffffffffffffffffffffffffff\n      and\n        /* \"XODEX2.sol\":15522:15552  _isExcludedFromFee[Dev_Wallet] */\n      0xffffffffffffffffffffffffffffffffffffffff\n      and\n      0xffffffffffffffffffffffffffffffffffffffff\n      and\n      dup2\n      mstore\n      0x20\n      add\n      swap1\n      dup2\n      mstore\n      0x20\n      add\n      0x00\n      keccak256\n      0x00\n        /* \"XODEX2.sol\":15522:15559  _isExcludedFromFee[Dev_Wallet] = true */\n      0x0100\n      exp\n      dup2\n      sload\n      dup2\n      0xff\n      mul\n      not\n      and\n      swap1\n      dup4\n      iszero\n      iszero\n      mul\n      or\n      swap1\n      sstore\n      pop\n        /* \"XODEX2.sol\":15354:15566  function Update__Dev_Wallet(address payable wallet) public onlyOwner {... */\n      pop\n      jump\t// out\n        /* \"XODEX2.sol\":19568:19751  function set_Swap_And_Liquify_Enabled(bool true_or_false) public onlyOwner {... */\n    tag_261:\n        /* \"XODEX2.sol\":2457:2469  _msgSender() */\n      tag_511\n        /* \"XODEX2.sol\":2457:2467  _msgSender */\n      tag_268\n        /* \"XODEX2.sol\":2457:2469  _msgSender() */\n      jump\t// in\n    tag_511:\n        /* \"XODEX2.sol\":2446:2469  owner() == _msgSender() */\n      0xffffffffffffffffffffffffffffffffffffffff\n      and\n        /* \"XODEX2.sol\":2446:2453  owner() */\n      tag_512\n        /* \"XODEX2.sol\":2446:2451  owner */\n      tag_190\n        /* \"XODEX2.sol\":2446:2453  owner() */\n      jump\t// in\n    tag_512:\n        /* \"XODEX2.sol\":2446:2469  owner() == _msgSender() */\n      0xffffffffffffffffffffffffffffffffffffffff\n      and\n      eq\n        /* \"XODEX2.sol\":2438:2506  require(owner() == _msgSender(), \"Ownable: caller is not the owner\") */\n      tag_513\n      jumpi\n      mload(0x40)\n      0x08c379a000000000000000000000000000000000000000000000000000000000\n      dup2\n      mstore\n      0x04\n      add\n      tag_514\n      swap1\n      tag_275\n      jump\t// in\n    tag_514:\n      mload(0x40)\n      dup1\n      swap2\n      sub\n      swap1\n      revert\n    tag_513:\n        /* \"XODEX2.sol\":19673:19686  true_or_false */\n      dup1\n        /* \"XODEX2.sol\":19653:19670  swapAndLiqEnabled */\n      0x12\n      0x15\n        /* \"XODEX2.sol\":19653:19686  swapAndLiqEnabled = true_or_false */\n      0x0100\n      exp\n      dup2\n      sload\n      dup2\n      0xff\n      mul\n      not\n      and\n      swap1\n      dup4\n      iszero\n      iszero\n      mul\n      or\n      swap1\n      sstore\n      pop\n        /* \"XODEX2.sol\":19701:19744  SwapAndLiquifyEnabledUpdated(true_or_false) */\n      0x53726dfcaf90650aa7eb35524f4d3220f07413c8d6cb404cc8c18bf5591bc159\n        /* \"XODEX2.sol\":19730:19743  true_or_false */\n      dup2\n        /* \"XODEX2.sol\":19701:19744  SwapAndLiquifyEnabledUpdated(true_or_false) */\n      mload(0x40)\n      tag_516\n      swap2\n      swap1\n      tag_68\n      jump\t// in\n    tag_516:\n      mload(0x40)\n      dup1\n      swap2\n      sub\n      swap1\n      log1\n        /* \"XODEX2.sol\":19568:19751  function set_Swap_And_Liquify_Enabled(bool true_or_false) public onlyOwner {... */\n      pop\n      jump\t// out\n        /* \"XODEX2.sol\":983:1079  function mul(uint256 a, uint256 b) internal pure returns (uint256) {... */\n    tag_262:\n        /* \"XODEX2.sol\":1041:1048  uint256 */\n      0x00\n        /* \"XODEX2.sol\":1071:1072  b */\n      dup2\n        /* \"XODEX2.sol\":1067:1068  a */\n      dup4\n        /* \"XODEX2.sol\":1067:1072  a * b */\n      tag_518\n      swap2\n      swap1\n      tag_299\n      jump\t// in\n    tag_518:\n        /* \"XODEX2.sol\":1060:1072  return a * b */\n      swap1\n      pop\n        /* \"XODEX2.sol\":983:1079  function mul(uint256 a, uint256 b) internal pure returns (uint256) {... */\n      swap3\n      swap2\n      pop\n      pop\n      jump\t// out\n        /* \"XODEX2.sol\":1085:1181  function div(uint256 a, uint256 b) internal pure returns (uint256) {... */\n    tag_263:\n        /* \"XODEX2.sol\":1143:1150  uint256 */\n      0x00\n        /* \"XODEX2.sol\":1173:1174  b */\n      dup2\n        /* \"XODEX2.sol\":1169:1170  a */\n      dup4\n        /* \"XODEX2.sol\":1169:1174  a / b */\n      tag_520\n      swap2\n      swap1\n      tag_301\n      jump\t// in\n    tag_520:\n        /* \"XODEX2.sol\":1162:1174  return a / b */\n      swap1\n      pop\n        /* \"XODEX2.sol\":1085:1181  function div(uint256 a, uint256 b) internal pure returns (uint256) {... */\n      swap3\n      swap2\n      pop\n      pop\n      jump\t// out\n        /* \"XODEX2.sol\":1690:1786  function _msgSender() internal view virtual returns (address) {... */\n    tag_268:\n        /* \"XODEX2.sol\":1743:1750  address */\n      0x00\n        /* \"XODEX2.sol\":1769:1779  msg.sender */\n      caller\n        /* \"XODEX2.sol\":1762:1779  return msg.sender */\n      swap1\n      pop\n        /* \"XODEX2.sol\":1690:1786  function _msgSender() internal view virtual returns (address) {... */\n      swap1\n      jump\t// out\n        /* \"XODEX2.sol\":21472:21760  function _approve(... */\n    tag_269:\n        /* \"XODEX2.sol\":21611:21612  0 */\n      0x00\n        /* \"XODEX2.sol\":21594:21613  owner != address(0) */\n      0xffffffffffffffffffffffffffffffffffffffff\n      and\n        /* \"XODEX2.sol\":21594:21599  owner */\n      dup4\n        /* \"XODEX2.sol\":21594:21613  owner != address(0) */\n      0xffffffffffffffffffffffffffffffffffffffff\n      and\n      eq\n      iszero\n        /* \"XODEX2.sol\":21594:21638  owner != address(0) && spender != address(0) */\n      dup1\n      iszero\n      tag_523\n      jumpi\n      pop\n        /* \"XODEX2.sol\":21636:21637  0 */\n      0x00\n        /* \"XODEX2.sol\":21617:21638  spender != address(0) */\n      0xffffffffffffffffffffffffffffffffffffffff\n      and\n        /* \"XODEX2.sol\":21617:21624  spender */\n      dup3\n        /* \"XODEX2.sol\":21617:21638  spender != address(0) */\n      0xffffffffffffffffffffffffffffffffffffffff\n      and\n      eq\n      iszero\n        /* \"XODEX2.sol\":21594:21638  owner != address(0) && spender != address(0) */\n    tag_523:\n        /* \"XODEX2.sol\":21586:21660  require(owner != address(0) && spender != address(0), \"ERR: zero address\") */\n      tag_524\n      jumpi\n      mload(0x40)\n      0x08c379a000000000000000000000000000000000000000000000000000000000\n      dup2\n      mstore\n      0x04\n      add\n      tag_525\n      swap1\n      tag_279\n      jump\t// in\n    tag_525:\n      mload(0x40)\n      dup1\n      swap2\n      sub\n      swap1\n      revert\n    tag_524:\n        /* \"XODEX2.sol\":21700:21706  amount */\n      dup1\n        /* \"XODEX2.sol\":21670:21681  _allowances */\n      0x02\n        /* \"XODEX2.sol\":21670:21688  _allowances[owner] */\n      0x00\n        /* \"XODEX2.sol\":21682:21687  owner */\n      dup6\n        /* \"XODEX2.sol\":21670:21688  _allowances[owner] */\n      0xffffffffffffffffffffffffffffffffffffffff\n      and\n      0xffffffffffffffffffffffffffffffffffffffff\n      and\n      dup2\n      mstore\n      0x20\n      add\n      swap1\n      dup2\n      mstore\n      0x20\n      add\n      0x00\n      keccak256\n        /* \"XODEX2.sol\":21670:21697  _allowances[owner][spender] */\n      0x00\n        /* \"XODEX2.sol\":21689:21696  spender */\n      dup5\n        /* \"XODEX2.sol\":21670:21697  _allowances[owner][spender] */\n      0xffffffffffffffffffffffffffffffffffffffff\n      and\n      0xffffffffffffffffffffffffffffffffffffffff\n      and\n      dup2\n      mstore\n      0x20\n      add\n      swap1\n      dup2\n      mstore\n      0x20\n      add\n      0x00\n      keccak256\n        /* \"XODEX2.sol\":21670:21706  _allowances[owner][spender] = amount */\n      dup2\n      swap1\n      sstore\n      pop\n        /* \"XODEX2.sol\":21737:21744  spender */\n      dup2\n        /* \"XODEX2.sol\":21721:21753  Approval(owner, spender, amount) */\n      0xffffffffffffffffffffffffffffffffffffffff\n      and\n        /* \"XODEX2.sol\":21730:21735  owner */\n      dup4\n        /* \"XODEX2.sol\":21721:21753  Approval(owner, spender, amount) */\n      0xffffffffffffffffffffffffffffffffffffffff\n      and\n      0x8c5be1e5ebec7d5bd14f71427d1e84f3dd0314c0f7b2291e5b200ac8c7c3b925\n        /* \"XODEX2.sol\":21746:21752  amount */\n      dup4\n        /* \"XODEX2.sol\":21721:21753  Approval(owner, spender, amount) */\n      mload(0x40)\n      tag_526\n      swap2\n      swap1\n      tag_88\n      jump\t// in\n    tag_526:\n      mload(0x40)\n      dup1\n      swap2\n      sub\n      swap1\n      log3\n        /* \"XODEX2.sol\":21472:21760  function _approve(... */\n      pop\n      pop\n      pop\n      jump\t// out\n        /* \"XODEX2.sol\":21766:23781  function _transfer(... */\n    tag_327:\n        /* \"XODEX2.sol\":21898:21905  owner() */\n      tag_528\n        /* \"XODEX2.sol\":21898:21903  owner */\n      tag_190\n        /* \"XODEX2.sol\":21898:21905  owner() */\n      jump\t// in\n    tag_528:\n        /* \"XODEX2.sol\":21892:21905  to != owner() */\n      0xffffffffffffffffffffffffffffffffffffffff\n      and\n        /* \"XODEX2.sol\":21892:21894  to */\n      dup3\n        /* \"XODEX2.sol\":21892:21905  to != owner() */\n      0xffffffffffffffffffffffffffffffffffffffff\n      and\n      eq\n      iszero\n        /* \"XODEX2.sol\":21892:21937  to != owner() &&... */\n      dup1\n      iszero\n      tag_529\n      jumpi\n      pop\n        /* \"XODEX2.sol\":21927:21937  Dev_Wallet */\n      0x05\n      0x01\n      swap1\n      sload\n      swap1\n      0x0100\n      exp\n      swap1\n      div\n      0xffffffffffffffffffffffffffffffffffffffff\n      and\n        /* \"XODEX2.sol\":21921:21937  to != Dev_Wallet */\n      0xffffffffffffffffffffffffffffffffffffffff\n      and\n        /* \"XODEX2.sol\":21921:21923  to */\n      dup3\n        /* \"XODEX2.sol\":21921:21937  to != Dev_Wallet */\n      0xffffffffffffffffffffffffffffffffffffffff\n      and\n      eq\n      iszero\n        /* \"XODEX2.sol\":21892:21937  to != owner() &&... */\n    tag_529:\n        /* \"XODEX2.sol\":21892:21972  to != owner() &&... */\n      dup1\n      iszero\n      tag_530\n      jumpi\n      pop\n        /* \"XODEX2.sol\":21967:21971  this */\n      address\n        /* \"XODEX2.sol\":21953:21972  to != address(this) */\n      0xffffffffffffffffffffffffffffffffffffffff\n      and\n        /* \"XODEX2.sol\":21953:21955  to */\n      dup3\n        /* \"XODEX2.sol\":21953:21972  to != address(this) */\n      0xffffffffffffffffffffffffffffffffffffffff\n      and\n      eq\n      iszero\n        /* \"XODEX2.sol\":21892:21972  to != owner() &&... */\n    tag_530:\n        /* \"XODEX2.sol\":21892:22007  to != owner() &&... */\n      dup1\n      iszero\n      tag_531\n      jumpi\n      pop\n        /* \"XODEX2.sol\":21994:22007  uniswapV2Pair */\n      0x12\n      0x00\n      swap1\n      sload\n      swap1\n      0x0100\n      exp\n      swap1\n      div\n      0xffffffffffffffffffffffffffffffffffffffff\n      and\n        /* \"XODEX2.sol\":21988:22007  to != uniswapV2Pair */\n      0xffffffffffffffffffffffffffffffffffffffff\n      and\n        /* \"XODEX2.sol\":21988:21990  to */\n      dup3\n        /* \"XODEX2.sol\":21988:22007  to != uniswapV2Pair */\n      0xffffffffffffffffffffffffffffffffffffffff\n      and\n      eq\n      iszero\n        /* \"XODEX2.sol\":21892:22007  to != owner() &&... */\n    tag_531:\n        /* \"XODEX2.sol\":21892:22040  to != owner() &&... */\n      dup1\n      iszero\n      tag_532\n      jumpi\n      pop\n        /* \"XODEX2.sol\":12319:12361  0x000000000000000000000000000000000000dEaD */\n      0xdead\n        /* \"XODEX2.sol\":22023:22040  to != Burn_Wallet */\n      0xffffffffffffffffffffffffffffffffffffffff\n      and\n        /* \"XODEX2.sol\":22023:22025  to */\n      dup3\n        /* \"XODEX2.sol\":22023:22040  to != Burn_Wallet */\n      0xffffffffffffffffffffffffffffffffffffffff\n      and\n      eq\n      iszero\n        /* \"XODEX2.sol\":21892:22040  to != owner() &&... */\n    tag_532:\n        /* \"XODEX2.sol\":21892:22071  to != owner() &&... */\n      dup1\n      iszero\n      tag_533\n      jumpi\n      pop\n        /* \"XODEX2.sol\":22064:22071  owner() */\n      tag_534\n        /* \"XODEX2.sol\":22064:22069  owner */\n      tag_190\n        /* \"XODEX2.sol\":22064:22071  owner() */\n      jump\t// in\n    tag_534:\n        /* \"XODEX2.sol\":22056:22071  from != owner() */\n      0xffffffffffffffffffffffffffffffffffffffff\n      and\n        /* \"XODEX2.sol\":22056:22060  from */\n      dup4\n        /* \"XODEX2.sol\":22056:22071  from != owner() */\n      0xffffffffffffffffffffffffffffffffffffffff\n      and\n      eq\n      iszero\n        /* \"XODEX2.sol\":21892:22071  to != owner() &&... */\n    tag_533:\n        /* \"XODEX2.sol\":21875:22329  if (... */\n      iszero\n      tag_535\n      jumpi\n        /* \"XODEX2.sol\":22096:22114  uint256 heldTokens */\n      0x00\n        /* \"XODEX2.sol\":22117:22130  balanceOf(to) */\n      tag_536\n        /* \"XODEX2.sol\":22127:22129  to */\n      dup4\n        /* \"XODEX2.sol\":22117:22126  balanceOf */\n      tag_165\n        /* \"XODEX2.sol\":22117:22130  balanceOf(to) */\n      jump\t// in\n    tag_536:\n        /* \"XODEX2.sol\":22096:22130  uint256 heldTokens = balanceOf(to) */\n      swap1\n      pop\n        /* \"XODEX2.sol\":22194:22203  _maxToken */\n      sload(0x07)\n        /* \"XODEX2.sol\":22183:22189  amount */\n      dup3\n        /* \"XODEX2.sol\":22170:22180  heldTokens */\n      dup3\n        /* \"XODEX2.sol\":22170:22189  heldTokens + amount */\n      tag_537\n      swap2\n      swap1\n      tag_406\n      jump\t// in\n    tag_537:\n        /* \"XODEX2.sol\":22169:22203  (heldTokens + amount) <= _maxToken */\n      gt\n      iszero\n        /* \"XODEX2.sol\":22144:22318  require(... */\n      tag_538\n      jumpi\n      mload(0x40)\n      0x08c379a000000000000000000000000000000000000000000000000000000000\n      dup2\n      mstore\n      0x04\n      add\n      tag_539\n      swap1\n      tag_540\n      jump\t// in\n    tag_539:\n      mload(0x40)\n      dup1\n      swap2\n      sub\n      swap1\n      revert\n    tag_538:\n        /* \"XODEX2.sol\":22082:22329  {... */\n      pop\n        /* \"XODEX2.sol\":21875:22329  if (... */\n    tag_535:\n        /* \"XODEX2.sol\":22443:22450  owner() */\n      tag_541\n        /* \"XODEX2.sol\":22443:22448  owner */\n      tag_190\n        /* \"XODEX2.sol\":22443:22450  owner() */\n      jump\t// in\n    tag_541:\n        /* \"XODEX2.sol\":22435:22450  from != owner() */\n      0xffffffffffffffffffffffffffffffffffffffff\n      and\n        /* \"XODEX2.sol\":22435:22439  from */\n      dup4\n        /* \"XODEX2.sol\":22435:22450  from != owner() */\n      0xffffffffffffffffffffffffffffffffffffffff\n      and\n      eq\n      iszero\n        /* \"XODEX2.sol\":22435:22467  from != owner() && to != owner() */\n      dup1\n      iszero\n      tag_542\n      jumpi\n      pop\n        /* \"XODEX2.sol\":22460:22467  owner() */\n      tag_543\n        /* \"XODEX2.sol\":22460:22465  owner */\n      tag_190\n        /* \"XODEX2.sol\":22460:22467  owner() */\n      jump\t// in\n    tag_543:\n        /* \"XODEX2.sol\":22454:22467  to != owner() */\n      0xffffffffffffffffffffffffffffffffffffffff\n      and\n        /* \"XODEX2.sol\":22454:22456  to */\n      dup3\n        /* \"XODEX2.sol\":22454:22467  to != owner() */\n      0xffffffffffffffffffffffffffffffffffffffff\n      and\n      eq\n      iszero\n        /* \"XODEX2.sol\":22435:22467  from != owner() && to != owner() */\n    tag_542:\n        /* \"XODEX2.sol\":22431:22574  if (from != owner() && to != owner())... */\n      iszero\n      tag_544\n      jumpi\n        /* \"XODEX2.sol\":22499:22511  _maxTxAmount */\n      sload(0x09)\n        /* \"XODEX2.sol\":22489:22495  amount */\n      dup2\n        /* \"XODEX2.sol\":22489:22511  amount <= _maxTxAmount */\n      gt\n      iszero\n        /* \"XODEX2.sol\":22481:22574  require(amount <= _maxTxAmount, \"You are trying to buy more than the max transaction limit.\") */\n      tag_545\n      jumpi\n      mload(0x40)\n      0x08c379a000000000000000000000000000000000000000000000000000000000\n      dup2\n      mstore\n      0x04\n      add\n      tag_546\n      swap1\n      tag_547\n      jump\t// in\n    tag_546:\n      mload(0x40)\n      dup1\n      swap2\n      sub\n      swap1\n      revert\n    tag_545:\n        /* \"XODEX2.sol\":22431:22574  if (from != owner() && to != owner())... */\n    tag_544:\n        /* \"XODEX2.sol\":22589:22600  isBlackList */\n      0x05\n      0x00\n      swap1\n      sload\n      swap1\n      0x0100\n      exp\n      swap1\n      div\n      0xff\n      and\n        /* \"XODEX2.sol\":22585:22734  if (isBlackList) {... */\n      iszero\n      tag_548\n      jumpi\n        /* \"XODEX2.sol\":22625:22639  _isBlacklisted */\n      0x04\n        /* \"XODEX2.sol\":22625:22645  _isBlacklisted[from] */\n      0x00\n        /* \"XODEX2.sol\":22640:22644  from */\n      dup5\n        /* \"XODEX2.sol\":22625:22645  _isBlacklisted[from] */\n      0xffffffffffffffffffffffffffffffffffffffff\n      and\n      0xffffffffffffffffffffffffffffffffffffffff\n      and\n      dup2\n      mstore\n      0x20\n      add\n      swap1\n      dup2\n      mstore\n      0x20\n      add\n      0x00\n      keccak256\n      0x00\n      swap1\n      sload\n      swap1\n      0x0100\n      exp\n      swap1\n      div\n      0xff\n      and\n        /* \"XODEX2.sol\":22624:22645  !_isBlacklisted[from] */\n      iszero\n        /* \"XODEX2.sol\":22624:22668  !_isBlacklisted[from] && !_isBlacklisted[to] */\n      dup1\n      iszero\n      tag_549\n      jumpi\n      pop\n        /* \"XODEX2.sol\":22650:22664  _isBlacklisted */\n      0x04\n        /* \"XODEX2.sol\":22650:22668  _isBlacklisted[to] */\n      0x00\n        /* \"XODEX2.sol\":22665:22667  to */\n      dup4\n        /* \"XODEX2.sol\":22650:22668  _isBlacklisted[to] */\n      0xffffffffffffffffffffffffffffffffffffffff\n      and\n      0xffffffffffffffffffffffffffffffffffffffff\n      and\n      dup2\n      mstore\n      0x20\n      add\n      swap1\n      dup2\n      mstore\n      0x20\n      add\n      0x00\n      keccak256\n      0x00\n      swap1\n      sload\n      swap1\n      0x0100\n      exp\n      swap1\n      div\n      0xff\n      and\n        /* \"XODEX2.sol\":22649:22668  !_isBlacklisted[to] */\n      iszero\n        /* \"XODEX2.sol\":22624:22668  !_isBlacklisted[from] && !_isBlacklisted[to] */\n    tag_549:\n        /* \"XODEX2.sol\":22616:22723  require(!_isBlacklisted[from] && !_isBlacklisted[to], \"This address is blacklisted. Transaction reverted.\") */\n      tag_550\n      jumpi\n      mload(0x40)\n      0x08c379a000000000000000000000000000000000000000000000000000000000\n      dup2\n      mstore\n      0x04\n      add\n      tag_551\n      swap1\n      tag_552\n      jump\t// in\n    tag_551:\n      mload(0x40)\n      dup1\n      swap2\n      sub\n      swap1\n      revert\n    tag_550:\n        /* \"XODEX2.sol\":22585:22734  if (isBlackList) {... */\n    tag_548:\n        /* \"XODEX2.sol\":22768:22769  0 */\n      0x00\n        /* \"XODEX2.sol\":22752:22770  from != address(0) */\n      0xffffffffffffffffffffffffffffffffffffffff\n      and\n        /* \"XODEX2.sol\":22752:22756  from */\n      dup4\n        /* \"XODEX2.sol\":22752:22770  from != address(0) */\n      0xffffffffffffffffffffffffffffffffffffffff\n      and\n      eq\n      iszero\n        /* \"XODEX2.sol\":22752:22790  from != address(0) && to != address(0) */\n      dup1\n      iszero\n      tag_553\n      jumpi\n      pop\n        /* \"XODEX2.sol\":22788:22789  0 */\n      0x00\n        /* \"XODEX2.sol\":22774:22790  to != address(0) */\n      0xffffffffffffffffffffffffffffffffffffffff\n      and\n        /* \"XODEX2.sol\":22774:22776  to */\n      dup3\n        /* \"XODEX2.sol\":22774:22790  to != address(0) */\n      0xffffffffffffffffffffffffffffffffffffffff\n      and\n      eq\n      iszero\n        /* \"XODEX2.sol\":22752:22790  from != address(0) && to != address(0) */\n    tag_553:\n        /* \"XODEX2.sol\":22744:22816  require(from != address(0) && to != address(0), \"ERR: Using 0 address!\") */\n      tag_554\n      jumpi\n      mload(0x40)\n      0x08c379a000000000000000000000000000000000000000000000000000000000\n      dup2\n      mstore\n      0x04\n      add\n      tag_555\n      swap1\n      tag_556\n      jump\t// in\n    tag_555:\n      mload(0x40)\n      dup1\n      swap2\n      sub\n      swap1\n      revert\n    tag_554:\n        /* \"XODEX2.sol\":22843:22844  0 */\n      0x00\n        /* \"XODEX2.sol\":22834:22840  amount */\n      dup2\n        /* \"XODEX2.sol\":22834:22844  amount > 0 */\n      gt\n        /* \"XODEX2.sol\":22826:22886  require(amount > 0, \"Token value must be higher than zero.\") */\n      tag_557\n      jumpi\n      mload(0x40)\n      0x08c379a000000000000000000000000000000000000000000000000000000000\n      dup2\n      mstore\n      0x04\n      add\n      tag_558\n      swap1\n      tag_559\n      jump\t// in\n    tag_558:\n      mload(0x40)\n      dup1\n      swap2\n      sub\n      swap1\n      revert\n    tag_557:\n        /* \"XODEX2.sol\":22912:22923  swapTrigger */\n      0x05\n      0x16\n      swap1\n      sload\n      swap1\n      0x0100\n      exp\n      swap1\n      div\n      0xff\n      and\n        /* \"XODEX2.sol\":22901:22923  txCount >= swapTrigger */\n      0xff\n      and\n        /* \"XODEX2.sol\":22901:22908  txCount */\n      0x05\n      0x15\n      swap1\n      sload\n      swap1\n      0x0100\n      exp\n      swap1\n      div\n      0xff\n      and\n        /* \"XODEX2.sol\":22901:22923  txCount >= swapTrigger */\n      0xff\n      and\n      lt\n      iszero\n        /* \"XODEX2.sol\":22901:22938  txCount >= swapTrigger && !isSwapping */\n      dup1\n      iszero\n      tag_560\n      jumpi\n      pop\n        /* \"XODEX2.sol\":22928:22938  isSwapping */\n      0x12\n      0x14\n      swap1\n      sload\n      swap1\n      0x0100\n      exp\n      swap1\n      div\n      0xff\n      and\n        /* \"XODEX2.sol\":22927:22938  !isSwapping */\n      iszero\n        /* \"XODEX2.sol\":22901:22938  txCount >= swapTrigger && !isSwapping */\n    tag_560:\n        /* \"XODEX2.sol\":22901:22963  txCount >= swapTrigger && !isSwapping && from != uniswapV2Pair */\n      dup1\n      iszero\n      tag_561\n      jumpi\n      pop\n        /* \"XODEX2.sol\":22950:22963  uniswapV2Pair */\n      0x12\n      0x00\n      swap1\n      sload\n      swap1\n      0x0100\n      exp\n      swap1\n      div\n      0xffffffffffffffffffffffffffffffffffffffff\n      and\n        /* \"XODEX2.sol\":22942:22963  from != uniswapV2Pair */\n      0xffffffffffffffffffffffffffffffffffffffff\n      and\n        /* \"XODEX2.sol\":22942:22946  from */\n      dup4\n        /* \"XODEX2.sol\":22942:22963  from != uniswapV2Pair */\n      0xffffffffffffffffffffffffffffffffffffffff\n      and\n      eq\n      iszero\n        /* \"XODEX2.sol\":22901:22963  txCount >= swapTrigger && !isSwapping && from != uniswapV2Pair */\n    tag_561:\n        /* \"XODEX2.sol\":22901:22984  txCount >= swapTrigger && !isSwapping && from != uniswapV2Pair && swapAndLiqEnabled */\n      dup1\n      iszero\n      tag_562\n      jumpi\n      pop\n        /* \"XODEX2.sol\":22967:22984  swapAndLiqEnabled */\n      0x12\n      0x15\n      swap1\n      sload\n      swap1\n      0x0100\n      exp\n      swap1\n      div\n      0xff\n      and\n        /* \"XODEX2.sol\":22901:22984  txCount >= swapTrigger && !isSwapping && from != uniswapV2Pair && swapAndLiqEnabled */\n    tag_562:\n        /* \"XODEX2.sol\":22897:23321  if (txCount >= swapTrigger && !isSwapping && from != uniswapV2Pair && swapAndLiqEnabled) {... */\n      iszero\n      tag_563\n      jumpi\n        /* \"XODEX2.sol\":23010:23011  0 */\n      0x00\n        /* \"XODEX2.sol\":23000:23007  txCount */\n      0x05\n      0x15\n        /* \"XODEX2.sol\":23000:23011  txCount = 0 */\n      0x0100\n      exp\n      dup2\n      sload\n      dup2\n      0xff\n      mul\n      not\n      and\n      swap1\n      dup4\n      0xff\n      and\n      mul\n      or\n      swap1\n      sstore\n      pop\n        /* \"XODEX2.sol\":23025:23053  uint256 contractTokenBalance */\n      0x00\n        /* \"XODEX2.sol\":23056:23080  balanceOf(address(this)) */\n      tag_564\n        /* \"XODEX2.sol\":23074:23078  this */\n      address\n        /* \"XODEX2.sol\":23056:23065  balanceOf */\n      tag_165\n        /* \"XODEX2.sol\":23056:23080  balanceOf(address(this)) */\n      jump\t// in\n    tag_564:\n        /* \"XODEX2.sol\":23025:23080  uint256 contractTokenBalance = balanceOf(address(this)) */\n      swap1\n      pop\n        /* \"XODEX2.sol\":23121:23133  _maxTxAmount */\n      sload(0x09)\n        /* \"XODEX2.sol\":23098:23118  contractTokenBalance */\n      dup2\n        /* \"XODEX2.sol\":23098:23133  contractTokenBalance > _maxTxAmount */\n      gt\n        /* \"XODEX2.sol\":23094:23203  if (contractTokenBalance > _maxTxAmount) {... */\n      iszero\n      tag_565\n      jumpi\n        /* \"XODEX2.sol\":23176:23188  _maxTxAmount */\n      sload(0x09)\n        /* \"XODEX2.sol\":23153:23188  contractTokenBalance = _maxTxAmount */\n      swap1\n      pop\n        /* \"XODEX2.sol\":23094:23203  if (contractTokenBalance > _maxTxAmount) {... */\n    tag_565:\n        /* \"XODEX2.sol\":23243:23244  0 */\n      0x00\n        /* \"XODEX2.sol\":23220:23240  contractTokenBalance */\n      dup2\n        /* \"XODEX2.sol\":23220:23244  contractTokenBalance > 0 */\n      gt\n        /* \"XODEX2.sol\":23216:23311  if (contractTokenBalance > 0) {... */\n      iszero\n      tag_566\n      jumpi\n        /* \"XODEX2.sol\":23264:23296  swapTokens(contractTokenBalance) */\n      tag_567\n        /* \"XODEX2.sol\":23275:23295  contractTokenBalance */\n      dup2\n        /* \"XODEX2.sol\":23264:23274  swapTokens */\n      tag_483\n        /* \"XODEX2.sol\":23264:23296  swapTokens(contractTokenBalance) */\n      jump\t// in\n    tag_567:\n        /* \"XODEX2.sol\":23216:23311  if (contractTokenBalance > 0) {... */\n    tag_566:\n        /* \"XODEX2.sol\":22986:23321  {... */\n      pop\n        /* \"XODEX2.sol\":22897:23321  if (txCount >= swapTrigger && !isSwapping && from != uniswapV2Pair && swapAndLiqEnabled) {... */\n    tag_563:\n        /* \"XODEX2.sol\":23331:23343  bool takeFee */\n      0x00\n        /* \"XODEX2.sol\":23346:23350  true */\n      0x01\n        /* \"XODEX2.sol\":23331:23350  bool takeFee = true */\n      swap1\n      pop\n        /* \"XODEX2.sol\":23378:23396  _isExcludedFromFee */\n      0x03\n        /* \"XODEX2.sol\":23378:23402  _isExcludedFromFee[from] */\n      0x00\n        /* \"XODEX2.sol\":23397:23401  from */\n      dup6\n        /* \"XODEX2.sol\":23378:23402  _isExcludedFromFee[from] */\n      0xffffffffffffffffffffffffffffffffffffffff\n      and\n      0xffffffffffffffffffffffffffffffffffffffff\n      and\n      dup2\n      mstore\n      0x20\n      add\n      swap1\n      dup2\n      mstore\n      0x20\n      add\n      0x00\n      keccak256\n      0x00\n      swap1\n      sload\n      swap1\n      0x0100\n      exp\n      swap1\n      div\n      0xff\n      and\n        /* \"XODEX2.sol\":23378:23440  _isExcludedFromFee[from] ||... */\n      dup1\n      tag_568\n      jumpi\n      pop\n        /* \"XODEX2.sol\":23418:23436  _isExcludedFromFee */\n      0x03\n        /* \"XODEX2.sol\":23418:23440  _isExcludedFromFee[to] */\n      0x00\n        /* \"XODEX2.sol\":23437:23439  to */\n      dup5\n        /* \"XODEX2.sol\":23418:23440  _isExcludedFromFee[to] */\n      0xffffffffffffffffffffffffffffffffffffffff\n      and\n      0xffffffffffffffffffffffffffffffffffffffff\n      and\n      dup2\n      mstore\n      0x20\n      add\n      swap1\n      dup2\n      mstore\n      0x20\n      add\n      0x00\n      keccak256\n      0x00\n      swap1\n      sload\n      swap1\n      0x0100\n      exp\n      swap1\n      div\n      0xff\n      and\n        /* \"XODEX2.sol\":23378:23440  _isExcludedFromFee[from] ||... */\n    tag_568:\n        /* \"XODEX2.sol\":23378:23519  _isExcludedFromFee[from] ||... */\n      dup1\n      tag_569\n      jumpi\n      pop\n        /* \"XODEX2.sol\":23457:23470  noTransferFee */\n      0x11\n      0x00\n      swap1\n      sload\n      swap1\n      0x0100\n      exp\n      swap1\n      div\n      0xff\n      and\n        /* \"XODEX2.sol\":23457:23495  noTransferFee && from != uniswapV2Pair */\n      dup1\n      iszero\n      tag_570\n      jumpi\n      pop\n        /* \"XODEX2.sol\":23482:23495  uniswapV2Pair */\n      0x12\n      0x00\n      swap1\n      sload\n      swap1\n      0x0100\n      exp\n      swap1\n      div\n      0xffffffffffffffffffffffffffffffffffffffff\n      and\n        /* \"XODEX2.sol\":23474:23495  from != uniswapV2Pair */\n      0xffffffffffffffffffffffffffffffffffffffff\n      and\n        /* \"XODEX2.sol\":23474:23478  from */\n      dup5\n        /* \"XODEX2.sol\":23474:23495  from != uniswapV2Pair */\n      0xffffffffffffffffffffffffffffffffffffffff\n      and\n      eq\n      iszero\n        /* \"XODEX2.sol\":23457:23495  noTransferFee && from != uniswapV2Pair */\n    tag_570:\n        /* \"XODEX2.sol\":23457:23518  noTransferFee && from != uniswapV2Pair && to != uniswapV2Pair */\n      dup1\n      iszero\n      tag_571\n      jumpi\n      pop\n        /* \"XODEX2.sol\":23505:23518  uniswapV2Pair */\n      0x12\n      0x00\n      swap1\n      sload\n      swap1\n      0x0100\n      exp\n      swap1\n      div\n      0xffffffffffffffffffffffffffffffffffffffff\n      and\n        /* \"XODEX2.sol\":23499:23518  to != uniswapV2Pair */\n      0xffffffffffffffffffffffffffffffffffffffff\n      and\n        /* \"XODEX2.sol\":23499:23501  to */\n      dup4\n        /* \"XODEX2.sol\":23499:23518  to != uniswapV2Pair */\n      0xffffffffffffffffffffffffffffffffffffffff\n      and\n      eq\n      iszero\n        /* \"XODEX2.sol\":23457:23518  noTransferFee && from != uniswapV2Pair && to != uniswapV2Pair */\n    tag_571:\n        /* \"XODEX2.sol\":23378:23519  _isExcludedFromFee[from] ||... */\n    tag_569:\n        /* \"XODEX2.sol\":23361:23723  if (... */\n      iszero\n      tag_572\n      jumpi\n        /* \"XODEX2.sol\":23554:23559  false */\n      0x00\n        /* \"XODEX2.sol\":23544:23559  takeFee = false */\n      swap1\n      pop\n        /* \"XODEX2.sol\":23361:23723  if (... */\n      jump(tag_573)\n    tag_572:\n        /* \"XODEX2.sol\":23588:23601  uniswapV2Pair */\n      0x12\n      0x00\n      swap1\n      sload\n      swap1\n      0x0100\n      exp\n      swap1\n      div\n      0xffffffffffffffffffffffffffffffffffffffff\n      and\n        /* \"XODEX2.sol\":23580:23601  from == uniswapV2Pair */\n      0xffffffffffffffffffffffffffffffffffffffff\n      and\n        /* \"XODEX2.sol\":23580:23584  from */\n      dup5\n        /* \"XODEX2.sol\":23580:23601  from == uniswapV2Pair */\n      0xffffffffffffffffffffffffffffffffffffffff\n      and\n      sub\n        /* \"XODEX2.sol\":23576:23723  if (from == uniswapV2Pair) {... */\n      tag_574\n      jumpi\n        /* \"XODEX2.sol\":23629:23636  _buyFee */\n      sload(0x0c)\n        /* \"XODEX2.sol\":23617:23626  _TotalFee */\n      0x0b\n        /* \"XODEX2.sol\":23617:23636  _TotalFee = _buyFee */\n      dup2\n      swap1\n      sstore\n      pop\n        /* \"XODEX2.sol\":23576:23723  if (from == uniswapV2Pair) {... */\n      jump(tag_575)\n    tag_574:\n        /* \"XODEX2.sol\":23663:23676  uniswapV2Pair */\n      0x12\n      0x00\n      swap1\n      sload\n      swap1\n      0x0100\n      exp\n      swap1\n      div\n      0xffffffffffffffffffffffffffffffffffffffff\n      and\n        /* \"XODEX2.sol\":23657:23676  to == uniswapV2Pair */\n      0xffffffffffffffffffffffffffffffffffffffff\n      and\n        /* \"XODEX2.sol\":23657:23659  to */\n      dup4\n        /* \"XODEX2.sol\":23657:23676  to == uniswapV2Pair */\n      0xffffffffffffffffffffffffffffffffffffffff\n      and\n      sub\n        /* \"XODEX2.sol\":23653:23723  if (to == uniswapV2Pair) {... */\n      tag_576\n      jumpi\n        /* \"XODEX2.sol\":23704:23712  _sellFee */\n      sload(0x0d)\n        /* \"XODEX2.sol\":23692:23701  _TotalFee */\n      0x0b\n        /* \"XODEX2.sol\":23692:23712  _TotalFee = _sellFee */\n      dup2\n      swap1\n      sstore\n      pop\n        /* \"XODEX2.sol\":23653:23723  if (to == uniswapV2Pair) {... */\n    tag_576:\n        /* \"XODEX2.sol\":23576:23723  if (from == uniswapV2Pair) {... */\n    tag_575:\n        /* \"XODEX2.sol\":23361:23723  if (... */\n    tag_573:\n        /* \"XODEX2.sol\":23733:23774  _tokenTransfer(from, to, amount, takeFee) */\n      tag_577\n        /* \"XODEX2.sol\":23748:23752  from */\n      dup5\n        /* \"XODEX2.sol\":23754:23756  to */\n      dup5\n        /* \"XODEX2.sol\":23758:23764  amount */\n      dup5\n        /* \"XODEX2.sol\":23766:23773  takeFee */\n      dup5\n        /* \"XODEX2.sol\":23733:23747  _tokenTransfer */\n      tag_578\n        /* \"XODEX2.sol\":23733:23774  _tokenTransfer(from, to, amount, takeFee) */\n      jump\t// in\n    tag_577:\n        /* \"XODEX2.sol\":21865:23781  {... */\n      pop\n        /* \"XODEX2.sol\":21766:23781  function _transfer(... */\n      pop\n      pop\n      pop\n      jump\t// out\n        /* \"XODEX2.sol\":1187:1418  function sub(... */\n    tag_332:\n        /* \"XODEX2.sol\":1303:1310  uint256 */\n      0x00\n        /* \"XODEX2.sol\":1359:1360  a */\n      dup4\n        /* \"XODEX2.sol\":1354:1355  b */\n      dup4\n        /* \"XODEX2.sol\":1354:1360  b <= a */\n      gt\n      iszero\n        /* \"XODEX2.sol\":1362:1374  errorMessage */\n      dup3\n        /* \"XODEX2.sol\":1346:1375  require(b <= a, errorMessage) */\n      swap1\n      tag_580\n      jumpi\n      mload(0x40)\n      0x08c379a000000000000000000000000000000000000000000000000000000000\n      dup2\n      mstore\n      0x04\n      add\n      tag_581\n      swap2\n      swap1\n      tag_61\n      jump\t// in\n    tag_581:\n      mload(0x40)\n      dup1\n      swap2\n      sub\n      swap1\n      revert\n    tag_580:\n      pop\n        /* \"XODEX2.sol\":1400:1401  b */\n      dup3\n        /* \"XODEX2.sol\":1396:1397  a */\n      dup5\n        /* \"XODEX2.sol\":1396:1401  a - b */\n      sub\n        /* \"XODEX2.sol\":1389:1401  return a - b */\n      swap1\n      pop\n        /* \"XODEX2.sol\":1187:1418  function sub(... */\n      swap4\n      swap3\n      pop\n      pop\n      pop\n      jump\t// out\n        /* \"XODEX2.sol\":779:875  function add(uint256 a, uint256 b) internal pure returns (uint256) {... */\n    tag_371:\n        /* \"XODEX2.sol\":837:844  uint256 */\n      0x00\n        /* \"XODEX2.sol\":867:868  b */\n      dup2\n        /* \"XODEX2.sol\":863:864  a */\n      dup4\n        /* \"XODEX2.sol\":863:868  a + b */\n      tag_583\n      swap2\n      swap1\n      tag_406\n      jump\t// in\n    tag_583:\n        /* \"XODEX2.sol\":856:868  return a + b */\n      swap1\n      pop\n        /* \"XODEX2.sol\":779:875  function add(uint256 a, uint256 b) internal pure returns (uint256) {... */\n      swap3\n      swap2\n      pop\n      pop\n      jump\t// out\n        /* \"XODEX2.sol\":17971:18193  function swapTokens(uint256 contractTokenBalance) private lockSwap {... */\n    tag_483:\n        /* \"XODEX2.sol\":13351:13355  true */\n      0x01\n        /* \"XODEX2.sol\":13338:13348  isSwapping */\n      0x12\n      0x14\n        /* \"XODEX2.sol\":13338:13355  isSwapping = true */\n      0x0100\n      exp\n      dup2\n      sload\n      dup2\n      0xff\n      mul\n      not\n      and\n      swap1\n      dup4\n      iszero\n      iszero\n      mul\n      or\n      swap1\n      sstore\n      pop\n        /* \"XODEX2.sol\":18048:18086  swapTokensForBNB(contractTokenBalance) */\n      tag_586\n        /* \"XODEX2.sol\":18065:18085  contractTokenBalance */\n      dup2\n        /* \"XODEX2.sol\":18048:18064  swapTokensForBNB */\n      tag_587\n        /* \"XODEX2.sol\":18048:18086  swapTokensForBNB(contractTokenBalance) */\n      jump\t// in\n    tag_586:\n        /* \"XODEX2.sol\":18096:18115  uint256 contractBNB */\n      0x00\n        /* \"XODEX2.sol\":18118:18139  address(this).balance */\n      selfbalance\n        /* \"XODEX2.sol\":18096:18139  uint256 contractBNB = address(this).balance */\n      swap1\n      pop\n        /* \"XODEX2.sol\":18149:18186  sendToWallet(Dev_Wallet, contractBNB) */\n      tag_588\n        /* \"XODEX2.sol\":18162:18172  Dev_Wallet */\n      0x05\n      0x01\n      swap1\n      sload\n      swap1\n      0x0100\n      exp\n      swap1\n      div\n      0xffffffffffffffffffffffffffffffffffffffff\n      and\n        /* \"XODEX2.sol\":18174:18185  contractBNB */\n      dup3\n        /* \"XODEX2.sol\":18149:18161  sendToWallet */\n      tag_589\n        /* \"XODEX2.sol\":18149:18186  sendToWallet(Dev_Wallet, contractBNB) */\n      jump\t// in\n    tag_588:\n        /* \"XODEX2.sol\":18038:18193  {... */\n      pop\n        /* \"XODEX2.sol\":13389:13394  false */\n      0x00\n        /* \"XODEX2.sol\":13376:13386  isSwapping */\n      0x12\n      0x14\n        /* \"XODEX2.sol\":13376:13394  isSwapping = false */\n      0x0100\n      exp\n      dup2\n      sload\n      dup2\n      0xff\n      mul\n      not\n      and\n      swap1\n      dup4\n      iszero\n      iszero\n      mul\n      or\n      swap1\n      sstore\n      pop\n        /* \"XODEX2.sol\":17971:18193  function swapTokens(uint256 contractTokenBalance) private lockSwap {... */\n      pop\n      jump\t// out\n        /* \"XODEX2.sol\":23787:24119  function _tokenTransfer(... */\n    tag_578:\n        /* \"XODEX2.sol\":23937:23944  takeFee */\n      dup1\n        /* \"XODEX2.sol\":23932:24023  if (!takeFee) {... */\n      tag_591\n      jumpi\n        /* \"XODEX2.sol\":23960:23972  removeFees() */\n      tag_592\n        /* \"XODEX2.sol\":23960:23970  removeFees */\n      tag_593\n        /* \"XODEX2.sol\":23960:23972  removeFees() */\n      jump\t// in\n    tag_592:\n        /* \"XODEX2.sol\":23932:24023  if (!takeFee) {... */\n      jump(tag_594)\n    tag_591:\n        /* \"XODEX2.sol\":24003:24010  txCount */\n      0x05\n      0x15\n        /* \"XODEX2.sol\":24003:24012  txCount++ */\n      dup2\n      dup2\n      swap1\n      sload\n      swap1\n      0x0100\n      exp\n      swap1\n      div\n      0xff\n      and\n      dup1\n      swap3\n      swap2\n      swap1\n      tag_595\n      swap1\n      tag_596\n      jump\t// in\n    tag_595:\n      swap2\n      swap1\n      0x0100\n      exp\n      dup2\n      sload\n      dup2\n      0xff\n      mul\n      not\n      and\n      swap1\n      dup4\n      0xff\n      and\n      mul\n      or\n      swap1\n      sstore\n      pop\n      pop\n        /* \"XODEX2.sol\":23932:24023  if (!takeFee) {... */\n    tag_594:\n        /* \"XODEX2.sol\":24032:24074  _transferTokens(sender, recipient, amount) */\n      tag_597\n        /* \"XODEX2.sol\":24048:24054  sender */\n      dup5\n        /* \"XODEX2.sol\":24056:24065  recipient */\n      dup5\n        /* \"XODEX2.sol\":24067:24073  amount */\n      dup5\n        /* \"XODEX2.sol\":24032:24047  _transferTokens */\n      tag_598\n        /* \"XODEX2.sol\":24032:24074  _transferTokens(sender, recipient, amount) */\n      jump\t// in\n    tag_597:\n        /* \"XODEX2.sol\":24090:24097  takeFee */\n      dup1\n        /* \"XODEX2.sol\":24085:24112  if (!takeFee) restoreFees() */\n      tag_599\n      jumpi\n        /* \"XODEX2.sol\":24099:24112  restoreFees() */\n      tag_600\n        /* \"XODEX2.sol\":24099:24110  restoreFees */\n      tag_601\n        /* \"XODEX2.sol\":24099:24112  restoreFees() */\n      jump\t// in\n    tag_600:\n        /* \"XODEX2.sol\":24085:24112  if (!takeFee) restoreFees() */\n    tag_599:\n        /* \"XODEX2.sol\":23787:24119  function _tokenTransfer(... */\n      pop\n      pop\n      pop\n      pop\n      jump\t// out\n        /* \"XODEX2.sol\":18199:18658  function swapTokensForBNB(uint256 tokenAmount) private {... */\n    tag_587:\n        /* \"XODEX2.sol\":18264:18285  address[] memory path */\n      0x00\n        /* \"XODEX2.sol\":18302:18303  2 */\n      0x02\n        /* \"XODEX2.sol\":18288:18304  new address[](2) */\n      0xffffffffffffffff\n      dup2\n      gt\n      iszero\n      tag_603\n      jumpi\n      tag_604\n      tag_605\n      jump\t// in\n    tag_604:\n    tag_603:\n      mload(0x40)\n      swap1\n      dup1\n      dup3\n      mstore\n      dup1\n      0x20\n      mul\n      0x20\n      add\n      dup3\n      add\n      0x40\n      mstore\n      dup1\n      iszero\n      tag_606\n      jumpi\n      dup2\n      0x20\n      add\n      0x20\n      dup3\n      mul\n      dup1\n      calldatasize\n      dup4\n      calldatacopy\n      dup1\n      dup3\n      add\n      swap2\n      pop\n      pop\n      swap1\n      pop\n    tag_606:\n      pop\n        /* \"XODEX2.sol\":18264:18304  address[] memory path = new address[](2) */\n      swap1\n      pop\n        /* \"XODEX2.sol\":18332:18336  this */\n      address\n        /* \"XODEX2.sol\":18314:18318  path */\n      dup2\n        /* \"XODEX2.sol\":18319:18320  0 */\n      0x00\n        /* \"XODEX2.sol\":18314:18321  path[0] */\n      dup2\n      mload\n      dup2\n      lt\n      tag_607\n      jumpi\n      tag_608\n      tag_315\n      jump\t// in\n    tag_608:\n    tag_607:\n      0x20\n      mul\n      0x20\n      add\n      add\n        /* \"XODEX2.sol\":18314:18337  path[0] = address(this) */\n      swap1\n      0xffffffffffffffffffffffffffffffffffffffff\n      and\n      swap1\n      dup2\n      0xffffffffffffffffffffffffffffffffffffffff\n      and\n      dup2\n      mstore\n      pop\n      pop\n        /* \"XODEX2.sol\":18357:18372  uniswapV2Router */\n      0x11\n      0x01\n      swap1\n      sload\n      swap1\n      0x0100\n      exp\n      swap1\n      div\n      0xffffffffffffffffffffffffffffffffffffffff\n      and\n        /* \"XODEX2.sol\":18357:18377  uniswapV2Router.WETH */\n      0xffffffffffffffffffffffffffffffffffffffff\n      and\n      0xad5c4648\n        /* \"XODEX2.sol\":18357:18379  uniswapV2Router.WETH() */\n      mload(0x40)\n      dup2\n      0xffffffff\n      and\n      0xe0\n      shl\n      dup2\n      mstore\n      0x04\n      add\n      0x20\n      mload(0x40)\n      dup1\n      dup4\n      sub\n      dup2\n      dup7\n      gas\n      staticcall\n      iszero\n      dup1\n      iszero\n      tag_610\n      jumpi\n      returndatasize\n      0x00\n      dup1\n      returndatacopy\n      revert(0x00, returndatasize)\n    tag_610:\n      pop\n      pop\n      pop\n      pop\n      mload(0x40)\n      returndatasize\n      not(0x1f)\n      0x1f\n      dup3\n      add\n      and\n      dup3\n      add\n      dup1\n      0x40\n      mstore\n      pop\n      dup2\n      add\n      swap1\n      tag_611\n      swap2\n      swap1\n      tag_283\n      jump\t// in\n    tag_611:\n        /* \"XODEX2.sol\":18347:18351  path */\n      dup2\n        /* \"XODEX2.sol\":18352:18353  1 */\n      0x01\n        /* \"XODEX2.sol\":18347:18354  path[1] */\n      dup2\n      mload\n      dup2\n      lt\n      tag_612\n      jumpi\n      tag_613\n      tag_315\n      jump\t// in\n    tag_613:\n    tag_612:\n      0x20\n      mul\n      0x20\n      add\n      add\n        /* \"XODEX2.sol\":18347:18379  path[1] = uniswapV2Router.WETH() */\n      swap1\n      0xffffffffffffffffffffffffffffffffffffffff\n      and\n      swap1\n      dup2\n      0xffffffffffffffffffffffffffffffffffffffff\n      and\n      dup2\n      mstore\n      pop\n      pop\n        /* \"XODEX2.sol\":18389:18451  _approve(address(this), address(uniswapV2Router), tokenAmount) */\n      tag_614\n        /* \"XODEX2.sol\":18406:18410  this */\n      address\n        /* \"XODEX2.sol\":18421:18436  uniswapV2Router */\n      0x11\n      0x01\n      swap1\n      sload\n      swap1\n      0x0100\n      exp\n      swap1\n      div\n      0xffffffffffffffffffffffffffffffffffffffff\n      and\n        /* \"XODEX2.sol\":18439:18450  tokenAmount */\n      dup5\n        /* \"XODEX2.sol\":18389:18397  _approve */\n      tag_269\n        /* \"XODEX2.sol\":18389:18451  _approve(address(this), address(uniswapV2Router), tokenAmount) */\n      jump\t// in\n    tag_614:\n        /* \"XODEX2.sol\":18461:18476  uniswapV2Router */\n      0x11\n      0x01\n      swap1\n      sload\n      swap1\n      0x0100\n      exp\n      swap1\n      div\n      0xffffffffffffffffffffffffffffffffffffffff\n      and\n        /* \"XODEX2.sol\":18461:18527  uniswapV2Router.swapExactTokensForETHSupportingFeeOnTransferTokens */\n      0xffffffffffffffffffffffffffffffffffffffff\n      and\n      0x791ac947\n        /* \"XODEX2.sol\":18541:18552  tokenAmount */\n      dup4\n        /* \"XODEX2.sol\":18566:18567  0 */\n      0x00\n        /* \"XODEX2.sol\":18581:18585  path */\n      dup5\n        /* \"XODEX2.sol\":18607:18611  this */\n      address\n        /* \"XODEX2.sol\":18626:18641  block.timestamp */\n      timestamp\n        /* \"XODEX2.sol\":18461:18651  uniswapV2Router.swapExactTokensForETHSupportingFeeOnTransferTokens(... */\n      mload(0x40)\n      dup7\n      0xffffffff\n      and\n      0xe0\n      shl\n      dup2\n      mstore\n      0x04\n      add\n      tag_615\n      swap6\n      swap5\n      swap4\n      swap3\n      swap2\n      swap1\n      tag_616\n      jump\t// in\n    tag_615:\n      0x00\n      mload(0x40)\n      dup1\n      dup4\n      sub\n      dup2\n      0x00\n      dup8\n      dup1\n      extcodesize\n      iszero\n      dup1\n      iszero\n      tag_617\n      jumpi\n      0x00\n      dup1\n      revert\n    tag_617:\n      pop\n      gas\n      call\n      iszero\n      dup1\n      iszero\n      tag_619\n      jumpi\n      returndatasize\n      0x00\n      dup1\n      returndatacopy\n      revert(0x00, returndatasize)\n    tag_619:\n      pop\n      pop\n      pop\n      pop\n        /* \"XODEX2.sol\":18254:18658  {... */\n      pop\n        /* \"XODEX2.sol\":18199:18658  function swapTokensForBNB(uint256 tokenAmount) private {... */\n      pop\n      jump\t// out\n        /* \"XODEX2.sol\":17855:17965  function sendToWallet(address payable wallet, uint256 amount) private {... */\n    tag_589:\n        /* \"XODEX2.sol\":17935:17941  wallet */\n      dup2\n        /* \"XODEX2.sol\":17935:17950  wallet.transfer */\n      0xffffffffffffffffffffffffffffffffffffffff\n      and\n        /* \"XODEX2.sol\":17935:17958  wallet.transfer(amount) */\n      0x08fc\n        /* \"XODEX2.sol\":17951:17957  amount */\n      dup3\n        /* \"XODEX2.sol\":17935:17958  wallet.transfer(amount) */\n      swap1\n      dup2\n      iszero\n      mul\n      swap1\n      mload(0x40)\n      0x00\n      mload(0x40)\n      dup1\n      dup4\n      sub\n      dup2\n      dup6\n      dup9\n      dup9\n      call\n      swap4\n      pop\n      pop\n      pop\n      pop\n      iszero\n      dup1\n      iszero\n      tag_622\n      jumpi\n      returndatasize\n      0x00\n      dup1\n      returndatacopy\n      revert(0x00, returndatasize)\n    tag_622:\n      pop\n        /* \"XODEX2.sol\":17855:17965  function sendToWallet(address payable wallet, uint256 amount) private {... */\n      pop\n      pop\n      jump\t// out\n        /* \"XODEX2.sol\":17434:17706  function removeFees() private {... */\n    tag_593:\n        /* \"XODEX2.sol\":17491:17492  0 */\n      0x00\n        /* \"XODEX2.sol\":17478:17487  _TotalFee */\n      sload(0x0b)\n        /* \"XODEX2.sol\":17478:17492  _TotalFee == 0 */\n      eq\n        /* \"XODEX2.sol\":17478:17508  _TotalFee == 0 && _buyFee == 0 */\n      dup1\n      iszero\n      tag_624\n      jumpi\n      pop\n        /* \"XODEX2.sol\":17507:17508  0 */\n      0x00\n        /* \"XODEX2.sol\":17496:17503  _buyFee */\n      sload(0x0c)\n        /* \"XODEX2.sol\":17496:17508  _buyFee == 0 */\n      eq\n        /* \"XODEX2.sol\":17478:17508  _TotalFee == 0 && _buyFee == 0 */\n    tag_624:\n        /* \"XODEX2.sol\":17478:17525  _TotalFee == 0 && _buyFee == 0 && _sellFee == 0 */\n      dup1\n      iszero\n      tag_625\n      jumpi\n      pop\n        /* \"XODEX2.sol\":17524:17525  0 */\n      0x00\n        /* \"XODEX2.sol\":17512:17520  _sellFee */\n      sload(0x0d)\n        /* \"XODEX2.sol\":17512:17525  _sellFee == 0 */\n      eq\n        /* \"XODEX2.sol\":17478:17525  _TotalFee == 0 && _buyFee == 0 && _sellFee == 0 */\n    tag_625:\n        /* \"XODEX2.sol\":17527:17534  return; */\n      tag_623\n        /* \"XODEX2.sol\":17474:17534  if (_TotalFee == 0 && _buyFee == 0 && _sellFee == 0) return; */\n      jumpi\n        /* \"XODEX2.sol\":17558:17565  _buyFee */\n      sload(0x0c)\n        /* \"XODEX2.sol\":17544:17555  _prevBuyFee */\n      0x0f\n        /* \"XODEX2.sol\":17544:17565  _prevBuyFee = _buyFee */\n      dup2\n      swap1\n      sstore\n      pop\n        /* \"XODEX2.sol\":17590:17598  _sellFee */\n      sload(0x0d)\n        /* \"XODEX2.sol\":17575:17587  _prevSellFee */\n      0x10\n        /* \"XODEX2.sol\":17575:17598  _prevSellFee = _sellFee */\n      dup2\n      swap1\n      sstore\n      pop\n        /* \"XODEX2.sol\":17624:17633  _TotalFee */\n      sload(0x0b)\n        /* \"XODEX2.sol\":17608:17621  _prevTotalFee */\n      0x0e\n        /* \"XODEX2.sol\":17608:17633  _prevTotalFee = _TotalFee */\n      dup2\n      swap1\n      sstore\n      pop\n        /* \"XODEX2.sol\":17653:17654  0 */\n      0x00\n        /* \"XODEX2.sol\":17643:17650  _buyFee */\n      0x0c\n        /* \"XODEX2.sol\":17643:17654  _buyFee = 0 */\n      dup2\n      swap1\n      sstore\n      pop\n        /* \"XODEX2.sol\":17675:17676  0 */\n      0x00\n        /* \"XODEX2.sol\":17664:17672  _sellFee */\n      0x0d\n        /* \"XODEX2.sol\":17664:17676  _sellFee = 0 */\n      dup2\n      swap1\n      sstore\n      pop\n        /* \"XODEX2.sol\":17698:17699  0 */\n      0x00\n        /* \"XODEX2.sol\":17686:17695  _TotalFee */\n      0x0b\n        /* \"XODEX2.sol\":17686:17699  _TotalFee = 0 */\n      dup2\n      swap1\n      sstore\n      pop\n        /* \"XODEX2.sol\":17434:17706  function removeFees() private {... */\n    tag_623:\n      jump\t// out\n        /* \"XODEX2.sol\":24125:24594  function _transferTokens(... */\n    tag_598:\n        /* \"XODEX2.sol\":24251:24274  uint256 tTransferAmount */\n      0x00\n        /* \"XODEX2.sol\":24276:24288  uint256 tDev */\n      dup1\n        /* \"XODEX2.sol\":24292:24311  _getValues(tAmount) */\n      tag_628\n        /* \"XODEX2.sol\":24303:24310  tAmount */\n      dup4\n        /* \"XODEX2.sol\":24292:24302  _getValues */\n      tag_629\n        /* \"XODEX2.sol\":24292:24311  _getValues(tAmount) */\n      jump\t// in\n    tag_628:\n        /* \"XODEX2.sol\":24250:24311  (uint256 tTransferAmount, uint256 tDev) = _getValues(tAmount) */\n      swap2\n      pop\n      swap2\n      pop\n        /* \"XODEX2.sol\":24343:24375  _totalOwned[sender].sub(tAmount) */\n      tag_630\n        /* \"XODEX2.sol\":24367:24374  tAmount */\n      dup4\n        /* \"XODEX2.sol\":24343:24354  _totalOwned */\n      0x01\n        /* \"XODEX2.sol\":24343:24362  _totalOwned[sender] */\n      0x00\n        /* \"XODEX2.sol\":24355:24361  sender */\n      dup9\n        /* \"XODEX2.sol\":24343:24362  _totalOwned[sender] */\n      0xffffffffffffffffffffffffffffffffffffffff\n      and\n      0xffffffffffffffffffffffffffffffffffffffff\n      and\n      dup2\n      mstore\n      0x20\n      add\n      swap1\n      dup2\n      mstore\n      0x20\n      add\n      0x00\n      keccak256\n      sload\n        /* \"XODEX2.sol\":24343:24366  _totalOwned[sender].sub */\n      tag_631\n      swap1\n        /* \"XODEX2.sol\":24343:24375  _totalOwned[sender].sub(tAmount) */\n      swap2\n      swap1\n      0xffffffff\n      and\n      jump\t// in\n    tag_630:\n        /* \"XODEX2.sol\":24321:24332  _totalOwned */\n      0x01\n        /* \"XODEX2.sol\":24321:24340  _totalOwned[sender] */\n      0x00\n        /* \"XODEX2.sol\":24333:24339  sender */\n      dup8\n        /* \"XODEX2.sol\":24321:24340  _totalOwned[sender] */\n      0xffffffffffffffffffffffffffffffffffffffff\n      and\n      0xffffffffffffffffffffffffffffffffffffffff\n      and\n      dup2\n      mstore\n      0x20\n      add\n      swap1\n      dup2\n      mstore\n      0x20\n      add\n      0x00\n      keccak256\n        /* \"XODEX2.sol\":24321:24375  _totalOwned[sender] = _totalOwned[sender].sub(tAmount) */\n      dup2\n      swap1\n      sstore\n      pop\n        /* \"XODEX2.sol\":24410:24453  _totalOwned[recipient].add(tTransferAmount) */\n      tag_632\n        /* \"XODEX2.sol\":24437:24452  tTransferAmount */\n      dup3\n        /* \"XODEX2.sol\":24410:24421  _totalOwned */\n      0x01\n        /* \"XODEX2.sol\":24410:24432  _totalOwned[recipient] */\n      0x00\n        /* \"XODEX2.sol\":24422:24431  recipient */\n      dup8\n        /* \"XODEX2.sol\":24410:24432  _totalOwned[recipient] */\n      0xffffffffffffffffffffffffffffffffffffffff\n      and\n      0xffffffffffffffffffffffffffffffffffffffff\n      and\n      dup2\n      mstore\n      0x20\n      add\n      swap1\n      dup2\n      mstore\n      0x20\n      add\n      0x00\n      keccak256\n      sload\n        /* \"XODEX2.sol\":24410:24436  _totalOwned[recipient].add */\n      tag_371\n      swap1\n        /* \"XODEX2.sol\":24410:24453  _totalOwned[recipient].add(tTransferAmount) */\n      swap2\n      swap1\n      0xffffffff\n      and\n      jump\t// in\n    tag_632:\n        /* \"XODEX2.sol\":24385:24396  _totalOwned */\n      0x01\n        /* \"XODEX2.sol\":24385:24407  _totalOwned[recipient] */\n      0x00\n        /* \"XODEX2.sol\":24397:24406  recipient */\n      dup7\n        /* \"XODEX2.sol\":24385:24407  _totalOwned[recipient] */\n      0xffffffffffffffffffffffffffffffffffffffff\n      and\n      0xffffffffffffffffffffffffffffffffffffffff\n      and\n      dup2\n      mstore\n      0x20\n      add\n      swap1\n      dup2\n      mstore\n      0x20\n      add\n      0x00\n      keccak256\n        /* \"XODEX2.sol\":24385:24453  _totalOwned[recipient] = _totalOwned[recipient].add(tTransferAmount) */\n      dup2\n      swap1\n      sstore\n      pop\n        /* \"XODEX2.sol\":24492:24528  _totalOwned[address(this)].add(tDev) */\n      tag_633\n        /* \"XODEX2.sol\":24523:24527  tDev */\n      dup2\n        /* \"XODEX2.sol\":24492:24503  _totalOwned */\n      0x01\n        /* \"XODEX2.sol\":24492:24518  _totalOwned[address(this)] */\n      0x00\n        /* \"XODEX2.sol\":24512:24516  this */\n      address\n        /* \"XODEX2.sol\":24492:24518  _totalOwned[address(this)] */\n      0xffffffffffffffffffffffffffffffffffffffff\n      and\n      0xffffffffffffffffffffffffffffffffffffffff\n      and\n      dup2\n      mstore\n      0x20\n      add\n      swap1\n      dup2\n      mstore\n      0x20\n      add\n      0x00\n      keccak256\n      sload\n        /* \"XODEX2.sol\":24492:24522  _totalOwned[address(this)].add */\n      tag_371\n      swap1\n        /* \"XODEX2.sol\":24492:24528  _totalOwned[address(this)].add(tDev) */\n      swap2\n      swap1\n      0xffffffff\n      and\n      jump\t// in\n    tag_633:\n        /* \"XODEX2.sol\":24463:24474  _totalOwned */\n      0x01\n        /* \"XODEX2.sol\":24463:24489  _totalOwned[address(this)] */\n      0x00\n        /* \"XODEX2.sol\":24483:24487  this */\n      address\n        /* \"XODEX2.sol\":24463:24489  _totalOwned[address(this)] */\n      0xffffffffffffffffffffffffffffffffffffffff\n      and\n      0xffffffffffffffffffffffffffffffffffffffff\n      and\n      dup2\n      mstore\n      0x20\n      add\n      swap1\n      dup2\n      mstore\n      0x20\n      add\n      0x00\n      keccak256\n        /* \"XODEX2.sol\":24463:24528  _totalOwned[address(this)] = _totalOwned[address(this)].add(tDev) */\n      dup2\n      swap1\n      sstore\n      pop\n        /* \"XODEX2.sol\":24560:24569  recipient */\n      dup4\n        /* \"XODEX2.sol\":24543:24587  Transfer(sender, recipient, tTransferAmount) */\n      0xffffffffffffffffffffffffffffffffffffffff\n      and\n        /* \"XODEX2.sol\":24552:24558  sender */\n      dup6\n        /* \"XODEX2.sol\":24543:24587  Transfer(sender, recipient, tTransferAmount) */\n      0xffffffffffffffffffffffffffffffffffffffff\n      and\n      0xddf252ad1be2c89b69c2b068fc378daa952ba7f163c4a11628f55a4df523b3ef\n        /* \"XODEX2.sol\":24571:24586  tTransferAmount */\n      dup5\n        /* \"XODEX2.sol\":24543:24587  Transfer(sender, recipient, tTransferAmount) */\n      mload(0x40)\n      tag_634\n      swap2\n      swap1\n      tag_88\n      jump\t// in\n    tag_634:\n      mload(0x40)\n      dup1\n      swap2\n      sub\n      swap1\n      log3\n        /* \"XODEX2.sol\":24240:24594  {... */\n      pop\n      pop\n        /* \"XODEX2.sol\":24125:24594  function _transferTokens(... */\n      pop\n      pop\n      pop\n      jump\t// out\n        /* \"XODEX2.sol\":17712:17849  function restoreFees() private {... */\n    tag_601:\n        /* \"XODEX2.sol\":17765:17778  _prevTotalFee */\n      sload(0x0e)\n        /* \"XODEX2.sol\":17753:17762  _TotalFee */\n      0x0b\n        /* \"XODEX2.sol\":17753:17778  _TotalFee = _prevTotalFee */\n      dup2\n      swap1\n      sstore\n      pop\n        /* \"XODEX2.sol\":17798:17809  _prevBuyFee */\n      sload(0x0f)\n        /* \"XODEX2.sol\":17788:17795  _buyFee */\n      0x0c\n        /* \"XODEX2.sol\":17788:17809  _buyFee = _prevBuyFee */\n      dup2\n      swap1\n      sstore\n      pop\n        /* \"XODEX2.sol\":17830:17842  _prevSellFee */\n      sload(0x10)\n        /* \"XODEX2.sol\":17819:17827  _sellFee */\n      0x0d\n        /* \"XODEX2.sol\":17819:17842  _sellFee = _prevSellFee */\n      dup2\n      swap1\n      sstore\n      pop\n        /* \"XODEX2.sol\":17712:17849  function restoreFees() private {... */\n      jump\t// out\n        /* \"XODEX2.sol\":24600:24829  function _getValues(uint256 tAmount) private view returns (uint256, uint256) {... */\n    tag_629:\n        /* \"XODEX2.sol\":24659:24666  uint256 */\n      0x00\n        /* \"XODEX2.sol\":24668:24675  uint256 */\n      dup1\n        /* \"XODEX2.sol\":24687:24699  uint256 tDev */\n      0x00\n        /* \"XODEX2.sol\":24726:24729  100 */\n      0x64\n        /* \"XODEX2.sol\":24713:24722  _TotalFee */\n      sload(0x0b)\n        /* \"XODEX2.sol\":24703:24710  tAmount */\n      dup6\n        /* \"XODEX2.sol\":24703:24722  tAmount * _TotalFee */\n      tag_637\n      swap2\n      swap1\n      tag_299\n      jump\t// in\n    tag_637:\n        /* \"XODEX2.sol\":24702:24729  (tAmount * _TotalFee) / 100 */\n      tag_638\n      swap2\n      swap1\n      tag_301\n      jump\t// in\n    tag_638:\n        /* \"XODEX2.sol\":24687:24729  uint256 tDev = (tAmount * _TotalFee) / 100 */\n      swap1\n      pop\n        /* \"XODEX2.sol\":24739:24762  uint256 tTransferAmount */\n      0x00\n        /* \"XODEX2.sol\":24765:24782  tAmount.sub(tDev) */\n      tag_639\n        /* \"XODEX2.sol\":24777:24781  tDev */\n      dup3\n        /* \"XODEX2.sol\":24765:24772  tAmount */\n      dup7\n        /* \"XODEX2.sol\":24765:24776  tAmount.sub */\n      tag_631\n      swap1\n        /* \"XODEX2.sol\":24765:24782  tAmount.sub(tDev) */\n      swap2\n      swap1\n      0xffffffff\n      and\n      jump\t// in\n    tag_639:\n        /* \"XODEX2.sol\":24739:24782  uint256 tTransferAmount = tAmount.sub(tDev) */\n      swap1\n      pop\n        /* \"XODEX2.sol\":24800:24815  tTransferAmount */\n      dup1\n        /* \"XODEX2.sol\":24817:24821  tDev */\n      dup3\n        /* \"XODEX2.sol\":24792:24822  return (tTransferAmount, tDev) */\n      swap4\n      pop\n      swap4\n      pop\n      pop\n      pop\n        /* \"XODEX2.sol\":24600:24829  function _getValues(uint256 tAmount) private view returns (uint256, uint256) {... */\n      swap2\n      pop\n      swap2\n      jump\t// out\n        /* \"XODEX2.sol\":881:977  function sub(uint256 a, uint256 b) internal pure returns (uint256) {... */\n    tag_631:\n        /* \"XODEX2.sol\":939:946  uint256 */\n      0x00\n        /* \"XODEX2.sol\":969:970  b */\n      dup2\n        /* \"XODEX2.sol\":965:966  a */\n      dup4\n        /* \"XODEX2.sol\":965:970  a - b */\n      tag_641\n      swap2\n      swap1\n      tag_322\n      jump\t// in\n    tag_641:\n        /* \"XODEX2.sol\":958:970  return a - b */\n      swap1\n      pop\n        /* \"XODEX2.sol\":881:977  function sub(uint256 a, uint256 b) internal pure returns (uint256) {... */\n      swap3\n      swap2\n      pop\n      pop\n      jump\t// out\n        /* \"#utility.yul\":7:106   */\n    tag_642:\n        /* \"#utility.yul\":59:65   */\n      0x00\n        /* \"#utility.yul\":93:98   */\n      dup2\n        /* \"#utility.yul\":87:99   */\n      mload\n        /* \"#utility.yul\":77:99   */\n      swap1\n      pop\n        /* \"#utility.yul\":7:106   */\n      swap2\n      swap1\n      pop\n      jump\t// out\n        /* \"#utility.yul\":112:281   */\n    tag_643:\n        /* \"#utility.yul\":196:207   */\n      0x00\n        /* \"#utility.yul\":230:236   */\n      dup3\n        /* \"#utility.yul\":225:228   */\n      dup3\n        /* \"#utility.yul\":218:237   */\n      mstore\n        /* \"#utility.yul\":270:274   */\n      0x20\n        /* \"#utility.yul\":265:268   */\n      dup3\n        /* \"#utility.yul\":261:275   */\n      add\n        /* \"#utility.yul\":246:275   */\n      swap1\n      pop\n        /* \"#utility.yul\":112:281   */\n      swap3\n      swap2\n      pop\n      pop\n      jump\t// out\n        /* \"#utility.yul\":287:533   */\n    tag_644:\n        /* \"#utility.yul\":368:369   */\n      0x00\n        /* \"#utility.yul\":378:491   */\n    tag_720:\n        /* \"#utility.yul\":392:398   */\n      dup4\n        /* \"#utility.yul\":389:390   */\n      dup2\n        /* \"#utility.yul\":386:399   */\n      lt\n        /* \"#utility.yul\":378:491   */\n      iszero\n      tag_722\n      jumpi\n        /* \"#utility.yul\":477:478   */\n      dup1\n        /* \"#utility.yul\":472:475   */\n      dup3\n        /* \"#utility.yul\":468:479   */\n      add\n        /* \"#utility.yul\":462:480   */\n      mload\n        /* \"#utility.yul\":458:459   */\n      dup2\n        /* \"#utility.yul\":453:456   */\n      dup5\n        /* \"#utility.yul\":449:460   */\n      add\n        /* \"#utility.yul\":442:481   */\n      mstore\n        /* \"#utility.yul\":414:416   */\n      0x20\n        /* \"#utility.yul\":411:412   */\n      dup2\n        /* \"#utility.yul\":407:417   */\n      add\n        /* \"#utility.yul\":402:417   */\n      swap1\n      pop\n        /* \"#utility.yul\":378:491   */\n      jump(tag_720)\n    tag_722:\n        /* \"#utility.yul\":525:526   */\n      0x00\n        /* \"#utility.yul\":516:522   */\n      dup5\n        /* \"#utility.yul\":511:514   */\n      dup5\n        /* \"#utility.yul\":507:523   */\n      add\n        /* \"#utility.yul\":500:527   */\n      mstore\n        /* \"#utility.yul\":349:533   */\n      pop\n        /* \"#utility.yul\":287:533   */\n      pop\n      pop\n      pop\n      jump\t// out\n        /* \"#utility.yul\":539:641   */\n    tag_645:\n        /* \"#utility.yul\":580:586   */\n      0x00\n        /* \"#utility.yul\":631:633   */\n      0x1f\n        /* \"#utility.yul\":627:634   */\n      not\n        /* \"#utility.yul\":622:624   */\n      0x1f\n        /* \"#utility.yul\":615:620   */\n      dup4\n        /* \"#utility.yul\":611:625   */\n      add\n        /* \"#utility.yul\":607:635   */\n      and\n        /* \"#utility.yul\":597:635   */\n      swap1\n      pop\n        /* \"#utility.yul\":539:641   */\n      swap2\n      swap1\n      pop\n      jump\t// out\n        /* \"#utility.yul\":647:1024   */\n    tag_646:\n        /* \"#utility.yul\":735:738   */\n      0x00\n        /* \"#utility.yul\":763:802   */\n      tag_725\n        /* \"#utility.yul\":796:801   */\n      dup3\n        /* \"#utility.yul\":763:802   */\n      tag_642\n      jump\t// in\n    tag_725:\n        /* \"#utility.yul\":818:889   */\n      tag_726\n        /* \"#utility.yul\":882:888   */\n      dup2\n        /* \"#utility.yul\":877:880   */\n      dup6\n        /* \"#utility.yul\":818:889   */\n      tag_643\n      jump\t// in\n    tag_726:\n        /* \"#utility.yul\":811:889   */\n      swap4\n      pop\n        /* \"#utility.yul\":898:963   */\n      tag_727\n        /* \"#utility.yul\":956:962   */\n      dup2\n        /* \"#utility.yul\":951:954   */\n      dup6\n        /* \"#utility.yul\":944:948   */\n      0x20\n        /* \"#utility.yul\":937:942   */\n      dup7\n        /* \"#utility.yul\":933:949   */\n      add\n        /* \"#utility.yul\":898:963   */\n      tag_644\n      jump\t// in\n    tag_727:\n        /* \"#utility.yul\":988:1017   */\n      tag_728\n        /* \"#utility.yul\":1010:1016   */\n      dup2\n        /* \"#utility.yul\":988:1017   */\n      tag_645\n      jump\t// in\n    tag_728:\n        /* \"#utility.yul\":983:986   */\n      dup5\n        /* \"#utility.yul\":979:1018   */\n      add\n        /* \"#utility.yul\":972:1018   */\n      swap2\n      pop\n        /* \"#utility.yul\":739:1024   */\n      pop\n        /* \"#utility.yul\":647:1024   */\n      swap3\n      swap2\n      pop\n      pop\n      jump\t// out\n        /* \"#utility.yul\":1030:1343   */\n    tag_61:\n        /* \"#utility.yul\":1143:1147   */\n      0x00\n        /* \"#utility.yul\":1181:1183   */\n      0x20\n        /* \"#utility.yul\":1170:1179   */\n      dup3\n        /* \"#utility.yul\":1166:1184   */\n      add\n        /* \"#utility.yul\":1158:1184   */\n      swap1\n      pop\n        /* \"#utility.yul\":1230:1239   */\n      dup2\n        /* \"#utility.yul\":1224:1228   */\n      dup2\n        /* \"#utility.yul\":1220:1240   */\n      sub\n        /* \"#utility.yul\":1216:1217   */\n      0x00\n        /* \"#utility.yul\":1205:1214   */\n      dup4\n        /* \"#utility.yul\":1201:1218   */\n      add\n        /* \"#utility.yul\":1194:1241   */\n      mstore\n        /* \"#utility.yul\":1258:1336   */\n      tag_730\n        /* \"#utility.yul\":1331:1335   */\n      dup2\n        /* \"#utility.yul\":1322:1328   */\n      dup5\n        /* \"#utility.yul\":1258:1336   */\n      tag_646\n      jump\t// in\n    tag_730:\n        /* \"#utility.yul\":1250:1336   */\n      swap1\n      pop\n        /* \"#utility.yul\":1030:1343   */\n      swap3\n      swap2\n      pop\n      pop\n      jump\t// out\n        /* \"#utility.yul\":1430:1547   */\n    tag_648:\n        /* \"#utility.yul\":1539:1540   */\n      0x00\n        /* \"#utility.yul\":1536:1537   */\n      dup1\n        /* \"#utility.yul\":1529:1541   */\n      revert\n        /* \"#utility.yul\":1553:1670   */\n    tag_649:\n        /* \"#utility.yul\":1662:1663   */\n      0x00\n        /* \"#utility.yul\":1659:1660   */\n      dup1\n        /* \"#utility.yul\":1652:1664   */\n      revert\n        /* \"#utility.yul\":1676:1802   */\n    tag_650:\n        /* \"#utility.yul\":1713:1720   */\n      0x00\n        /* \"#utility.yul\":1753:1795   */\n      0xffffffffffffffffffffffffffffffffffffffff\n        /* \"#utility.yul\":1746:1751   */\n      dup3\n        /* \"#utility.yul\":1742:1796   */\n      and\n        /* \"#utility.yul\":1731:1796   */\n      swap1\n      pop\n        /* \"#utility.yul\":1676:1802   */\n      swap2\n      swap1\n      pop\n      jump\t// out\n        /* \"#utility.yul\":1808:1904   */\n    tag_651:\n        /* \"#utility.yul\":1845:1852   */\n      0x00\n        /* \"#utility.yul\":1874:1898   */\n      tag_736\n        /* \"#utility.yul\":1892:1897   */\n      dup3\n        /* \"#utility.yul\":1874:1898   */\n      tag_650\n      jump\t// in\n    tag_736:\n        /* \"#utility.yul\":1863:1898   */\n      swap1\n      pop\n        /* \"#utility.yul\":1808:1904   */\n      swap2\n      swap1\n      pop\n      jump\t// out\n        /* \"#utility.yul\":1910:2032   */\n    tag_652:\n        /* \"#utility.yul\":1983:2007   */\n      tag_738\n        /* \"#utility.yul\":2001:2006   */\n      dup2\n        /* \"#utility.yul\":1983:2007   */\n      tag_651\n      jump\t// in\n    tag_738:\n        /* \"#utility.yul\":1976:1981   */\n      dup2\n        /* \"#utility.yul\":1973:2008   */\n      eq\n        /* \"#utility.yul\":1963:2026   */\n      tag_739\n      jumpi\n        /* \"#utility.yul\":2022:2023   */\n      0x00\n        /* \"#utility.yul\":2019:2020   */\n      dup1\n        /* \"#utility.yul\":2012:2024   */\n      revert\n        /* \"#utility.yul\":1963:2026   */\n    tag_739:\n        /* \"#utility.yul\":1910:2032   */\n      pop\n      jump\t// out\n        /* \"#utility.yul\":2038:2177   */\n    tag_653:\n        /* \"#utility.yul\":2084:2089   */\n      0x00\n        /* \"#utility.yul\":2122:2128   */\n      dup2\n        /* \"#utility.yul\":2109:2129   */\n      calldataload\n        /* \"#utility.yul\":2100:2129   */\n      swap1\n      pop\n        /* \"#utility.yul\":2138:2171   */\n      tag_741\n        /* \"#utility.yul\":2165:2170   */\n      dup2\n        /* \"#utility.yul\":2138:2171   */\n      tag_652\n      jump\t// in\n    tag_741:\n        /* \"#utility.yul\":2038:2177   */\n      swap3\n      swap2\n      pop\n      pop\n      jump\t// out\n        /* \"#utility.yul\":2183:2260   */\n    tag_654:\n        /* \"#utility.yul\":2220:2227   */\n      0x00\n        /* \"#utility.yul\":2249:2254   */\n      dup2\n        /* \"#utility.yul\":2238:2254   */\n      swap1\n      pop\n        /* \"#utility.yul\":2183:2260   */\n      swap2\n      swap1\n      pop\n      jump\t// out\n        /* \"#utility.yul\":2266:2388   */\n    tag_655:\n        /* \"#utility.yul\":2339:2363   */\n      tag_744\n        /* \"#utility.yul\":2357:2362   */\n      dup2\n        /* \"#utility.yul\":2339:2363   */\n      tag_654\n      jump\t// in\n    tag_744:\n        /* \"#utility.yul\":2332:2337   */\n      dup2\n        /* \"#utility.yul\":2329:2364   */\n      eq\n        /* \"#utility.yul\":2319:2382   */\n      tag_745\n      jumpi\n        /* \"#utility.yul\":2378:2379   */\n      0x00\n        /* \"#utility.yul\":2375:2376   */\n      dup1\n        /* \"#utility.yul\":2368:2380   */\n      revert\n        /* \"#utility.yul\":2319:2382   */\n    tag_745:\n        /* \"#utility.yul\":2266:2388   */\n      pop\n      jump\t// out\n        /* \"#utility.yul\":2394:2533   */\n    tag_656:\n        /* \"#utility.yul\":2440:2445   */\n      0x00\n        /* \"#utility.yul\":2478:2484   */\n      dup2\n        /* \"#utility.yul\":2465:2485   */\n      calldataload\n        /* \"#utility.yul\":2456:2485   */\n      swap1\n      pop\n        /* \"#utility.yul\":2494:2527   */\n      tag_747\n        /* \"#utility.yul\":2521:2526   */\n      dup2\n        /* \"#utility.yul\":2494:2527   */\n      tag_655\n      jump\t// in\n    tag_747:\n        /* \"#utility.yul\":2394:2533   */\n      swap3\n      swap2\n      pop\n      pop\n      jump\t// out\n        /* \"#utility.yul\":2539:3013   */\n    tag_65:\n        /* \"#utility.yul\":2607:2613   */\n      0x00\n        /* \"#utility.yul\":2615:2621   */\n      dup1\n        /* \"#utility.yul\":2664:2666   */\n      0x40\n        /* \"#utility.yul\":2652:2661   */\n      dup4\n        /* \"#utility.yul\":2643:2650   */\n      dup6\n        /* \"#utility.yul\":2639:2662   */\n      sub\n        /* \"#utility.yul\":2635:2667   */\n      slt\n        /* \"#utility.yul\":2632:2751   */\n      iszero\n      tag_749\n      jumpi\n        /* \"#utility.yul\":2670:2749   */\n      tag_750\n      tag_648\n      jump\t// in\n    tag_750:\n        /* \"#utility.yul\":2632:2751   */\n    tag_749:\n        /* \"#utility.yul\":2790:2791   */\n      0x00\n        /* \"#utility.yul\":2815:2868   */\n      tag_751\n        /* \"#utility.yul\":2860:2867   */\n      dup6\n        /* \"#utility.yul\":2851:2857   */\n      dup3\n        /* \"#utility.yul\":2840:2849   */\n      dup7\n        /* \"#utility.yul\":2836:2858   */\n      add\n        /* \"#utility.yul\":2815:2868   */\n      tag_653\n      jump\t// in\n    tag_751:\n        /* \"#utility.yul\":2805:2868   */\n      swap3\n      pop\n        /* \"#utility.yul\":2761:2878   */\n      pop\n        /* \"#utility.yul\":2917:2919   */\n      0x20\n        /* \"#utility.yul\":2943:2996   */\n      tag_752\n        /* \"#utility.yul\":2988:2995   */\n      dup6\n        /* \"#utility.yul\":2979:2985   */\n      dup3\n        /* \"#utility.yul\":2968:2977   */\n      dup7\n        /* \"#utility.yul\":2964:2986   */\n      add\n        /* \"#utility.yul\":2943:2996   */\n      tag_656\n      jump\t// in\n    tag_752:\n        /* \"#utility.yul\":2933:2996   */\n      swap2\n      pop\n        /* \"#utility.yul\":2888:3006   */\n      pop\n        /* \"#utility.yul\":2539:3013   */\n      swap3\n      pop\n      swap3\n      swap1\n      pop\n      jump\t// out\n        /* \"#utility.yul\":3019:3109   */\n    tag_657:\n        /* \"#utility.yul\":3053:3060   */\n      0x00\n        /* \"#utility.yul\":3096:3101   */\n      dup2\n        /* \"#utility.yul\":3089:3102   */\n      iszero\n        /* \"#utility.yul\":3082:3103   */\n      iszero\n        /* \"#utility.yul\":3071:3103   */\n      swap1\n      pop\n        /* \"#utility.yul\":3019:3109   */\n      swap2\n      swap1\n      pop\n      jump\t// out\n        /* \"#utility.yul\":3115:3224   */\n    tag_658:\n        /* \"#utility.yul\":3196:3217   */\n      tag_755\n        /* \"#utility.yul\":3211:3216   */\n      dup2\n        /* \"#utility.yul\":3196:3217   */\n      tag_657\n      jump\t// in\n    tag_755:\n        /* \"#utility.yul\":3191:3194   */\n      dup3\n        /* \"#utility.yul\":3184:3218   */\n      mstore\n        /* \"#utility.yul\":3115:3224   */\n      pop\n      pop\n      jump\t// out\n        /* \"#utility.yul\":3230:3440   */\n    tag_68:\n        /* \"#utility.yul\":3317:3321   */\n      0x00\n        /* \"#utility.yul\":3355:3357   */\n      0x20\n        /* \"#utility.yul\":3344:3353   */\n      dup3\n        /* \"#utility.yul\":3340:3358   */\n      add\n        /* \"#utility.yul\":3332:3358   */\n      swap1\n      pop\n        /* \"#utility.yul\":3368:3433   */\n      tag_757\n        /* \"#utility.yul\":3430:3431   */\n      0x00\n        /* \"#utility.yul\":3419:3428   */\n      dup4\n        /* \"#utility.yul\":3415:3432   */\n      add\n        /* \"#utility.yul\":3406:3412   */\n      dup5\n        /* \"#utility.yul\":3368:3433   */\n      tag_658\n      jump\t// in\n    tag_757:\n        /* \"#utility.yul\":3230:3440   */\n      swap3\n      swap2\n      pop\n      pop\n      jump\t// out\n        /* \"#utility.yul\":3446:3775   */\n    tag_72:\n        /* \"#utility.yul\":3505:3511   */\n      0x00\n        /* \"#utility.yul\":3554:3556   */\n      0x20\n        /* \"#utility.yul\":3542:3551   */\n      dup3\n        /* \"#utility.yul\":3533:3540   */\n      dup5\n        /* \"#utility.yul\":3529:3552   */\n      sub\n        /* \"#utility.yul\":3525:3557   */\n      slt\n        /* \"#utility.yul\":3522:3641   */\n      iszero\n      tag_759\n      jumpi\n        /* \"#utility.yul\":3560:3639   */\n      tag_760\n      tag_648\n      jump\t// in\n    tag_760:\n        /* \"#utility.yul\":3522:3641   */\n    tag_759:\n        /* \"#utility.yul\":3680:3681   */\n      0x00\n        /* \"#utility.yul\":3705:3758   */\n      tag_761\n        /* \"#utility.yul\":3750:3757   */\n      dup5\n        /* \"#utility.yul\":3741:3747   */\n      dup3\n        /* \"#utility.yul\":3730:3739   */\n      dup6\n        /* \"#utility.yul\":3726:3748   */\n      add\n        /* \"#utility.yul\":3705:3758   */\n      tag_653\n      jump\t// in\n    tag_761:\n        /* \"#utility.yul\":3695:3758   */\n      swap2\n      pop\n        /* \"#utility.yul\":3651:3768   */\n      pop\n        /* \"#utility.yul\":3446:3775   */\n      swap3\n      swap2\n      pop\n      pop\n      jump\t// out\n        /* \"#utility.yul\":3781:4110   */\n    tag_77:\n        /* \"#utility.yul\":3840:3846   */\n      0x00\n        /* \"#utility.yul\":3889:3891   */\n      0x20\n        /* \"#utility.yul\":3877:3886   */\n      dup3\n        /* \"#utility.yul\":3868:3875   */\n      dup5\n        /* \"#utility.yul\":3864:3887   */\n      sub\n        /* \"#utility.yul\":3860:3892   */\n      slt\n        /* \"#utility.yul\":3857:3976   */\n      iszero\n      tag_763\n      jumpi\n        /* \"#utility.yul\":3895:3974   */\n      tag_764\n      tag_648\n      jump\t// in\n    tag_764:\n        /* \"#utility.yul\":3857:3976   */\n    tag_763:\n        /* \"#utility.yul\":4015:4016   */\n      0x00\n        /* \"#utility.yul\":4040:4093   */\n      tag_765\n        /* \"#utility.yul\":4085:4092   */\n      dup5\n        /* \"#utility.yul\":4076:4082   */\n      dup3\n        /* \"#utility.yul\":4065:4074   */\n      dup6\n        /* \"#utility.yul\":4061:4083   */\n      add\n        /* \"#utility.yul\":4040:4093   */\n      tag_656\n      jump\t// in\n    tag_765:\n        /* \"#utility.yul\":4030:4093   */\n      swap2\n      pop\n        /* \"#utility.yul\":3986:4103   */\n      pop\n        /* \"#utility.yul\":3781:4110   */\n      swap3\n      swap2\n      pop\n      pop\n      jump\t// out\n        /* \"#utility.yul\":4116:4176   */\n    tag_659:\n        /* \"#utility.yul\":4144:4147   */\n      0x00\n        /* \"#utility.yul\":4165:4170   */\n      dup2\n        /* \"#utility.yul\":4158:4170   */\n      swap1\n      pop\n        /* \"#utility.yul\":4116:4176   */\n      swap2\n      swap1\n      pop\n      jump\t// out\n        /* \"#utility.yul\":4182:4324   */\n    tag_660:\n        /* \"#utility.yul\":4232:4241   */\n      0x00\n        /* \"#utility.yul\":4265:4318   */\n      tag_768\n        /* \"#utility.yul\":4283:4317   */\n      tag_769\n        /* \"#utility.yul\":4292:4316   */\n      tag_770\n        /* \"#utility.yul\":4310:4315   */\n      dup5\n        /* \"#utility.yul\":4292:4316   */\n      tag_650\n      jump\t// in\n    tag_770:\n        /* \"#utility.yul\":4283:4317   */\n      tag_659\n      jump\t// in\n    tag_769:\n        /* \"#utility.yul\":4265:4318   */\n      tag_650\n      jump\t// in\n    tag_768:\n        /* \"#utility.yul\":4252:4318   */\n      swap1\n      pop\n        /* \"#utility.yul\":4182:4324   */\n      swap2\n      swap1\n      pop\n      jump\t// out\n        /* \"#utility.yul\":4330:4456   */\n    tag_661:\n        /* \"#utility.yul\":4380:4389   */\n      0x00\n        /* \"#utility.yul\":4413:4450   */\n      tag_772\n        /* \"#utility.yul\":4444:4449   */\n      dup3\n        /* \"#utility.yul\":4413:4450   */\n      tag_660\n      jump\t// in\n    tag_772:\n        /* \"#utility.yul\":4400:4450   */\n      swap1\n      pop\n        /* \"#utility.yul\":4330:4456   */\n      swap2\n      swap1\n      pop\n      jump\t// out\n        /* \"#utility.yul\":4462:4614   */\n    tag_662:\n        /* \"#utility.yul\":4538:4547   */\n      0x00\n        /* \"#utility.yul\":4571:4608   */\n      tag_774\n        /* \"#utility.yul\":4602:4607   */\n      dup3\n        /* \"#utility.yul\":4571:4608   */\n      tag_661\n      jump\t// in\n    tag_774:\n        /* \"#utility.yul\":4558:4608   */\n      swap1\n      pop\n        /* \"#utility.yul\":4462:4614   */\n      swap2\n      swap1\n      pop\n      jump\t// out\n        /* \"#utility.yul\":4620:4803   */\n    tag_663:\n        /* \"#utility.yul\":4733:4796   */\n      tag_776\n        /* \"#utility.yul\":4790:4795   */\n      dup2\n        /* \"#utility.yul\":4733:4796   */\n      tag_662\n      jump\t// in\n    tag_776:\n        /* \"#utility.yul\":4728:4731   */\n      dup3\n        /* \"#utility.yul\":4721:4797   */\n      mstore\n        /* \"#utility.yul\":4620:4803   */\n      pop\n      pop\n      jump\t// out\n        /* \"#utility.yul\":4809:5083   */\n    tag_83:\n        /* \"#utility.yul\":4928:4932   */\n      0x00\n        /* \"#utility.yul\":4966:4968   */\n      0x20\n        /* \"#utility.yul\":4955:4964   */\n      dup3\n        /* \"#utility.yul\":4951:4969   */\n      add\n        /* \"#utility.yul\":4943:4969   */\n      swap1\n      pop\n        /* \"#utility.yul\":4979:5076   */\n      tag_778\n        /* \"#utility.yul\":5073:5074   */\n      0x00\n        /* \"#utility.yul\":5062:5071   */\n      dup4\n        /* \"#utility.yul\":5058:5075   */\n      add\n        /* \"#utility.yul\":5049:5055   */\n      dup5\n        /* \"#utility.yul\":4979:5076   */\n      tag_663\n      jump\t// in\n    tag_778:\n        /* \"#utility.yul\":4809:5083   */\n      swap3\n      swap2\n      pop\n      pop\n      jump\t// out\n        /* \"#utility.yul\":5089:5207   */\n    tag_664:\n        /* \"#utility.yul\":5176:5200   */\n      tag_780\n        /* \"#utility.yul\":5194:5199   */\n      dup2\n        /* \"#utility.yul\":5176:5200   */\n      tag_654\n      jump\t// in\n    tag_780:\n        /* \"#utility.yul\":5171:5174   */\n      dup3\n        /* \"#utility.yul\":5164:5201   */\n      mstore\n        /* \"#utility.yul\":5089:5207   */\n      pop\n      pop\n      jump\t// out\n        /* \"#utility.yul\":5213:5435   */\n    tag_88:\n        /* \"#utility.yul\":5306:5310   */\n      0x00\n        /* \"#utility.yul\":5344:5346   */\n      0x20\n        /* \"#utility.yul\":5333:5342   */\n      dup3\n        /* \"#utility.yul\":5329:5347   */\n      add\n        /* \"#utility.yul\":5321:5347   */\n      swap1\n      pop\n        /* \"#utility.yul\":5357:5428   */\n      tag_782\n        /* \"#utility.yul\":5425:5426   */\n      0x00\n        /* \"#utility.yul\":5414:5423   */\n      dup4\n        /* \"#utility.yul\":5410:5427   */\n      add\n        /* \"#utility.yul\":5401:5407   */\n      dup5\n        /* \"#utility.yul\":5357:5428   */\n      tag_664\n      jump\t// in\n    tag_782:\n        /* \"#utility.yul\":5213:5435   */\n      swap3\n      swap2\n      pop\n      pop\n      jump\t// out\n        /* \"#utility.yul\":5441:5558   */\n    tag_665:\n        /* \"#utility.yul\":5550:5551   */\n      0x00\n        /* \"#utility.yul\":5547:5548   */\n      dup1\n        /* \"#utility.yul\":5540:5552   */\n      revert\n        /* \"#utility.yul\":5564:5681   */\n    tag_666:\n        /* \"#utility.yul\":5673:5674   */\n      0x00\n        /* \"#utility.yul\":5670:5671   */\n      dup1\n        /* \"#utility.yul\":5663:5675   */\n      revert\n        /* \"#utility.yul\":5687:5804   */\n    tag_667:\n        /* \"#utility.yul\":5796:5797   */\n      0x00\n        /* \"#utility.yul\":5793:5794   */\n      dup1\n        /* \"#utility.yul\":5786:5798   */\n      revert\n        /* \"#utility.yul\":5827:6395   */\n    tag_668:\n        /* \"#utility.yul\":5900:5908   */\n      0x00\n        /* \"#utility.yul\":5910:5916   */\n      dup1\n        /* \"#utility.yul\":5960:5963   */\n      dup4\n        /* \"#utility.yul\":5953:5957   */\n      0x1f\n        /* \"#utility.yul\":5945:5951   */\n      dup5\n        /* \"#utility.yul\":5941:5958   */\n      add\n        /* \"#utility.yul\":5937:5964   */\n      slt\n        /* \"#utility.yul\":5927:6049   */\n      tag_787\n      jumpi\n        /* \"#utility.yul\":5968:6047   */\n      tag_788\n      tag_665\n      jump\t// in\n    tag_788:\n        /* \"#utility.yul\":5927:6049   */\n    tag_787:\n        /* \"#utility.yul\":6081:6087   */\n      dup3\n        /* \"#utility.yul\":6068:6088   */\n      calldataload\n        /* \"#utility.yul\":6058:6088   */\n      swap1\n      pop\n        /* \"#utility.yul\":6111:6129   */\n      0xffffffffffffffff\n        /* \"#utility.yul\":6103:6109   */\n      dup2\n        /* \"#utility.yul\":6100:6130   */\n      gt\n        /* \"#utility.yul\":6097:6214   */\n      iszero\n      tag_789\n      jumpi\n        /* \"#utility.yul\":6133:6212   */\n      tag_790\n      tag_666\n      jump\t// in\n    tag_790:\n        /* \"#utility.yul\":6097:6214   */\n    tag_789:\n        /* \"#utility.yul\":6247:6251   */\n      0x20\n        /* \"#utility.yul\":6239:6245   */\n      dup4\n        /* \"#utility.yul\":6235:6252   */\n      add\n        /* \"#utility.yul\":6223:6252   */\n      swap2\n      pop\n        /* \"#utility.yul\":6301:6304   */\n      dup4\n        /* \"#utility.yul\":6293:6297   */\n      0x20\n        /* \"#utility.yul\":6285:6291   */\n      dup3\n        /* \"#utility.yul\":6281:6298   */\n      mul\n        /* \"#utility.yul\":6271:6279   */\n      dup4\n        /* \"#utility.yul\":6267:6299   */\n      add\n        /* \"#utility.yul\":6264:6305   */\n      gt\n        /* \"#utility.yul\":6261:6389   */\n      iszero\n      tag_791\n      jumpi\n        /* \"#utility.yul\":6308:6387   */\n      tag_792\n      tag_667\n      jump\t// in\n    tag_792:\n        /* \"#utility.yul\":6261:6389   */\n    tag_791:\n        /* \"#utility.yul\":5827:6395   */\n      swap3\n      pop\n      swap3\n      swap1\n      pop\n      jump\t// out\n        /* \"#utility.yul\":6401:6960   */\n    tag_92:\n        /* \"#utility.yul\":6487:6493   */\n      0x00\n        /* \"#utility.yul\":6495:6501   */\n      dup1\n        /* \"#utility.yul\":6544:6546   */\n      0x20\n        /* \"#utility.yul\":6532:6541   */\n      dup4\n        /* \"#utility.yul\":6523:6530   */\n      dup6\n        /* \"#utility.yul\":6519:6542   */\n      sub\n        /* \"#utility.yul\":6515:6547   */\n      slt\n        /* \"#utility.yul\":6512:6631   */\n      iszero\n      tag_794\n      jumpi\n        /* \"#utility.yul\":6550:6629   */\n      tag_795\n      tag_648\n      jump\t// in\n    tag_795:\n        /* \"#utility.yul\":6512:6631   */\n    tag_794:\n        /* \"#utility.yul\":6698:6699   */\n      0x00\n        /* \"#utility.yul\":6687:6696   */\n      dup4\n        /* \"#utility.yul\":6683:6700   */\n      add\n        /* \"#utility.yul\":6670:6701   */\n      calldataload\n        /* \"#utility.yul\":6728:6746   */\n      0xffffffffffffffff\n        /* \"#utility.yul\":6720:6726   */\n      dup2\n        /* \"#utility.yul\":6717:6747   */\n      gt\n        /* \"#utility.yul\":6714:6831   */\n      iszero\n      tag_796\n      jumpi\n        /* \"#utility.yul\":6750:6829   */\n      tag_797\n      tag_649\n      jump\t// in\n    tag_797:\n        /* \"#utility.yul\":6714:6831   */\n    tag_796:\n        /* \"#utility.yul\":6863:6943   */\n      tag_798\n        /* \"#utility.yul\":6935:6942   */\n      dup6\n        /* \"#utility.yul\":6926:6932   */\n      dup3\n        /* \"#utility.yul\":6915:6924   */\n      dup7\n        /* \"#utility.yul\":6911:6933   */\n      add\n        /* \"#utility.yul\":6863:6943   */\n      tag_668\n      jump\t// in\n    tag_798:\n        /* \"#utility.yul\":6845:6943   */\n      swap3\n      pop\n      swap3\n      pop\n        /* \"#utility.yul\":6641:6953   */\n      pop\n        /* \"#utility.yul\":6401:6960   */\n      swap3\n      pop\n      swap3\n      swap1\n      pop\n      jump\t// out\n        /* \"#utility.yul\":6966:7585   */\n    tag_102:\n        /* \"#utility.yul\":7043:7049   */\n      0x00\n        /* \"#utility.yul\":7051:7057   */\n      dup1\n        /* \"#utility.yul\":7059:7065   */\n      0x00\n        /* \"#utility.yul\":7108:7110   */\n      0x60\n        /* \"#utility.yul\":7096:7105   */\n      dup5\n        /* \"#utility.yul\":7087:7094   */\n      dup7\n        /* \"#utility.yul\":7083:7106   */\n      sub\n        /* \"#utility.yul\":7079:7111   */\n      slt\n        /* \"#utility.yul\":7076:7195   */\n      iszero\n      tag_800\n      jumpi\n        /* \"#utility.yul\":7114:7193   */\n      tag_801\n      tag_648\n      jump\t// in\n    tag_801:\n        /* \"#utility.yul\":7076:7195   */\n    tag_800:\n        /* \"#utility.yul\":7234:7235   */\n      0x00\n        /* \"#utility.yul\":7259:7312   */\n      tag_802\n        /* \"#utility.yul\":7304:7311   */\n      dup7\n        /* \"#utility.yul\":7295:7301   */\n      dup3\n        /* \"#utility.yul\":7284:7293   */\n      dup8\n        /* \"#utility.yul\":7280:7302   */\n      add\n        /* \"#utility.yul\":7259:7312   */\n      tag_653\n      jump\t// in\n    tag_802:\n        /* \"#utility.yul\":7249:7312   */\n      swap4\n      pop\n        /* \"#utility.yul\":7205:7322   */\n      pop\n        /* \"#utility.yul\":7361:7363   */\n      0x20\n        /* \"#utility.yul\":7387:7440   */\n      tag_803\n        /* \"#utility.yul\":7432:7439   */\n      dup7\n        /* \"#utility.yul\":7423:7429   */\n      dup3\n        /* \"#utility.yul\":7412:7421   */\n      dup8\n        /* \"#utility.yul\":7408:7430   */\n      add\n        /* \"#utility.yul\":7387:7440   */\n      tag_653\n      jump\t// in\n    tag_803:\n        /* \"#utility.yul\":7377:7440   */\n      swap3\n      pop\n        /* \"#utility.yul\":7332:7450   */\n      pop\n        /* \"#utility.yul\":7489:7491   */\n      0x40\n        /* \"#utility.yul\":7515:7568   */\n      tag_804\n        /* \"#utility.yul\":7560:7567   */\n      dup7\n        /* \"#utility.yul\":7551:7557   */\n      dup3\n        /* \"#utility.yul\":7540:7549   */\n      dup8\n        /* \"#utility.yul\":7536:7558   */\n      add\n        /* \"#utility.yul\":7515:7568   */\n      tag_656\n      jump\t// in\n    tag_804:\n        /* \"#utility.yul\":7505:7568   */\n      swap2\n      pop\n        /* \"#utility.yul\":7460:7578   */\n      pop\n        /* \"#utility.yul\":6966:7585   */\n      swap3\n      pop\n      swap3\n      pop\n      swap3\n      jump\t// out\n        /* \"#utility.yul\":7591:7677   */\n    tag_669:\n        /* \"#utility.yul\":7626:7633   */\n      0x00\n        /* \"#utility.yul\":7666:7670   */\n      0xff\n        /* \"#utility.yul\":7659:7664   */\n      dup3\n        /* \"#utility.yul\":7655:7671   */\n      and\n        /* \"#utility.yul\":7644:7671   */\n      swap1\n      pop\n        /* \"#utility.yul\":7591:7677   */\n      swap2\n      swap1\n      pop\n      jump\t// out\n        /* \"#utility.yul\":7683:7795   */\n    tag_670:\n        /* \"#utility.yul\":7766:7788   */\n      tag_807\n        /* \"#utility.yul\":7782:7787   */\n      dup2\n        /* \"#utility.yul\":7766:7788   */\n      tag_669\n      jump\t// in\n    tag_807:\n        /* \"#utility.yul\":7761:7764   */\n      dup3\n        /* \"#utility.yul\":7754:7789   */\n      mstore\n        /* \"#utility.yul\":7683:7795   */\n      pop\n      pop\n      jump\t// out\n        /* \"#utility.yul\":7801:8015   */\n    tag_122:\n        /* \"#utility.yul\":7890:7894   */\n      0x00\n        /* \"#utility.yul\":7928:7930   */\n      0x20\n        /* \"#utility.yul\":7917:7926   */\n      dup3\n        /* \"#utility.yul\":7913:7931   */\n      add\n        /* \"#utility.yul\":7905:7931   */\n      swap1\n      pop\n        /* \"#utility.yul\":7941:8008   */\n      tag_809\n        /* \"#utility.yul\":8005:8006   */\n      0x00\n        /* \"#utility.yul\":7994:8003   */\n      dup4\n        /* \"#utility.yul\":7990:8007   */\n      add\n        /* \"#utility.yul\":7981:7987   */\n      dup5\n        /* \"#utility.yul\":7941:8008   */\n      tag_670\n      jump\t// in\n    tag_809:\n        /* \"#utility.yul\":7801:8015   */\n      swap3\n      swap2\n      pop\n      pop\n      jump\t// out\n        /* \"#utility.yul\":8021:8139   */\n    tag_671:\n        /* \"#utility.yul\":8108:8132   */\n      tag_811\n        /* \"#utility.yul\":8126:8131   */\n      dup2\n        /* \"#utility.yul\":8108:8132   */\n      tag_651\n      jump\t// in\n    tag_811:\n        /* \"#utility.yul\":8103:8106   */\n      dup3\n        /* \"#utility.yul\":8096:8133   */\n      mstore\n        /* \"#utility.yul\":8021:8139   */\n      pop\n      pop\n      jump\t// out\n        /* \"#utility.yul\":8145:8367   */\n    tag_148:\n        /* \"#utility.yul\":8238:8242   */\n      0x00\n        /* \"#utility.yul\":8276:8278   */\n      0x20\n        /* \"#utility.yul\":8265:8274   */\n      dup3\n        /* \"#utility.yul\":8261:8279   */\n      add\n        /* \"#utility.yul\":8253:8279   */\n      swap1\n      pop\n        /* \"#utility.yul\":8289:8360   */\n      tag_813\n        /* \"#utility.yul\":8357:8358   */\n      0x00\n        /* \"#utility.yul\":8346:8355   */\n      dup4\n        /* \"#utility.yul\":8342:8359   */\n      add\n        /* \"#utility.yul\":8333:8339   */\n      dup5\n        /* \"#utility.yul\":8289:8360   */\n      tag_671\n      jump\t// in\n    tag_813:\n        /* \"#utility.yul\":8145:8367   */\n      swap3\n      swap2\n      pop\n      pop\n      jump\t// out\n        /* \"#utility.yul\":8373:8847   */\n    tag_160:\n        /* \"#utility.yul\":8441:8447   */\n      0x00\n        /* \"#utility.yul\":8449:8455   */\n      dup1\n        /* \"#utility.yul\":8498:8500   */\n      0x40\n        /* \"#utility.yul\":8486:8495   */\n      dup4\n        /* \"#utility.yul\":8477:8484   */\n      dup6\n        /* \"#utility.yul\":8473:8496   */\n      sub\n        /* \"#utility.yul\":8469:8501   */\n      slt\n        /* \"#utility.yul\":8466:8585   */\n      iszero\n      tag_815\n      jumpi\n        /* \"#utility.yul\":8504:8583   */\n      tag_816\n      tag_648\n      jump\t// in\n    tag_816:\n        /* \"#utility.yul\":8466:8585   */\n    tag_815:\n        /* \"#utility.yul\":8624:8625   */\n      0x00\n        /* \"#utility.yul\":8649:8702   */\n      tag_817\n        /* \"#utility.yul\":8694:8701   */\n      dup6\n        /* \"#utility.yul\":8685:8691   */\n      dup3\n        /* \"#utility.yul\":8674:8683   */\n      dup7\n        /* \"#utility.yul\":8670:8692   */\n      add\n        /* \"#utility.yul\":8649:8702   */\n      tag_656\n      jump\t// in\n    tag_817:\n        /* \"#utility.yul\":8639:8702   */\n      swap3\n      pop\n        /* \"#utility.yul\":8595:8712   */\n      pop\n        /* \"#utility.yul\":8751:8753   */\n      0x20\n        /* \"#utility.yul\":8777:8830   */\n      tag_818\n        /* \"#utility.yul\":8822:8829   */\n      dup6\n        /* \"#utility.yul\":8813:8819   */\n      dup3\n        /* \"#utility.yul\":8802:8811   */\n      dup7\n        /* \"#utility.yul\":8798:8820   */\n      add\n        /* \"#utility.yul\":8777:8830   */\n      tag_656\n      jump\t// in\n    tag_818:\n        /* \"#utility.yul\":8767:8830   */\n      swap2\n      pop\n        /* \"#utility.yul\":8722:8840   */\n      pop\n        /* \"#utility.yul\":8373:8847   */\n      swap3\n      pop\n      swap3\n      swap1\n      pop\n      jump\t// out\n        /* \"#utility.yul\":8853:8971   */\n    tag_672:\n        /* \"#utility.yul\":8924:8946   */\n      tag_820\n        /* \"#utility.yul\":8940:8945   */\n      dup2\n        /* \"#utility.yul\":8924:8946   */\n      tag_669\n      jump\t// in\n    tag_820:\n        /* \"#utility.yul\":8917:8922   */\n      dup2\n        /* \"#utility.yul\":8914:8947   */\n      eq\n        /* \"#utility.yul\":8904:8965   */\n      tag_821\n      jumpi\n        /* \"#utility.yul\":8961:8962   */\n      0x00\n        /* \"#utility.yul\":8958:8959   */\n      dup1\n        /* \"#utility.yul\":8951:8963   */\n      revert\n        /* \"#utility.yul\":8904:8965   */\n    tag_821:\n        /* \"#utility.yul\":8853:8971   */\n      pop\n      jump\t// out\n        /* \"#utility.yul\":8977:9112   */\n    tag_673:\n        /* \"#utility.yul\":9021:9026   */\n      0x00\n        /* \"#utility.yul\":9059:9065   */\n      dup2\n        /* \"#utility.yul\":9046:9066   */\n      calldataload\n        /* \"#utility.yul\":9037:9066   */\n      swap1\n      pop\n        /* \"#utility.yul\":9075:9106   */\n      tag_823\n        /* \"#utility.yul\":9100:9105   */\n      dup2\n        /* \"#utility.yul\":9075:9106   */\n      tag_672\n      jump\t// in\n    tag_823:\n        /* \"#utility.yul\":8977:9112   */\n      swap3\n      swap2\n      pop\n      pop\n      jump\t// out\n        /* \"#utility.yul\":9118:9443   */\n    tag_178:\n        /* \"#utility.yul\":9175:9181   */\n      0x00\n        /* \"#utility.yul\":9224:9226   */\n      0x20\n        /* \"#utility.yul\":9212:9221   */\n      dup3\n        /* \"#utility.yul\":9203:9210   */\n      dup5\n        /* \"#utility.yul\":9199:9222   */\n      sub\n        /* \"#utility.yul\":9195:9227   */\n      slt\n        /* \"#utility.yul\":9192:9311   */\n      iszero\n      tag_825\n      jumpi\n        /* \"#utility.yul\":9230:9309   */\n      tag_826\n      tag_648\n      jump\t// in\n    tag_826:\n        /* \"#utility.yul\":9192:9311   */\n    tag_825:\n        /* \"#utility.yul\":9350:9351   */\n      0x00\n        /* \"#utility.yul\":9375:9426   */\n      tag_827\n        /* \"#utility.yul\":9418:9425   */\n      dup5\n        /* \"#utility.yul\":9409:9415   */\n      dup3\n        /* \"#utility.yul\":9398:9407   */\n      dup6\n        /* \"#utility.yul\":9394:9416   */\n      add\n        /* \"#utility.yul\":9375:9426   */\n      tag_673\n      jump\t// in\n    tag_827:\n        /* \"#utility.yul\":9365:9426   */\n      swap2\n      pop\n        /* \"#utility.yul\":9321:9436   */\n      pop\n        /* \"#utility.yul\":9118:9443   */\n      swap3\n      swap2\n      pop\n      pop\n      jump\t// out\n        /* \"#utility.yul\":9449:9565   */\n    tag_674:\n        /* \"#utility.yul\":9519:9540   */\n      tag_829\n        /* \"#utility.yul\":9534:9539   */\n      dup2\n        /* \"#utility.yul\":9519:9540   */\n      tag_657\n      jump\t// in\n    tag_829:\n        /* \"#utility.yul\":9512:9517   */\n      dup2\n        /* \"#utility.yul\":9509:9541   */\n      eq\n        /* \"#utility.yul\":9499:9559   */\n      tag_830\n      jumpi\n        /* \"#utility.yul\":9555:9556   */\n      0x00\n        /* \"#utility.yul\":9552:9553   */\n      dup1\n        /* \"#utility.yul\":9545:9557   */\n      revert\n        /* \"#utility.yul\":9499:9559   */\n    tag_830:\n        /* \"#utility.yul\":9449:9565   */\n      pop\n      jump\t// out\n        /* \"#utility.yul\":9571:9704   */\n    tag_675:\n        /* \"#utility.yul\":9614:9619   */\n      0x00\n        /* \"#utility.yul\":9652:9658   */\n      dup2\n        /* \"#utility.yul\":9639:9659   */\n      calldataload\n        /* \"#utility.yul\":9630:9659   */\n      swap1\n      pop\n        /* \"#utility.yul\":9668:9698   */\n      tag_832\n        /* \"#utility.yul\":9692:9697   */\n      dup2\n        /* \"#utility.yul\":9668:9698   */\n      tag_674\n      jump\t// in\n    tag_832:\n        /* \"#utility.yul\":9571:9704   */\n      swap3\n      swap2\n      pop\n      pop\n      jump\t// out\n        /* \"#utility.yul\":9710:10033   */\n    tag_203:\n        /* \"#utility.yul\":9766:9772   */\n      0x00\n        /* \"#utility.yul\":9815:9817   */\n      0x20\n        /* \"#utility.yul\":9803:9812   */\n      dup3\n        /* \"#utility.yul\":9794:9801   */\n      dup5\n        /* \"#utility.yul\":9790:9813   */\n      sub\n        /* \"#utility.yul\":9786:9818   */\n      slt\n        /* \"#utility.yul\":9783:9902   */\n      iszero\n      tag_834\n      jumpi\n        /* \"#utility.yul\":9821:9900   */\n      tag_835\n      tag_648\n      jump\t// in\n    tag_835:\n        /* \"#utility.yul\":9783:9902   */\n    tag_834:\n        /* \"#utility.yul\":9941:9942   */\n      0x00\n        /* \"#utility.yul\":9966:10016   */\n      tag_836\n        /* \"#utility.yul\":10008:10015   */\n      dup5\n        /* \"#utility.yul\":9999:10005   */\n      dup3\n        /* \"#utility.yul\":9988:9997   */\n      dup6\n        /* \"#utility.yul\":9984:10006   */\n      add\n        /* \"#utility.yul\":9966:10016   */\n      tag_675\n      jump\t// in\n    tag_836:\n        /* \"#utility.yul\":9956:10016   */\n      swap2\n      pop\n        /* \"#utility.yul\":9912:10026   */\n      pop\n        /* \"#utility.yul\":9710:10033   */\n      swap3\n      swap2\n      pop\n      pop\n      jump\t// out\n        /* \"#utility.yul\":10039:10513   */\n    tag_242:\n        /* \"#utility.yul\":10107:10113   */\n      0x00\n        /* \"#utility.yul\":10115:10121   */\n      dup1\n        /* \"#utility.yul\":10164:10166   */\n      0x40\n        /* \"#utility.yul\":10152:10161   */\n      dup4\n        /* \"#utility.yul\":10143:10150   */\n      dup6\n        /* \"#utility.yul\":10139:10162   */\n      sub\n        /* \"#utility.yul\":10135:10167   */\n      slt\n        /* \"#utility.yul\":10132:10251   */\n      iszero\n      tag_838\n      jumpi\n        /* \"#utility.yul\":10170:10249   */\n      tag_839\n      tag_648\n      jump\t// in\n    tag_839:\n        /* \"#utility.yul\":10132:10251   */\n    tag_838:\n        /* \"#utility.yul\":10290:10291   */\n      0x00\n        /* \"#utility.yul\":10315:10368   */\n      tag_840\n        /* \"#utility.yul\":10360:10367   */\n      dup6\n        /* \"#utility.yul\":10351:10357   */\n      dup3\n        /* \"#utility.yul\":10340:10349   */\n      dup7\n        /* \"#utility.yul\":10336:10358   */\n      add\n        /* \"#utility.yul\":10315:10368   */\n      tag_653\n      jump\t// in\n    tag_840:\n        /* \"#utility.yul\":10305:10368   */\n      swap3\n      pop\n        /* \"#utility.yul\":10261:10378   */\n      pop\n        /* \"#utility.yul\":10417:10419   */\n      0x20\n        /* \"#utility.yul\":10443:10496   */\n      tag_841\n        /* \"#utility.yul\":10488:10495   */\n      dup6\n        /* \"#utility.yul\":10479:10485   */\n      dup3\n        /* \"#utility.yul\":10468:10477   */\n      dup7\n        /* \"#utility.yul\":10464:10486   */\n      add\n        /* \"#utility.yul\":10443:10496   */\n      tag_653\n      jump\t// in\n    tag_841:\n        /* \"#utility.yul\":10433:10496   */\n      swap2\n      pop\n        /* \"#utility.yul\":10388:10506   */\n      pop\n        /* \"#utility.yul\":10039:10513   */\n      swap3\n      pop\n      swap3\n      swap1\n      pop\n      jump\t// out\n        /* \"#utility.yul\":10519:10623   */\n    tag_676:\n        /* \"#utility.yul\":10564:10571   */\n      0x00\n        /* \"#utility.yul\":10593:10617   */\n      tag_843\n        /* \"#utility.yul\":10611:10616   */\n      dup3\n        /* \"#utility.yul\":10593:10617   */\n      tag_650\n      jump\t// in\n    tag_843:\n        /* \"#utility.yul\":10582:10617   */\n      swap1\n      pop\n        /* \"#utility.yul\":10519:10623   */\n      swap2\n      swap1\n      pop\n      jump\t// out\n        /* \"#utility.yul\":10629:10767   */\n    tag_677:\n        /* \"#utility.yul\":10710:10742   */\n      tag_845\n        /* \"#utility.yul\":10736:10741   */\n      dup2\n        /* \"#utility.yul\":10710:10742   */\n      tag_676\n      jump\t// in\n    tag_845:\n        /* \"#utility.yul\":10703:10708   */\n      dup2\n        /* \"#utility.yul\":10700:10743   */\n      eq\n        /* \"#utility.yul\":10690:10761   */\n      tag_846\n      jumpi\n        /* \"#utility.yul\":10757:10758   */\n      0x00\n        /* \"#utility.yul\":10754:10755   */\n      dup1\n        /* \"#utility.yul\":10747:10759   */\n      revert\n        /* \"#utility.yul\":10690:10761   */\n    tag_846:\n        /* \"#utility.yul\":10629:10767   */\n      pop\n      jump\t// out\n        /* \"#utility.yul\":10773:10928   */\n    tag_678:\n        /* \"#utility.yul\":10827:10832   */\n      0x00\n        /* \"#utility.yul\":10865:10871   */\n      dup2\n        /* \"#utility.yul\":10852:10872   */\n      calldataload\n        /* \"#utility.yul\":10843:10872   */\n      swap1\n      pop\n        /* \"#utility.yul\":10881:10922   */\n      tag_848\n        /* \"#utility.yul\":10916:10921   */\n      dup2\n        /* \"#utility.yul\":10881:10922   */\n      tag_677\n      jump\t// in\n    tag_848:\n        /* \"#utility.yul\":10773:10928   */\n      swap3\n      swap2\n      pop\n      pop\n      jump\t// out\n        /* \"#utility.yul\":10934:11279   */\n    tag_256:\n        /* \"#utility.yul\":11001:11007   */\n      0x00\n        /* \"#utility.yul\":11050:11052   */\n      0x20\n        /* \"#utility.yul\":11038:11047   */\n      dup3\n        /* \"#utility.yul\":11029:11036   */\n      dup5\n        /* \"#utility.yul\":11025:11048   */\n      sub\n        /* \"#utility.yul\":11021:11053   */\n      slt\n        /* \"#utility.yul\":11018:11137   */\n      iszero\n      tag_850\n      jumpi\n        /* \"#utility.yul\":11056:11135   */\n      tag_851\n      tag_648\n      jump\t// in\n    tag_851:\n        /* \"#utility.yul\":11018:11137   */\n    tag_850:\n        /* \"#utility.yul\":11176:11177   */\n      0x00\n        /* \"#utility.yul\":11201:11262   */\n      tag_852\n        /* \"#utility.yul\":11254:11261   */\n      dup5\n        /* \"#utility.yul\":11245:11251   */\n      dup3\n        /* \"#utility.yul\":11234:11243   */\n      dup6\n        /* \"#utility.yul\":11230:11252   */\n      add\n        /* \"#utility.yul\":11201:11262   */\n      tag_678\n      jump\t// in\n    tag_852:\n        /* \"#utility.yul\":11191:11262   */\n      swap2\n      pop\n        /* \"#utility.yul\":11147:11272   */\n      pop\n        /* \"#utility.yul\":10934:11279   */\n      swap3\n      swap2\n      pop\n      pop\n      jump\t// out\n        /* \"#utility.yul\":11285:11467   */\n    tag_679:\n        /* \"#utility.yul\":11425:11459   */\n      0x4f776e61626c653a2063616c6c6572206973206e6f7420746865206f776e6572\n        /* \"#utility.yul\":11421:11422   */\n      0x00\n        /* \"#utility.yul\":11413:11419   */\n      dup3\n        /* \"#utility.yul\":11409:11423   */\n      add\n        /* \"#utility.yul\":11402:11460   */\n      mstore\n        /* \"#utility.yul\":11285:11467   */\n      pop\n      jump\t// out\n        /* \"#utility.yul\":11473:11839   */\n    tag_680:\n        /* \"#utility.yul\":11615:11618   */\n      0x00\n        /* \"#utility.yul\":11636:11703   */\n      tag_855\n        /* \"#utility.yul\":11700:11702   */\n      0x20\n        /* \"#utility.yul\":11695:11698   */\n      dup4\n        /* \"#utility.yul\":11636:11703   */\n      tag_643\n      jump\t// in\n    tag_855:\n        /* \"#utility.yul\":11629:11703   */\n      swap2\n      pop\n        /* \"#utility.yul\":11712:11805   */\n      tag_856\n        /* \"#utility.yul\":11801:11804   */\n      dup3\n        /* \"#utility.yul\":11712:11805   */\n      tag_679\n      jump\t// in\n    tag_856:\n        /* \"#utility.yul\":11830:11832   */\n      0x20\n        /* \"#utility.yul\":11825:11828   */\n      dup3\n        /* \"#utility.yul\":11821:11833   */\n      add\n        /* \"#utility.yul\":11814:11833   */\n      swap1\n      pop\n        /* \"#utility.yul\":11473:11839   */\n      swap2\n      swap1\n      pop\n      jump\t// out\n        /* \"#utility.yul\":11845:12264   */\n    tag_275:\n        /* \"#utility.yul\":12011:12015   */\n      0x00\n        /* \"#utility.yul\":12049:12051   */\n      0x20\n        /* \"#utility.yul\":12038:12047   */\n      dup3\n        /* \"#utility.yul\":12034:12052   */\n      add\n        /* \"#utility.yul\":12026:12052   */\n      swap1\n      pop\n        /* \"#utility.yul\":12098:12107   */\n      dup2\n        /* \"#utility.yul\":12092:12096   */\n      dup2\n        /* \"#utility.yul\":12088:12108   */\n      sub\n        /* \"#utility.yul\":12084:12085   */\n      0x00\n        /* \"#utility.yul\":12073:12082   */\n      dup4\n        /* \"#utility.yul\":12069:12086   */\n      add\n        /* \"#utility.yul\":12062:12109   */\n      mstore\n        /* \"#utility.yul\":12126:12257   */\n      tag_858\n        /* \"#utility.yul\":12252:12256   */\n      dup2\n        /* \"#utility.yul\":12126:12257   */\n      tag_680\n      jump\t// in\n    tag_858:\n        /* \"#utility.yul\":12118:12257   */\n      swap1\n      pop\n        /* \"#utility.yul\":11845:12264   */\n      swap2\n      swap1\n      pop\n      jump\t// out\n        /* \"#utility.yul\":12270:12437   */\n    tag_681:\n        /* \"#utility.yul\":12410:12429   */\n      0x4552523a207a65726f2061646472657373000000000000000000000000000000\n        /* \"#utility.yul\":12406:12407   */\n      0x00\n        /* \"#utility.yul\":12398:12404   */\n      dup3\n        /* \"#utility.yul\":12394:12408   */\n      add\n        /* \"#utility.yul\":12387:12430   */\n      mstore\n        /* \"#utility.yul\":12270:12437   */\n      pop\n      jump\t// out\n        /* \"#utility.yul\":12443:12809   */\n    tag_682:\n        /* \"#utility.yul\":12585:12588   */\n      0x00\n        /* \"#utility.yul\":12606:12673   */\n      tag_861\n        /* \"#utility.yul\":12670:12672   */\n      0x11\n        /* \"#utility.yul\":12665:12668   */\n      dup4\n        /* \"#utility.yul\":12606:12673   */\n      tag_643\n      jump\t// in\n    tag_861:\n        /* \"#utility.yul\":12599:12673   */\n      swap2\n      pop\n        /* \"#utility.yul\":12682:12775   */\n      tag_862\n        /* \"#utility.yul\":12771:12774   */\n      dup3\n        /* \"#utility.yul\":12682:12775   */\n      tag_681\n      jump\t// in\n    tag_862:\n        /* \"#utility.yul\":12800:12802   */\n      0x20\n        /* \"#utility.yul\":12795:12798   */\n      dup3\n        /* \"#utility.yul\":12791:12803   */\n      add\n        /* \"#utility.yul\":12784:12803   */\n      swap1\n      pop\n        /* \"#utility.yul\":12443:12809   */\n      swap2\n      swap1\n      pop\n      jump\t// out\n        /* \"#utility.yul\":12815:13234   */\n    tag_279:\n        /* \"#utility.yul\":12981:12985   */\n      0x00\n        /* \"#utility.yul\":13019:13021   */\n      0x20\n        /* \"#utility.yul\":13008:13017   */\n      dup3\n        /* \"#utility.yul\":13004:13022   */\n      add\n        /* \"#utility.yul\":12996:13022   */\n      swap1\n      pop\n        /* \"#utility.yul\":13068:13077   */\n      dup2\n        /* \"#utility.yul\":13062:13066   */\n      dup2\n        /* \"#utility.yul\":13058:13078   */\n      sub\n        /* \"#utility.yul\":13054:13055   */\n      0x00\n        /* \"#utility.yul\":13043:13052   */\n      dup4\n        /* \"#utility.yul\":13039:13056   */\n      add\n        /* \"#utility.yul\":13032:13079   */\n      mstore\n        /* \"#utility.yul\":13096:13227   */\n      tag_864\n        /* \"#utility.yul\":13222:13226   */\n      dup2\n        /* \"#utility.yul\":13096:13227   */\n      tag_682\n      jump\t// in\n    tag_864:\n        /* \"#utility.yul\":13088:13227   */\n      swap1\n      pop\n        /* \"#utility.yul\":12815:13234   */\n      swap2\n      swap1\n      pop\n      jump\t// out\n        /* \"#utility.yul\":13240:13383   */\n    tag_683:\n        /* \"#utility.yul\":13297:13302   */\n      0x00\n        /* \"#utility.yul\":13328:13334   */\n      dup2\n        /* \"#utility.yul\":13322:13335   */\n      mload\n        /* \"#utility.yul\":13313:13335   */\n      swap1\n      pop\n        /* \"#utility.yul\":13344:13377   */\n      tag_866\n        /* \"#utility.yul\":13371:13376   */\n      dup2\n        /* \"#utility.yul\":13344:13377   */\n      tag_652\n      jump\t// in\n    tag_866:\n        /* \"#utility.yul\":13240:13383   */\n      swap3\n      swap2\n      pop\n      pop\n      jump\t// out\n        /* \"#utility.yul\":13389:13740   */\n    tag_283:\n        /* \"#utility.yul\":13459:13465   */\n      0x00\n        /* \"#utility.yul\":13508:13510   */\n      0x20\n        /* \"#utility.yul\":13496:13505   */\n      dup3\n        /* \"#utility.yul\":13487:13494   */\n      dup5\n        /* \"#utility.yul\":13483:13506   */\n      sub\n        /* \"#utility.yul\":13479:13511   */\n      slt\n        /* \"#utility.yul\":13476:13595   */\n      iszero\n      tag_868\n      jumpi\n        /* \"#utility.yul\":13514:13593   */\n      tag_869\n      tag_648\n      jump\t// in\n    tag_869:\n        /* \"#utility.yul\":13476:13595   */\n    tag_868:\n        /* \"#utility.yul\":13634:13635   */\n      0x00\n        /* \"#utility.yul\":13659:13723   */\n      tag_870\n        /* \"#utility.yul\":13715:13722   */\n      dup5\n        /* \"#utility.yul\":13706:13712   */\n      dup3\n        /* \"#utility.yul\":13695:13704   */\n      dup6\n        /* \"#utility.yul\":13691:13713   */\n      add\n        /* \"#utility.yul\":13659:13723   */\n      tag_683\n      jump\t// in\n    tag_870:\n        /* \"#utility.yul\":13649:13723   */\n      swap2\n      pop\n        /* \"#utility.yul\":13605:13733   */\n      pop\n        /* \"#utility.yul\":13389:13740   */\n      swap3\n      swap2\n      pop\n      pop\n      jump\t// out\n        /* \"#utility.yul\":13746:14078   */\n    tag_288:\n        /* \"#utility.yul\":13867:13871   */\n      0x00\n        /* \"#utility.yul\":13905:13907   */\n      0x40\n        /* \"#utility.yul\":13894:13903   */\n      dup3\n        /* \"#utility.yul\":13890:13908   */\n      add\n        /* \"#utility.yul\":13882:13908   */\n      swap1\n      pop\n        /* \"#utility.yul\":13918:13989   */\n      tag_872\n        /* \"#utility.yul\":13986:13987   */\n      0x00\n        /* \"#utility.yul\":13975:13984   */\n      dup4\n        /* \"#utility.yul\":13971:13988   */\n      add\n        /* \"#utility.yul\":13962:13968   */\n      dup6\n        /* \"#utility.yul\":13918:13989   */\n      tag_671\n      jump\t// in\n    tag_872:\n        /* \"#utility.yul\":13999:14071   */\n      tag_873\n        /* \"#utility.yul\":14067:14069   */\n      0x20\n        /* \"#utility.yul\":14056:14065   */\n      dup4\n        /* \"#utility.yul\":14052:14070   */\n      add\n        /* \"#utility.yul\":14043:14049   */\n      dup5\n        /* \"#utility.yul\":13999:14071   */\n      tag_671\n      jump\t// in\n    tag_873:\n        /* \"#utility.yul\":13746:14078   */\n      swap4\n      swap3\n      pop\n      pop\n      pop\n      jump\t// out\n        /* \"#utility.yul\":14084:14264   */\n    tag_684:\n        /* \"#utility.yul\":14132:14209   */\n      0x4e487b7100000000000000000000000000000000000000000000000000000000\n        /* \"#utility.yul\":14129:14130   */\n      0x00\n        /* \"#utility.yul\":14122:14210   */\n      mstore\n        /* \"#utility.yul\":14229:14233   */\n      0x11\n        /* \"#utility.yul\":14226:14227   */\n      0x04\n        /* \"#utility.yul\":14219:14234   */\n      mstore\n        /* \"#utility.yul\":14253:14257   */\n      0x24\n        /* \"#utility.yul\":14250:14251   */\n      0x00\n        /* \"#utility.yul\":14243:14258   */\n      revert\n        /* \"#utility.yul\":14270:14680   */\n    tag_299:\n        /* \"#utility.yul\":14310:14317   */\n      0x00\n        /* \"#utility.yul\":14333:14353   */\n      tag_876\n        /* \"#utility.yul\":14351:14352   */\n      dup3\n        /* \"#utility.yul\":14333:14353   */\n      tag_654\n      jump\t// in\n    tag_876:\n        /* \"#utility.yul\":14328:14353   */\n      swap2\n      pop\n        /* \"#utility.yul\":14367:14387   */\n      tag_877\n        /* \"#utility.yul\":14385:14386   */\n      dup4\n        /* \"#utility.yul\":14367:14387   */\n      tag_654\n      jump\t// in\n    tag_877:\n        /* \"#utility.yul\":14362:14387   */\n      swap3\n      pop\n        /* \"#utility.yul\":14422:14423   */\n      dup3\n        /* \"#utility.yul\":14419:14420   */\n      dup3\n        /* \"#utility.yul\":14415:14424   */\n      mul\n        /* \"#utility.yul\":14444:14474   */\n      tag_878\n        /* \"#utility.yul\":14462:14473   */\n      dup2\n        /* \"#utility.yul\":14444:14474   */\n      tag_654\n      jump\t// in\n    tag_878:\n        /* \"#utility.yul\":14433:14474   */\n      swap2\n      pop\n        /* \"#utility.yul\":14623:14624   */\n      dup3\n        /* \"#utility.yul\":14614:14621   */\n      dup3\n        /* \"#utility.yul\":14610:14625   */\n      div\n        /* \"#utility.yul\":14607:14608   */\n      dup5\n        /* \"#utility.yul\":14604:14626   */\n      eq\n        /* \"#utility.yul\":14584:14585   */\n      dup4\n        /* \"#utility.yul\":14577:14586   */\n      iszero\n        /* \"#utility.yul\":14557:14640   */\n      or\n        /* \"#utility.yul\":14534:14673   */\n      tag_879\n      jumpi\n        /* \"#utility.yul\":14653:14671   */\n      tag_880\n      tag_684\n      jump\t// in\n    tag_880:\n        /* \"#utility.yul\":14534:14673   */\n    tag_879:\n        /* \"#utility.yul\":14318:14680   */\n      pop\n        /* \"#utility.yul\":14270:14680   */\n      swap3\n      swap2\n      pop\n      pop\n      jump\t// out\n        /* \"#utility.yul\":14686:14866   */\n    tag_685:\n        /* \"#utility.yul\":14734:14811   */\n      0x4e487b7100000000000000000000000000000000000000000000000000000000\n        /* \"#utility.yul\":14731:14732   */\n      0x00\n        /* \"#utility.yul\":14724:14812   */\n      mstore\n        /* \"#utility.yul\":14831:14835   */\n      0x12\n        /* \"#utility.yul\":14828:14829   */\n      0x04\n        /* \"#utility.yul\":14821:14836   */\n      mstore\n        /* \"#utility.yul\":14855:14859   */\n      0x24\n        /* \"#utility.yul\":14852:14853   */\n      0x00\n        /* \"#utility.yul\":14845:14860   */\n      revert\n        /* \"#utility.yul\":14872:15057   */\n    tag_301:\n        /* \"#utility.yul\":14912:14913   */\n      0x00\n        /* \"#utility.yul\":14929:14949   */\n      tag_883\n        /* \"#utility.yul\":14947:14948   */\n      dup3\n        /* \"#utility.yul\":14929:14949   */\n      tag_654\n      jump\t// in\n    tag_883:\n        /* \"#utility.yul\":14924:14949   */\n      swap2\n      pop\n        /* \"#utility.yul\":14963:14983   */\n      tag_884\n        /* \"#utility.yul\":14981:14982   */\n      dup4\n        /* \"#utility.yul\":14963:14983   */\n      tag_654\n      jump\t// in\n    tag_884:\n        /* \"#utility.yul\":14958:14983   */\n      swap3\n      pop\n        /* \"#utility.yul\":15002:15003   */\n      dup3\n        /* \"#utility.yul\":14992:15027   */\n      tag_885\n      jumpi\n        /* \"#utility.yul\":15007:15025   */\n      tag_886\n      tag_685\n      jump\t// in\n    tag_886:\n        /* \"#utility.yul\":14992:15027   */\n    tag_885:\n        /* \"#utility.yul\":15049:15050   */\n      dup3\n        /* \"#utility.yul\":15046:15047   */\n      dup3\n        /* \"#utility.yul\":15042:15051   */\n      div\n        /* \"#utility.yul\":15037:15051   */\n      swap1\n      pop\n        /* \"#utility.yul\":14872:15057   */\n      swap3\n      swap2\n      pop\n      pop\n      jump\t// out\n        /* \"#utility.yul\":15063:15243   */\n    tag_315:\n        /* \"#utility.yul\":15111:15188   */\n      0x4e487b7100000000000000000000000000000000000000000000000000000000\n        /* \"#utility.yul\":15108:15109   */\n      0x00\n        /* \"#utility.yul\":15101:15189   */\n      mstore\n        /* \"#utility.yul\":15208:15212   */\n      0x32\n        /* \"#utility.yul\":15205:15206   */\n      0x04\n        /* \"#utility.yul\":15198:15213   */\n      mstore\n        /* \"#utility.yul\":15232:15236   */\n      0x24\n        /* \"#utility.yul\":15229:15230   */\n      0x00\n        /* \"#utility.yul\":15222:15237   */\n      revert\n        /* \"#utility.yul\":15249:15443   */\n    tag_322:\n        /* \"#utility.yul\":15289:15293   */\n      0x00\n        /* \"#utility.yul\":15309:15329   */\n      tag_889\n        /* \"#utility.yul\":15327:15328   */\n      dup3\n        /* \"#utility.yul\":15309:15329   */\n      tag_654\n      jump\t// in\n    tag_889:\n        /* \"#utility.yul\":15304:15329   */\n      swap2\n      pop\n        /* \"#utility.yul\":15343:15363   */\n      tag_890\n        /* \"#utility.yul\":15361:15362   */\n      dup4\n        /* \"#utility.yul\":15343:15363   */\n      tag_654\n      jump\t// in\n    tag_890:\n        /* \"#utility.yul\":15338:15363   */\n      swap3\n      pop\n        /* \"#utility.yul\":15387:15388   */\n      dup3\n        /* \"#utility.yul\":15384:15385   */\n      dup3\n        /* \"#utility.yul\":15380:15389   */\n      sub\n        /* \"#utility.yul\":15372:15389   */\n      swap1\n      pop\n        /* \"#utility.yul\":15411:15412   */\n      dup2\n        /* \"#utility.yul\":15405:15409   */\n      dup2\n        /* \"#utility.yul\":15402:15413   */\n      gt\n        /* \"#utility.yul\":15399:15436   */\n      iszero\n      tag_891\n      jumpi\n        /* \"#utility.yul\":15416:15434   */\n      tag_892\n      tag_684\n      jump\t// in\n    tag_892:\n        /* \"#utility.yul\":15399:15436   */\n    tag_891:\n        /* \"#utility.yul\":15249:15443   */\n      swap3\n      swap2\n      pop\n      pop\n      jump\t// out\n        /* \"#utility.yul\":15449:15682   */\n    tag_324:\n        /* \"#utility.yul\":15488:15491   */\n      0x00\n        /* \"#utility.yul\":15511:15535   */\n      tag_894\n        /* \"#utility.yul\":15529:15534   */\n      dup3\n        /* \"#utility.yul\":15511:15535   */\n      tag_654\n      jump\t// in\n    tag_894:\n        /* \"#utility.yul\":15502:15535   */\n      swap2\n      pop\n        /* \"#utility.yul\":15557:15623   */\n      0xffffffffffffffffffffffffffffffffffffffffffffffffffffffffffffffff\n        /* \"#utility.yul\":15550:15555   */\n      dup3\n        /* \"#utility.yul\":15547:15624   */\n      sub\n        /* \"#utility.yul\":15544:15647   */\n      tag_895\n      jumpi\n        /* \"#utility.yul\":15627:15645   */\n      tag_896\n      tag_684\n      jump\t// in\n    tag_896:\n        /* \"#utility.yul\":15544:15647   */\n    tag_895:\n        /* \"#utility.yul\":15674:15675   */\n      0x01\n        /* \"#utility.yul\":15667:15672   */\n      dup3\n        /* \"#utility.yul\":15663:15676   */\n      add\n        /* \"#utility.yul\":15656:15676   */\n      swap1\n      pop\n        /* \"#utility.yul\":15449:15682   */\n      swap2\n      swap1\n      pop\n      jump\t// out\n        /* \"#utility.yul\":15688:15865   */\n    tag_686:\n        /* \"#utility.yul\":15828:15857   */\n      0x43616e206e6f742072656d6f7665206e617469766520746f6b656e0000000000\n        /* \"#utility.yul\":15824:15825   */\n      0x00\n        /* \"#utility.yul\":15816:15822   */\n      dup3\n        /* \"#utility.yul\":15812:15826   */\n      add\n        /* \"#utility.yul\":15805:15858   */\n      mstore\n        /* \"#utility.yul\":15688:15865   */\n      pop\n      jump\t// out\n        /* \"#utility.yul\":15871:16237   */\n    tag_687:\n        /* \"#utility.yul\":16013:16016   */\n      0x00\n        /* \"#utility.yul\":16034:16101   */\n      tag_899\n        /* \"#utility.yul\":16098:16100   */\n      0x1b\n        /* \"#utility.yul\":16093:16096   */\n      dup4\n        /* \"#utility.yul\":16034:16101   */\n      tag_643\n      jump\t// in\n    tag_899:\n        /* \"#utility.yul\":16027:16101   */\n      swap2\n      pop\n        /* \"#utility.yul\":16110:16203   */\n      tag_900\n        /* \"#utility.yul\":16199:16202   */\n      dup3\n        /* \"#utility.yul\":16110:16203   */\n      tag_686\n      jump\t// in\n    tag_900:\n        /* \"#utility.yul\":16228:16230   */\n      0x20\n        /* \"#utility.yul\":16223:16226   */\n      dup3\n        /* \"#utility.yul\":16219:16231   */\n      add\n        /* \"#utility.yul\":16212:16231   */\n      swap1\n      pop\n        /* \"#utility.yul\":15871:16237   */\n      swap2\n      swap1\n      pop\n      jump\t// out\n        /* \"#utility.yul\":16243:16662   */\n    tag_344:\n        /* \"#utility.yul\":16409:16413   */\n      0x00\n        /* \"#utility.yul\":16447:16449   */\n      0x20\n        /* \"#utility.yul\":16436:16445   */\n      dup3\n        /* \"#utility.yul\":16432:16450   */\n      add\n        /* \"#utility.yul\":16424:16450   */\n      swap1\n      pop\n        /* \"#utility.yul\":16496:16505   */\n      dup2\n        /* \"#utility.yul\":16490:16494   */\n      dup2\n        /* \"#utility.yul\":16486:16506   */\n      sub\n        /* \"#utility.yul\":16482:16483   */\n      0x00\n        /* \"#utility.yul\":16471:16480   */\n      dup4\n        /* \"#utility.yul\":16467:16484   */\n      add\n        /* \"#utility.yul\":16460:16507   */\n      mstore\n        /* \"#utility.yul\":16524:16655   */\n      tag_902\n        /* \"#utility.yul\":16650:16654   */\n      dup2\n        /* \"#utility.yul\":16524:16655   */\n      tag_687\n      jump\t// in\n    tag_902:\n        /* \"#utility.yul\":16516:16655   */\n      swap1\n      pop\n        /* \"#utility.yul\":16243:16662   */\n      swap2\n      swap1\n      pop\n      jump\t// out\n        /* \"#utility.yul\":16668:16811   */\n    tag_688:\n        /* \"#utility.yul\":16725:16730   */\n      0x00\n        /* \"#utility.yul\":16756:16762   */\n      dup2\n        /* \"#utility.yul\":16750:16763   */\n      mload\n        /* \"#utility.yul\":16741:16763   */\n      swap1\n      pop\n        /* \"#utility.yul\":16772:16805   */\n      tag_904\n        /* \"#utility.yul\":16799:16804   */\n      dup2\n        /* \"#utility.yul\":16772:16805   */\n      tag_655\n      jump\t// in\n    tag_904:\n        /* \"#utility.yul\":16668:16811   */\n      swap3\n      swap2\n      pop\n      pop\n      jump\t// out\n        /* \"#utility.yul\":16817:17168   */\n    tag_349:\n        /* \"#utility.yul\":16887:16893   */\n      0x00\n        /* \"#utility.yul\":16936:16938   */\n      0x20\n        /* \"#utility.yul\":16924:16933   */\n      dup3\n        /* \"#utility.yul\":16915:16922   */\n      dup5\n        /* \"#utility.yul\":16911:16934   */\n      sub\n        /* \"#utility.yul\":16907:16939   */\n      slt\n        /* \"#utility.yul\":16904:17023   */\n      iszero\n      tag_906\n      jumpi\n        /* \"#utility.yul\":16942:17021   */\n      tag_907\n      tag_648\n      jump\t// in\n    tag_907:\n        /* \"#utility.yul\":16904:17023   */\n    tag_906:\n        /* \"#utility.yul\":17062:17063   */\n      0x00\n        /* \"#utility.yul\":17087:17151   */\n      tag_908\n        /* \"#utility.yul\":17143:17150   */\n      dup5\n        /* \"#utility.yul\":17134:17140   */\n      dup3\n        /* \"#utility.yul\":17123:17132   */\n      dup6\n        /* \"#utility.yul\":17119:17141   */\n      add\n        /* \"#utility.yul\":17087:17151   */\n      tag_688\n      jump\t// in\n    tag_908:\n        /* \"#utility.yul\":17077:17151   */\n      swap2\n      pop\n        /* \"#utility.yul\":17033:17161   */\n      pop\n        /* \"#utility.yul\":16817:17168   */\n      swap3\n      swap2\n      pop\n      pop\n      jump\t// out\n        /* \"#utility.yul\":17174:17506   */\n    tag_352:\n        /* \"#utility.yul\":17295:17299   */\n      0x00\n        /* \"#utility.yul\":17333:17335   */\n      0x40\n        /* \"#utility.yul\":17322:17331   */\n      dup3\n        /* \"#utility.yul\":17318:17336   */\n      add\n        /* \"#utility.yul\":17310:17336   */\n      swap1\n      pop\n        /* \"#utility.yul\":17346:17417   */\n      tag_910\n        /* \"#utility.yul\":17414:17415   */\n      0x00\n        /* \"#utility.yul\":17403:17412   */\n      dup4\n        /* \"#utility.yul\":17399:17416   */\n      add\n        /* \"#utility.yul\":17390:17396   */\n      dup6\n        /* \"#utility.yul\":17346:17417   */\n      tag_671\n      jump\t// in\n    tag_910:\n        /* \"#utility.yul\":17427:17499   */\n      tag_911\n        /* \"#utility.yul\":17495:17497   */\n      0x20\n        /* \"#utility.yul\":17484:17493   */\n      dup4\n        /* \"#utility.yul\":17480:17498   */\n      add\n        /* \"#utility.yul\":17471:17477   */\n      dup5\n        /* \"#utility.yul\":17427:17499   */\n      tag_664\n      jump\t// in\n    tag_911:\n        /* \"#utility.yul\":17174:17506   */\n      swap4\n      swap3\n      pop\n      pop\n      pop\n      jump\t// out\n        /* \"#utility.yul\":17512:17649   */\n    tag_689:\n        /* \"#utility.yul\":17566:17571   */\n      0x00\n        /* \"#utility.yul\":17597:17603   */\n      dup2\n        /* \"#utility.yul\":17591:17604   */\n      mload\n        /* \"#utility.yul\":17582:17604   */\n      swap1\n      pop\n        /* \"#utility.yul\":17613:17643   */\n      tag_913\n        /* \"#utility.yul\":17637:17642   */\n      dup2\n        /* \"#utility.yul\":17613:17643   */\n      tag_674\n      jump\t// in\n    tag_913:\n        /* \"#utility.yul\":17512:17649   */\n      swap3\n      swap2\n      pop\n      pop\n      jump\t// out\n        /* \"#utility.yul\":17655:18000   */\n    tag_356:\n        /* \"#utility.yul\":17722:17728   */\n      0x00\n        /* \"#utility.yul\":17771:17773   */\n      0x20\n        /* \"#utility.yul\":17759:17768   */\n      dup3\n        /* \"#utility.yul\":17750:17757   */\n      dup5\n        /* \"#utility.yul\":17746:17769   */\n      sub\n        /* \"#utility.yul\":17742:17774   */\n      slt\n        /* \"#utility.yul\":17739:17858   */\n      iszero\n      tag_915\n      jumpi\n        /* \"#utility.yul\":17777:17856   */\n      tag_916\n      tag_648\n      jump\t// in\n    tag_916:\n        /* \"#utility.yul\":17739:17858   */\n    tag_915:\n        /* \"#utility.yul\":17897:17898   */\n      0x00\n        /* \"#utility.yul\":17922:17983   */\n      tag_917\n        /* \"#utility.yul\":17975:17982   */\n      dup5\n        /* \"#utility.yul\":17966:17972   */\n      dup3\n        /* \"#utility.yul\":17955:17964   */\n      dup6\n        /* \"#utility.yul\":17951:17973   */\n      add\n        /* \"#utility.yul\":17922:17983   */\n      tag_689\n      jump\t// in\n    tag_917:\n        /* \"#utility.yul\":17912:17983   */\n      swap2\n      pop\n        /* \"#utility.yul\":17868:17993   */\n      pop\n        /* \"#utility.yul\":17655:18000   */\n      swap3\n      swap2\n      pop\n      pop\n      jump\t// out\n        /* \"#utility.yul\":18006:18197   */\n    tag_406:\n        /* \"#utility.yul\":18046:18049   */\n      0x00\n        /* \"#utility.yul\":18065:18085   */\n      tag_919\n        /* \"#utility.yul\":18083:18084   */\n      dup3\n        /* \"#utility.yul\":18065:18085   */\n      tag_654\n      jump\t// in\n    tag_919:\n        /* \"#utility.yul\":18060:18085   */\n      swap2\n      pop\n        /* \"#utility.yul\":18099:18119   */\n      tag_920\n        /* \"#utility.yul\":18117:18118   */\n      dup4\n        /* \"#utility.yul\":18099:18119   */\n      tag_654\n      jump\t// in\n    tag_920:\n        /* \"#utility.yul\":18094:18119   */\n      swap3\n      pop\n        /* \"#utility.yul\":18142:18143   */\n      dup3\n        /* \"#utility.yul\":18139:18140   */\n      dup3\n        /* \"#utility.yul\":18135:18144   */\n      add\n        /* \"#utility.yul\":18128:18144   */\n      swap1\n      pop\n        /* \"#utility.yul\":18163:18166   */\n      dup1\n        /* \"#utility.yul\":18160:18161   */\n      dup3\n        /* \"#utility.yul\":18157:18167   */\n      gt\n        /* \"#utility.yul\":18154:18190   */\n      iszero\n      tag_921\n      jumpi\n        /* \"#utility.yul\":18170:18188   */\n      tag_922\n      tag_684\n      jump\t// in\n    tag_922:\n        /* \"#utility.yul\":18154:18190   */\n    tag_921:\n        /* \"#utility.yul\":18006:18197   */\n      swap3\n      swap2\n      pop\n      pop\n      jump\t// out\n        /* \"#utility.yul\":18203:18369   */\n    tag_690:\n        /* \"#utility.yul\":18343:18361   */\n      0x46656520697320746f6f20686967682100000000000000000000000000000000\n        /* \"#utility.yul\":18339:18340   */\n      0x00\n        /* \"#utility.yul\":18331:18337   */\n      dup3\n        /* \"#utility.yul\":18327:18341   */\n      add\n        /* \"#utility.yul\":18320:18362   */\n      mstore\n        /* \"#utility.yul\":18203:18369   */\n      pop\n      jump\t// out\n        /* \"#utility.yul\":18375:18741   */\n    tag_691:\n        /* \"#utility.yul\":18517:18520   */\n      0x00\n        /* \"#utility.yul\":18538:18605   */\n      tag_925\n        /* \"#utility.yul\":18602:18604   */\n      0x10\n        /* \"#utility.yul\":18597:18600   */\n      dup4\n        /* \"#utility.yul\":18538:18605   */\n      tag_643\n      jump\t// in\n    tag_925:\n        /* \"#utility.yul\":18531:18605   */\n      swap2\n      pop\n        /* \"#utility.yul\":18614:18707   */\n      tag_926\n        /* \"#utility.yul\":18703:18706   */\n      dup3\n        /* \"#utility.yul\":18614:18707   */\n      tag_690\n      jump\t// in\n    tag_926:\n        /* \"#utility.yul\":18732:18734   */\n      0x20\n        /* \"#utility.yul\":18727:18730   */\n      dup3\n        /* \"#utility.yul\":18723:18735   */\n      add\n        /* \"#utility.yul\":18716:18735   */\n      swap1\n      pop\n        /* \"#utility.yul\":18375:18741   */\n      swap2\n      swap1\n      pop\n      jump\t// out\n        /* \"#utility.yul\":18747:19166   */\n    tag_409:\n        /* \"#utility.yul\":18913:18917   */\n      0x00\n        /* \"#utility.yul\":18951:18953   */\n      0x20\n        /* \"#utility.yul\":18940:18949   */\n      dup3\n        /* \"#utility.yul\":18936:18954   */\n      add\n        /* \"#utility.yul\":18928:18954   */\n      swap1\n      pop\n        /* \"#utility.yul\":19000:19009   */\n      dup2\n        /* \"#utility.yul\":18994:18998   */\n      dup2\n        /* \"#utility.yul\":18990:19010   */\n      sub\n        /* \"#utility.yul\":18986:18987   */\n      0x00\n        /* \"#utility.yul\":18975:18984   */\n      dup4\n        /* \"#utility.yul\":18971:18988   */\n      add\n        /* \"#utility.yul\":18964:19011   */\n      mstore\n        /* \"#utility.yul\":19028:19159   */\n      tag_928\n        /* \"#utility.yul\":19154:19158   */\n      dup2\n        /* \"#utility.yul\":19028:19159   */\n      tag_691\n      jump\t// in\n    tag_928:\n        /* \"#utility.yul\":19020:19159   */\n      swap1\n      pop\n        /* \"#utility.yul\":18747:19166   */\n      swap2\n      swap1\n      pop\n      jump\t// out\n        /* \"#utility.yul\":19172:19354   */\n    tag_692:\n        /* \"#utility.yul\":19312:19346   */\n      0x43757272656e746c792070726f63657373696e672c20747279206c617465722e\n        /* \"#utility.yul\":19308:19309   */\n      0x00\n        /* \"#utility.yul\":19300:19306   */\n      dup3\n        /* \"#utility.yul\":19296:19310   */\n      add\n        /* \"#utility.yul\":19289:19347   */\n      mstore\n        /* \"#utility.yul\":19172:19354   */\n      pop\n      jump\t// out\n        /* \"#utility.yul\":19360:19726   */\n    tag_693:\n        /* \"#utility.yul\":19502:19505   */\n      0x00\n        /* \"#utility.yul\":19523:19590   */\n      tag_931\n        /* \"#utility.yul\":19587:19589   */\n      0x20\n        /* \"#utility.yul\":19582:19585   */\n      dup4\n        /* \"#utility.yul\":19523:19590   */\n      tag_643\n      jump\t// in\n    tag_931:\n        /* \"#utility.yul\":19516:19590   */\n      swap2\n      pop\n        /* \"#utility.yul\":19599:19692   */\n      tag_932\n        /* \"#utility.yul\":19688:19691   */\n      dup3\n        /* \"#utility.yul\":19599:19692   */\n      tag_692\n      jump\t// in\n    tag_932:\n        /* \"#utility.yul\":19717:19719   */\n      0x20\n        /* \"#utility.yul\":19712:19715   */\n      dup3\n        /* \"#utility.yul\":19708:19720   */\n      add\n        /* \"#utility.yul\":19701:19720   */\n      swap1\n      pop\n        /* \"#utility.yul\":19360:19726   */\n      swap2\n      swap1\n      pop\n      jump\t// out\n        /* \"#utility.yul\":19732:20151   */\n    tag_477:\n        /* \"#utility.yul\":19898:19902   */\n      0x00\n        /* \"#utility.yul\":19936:19938   */\n      0x20\n        /* \"#utility.yul\":19925:19934   */\n      dup3\n        /* \"#utility.yul\":19921:19939   */\n      add\n        /* \"#utility.yul\":19913:19939   */\n      swap1\n      pop\n        /* \"#utility.yul\":19985:19994   */\n      dup2\n        /* \"#utility.yul\":19979:19983   */\n      dup2\n        /* \"#utility.yul\":19975:19995   */\n      sub\n        /* \"#utility.yul\":19971:19972   */\n      0x00\n        /* \"#utility.yul\":19960:19969   */\n      dup4\n        /* \"#utility.yul\":19956:19973   */\n      add\n        /* \"#utility.yul\":19949:19996   */\n      mstore\n        /* \"#utility.yul\":20013:20144   */\n      tag_934\n        /* \"#utility.yul\":20139:20143   */\n      dup2\n        /* \"#utility.yul\":20013:20144   */\n      tag_693\n      jump\t// in\n    tag_934:\n        /* \"#utility.yul\":20005:20144   */\n      swap1\n      pop\n        /* \"#utility.yul\":19732:20151   */\n      swap2\n      swap1\n      pop\n      jump\t// out\n        /* \"#utility.yul\":20157:20382   */\n    tag_694:\n        /* \"#utility.yul\":20297:20331   */\n      0x4f776e61626c653a206e6577206f776e657220697320746865207a65726f2061\n        /* \"#utility.yul\":20293:20294   */\n      0x00\n        /* \"#utility.yul\":20285:20291   */\n      dup3\n        /* \"#utility.yul\":20281:20295   */\n      add\n        /* \"#utility.yul\":20274:20332   */\n      mstore\n        /* \"#utility.yul\":20366:20374   */\n      0x6464726573730000000000000000000000000000000000000000000000000000\n        /* \"#utility.yul\":20361:20363   */\n      0x20\n        /* \"#utility.yul\":20353:20359   */\n      dup3\n        /* \"#utility.yul\":20349:20364   */\n      add\n        /* \"#utility.yul\":20342:20375   */\n      mstore\n        /* \"#utility.yul\":20157:20382   */\n      pop\n      jump\t// out\n        /* \"#utility.yul\":20388:20754   */\n    tag_695:\n        /* \"#utility.yul\":20530:20533   */\n      0x00\n        /* \"#utility.yul\":20551:20618   */\n      tag_937\n        /* \"#utility.yul\":20615:20617   */\n      0x26\n        /* \"#utility.yul\":20610:20613   */\n      dup4\n        /* \"#utility.yul\":20551:20618   */\n      tag_643\n      jump\t// in\n    tag_937:\n        /* \"#utility.yul\":20544:20618   */\n      swap2\n      pop\n        /* \"#utility.yul\":20627:20720   */\n      tag_938\n        /* \"#utility.yul\":20716:20719   */\n      dup3\n        /* \"#utility.yul\":20627:20720   */\n      tag_694\n      jump\t// in\n    tag_938:\n        /* \"#utility.yul\":20745:20747   */\n      0x40\n        /* \"#utility.yul\":20740:20743   */\n      dup3\n        /* \"#utility.yul\":20736:20748   */\n      add\n        /* \"#utility.yul\":20729:20748   */\n      swap1\n      pop\n        /* \"#utility.yul\":20388:20754   */\n      swap2\n      swap1\n      pop\n      jump\t// out\n        /* \"#utility.yul\":20760:21179   */\n    tag_501:\n        /* \"#utility.yul\":20926:20930   */\n      0x00\n        /* \"#utility.yul\":20964:20966   */\n      0x20\n        /* \"#utility.yul\":20953:20962   */\n      dup3\n        /* \"#utility.yul\":20949:20967   */\n      add\n        /* \"#utility.yul\":20941:20967   */\n      swap1\n      pop\n        /* \"#utility.yul\":21013:21022   */\n      dup2\n        /* \"#utility.yul\":21007:21011   */\n      dup2\n        /* \"#utility.yul\":21003:21023   */\n      sub\n        /* \"#utility.yul\":20999:21000   */\n      0x00\n        /* \"#utility.yul\":20988:20997   */\n      dup4\n        /* \"#utility.yul\":20984:21001   */\n      add\n        /* \"#utility.yul\":20977:21024   */\n      mstore\n        /* \"#utility.yul\":21041:21172   */\n      tag_940\n        /* \"#utility.yul\":21167:21171   */\n      dup2\n        /* \"#utility.yul\":21041:21172   */\n      tag_695\n      jump\t// in\n    tag_940:\n        /* \"#utility.yul\":21033:21172   */\n      swap1\n      pop\n        /* \"#utility.yul\":20760:21179   */\n      swap2\n      swap1\n      pop\n      jump\t// out\n        /* \"#utility.yul\":21185:21490   */\n    tag_696:\n        /* \"#utility.yul\":21325:21359   */\n      0x596f752061726520747279696e6720746f2062757920746f6f206d616e792074\n        /* \"#utility.yul\":21321:21322   */\n      0x00\n        /* \"#utility.yul\":21313:21319   */\n      dup3\n        /* \"#utility.yul\":21309:21323   */\n      add\n        /* \"#utility.yul\":21302:21360   */\n      mstore\n        /* \"#utility.yul\":21394:21428   */\n      0x6f6b656e732e20596f752068617665207265616368656420746865206c696d69\n        /* \"#utility.yul\":21389:21391   */\n      0x20\n        /* \"#utility.yul\":21381:21387   */\n      dup3\n        /* \"#utility.yul\":21377:21392   */\n      add\n        /* \"#utility.yul\":21370:21429   */\n      mstore\n        /* \"#utility.yul\":21463:21482   */\n      0x7420666f72206f6e652077616c6c65742e000000000000000000000000000000\n        /* \"#utility.yul\":21458:21460   */\n      0x40\n        /* \"#utility.yul\":21450:21456   */\n      dup3\n        /* \"#utility.yul\":21446:21461   */\n      add\n        /* \"#utility.yul\":21439:21483   */\n      mstore\n        /* \"#utility.yul\":21185:21490   */\n      pop\n      jump\t// out\n        /* \"#utility.yul\":21496:21862   */\n    tag_697:\n        /* \"#utility.yul\":21638:21641   */\n      0x00\n        /* \"#utility.yul\":21659:21726   */\n      tag_943\n        /* \"#utility.yul\":21723:21725   */\n      0x51\n        /* \"#utility.yul\":21718:21721   */\n      dup4\n        /* \"#utility.yul\":21659:21726   */\n      tag_643\n      jump\t// in\n    tag_943:\n        /* \"#utility.yul\":21652:21726   */\n      swap2\n      pop\n        /* \"#utility.yul\":21735:21828   */\n      tag_944\n        /* \"#utility.yul\":21824:21827   */\n      dup3\n        /* \"#utility.yul\":21735:21828   */\n      tag_696\n      jump\t// in\n    tag_944:\n        /* \"#utility.yul\":21853:21855   */\n      0x60\n        /* \"#utility.yul\":21848:21851   */\n      dup3\n        /* \"#utility.yul\":21844:21856   */\n      add\n        /* \"#utility.yul\":21837:21856   */\n      swap1\n      pop\n        /* \"#utility.yul\":21496:21862   */\n      swap2\n      swap1\n      pop\n      jump\t// out\n        /* \"#utility.yul\":21868:22287   */\n    tag_540:\n        /* \"#utility.yul\":22034:22038   */\n      0x00\n        /* \"#utility.yul\":22072:22074   */\n      0x20\n        /* \"#utility.yul\":22061:22070   */\n      dup3\n        /* \"#utility.yul\":22057:22075   */\n      add\n        /* \"#utility.yul\":22049:22075   */\n      swap1\n      pop\n        /* \"#utility.yul\":22121:22130   */\n      dup2\n        /* \"#utility.yul\":22115:22119   */\n      dup2\n        /* \"#utility.yul\":22111:22131   */\n      sub\n        /* \"#utility.yul\":22107:22108   */\n      0x00\n        /* \"#utility.yul\":22096:22105   */\n      dup4\n        /* \"#utility.yul\":22092:22109   */\n      add\n        /* \"#utility.yul\":22085:22132   */\n      mstore\n        /* \"#utility.yul\":22149:22280   */\n      tag_946\n        /* \"#utility.yul\":22275:22279   */\n      dup2\n        /* \"#utility.yul\":22149:22280   */\n      tag_697\n      jump\t// in\n    tag_946:\n        /* \"#utility.yul\":22141:22280   */\n      swap1\n      pop\n        /* \"#utility.yul\":21868:22287   */\n      swap2\n      swap1\n      pop\n      jump\t// out\n        /* \"#utility.yul\":22293:22538   */\n    tag_698:\n        /* \"#utility.yul\":22433:22467   */\n      0x596f752061726520747279696e6720746f20627579206d6f7265207468616e20\n        /* \"#utility.yul\":22429:22430   */\n      0x00\n        /* \"#utility.yul\":22421:22427   */\n      dup3\n        /* \"#utility.yul\":22417:22431   */\n      add\n        /* \"#utility.yul\":22410:22468   */\n      mstore\n        /* \"#utility.yul\":22502:22530   */\n      0x746865206d6178207472616e73616374696f6e206c696d69742e000000000000\n        /* \"#utility.yul\":22497:22499   */\n      0x20\n        /* \"#utility.yul\":22489:22495   */\n      dup3\n        /* \"#utility.yul\":22485:22500   */\n      add\n        /* \"#utility.yul\":22478:22531   */\n      mstore\n        /* \"#utility.yul\":22293:22538   */\n      pop\n      jump\t// out\n        /* \"#utility.yul\":22544:22910   */\n    tag_699:\n        /* \"#utility.yul\":22686:22689   */\n      0x00\n        /* \"#utility.yul\":22707:22774   */\n      tag_949\n        /* \"#utility.yul\":22771:22773   */\n      0x3a\n        /* \"#utility.yul\":22766:22769   */\n      dup4\n        /* \"#utility.yul\":22707:22774   */\n      tag_643\n      jump\t// in\n    tag_949:\n        /* \"#utility.yul\":22700:22774   */\n      swap2\n      pop\n        /* \"#utility.yul\":22783:22876   */\n      tag_950\n        /* \"#utility.yul\":22872:22875   */\n      dup3\n        /* \"#utility.yul\":22783:22876   */\n      tag_698\n      jump\t// in\n    tag_950:\n        /* \"#utility.yul\":22901:22903   */\n      0x40\n        /* \"#utility.yul\":22896:22899   */\n      dup3\n        /* \"#utility.yul\":22892:22904   */\n      add\n        /* \"#utility.yul\":22885:22904   */\n      swap1\n      pop\n        /* \"#utility.yul\":22544:22910   */\n      swap2\n      swap1\n      pop\n      jump\t// out\n        /* \"#utility.yul\":22916:23335   */\n    tag_547:\n        /* \"#utility.yul\":23082:23086   */\n      0x00\n        /* \"#utility.yul\":23120:23122   */\n      0x20\n        /* \"#utility.yul\":23109:23118   */\n      dup3\n        /* \"#utility.yul\":23105:23123   */\n      add\n        /* \"#utility.yul\":23097:23123   */\n      swap1\n      pop\n        /* \"#utility.yul\":23169:23178   */\n      dup2\n        /* \"#utility.yul\":23163:23167   */\n      dup2\n        /* \"#utility.yul\":23159:23179   */\n      sub\n        /* \"#utility.yul\":23155:23156   */\n      0x00\n        /* \"#utility.yul\":23144:23153   */\n      dup4\n        /* \"#utility.yul\":23140:23157   */\n      add\n        /* \"#utility.yul\":23133:23180   */\n      mstore\n        /* \"#utility.yul\":23197:23328   */\n      tag_952\n        /* \"#utility.yul\":23323:23327   */\n      dup2\n        /* \"#utility.yul\":23197:23328   */\n      tag_699\n      jump\t// in\n    tag_952:\n        /* \"#utility.yul\":23189:23328   */\n      swap1\n      pop\n        /* \"#utility.yul\":22916:23335   */\n      swap2\n      swap1\n      pop\n      jump\t// out\n        /* \"#utility.yul\":23341:23578   */\n    tag_700:\n        /* \"#utility.yul\":23481:23515   */\n      0x54686973206164647265737320697320626c61636b6c69737465642e20547261\n        /* \"#utility.yul\":23477:23478   */\n      0x00\n        /* \"#utility.yul\":23469:23475   */\n      dup3\n        /* \"#utility.yul\":23465:23479   */\n      add\n        /* \"#utility.yul\":23458:23516   */\n      mstore\n        /* \"#utility.yul\":23550:23570   */\n      0x6e73616374696f6e2072657665727465642e0000000000000000000000000000\n        /* \"#utility.yul\":23545:23547   */\n      0x20\n        /* \"#utility.yul\":23537:23543   */\n      dup3\n        /* \"#utility.yul\":23533:23548   */\n      add\n        /* \"#utility.yul\":23526:23571   */\n      mstore\n        /* \"#utility.yul\":23341:23578   */\n      pop\n      jump\t// out\n        /* \"#utility.yul\":23584:23950   */\n    tag_701:\n        /* \"#utility.yul\":23726:23729   */\n      0x00\n        /* \"#utility.yul\":23747:23814   */\n      tag_955\n        /* \"#utility.yul\":23811:23813   */\n      0x32\n        /* \"#utility.yul\":23806:23809   */\n      dup4\n        /* \"#utility.yul\":23747:23814   */\n      tag_643\n      jump\t// in\n    tag_955:\n        /* \"#utility.yul\":23740:23814   */\n      swap2\n      pop\n        /* \"#utility.yul\":23823:23916   */\n      tag_956\n        /* \"#utility.yul\":23912:23915   */\n      dup3\n        /* \"#utility.yul\":23823:23916   */\n      tag_700\n      jump\t// in\n    tag_956:\n        /* \"#utility.yul\":23941:23943   */\n      0x40\n        /* \"#utility.yul\":23936:23939   */\n      dup3\n        /* \"#utility.yul\":23932:23944   */\n      add\n        /* \"#utility.yul\":23925:23944   */\n      swap1\n      pop\n        /* \"#utility.yul\":23584:23950   */\n      swap2\n      swap1\n      pop\n      jump\t// out\n        /* \"#utility.yul\":23956:24375   */\n    tag_552:\n        /* \"#utility.yul\":24122:24126   */\n      0x00\n        /* \"#utility.yul\":24160:24162   */\n      0x20\n        /* \"#utility.yul\":24149:24158   */\n      dup3\n        /* \"#utility.yul\":24145:24163   */\n      add\n        /* \"#utility.yul\":24137:24163   */\n      swap1\n      pop\n        /* \"#utility.yul\":24209:24218   */\n      dup2\n        /* \"#utility.yul\":24203:24207   */\n      dup2\n        /* \"#utility.yul\":24199:24219   */\n      sub\n        /* \"#utility.yul\":24195:24196   */\n      0x00\n        /* \"#utility.yul\":24184:24193   */\n      dup4\n        /* \"#utility.yul\":24180:24197   */\n      add\n        /* \"#utility.yul\":24173:24220   */\n      mstore\n        /* \"#utility.yul\":24237:24368   */\n      tag_958\n        /* \"#utility.yul\":24363:24367   */\n      dup2\n        /* \"#utility.yul\":24237:24368   */\n      tag_701\n      jump\t// in\n    tag_958:\n        /* \"#utility.yul\":24229:24368   */\n      swap1\n      pop\n        /* \"#utility.yul\":23956:24375   */\n      swap2\n      swap1\n      pop\n      jump\t// out\n        /* \"#utility.yul\":24381:24552   */\n    tag_702:\n        /* \"#utility.yul\":24521:24544   */\n      0x4552523a205573696e6720302061646472657373210000000000000000000000\n        /* \"#utility.yul\":24517:24518   */\n      0x00\n        /* \"#utility.yul\":24509:24515   */\n      dup3\n        /* \"#utility.yul\":24505:24519   */\n      add\n        /* \"#utility.yul\":24498:24545   */\n      mstore\n        /* \"#utility.yul\":24381:24552   */\n      pop\n      jump\t// out\n        /* \"#utility.yul\":24558:24924   */\n    tag_703:\n        /* \"#utility.yul\":24700:24703   */\n      0x00\n        /* \"#utility.yul\":24721:24788   */\n      tag_961\n        /* \"#utility.yul\":24785:24787   */\n      0x15\n        /* \"#utility.yul\":24780:24783   */\n      dup4\n        /* \"#utility.yul\":24721:24788   */\n      tag_643\n      jump\t// in\n    tag_961:\n        /* \"#utility.yul\":24714:24788   */\n      swap2\n      pop\n        /* \"#utility.yul\":24797:24890   */\n      tag_962\n        /* \"#utility.yul\":24886:24889   */\n      dup3\n        /* \"#utility.yul\":24797:24890   */\n      tag_702\n      jump\t// in\n    tag_962:\n        /* \"#utility.yul\":24915:24917   */\n      0x20\n        /* \"#utility.yul\":24910:24913   */\n      dup3\n        /* \"#utility.yul\":24906:24918   */\n      add\n        /* \"#utility.yul\":24899:24918   */\n      swap1\n      pop\n        /* \"#utility.yul\":24558:24924   */\n      swap2\n      swap1\n      pop\n      jump\t// out\n        /* \"#utility.yul\":24930:25349   */\n    tag_556:\n        /* \"#utility.yul\":25096:25100   */\n      0x00\n        /* \"#utility.yul\":25134:25136   */\n      0x20\n        /* \"#utility.yul\":25123:25132   */\n      dup3\n        /* \"#utility.yul\":25119:25137   */\n      add\n        /* \"#utility.yul\":25111:25137   */\n      swap1\n      pop\n        /* \"#utility.yul\":25183:25192   */\n      dup2\n        /* \"#utility.yul\":25177:25181   */\n      dup2\n        /* \"#utility.yul\":25173:25193   */\n      sub\n        /* \"#utility.yul\":25169:25170   */\n      0x00\n        /* \"#utility.yul\":25158:25167   */\n      dup4\n        /* \"#utility.yul\":25154:25171   */\n      add\n        /* \"#utility.yul\":25147:25194   */\n      mstore\n        /* \"#utility.yul\":25211:25342   */\n      tag_964\n        /* \"#utility.yul\":25337:25341   */\n      dup2\n        /* \"#utility.yul\":25211:25342   */\n      tag_703\n      jump\t// in\n    tag_964:\n        /* \"#utility.yul\":25203:25342   */\n      swap1\n      pop\n        /* \"#utility.yul\":24930:25349   */\n      swap2\n      swap1\n      pop\n      jump\t// out\n        /* \"#utility.yul\":25355:25579   */\n    tag_704:\n        /* \"#utility.yul\":25495:25529   */\n      0x546f6b656e2076616c7565206d75737420626520686967686572207468616e20\n        /* \"#utility.yul\":25491:25492   */\n      0x00\n        /* \"#utility.yul\":25483:25489   */\n      dup3\n        /* \"#utility.yul\":25479:25493   */\n      add\n        /* \"#utility.yul\":25472:25530   */\n      mstore\n        /* \"#utility.yul\":25564:25571   */\n      0x7a65726f2e000000000000000000000000000000000000000000000000000000\n        /* \"#utility.yul\":25559:25561   */\n      0x20\n        /* \"#utility.yul\":25551:25557   */\n      dup3\n        /* \"#utility.yul\":25547:25562   */\n      add\n        /* \"#utility.yul\":25540:25572   */\n      mstore\n        /* \"#utility.yul\":25355:25579   */\n      pop\n      jump\t// out\n        /* \"#utility.yul\":25585:25951   */\n    tag_705:\n        /* \"#utility.yul\":25727:25730   */\n      0x00\n        /* \"#utility.yul\":25748:25815   */\n      tag_967\n        /* \"#utility.yul\":25812:25814   */\n      0x25\n        /* \"#utility.yul\":25807:25810   */\n      dup4\n        /* \"#utility.yul\":25748:25815   */\n      tag_643\n      jump\t// in\n    tag_967:\n        /* \"#utility.yul\":25741:25815   */\n      swap2\n      pop\n        /* \"#utility.yul\":25824:25917   */\n      tag_968\n        /* \"#utility.yul\":25913:25916   */\n      dup3\n        /* \"#utility.yul\":25824:25917   */\n      tag_704\n      jump\t// in\n    tag_968:\n        /* \"#utility.yul\":25942:25944   */\n      0x40\n        /* \"#utility.yul\":25937:25940   */\n      dup3\n        /* \"#utility.yul\":25933:25945   */\n      add\n        /* \"#utility.yul\":25926:25945   */\n      swap1\n      pop\n        /* \"#utility.yul\":25585:25951   */\n      swap2\n      swap1\n      pop\n      jump\t// out\n        /* \"#utility.yul\":25957:26376   */\n    tag_559:\n        /* \"#utility.yul\":26123:26127   */\n      0x00\n        /* \"#utility.yul\":26161:26163   */\n      0x20\n        /* \"#utility.yul\":26150:26159   */\n      dup3\n        /* \"#utility.yul\":26146:26164   */\n      add\n        /* \"#utility.yul\":26138:26164   */\n      swap1\n      pop\n        /* \"#utility.yul\":26210:26219   */\n      dup2\n        /* \"#utility.yul\":26204:26208   */\n      dup2\n        /* \"#utility.yul\":26200:26220   */\n      sub\n        /* \"#utility.yul\":26196:26197   */\n      0x00\n        /* \"#utility.yul\":26185:26194   */\n      dup4\n        /* \"#utility.yul\":26181:26198   */\n      add\n        /* \"#utility.yul\":26174:26221   */\n      mstore\n        /* \"#utility.yul\":26238:26369   */\n      tag_970\n        /* \"#utility.yul\":26364:26368   */\n      dup2\n        /* \"#utility.yul\":26238:26369   */\n      tag_705\n      jump\t// in\n    tag_970:\n        /* \"#utility.yul\":26230:26369   */\n      swap1\n      pop\n        /* \"#utility.yul\":25957:26376   */\n      swap2\n      swap1\n      pop\n      jump\t// out\n        /* \"#utility.yul\":26382:26549   */\n    tag_596:\n        /* \"#utility.yul\":26419:26422   */\n      0x00\n        /* \"#utility.yul\":26442:26464   */\n      tag_972\n        /* \"#utility.yul\":26458:26463   */\n      dup3\n        /* \"#utility.yul\":26442:26464   */\n      tag_669\n      jump\t// in\n    tag_972:\n        /* \"#utility.yul\":26433:26464   */\n      swap2\n      pop\n        /* \"#utility.yul\":26486:26490   */\n      0xff\n        /* \"#utility.yul\":26479:26484   */\n      dup3\n        /* \"#utility.yul\":26476:26491   */\n      sub\n        /* \"#utility.yul\":26473:26514   */\n      tag_973\n      jumpi\n        /* \"#utility.yul\":26494:26512   */\n      tag_974\n      tag_684\n      jump\t// in\n    tag_974:\n        /* \"#utility.yul\":26473:26514   */\n    tag_973:\n        /* \"#utility.yul\":26541:26542   */\n      0x01\n        /* \"#utility.yul\":26534:26539   */\n      dup3\n        /* \"#utility.yul\":26530:26543   */\n      add\n        /* \"#utility.yul\":26523:26543   */\n      swap1\n      pop\n        /* \"#utility.yul\":26382:26549   */\n      swap2\n      swap1\n      pop\n      jump\t// out\n        /* \"#utility.yul\":26555:26735   */\n    tag_605:\n        /* \"#utility.yul\":26603:26680   */\n      0x4e487b7100000000000000000000000000000000000000000000000000000000\n        /* \"#utility.yul\":26600:26601   */\n      0x00\n        /* \"#utility.yul\":26593:26681   */\n      mstore\n        /* \"#utility.yul\":26700:26704   */\n      0x41\n        /* \"#utility.yul\":26697:26698   */\n      0x04\n        /* \"#utility.yul\":26690:26705   */\n      mstore\n        /* \"#utility.yul\":26724:26728   */\n      0x24\n        /* \"#utility.yul\":26721:26722   */\n      0x00\n        /* \"#utility.yul\":26714:26729   */\n      revert\n        /* \"#utility.yul\":26741:26826   */\n    tag_706:\n        /* \"#utility.yul\":26786:26793   */\n      0x00\n        /* \"#utility.yul\":26815:26820   */\n      dup2\n        /* \"#utility.yul\":26804:26820   */\n      swap1\n      pop\n        /* \"#utility.yul\":26741:26826   */\n      swap2\n      swap1\n      pop\n      jump\t// out\n        /* \"#utility.yul\":26832:26990   */\n    tag_707:\n        /* \"#utility.yul\":26890:26899   */\n      0x00\n        /* \"#utility.yul\":26923:26984   */\n      tag_978\n        /* \"#utility.yul\":26941:26983   */\n      tag_979\n        /* \"#utility.yul\":26950:26982   */\n      tag_980\n        /* \"#utility.yul\":26976:26981   */\n      dup5\n        /* \"#utility.yul\":26950:26982   */\n      tag_706\n      jump\t// in\n    tag_980:\n        /* \"#utility.yul\":26941:26983   */\n      tag_659\n      jump\t// in\n    tag_979:\n        /* \"#utility.yul\":26923:26984   */\n      tag_654\n      jump\t// in\n    tag_978:\n        /* \"#utility.yul\":26910:26984   */\n      swap1\n      pop\n        /* \"#utility.yul\":26832:26990   */\n      swap2\n      swap1\n      pop\n      jump\t// out\n        /* \"#utility.yul\":26996:27143   */\n    tag_708:\n        /* \"#utility.yul\":27091:27136   */\n      tag_982\n        /* \"#utility.yul\":27130:27135   */\n      dup2\n        /* \"#utility.yul\":27091:27136   */\n      tag_707\n      jump\t// in\n    tag_982:\n        /* \"#utility.yul\":27086:27089   */\n      dup3\n        /* \"#utility.yul\":27079:27137   */\n      mstore\n        /* \"#utility.yul\":26996:27143   */\n      pop\n      pop\n      jump\t// out\n        /* \"#utility.yul\":27149:27263   */\n    tag_709:\n        /* \"#utility.yul\":27216:27222   */\n      0x00\n        /* \"#utility.yul\":27250:27255   */\n      dup2\n        /* \"#utility.yul\":27244:27256   */\n      mload\n        /* \"#utility.yul\":27234:27256   */\n      swap1\n      pop\n        /* \"#utility.yul\":27149:27263   */\n      swap2\n      swap1\n      pop\n      jump\t// out\n        /* \"#utility.yul\":27269:27453   */\n    tag_710:\n        /* \"#utility.yul\":27368:27379   */\n      0x00\n        /* \"#utility.yul\":27402:27408   */\n      dup3\n        /* \"#utility.yul\":27397:27400   */\n      dup3\n        /* \"#utility.yul\":27390:27409   */\n      mstore\n        /* \"#utility.yul\":27442:27446   */\n      0x20\n        /* \"#utility.yul\":27437:27440   */\n      dup3\n        /* \"#utility.yul\":27433:27447   */\n      add\n        /* \"#utility.yul\":27418:27447   */\n      swap1\n      pop\n        /* \"#utility.yul\":27269:27453   */\n      swap3\n      swap2\n      pop\n      pop\n      jump\t// out\n        /* \"#utility.yul\":27459:27591   */\n    tag_711:\n        /* \"#utility.yul\":27526:27530   */\n      0x00\n        /* \"#utility.yul\":27549:27552   */\n      dup2\n        /* \"#utility.yul\":27541:27552   */\n      swap1\n      pop\n        /* \"#utility.yul\":27579:27583   */\n      0x20\n        /* \"#utility.yul\":27574:27577   */\n      dup3\n        /* \"#utility.yul\":27570:27584   */\n      add\n        /* \"#utility.yul\":27562:27584   */\n      swap1\n      pop\n        /* \"#utility.yul\":27459:27591   */\n      swap2\n      swap1\n      pop\n      jump\t// out\n        /* \"#utility.yul\":27597:27705   */\n    tag_712:\n        /* \"#utility.yul\":27674:27698   */\n      tag_987\n        /* \"#utility.yul\":27692:27697   */\n      dup2\n        /* \"#utility.yul\":27674:27698   */\n      tag_651\n      jump\t// in\n    tag_987:\n        /* \"#utility.yul\":27669:27672   */\n      dup3\n        /* \"#utility.yul\":27662:27699   */\n      mstore\n        /* \"#utility.yul\":27597:27705   */\n      pop\n      pop\n      jump\t// out\n        /* \"#utility.yul\":27711:27890   */\n    tag_713:\n        /* \"#utility.yul\":27780:27790   */\n      0x00\n        /* \"#utility.yul\":27801:27847   */\n      tag_989\n        /* \"#utility.yul\":27843:27846   */\n      dup4\n        /* \"#utility.yul\":27835:27841   */\n      dup4\n        /* \"#utility.yul\":27801:27847   */\n      tag_712\n      jump\t// in\n    tag_989:\n        /* \"#utility.yul\":27879:27883   */\n      0x20\n        /* \"#utility.yul\":27874:27877   */\n      dup4\n        /* \"#utility.yul\":27870:27884   */\n      add\n        /* \"#utility.yul\":27856:27884   */\n      swap1\n      pop\n        /* \"#utility.yul\":27711:27890   */\n      swap3\n      swap2\n      pop\n      pop\n      jump\t// out\n        /* \"#utility.yul\":27896:28009   */\n    tag_714:\n        /* \"#utility.yul\":27966:27970   */\n      0x00\n        /* \"#utility.yul\":27998:28002   */\n      0x20\n        /* \"#utility.yul\":27993:27996   */\n      dup3\n        /* \"#utility.yul\":27989:28003   */\n      add\n        /* \"#utility.yul\":27981:28003   */\n      swap1\n      pop\n        /* \"#utility.yul\":27896:28009   */\n      swap2\n      swap1\n      pop\n      jump\t// out\n        /* \"#utility.yul\":28045:28777   */\n    tag_715:\n        /* \"#utility.yul\":28164:28167   */\n      0x00\n        /* \"#utility.yul\":28193:28247   */\n      tag_992\n        /* \"#utility.yul\":28241:28246   */\n      dup3\n        /* \"#utility.yul\":28193:28247   */\n      tag_709\n      jump\t// in\n    tag_992:\n        /* \"#utility.yul\":28263:28349   */\n      tag_993\n        /* \"#utility.yul\":28342:28348   */\n      dup2\n        /* \"#utility.yul\":28337:28340   */\n      dup6\n        /* \"#utility.yul\":28263:28349   */\n      tag_710\n      jump\t// in\n    tag_993:\n        /* \"#utility.yul\":28256:28349   */\n      swap4\n      pop\n        /* \"#utility.yul\":28373:28429   */\n      tag_994\n        /* \"#utility.yul\":28423:28428   */\n      dup4\n        /* \"#utility.yul\":28373:28429   */\n      tag_711\n      jump\t// in\n    tag_994:\n        /* \"#utility.yul\":28452:28459   */\n      dup1\n        /* \"#utility.yul\":28483:28484   */\n      0x00\n        /* \"#utility.yul\":28468:28752   */\n    tag_995:\n        /* \"#utility.yul\":28493:28499   */\n      dup4\n        /* \"#utility.yul\":28490:28491   */\n      dup2\n        /* \"#utility.yul\":28487:28500   */\n      lt\n        /* \"#utility.yul\":28468:28752   */\n      iszero\n      tag_997\n      jumpi\n        /* \"#utility.yul\":28569:28575   */\n      dup2\n        /* \"#utility.yul\":28563:28576   */\n      mload\n        /* \"#utility.yul\":28596:28659   */\n      tag_998\n        /* \"#utility.yul\":28655:28658   */\n      dup9\n        /* \"#utility.yul\":28640:28653   */\n      dup3\n        /* \"#utility.yul\":28596:28659   */\n      tag_713\n      jump\t// in\n    tag_998:\n        /* \"#utility.yul\":28589:28659   */\n      swap8\n      pop\n        /* \"#utility.yul\":28682:28742   */\n      tag_999\n        /* \"#utility.yul\":28735:28741   */\n      dup4\n        /* \"#utility.yul\":28682:28742   */\n      tag_714\n      jump\t// in\n    tag_999:\n        /* \"#utility.yul\":28672:28742   */\n      swap3\n      pop\n        /* \"#utility.yul\":28528:28752   */\n      pop\n        /* \"#utility.yul\":28515:28516   */\n      0x01\n        /* \"#utility.yul\":28512:28513   */\n      dup2\n        /* \"#utility.yul\":28508:28517   */\n      add\n        /* \"#utility.yul\":28503:28517   */\n      swap1\n      pop\n        /* \"#utility.yul\":28468:28752   */\n      jump(tag_995)\n    tag_997:\n        /* \"#utility.yul\":28472:28486   */\n      pop\n        /* \"#utility.yul\":28768:28771   */\n      dup6\n        /* \"#utility.yul\":28761:28771   */\n      swap4\n      pop\n        /* \"#utility.yul\":28169:28777   */\n      pop\n      pop\n      pop\n        /* \"#utility.yul\":28045:28777   */\n      swap3\n      swap2\n      pop\n      pop\n      jump\t// out\n        /* \"#utility.yul\":28783:29614   */\n    tag_616:\n        /* \"#utility.yul\":29046:29050   */\n      0x00\n        /* \"#utility.yul\":29084:29087   */\n      0xa0\n        /* \"#utility.yul\":29073:29082   */\n      dup3\n        /* \"#utility.yul\":29069:29088   */\n      add\n        /* \"#utility.yul\":29061:29088   */\n      swap1\n      pop\n        /* \"#utility.yul\":29098:29169   */\n      tag_1001\n        /* \"#utility.yul\":29166:29167   */\n      0x00\n        /* \"#utility.yul\":29155:29164   */\n      dup4\n        /* \"#utility.yul\":29151:29168   */\n      add\n        /* \"#utility.yul\":29142:29148   */\n      dup9\n        /* \"#utility.yul\":29098:29169   */\n      tag_664\n      jump\t// in\n    tag_1001:\n        /* \"#utility.yul\":29179:29259   */\n      tag_1002\n        /* \"#utility.yul\":29255:29257   */\n      0x20\n        /* \"#utility.yul\":29244:29253   */\n      dup4\n        /* \"#utility.yul\":29240:29258   */\n      add\n        /* \"#utility.yul\":29231:29237   */\n      dup8\n        /* \"#utility.yul\":29179:29259   */\n      tag_708\n      jump\t// in\n    tag_1002:\n        /* \"#utility.yul\":29306:29315   */\n      dup2\n        /* \"#utility.yul\":29300:29304   */\n      dup2\n        /* \"#utility.yul\":29296:29316   */\n      sub\n        /* \"#utility.yul\":29291:29293   */\n      0x40\n        /* \"#utility.yul\":29280:29289   */\n      dup4\n        /* \"#utility.yul\":29276:29294   */\n      add\n        /* \"#utility.yul\":29269:29317   */\n      mstore\n        /* \"#utility.yul\":29334:29442   */\n      tag_1003\n        /* \"#utility.yul\":29437:29441   */\n      dup2\n        /* \"#utility.yul\":29428:29434   */\n      dup7\n        /* \"#utility.yul\":29334:29442   */\n      tag_715\n      jump\t// in\n    tag_1003:\n        /* \"#utility.yul\":29326:29442   */\n      swap1\n      pop\n        /* \"#utility.yul\":29452:29524   */\n      tag_1004\n        /* \"#utility.yul\":29520:29522   */\n      0x60\n        /* \"#utility.yul\":29509:29518   */\n      dup4\n        /* \"#utility.yul\":29505:29523   */\n      add\n        /* \"#utility.yul\":29496:29502   */\n      dup6\n        /* \"#utility.yul\":29452:29524   */\n      tag_671\n      jump\t// in\n    tag_1004:\n        /* \"#utility.yul\":29534:29607   */\n      tag_1005\n        /* \"#utility.yul\":29602:29605   */\n      0x80\n        /* \"#utility.yul\":29591:29600   */\n      dup4\n        /* \"#utility.yul\":29587:29606   */\n      add\n        /* \"#utility.yul\":29578:29584   */\n      dup5\n        /* \"#utility.yul\":29534:29607   */\n      tag_664\n      jump\t// in\n    tag_1005:\n        /* \"#utility.yul\":28783:29614   */\n      swap7\n      swap6\n      pop\n      pop\n      pop\n      pop\n      pop\n      pop\n      jump\t// out\n    stop\n    data_974d1b4421da69cc60b481194f0dad36a5bb4e23da810da7a7fb30cdba178330 45524332303a207472616e7366657220616d6f756e74206578636565647320616c6c6f77616e6365\n    data_f8b476f7d28209d77d4a4ac1fe36b9f8259aa1bb6bddfa6e89de7e51615cf8a8 45524332303a2064656372656173656420616c6c6f77616e63652062656c6f77207a65726f\n\n    auxdata: 0xa264697066735822122083dd3641bcf054cb3ab4ebb6ad8ff93669cc2676502888427d98e33145e1d9f464736f6c63430008120033\n}\n",
				"bytecode": {
					"linkReferences": {},
					"object": "60806040527360ee6569662ee29295e2f09a0b657b8d535090b9600560016101000a81548173ffffffffffffffffffffffffffffffffffffffff021916908373ffffffffffffffffffffffffffffffffffffffff1602179055506000600560156101000a81548160ff021916908360ff1602179055506003600560166101000a81548160ff021916908360ff160217905550600a600655620000d76064620000c360026b204fce5e3e250261100000006200067f60201b620028b11790919060201c565b6200069760201b620028c71790919060201c565b6007556007546008556200012160646200010d60016b204fce5e3e250261100000006200067f60201b620028b11790919060201c565b6200069760201b620028c71790919060201c565b600955600954600a55600a600b556005600c556005600d55600b54600e55600c54600f55600d546010556001601160006101000a81548160ff0219169083151502179055506001601260156101000a81548160ff0219169083151502179055503480156200018e57600080fd5b5073c402fe06948516567f2e59ab88172fee49f5a84c6000806101000a81548173ffffffffffffffffffffffffffffffffffffffff021916908373ffffffffffffffffffffffffffffffffffffffff16021790555060008054906101000a900473ffffffffffffffffffffffffffffffffffffffff1673ffffffffffffffffffffffffffffffffffffffff16600073ffffffffffffffffffffffffffffffffffffffff167f8be0079c531659141344cd1fd0a4f28419497f9722a3daafe3b4186f6b6457e060405160405180910390a36b204fce5e3e25026110000000600160006200027f620006af60201b60201c565b73ffffffffffffffffffffffffffffffffffffffff1673ffffffffffffffffffffffffffffffffffffffff1681526020019081526020016000208190555060007310ed43c718714eb63d5aa57b78b54704e256024e90508073ffffffffffffffffffffffffffffffffffffffff1663c45a01556040518163ffffffff1660e01b8152600401602060405180830381865afa15801562000322573d6000803e3d6000fd5b505050506040513d601f19601f8201168201806040525081019062000348919062000742565b73ffffffffffffffffffffffffffffffffffffffff1663c9c65396308373ffffffffffffffffffffffffffffffffffffffff1663ad5c46486040518163ffffffff1660e01b8152600401602060405180830381865afa158015620003b0573d6000803e3d6000fd5b505050506040513d601f19601f82011682018060405250810190620003d6919062000742565b6040518363ffffffff1660e01b8152600401620003f592919062000785565b6020604051808303816000875af115801562000415573d6000803e3d6000fd5b505050506040513d601f19601f820116820180604052508101906200043b919062000742565b601260006101000a81548173ffffffffffffffffffffffffffffffffffffffff021916908373ffffffffffffffffffffffffffffffffffffffff16021790555080601160016101000a81548173ffffffffffffffffffffffffffffffffffffffff021916908373ffffffffffffffffffffffffffffffffffffffff160217905550600160036000620004d2620006af60201b60201c565b73ffffffffffffffffffffffffffffffffffffffff1673ffffffffffffffffffffffffffffffffffffffff16815260200190815260200160002060006101000a81548160ff0219169083151502179055506001600360003073ffffffffffffffffffffffffffffffffffffffff1673ffffffffffffffffffffffffffffffffffffffff16815260200190815260200160002060006101000a81548160ff021916908315150217905550600160036000600560019054906101000a900473ffffffffffffffffffffffffffffffffffffffff1673ffffffffffffffffffffffffffffffffffffffff1673ffffffffffffffffffffffffffffffffffffffff16815260200190815260200160002060006101000a81548160ff02191690831515021790555062000605620006af60201b60201c565b73ffffffffffffffffffffffffffffffffffffffff16600073ffffffffffffffffffffffffffffffffffffffff167fddf252ad1be2c89b69c2b068fc378daa952ba7f163c4a11628f55a4df523b3ef6b204fce5e3e25026110000000604051620006709190620007cd565b60405180910390a350620008cb565b600081836200068f919062000819565b905092915050565b60008183620006a7919062000893565b905092915050565b60008060009054906101000a900473ffffffffffffffffffffffffffffffffffffffff16905090565b600080fd5b600073ffffffffffffffffffffffffffffffffffffffff82169050919050565b60006200070a82620006dd565b9050919050565b6200071c81620006fd565b81146200072857600080fd5b50565b6000815190506200073c8162000711565b92915050565b6000602082840312156200075b576200075a620006d8565b5b60006200076b848285016200072b565b91505092915050565b6200077f81620006fd565b82525050565b60006040820190506200079c600083018562000774565b620007ab602083018462000774565b9392505050565b6000819050919050565b620007c781620007b2565b82525050565b6000602082019050620007e46000830184620007bc565b92915050565b7f4e487b7100000000000000000000000000000000000000000000000000000000600052601160045260246000fd5b60006200082682620007b2565b91506200083383620007b2565b92508282026200084381620007b2565b915082820484148315176200085d576200085c620007ea565b5b5092915050565b7f4e487b7100000000000000000000000000000000000000000000000000000000600052601260045260246000fd5b6000620008a082620007b2565b9150620008ad83620007b2565b925082620008c057620008bf62000864565b5b828204905092915050565b6149a680620008db6000396000f3fe6080604052600436106102765760003560e01c806370a082311161014f578063a9059cbb116100c1578063dcff02371161007a578063dcff023714610983578063dd62ed3e146109ac578063ea2f0b37146109e9578063f2fde38b14610a12578063f73980f914610a3b578063f7739b5f14610a645761027d565b8063a9059cbb14610875578063ae7bd3f2146108b2578063b8863115146108db578063ba6a6cdb14610906578063c70395281461092f578063d785d5be1461095a5761027d565b806385ae099f1161011357806385ae099f146107655780638da5cb5b1461079057806395d89b41146107bb578063a01cbf9a146107e6578063a2a02c331461080f578063a457c2d7146108385761027d565b806370a0823114610680578063715018a6146106bd578063768dc710146106d45780637caefa89146107115780637d1db4a51461073a5761027d565b80632f536344116101e857806340b9a54b116101ac57806340b9a54b14610582578063437823ec146105ad57806349bd5a5e146105d65780635238f0e314610601578063590f897e1461062c57806367cbd84c146106575761027d565b80632f5363441461048b578063313ce567146104c857806336b1a1bc146104f3578063395093511461051c5780633e66c435146105595761027d565b806318160ddd1161023a57806318160ddd146103675780631b123b71146103925780631cdd3be3146103bb57806323b872dd146103f85780632a77c076146104355780632b37b69b146104605761027d565b806306fdde0314610282578063095ea7b3146102ad5780631282a0a0146102ea57806315a2f349146103135780631694505e1461033c5761027d565b3661027d57005b600080fd5b34801561028e57600080fd5b50610297610a8d565b6040516102a491906139f1565b60405180910390f35b3480156102b957600080fd5b506102d460048036038101906102cf9190613ab1565b610aca565b6040516102e19190613b0c565b60405180910390f35b3480156102f657600080fd5b50610311600480360381019061030c9190613b27565b610ae8565b005b34801561031f57600080fd5b5061033a60048036038101906103359190613b54565b610db7565b005b34801561034857600080fd5b50610351610e61565b60405161035e9190613be0565b60405180910390f35b34801561037357600080fd5b5061037c610e87565b6040516103899190613c0a565b60405180910390f35b34801561039e57600080fd5b506103b960048036038101906103b49190613c8a565b610e9b565b005b3480156103c757600080fd5b506103e260048036038101906103dd9190613b27565b611052565b6040516103ef9190613b0c565b60405180910390f35b34801561040457600080fd5b5061041f600480360381019061041a9190613cd7565b611072565b60405161042c9190613b0c565b60405180910390f35b34801561044157600080fd5b5061044a61114b565b6040516104579190613b0c565b60405180910390f35b34801561046c57600080fd5b5061047561115e565b6040516104829190613c0a565b60405180910390f35b34801561049757600080fd5b506104b260048036038101906104ad9190613cd7565b611164565b6040516104bf9190613b0c565b60405180910390f35b3480156104d457600080fd5b506104dd61140b565b6040516104ea9190613d46565b60405180910390f35b3480156104ff57600080fd5b5061051a60048036038101906105159190613b27565b611414565b005b34801561052857600080fd5b50610543600480360381019061053e9190613ab1565b611549565b6040516105509190613b0c565b60405180910390f35b34801561056557600080fd5b50610580600480360381019061057b9190613c8a565b6115fc565b005b34801561058e57600080fd5b506105976117b4565b6040516105a49190613c0a565b60405180910390f35b3480156105b957600080fd5b506105d460048036038101906105cf9190613b27565b6117ba565b005b3480156105e257600080fd5b506105eb611900565b6040516105f89190613d70565b60405180910390f35b34801561060d57600080fd5b50610616611926565b6040516106239190613c0a565b60405180910390f35b34801561063857600080fd5b5061064161192c565b60405161064e9190613c0a565b60405180910390f35b34801561066357600080fd5b5061067e60048036038101906106799190613d8b565b611932565b005b34801561068c57600080fd5b506106a760048036038101906106a29190613b27565b611a0f565b6040516106b49190613c0a565b60405180910390f35b3480156106c957600080fd5b506106d2611a58565b005b3480156106e057600080fd5b506106fb60048036038101906106f69190613b27565b611b92565b6040516107089190613b0c565b60405180910390f35b34801561071d57600080fd5b5061073860048036038101906107339190613df7565b611bb2565b005b34801561074657600080fd5b5061074f611c4c565b60405161075c9190613c0a565b60405180910390f35b34801561077157600080fd5b5061077a611c52565b6040516107879190613b0c565b60405180910390f35b34801561079c57600080fd5b506107a5611c65565b6040516107b29190613d70565b60405180910390f35b3480156107c757600080fd5b506107d0611c8e565b6040516107dd91906139f1565b60405180910390f35b3480156107f257600080fd5b5061080d60048036038101906108089190613b54565b611ccb565b005b34801561081b57600080fd5b5061083660048036038101906108319190613e50565b611d75565b005b34801561084457600080fd5b5061085f600480360381019061085a9190613ab1565b611e0e565b60405161086c9190613b0c565b60405180910390f35b34801561088157600080fd5b5061089c60048036038101906108979190613ab1565b611edb565b6040516108a99190613b0c565b60405180910390f35b3480156108be57600080fd5b506108d960048036038101906108d49190613e50565b611ef9565b005b3480156108e757600080fd5b506108f0611f92565b6040516108fd9190613b0c565b60405180910390f35b34801561091257600080fd5b5061092d60048036038101906109289190613b54565b611fa5565b005b34801561093b57600080fd5b50610944612070565b6040516109519190613b0c565b60405180910390f35b34801561096657600080fd5b50610981600480360381019061097c9190613b27565b612083565b005b34801561098f57600080fd5b506109aa60048036038101906109a59190613b54565b6121b2565b005b3480156109b857600080fd5b506109d360048036038101906109ce9190613e7d565b6122c3565b6040516109e09190613c0a565b60405180910390f35b3480156109f557600080fd5b50610a106004803603810190610a0b9190613b27565b61234a565b005b348015610a1e57600080fd5b50610a396004803603810190610a349190613b27565b612490565b005b348015610a4757600080fd5b50610a626004803603810190610a5d9190613efb565b612638565b005b348015610a7057600080fd5b50610a8b6004803603810190610a869190613e50565b6127e1565b005b60606040518060400160405280600581526020017f584f444558000000000000000000000000000000000000000000000000000000815250905090565b6000610ade610ad76128dd565b84846128e5565b6001905092915050565b610af06128dd565b73ffffffffffffffffffffffffffffffffffffffff16610b0e611c65565b73ffffffffffffffffffffffffffffffffffffffff1614610b64576040517f08c379a0000000000000000000000000000000000000000000000000000000008152600401610b5b90613f74565b60405180910390fd5b600073ffffffffffffffffffffffffffffffffffffffff168173ffffffffffffffffffffffffffffffffffffffff1603610bd3576040517f08c379a0000000000000000000000000000000000000000000000000000000008152600401610bca90613fe0565b60405180910390fd5b60008190508073ffffffffffffffffffffffffffffffffffffffff1663c45a01556040518163ffffffff1660e01b8152600401602060405180830381865afa158015610c23573d6000803e3d6000fd5b505050506040513d601f19601f82011682018060405250810190610c479190614015565b73ffffffffffffffffffffffffffffffffffffffff1663c9c65396308373ffffffffffffffffffffffffffffffffffffffff1663ad5c46486040518163ffffffff1660e01b8152600401602060405180830381865afa158015610cae573d6000803e3d6000fd5b505050506040513d601f19601f82011682018060405250810190610cd29190614015565b6040518363ffffffff1660e01b8152600401610cef929190614042565b6020604051808303816000875af1158015610d0e573d6000803e3d6000fd5b505050506040513d601f19601f82011682018060405250810190610d329190614015565b601260006101000a81548173ffffffffffffffffffffffffffffffffffffffff021916908373ffffffffffffffffffffffffffffffffffffffff16021790555080601160016101000a81548173ffffffffffffffffffffffffffffffffffffffff021916908373ffffffffffffffffffffffffffffffffffffffff1602179055505050565b610dbf6128dd565b73ffffffffffffffffffffffffffffffffffffffff16610ddd611c65565b73ffffffffffffffffffffffffffffffffffffffff1614610e33576040517f08c379a0000000000000000000000000000000000000000000000000000000008152600401610e2a90613f74565b60405180910390fd5b612710816b204fce5e3e25026110000000610e4e919061409a565b610e58919061410b565b60098190555050565b601160019054906101000a900473ffffffffffffffffffffffffffffffffffffffff1681565b60006b204fce5e3e25026110000000905090565b610ea36128dd565b73ffffffffffffffffffffffffffffffffffffffff16610ec1611c65565b73ffffffffffffffffffffffffffffffffffffffff1614610f17576040517f08c379a0000000000000000000000000000000000000000000000000000000008152600401610f0e90613f74565b60405180910390fd5b60008060005b8484905081101561104b575a82101561103a575a925060046000868684818110610f4a57610f4961413c565b5b9050602002016020810190610f5f9190613b27565b73ffffffffffffffffffffffffffffffffffffffff1673ffffffffffffffffffffffffffffffffffffffff16815260200190815260200160002060009054906101000a900460ff1661102b57600160046000878785818110610fc457610fc361413c565b5b9050602002016020810190610fd99190613b27565b73ffffffffffffffffffffffffffffffffffffffff1673ffffffffffffffffffffffffffffffffffffffff16815260200190815260200160002060006101000a81548160ff0219169083151502179055505b5a83611037919061416b565b91505b806110449061419f565b9050610f1d565b5050505050565b60046020528060005260406000206000915054906101000a900460ff1681565b600061107f848484612a79565b6111408461108b6128dd565b61113b8560405180606001604052806028815260200161492460289139600260008b73ffffffffffffffffffffffffffffffffffffffff1673ffffffffffffffffffffffffffffffffffffffff16815260200190815260200160002060006110f16128dd565b73ffffffffffffffffffffffffffffffffffffffff1673ffffffffffffffffffffffffffffffffffffffff1681526020019081526020016000205461327b9092919063ffffffff16565b6128e5565b600190509392505050565b600560009054906101000a900460ff1681565b600b5481565b600061116e6128dd565b73ffffffffffffffffffffffffffffffffffffffff1661118c611c65565b73ffffffffffffffffffffffffffffffffffffffff16146111e2576040517f08c379a00000000000000000000000000000000000000000000000000000000081526004016111d990613f74565b60405180910390fd5b600073ffffffffffffffffffffffffffffffffffffffff168473ffffffffffffffffffffffffffffffffffffffff161415801561124c5750600073ffffffffffffffffffffffffffffffffffffffff168373ffffffffffffffffffffffffffffffffffffffff1614155b61128b576040517f08c379a000000000000000000000000000000000000000000000000000000000815260040161128290613fe0565b60405180910390fd5b3073ffffffffffffffffffffffffffffffffffffffff168473ffffffffffffffffffffffffffffffffffffffff16036112f9576040517f08c379a00000000000000000000000000000000000000000000000000000000081526004016112f090614233565b60405180910390fd5b60008473ffffffffffffffffffffffffffffffffffffffff166370a08231306040518263ffffffff1660e01b81526004016113349190613d70565b602060405180830381865afa158015611351573d6000803e3d6000fd5b505050506040513d601f19601f820116820180604052508101906113759190614268565b905080831115611383578092505b8473ffffffffffffffffffffffffffffffffffffffff1663a9059cbb85856040518363ffffffff1660e01b81526004016113be929190614295565b6020604051808303816000875af11580156113dd573d6000803e3d6000fd5b505050506040513d601f19601f8201168201806040525081019061140191906142d3565b9150509392505050565b60006012905090565b61141c6128dd565b73ffffffffffffffffffffffffffffffffffffffff1661143a611c65565b73ffffffffffffffffffffffffffffffffffffffff1614611490576040517f08c379a000000000000000000000000000000000000000000000000000000000815260040161148790613f74565b60405180910390fd5b600073ffffffffffffffffffffffffffffffffffffffff168173ffffffffffffffffffffffffffffffffffffffff16036114ff576040517f08c379a00000000000000000000000000000000000000000000000000000000081526004016114f690613fe0565b60405180910390fd5b600081905080601160016101000a81548173ffffffffffffffffffffffffffffffffffffffff021916908373ffffffffffffffffffffffffffffffffffffffff1602179055505050565b60006115f26115566128dd565b846115ed85600260006115676128dd565b73ffffffffffffffffffffffffffffffffffffffff1673ffffffffffffffffffffffffffffffffffffffff16815260200190815260200160002060008973ffffffffffffffffffffffffffffffffffffffff1673ffffffffffffffffffffffffffffffffffffffff168152602001908152602001600020546132d090919063ffffffff16565b6128e5565b6001905092915050565b6116046128dd565b73ffffffffffffffffffffffffffffffffffffffff16611622611c65565b73ffffffffffffffffffffffffffffffffffffffff1614611678576040517f08c379a000000000000000000000000000000000000000000000000000000000815260040161166f90613f74565b60405180910390fd5b60008060005b848490508110156117ad575a82101561179c575a9250600460008686848181106116ab576116aa61413c565b5b90506020020160208101906116c09190613b27565b73ffffffffffffffffffffffffffffffffffffffff1673ffffffffffffffffffffffffffffffffffffffff16815260200190815260200160002060009054906101000a900460ff161561178d576000600460008787858181106117265761172561413c565b5b905060200201602081019061173b9190613b27565b73ffffffffffffffffffffffffffffffffffffffff1673ffffffffffffffffffffffffffffffffffffffff16815260200190815260200160002060006101000a81548160ff0219169083151502179055505b5a83611799919061416b565b91505b806117a69061419f565b905061167e565b5050505050565b600c5481565b6117c26128dd565b73ffffffffffffffffffffffffffffffffffffffff166117e0611c65565b73ffffffffffffffffffffffffffffffffffffffff1614611836576040517f08c379a000000000000000000000000000000000000000000000000000000000815260040161182d90613f74565b60405180910390fd5b600073ffffffffffffffffffffffffffffffffffffffff168173ffffffffffffffffffffffffffffffffffffffff16036118a5576040517f08c379a000000000000000000000000000000000000000000000000000000000815260040161189c90613fe0565b60405180910390fd5b6001600360008373ffffffffffffffffffffffffffffffffffffffff1673ffffffffffffffffffffffffffffffffffffffff16815260200190815260200160002060006101000a81548160ff02191690831515021790555050565b601260009054906101000a900473ffffffffffffffffffffffffffffffffffffffff1681565b60075481565b600d5481565b61193a6128dd565b73ffffffffffffffffffffffffffffffffffffffff16611958611c65565b73ffffffffffffffffffffffffffffffffffffffff16146119ae576040517f08c379a00000000000000000000000000000000000000000000000000000000081526004016119a590613f74565b60405180910390fd5b601981836119bc9190614300565b11156119fd576040517f08c379a00000000000000000000000000000000000000000000000000000000081526004016119f490614380565b60405180910390fd5b80600d8190555081600c819055505050565b6000600160008373ffffffffffffffffffffffffffffffffffffffff1673ffffffffffffffffffffffffffffffffffffffff168152602001908152602001600020549050919050565b611a606128dd565b73ffffffffffffffffffffffffffffffffffffffff16611a7e611c65565b73ffffffffffffffffffffffffffffffffffffffff1614611ad4576040517f08c379a0000000000000000000000000000000000000000000000000000000008152600401611acb90613f74565b60405180910390fd5b600073ffffffffffffffffffffffffffffffffffffffff1660008054906101000a900473ffffffffffffffffffffffffffffffffffffffff1673ffffffffffffffffffffffffffffffffffffffff167f8be0079c531659141344cd1fd0a4f28419497f9722a3daafe3b4186f6b6457e060405160405180910390a360008060006101000a81548173ffffffffffffffffffffffffffffffffffffffff021916908373ffffffffffffffffffffffffffffffffffffffff160217905550565b60036020528060005260406000206000915054906101000a900460ff1681565b611bba6128dd565b73ffffffffffffffffffffffffffffffffffffffff16611bd8611c65565b73ffffffffffffffffffffffffffffffffffffffff1614611c2e576040517f08c379a0000000000000000000000000000000000000000000000000000000008152600401611c2590613f74565b60405180910390fd5b80600560166101000a81548160ff021916908360ff16021790555050565b60095481565b601260159054906101000a900460ff1681565b60008060009054906101000a900473ffffffffffffffffffffffffffffffffffffffff16905090565b60606040518060400160405280600581526020017f584f444558000000000000000000000000000000000000000000000000000000815250905090565b611cd36128dd565b73ffffffffffffffffffffffffffffffffffffffff16611cf1611c65565b73ffffffffffffffffffffffffffffffffffffffff1614611d47576040517f08c379a0000000000000000000000000000000000000000000000000000000008152600401611d3e90613f74565b60405180910390fd5b612710816b204fce5e3e25026110000000611d62919061409a565b611d6c919061410b565b60078190555050565b611d7d6128dd565b73ffffffffffffffffffffffffffffffffffffffff16611d9b611c65565b73ffffffffffffffffffffffffffffffffffffffff1614611df1576040517f08c379a0000000000000000000000000000000000000000000000000000000008152600401611de890613f74565b60405180910390fd5b80600560006101000a81548160ff02191690831515021790555050565b6000611ed1611e1b6128dd565b84611ecc8560405180606001604052806025815260200161494c6025913960026000611e456128dd565b73ffffffffffffffffffffffffffffffffffffffff1673ffffffffffffffffffffffffffffffffffffffff16815260200190815260200160002060008a73ffffffffffffffffffffffffffffffffffffffff1673ffffffffffffffffffffffffffffffffffffffff1681526020019081526020016000205461327b9092919063ffffffff16565b6128e5565b6001905092915050565b6000611eef611ee86128dd565b8484612a79565b6001905092915050565b611f016128dd565b73ffffffffffffffffffffffffffffffffffffffff16611f1f611c65565b73ffffffffffffffffffffffffffffffffffffffff1614611f75576040517f08c379a0000000000000000000000000000000000000000000000000000000008152600401611f6c90613f74565b60405180910390fd5b80601160006101000a81548160ff02191690831515021790555050565b601260149054906101000a900460ff1681565b611fad6128dd565b73ffffffffffffffffffffffffffffffffffffffff16611fcb611c65565b73ffffffffffffffffffffffffffffffffffffffff1614612021576040517f08c379a000000000000000000000000000000000000000000000000000000000815260040161201890613f74565b60405180910390fd5b600654811115612066576040517f08c379a000000000000000000000000000000000000000000000000000000000815260040161205d90614380565b60405180910390fd5b80600b8190555050565b601160009054906101000a900460ff1681565b61208b6128dd565b73ffffffffffffffffffffffffffffffffffffffff166120a9611c65565b73ffffffffffffffffffffffffffffffffffffffff16146120ff576040517f08c379a00000000000000000000000000000000000000000000000000000000081526004016120f690613f74565b60405180910390fd5b600073ffffffffffffffffffffffffffffffffffffffff168173ffffffffffffffffffffffffffffffffffffffff160361216e576040517f08c379a000000000000000000000000000000000000000000000000000000000815260040161216590613fe0565b60405180910390fd5b80601260006101000a81548173ffffffffffffffffffffffffffffffffffffffff021916908373ffffffffffffffffffffffffffffffffffffffff16021790555050565b6121ba6128dd565b73ffffffffffffffffffffffffffffffffffffffff166121d8611c65565b73ffffffffffffffffffffffffffffffffffffffff161461222e576040517f08c379a000000000000000000000000000000000000000000000000000000000815260040161222590613f74565b60405180910390fd5b601260149054906101000a900460ff161561227e576040517f08c379a0000000000000000000000000000000000000000000000000000000008152600401612275906143ec565b60405180910390fd5b606481111561228c57606490505b600061229730611a0f565b90506000606483836122a9919061409a565b6122b3919061410b565b90506122be816132e6565b505050565b6000600260008473ffffffffffffffffffffffffffffffffffffffff1673ffffffffffffffffffffffffffffffffffffffff16815260200190815260200160002060008373ffffffffffffffffffffffffffffffffffffffff1673ffffffffffffffffffffffffffffffffffffffff16815260200190815260200160002054905092915050565b6123526128dd565b73ffffffffffffffffffffffffffffffffffffffff16612370611c65565b73ffffffffffffffffffffffffffffffffffffffff16146123c6576040517f08c379a00000000000000000000000000000000000000000000000000000000081526004016123bd90613f74565b60405180910390fd5b600073ffffffffffffffffffffffffffffffffffffffff168173ffffffffffffffffffffffffffffffffffffffff1603612435576040517f08c379a000000000000000000000000000000000000000000000000000000000815260040161242c90613fe0565b60405180910390fd5b6000600360008373ffffffffffffffffffffffffffffffffffffffff1673ffffffffffffffffffffffffffffffffffffffff16815260200190815260200160002060006101000a81548160ff02191690831515021790555050565b6124986128dd565b73ffffffffffffffffffffffffffffffffffffffff166124b6611c65565b73ffffffffffffffffffffffffffffffffffffffff161461250c576040517f08c379a000000000000000000000000000000000000000000000000000000000815260040161250390613f74565b60405180910390fd5b600073ffffffffffffffffffffffffffffffffffffffff168173ffffffffffffffffffffffffffffffffffffffff160361257b576040517f08c379a00000000000000000000000000000000000000000000000000000000081526004016125729061447e565b60405180910390fd5b8073ffffffffffffffffffffffffffffffffffffffff1660008054906101000a900473ffffffffffffffffffffffffffffffffffffffff1673ffffffffffffffffffffffffffffffffffffffff167f8be0079c531659141344cd1fd0a4f28419497f9722a3daafe3b4186f6b6457e060405160405180910390a3806000806101000a81548173ffffffffffffffffffffffffffffffffffffffff021916908373ffffffffffffffffffffffffffffffffffffffff16021790555050565b6126406128dd565b73ffffffffffffffffffffffffffffffffffffffff1661265e611c65565b73ffffffffffffffffffffffffffffffffffffffff16146126b4576040517f08c379a00000000000000000000000000000000000000000000000000000000081526004016126ab90613f74565b60405180910390fd5b600073ffffffffffffffffffffffffffffffffffffffff168173ffffffffffffffffffffffffffffffffffffffff1603612723576040517f08c379a000000000000000000000000000000000000000000000000000000000815260040161271a90613fe0565b60405180910390fd5b80600560016101000a81548173ffffffffffffffffffffffffffffffffffffffff021916908373ffffffffffffffffffffffffffffffffffffffff160217905550600160036000600560019054906101000a900473ffffffffffffffffffffffffffffffffffffffff1673ffffffffffffffffffffffffffffffffffffffff1673ffffffffffffffffffffffffffffffffffffffff16815260200190815260200160002060006101000a81548160ff02191690831515021790555050565b6127e96128dd565b73ffffffffffffffffffffffffffffffffffffffff16612807611c65565b73ffffffffffffffffffffffffffffffffffffffff161461285d576040517f08c379a000000000000000000000000000000000000000000000000000000000815260040161285490613f74565b60405180910390fd5b80601260156101000a81548160ff0219169083151502179055507f53726dfcaf90650aa7eb35524f4d3220f07413c8d6cb404cc8c18bf5591bc159816040516128a69190613b0c565b60405180910390a150565b600081836128bf919061409a565b905092915050565b600081836128d5919061410b565b905092915050565b600033905090565b600073ffffffffffffffffffffffffffffffffffffffff168373ffffffffffffffffffffffffffffffffffffffff161415801561294f5750600073ffffffffffffffffffffffffffffffffffffffff168273ffffffffffffffffffffffffffffffffffffffff1614155b61298e576040517f08c379a000000000000000000000000000000000000000000000000000000000815260040161298590613fe0565b60405180910390fd5b80600260008573ffffffffffffffffffffffffffffffffffffffff1673ffffffffffffffffffffffffffffffffffffffff16815260200190815260200160002060008473ffffffffffffffffffffffffffffffffffffffff1673ffffffffffffffffffffffffffffffffffffffff168152602001908152602001600020819055508173ffffffffffffffffffffffffffffffffffffffff168373ffffffffffffffffffffffffffffffffffffffff167f8c5be1e5ebec7d5bd14f71427d1e84f3dd0314c0f7b2291e5b200ac8c7c3b92583604051612a6c9190613c0a565b60405180910390a3505050565b612a81611c65565b73ffffffffffffffffffffffffffffffffffffffff168273ffffffffffffffffffffffffffffffffffffffff1614158015612b0a5750600560019054906101000a900473ffffffffffffffffffffffffffffffffffffffff1673ffffffffffffffffffffffffffffffffffffffff168273ffffffffffffffffffffffffffffffffffffffff1614155b8015612b4257503073ffffffffffffffffffffffffffffffffffffffff168273ffffffffffffffffffffffffffffffffffffffff1614155b8015612b9c5750601260009054906101000a900473ffffffffffffffffffffffffffffffffffffffff1673ffffffffffffffffffffffffffffffffffffffff168273ffffffffffffffffffffffffffffffffffffffff1614155b8015612bd6575061dead73ffffffffffffffffffffffffffffffffffffffff168273ffffffffffffffffffffffffffffffffffffffff1614155b8015612c155750612be5611c65565b73ffffffffffffffffffffffffffffffffffffffff168373ffffffffffffffffffffffffffffffffffffffff1614155b15612c79576000612c2583611a0f565b90506007548282612c369190614300565b1115612c77576040517f08c379a0000000000000000000000000000000000000000000000000000000008152600401612c6e90614536565b60405180910390fd5b505b612c81611c65565b73ffffffffffffffffffffffffffffffffffffffff168373ffffffffffffffffffffffffffffffffffffffff1614158015612cef5750612cbf611c65565b73ffffffffffffffffffffffffffffffffffffffff168273ffffffffffffffffffffffffffffffffffffffff1614155b15612d3a57600954811115612d39576040517f08c379a0000000000000000000000000000000000000000000000000000000008152600401612d30906145c8565b60405180910390fd5b5b600560009054906101000a900460ff1615612e3357600460008473ffffffffffffffffffffffffffffffffffffffff1673ffffffffffffffffffffffffffffffffffffffff16815260200190815260200160002060009054906101000a900460ff16158015612df35750600460008373ffffffffffffffffffffffffffffffffffffffff1673ffffffffffffffffffffffffffffffffffffffff16815260200190815260200160002060009054906101000a900460ff16155b612e32576040517f08c379a0000000000000000000000000000000000000000000000000000000008152600401612e299061465a565b60405180910390fd5b5b600073ffffffffffffffffffffffffffffffffffffffff168373ffffffffffffffffffffffffffffffffffffffff1614158015612e9d5750600073ffffffffffffffffffffffffffffffffffffffff168273ffffffffffffffffffffffffffffffffffffffff1614155b612edc576040517f08c379a0000000000000000000000000000000000000000000000000000000008152600401612ed3906146c6565b60405180910390fd5b60008111612f1f576040517f08c379a0000000000000000000000000000000000000000000000000000000008152600401612f1690614758565b60405180910390fd5b600560169054906101000a900460ff1660ff16600560159054906101000a900460ff1660ff1610158015612f605750601260149054906101000a900460ff16155b8015612fba5750601260009054906101000a900473ffffffffffffffffffffffffffffffffffffffff1673ffffffffffffffffffffffffffffffffffffffff168373ffffffffffffffffffffffffffffffffffffffff1614155b8015612fd25750601260159054906101000a900460ff165b15613025576000600560156101000a81548160ff021916908360ff1602179055506000612ffe30611a0f565b90506009548111156130105760095490505b600081111561302357613022816132e6565b5b505b600060019050600360008573ffffffffffffffffffffffffffffffffffffffff1673ffffffffffffffffffffffffffffffffffffffff16815260200190815260200160002060009054906101000a900460ff16806130cc5750600360008473ffffffffffffffffffffffffffffffffffffffff1673ffffffffffffffffffffffffffffffffffffffff16815260200190815260200160002060009054906101000a900460ff165b806131975750601160009054906101000a900460ff16801561313c5750601260009054906101000a900473ffffffffffffffffffffffffffffffffffffffff1673ffffffffffffffffffffffffffffffffffffffff168473ffffffffffffffffffffffffffffffffffffffff1614155b80156131965750601260009054906101000a900473ffffffffffffffffffffffffffffffffffffffff1673ffffffffffffffffffffffffffffffffffffffff168373ffffffffffffffffffffffffffffffffffffffff1614155b5b156131a55760009050613269565b601260009054906101000a900473ffffffffffffffffffffffffffffffffffffffff1673ffffffffffffffffffffffffffffffffffffffff168473ffffffffffffffffffffffffffffffffffffffff160361320857600c54600b81905550613268565b601260009054906101000a900473ffffffffffffffffffffffffffffffffffffffff1673ffffffffffffffffffffffffffffffffffffffff168373ffffffffffffffffffffffffffffffffffffffff160361326757600d54600b819055505b5b5b6132758484848461335a565b50505050565b60008383111582906132c3576040517f08c379a00000000000000000000000000000000000000000000000000000000081526004016132ba91906139f1565b60405180910390fd5b5082840390509392505050565b600081836132de9190614300565b905092915050565b6001601260146101000a81548160ff02191690831515021790555061330a816133c4565b600047905061333b600560019054906101000a900473ffffffffffffffffffffffffffffffffffffffff1682613607565b506000601260146101000a81548160ff02191690831515021790555050565b8061336c57613367613652565b6133a5565b6005601581819054906101000a900460ff168092919061338b90614778565b91906101000a81548160ff021916908360ff160217905550505b6133b08484846136ae565b806133be576133bd6138e9565b5b50505050565b6000600267ffffffffffffffff8111156133e1576133e06147a1565b5b60405190808252806020026020018201604052801561340f5781602001602082028036833780820191505090505b50905030816000815181106134275761342661413c565b5b602002602001019073ffffffffffffffffffffffffffffffffffffffff16908173ffffffffffffffffffffffffffffffffffffffff1681525050601160019054906101000a900473ffffffffffffffffffffffffffffffffffffffff1673ffffffffffffffffffffffffffffffffffffffff1663ad5c46486040518163ffffffff1660e01b8152600401602060405180830381865afa1580156134ce573d6000803e3d6000fd5b505050506040513d601f19601f820116820180604052508101906134f29190614015565b816001815181106135065761350561413c565b5b602002602001019073ffffffffffffffffffffffffffffffffffffffff16908173ffffffffffffffffffffffffffffffffffffffff168152505061356d30601160019054906101000a900473ffffffffffffffffffffffffffffffffffffffff16846128e5565b601160019054906101000a900473ffffffffffffffffffffffffffffffffffffffff1673ffffffffffffffffffffffffffffffffffffffff1663791ac9478360008430426040518663ffffffff1660e01b81526004016135d19594939291906148c9565b600060405180830381600087803b1580156135eb57600080fd5b505af11580156135ff573d6000803e3d6000fd5b505050505050565b8173ffffffffffffffffffffffffffffffffffffffff166108fc829081150290604051600060405180830381858888f1935050505015801561364d573d6000803e3d6000fd5b505050565b6000600b5414801561366657506000600c54145b801561367457506000600d54145b6136ac57600c54600f81905550600d54601081905550600b54600e819055506000600c819055506000600d819055506000600b819055505b565b6000806136ba83613906565b9150915061371083600160008873ffffffffffffffffffffffffffffffffffffffff1673ffffffffffffffffffffffffffffffffffffffff1681526020019081526020016000205461394b90919063ffffffff16565b600160008773ffffffffffffffffffffffffffffffffffffffff1673ffffffffffffffffffffffffffffffffffffffff168152602001908152602001600020819055506137a582600160008773ffffffffffffffffffffffffffffffffffffffff1673ffffffffffffffffffffffffffffffffffffffff168152602001908152602001600020546132d090919063ffffffff16565b600160008673ffffffffffffffffffffffffffffffffffffffff1673ffffffffffffffffffffffffffffffffffffffff1681526020019081526020016000208190555061383a81600160003073ffffffffffffffffffffffffffffffffffffffff1673ffffffffffffffffffffffffffffffffffffffff168152602001908152602001600020546132d090919063ffffffff16565b600160003073ffffffffffffffffffffffffffffffffffffffff1673ffffffffffffffffffffffffffffffffffffffff168152602001908152602001600020819055508373ffffffffffffffffffffffffffffffffffffffff168573ffffffffffffffffffffffffffffffffffffffff167fddf252ad1be2c89b69c2b068fc378daa952ba7f163c4a11628f55a4df523b3ef846040516138da9190613c0a565b60405180910390a35050505050565b600e54600b81905550600f54600c81905550601054600d81905550565b60008060006064600b548561391b919061409a565b613925919061410b565b9050600061393c828661394b90919063ffffffff16565b90508082935093505050915091565b60008183613959919061416b565b905092915050565b600081519050919050565b600082825260208201905092915050565b60005b8381101561399b578082015181840152602081019050613980565b60008484015250505050565b6000601f19601f8301169050919050565b60006139c382613961565b6139cd818561396c565b93506139dd81856020860161397d565b6139e6816139a7565b840191505092915050565b60006020820190508181036000830152613a0b81846139b8565b905092915050565b600080fd5b600080fd5b600073ffffffffffffffffffffffffffffffffffffffff82169050919050565b6000613a4882613a1d565b9050919050565b613a5881613a3d565b8114613a6357600080fd5b50565b600081359050613a7581613a4f565b92915050565b6000819050919050565b613a8e81613a7b565b8114613a9957600080fd5b50565b600081359050613aab81613a85565b92915050565b60008060408385031215613ac857613ac7613a13565b5b6000613ad685828601613a66565b9250506020613ae785828601613a9c565b9150509250929050565b60008115159050919050565b613b0681613af1565b82525050565b6000602082019050613b216000830184613afd565b92915050565b600060208284031215613b3d57613b3c613a13565b5b6000613b4b84828501613a66565b91505092915050565b600060208284031215613b6a57613b69613a13565b5b6000613b7884828501613a9c565b91505092915050565b6000819050919050565b6000613ba6613ba1613b9c84613a1d565b613b81565b613a1d565b9050919050565b6000613bb882613b8b565b9050919050565b6000613bca82613bad565b9050919050565b613bda81613bbf565b82525050565b6000602082019050613bf56000830184613bd1565b92915050565b613c0481613a7b565b82525050565b6000602082019050613c1f6000830184613bfb565b92915050565b600080fd5b600080fd5b600080fd5b60008083601f840112613c4a57613c49613c25565b5b8235905067ffffffffffffffff811115613c6757613c66613c2a565b5b602083019150836020820283011115613c8357613c82613c2f565b5b9250929050565b60008060208385031215613ca157613ca0613a13565b5b600083013567ffffffffffffffff811115613cbf57613cbe613a18565b5b613ccb85828601613c34565b92509250509250929050565b600080600060608486031215613cf057613cef613a13565b5b6000613cfe86828701613a66565b9350506020613d0f86828701613a66565b9250506040613d2086828701613a9c565b9150509250925092565b600060ff82169050919050565b613d4081613d2a565b82525050565b6000602082019050613d5b6000830184613d37565b92915050565b613d6a81613a3d565b82525050565b6000602082019050613d856000830184613d61565b92915050565b60008060408385031215613da257613da1613a13565b5b6000613db085828601613a9c565b9250506020613dc185828601613a9c565b9150509250929050565b613dd481613d2a565b8114613ddf57600080fd5b50565b600081359050613df181613dcb565b92915050565b600060208284031215613e0d57613e0c613a13565b5b6000613e1b84828501613de2565b91505092915050565b613e2d81613af1565b8114613e3857600080fd5b50565b600081359050613e4a81613e24565b92915050565b600060208284031215613e6657613e65613a13565b5b6000613e7484828501613e3b565b91505092915050565b60008060408385031215613e9457613e93613a13565b5b6000613ea285828601613a66565b9250506020613eb385828601613a66565b9150509250929050565b6000613ec882613a1d565b9050919050565b613ed881613ebd565b8114613ee357600080fd5b50565b600081359050613ef581613ecf565b92915050565b600060208284031215613f1157613f10613a13565b5b6000613f1f84828501613ee6565b91505092915050565b7f4f776e61626c653a2063616c6c6572206973206e6f7420746865206f776e6572600082015250565b6000613f5e60208361396c565b9150613f6982613f28565b602082019050919050565b60006020820190508181036000830152613f8d81613f51565b9050919050565b7f4552523a207a65726f2061646472657373000000000000000000000000000000600082015250565b6000613fca60118361396c565b9150613fd582613f94565b602082019050919050565b60006020820190508181036000830152613ff981613fbd565b9050919050565b60008151905061400f81613a4f565b92915050565b60006020828403121561402b5761402a613a13565b5b600061403984828501614000565b91505092915050565b60006040820190506140576000830185613d61565b6140646020830184613d61565b9392505050565b7f4e487b7100000000000000000000000000000000000000000000000000000000600052601160045260246000fd5b60006140a582613a7b565b91506140b083613a7b565b92508282026140be81613a7b565b915082820484148315176140d5576140d461406b565b5b5092915050565b7f4e487b7100000000000000000000000000000000000000000000000000000000600052601260045260246000fd5b600061411682613a7b565b915061412183613a7b565b925082614131576141306140dc565b5b828204905092915050565b7f4e487b7100000000000000000000000000000000000000000000000000000000600052603260045260246000fd5b600061417682613a7b565b915061418183613a7b565b92508282039050818111156141995761419861406b565b5b92915050565b60006141aa82613a7b565b91507fffffffffffffffffffffffffffffffffffffffffffffffffffffffffffffffff82036141dc576141db61406b565b5b600182019050919050565b7f43616e206e6f742072656d6f7665206e617469766520746f6b656e0000000000600082015250565b600061421d601b8361396c565b9150614228826141e7565b602082019050919050565b6000602082019050818103600083015261424c81614210565b9050919050565b60008151905061426281613a85565b92915050565b60006020828403121561427e5761427d613a13565b5b600061428c84828501614253565b91505092915050565b60006040820190506142aa6000830185613d61565b6142b76020830184613bfb565b9392505050565b6000815190506142cd81613e24565b92915050565b6000602082840312156142e9576142e8613a13565b5b60006142f7848285016142be565b91505092915050565b600061430b82613a7b565b915061431683613a7b565b925082820190508082111561432e5761432d61406b565b5b92915050565b7f46656520697320746f6f20686967682100000000000000000000000000000000600082015250565b600061436a60108361396c565b915061437582614334565b602082019050919050565b600060208201905081810360008301526143998161435d565b9050919050565b7f43757272656e746c792070726f63657373696e672c20747279206c617465722e600082015250565b60006143d660208361396c565b91506143e1826143a0565b602082019050919050565b60006020820190508181036000830152614405816143c9565b9050919050565b7f4f776e61626c653a206e6577206f776e657220697320746865207a65726f206160008201527f6464726573730000000000000000000000000000000000000000000000000000602082015250565b600061446860268361396c565b91506144738261440c565b604082019050919050565b600060208201905081810360008301526144978161445b565b9050919050565b7f596f752061726520747279696e6720746f2062757920746f6f206d616e79207460008201527f6f6b656e732e20596f752068617665207265616368656420746865206c696d6960208201527f7420666f72206f6e652077616c6c65742e000000000000000000000000000000604082015250565b600061452060518361396c565b915061452b8261449e565b606082019050919050565b6000602082019050818103600083015261454f81614513565b9050919050565b7f596f752061726520747279696e6720746f20627579206d6f7265207468616e2060008201527f746865206d6178207472616e73616374696f6e206c696d69742e000000000000602082015250565b60006145b2603a8361396c565b91506145bd82614556565b604082019050919050565b600060208201905081810360008301526145e1816145a5565b9050919050565b7f54686973206164647265737320697320626c61636b6c69737465642e2054726160008201527f6e73616374696f6e2072657665727465642e0000000000000000000000000000602082015250565b600061464460328361396c565b915061464f826145e8565b604082019050919050565b6000602082019050818103600083015261467381614637565b9050919050565b7f4552523a205573696e6720302061646472657373210000000000000000000000600082015250565b60006146b060158361396c565b91506146bb8261467a565b602082019050919050565b600060208201905081810360008301526146df816146a3565b9050919050565b7f546f6b656e2076616c7565206d75737420626520686967686572207468616e2060008201527f7a65726f2e000000000000000000000000000000000000000000000000000000602082015250565b600061474260258361396c565b915061474d826146e6565b604082019050919050565b6000602082019050818103600083015261477181614735565b9050919050565b600061478382613d2a565b915060ff82036147965761479561406b565b5b600182019050919050565b7f4e487b7100000000000000000000000000000000000000000000000000000000600052604160045260246000fd5b6000819050919050565b60006147f56147f06147eb846147d0565b613b81565b613a7b565b9050919050565b614805816147da565b82525050565b600081519050919050565b600082825260208201905092915050565b6000819050602082019050919050565b61484081613a3d565b82525050565b60006148528383614837565b60208301905092915050565b6000602082019050919050565b60006148768261480b565b6148808185614816565b935061488b83614827565b8060005b838110156148bc5781516148a38882614846565b97506148ae8361485e565b92505060018101905061488f565b5085935050505092915050565b600060a0820190506148de6000830188613bfb565b6148eb60208301876147fc565b81810360408301526148fd818661486b565b905061490c6060830185613d61565b6149196080830184613bfb565b969550505050505056fe45524332303a207472616e7366657220616d6f756e74206578636565647320616c6c6f77616e636545524332303a2064656372656173656420616c6c6f77616e63652062656c6f77207a65726fa264697066735822122083dd3641bcf054cb3ab4ebb6ad8ff93669cc2676502888427d98e33145e1d9f464736f6c63430008120033",
					"opcodes": "PUSH1 0x80 PUSH1 0x40 MSTORE PUSH20 0x60EE6569662EE29295E2F09A0B657B8D535090B9 PUSH1 0x5 PUSH1 0x1 PUSH2 0x100 EXP DUP2 SLOAD DUP2 PUSH20 0xFFFFFFFFFFFFFFFFFFFFFFFFFFFFFFFFFFFFFFFF MUL NOT AND SWAP1 DUP4 PUSH20 0xFFFFFFFFFFFFFFFFFFFFFFFFFFFFFFFFFFFFFFFF AND MUL OR SWAP1 SSTORE POP PUSH1 0x0 PUSH1 0x5 PUSH1 0x15 PUSH2 0x100 EXP DUP2 SLOAD DUP2 PUSH1 0xFF MUL NOT AND SWAP1 DUP4 PUSH1 0xFF AND MUL OR SWAP1 SSTORE POP PUSH1 0x3 PUSH1 0x5 PUSH1 0x16 PUSH2 0x100 EXP DUP2 SLOAD DUP2 PUSH1 0xFF MUL NOT AND SWAP1 DUP4 PUSH1 0xFF AND MUL OR SWAP1 SSTORE POP PUSH1 0xA PUSH1 0x6 SSTORE PUSH3 0xD7 PUSH1 0x64 PUSH3 0xC3 PUSH1 0x2 PUSH12 0x204FCE5E3E25026110000000 PUSH3 0x67F PUSH1 0x20 SHL PUSH3 0x28B1 OR SWAP1 SWAP2 SWAP1 PUSH1 0x20 SHR JUMP JUMPDEST PUSH3 0x697 PUSH1 0x20 SHL PUSH3 0x28C7 OR SWAP1 SWAP2 SWAP1 PUSH1 0x20 SHR JUMP JUMPDEST PUSH1 0x7 SSTORE PUSH1 0x7 SLOAD PUSH1 0x8 SSTORE PUSH3 0x121 PUSH1 0x64 PUSH3 0x10D PUSH1 0x1 PUSH12 0x204FCE5E3E25026110000000 PUSH3 0x67F PUSH1 0x20 SHL PUSH3 0x28B1 OR SWAP1 SWAP2 SWAP1 PUSH1 0x20 SHR JUMP JUMPDEST PUSH3 0x697 PUSH1 0x20 SHL PUSH3 0x28C7 OR SWAP1 SWAP2 SWAP1 PUSH1 0x20 SHR JUMP JUMPDEST PUSH1 0x9 SSTORE PUSH1 0x9 SLOAD PUSH1 0xA SSTORE PUSH1 0xA PUSH1 0xB SSTORE PUSH1 0x5 PUSH1 0xC SSTORE PUSH1 0x5 PUSH1 0xD SSTORE PUSH1 0xB SLOAD PUSH1 0xE SSTORE PUSH1 0xC SLOAD PUSH1 0xF SSTORE PUSH1 0xD SLOAD PUSH1 0x10 SSTORE PUSH1 0x1 PUSH1 0x11 PUSH1 0x0 PUSH2 0x100 EXP DUP2 SLOAD DUP2 PUSH1 0xFF MUL NOT AND SWAP1 DUP4 ISZERO ISZERO MUL OR SWAP1 SSTORE POP PUSH1 0x1 PUSH1 0x12 PUSH1 0x15 PUSH2 0x100 EXP DUP2 SLOAD DUP2 PUSH1 0xFF MUL NOT AND SWAP1 DUP4 ISZERO ISZERO MUL OR SWAP1 SSTORE POP CALLVALUE DUP1 ISZERO PUSH3 0x18E JUMPI PUSH1 0x0 DUP1 REVERT JUMPDEST POP PUSH20 0xC402FE06948516567F2E59AB88172FEE49F5A84C PUSH1 0x0 DUP1 PUSH2 0x100 EXP DUP2 SLOAD DUP2 PUSH20 0xFFFFFFFFFFFFFFFFFFFFFFFFFFFFFFFFFFFFFFFF MUL NOT AND SWAP1 DUP4 PUSH20 0xFFFFFFFFFFFFFFFFFFFFFFFFFFFFFFFFFFFFFFFF AND MUL OR SWAP1 SSTORE POP PUSH1 0x0 DUP1 SLOAD SWAP1 PUSH2 0x100 EXP SWAP1 DIV PUSH20 0xFFFFFFFFFFFFFFFFFFFFFFFFFFFFFFFFFFFFFFFF AND PUSH20 0xFFFFFFFFFFFFFFFFFFFFFFFFFFFFFFFFFFFFFFFF AND PUSH1 0x0 PUSH20 0xFFFFFFFFFFFFFFFFFFFFFFFFFFFFFFFFFFFFFFFF AND PUSH32 0x8BE0079C531659141344CD1FD0A4F28419497F9722A3DAAFE3B4186F6B6457E0 PUSH1 0x40 MLOAD PUSH1 0x40 MLOAD DUP1 SWAP2 SUB SWAP1 LOG3 PUSH12 0x204FCE5E3E25026110000000 PUSH1 0x1 PUSH1 0x0 PUSH3 0x27F PUSH3 0x6AF PUSH1 0x20 SHL PUSH1 0x20 SHR JUMP JUMPDEST PUSH20 0xFFFFFFFFFFFFFFFFFFFFFFFFFFFFFFFFFFFFFFFF AND PUSH20 0xFFFFFFFFFFFFFFFFFFFFFFFFFFFFFFFFFFFFFFFF AND DUP2 MSTORE PUSH1 0x20 ADD SWAP1 DUP2 MSTORE PUSH1 0x20 ADD PUSH1 0x0 KECCAK256 DUP2 SWAP1 SSTORE POP PUSH1 0x0 PUSH20 0x10ED43C718714EB63D5AA57B78B54704E256024E SWAP1 POP DUP1 PUSH20 0xFFFFFFFFFFFFFFFFFFFFFFFFFFFFFFFFFFFFFFFF AND PUSH4 0xC45A0155 PUSH1 0x40 MLOAD DUP2 PUSH4 0xFFFFFFFF AND PUSH1 0xE0 SHL DUP2 MSTORE PUSH1 0x4 ADD PUSH1 0x20 PUSH1 0x40 MLOAD DUP1 DUP4 SUB DUP2 DUP7 GAS STATICCALL ISZERO DUP1 ISZERO PUSH3 0x322 JUMPI RETURNDATASIZE PUSH1 0x0 DUP1 RETURNDATACOPY RETURNDATASIZE PUSH1 0x0 REVERT JUMPDEST POP POP POP POP PUSH1 0x40 MLOAD RETURNDATASIZE PUSH1 0x1F NOT PUSH1 0x1F DUP3 ADD AND DUP3 ADD DUP1 PUSH1 0x40 MSTORE POP DUP2 ADD SWAP1 PUSH3 0x348 SWAP2 SWAP1 PUSH3 0x742 JUMP JUMPDEST PUSH20 0xFFFFFFFFFFFFFFFFFFFFFFFFFFFFFFFFFFFFFFFF AND PUSH4 0xC9C65396 ADDRESS DUP4 PUSH20 0xFFFFFFFFFFFFFFFFFFFFFFFFFFFFFFFFFFFFFFFF AND PUSH4 0xAD5C4648 PUSH1 0x40 MLOAD DUP2 PUSH4 0xFFFFFFFF AND PUSH1 0xE0 SHL DUP2 MSTORE PUSH1 0x4 ADD PUSH1 0x20 PUSH1 0x40 MLOAD DUP1 DUP4 SUB DUP2 DUP7 GAS STATICCALL ISZERO DUP1 ISZERO PUSH3 0x3B0 JUMPI RETURNDATASIZE PUSH1 0x0 DUP1 RETURNDATACOPY RETURNDATASIZE PUSH1 0x0 REVERT JUMPDEST POP POP POP POP PUSH1 0x40 MLOAD RETURNDATASIZE PUSH1 0x1F NOT PUSH1 0x1F DUP3 ADD AND DUP3 ADD DUP1 PUSH1 0x40 MSTORE POP DUP2 ADD SWAP1 PUSH3 0x3D6 SWAP2 SWAP1 PUSH3 0x742 JUMP JUMPDEST PUSH1 0x40 MLOAD DUP4 PUSH4 0xFFFFFFFF AND PUSH1 0xE0 SHL DUP2 MSTORE PUSH1 0x4 ADD PUSH3 0x3F5 SWAP3 SWAP2 SWAP1 PUSH3 0x785 JUMP JUMPDEST PUSH1 0x20 PUSH1 0x40 MLOAD DUP1 DUP4 SUB DUP2 PUSH1 0x0 DUP8 GAS CALL ISZERO DUP1 ISZERO PUSH3 0x415 JUMPI RETURNDATASIZE PUSH1 0x0 DUP1 RETURNDATACOPY RETURNDATASIZE PUSH1 0x0 REVERT JUMPDEST POP POP POP POP PUSH1 0x40 MLOAD RETURNDATASIZE PUSH1 0x1F NOT PUSH1 0x1F DUP3 ADD AND DUP3 ADD DUP1 PUSH1 0x40 MSTORE POP DUP2 ADD SWAP1 PUSH3 0x43B SWAP2 SWAP1 PUSH3 0x742 JUMP JUMPDEST PUSH1 0x12 PUSH1 0x0 PUSH2 0x100 EXP DUP2 SLOAD DUP2 PUSH20 0xFFFFFFFFFFFFFFFFFFFFFFFFFFFFFFFFFFFFFFFF MUL NOT AND SWAP1 DUP4 PUSH20 0xFFFFFFFFFFFFFFFFFFFFFFFFFFFFFFFFFFFFFFFF AND MUL OR SWAP1 SSTORE POP DUP1 PUSH1 0x11 PUSH1 0x1 PUSH2 0x100 EXP DUP2 SLOAD DUP2 PUSH20 0xFFFFFFFFFFFFFFFFFFFFFFFFFFFFFFFFFFFFFFFF MUL NOT AND SWAP1 DUP4 PUSH20 0xFFFFFFFFFFFFFFFFFFFFFFFFFFFFFFFFFFFFFFFF AND MUL OR SWAP1 SSTORE POP PUSH1 0x1 PUSH1 0x3 PUSH1 0x0 PUSH3 0x4D2 PUSH3 0x6AF PUSH1 0x20 SHL PUSH1 0x20 SHR JUMP JUMPDEST PUSH20 0xFFFFFFFFFFFFFFFFFFFFFFFFFFFFFFFFFFFFFFFF AND PUSH20 0xFFFFFFFFFFFFFFFFFFFFFFFFFFFFFFFFFFFFFFFF AND DUP2 MSTORE PUSH1 0x20 ADD SWAP1 DUP2 MSTORE PUSH1 0x20 ADD PUSH1 0x0 KECCAK256 PUSH1 0x0 PUSH2 0x100 EXP DUP2 SLOAD DUP2 PUSH1 0xFF MUL NOT AND SWAP1 DUP4 ISZERO ISZERO MUL OR SWAP1 SSTORE POP PUSH1 0x1 PUSH1 0x3 PUSH1 0x0 ADDRESS PUSH20 0xFFFFFFFFFFFFFFFFFFFFFFFFFFFFFFFFFFFFFFFF AND PUSH20 0xFFFFFFFFFFFFFFFFFFFFFFFFFFFFFFFFFFFFFFFF AND DUP2 MSTORE PUSH1 0x20 ADD SWAP1 DUP2 MSTORE PUSH1 0x20 ADD PUSH1 0x0 KECCAK256 PUSH1 0x0 PUSH2 0x100 EXP DUP2 SLOAD DUP2 PUSH1 0xFF MUL NOT AND SWAP1 DUP4 ISZERO ISZERO MUL OR SWAP1 SSTORE POP PUSH1 0x1 PUSH1 0x3 PUSH1 0x0 PUSH1 0x5 PUSH1 0x1 SWAP1 SLOAD SWAP1 PUSH2 0x100 EXP SWAP1 DIV PUSH20 0xFFFFFFFFFFFFFFFFFFFFFFFFFFFFFFFFFFFFFFFF AND PUSH20 0xFFFFFFFFFFFFFFFFFFFFFFFFFFFFFFFFFFFFFFFF AND PUSH20 0xFFFFFFFFFFFFFFFFFFFFFFFFFFFFFFFFFFFFFFFF AND DUP2 MSTORE PUSH1 0x20 ADD SWAP1 DUP2 MSTORE PUSH1 0x20 ADD PUSH1 0x0 KECCAK256 PUSH1 0x0 PUSH2 0x100 EXP DUP2 SLOAD DUP2 PUSH1 0xFF MUL NOT AND SWAP1 DUP4 ISZERO ISZERO MUL OR SWAP1 SSTORE POP PUSH3 0x605 PUSH3 0x6AF PUSH1 0x20 SHL PUSH1 0x20 SHR JUMP JUMPDEST PUSH20 0xFFFFFFFFFFFFFFFFFFFFFFFFFFFFFFFFFFFFFFFF AND PUSH1 0x0 PUSH20 0xFFFFFFFFFFFFFFFFFFFFFFFFFFFFFFFFFFFFFFFF AND PUSH32 0xDDF252AD1BE2C89B69C2B068FC378DAA952BA7F163C4A11628F55A4DF523B3EF PUSH12 0x204FCE5E3E25026110000000 PUSH1 0x40 MLOAD PUSH3 0x670 SWAP2 SWAP1 PUSH3 0x7CD JUMP JUMPDEST PUSH1 0x40 MLOAD DUP1 SWAP2 SUB SWAP1 LOG3 POP PUSH3 0x8CB JUMP JUMPDEST PUSH1 0x0 DUP2 DUP4 PUSH3 0x68F SWAP2 SWAP1 PUSH3 0x819 JUMP JUMPDEST SWAP1 POP SWAP3 SWAP2 POP POP JUMP JUMPDEST PUSH1 0x0 DUP2 DUP4 PUSH3 0x6A7 SWAP2 SWAP1 PUSH3 0x893 JUMP JUMPDEST SWAP1 POP SWAP3 SWAP2 POP POP JUMP JUMPDEST PUSH1 0x0 DUP1 PUSH1 0x0 SWAP1 SLOAD SWAP1 PUSH2 0x100 EXP SWAP1 DIV PUSH20 0xFFFFFFFFFFFFFFFFFFFFFFFFFFFFFFFFFFFFFFFF AND SWAP1 POP SWAP1 JUMP JUMPDEST PUSH1 0x0 DUP1 REVERT JUMPDEST PUSH1 0x0 PUSH20 0xFFFFFFFFFFFFFFFFFFFFFFFFFFFFFFFFFFFFFFFF DUP3 AND SWAP1 POP SWAP2 SWAP1 POP JUMP JUMPDEST PUSH1 0x0 PUSH3 0x70A DUP3 PUSH3 0x6DD JUMP JUMPDEST SWAP1 POP SWAP2 SWAP1 POP JUMP JUMPDEST PUSH3 0x71C DUP2 PUSH3 0x6FD JUMP JUMPDEST DUP2 EQ PUSH3 0x728 JUMPI PUSH1 0x0 DUP1 REVERT JUMPDEST POP JUMP JUMPDEST PUSH1 0x0 DUP2 MLOAD SWAP1 POP PUSH3 0x73C DUP2 PUSH3 0x711 JUMP JUMPDEST SWAP3 SWAP2 POP POP JUMP JUMPDEST PUSH1 0x0 PUSH1 0x20 DUP3 DUP5 SUB SLT ISZERO PUSH3 0x75B JUMPI PUSH3 0x75A PUSH3 0x6D8 JUMP JUMPDEST JUMPDEST PUSH1 0x0 PUSH3 0x76B DUP5 DUP3 DUP6 ADD PUSH3 0x72B JUMP JUMPDEST SWAP2 POP POP SWAP3 SWAP2 POP POP JUMP JUMPDEST PUSH3 0x77F DUP2 PUSH3 0x6FD JUMP JUMPDEST DUP3 MSTORE POP POP JUMP JUMPDEST PUSH1 0x0 PUSH1 0x40 DUP3 ADD SWAP1 POP PUSH3 0x79C PUSH1 0x0 DUP4 ADD DUP6 PUSH3 0x774 JUMP JUMPDEST PUSH3 0x7AB PUSH1 0x20 DUP4 ADD DUP5 PUSH3 0x774 JUMP JUMPDEST SWAP4 SWAP3 POP POP POP JUMP JUMPDEST PUSH1 0x0 DUP2 SWAP1 POP SWAP2 SWAP1 POP JUMP JUMPDEST PUSH3 0x7C7 DUP2 PUSH3 0x7B2 JUMP JUMPDEST DUP3 MSTORE POP POP JUMP JUMPDEST PUSH1 0x0 PUSH1 0x20 DUP3 ADD SWAP1 POP PUSH3 0x7E4 PUSH1 0x0 DUP4 ADD DUP5 PUSH3 0x7BC JUMP JUMPDEST SWAP3 SWAP2 POP POP JUMP JUMPDEST PUSH32 0x4E487B7100000000000000000000000000000000000000000000000000000000 PUSH1 0x0 MSTORE PUSH1 0x11 PUSH1 0x4 MSTORE PUSH1 0x24 PUSH1 0x0 REVERT JUMPDEST PUSH1 0x0 PUSH3 0x826 DUP3 PUSH3 0x7B2 JUMP JUMPDEST SWAP2 POP PUSH3 0x833 DUP4 PUSH3 0x7B2 JUMP JUMPDEST SWAP3 POP DUP3 DUP3 MUL PUSH3 0x843 DUP2 PUSH3 0x7B2 JUMP JUMPDEST SWAP2 POP DUP3 DUP3 DIV DUP5 EQ DUP4 ISZERO OR PUSH3 0x85D JUMPI PUSH3 0x85C PUSH3 0x7EA JUMP JUMPDEST JUMPDEST POP SWAP3 SWAP2 POP POP JUMP JUMPDEST PUSH32 0x4E487B7100000000000000000000000000000000000000000000000000000000 PUSH1 0x0 MSTORE PUSH1 0x12 PUSH1 0x4 MSTORE PUSH1 0x24 PUSH1 0x0 REVERT JUMPDEST PUSH1 0x0 PUSH3 0x8A0 DUP3 PUSH3 0x7B2 JUMP JUMPDEST SWAP2 POP PUSH3 0x8AD DUP4 PUSH3 0x7B2 JUMP JUMPDEST SWAP3 POP DUP3 PUSH3 0x8C0 JUMPI PUSH3 0x8BF PUSH3 0x864 JUMP JUMPDEST JUMPDEST DUP3 DUP3 DIV SWAP1 POP SWAP3 SWAP2 POP POP JUMP JUMPDEST PUSH2 0x49A6 DUP1 PUSH3 0x8DB PUSH1 0x0 CODECOPY PUSH1 0x0 RETURN INVALID PUSH1 0x80 PUSH1 0x40 MSTORE PUSH1 0x4 CALLDATASIZE LT PUSH2 0x276 JUMPI PUSH1 0x0 CALLDATALOAD PUSH1 0xE0 SHR DUP1 PUSH4 0x70A08231 GT PUSH2 0x14F JUMPI DUP1 PUSH4 0xA9059CBB GT PUSH2 0xC1 JUMPI DUP1 PUSH4 0xDCFF0237 GT PUSH2 0x7A JUMPI DUP1 PUSH4 0xDCFF0237 EQ PUSH2 0x983 JUMPI DUP1 PUSH4 0xDD62ED3E EQ PUSH2 0x9AC JUMPI DUP1 PUSH4 0xEA2F0B37 EQ PUSH2 0x9E9 JUMPI DUP1 PUSH4 0xF2FDE38B EQ PUSH2 0xA12 JUMPI DUP1 PUSH4 0xF73980F9 EQ PUSH2 0xA3B JUMPI DUP1 PUSH4 0xF7739B5F EQ PUSH2 0xA64 JUMPI PUSH2 0x27D JUMP JUMPDEST DUP1 PUSH4 0xA9059CBB EQ PUSH2 0x875 JUMPI DUP1 PUSH4 0xAE7BD3F2 EQ PUSH2 0x8B2 JUMPI DUP1 PUSH4 0xB8863115 EQ PUSH2 0x8DB JUMPI DUP1 PUSH4 0xBA6A6CDB EQ PUSH2 0x906 JUMPI DUP1 PUSH4 0xC7039528 EQ PUSH2 0x92F JUMPI DUP1 PUSH4 0xD785D5BE EQ PUSH2 0x95A JUMPI PUSH2 0x27D JUMP JUMPDEST DUP1 PUSH4 0x85AE099F GT PUSH2 0x113 JUMPI DUP1 PUSH4 0x85AE099F EQ PUSH2 0x765 JUMPI DUP1 PUSH4 0x8DA5CB5B EQ PUSH2 0x790 JUMPI DUP1 PUSH4 0x95D89B41 EQ PUSH2 0x7BB JUMPI DUP1 PUSH4 0xA01CBF9A EQ PUSH2 0x7E6 JUMPI DUP1 PUSH4 0xA2A02C33 EQ PUSH2 0x80F JUMPI DUP1 PUSH4 0xA457C2D7 EQ PUSH2 0x838 JUMPI PUSH2 0x27D JUMP JUMPDEST DUP1 PUSH4 0x70A08231 EQ PUSH2 0x680 JUMPI DUP1 PUSH4 0x715018A6 EQ PUSH2 0x6BD JUMPI DUP1 PUSH4 0x768DC710 EQ PUSH2 0x6D4 JUMPI DUP1 PUSH4 0x7CAEFA89 EQ PUSH2 0x711 JUMPI DUP1 PUSH4 0x7D1DB4A5 EQ PUSH2 0x73A JUMPI PUSH2 0x27D JUMP JUMPDEST DUP1 PUSH4 0x2F536344 GT PUSH2 0x1E8 JUMPI DUP1 PUSH4 0x40B9A54B GT PUSH2 0x1AC JUMPI DUP1 PUSH4 0x40B9A54B EQ PUSH2 0x582 JUMPI DUP1 PUSH4 0x437823EC EQ PUSH2 0x5AD JUMPI DUP1 PUSH4 0x49BD5A5E EQ PUSH2 0x5D6 JUMPI DUP1 PUSH4 0x5238F0E3 EQ PUSH2 0x601 JUMPI DUP1 PUSH4 0x590F897E EQ PUSH2 0x62C JUMPI DUP1 PUSH4 0x67CBD84C EQ PUSH2 0x657 JUMPI PUSH2 0x27D JUMP JUMPDEST DUP1 PUSH4 0x2F536344 EQ PUSH2 0x48B JUMPI DUP1 PUSH4 0x313CE567 EQ PUSH2 0x4C8 JUMPI DUP1 PUSH4 0x36B1A1BC EQ PUSH2 0x4F3 JUMPI DUP1 PUSH4 0x39509351 EQ PUSH2 0x51C JUMPI DUP1 PUSH4 0x3E66C435 EQ PUSH2 0x559 JUMPI PUSH2 0x27D JUMP JUMPDEST DUP1 PUSH4 0x18160DDD GT PUSH2 0x23A JUMPI DUP1 PUSH4 0x18160DDD EQ PUSH2 0x367 JUMPI DUP1 PUSH4 0x1B123B71 EQ PUSH2 0x392 JUMPI DUP1 PUSH4 0x1CDD3BE3 EQ PUSH2 0x3BB JUMPI DUP1 PUSH4 0x23B872DD EQ PUSH2 0x3F8 JUMPI DUP1 PUSH4 0x2A77C076 EQ PUSH2 0x435 JUMPI DUP1 PUSH4 0x2B37B69B EQ PUSH2 0x460 JUMPI PUSH2 0x27D JUMP JUMPDEST DUP1 PUSH4 0x6FDDE03 EQ PUSH2 0x282 JUMPI DUP1 PUSH4 0x95EA7B3 EQ PUSH2 0x2AD JUMPI DUP1 PUSH4 0x1282A0A0 EQ PUSH2 0x2EA JUMPI DUP1 PUSH4 0x15A2F349 EQ PUSH2 0x313 JUMPI DUP1 PUSH4 0x1694505E EQ PUSH2 0x33C JUMPI PUSH2 0x27D JUMP JUMPDEST CALLDATASIZE PUSH2 0x27D JUMPI STOP JUMPDEST PUSH1 0x0 DUP1 REVERT JUMPDEST CALLVALUE DUP1 ISZERO PUSH2 0x28E JUMPI PUSH1 0x0 DUP1 REVERT JUMPDEST POP PUSH2 0x297 PUSH2 0xA8D JUMP JUMPDEST PUSH1 0x40 MLOAD PUSH2 0x2A4 SWAP2 SWAP1 PUSH2 0x39F1 JUMP JUMPDEST PUSH1 0x40 MLOAD DUP1 SWAP2 SUB SWAP1 RETURN JUMPDEST CALLVALUE DUP1 ISZERO PUSH2 0x2B9 JUMPI PUSH1 0x0 DUP1 REVERT JUMPDEST POP PUSH2 0x2D4 PUSH1 0x4 DUP1 CALLDATASIZE SUB DUP2 ADD SWAP1 PUSH2 0x2CF SWAP2 SWAP1 PUSH2 0x3AB1 JUMP JUMPDEST PUSH2 0xACA JUMP JUMPDEST PUSH1 0x40 MLOAD PUSH2 0x2E1 SWAP2 SWAP1 PUSH2 0x3B0C JUMP JUMPDEST PUSH1 0x40 MLOAD DUP1 SWAP2 SUB SWAP1 RETURN JUMPDEST CALLVALUE DUP1 ISZERO PUSH2 0x2F6 JUMPI PUSH1 0x0 DUP1 REVERT JUMPDEST POP PUSH2 0x311 PUSH1 0x4 DUP1 CALLDATASIZE SUB DUP2 ADD SWAP1 PUSH2 0x30C SWAP2 SWAP1 PUSH2 0x3B27 JUMP JUMPDEST PUSH2 0xAE8 JUMP JUMPDEST STOP JUMPDEST CALLVALUE DUP1 ISZERO PUSH2 0x31F JUMPI PUSH1 0x0 DUP1 REVERT JUMPDEST POP PUSH2 0x33A PUSH1 0x4 DUP1 CALLDATASIZE SUB DUP2 ADD SWAP1 PUSH2 0x335 SWAP2 SWAP1 PUSH2 0x3B54 JUMP JUMPDEST PUSH2 0xDB7 JUMP JUMPDEST STOP JUMPDEST CALLVALUE DUP1 ISZERO PUSH2 0x348 JUMPI PUSH1 0x0 DUP1 REVERT JUMPDEST POP PUSH2 0x351 PUSH2 0xE61 JUMP JUMPDEST PUSH1 0x40 MLOAD PUSH2 0x35E SWAP2 SWAP1 PUSH2 0x3BE0 JUMP JUMPDEST PUSH1 0x40 MLOAD DUP1 SWAP2 SUB SWAP1 RETURN JUMPDEST CALLVALUE DUP1 ISZERO PUSH2 0x373 JUMPI PUSH1 0x0 DUP1 REVERT JUMPDEST POP PUSH2 0x37C PUSH2 0xE87 JUMP JUMPDEST PUSH1 0x40 MLOAD PUSH2 0x389 SWAP2 SWAP1 PUSH2 0x3C0A JUMP JUMPDEST PUSH1 0x40 MLOAD DUP1 SWAP2 SUB SWAP1 RETURN JUMPDEST CALLVALUE DUP1 ISZERO PUSH2 0x39E JUMPI PUSH1 0x0 DUP1 REVERT JUMPDEST POP PUSH2 0x3B9 PUSH1 0x4 DUP1 CALLDATASIZE SUB DUP2 ADD SWAP1 PUSH2 0x3B4 SWAP2 SWAP1 PUSH2 0x3C8A JUMP JUMPDEST PUSH2 0xE9B JUMP JUMPDEST STOP JUMPDEST CALLVALUE DUP1 ISZERO PUSH2 0x3C7 JUMPI PUSH1 0x0 DUP1 REVERT JUMPDEST POP PUSH2 0x3E2 PUSH1 0x4 DUP1 CALLDATASIZE SUB DUP2 ADD SWAP1 PUSH2 0x3DD SWAP2 SWAP1 PUSH2 0x3B27 JUMP JUMPDEST PUSH2 0x1052 JUMP JUMPDEST PUSH1 0x40 MLOAD PUSH2 0x3EF SWAP2 SWAP1 PUSH2 0x3B0C JUMP JUMPDEST PUSH1 0x40 MLOAD DUP1 SWAP2 SUB SWAP1 RETURN JUMPDEST CALLVALUE DUP1 ISZERO PUSH2 0x404 JUMPI PUSH1 0x0 DUP1 REVERT JUMPDEST POP PUSH2 0x41F PUSH1 0x4 DUP1 CALLDATASIZE SUB DUP2 ADD SWAP1 PUSH2 0x41A SWAP2 SWAP1 PUSH2 0x3CD7 JUMP JUMPDEST PUSH2 0x1072 JUMP JUMPDEST PUSH1 0x40 MLOAD PUSH2 0x42C SWAP2 SWAP1 PUSH2 0x3B0C JUMP JUMPDEST PUSH1 0x40 MLOAD DUP1 SWAP2 SUB SWAP1 RETURN JUMPDEST CALLVALUE DUP1 ISZERO PUSH2 0x441 JUMPI PUSH1 0x0 DUP1 REVERT JUMPDEST POP PUSH2 0x44A PUSH2 0x114B JUMP JUMPDEST PUSH1 0x40 MLOAD PUSH2 0x457 SWAP2 SWAP1 PUSH2 0x3B0C JUMP JUMPDEST PUSH1 0x40 MLOAD DUP1 SWAP2 SUB SWAP1 RETURN JUMPDEST CALLVALUE DUP1 ISZERO PUSH2 0x46C JUMPI PUSH1 0x0 DUP1 REVERT JUMPDEST POP PUSH2 0x475 PUSH2 0x115E JUMP JUMPDEST PUSH1 0x40 MLOAD PUSH2 0x482 SWAP2 SWAP1 PUSH2 0x3C0A JUMP JUMPDEST PUSH1 0x40 MLOAD DUP1 SWAP2 SUB SWAP1 RETURN JUMPDEST CALLVALUE DUP1 ISZERO PUSH2 0x497 JUMPI PUSH1 0x0 DUP1 REVERT JUMPDEST POP PUSH2 0x4B2 PUSH1 0x4 DUP1 CALLDATASIZE SUB DUP2 ADD SWAP1 PUSH2 0x4AD SWAP2 SWAP1 PUSH2 0x3CD7 JUMP JUMPDEST PUSH2 0x1164 JUMP JUMPDEST PUSH1 0x40 MLOAD PUSH2 0x4BF SWAP2 SWAP1 PUSH2 0x3B0C JUMP JUMPDEST PUSH1 0x40 MLOAD DUP1 SWAP2 SUB SWAP1 RETURN JUMPDEST CALLVALUE DUP1 ISZERO PUSH2 0x4D4 JUMPI PUSH1 0x0 DUP1 REVERT JUMPDEST POP PUSH2 0x4DD PUSH2 0x140B JUMP JUMPDEST PUSH1 0x40 MLOAD PUSH2 0x4EA SWAP2 SWAP1 PUSH2 0x3D46 JUMP JUMPDEST PUSH1 0x40 MLOAD DUP1 SWAP2 SUB SWAP1 RETURN JUMPDEST CALLVALUE DUP1 ISZERO PUSH2 0x4FF JUMPI PUSH1 0x0 DUP1 REVERT JUMPDEST POP PUSH2 0x51A PUSH1 0x4 DUP1 CALLDATASIZE SUB DUP2 ADD SWAP1 PUSH2 0x515 SWAP2 SWAP1 PUSH2 0x3B27 JUMP JUMPDEST PUSH2 0x1414 JUMP JUMPDEST STOP JUMPDEST CALLVALUE DUP1 ISZERO PUSH2 0x528 JUMPI PUSH1 0x0 DUP1 REVERT JUMPDEST POP PUSH2 0x543 PUSH1 0x4 DUP1 CALLDATASIZE SUB DUP2 ADD SWAP1 PUSH2 0x53E SWAP2 SWAP1 PUSH2 0x3AB1 JUMP JUMPDEST PUSH2 0x1549 JUMP JUMPDEST PUSH1 0x40 MLOAD PUSH2 0x550 SWAP2 SWAP1 PUSH2 0x3B0C JUMP JUMPDEST PUSH1 0x40 MLOAD DUP1 SWAP2 SUB SWAP1 RETURN JUMPDEST CALLVALUE DUP1 ISZERO PUSH2 0x565 JUMPI PUSH1 0x0 DUP1 REVERT JUMPDEST POP PUSH2 0x580 PUSH1 0x4 DUP1 CALLDATASIZE SUB DUP2 ADD SWAP1 PUSH2 0x57B SWAP2 SWAP1 PUSH2 0x3C8A JUMP JUMPDEST PUSH2 0x15FC JUMP JUMPDEST STOP JUMPDEST CALLVALUE DUP1 ISZERO PUSH2 0x58E JUMPI PUSH1 0x0 DUP1 REVERT JUMPDEST POP PUSH2 0x597 PUSH2 0x17B4 JUMP JUMPDEST PUSH1 0x40 MLOAD PUSH2 0x5A4 SWAP2 SWAP1 PUSH2 0x3C0A JUMP JUMPDEST PUSH1 0x40 MLOAD DUP1 SWAP2 SUB SWAP1 RETURN JUMPDEST CALLVALUE DUP1 ISZERO PUSH2 0x5B9 JUMPI PUSH1 0x0 DUP1 REVERT JUMPDEST POP PUSH2 0x5D4 PUSH1 0x4 DUP1 CALLDATASIZE SUB DUP2 ADD SWAP1 PUSH2 0x5CF SWAP2 SWAP1 PUSH2 0x3B27 JUMP JUMPDEST PUSH2 0x17BA JUMP JUMPDEST STOP JUMPDEST CALLVALUE DUP1 ISZERO PUSH2 0x5E2 JUMPI PUSH1 0x0 DUP1 REVERT JUMPDEST POP PUSH2 0x5EB PUSH2 0x1900 JUMP JUMPDEST PUSH1 0x40 MLOAD PUSH2 0x5F8 SWAP2 SWAP1 PUSH2 0x3D70 JUMP JUMPDEST PUSH1 0x40 MLOAD DUP1 SWAP2 SUB SWAP1 RETURN JUMPDEST CALLVALUE DUP1 ISZERO PUSH2 0x60D JUMPI PUSH1 0x0 DUP1 REVERT JUMPDEST POP PUSH2 0x616 PUSH2 0x1926 JUMP JUMPDEST PUSH1 0x40 MLOAD PUSH2 0x623 SWAP2 SWAP1 PUSH2 0x3C0A JUMP JUMPDEST PUSH1 0x40 MLOAD DUP1 SWAP2 SUB SWAP1 RETURN JUMPDEST CALLVALUE DUP1 ISZERO PUSH2 0x638 JUMPI PUSH1 0x0 DUP1 REVERT JUMPDEST POP PUSH2 0x641 PUSH2 0x192C JUMP JUMPDEST PUSH1 0x40 MLOAD PUSH2 0x64E SWAP2 SWAP1 PUSH2 0x3C0A JUMP JUMPDEST PUSH1 0x40 MLOAD DUP1 SWAP2 SUB SWAP1 RETURN JUMPDEST CALLVALUE DUP1 ISZERO PUSH2 0x663 JUMPI PUSH1 0x0 DUP1 REVERT JUMPDEST POP PUSH2 0x67E PUSH1 0x4 DUP1 CALLDATASIZE SUB DUP2 ADD SWAP1 PUSH2 0x679 SWAP2 SWAP1 PUSH2 0x3D8B JUMP JUMPDEST PUSH2 0x1932 JUMP JUMPDEST STOP JUMPDEST CALLVALUE DUP1 ISZERO PUSH2 0x68C JUMPI PUSH1 0x0 DUP1 REVERT JUMPDEST POP PUSH2 0x6A7 PUSH1 0x4 DUP1 CALLDATASIZE SUB DUP2 ADD SWAP1 PUSH2 0x6A2 SWAP2 SWAP1 PUSH2 0x3B27 JUMP JUMPDEST PUSH2 0x1A0F JUMP JUMPDEST PUSH1 0x40 MLOAD PUSH2 0x6B4 SWAP2 SWAP1 PUSH2 0x3C0A JUMP JUMPDEST PUSH1 0x40 MLOAD DUP1 SWAP2 SUB SWAP1 RETURN JUMPDEST CALLVALUE DUP1 ISZERO PUSH2 0x6C9 JUMPI PUSH1 0x0 DUP1 REVERT JUMPDEST POP PUSH2 0x6D2 PUSH2 0x1A58 JUMP JUMPDEST STOP JUMPDEST CALLVALUE DUP1 ISZERO PUSH2 0x6E0 JUMPI PUSH1 0x0 DUP1 REVERT JUMPDEST POP PUSH2 0x6FB PUSH1 0x4 DUP1 CALLDATASIZE SUB DUP2 ADD SWAP1 PUSH2 0x6F6 SWAP2 SWAP1 PUSH2 0x3B27 JUMP JUMPDEST PUSH2 0x1B92 JUMP JUMPDEST PUSH1 0x40 MLOAD PUSH2 0x708 SWAP2 SWAP1 PUSH2 0x3B0C JUMP JUMPDEST PUSH1 0x40 MLOAD DUP1 SWAP2 SUB SWAP1 RETURN JUMPDEST CALLVALUE DUP1 ISZERO PUSH2 0x71D JUMPI PUSH1 0x0 DUP1 REVERT JUMPDEST POP PUSH2 0x738 PUSH1 0x4 DUP1 CALLDATASIZE SUB DUP2 ADD SWAP1 PUSH2 0x733 SWAP2 SWAP1 PUSH2 0x3DF7 JUMP JUMPDEST PUSH2 0x1BB2 JUMP JUMPDEST STOP JUMPDEST CALLVALUE DUP1 ISZERO PUSH2 0x746 JUMPI PUSH1 0x0 DUP1 REVERT JUMPDEST POP PUSH2 0x74F PUSH2 0x1C4C JUMP JUMPDEST PUSH1 0x40 MLOAD PUSH2 0x75C SWAP2 SWAP1 PUSH2 0x3C0A JUMP JUMPDEST PUSH1 0x40 MLOAD DUP1 SWAP2 SUB SWAP1 RETURN JUMPDEST CALLVALUE DUP1 ISZERO PUSH2 0x771 JUMPI PUSH1 0x0 DUP1 REVERT JUMPDEST POP PUSH2 0x77A PUSH2 0x1C52 JUMP JUMPDEST PUSH1 0x40 MLOAD PUSH2 0x787 SWAP2 SWAP1 PUSH2 0x3B0C JUMP JUMPDEST PUSH1 0x40 MLOAD DUP1 SWAP2 SUB SWAP1 RETURN JUMPDEST CALLVALUE DUP1 ISZERO PUSH2 0x79C JUMPI PUSH1 0x0 DUP1 REVERT JUMPDEST POP PUSH2 0x7A5 PUSH2 0x1C65 JUMP JUMPDEST PUSH1 0x40 MLOAD PUSH2 0x7B2 SWAP2 SWAP1 PUSH2 0x3D70 JUMP JUMPDEST PUSH1 0x40 MLOAD DUP1 SWAP2 SUB SWAP1 RETURN JUMPDEST CALLVALUE DUP1 ISZERO PUSH2 0x7C7 JUMPI PUSH1 0x0 DUP1 REVERT JUMPDEST POP PUSH2 0x7D0 PUSH2 0x1C8E JUMP JUMPDEST PUSH1 0x40 MLOAD PUSH2 0x7DD SWAP2 SWAP1 PUSH2 0x39F1 JUMP JUMPDEST PUSH1 0x40 MLOAD DUP1 SWAP2 SUB SWAP1 RETURN JUMPDEST CALLVALUE DUP1 ISZERO PUSH2 0x7F2 JUMPI PUSH1 0x0 DUP1 REVERT JUMPDEST POP PUSH2 0x80D PUSH1 0x4 DUP1 CALLDATASIZE SUB DUP2 ADD SWAP1 PUSH2 0x808 SWAP2 SWAP1 PUSH2 0x3B54 JUMP JUMPDEST PUSH2 0x1CCB JUMP JUMPDEST STOP JUMPDEST CALLVALUE DUP1 ISZERO PUSH2 0x81B JUMPI PUSH1 0x0 DUP1 REVERT JUMPDEST POP PUSH2 0x836 PUSH1 0x4 DUP1 CALLDATASIZE SUB DUP2 ADD SWAP1 PUSH2 0x831 SWAP2 SWAP1 PUSH2 0x3E50 JUMP JUMPDEST PUSH2 0x1D75 JUMP JUMPDEST STOP JUMPDEST CALLVALUE DUP1 ISZERO PUSH2 0x844 JUMPI PUSH1 0x0 DUP1 REVERT JUMPDEST POP PUSH2 0x85F PUSH1 0x4 DUP1 CALLDATASIZE SUB DUP2 ADD SWAP1 PUSH2 0x85A SWAP2 SWAP1 PUSH2 0x3AB1 JUMP JUMPDEST PUSH2 0x1E0E JUMP JUMPDEST PUSH1 0x40 MLOAD PUSH2 0x86C SWAP2 SWAP1 PUSH2 0x3B0C JUMP JUMPDEST PUSH1 0x40 MLOAD DUP1 SWAP2 SUB SWAP1 RETURN JUMPDEST CALLVALUE DUP1 ISZERO PUSH2 0x881 JUMPI PUSH1 0x0 DUP1 REVERT JUMPDEST POP PUSH2 0x89C PUSH1 0x4 DUP1 CALLDATASIZE SUB DUP2 ADD SWAP1 PUSH2 0x897 SWAP2 SWAP1 PUSH2 0x3AB1 JUMP JUMPDEST PUSH2 0x1EDB JUMP JUMPDEST PUSH1 0x40 MLOAD PUSH2 0x8A9 SWAP2 SWAP1 PUSH2 0x3B0C JUMP JUMPDEST PUSH1 0x40 MLOAD DUP1 SWAP2 SUB SWAP1 RETURN JUMPDEST CALLVALUE DUP1 ISZERO PUSH2 0x8BE JUMPI PUSH1 0x0 DUP1 REVERT JUMPDEST POP PUSH2 0x8D9 PUSH1 0x4 DUP1 CALLDATASIZE SUB DUP2 ADD SWAP1 PUSH2 0x8D4 SWAP2 SWAP1 PUSH2 0x3E50 JUMP JUMPDEST PUSH2 0x1EF9 JUMP JUMPDEST STOP JUMPDEST CALLVALUE DUP1 ISZERO PUSH2 0x8E7 JUMPI PUSH1 0x0 DUP1 REVERT JUMPDEST POP PUSH2 0x8F0 PUSH2 0x1F92 JUMP JUMPDEST PUSH1 0x40 MLOAD PUSH2 0x8FD SWAP2 SWAP1 PUSH2 0x3B0C JUMP JUMPDEST PUSH1 0x40 MLOAD DUP1 SWAP2 SUB SWAP1 RETURN JUMPDEST CALLVALUE DUP1 ISZERO PUSH2 0x912 JUMPI PUSH1 0x0 DUP1 REVERT JUMPDEST POP PUSH2 0x92D PUSH1 0x4 DUP1 CALLDATASIZE SUB DUP2 ADD SWAP1 PUSH2 0x928 SWAP2 SWAP1 PUSH2 0x3B54 JUMP JUMPDEST PUSH2 0x1FA5 JUMP JUMPDEST STOP JUMPDEST CALLVALUE DUP1 ISZERO PUSH2 0x93B JUMPI PUSH1 0x0 DUP1 REVERT JUMPDEST POP PUSH2 0x944 PUSH2 0x2070 JUMP JUMPDEST PUSH1 0x40 MLOAD PUSH2 0x951 SWAP2 SWAP1 PUSH2 0x3B0C JUMP JUMPDEST PUSH1 0x40 MLOAD DUP1 SWAP2 SUB SWAP1 RETURN JUMPDEST CALLVALUE DUP1 ISZERO PUSH2 0x966 JUMPI PUSH1 0x0 DUP1 REVERT JUMPDEST POP PUSH2 0x981 PUSH1 0x4 DUP1 CALLDATASIZE SUB DUP2 ADD SWAP1 PUSH2 0x97C SWAP2 SWAP1 PUSH2 0x3B27 JUMP JUMPDEST PUSH2 0x2083 JUMP JUMPDEST STOP JUMPDEST CALLVALUE DUP1 ISZERO PUSH2 0x98F JUMPI PUSH1 0x0 DUP1 REVERT JUMPDEST POP PUSH2 0x9AA PUSH1 0x4 DUP1 CALLDATASIZE SUB DUP2 ADD SWAP1 PUSH2 0x9A5 SWAP2 SWAP1 PUSH2 0x3B54 JUMP JUMPDEST PUSH2 0x21B2 JUMP JUMPDEST STOP JUMPDEST CALLVALUE DUP1 ISZERO PUSH2 0x9B8 JUMPI PUSH1 0x0 DUP1 REVERT JUMPDEST POP PUSH2 0x9D3 PUSH1 0x4 DUP1 CALLDATASIZE SUB DUP2 ADD SWAP1 PUSH2 0x9CE SWAP2 SWAP1 PUSH2 0x3E7D JUMP JUMPDEST PUSH2 0x22C3 JUMP JUMPDEST PUSH1 0x40 MLOAD PUSH2 0x9E0 SWAP2 SWAP1 PUSH2 0x3C0A JUMP JUMPDEST PUSH1 0x40 MLOAD DUP1 SWAP2 SUB SWAP1 RETURN JUMPDEST CALLVALUE DUP1 ISZERO PUSH2 0x9F5 JUMPI PUSH1 0x0 DUP1 REVERT JUMPDEST POP PUSH2 0xA10 PUSH1 0x4 DUP1 CALLDATASIZE SUB DUP2 ADD SWAP1 PUSH2 0xA0B SWAP2 SWAP1 PUSH2 0x3B27 JUMP JUMPDEST PUSH2 0x234A JUMP JUMPDEST STOP JUMPDEST CALLVALUE DUP1 ISZERO PUSH2 0xA1E JUMPI PUSH1 0x0 DUP1 REVERT JUMPDEST POP PUSH2 0xA39 PUSH1 0x4 DUP1 CALLDATASIZE SUB DUP2 ADD SWAP1 PUSH2 0xA34 SWAP2 SWAP1 PUSH2 0x3B27 JUMP JUMPDEST PUSH2 0x2490 JUMP JUMPDEST STOP JUMPDEST CALLVALUE DUP1 ISZERO PUSH2 0xA47 JUMPI PUSH1 0x0 DUP1 REVERT JUMPDEST POP PUSH2 0xA62 PUSH1 0x4 DUP1 CALLDATASIZE SUB DUP2 ADD SWAP1 PUSH2 0xA5D SWAP2 SWAP1 PUSH2 0x3EFB JUMP JUMPDEST PUSH2 0x2638 JUMP JUMPDEST STOP JUMPDEST CALLVALUE DUP1 ISZERO PUSH2 0xA70 JUMPI PUSH1 0x0 DUP1 REVERT JUMPDEST POP PUSH2 0xA8B PUSH1 0x4 DUP1 CALLDATASIZE SUB DUP2 ADD SWAP1 PUSH2 0xA86 SWAP2 SWAP1 PUSH2 0x3E50 JUMP JUMPDEST PUSH2 0x27E1 JUMP JUMPDEST STOP JUMPDEST PUSH1 0x60 PUSH1 0x40 MLOAD DUP1 PUSH1 0x40 ADD PUSH1 0x40 MSTORE DUP1 PUSH1 0x5 DUP2 MSTORE PUSH1 0x20 ADD PUSH32 0x584F444558000000000000000000000000000000000000000000000000000000 DUP2 MSTORE POP SWAP1 POP SWAP1 JUMP JUMPDEST PUSH1 0x0 PUSH2 0xADE PUSH2 0xAD7 PUSH2 0x28DD JUMP JUMPDEST DUP5 DUP5 PUSH2 0x28E5 JUMP JUMPDEST PUSH1 0x1 SWAP1 POP SWAP3 SWAP2 POP POP JUMP JUMPDEST PUSH2 0xAF0 PUSH2 0x28DD JUMP JUMPDEST PUSH20 0xFFFFFFFFFFFFFFFFFFFFFFFFFFFFFFFFFFFFFFFF AND PUSH2 0xB0E PUSH2 0x1C65 JUMP JUMPDEST PUSH20 0xFFFFFFFFFFFFFFFFFFFFFFFFFFFFFFFFFFFFFFFF AND EQ PUSH2 0xB64 JUMPI PUSH1 0x40 MLOAD PUSH32 0x8C379A000000000000000000000000000000000000000000000000000000000 DUP2 MSTORE PUSH1 0x4 ADD PUSH2 0xB5B SWAP1 PUSH2 0x3F74 JUMP JUMPDEST PUSH1 0x40 MLOAD DUP1 SWAP2 SUB SWAP1 REVERT JUMPDEST PUSH1 0x0 PUSH20 0xFFFFFFFFFFFFFFFFFFFFFFFFFFFFFFFFFFFFFFFF AND DUP2 PUSH20 0xFFFFFFFFFFFFFFFFFFFFFFFFFFFFFFFFFFFFFFFF AND SUB PUSH2 0xBD3 JUMPI PUSH1 0x40 MLOAD PUSH32 0x8C379A000000000000000000000000000000000000000000000000000000000 DUP2 MSTORE PUSH1 0x4 ADD PUSH2 0xBCA SWAP1 PUSH2 0x3FE0 JUMP JUMPDEST PUSH1 0x40 MLOAD DUP1 SWAP2 SUB SWAP1 REVERT JUMPDEST PUSH1 0x0 DUP2 SWAP1 POP DUP1 PUSH20 0xFFFFFFFFFFFFFFFFFFFFFFFFFFFFFFFFFFFFFFFF AND PUSH4 0xC45A0155 PUSH1 0x40 MLOAD DUP2 PUSH4 0xFFFFFFFF AND PUSH1 0xE0 SHL DUP2 MSTORE PUSH1 0x4 ADD PUSH1 0x20 PUSH1 0x40 MLOAD DUP1 DUP4 SUB DUP2 DUP7 GAS STATICCALL ISZERO DUP1 ISZERO PUSH2 0xC23 JUMPI RETURNDATASIZE PUSH1 0x0 DUP1 RETURNDATACOPY RETURNDATASIZE PUSH1 0x0 REVERT JUMPDEST POP POP POP POP PUSH1 0x40 MLOAD RETURNDATASIZE PUSH1 0x1F NOT PUSH1 0x1F DUP3 ADD AND DUP3 ADD DUP1 PUSH1 0x40 MSTORE POP DUP2 ADD SWAP1 PUSH2 0xC47 SWAP2 SWAP1 PUSH2 0x4015 JUMP JUMPDEST PUSH20 0xFFFFFFFFFFFFFFFFFFFFFFFFFFFFFFFFFFFFFFFF AND PUSH4 0xC9C65396 ADDRESS DUP4 PUSH20 0xFFFFFFFFFFFFFFFFFFFFFFFFFFFFFFFFFFFFFFFF AND PUSH4 0xAD5C4648 PUSH1 0x40 MLOAD DUP2 PUSH4 0xFFFFFFFF AND PUSH1 0xE0 SHL DUP2 MSTORE PUSH1 0x4 ADD PUSH1 0x20 PUSH1 0x40 MLOAD DUP1 DUP4 SUB DUP2 DUP7 GAS STATICCALL ISZERO DUP1 ISZERO PUSH2 0xCAE JUMPI RETURNDATASIZE PUSH1 0x0 DUP1 RETURNDATACOPY RETURNDATASIZE PUSH1 0x0 REVERT JUMPDEST POP POP POP POP PUSH1 0x40 MLOAD RETURNDATASIZE PUSH1 0x1F NOT PUSH1 0x1F DUP3 ADD AND DUP3 ADD DUP1 PUSH1 0x40 MSTORE POP DUP2 ADD SWAP1 PUSH2 0xCD2 SWAP2 SWAP1 PUSH2 0x4015 JUMP JUMPDEST PUSH1 0x40 MLOAD DUP4 PUSH4 0xFFFFFFFF AND PUSH1 0xE0 SHL DUP2 MSTORE PUSH1 0x4 ADD PUSH2 0xCEF SWAP3 SWAP2 SWAP1 PUSH2 0x4042 JUMP JUMPDEST PUSH1 0x20 PUSH1 0x40 MLOAD DUP1 DUP4 SUB DUP2 PUSH1 0x0 DUP8 GAS CALL ISZERO DUP1 ISZERO PUSH2 0xD0E JUMPI RETURNDATASIZE PUSH1 0x0 DUP1 RETURNDATACOPY RETURNDATASIZE PUSH1 0x0 REVERT JUMPDEST POP POP POP POP PUSH1 0x40 MLOAD RETURNDATASIZE PUSH1 0x1F NOT PUSH1 0x1F DUP3 ADD AND DUP3 ADD DUP1 PUSH1 0x40 MSTORE POP DUP2 ADD SWAP1 PUSH2 0xD32 SWAP2 SWAP1 PUSH2 0x4015 JUMP JUMPDEST PUSH1 0x12 PUSH1 0x0 PUSH2 0x100 EXP DUP2 SLOAD DUP2 PUSH20 0xFFFFFFFFFFFFFFFFFFFFFFFFFFFFFFFFFFFFFFFF MUL NOT AND SWAP1 DUP4 PUSH20 0xFFFFFFFFFFFFFFFFFFFFFFFFFFFFFFFFFFFFFFFF AND MUL OR SWAP1 SSTORE POP DUP1 PUSH1 0x11 PUSH1 0x1 PUSH2 0x100 EXP DUP2 SLOAD DUP2 PUSH20 0xFFFFFFFFFFFFFFFFFFFFFFFFFFFFFFFFFFFFFFFF MUL NOT AND SWAP1 DUP4 PUSH20 0xFFFFFFFFFFFFFFFFFFFFFFFFFFFFFFFFFFFFFFFF AND MUL OR SWAP1 SSTORE POP POP POP JUMP JUMPDEST PUSH2 0xDBF PUSH2 0x28DD JUMP JUMPDEST PUSH20 0xFFFFFFFFFFFFFFFFFFFFFFFFFFFFFFFFFFFFFFFF AND PUSH2 0xDDD PUSH2 0x1C65 JUMP JUMPDEST PUSH20 0xFFFFFFFFFFFFFFFFFFFFFFFFFFFFFFFFFFFFFFFF AND EQ PUSH2 0xE33 JUMPI PUSH1 0x40 MLOAD PUSH32 0x8C379A000000000000000000000000000000000000000000000000000000000 DUP2 MSTORE PUSH1 0x4 ADD PUSH2 0xE2A SWAP1 PUSH2 0x3F74 JUMP JUMPDEST PUSH1 0x40 MLOAD DUP1 SWAP2 SUB SWAP1 REVERT JUMPDEST PUSH2 0x2710 DUP2 PUSH12 0x204FCE5E3E25026110000000 PUSH2 0xE4E SWAP2 SWAP1 PUSH2 0x409A JUMP JUMPDEST PUSH2 0xE58 SWAP2 SWAP1 PUSH2 0x410B JUMP JUMPDEST PUSH1 0x9 DUP2 SWAP1 SSTORE POP POP JUMP JUMPDEST PUSH1 0x11 PUSH1 0x1 SWAP1 SLOAD SWAP1 PUSH2 0x100 EXP SWAP1 DIV PUSH20 0xFFFFFFFFFFFFFFFFFFFFFFFFFFFFFFFFFFFFFFFF AND DUP2 JUMP JUMPDEST PUSH1 0x0 PUSH12 0x204FCE5E3E25026110000000 SWAP1 POP SWAP1 JUMP JUMPDEST PUSH2 0xEA3 PUSH2 0x28DD JUMP JUMPDEST PUSH20 0xFFFFFFFFFFFFFFFFFFFFFFFFFFFFFFFFFFFFFFFF AND PUSH2 0xEC1 PUSH2 0x1C65 JUMP JUMPDEST PUSH20 0xFFFFFFFFFFFFFFFFFFFFFFFFFFFFFFFFFFFFFFFF AND EQ PUSH2 0xF17 JUMPI PUSH1 0x40 MLOAD PUSH32 0x8C379A000000000000000000000000000000000000000000000000000000000 DUP2 MSTORE PUSH1 0x4 ADD PUSH2 0xF0E SWAP1 PUSH2 0x3F74 JUMP JUMPDEST PUSH1 0x40 MLOAD DUP1 SWAP2 SUB SWAP1 REVERT JUMPDEST PUSH1 0x0 DUP1 PUSH1 0x0 JUMPDEST DUP5 DUP5 SWAP1 POP DUP2 LT ISZERO PUSH2 0x104B JUMPI GAS DUP3 LT ISZERO PUSH2 0x103A JUMPI GAS SWAP3 POP PUSH1 0x4 PUSH1 0x0 DUP7 DUP7 DUP5 DUP2 DUP2 LT PUSH2 0xF4A JUMPI PUSH2 0xF49 PUSH2 0x413C JUMP JUMPDEST JUMPDEST SWAP1 POP PUSH1 0x20 MUL ADD PUSH1 0x20 DUP2 ADD SWAP1 PUSH2 0xF5F SWAP2 SWAP1 PUSH2 0x3B27 JUMP JUMPDEST PUSH20 0xFFFFFFFFFFFFFFFFFFFFFFFFFFFFFFFFFFFFFFFF AND PUSH20 0xFFFFFFFFFFFFFFFFFFFFFFFFFFFFFFFFFFFFFFFF AND DUP2 MSTORE PUSH1 0x20 ADD SWAP1 DUP2 MSTORE PUSH1 0x20 ADD PUSH1 0x0 KECCAK256 PUSH1 0x0 SWAP1 SLOAD SWAP1 PUSH2 0x100 EXP SWAP1 DIV PUSH1 0xFF AND PUSH2 0x102B JUMPI PUSH1 0x1 PUSH1 0x4 PUSH1 0x0 DUP8 DUP8 DUP6 DUP2 DUP2 LT PUSH2 0xFC4 JUMPI PUSH2 0xFC3 PUSH2 0x413C JUMP JUMPDEST JUMPDEST SWAP1 POP PUSH1 0x20 MUL ADD PUSH1 0x20 DUP2 ADD SWAP1 PUSH2 0xFD9 SWAP2 SWAP1 PUSH2 0x3B27 JUMP JUMPDEST PUSH20 0xFFFFFFFFFFFFFFFFFFFFFFFFFFFFFFFFFFFFFFFF AND PUSH20 0xFFFFFFFFFFFFFFFFFFFFFFFFFFFFFFFFFFFFFFFF AND DUP2 MSTORE PUSH1 0x20 ADD SWAP1 DUP2 MSTORE PUSH1 0x20 ADD PUSH1 0x0 KECCAK256 PUSH1 0x0 PUSH2 0x100 EXP DUP2 SLOAD DUP2 PUSH1 0xFF MUL NOT AND SWAP1 DUP4 ISZERO ISZERO MUL OR SWAP1 SSTORE POP JUMPDEST GAS DUP4 PUSH2 0x1037 SWAP2 SWAP1 PUSH2 0x416B JUMP JUMPDEST SWAP2 POP JUMPDEST DUP1 PUSH2 0x1044 SWAP1 PUSH2 0x419F JUMP JUMPDEST SWAP1 POP PUSH2 0xF1D JUMP JUMPDEST POP POP POP POP POP JUMP JUMPDEST PUSH1 0x4 PUSH1 0x20 MSTORE DUP1 PUSH1 0x0 MSTORE PUSH1 0x40 PUSH1 0x0 KECCAK256 PUSH1 0x0 SWAP2 POP SLOAD SWAP1 PUSH2 0x100 EXP SWAP1 DIV PUSH1 0xFF AND DUP2 JUMP JUMPDEST PUSH1 0x0 PUSH2 0x107F DUP5 DUP5 DUP5 PUSH2 0x2A79 JUMP JUMPDEST PUSH2 0x1140 DUP5 PUSH2 0x108B PUSH2 0x28DD JUMP JUMPDEST PUSH2 0x113B DUP6 PUSH1 0x40 MLOAD DUP1 PUSH1 0x60 ADD PUSH1 0x40 MSTORE DUP1 PUSH1 0x28 DUP2 MSTORE PUSH1 0x20 ADD PUSH2 0x4924 PUSH1 0x28 SWAP2 CODECOPY PUSH1 0x2 PUSH1 0x0 DUP12 PUSH20 0xFFFFFFFFFFFFFFFFFFFFFFFFFFFFFFFFFFFFFFFF AND PUSH20 0xFFFFFFFFFFFFFFFFFFFFFFFFFFFFFFFFFFFFFFFF AND DUP2 MSTORE PUSH1 0x20 ADD SWAP1 DUP2 MSTORE PUSH1 0x20 ADD PUSH1 0x0 KECCAK256 PUSH1 0x0 PUSH2 0x10F1 PUSH2 0x28DD JUMP JUMPDEST PUSH20 0xFFFFFFFFFFFFFFFFFFFFFFFFFFFFFFFFFFFFFFFF AND PUSH20 0xFFFFFFFFFFFFFFFFFFFFFFFFFFFFFFFFFFFFFFFF AND DUP2 MSTORE PUSH1 0x20 ADD SWAP1 DUP2 MSTORE PUSH1 0x20 ADD PUSH1 0x0 KECCAK256 SLOAD PUSH2 0x327B SWAP1 SWAP3 SWAP2 SWAP1 PUSH4 0xFFFFFFFF AND JUMP JUMPDEST PUSH2 0x28E5 JUMP JUMPDEST PUSH1 0x1 SWAP1 POP SWAP4 SWAP3 POP POP POP JUMP JUMPDEST PUSH1 0x5 PUSH1 0x0 SWAP1 SLOAD SWAP1 PUSH2 0x100 EXP SWAP1 DIV PUSH1 0xFF AND DUP2 JUMP JUMPDEST PUSH1 0xB SLOAD DUP2 JUMP JUMPDEST PUSH1 0x0 PUSH2 0x116E PUSH2 0x28DD JUMP JUMPDEST PUSH20 0xFFFFFFFFFFFFFFFFFFFFFFFFFFFFFFFFFFFFFFFF AND PUSH2 0x118C PUSH2 0x1C65 JUMP JUMPDEST PUSH20 0xFFFFFFFFFFFFFFFFFFFFFFFFFFFFFFFFFFFFFFFF AND EQ PUSH2 0x11E2 JUMPI PUSH1 0x40 MLOAD PUSH32 0x8C379A000000000000000000000000000000000000000000000000000000000 DUP2 MSTORE PUSH1 0x4 ADD PUSH2 0x11D9 SWAP1 PUSH2 0x3F74 JUMP JUMPDEST PUSH1 0x40 MLOAD DUP1 SWAP2 SUB SWAP1 REVERT JUMPDEST PUSH1 0x0 PUSH20 0xFFFFFFFFFFFFFFFFFFFFFFFFFFFFFFFFFFFFFFFF AND DUP5 PUSH20 0xFFFFFFFFFFFFFFFFFFFFFFFFFFFFFFFFFFFFFFFF AND EQ ISZERO DUP1 ISZERO PUSH2 0x124C JUMPI POP PUSH1 0x0 PUSH20 0xFFFFFFFFFFFFFFFFFFFFFFFFFFFFFFFFFFFFFFFF AND DUP4 PUSH20 0xFFFFFFFFFFFFFFFFFFFFFFFFFFFFFFFFFFFFFFFF AND EQ ISZERO JUMPDEST PUSH2 0x128B JUMPI PUSH1 0x40 MLOAD PUSH32 0x8C379A000000000000000000000000000000000000000000000000000000000 DUP2 MSTORE PUSH1 0x4 ADD PUSH2 0x1282 SWAP1 PUSH2 0x3FE0 JUMP JUMPDEST PUSH1 0x40 MLOAD DUP1 SWAP2 SUB SWAP1 REVERT JUMPDEST ADDRESS PUSH20 0xFFFFFFFFFFFFFFFFFFFFFFFFFFFFFFFFFFFFFFFF AND DUP5 PUSH20 0xFFFFFFFFFFFFFFFFFFFFFFFFFFFFFFFFFFFFFFFF AND SUB PUSH2 0x12F9 JUMPI PUSH1 0x40 MLOAD PUSH32 0x8C379A000000000000000000000000000000000000000000000000000000000 DUP2 MSTORE PUSH1 0x4 ADD PUSH2 0x12F0 SWAP1 PUSH2 0x4233 JUMP JUMPDEST PUSH1 0x40 MLOAD DUP1 SWAP2 SUB SWAP1 REVERT JUMPDEST PUSH1 0x0 DUP5 PUSH20 0xFFFFFFFFFFFFFFFFFFFFFFFFFFFFFFFFFFFFFFFF AND PUSH4 0x70A08231 ADDRESS PUSH1 0x40 MLOAD DUP3 PUSH4 0xFFFFFFFF AND PUSH1 0xE0 SHL DUP2 MSTORE PUSH1 0x4 ADD PUSH2 0x1334 SWAP2 SWAP1 PUSH2 0x3D70 JUMP JUMPDEST PUSH1 0x20 PUSH1 0x40 MLOAD DUP1 DUP4 SUB DUP2 DUP7 GAS STATICCALL ISZERO DUP1 ISZERO PUSH2 0x1351 JUMPI RETURNDATASIZE PUSH1 0x0 DUP1 RETURNDATACOPY RETURNDATASIZE PUSH1 0x0 REVERT JUMPDEST POP POP POP POP PUSH1 0x40 MLOAD RETURNDATASIZE PUSH1 0x1F NOT PUSH1 0x1F DUP3 ADD AND DUP3 ADD DUP1 PUSH1 0x40 MSTORE POP DUP2 ADD SWAP1 PUSH2 0x1375 SWAP2 SWAP1 PUSH2 0x4268 JUMP JUMPDEST SWAP1 POP DUP1 DUP4 GT ISZERO PUSH2 0x1383 JUMPI DUP1 SWAP3 POP JUMPDEST DUP5 PUSH20 0xFFFFFFFFFFFFFFFFFFFFFFFFFFFFFFFFFFFFFFFF AND PUSH4 0xA9059CBB DUP6 DUP6 PUSH1 0x40 MLOAD DUP4 PUSH4 0xFFFFFFFF AND PUSH1 0xE0 SHL DUP2 MSTORE PUSH1 0x4 ADD PUSH2 0x13BE SWAP3 SWAP2 SWAP1 PUSH2 0x4295 JUMP JUMPDEST PUSH1 0x20 PUSH1 0x40 MLOAD DUP1 DUP4 SUB DUP2 PUSH1 0x0 DUP8 GAS CALL ISZERO DUP1 ISZERO PUSH2 0x13DD JUMPI RETURNDATASIZE PUSH1 0x0 DUP1 RETURNDATACOPY RETURNDATASIZE PUSH1 0x0 REVERT JUMPDEST POP POP POP POP PUSH1 0x40 MLOAD RETURNDATASIZE PUSH1 0x1F NOT PUSH1 0x1F DUP3 ADD AND DUP3 ADD DUP1 PUSH1 0x40 MSTORE POP DUP2 ADD SWAP1 PUSH2 0x1401 SWAP2 SWAP1 PUSH2 0x42D3 JUMP JUMPDEST SWAP2 POP POP SWAP4 SWAP3 POP POP POP JUMP JUMPDEST PUSH1 0x0 PUSH1 0x12 SWAP1 POP SWAP1 JUMP JUMPDEST PUSH2 0x141C PUSH2 0x28DD JUMP JUMPDEST PUSH20 0xFFFFFFFFFFFFFFFFFFFFFFFFFFFFFFFFFFFFFFFF AND PUSH2 0x143A PUSH2 0x1C65 JUMP JUMPDEST PUSH20 0xFFFFFFFFFFFFFFFFFFFFFFFFFFFFFFFFFFFFFFFF AND EQ PUSH2 0x1490 JUMPI PUSH1 0x40 MLOAD PUSH32 0x8C379A000000000000000000000000000000000000000000000000000000000 DUP2 MSTORE PUSH1 0x4 ADD PUSH2 0x1487 SWAP1 PUSH2 0x3F74 JUMP JUMPDEST PUSH1 0x40 MLOAD DUP1 SWAP2 SUB SWAP1 REVERT JUMPDEST PUSH1 0x0 PUSH20 0xFFFFFFFFFFFFFFFFFFFFFFFFFFFFFFFFFFFFFFFF AND DUP2 PUSH20 0xFFFFFFFFFFFFFFFFFFFFFFFFFFFFFFFFFFFFFFFF AND SUB PUSH2 0x14FF JUMPI PUSH1 0x40 MLOAD PUSH32 0x8C379A000000000000000000000000000000000000000000000000000000000 DUP2 MSTORE PUSH1 0x4 ADD PUSH2 0x14F6 SWAP1 PUSH2 0x3FE0 JUMP JUMPDEST PUSH1 0x40 MLOAD DUP1 SWAP2 SUB SWAP1 REVERT JUMPDEST PUSH1 0x0 DUP2 SWAP1 POP DUP1 PUSH1 0x11 PUSH1 0x1 PUSH2 0x100 EXP DUP2 SLOAD DUP2 PUSH20 0xFFFFFFFFFFFFFFFFFFFFFFFFFFFFFFFFFFFFFFFF MUL NOT AND SWAP1 DUP4 PUSH20 0xFFFFFFFFFFFFFFFFFFFFFFFFFFFFFFFFFFFFFFFF AND MUL OR SWAP1 SSTORE POP POP POP JUMP JUMPDEST PUSH1 0x0 PUSH2 0x15F2 PUSH2 0x1556 PUSH2 0x28DD JUMP JUMPDEST DUP5 PUSH2 0x15ED DUP6 PUSH1 0x2 PUSH1 0x0 PUSH2 0x1567 PUSH2 0x28DD JUMP JUMPDEST PUSH20 0xFFFFFFFFFFFFFFFFFFFFFFFFFFFFFFFFFFFFFFFF AND PUSH20 0xFFFFFFFFFFFFFFFFFFFFFFFFFFFFFFFFFFFFFFFF AND DUP2 MSTORE PUSH1 0x20 ADD SWAP1 DUP2 MSTORE PUSH1 0x20 ADD PUSH1 0x0 KECCAK256 PUSH1 0x0 DUP10 PUSH20 0xFFFFFFFFFFFFFFFFFFFFFFFFFFFFFFFFFFFFFFFF AND PUSH20 0xFFFFFFFFFFFFFFFFFFFFFFFFFFFFFFFFFFFFFFFF AND DUP2 MSTORE PUSH1 0x20 ADD SWAP1 DUP2 MSTORE PUSH1 0x20 ADD PUSH1 0x0 KECCAK256 SLOAD PUSH2 0x32D0 SWAP1 SWAP2 SWAP1 PUSH4 0xFFFFFFFF AND JUMP JUMPDEST PUSH2 0x28E5 JUMP JUMPDEST PUSH1 0x1 SWAP1 POP SWAP3 SWAP2 POP POP JUMP JUMPDEST PUSH2 0x1604 PUSH2 0x28DD JUMP JUMPDEST PUSH20 0xFFFFFFFFFFFFFFFFFFFFFFFFFFFFFFFFFFFFFFFF AND PUSH2 0x1622 PUSH2 0x1C65 JUMP JUMPDEST PUSH20 0xFFFFFFFFFFFFFFFFFFFFFFFFFFFFFFFFFFFFFFFF AND EQ PUSH2 0x1678 JUMPI PUSH1 0x40 MLOAD PUSH32 0x8C379A000000000000000000000000000000000000000000000000000000000 DUP2 MSTORE PUSH1 0x4 ADD PUSH2 0x166F SWAP1 PUSH2 0x3F74 JUMP JUMPDEST PUSH1 0x40 MLOAD DUP1 SWAP2 SUB SWAP1 REVERT JUMPDEST PUSH1 0x0 DUP1 PUSH1 0x0 JUMPDEST DUP5 DUP5 SWAP1 POP DUP2 LT ISZERO PUSH2 0x17AD JUMPI GAS DUP3 LT ISZERO PUSH2 0x179C JUMPI GAS SWAP3 POP PUSH1 0x4 PUSH1 0x0 DUP7 DUP7 DUP5 DUP2 DUP2 LT PUSH2 0x16AB JUMPI PUSH2 0x16AA PUSH2 0x413C JUMP JUMPDEST JUMPDEST SWAP1 POP PUSH1 0x20 MUL ADD PUSH1 0x20 DUP2 ADD SWAP1 PUSH2 0x16C0 SWAP2 SWAP1 PUSH2 0x3B27 JUMP JUMPDEST PUSH20 0xFFFFFFFFFFFFFFFFFFFFFFFFFFFFFFFFFFFFFFFF AND PUSH20 0xFFFFFFFFFFFFFFFFFFFFFFFFFFFFFFFFFFFFFFFF AND DUP2 MSTORE PUSH1 0x20 ADD SWAP1 DUP2 MSTORE PUSH1 0x20 ADD PUSH1 0x0 KECCAK256 PUSH1 0x0 SWAP1 SLOAD SWAP1 PUSH2 0x100 EXP SWAP1 DIV PUSH1 0xFF AND ISZERO PUSH2 0x178D JUMPI PUSH1 0x0 PUSH1 0x4 PUSH1 0x0 DUP8 DUP8 DUP6 DUP2 DUP2 LT PUSH2 0x1726 JUMPI PUSH2 0x1725 PUSH2 0x413C JUMP JUMPDEST JUMPDEST SWAP1 POP PUSH1 0x20 MUL ADD PUSH1 0x20 DUP2 ADD SWAP1 PUSH2 0x173B SWAP2 SWAP1 PUSH2 0x3B27 JUMP JUMPDEST PUSH20 0xFFFFFFFFFFFFFFFFFFFFFFFFFFFFFFFFFFFFFFFF AND PUSH20 0xFFFFFFFFFFFFFFFFFFFFFFFFFFFFFFFFFFFFFFFF AND DUP2 MSTORE PUSH1 0x20 ADD SWAP1 DUP2 MSTORE PUSH1 0x20 ADD PUSH1 0x0 KECCAK256 PUSH1 0x0 PUSH2 0x100 EXP DUP2 SLOAD DUP2 PUSH1 0xFF MUL NOT AND SWAP1 DUP4 ISZERO ISZERO MUL OR SWAP1 SSTORE POP JUMPDEST GAS DUP4 PUSH2 0x1799 SWAP2 SWAP1 PUSH2 0x416B JUMP JUMPDEST SWAP2 POP JUMPDEST DUP1 PUSH2 0x17A6 SWAP1 PUSH2 0x419F JUMP JUMPDEST SWAP1 POP PUSH2 0x167E JUMP JUMPDEST POP POP POP POP POP JUMP JUMPDEST PUSH1 0xC SLOAD DUP2 JUMP JUMPDEST PUSH2 0x17C2 PUSH2 0x28DD JUMP JUMPDEST PUSH20 0xFFFFFFFFFFFFFFFFFFFFFFFFFFFFFFFFFFFFFFFF AND PUSH2 0x17E0 PUSH2 0x1C65 JUMP JUMPDEST PUSH20 0xFFFFFFFFFFFFFFFFFFFFFFFFFFFFFFFFFFFFFFFF AND EQ PUSH2 0x1836 JUMPI PUSH1 0x40 MLOAD PUSH32 0x8C379A000000000000000000000000000000000000000000000000000000000 DUP2 MSTORE PUSH1 0x4 ADD PUSH2 0x182D SWAP1 PUSH2 0x3F74 JUMP JUMPDEST PUSH1 0x40 MLOAD DUP1 SWAP2 SUB SWAP1 REVERT JUMPDEST PUSH1 0x0 PUSH20 0xFFFFFFFFFFFFFFFFFFFFFFFFFFFFFFFFFFFFFFFF AND DUP2 PUSH20 0xFFFFFFFFFFFFFFFFFFFFFFFFFFFFFFFFFFFFFFFF AND SUB PUSH2 0x18A5 JUMPI PUSH1 0x40 MLOAD PUSH32 0x8C379A000000000000000000000000000000000000000000000000000000000 DUP2 MSTORE PUSH1 0x4 ADD PUSH2 0x189C SWAP1 PUSH2 0x3FE0 JUMP JUMPDEST PUSH1 0x40 MLOAD DUP1 SWAP2 SUB SWAP1 REVERT JUMPDEST PUSH1 0x1 PUSH1 0x3 PUSH1 0x0 DUP4 PUSH20 0xFFFFFFFFFFFFFFFFFFFFFFFFFFFFFFFFFFFFFFFF AND PUSH20 0xFFFFFFFFFFFFFFFFFFFFFFFFFFFFFFFFFFFFFFFF AND DUP2 MSTORE PUSH1 0x20 ADD SWAP1 DUP2 MSTORE PUSH1 0x20 ADD PUSH1 0x0 KECCAK256 PUSH1 0x0 PUSH2 0x100 EXP DUP2 SLOAD DUP2 PUSH1 0xFF MUL NOT AND SWAP1 DUP4 ISZERO ISZERO MUL OR SWAP1 SSTORE POP POP JUMP JUMPDEST PUSH1 0x12 PUSH1 0x0 SWAP1 SLOAD SWAP1 PUSH2 0x100 EXP SWAP1 DIV PUSH20 0xFFFFFFFFFFFFFFFFFFFFFFFFFFFFFFFFFFFFFFFF AND DUP2 JUMP JUMPDEST PUSH1 0x7 SLOAD DUP2 JUMP JUMPDEST PUSH1 0xD SLOAD DUP2 JUMP JUMPDEST PUSH2 0x193A PUSH2 0x28DD JUMP JUMPDEST PUSH20 0xFFFFFFFFFFFFFFFFFFFFFFFFFFFFFFFFFFFFFFFF AND PUSH2 0x1958 PUSH2 0x1C65 JUMP JUMPDEST PUSH20 0xFFFFFFFFFFFFFFFFFFFFFFFFFFFFFFFFFFFFFFFF AND EQ PUSH2 0x19AE JUMPI PUSH1 0x40 MLOAD PUSH32 0x8C379A000000000000000000000000000000000000000000000000000000000 DUP2 MSTORE PUSH1 0x4 ADD PUSH2 0x19A5 SWAP1 PUSH2 0x3F74 JUMP JUMPDEST PUSH1 0x40 MLOAD DUP1 SWAP2 SUB SWAP1 REVERT JUMPDEST PUSH1 0x19 DUP2 DUP4 PUSH2 0x19BC SWAP2 SWAP1 PUSH2 0x4300 JUMP JUMPDEST GT ISZERO PUSH2 0x19FD JUMPI PUSH1 0x40 MLOAD PUSH32 0x8C379A000000000000000000000000000000000000000000000000000000000 DUP2 MSTORE PUSH1 0x4 ADD PUSH2 0x19F4 SWAP1 PUSH2 0x4380 JUMP JUMPDEST PUSH1 0x40 MLOAD DUP1 SWAP2 SUB SWAP1 REVERT JUMPDEST DUP1 PUSH1 0xD DUP2 SWAP1 SSTORE POP DUP2 PUSH1 0xC DUP2 SWAP1 SSTORE POP POP POP JUMP JUMPDEST PUSH1 0x0 PUSH1 0x1 PUSH1 0x0 DUP4 PUSH20 0xFFFFFFFFFFFFFFFFFFFFFFFFFFFFFFFFFFFFFFFF AND PUSH20 0xFFFFFFFFFFFFFFFFFFFFFFFFFFFFFFFFFFFFFFFF AND DUP2 MSTORE PUSH1 0x20 ADD SWAP1 DUP2 MSTORE PUSH1 0x20 ADD PUSH1 0x0 KECCAK256 SLOAD SWAP1 POP SWAP2 SWAP1 POP JUMP JUMPDEST PUSH2 0x1A60 PUSH2 0x28DD JUMP JUMPDEST PUSH20 0xFFFFFFFFFFFFFFFFFFFFFFFFFFFFFFFFFFFFFFFF AND PUSH2 0x1A7E PUSH2 0x1C65 JUMP JUMPDEST PUSH20 0xFFFFFFFFFFFFFFFFFFFFFFFFFFFFFFFFFFFFFFFF AND EQ PUSH2 0x1AD4 JUMPI PUSH1 0x40 MLOAD PUSH32 0x8C379A000000000000000000000000000000000000000000000000000000000 DUP2 MSTORE PUSH1 0x4 ADD PUSH2 0x1ACB SWAP1 PUSH2 0x3F74 JUMP JUMPDEST PUSH1 0x40 MLOAD DUP1 SWAP2 SUB SWAP1 REVERT JUMPDEST PUSH1 0x0 PUSH20 0xFFFFFFFFFFFFFFFFFFFFFFFFFFFFFFFFFFFFFFFF AND PUSH1 0x0 DUP1 SLOAD SWAP1 PUSH2 0x100 EXP SWAP1 DIV PUSH20 0xFFFFFFFFFFFFFFFFFFFFFFFFFFFFFFFFFFFFFFFF AND PUSH20 0xFFFFFFFFFFFFFFFFFFFFFFFFFFFFFFFFFFFFFFFF AND PUSH32 0x8BE0079C531659141344CD1FD0A4F28419497F9722A3DAAFE3B4186F6B6457E0 PUSH1 0x40 MLOAD PUSH1 0x40 MLOAD DUP1 SWAP2 SUB SWAP1 LOG3 PUSH1 0x0 DUP1 PUSH1 0x0 PUSH2 0x100 EXP DUP2 SLOAD DUP2 PUSH20 0xFFFFFFFFFFFFFFFFFFFFFFFFFFFFFFFFFFFFFFFF MUL NOT AND SWAP1 DUP4 PUSH20 0xFFFFFFFFFFFFFFFFFFFFFFFFFFFFFFFFFFFFFFFF AND MUL OR SWAP1 SSTORE POP JUMP JUMPDEST PUSH1 0x3 PUSH1 0x20 MSTORE DUP1 PUSH1 0x0 MSTORE PUSH1 0x40 PUSH1 0x0 KECCAK256 PUSH1 0x0 SWAP2 POP SLOAD SWAP1 PUSH2 0x100 EXP SWAP1 DIV PUSH1 0xFF AND DUP2 JUMP JUMPDEST PUSH2 0x1BBA PUSH2 0x28DD JUMP JUMPDEST PUSH20 0xFFFFFFFFFFFFFFFFFFFFFFFFFFFFFFFFFFFFFFFF AND PUSH2 0x1BD8 PUSH2 0x1C65 JUMP JUMPDEST PUSH20 0xFFFFFFFFFFFFFFFFFFFFFFFFFFFFFFFFFFFFFFFF AND EQ PUSH2 0x1C2E JUMPI PUSH1 0x40 MLOAD PUSH32 0x8C379A000000000000000000000000000000000000000000000000000000000 DUP2 MSTORE PUSH1 0x4 ADD PUSH2 0x1C25 SWAP1 PUSH2 0x3F74 JUMP JUMPDEST PUSH1 0x40 MLOAD DUP1 SWAP2 SUB SWAP1 REVERT JUMPDEST DUP1 PUSH1 0x5 PUSH1 0x16 PUSH2 0x100 EXP DUP2 SLOAD DUP2 PUSH1 0xFF MUL NOT AND SWAP1 DUP4 PUSH1 0xFF AND MUL OR SWAP1 SSTORE POP POP JUMP JUMPDEST PUSH1 0x9 SLOAD DUP2 JUMP JUMPDEST PUSH1 0x12 PUSH1 0x15 SWAP1 SLOAD SWAP1 PUSH2 0x100 EXP SWAP1 DIV PUSH1 0xFF AND DUP2 JUMP JUMPDEST PUSH1 0x0 DUP1 PUSH1 0x0 SWAP1 SLOAD SWAP1 PUSH2 0x100 EXP SWAP1 DIV PUSH20 0xFFFFFFFFFFFFFFFFFFFFFFFFFFFFFFFFFFFFFFFF AND SWAP1 POP SWAP1 JUMP JUMPDEST PUSH1 0x60 PUSH1 0x40 MLOAD DUP1 PUSH1 0x40 ADD PUSH1 0x40 MSTORE DUP1 PUSH1 0x5 DUP2 MSTORE PUSH1 0x20 ADD PUSH32 0x584F444558000000000000000000000000000000000000000000000000000000 DUP2 MSTORE POP SWAP1 POP SWAP1 JUMP JUMPDEST PUSH2 0x1CD3 PUSH2 0x28DD JUMP JUMPDEST PUSH20 0xFFFFFFFFFFFFFFFFFFFFFFFFFFFFFFFFFFFFFFFF AND PUSH2 0x1CF1 PUSH2 0x1C65 JUMP JUMPDEST PUSH20 0xFFFFFFFFFFFFFFFFFFFFFFFFFFFFFFFFFFFFFFFF AND EQ PUSH2 0x1D47 JUMPI PUSH1 0x40 MLOAD PUSH32 0x8C379A000000000000000000000000000000000000000000000000000000000 DUP2 MSTORE PUSH1 0x4 ADD PUSH2 0x1D3E SWAP1 PUSH2 0x3F74 JUMP JUMPDEST PUSH1 0x40 MLOAD DUP1 SWAP2 SUB SWAP1 REVERT JUMPDEST PUSH2 0x2710 DUP2 PUSH12 0x204FCE5E3E25026110000000 PUSH2 0x1D62 SWAP2 SWAP1 PUSH2 0x409A JUMP JUMPDEST PUSH2 0x1D6C SWAP2 SWAP1 PUSH2 0x410B JUMP JUMPDEST PUSH1 0x7 DUP2 SWAP1 SSTORE POP POP JUMP JUMPDEST PUSH2 0x1D7D PUSH2 0x28DD JUMP JUMPDEST PUSH20 0xFFFFFFFFFFFFFFFFFFFFFFFFFFFFFFFFFFFFFFFF AND PUSH2 0x1D9B PUSH2 0x1C65 JUMP JUMPDEST PUSH20 0xFFFFFFFFFFFFFFFFFFFFFFFFFFFFFFFFFFFFFFFF AND EQ PUSH2 0x1DF1 JUMPI PUSH1 0x40 MLOAD PUSH32 0x8C379A000000000000000000000000000000000000000000000000000000000 DUP2 MSTORE PUSH1 0x4 ADD PUSH2 0x1DE8 SWAP1 PUSH2 0x3F74 JUMP JUMPDEST PUSH1 0x40 MLOAD DUP1 SWAP2 SUB SWAP1 REVERT JUMPDEST DUP1 PUSH1 0x5 PUSH1 0x0 PUSH2 0x100 EXP DUP2 SLOAD DUP2 PUSH1 0xFF MUL NOT AND SWAP1 DUP4 ISZERO ISZERO MUL OR SWAP1 SSTORE POP POP JUMP JUMPDEST PUSH1 0x0 PUSH2 0x1ED1 PUSH2 0x1E1B PUSH2 0x28DD JUMP JUMPDEST DUP5 PUSH2 0x1ECC DUP6 PUSH1 0x40 MLOAD DUP1 PUSH1 0x60 ADD PUSH1 0x40 MSTORE DUP1 PUSH1 0x25 DUP2 MSTORE PUSH1 0x20 ADD PUSH2 0x494C PUSH1 0x25 SWAP2 CODECOPY PUSH1 0x2 PUSH1 0x0 PUSH2 0x1E45 PUSH2 0x28DD JUMP JUMPDEST PUSH20 0xFFFFFFFFFFFFFFFFFFFFFFFFFFFFFFFFFFFFFFFF AND PUSH20 0xFFFFFFFFFFFFFFFFFFFFFFFFFFFFFFFFFFFFFFFF AND DUP2 MSTORE PUSH1 0x20 ADD SWAP1 DUP2 MSTORE PUSH1 0x20 ADD PUSH1 0x0 KECCAK256 PUSH1 0x0 DUP11 PUSH20 0xFFFFFFFFFFFFFFFFFFFFFFFFFFFFFFFFFFFFFFFF AND PUSH20 0xFFFFFFFFFFFFFFFFFFFFFFFFFFFFFFFFFFFFFFFF AND DUP2 MSTORE PUSH1 0x20 ADD SWAP1 DUP2 MSTORE PUSH1 0x20 ADD PUSH1 0x0 KECCAK256 SLOAD PUSH2 0x327B SWAP1 SWAP3 SWAP2 SWAP1 PUSH4 0xFFFFFFFF AND JUMP JUMPDEST PUSH2 0x28E5 JUMP JUMPDEST PUSH1 0x1 SWAP1 POP SWAP3 SWAP2 POP POP JUMP JUMPDEST PUSH1 0x0 PUSH2 0x1EEF PUSH2 0x1EE8 PUSH2 0x28DD JUMP JUMPDEST DUP5 DUP5 PUSH2 0x2A79 JUMP JUMPDEST PUSH1 0x1 SWAP1 POP SWAP3 SWAP2 POP POP JUMP JUMPDEST PUSH2 0x1F01 PUSH2 0x28DD JUMP JUMPDEST PUSH20 0xFFFFFFFFFFFFFFFFFFFFFFFFFFFFFFFFFFFFFFFF AND PUSH2 0x1F1F PUSH2 0x1C65 JUMP JUMPDEST PUSH20 0xFFFFFFFFFFFFFFFFFFFFFFFFFFFFFFFFFFFFFFFF AND EQ PUSH2 0x1F75 JUMPI PUSH1 0x40 MLOAD PUSH32 0x8C379A000000000000000000000000000000000000000000000000000000000 DUP2 MSTORE PUSH1 0x4 ADD PUSH2 0x1F6C SWAP1 PUSH2 0x3F74 JUMP JUMPDEST PUSH1 0x40 MLOAD DUP1 SWAP2 SUB SWAP1 REVERT JUMPDEST DUP1 PUSH1 0x11 PUSH1 0x0 PUSH2 0x100 EXP DUP2 SLOAD DUP2 PUSH1 0xFF MUL NOT AND SWAP1 DUP4 ISZERO ISZERO MUL OR SWAP1 SSTORE POP POP JUMP JUMPDEST PUSH1 0x12 PUSH1 0x14 SWAP1 SLOAD SWAP1 PUSH2 0x100 EXP SWAP1 DIV PUSH1 0xFF AND DUP2 JUMP JUMPDEST PUSH2 0x1FAD PUSH2 0x28DD JUMP JUMPDEST PUSH20 0xFFFFFFFFFFFFFFFFFFFFFFFFFFFFFFFFFFFFFFFF AND PUSH2 0x1FCB PUSH2 0x1C65 JUMP JUMPDEST PUSH20 0xFFFFFFFFFFFFFFFFFFFFFFFFFFFFFFFFFFFFFFFF AND EQ PUSH2 0x2021 JUMPI PUSH1 0x40 MLOAD PUSH32 0x8C379A000000000000000000000000000000000000000000000000000000000 DUP2 MSTORE PUSH1 0x4 ADD PUSH2 0x2018 SWAP1 PUSH2 0x3F74 JUMP JUMPDEST PUSH1 0x40 MLOAD DUP1 SWAP2 SUB SWAP1 REVERT JUMPDEST PUSH1 0x6 SLOAD DUP2 GT ISZERO PUSH2 0x2066 JUMPI PUSH1 0x40 MLOAD PUSH32 0x8C379A000000000000000000000000000000000000000000000000000000000 DUP2 MSTORE PUSH1 0x4 ADD PUSH2 0x205D SWAP1 PUSH2 0x4380 JUMP JUMPDEST PUSH1 0x40 MLOAD DUP1 SWAP2 SUB SWAP1 REVERT JUMPDEST DUP1 PUSH1 0xB DUP2 SWAP1 SSTORE POP POP JUMP JUMPDEST PUSH1 0x11 PUSH1 0x0 SWAP1 SLOAD SWAP1 PUSH2 0x100 EXP SWAP1 DIV PUSH1 0xFF AND DUP2 JUMP JUMPDEST PUSH2 0x208B PUSH2 0x28DD JUMP JUMPDEST PUSH20 0xFFFFFFFFFFFFFFFFFFFFFFFFFFFFFFFFFFFFFFFF AND PUSH2 0x20A9 PUSH2 0x1C65 JUMP JUMPDEST PUSH20 0xFFFFFFFFFFFFFFFFFFFFFFFFFFFFFFFFFFFFFFFF AND EQ PUSH2 0x20FF JUMPI PUSH1 0x40 MLOAD PUSH32 0x8C379A000000000000000000000000000000000000000000000000000000000 DUP2 MSTORE PUSH1 0x4 ADD PUSH2 0x20F6 SWAP1 PUSH2 0x3F74 JUMP JUMPDEST PUSH1 0x40 MLOAD DUP1 SWAP2 SUB SWAP1 REVERT JUMPDEST PUSH1 0x0 PUSH20 0xFFFFFFFFFFFFFFFFFFFFFFFFFFFFFFFFFFFFFFFF AND DUP2 PUSH20 0xFFFFFFFFFFFFFFFFFFFFFFFFFFFFFFFFFFFFFFFF AND SUB PUSH2 0x216E JUMPI PUSH1 0x40 MLOAD PUSH32 0x8C379A000000000000000000000000000000000000000000000000000000000 DUP2 MSTORE PUSH1 0x4 ADD PUSH2 0x2165 SWAP1 PUSH2 0x3FE0 JUMP JUMPDEST PUSH1 0x40 MLOAD DUP1 SWAP2 SUB SWAP1 REVERT JUMPDEST DUP1 PUSH1 0x12 PUSH1 0x0 PUSH2 0x100 EXP DUP2 SLOAD DUP2 PUSH20 0xFFFFFFFFFFFFFFFFFFFFFFFFFFFFFFFFFFFFFFFF MUL NOT AND SWAP1 DUP4 PUSH20 0xFFFFFFFFFFFFFFFFFFFFFFFFFFFFFFFFFFFFFFFF AND MUL OR SWAP1 SSTORE POP POP JUMP JUMPDEST PUSH2 0x21BA PUSH2 0x28DD JUMP JUMPDEST PUSH20 0xFFFFFFFFFFFFFFFFFFFFFFFFFFFFFFFFFFFFFFFF AND PUSH2 0x21D8 PUSH2 0x1C65 JUMP JUMPDEST PUSH20 0xFFFFFFFFFFFFFFFFFFFFFFFFFFFFFFFFFFFFFFFF AND EQ PUSH2 0x222E JUMPI PUSH1 0x40 MLOAD PUSH32 0x8C379A000000000000000000000000000000000000000000000000000000000 DUP2 MSTORE PUSH1 0x4 ADD PUSH2 0x2225 SWAP1 PUSH2 0x3F74 JUMP JUMPDEST PUSH1 0x40 MLOAD DUP1 SWAP2 SUB SWAP1 REVERT JUMPDEST PUSH1 0x12 PUSH1 0x14 SWAP1 SLOAD SWAP1 PUSH2 0x100 EXP SWAP1 DIV PUSH1 0xFF AND ISZERO PUSH2 0x227E JUMPI PUSH1 0x40 MLOAD PUSH32 0x8C379A000000000000000000000000000000000000000000000000000000000 DUP2 MSTORE PUSH1 0x4 ADD PUSH2 0x2275 SWAP1 PUSH2 0x43EC JUMP JUMPDEST PUSH1 0x40 MLOAD DUP1 SWAP2 SUB SWAP1 REVERT JUMPDEST PUSH1 0x64 DUP2 GT ISZERO PUSH2 0x228C JUMPI PUSH1 0x64 SWAP1 POP JUMPDEST PUSH1 0x0 PUSH2 0x2297 ADDRESS PUSH2 0x1A0F JUMP JUMPDEST SWAP1 POP PUSH1 0x0 PUSH1 0x64 DUP4 DUP4 PUSH2 0x22A9 SWAP2 SWAP1 PUSH2 0x409A JUMP JUMPDEST PUSH2 0x22B3 SWAP2 SWAP1 PUSH2 0x410B JUMP JUMPDEST SWAP1 POP PUSH2 0x22BE DUP2 PUSH2 0x32E6 JUMP JUMPDEST POP POP POP JUMP JUMPDEST PUSH1 0x0 PUSH1 0x2 PUSH1 0x0 DUP5 PUSH20 0xFFFFFFFFFFFFFFFFFFFFFFFFFFFFFFFFFFFFFFFF AND PUSH20 0xFFFFFFFFFFFFFFFFFFFFFFFFFFFFFFFFFFFFFFFF AND DUP2 MSTORE PUSH1 0x20 ADD SWAP1 DUP2 MSTORE PUSH1 0x20 ADD PUSH1 0x0 KECCAK256 PUSH1 0x0 DUP4 PUSH20 0xFFFFFFFFFFFFFFFFFFFFFFFFFFFFFFFFFFFFFFFF AND PUSH20 0xFFFFFFFFFFFFFFFFFFFFFFFFFFFFFFFFFFFFFFFF AND DUP2 MSTORE PUSH1 0x20 ADD SWAP1 DUP2 MSTORE PUSH1 0x20 ADD PUSH1 0x0 KECCAK256 SLOAD SWAP1 POP SWAP3 SWAP2 POP POP JUMP JUMPDEST PUSH2 0x2352 PUSH2 0x28DD JUMP JUMPDEST PUSH20 0xFFFFFFFFFFFFFFFFFFFFFFFFFFFFFFFFFFFFFFFF AND PUSH2 0x2370 PUSH2 0x1C65 JUMP JUMPDEST PUSH20 0xFFFFFFFFFFFFFFFFFFFFFFFFFFFFFFFFFFFFFFFF AND EQ PUSH2 0x23C6 JUMPI PUSH1 0x40 MLOAD PUSH32 0x8C379A000000000000000000000000000000000000000000000000000000000 DUP2 MSTORE PUSH1 0x4 ADD PUSH2 0x23BD SWAP1 PUSH2 0x3F74 JUMP JUMPDEST PUSH1 0x40 MLOAD DUP1 SWAP2 SUB SWAP1 REVERT JUMPDEST PUSH1 0x0 PUSH20 0xFFFFFFFFFFFFFFFFFFFFFFFFFFFFFFFFFFFFFFFF AND DUP2 PUSH20 0xFFFFFFFFFFFFFFFFFFFFFFFFFFFFFFFFFFFFFFFF AND SUB PUSH2 0x2435 JUMPI PUSH1 0x40 MLOAD PUSH32 0x8C379A000000000000000000000000000000000000000000000000000000000 DUP2 MSTORE PUSH1 0x4 ADD PUSH2 0x242C SWAP1 PUSH2 0x3FE0 JUMP JUMPDEST PUSH1 0x40 MLOAD DUP1 SWAP2 SUB SWAP1 REVERT JUMPDEST PUSH1 0x0 PUSH1 0x3 PUSH1 0x0 DUP4 PUSH20 0xFFFFFFFFFFFFFFFFFFFFFFFFFFFFFFFFFFFFFFFF AND PUSH20 0xFFFFFFFFFFFFFFFFFFFFFFFFFFFFFFFFFFFFFFFF AND DUP2 MSTORE PUSH1 0x20 ADD SWAP1 DUP2 MSTORE PUSH1 0x20 ADD PUSH1 0x0 KECCAK256 PUSH1 0x0 PUSH2 0x100 EXP DUP2 SLOAD DUP2 PUSH1 0xFF MUL NOT AND SWAP1 DUP4 ISZERO ISZERO MUL OR SWAP1 SSTORE POP POP JUMP JUMPDEST PUSH2 0x2498 PUSH2 0x28DD JUMP JUMPDEST PUSH20 0xFFFFFFFFFFFFFFFFFFFFFFFFFFFFFFFFFFFFFFFF AND PUSH2 0x24B6 PUSH2 0x1C65 JUMP JUMPDEST PUSH20 0xFFFFFFFFFFFFFFFFFFFFFFFFFFFFFFFFFFFFFFFF AND EQ PUSH2 0x250C JUMPI PUSH1 0x40 MLOAD PUSH32 0x8C379A000000000000000000000000000000000000000000000000000000000 DUP2 MSTORE PUSH1 0x4 ADD PUSH2 0x2503 SWAP1 PUSH2 0x3F74 JUMP JUMPDEST PUSH1 0x40 MLOAD DUP1 SWAP2 SUB SWAP1 REVERT JUMPDEST PUSH1 0x0 PUSH20 0xFFFFFFFFFFFFFFFFFFFFFFFFFFFFFFFFFFFFFFFF AND DUP2 PUSH20 0xFFFFFFFFFFFFFFFFFFFFFFFFFFFFFFFFFFFFFFFF AND SUB PUSH2 0x257B JUMPI PUSH1 0x40 MLOAD PUSH32 0x8C379A000000000000000000000000000000000000000000000000000000000 DUP2 MSTORE PUSH1 0x4 ADD PUSH2 0x2572 SWAP1 PUSH2 0x447E JUMP JUMPDEST PUSH1 0x40 MLOAD DUP1 SWAP2 SUB SWAP1 REVERT JUMPDEST DUP1 PUSH20 0xFFFFFFFFFFFFFFFFFFFFFFFFFFFFFFFFFFFFFFFF AND PUSH1 0x0 DUP1 SLOAD SWAP1 PUSH2 0x100 EXP SWAP1 DIV PUSH20 0xFFFFFFFFFFFFFFFFFFFFFFFFFFFFFFFFFFFFFFFF AND PUSH20 0xFFFFFFFFFFFFFFFFFFFFFFFFFFFFFFFFFFFFFFFF AND PUSH32 0x8BE0079C531659141344CD1FD0A4F28419497F9722A3DAAFE3B4186F6B6457E0 PUSH1 0x40 MLOAD PUSH1 0x40 MLOAD DUP1 SWAP2 SUB SWAP1 LOG3 DUP1 PUSH1 0x0 DUP1 PUSH2 0x100 EXP DUP2 SLOAD DUP2 PUSH20 0xFFFFFFFFFFFFFFFFFFFFFFFFFFFFFFFFFFFFFFFF MUL NOT AND SWAP1 DUP4 PUSH20 0xFFFFFFFFFFFFFFFFFFFFFFFFFFFFFFFFFFFFFFFF AND MUL OR SWAP1 SSTORE POP POP JUMP JUMPDEST PUSH2 0x2640 PUSH2 0x28DD JUMP JUMPDEST PUSH20 0xFFFFFFFFFFFFFFFFFFFFFFFFFFFFFFFFFFFFFFFF AND PUSH2 0x265E PUSH2 0x1C65 JUMP JUMPDEST PUSH20 0xFFFFFFFFFFFFFFFFFFFFFFFFFFFFFFFFFFFFFFFF AND EQ PUSH2 0x26B4 JUMPI PUSH1 0x40 MLOAD PUSH32 0x8C379A000000000000000000000000000000000000000000000000000000000 DUP2 MSTORE PUSH1 0x4 ADD PUSH2 0x26AB SWAP1 PUSH2 0x3F74 JUMP JUMPDEST PUSH1 0x40 MLOAD DUP1 SWAP2 SUB SWAP1 REVERT JUMPDEST PUSH1 0x0 PUSH20 0xFFFFFFFFFFFFFFFFFFFFFFFFFFFFFFFFFFFFFFFF AND DUP2 PUSH20 0xFFFFFFFFFFFFFFFFFFFFFFFFFFFFFFFFFFFFFFFF AND SUB PUSH2 0x2723 JUMPI PUSH1 0x40 MLOAD PUSH32 0x8C379A000000000000000000000000000000000000000000000000000000000 DUP2 MSTORE PUSH1 0x4 ADD PUSH2 0x271A SWAP1 PUSH2 0x3FE0 JUMP JUMPDEST PUSH1 0x40 MLOAD DUP1 SWAP2 SUB SWAP1 REVERT JUMPDEST DUP1 PUSH1 0x5 PUSH1 0x1 PUSH2 0x100 EXP DUP2 SLOAD DUP2 PUSH20 0xFFFFFFFFFFFFFFFFFFFFFFFFFFFFFFFFFFFFFFFF MUL NOT AND SWAP1 DUP4 PUSH20 0xFFFFFFFFFFFFFFFFFFFFFFFFFFFFFFFFFFFFFFFF AND MUL OR SWAP1 SSTORE POP PUSH1 0x1 PUSH1 0x3 PUSH1 0x0 PUSH1 0x5 PUSH1 0x1 SWAP1 SLOAD SWAP1 PUSH2 0x100 EXP SWAP1 DIV PUSH20 0xFFFFFFFFFFFFFFFFFFFFFFFFFFFFFFFFFFFFFFFF AND PUSH20 0xFFFFFFFFFFFFFFFFFFFFFFFFFFFFFFFFFFFFFFFF AND PUSH20 0xFFFFFFFFFFFFFFFFFFFFFFFFFFFFFFFFFFFFFFFF AND DUP2 MSTORE PUSH1 0x20 ADD SWAP1 DUP2 MSTORE PUSH1 0x20 ADD PUSH1 0x0 KECCAK256 PUSH1 0x0 PUSH2 0x100 EXP DUP2 SLOAD DUP2 PUSH1 0xFF MUL NOT AND SWAP1 DUP4 ISZERO ISZERO MUL OR SWAP1 SSTORE POP POP JUMP JUMPDEST PUSH2 0x27E9 PUSH2 0x28DD JUMP JUMPDEST PUSH20 0xFFFFFFFFFFFFFFFFFFFFFFFFFFFFFFFFFFFFFFFF AND PUSH2 0x2807 PUSH2 0x1C65 JUMP JUMPDEST PUSH20 0xFFFFFFFFFFFFFFFFFFFFFFFFFFFFFFFFFFFFFFFF AND EQ PUSH2 0x285D JUMPI PUSH1 0x40 MLOAD PUSH32 0x8C379A000000000000000000000000000000000000000000000000000000000 DUP2 MSTORE PUSH1 0x4 ADD PUSH2 0x2854 SWAP1 PUSH2 0x3F74 JUMP JUMPDEST PUSH1 0x40 MLOAD DUP1 SWAP2 SUB SWAP1 REVERT JUMPDEST DUP1 PUSH1 0x12 PUSH1 0x15 PUSH2 0x100 EXP DUP2 SLOAD DUP2 PUSH1 0xFF MUL NOT AND SWAP1 DUP4 ISZERO ISZERO MUL OR SWAP1 SSTORE POP PUSH32 0x53726DFCAF90650AA7EB35524F4D3220F07413C8D6CB404CC8C18BF5591BC159 DUP2 PUSH1 0x40 MLOAD PUSH2 0x28A6 SWAP2 SWAP1 PUSH2 0x3B0C JUMP JUMPDEST PUSH1 0x40 MLOAD DUP1 SWAP2 SUB SWAP1 LOG1 POP JUMP JUMPDEST PUSH1 0x0 DUP2 DUP4 PUSH2 0x28BF SWAP2 SWAP1 PUSH2 0x409A JUMP JUMPDEST SWAP1 POP SWAP3 SWAP2 POP POP JUMP JUMPDEST PUSH1 0x0 DUP2 DUP4 PUSH2 0x28D5 SWAP2 SWAP1 PUSH2 0x410B JUMP JUMPDEST SWAP1 POP SWAP3 SWAP2 POP POP JUMP JUMPDEST PUSH1 0x0 CALLER SWAP1 POP SWAP1 JUMP JUMPDEST PUSH1 0x0 PUSH20 0xFFFFFFFFFFFFFFFFFFFFFFFFFFFFFFFFFFFFFFFF AND DUP4 PUSH20 0xFFFFFFFFFFFFFFFFFFFFFFFFFFFFFFFFFFFFFFFF AND EQ ISZERO DUP1 ISZERO PUSH2 0x294F JUMPI POP PUSH1 0x0 PUSH20 0xFFFFFFFFFFFFFFFFFFFFFFFFFFFFFFFFFFFFFFFF AND DUP3 PUSH20 0xFFFFFFFFFFFFFFFFFFFFFFFFFFFFFFFFFFFFFFFF AND EQ ISZERO JUMPDEST PUSH2 0x298E JUMPI PUSH1 0x40 MLOAD PUSH32 0x8C379A000000000000000000000000000000000000000000000000000000000 DUP2 MSTORE PUSH1 0x4 ADD PUSH2 0x2985 SWAP1 PUSH2 0x3FE0 JUMP JUMPDEST PUSH1 0x40 MLOAD DUP1 SWAP2 SUB SWAP1 REVERT JUMPDEST DUP1 PUSH1 0x2 PUSH1 0x0 DUP6 PUSH20 0xFFFFFFFFFFFFFFFFFFFFFFFFFFFFFFFFFFFFFFFF AND PUSH20 0xFFFFFFFFFFFFFFFFFFFFFFFFFFFFFFFFFFFFFFFF AND DUP2 MSTORE PUSH1 0x20 ADD SWAP1 DUP2 MSTORE PUSH1 0x20 ADD PUSH1 0x0 KECCAK256 PUSH1 0x0 DUP5 PUSH20 0xFFFFFFFFFFFFFFFFFFFFFFFFFFFFFFFFFFFFFFFF AND PUSH20 0xFFFFFFFFFFFFFFFFFFFFFFFFFFFFFFFFFFFFFFFF AND DUP2 MSTORE PUSH1 0x20 ADD SWAP1 DUP2 MSTORE PUSH1 0x20 ADD PUSH1 0x0 KECCAK256 DUP2 SWAP1 SSTORE POP DUP2 PUSH20 0xFFFFFFFFFFFFFFFFFFFFFFFFFFFFFFFFFFFFFFFF AND DUP4 PUSH20 0xFFFFFFFFFFFFFFFFFFFFFFFFFFFFFFFFFFFFFFFF AND PUSH32 0x8C5BE1E5EBEC7D5BD14F71427D1E84F3DD0314C0F7B2291E5B200AC8C7C3B925 DUP4 PUSH1 0x40 MLOAD PUSH2 0x2A6C SWAP2 SWAP1 PUSH2 0x3C0A JUMP JUMPDEST PUSH1 0x40 MLOAD DUP1 SWAP2 SUB SWAP1 LOG3 POP POP POP JUMP JUMPDEST PUSH2 0x2A81 PUSH2 0x1C65 JUMP JUMPDEST PUSH20 0xFFFFFFFFFFFFFFFFFFFFFFFFFFFFFFFFFFFFFFFF AND DUP3 PUSH20 0xFFFFFFFFFFFFFFFFFFFFFFFFFFFFFFFFFFFFFFFF AND EQ ISZERO DUP1 ISZERO PUSH2 0x2B0A JUMPI POP PUSH1 0x5 PUSH1 0x1 SWAP1 SLOAD SWAP1 PUSH2 0x100 EXP SWAP1 DIV PUSH20 0xFFFFFFFFFFFFFFFFFFFFFFFFFFFFFFFFFFFFFFFF AND PUSH20 0xFFFFFFFFFFFFFFFFFFFFFFFFFFFFFFFFFFFFFFFF AND DUP3 PUSH20 0xFFFFFFFFFFFFFFFFFFFFFFFFFFFFFFFFFFFFFFFF AND EQ ISZERO JUMPDEST DUP1 ISZERO PUSH2 0x2B42 JUMPI POP ADDRESS PUSH20 0xFFFFFFFFFFFFFFFFFFFFFFFFFFFFFFFFFFFFFFFF AND DUP3 PUSH20 0xFFFFFFFFFFFFFFFFFFFFFFFFFFFFFFFFFFFFFFFF AND EQ ISZERO JUMPDEST DUP1 ISZERO PUSH2 0x2B9C JUMPI POP PUSH1 0x12 PUSH1 0x0 SWAP1 SLOAD SWAP1 PUSH2 0x100 EXP SWAP1 DIV PUSH20 0xFFFFFFFFFFFFFFFFFFFFFFFFFFFFFFFFFFFFFFFF AND PUSH20 0xFFFFFFFFFFFFFFFFFFFFFFFFFFFFFFFFFFFFFFFF AND DUP3 PUSH20 0xFFFFFFFFFFFFFFFFFFFFFFFFFFFFFFFFFFFFFFFF AND EQ ISZERO JUMPDEST DUP1 ISZERO PUSH2 0x2BD6 JUMPI POP PUSH2 0xDEAD PUSH20 0xFFFFFFFFFFFFFFFFFFFFFFFFFFFFFFFFFFFFFFFF AND DUP3 PUSH20 0xFFFFFFFFFFFFFFFFFFFFFFFFFFFFFFFFFFFFFFFF AND EQ ISZERO JUMPDEST DUP1 ISZERO PUSH2 0x2C15 JUMPI POP PUSH2 0x2BE5 PUSH2 0x1C65 JUMP JUMPDEST PUSH20 0xFFFFFFFFFFFFFFFFFFFFFFFFFFFFFFFFFFFFFFFF AND DUP4 PUSH20 0xFFFFFFFFFFFFFFFFFFFFFFFFFFFFFFFFFFFFFFFF AND EQ ISZERO JUMPDEST ISZERO PUSH2 0x2C79 JUMPI PUSH1 0x0 PUSH2 0x2C25 DUP4 PUSH2 0x1A0F JUMP JUMPDEST SWAP1 POP PUSH1 0x7 SLOAD DUP3 DUP3 PUSH2 0x2C36 SWAP2 SWAP1 PUSH2 0x4300 JUMP JUMPDEST GT ISZERO PUSH2 0x2C77 JUMPI PUSH1 0x40 MLOAD PUSH32 0x8C379A000000000000000000000000000000000000000000000000000000000 DUP2 MSTORE PUSH1 0x4 ADD PUSH2 0x2C6E SWAP1 PUSH2 0x4536 JUMP JUMPDEST PUSH1 0x40 MLOAD DUP1 SWAP2 SUB SWAP1 REVERT JUMPDEST POP JUMPDEST PUSH2 0x2C81 PUSH2 0x1C65 JUMP JUMPDEST PUSH20 0xFFFFFFFFFFFFFFFFFFFFFFFFFFFFFFFFFFFFFFFF AND DUP4 PUSH20 0xFFFFFFFFFFFFFFFFFFFFFFFFFFFFFFFFFFFFFFFF AND EQ ISZERO DUP1 ISZERO PUSH2 0x2CEF JUMPI POP PUSH2 0x2CBF PUSH2 0x1C65 JUMP JUMPDEST PUSH20 0xFFFFFFFFFFFFFFFFFFFFFFFFFFFFFFFFFFFFFFFF AND DUP3 PUSH20 0xFFFFFFFFFFFFFFFFFFFFFFFFFFFFFFFFFFFFFFFF AND EQ ISZERO JUMPDEST ISZERO PUSH2 0x2D3A JUMPI PUSH1 0x9 SLOAD DUP2 GT ISZERO PUSH2 0x2D39 JUMPI PUSH1 0x40 MLOAD PUSH32 0x8C379A000000000000000000000000000000000000000000000000000000000 DUP2 MSTORE PUSH1 0x4 ADD PUSH2 0x2D30 SWAP1 PUSH2 0x45C8 JUMP JUMPDEST PUSH1 0x40 MLOAD DUP1 SWAP2 SUB SWAP1 REVERT JUMPDEST JUMPDEST PUSH1 0x5 PUSH1 0x0 SWAP1 SLOAD SWAP1 PUSH2 0x100 EXP SWAP1 DIV PUSH1 0xFF AND ISZERO PUSH2 0x2E33 JUMPI PUSH1 0x4 PUSH1 0x0 DUP5 PUSH20 0xFFFFFFFFFFFFFFFFFFFFFFFFFFFFFFFFFFFFFFFF AND PUSH20 0xFFFFFFFFFFFFFFFFFFFFFFFFFFFFFFFFFFFFFFFF AND DUP2 MSTORE PUSH1 0x20 ADD SWAP1 DUP2 MSTORE PUSH1 0x20 ADD PUSH1 0x0 KECCAK256 PUSH1 0x0 SWAP1 SLOAD SWAP1 PUSH2 0x100 EXP SWAP1 DIV PUSH1 0xFF AND ISZERO DUP1 ISZERO PUSH2 0x2DF3 JUMPI POP PUSH1 0x4 PUSH1 0x0 DUP4 PUSH20 0xFFFFFFFFFFFFFFFFFFFFFFFFFFFFFFFFFFFFFFFF AND PUSH20 0xFFFFFFFFFFFFFFFFFFFFFFFFFFFFFFFFFFFFFFFF AND DUP2 MSTORE PUSH1 0x20 ADD SWAP1 DUP2 MSTORE PUSH1 0x20 ADD PUSH1 0x0 KECCAK256 PUSH1 0x0 SWAP1 SLOAD SWAP1 PUSH2 0x100 EXP SWAP1 DIV PUSH1 0xFF AND ISZERO JUMPDEST PUSH2 0x2E32 JUMPI PUSH1 0x40 MLOAD PUSH32 0x8C379A000000000000000000000000000000000000000000000000000000000 DUP2 MSTORE PUSH1 0x4 ADD PUSH2 0x2E29 SWAP1 PUSH2 0x465A JUMP JUMPDEST PUSH1 0x40 MLOAD DUP1 SWAP2 SUB SWAP1 REVERT JUMPDEST JUMPDEST PUSH1 0x0 PUSH20 0xFFFFFFFFFFFFFFFFFFFFFFFFFFFFFFFFFFFFFFFF AND DUP4 PUSH20 0xFFFFFFFFFFFFFFFFFFFFFFFFFFFFFFFFFFFFFFFF AND EQ ISZERO DUP1 ISZERO PUSH2 0x2E9D JUMPI POP PUSH1 0x0 PUSH20 0xFFFFFFFFFFFFFFFFFFFFFFFFFFFFFFFFFFFFFFFF AND DUP3 PUSH20 0xFFFFFFFFFFFFFFFFFFFFFFFFFFFFFFFFFFFFFFFF AND EQ ISZERO JUMPDEST PUSH2 0x2EDC JUMPI PUSH1 0x40 MLOAD PUSH32 0x8C379A000000000000000000000000000000000000000000000000000000000 DUP2 MSTORE PUSH1 0x4 ADD PUSH2 0x2ED3 SWAP1 PUSH2 0x46C6 JUMP JUMPDEST PUSH1 0x40 MLOAD DUP1 SWAP2 SUB SWAP1 REVERT JUMPDEST PUSH1 0x0 DUP2 GT PUSH2 0x2F1F JUMPI PUSH1 0x40 MLOAD PUSH32 0x8C379A000000000000000000000000000000000000000000000000000000000 DUP2 MSTORE PUSH1 0x4 ADD PUSH2 0x2F16 SWAP1 PUSH2 0x4758 JUMP JUMPDEST PUSH1 0x40 MLOAD DUP1 SWAP2 SUB SWAP1 REVERT JUMPDEST PUSH1 0x5 PUSH1 0x16 SWAP1 SLOAD SWAP1 PUSH2 0x100 EXP SWAP1 DIV PUSH1 0xFF AND PUSH1 0xFF AND PUSH1 0x5 PUSH1 0x15 SWAP1 SLOAD SWAP1 PUSH2 0x100 EXP SWAP1 DIV PUSH1 0xFF AND PUSH1 0xFF AND LT ISZERO DUP1 ISZERO PUSH2 0x2F60 JUMPI POP PUSH1 0x12 PUSH1 0x14 SWAP1 SLOAD SWAP1 PUSH2 0x100 EXP SWAP1 DIV PUSH1 0xFF AND ISZERO JUMPDEST DUP1 ISZERO PUSH2 0x2FBA JUMPI POP PUSH1 0x12 PUSH1 0x0 SWAP1 SLOAD SWAP1 PUSH2 0x100 EXP SWAP1 DIV PUSH20 0xFFFFFFFFFFFFFFFFFFFFFFFFFFFFFFFFFFFFFFFF AND PUSH20 0xFFFFFFFFFFFFFFFFFFFFFFFFFFFFFFFFFFFFFFFF AND DUP4 PUSH20 0xFFFFFFFFFFFFFFFFFFFFFFFFFFFFFFFFFFFFFFFF AND EQ ISZERO JUMPDEST DUP1 ISZERO PUSH2 0x2FD2 JUMPI POP PUSH1 0x12 PUSH1 0x15 SWAP1 SLOAD SWAP1 PUSH2 0x100 EXP SWAP1 DIV PUSH1 0xFF AND JUMPDEST ISZERO PUSH2 0x3025 JUMPI PUSH1 0x0 PUSH1 0x5 PUSH1 0x15 PUSH2 0x100 EXP DUP2 SLOAD DUP2 PUSH1 0xFF MUL NOT AND SWAP1 DUP4 PUSH1 0xFF AND MUL OR SWAP1 SSTORE POP PUSH1 0x0 PUSH2 0x2FFE ADDRESS PUSH2 0x1A0F JUMP JUMPDEST SWAP1 POP PUSH1 0x9 SLOAD DUP2 GT ISZERO PUSH2 0x3010 JUMPI PUSH1 0x9 SLOAD SWAP1 POP JUMPDEST PUSH1 0x0 DUP2 GT ISZERO PUSH2 0x3023 JUMPI PUSH2 0x3022 DUP2 PUSH2 0x32E6 JUMP JUMPDEST JUMPDEST POP JUMPDEST PUSH1 0x0 PUSH1 0x1 SWAP1 POP PUSH1 0x3 PUSH1 0x0 DUP6 PUSH20 0xFFFFFFFFFFFFFFFFFFFFFFFFFFFFFFFFFFFFFFFF AND PUSH20 0xFFFFFFFFFFFFFFFFFFFFFFFFFFFFFFFFFFFFFFFF AND DUP2 MSTORE PUSH1 0x20 ADD SWAP1 DUP2 MSTORE PUSH1 0x20 ADD PUSH1 0x0 KECCAK256 PUSH1 0x0 SWAP1 SLOAD SWAP1 PUSH2 0x100 EXP SWAP1 DIV PUSH1 0xFF AND DUP1 PUSH2 0x30CC JUMPI POP PUSH1 0x3 PUSH1 0x0 DUP5 PUSH20 0xFFFFFFFFFFFFFFFFFFFFFFFFFFFFFFFFFFFFFFFF AND PUSH20 0xFFFFFFFFFFFFFFFFFFFFFFFFFFFFFFFFFFFFFFFF AND DUP2 MSTORE PUSH1 0x20 ADD SWAP1 DUP2 MSTORE PUSH1 0x20 ADD PUSH1 0x0 KECCAK256 PUSH1 0x0 SWAP1 SLOAD SWAP1 PUSH2 0x100 EXP SWAP1 DIV PUSH1 0xFF AND JUMPDEST DUP1 PUSH2 0x3197 JUMPI POP PUSH1 0x11 PUSH1 0x0 SWAP1 SLOAD SWAP1 PUSH2 0x100 EXP SWAP1 DIV PUSH1 0xFF AND DUP1 ISZERO PUSH2 0x313C JUMPI POP PUSH1 0x12 PUSH1 0x0 SWAP1 SLOAD SWAP1 PUSH2 0x100 EXP SWAP1 DIV PUSH20 0xFFFFFFFFFFFFFFFFFFFFFFFFFFFFFFFFFFFFFFFF AND PUSH20 0xFFFFFFFFFFFFFFFFFFFFFFFFFFFFFFFFFFFFFFFF AND DUP5 PUSH20 0xFFFFFFFFFFFFFFFFFFFFFFFFFFFFFFFFFFFFFFFF AND EQ ISZERO JUMPDEST DUP1 ISZERO PUSH2 0x3196 JUMPI POP PUSH1 0x12 PUSH1 0x0 SWAP1 SLOAD SWAP1 PUSH2 0x100 EXP SWAP1 DIV PUSH20 0xFFFFFFFFFFFFFFFFFFFFFFFFFFFFFFFFFFFFFFFF AND PUSH20 0xFFFFFFFFFFFFFFFFFFFFFFFFFFFFFFFFFFFFFFFF AND DUP4 PUSH20 0xFFFFFFFFFFFFFFFFFFFFFFFFFFFFFFFFFFFFFFFF AND EQ ISZERO JUMPDEST JUMPDEST ISZERO PUSH2 0x31A5 JUMPI PUSH1 0x0 SWAP1 POP PUSH2 0x3269 JUMP JUMPDEST PUSH1 0x12 PUSH1 0x0 SWAP1 SLOAD SWAP1 PUSH2 0x100 EXP SWAP1 DIV PUSH20 0xFFFFFFFFFFFFFFFFFFFFFFFFFFFFFFFFFFFFFFFF AND PUSH20 0xFFFFFFFFFFFFFFFFFFFFFFFFFFFFFFFFFFFFFFFF AND DUP5 PUSH20 0xFFFFFFFFFFFFFFFFFFFFFFFFFFFFFFFFFFFFFFFF AND SUB PUSH2 0x3208 JUMPI PUSH1 0xC SLOAD PUSH1 0xB DUP2 SWAP1 SSTORE POP PUSH2 0x3268 JUMP JUMPDEST PUSH1 0x12 PUSH1 0x0 SWAP1 SLOAD SWAP1 PUSH2 0x100 EXP SWAP1 DIV PUSH20 0xFFFFFFFFFFFFFFFFFFFFFFFFFFFFFFFFFFFFFFFF AND PUSH20 0xFFFFFFFFFFFFFFFFFFFFFFFFFFFFFFFFFFFFFFFF AND DUP4 PUSH20 0xFFFFFFFFFFFFFFFFFFFFFFFFFFFFFFFFFFFFFFFF AND SUB PUSH2 0x3267 JUMPI PUSH1 0xD SLOAD PUSH1 0xB DUP2 SWAP1 SSTORE POP JUMPDEST JUMPDEST JUMPDEST PUSH2 0x3275 DUP5 DUP5 DUP5 DUP5 PUSH2 0x335A JUMP JUMPDEST POP POP POP POP JUMP JUMPDEST PUSH1 0x0 DUP4 DUP4 GT ISZERO DUP3 SWAP1 PUSH2 0x32C3 JUMPI PUSH1 0x40 MLOAD PUSH32 0x8C379A000000000000000000000000000000000000000000000000000000000 DUP2 MSTORE PUSH1 0x4 ADD PUSH2 0x32BA SWAP2 SWAP1 PUSH2 0x39F1 JUMP JUMPDEST PUSH1 0x40 MLOAD DUP1 SWAP2 SUB SWAP1 REVERT JUMPDEST POP DUP3 DUP5 SUB SWAP1 POP SWAP4 SWAP3 POP POP POP JUMP JUMPDEST PUSH1 0x0 DUP2 DUP4 PUSH2 0x32DE SWAP2 SWAP1 PUSH2 0x4300 JUMP JUMPDEST SWAP1 POP SWAP3 SWAP2 POP POP JUMP JUMPDEST PUSH1 0x1 PUSH1 0x12 PUSH1 0x14 PUSH2 0x100 EXP DUP2 SLOAD DUP2 PUSH1 0xFF MUL NOT AND SWAP1 DUP4 ISZERO ISZERO MUL OR SWAP1 SSTORE POP PUSH2 0x330A DUP2 PUSH2 0x33C4 JUMP JUMPDEST PUSH1 0x0 SELFBALANCE SWAP1 POP PUSH2 0x333B PUSH1 0x5 PUSH1 0x1 SWAP1 SLOAD SWAP1 PUSH2 0x100 EXP SWAP1 DIV PUSH20 0xFFFFFFFFFFFFFFFFFFFFFFFFFFFFFFFFFFFFFFFF AND DUP3 PUSH2 0x3607 JUMP JUMPDEST POP PUSH1 0x0 PUSH1 0x12 PUSH1 0x14 PUSH2 0x100 EXP DUP2 SLOAD DUP2 PUSH1 0xFF MUL NOT AND SWAP1 DUP4 ISZERO ISZERO MUL OR SWAP1 SSTORE POP POP JUMP JUMPDEST DUP1 PUSH2 0x336C JUMPI PUSH2 0x3367 PUSH2 0x3652 JUMP JUMPDEST PUSH2 0x33A5 JUMP JUMPDEST PUSH1 0x5 PUSH1 0x15 DUP2 DUP2 SWAP1 SLOAD SWAP1 PUSH2 0x100 EXP SWAP1 DIV PUSH1 0xFF AND DUP1 SWAP3 SWAP2 SWAP1 PUSH2 0x338B SWAP1 PUSH2 0x4778 JUMP JUMPDEST SWAP2 SWAP1 PUSH2 0x100 EXP DUP2 SLOAD DUP2 PUSH1 0xFF MUL NOT AND SWAP1 DUP4 PUSH1 0xFF AND MUL OR SWAP1 SSTORE POP POP JUMPDEST PUSH2 0x33B0 DUP5 DUP5 DUP5 PUSH2 0x36AE JUMP JUMPDEST DUP1 PUSH2 0x33BE JUMPI PUSH2 0x33BD PUSH2 0x38E9 JUMP JUMPDEST JUMPDEST POP POP POP POP JUMP JUMPDEST PUSH1 0x0 PUSH1 0x2 PUSH8 0xFFFFFFFFFFFFFFFF DUP2 GT ISZERO PUSH2 0x33E1 JUMPI PUSH2 0x33E0 PUSH2 0x47A1 JUMP JUMPDEST JUMPDEST PUSH1 0x40 MLOAD SWAP1 DUP1 DUP3 MSTORE DUP1 PUSH1 0x20 MUL PUSH1 0x20 ADD DUP3 ADD PUSH1 0x40 MSTORE DUP1 ISZERO PUSH2 0x340F JUMPI DUP2 PUSH1 0x20 ADD PUSH1 0x20 DUP3 MUL DUP1 CALLDATASIZE DUP4 CALLDATACOPY DUP1 DUP3 ADD SWAP2 POP POP SWAP1 POP JUMPDEST POP SWAP1 POP ADDRESS DUP2 PUSH1 0x0 DUP2 MLOAD DUP2 LT PUSH2 0x3427 JUMPI PUSH2 0x3426 PUSH2 0x413C JUMP JUMPDEST JUMPDEST PUSH1 0x20 MUL PUSH1 0x20 ADD ADD SWAP1 PUSH20 0xFFFFFFFFFFFFFFFFFFFFFFFFFFFFFFFFFFFFFFFF AND SWAP1 DUP2 PUSH20 0xFFFFFFFFFFFFFFFFFFFFFFFFFFFFFFFFFFFFFFFF AND DUP2 MSTORE POP POP PUSH1 0x11 PUSH1 0x1 SWAP1 SLOAD SWAP1 PUSH2 0x100 EXP SWAP1 DIV PUSH20 0xFFFFFFFFFFFFFFFFFFFFFFFFFFFFFFFFFFFFFFFF AND PUSH20 0xFFFFFFFFFFFFFFFFFFFFFFFFFFFFFFFFFFFFFFFF AND PUSH4 0xAD5C4648 PUSH1 0x40 MLOAD DUP2 PUSH4 0xFFFFFFFF AND PUSH1 0xE0 SHL DUP2 MSTORE PUSH1 0x4 ADD PUSH1 0x20 PUSH1 0x40 MLOAD DUP1 DUP4 SUB DUP2 DUP7 GAS STATICCALL ISZERO DUP1 ISZERO PUSH2 0x34CE JUMPI RETURNDATASIZE PUSH1 0x0 DUP1 RETURNDATACOPY RETURNDATASIZE PUSH1 0x0 REVERT JUMPDEST POP POP POP POP PUSH1 0x40 MLOAD RETURNDATASIZE PUSH1 0x1F NOT PUSH1 0x1F DUP3 ADD AND DUP3 ADD DUP1 PUSH1 0x40 MSTORE POP DUP2 ADD SWAP1 PUSH2 0x34F2 SWAP2 SWAP1 PUSH2 0x4015 JUMP JUMPDEST DUP2 PUSH1 0x1 DUP2 MLOAD DUP2 LT PUSH2 0x3506 JUMPI PUSH2 0x3505 PUSH2 0x413C JUMP JUMPDEST JUMPDEST PUSH1 0x20 MUL PUSH1 0x20 ADD ADD SWAP1 PUSH20 0xFFFFFFFFFFFFFFFFFFFFFFFFFFFFFFFFFFFFFFFF AND SWAP1 DUP2 PUSH20 0xFFFFFFFFFFFFFFFFFFFFFFFFFFFFFFFFFFFFFFFF AND DUP2 MSTORE POP POP PUSH2 0x356D ADDRESS PUSH1 0x11 PUSH1 0x1 SWAP1 SLOAD SWAP1 PUSH2 0x100 EXP SWAP1 DIV PUSH20 0xFFFFFFFFFFFFFFFFFFFFFFFFFFFFFFFFFFFFFFFF AND DUP5 PUSH2 0x28E5 JUMP JUMPDEST PUSH1 0x11 PUSH1 0x1 SWAP1 SLOAD SWAP1 PUSH2 0x100 EXP SWAP1 DIV PUSH20 0xFFFFFFFFFFFFFFFFFFFFFFFFFFFFFFFFFFFFFFFF AND PUSH20 0xFFFFFFFFFFFFFFFFFFFFFFFFFFFFFFFFFFFFFFFF AND PUSH4 0x791AC947 DUP4 PUSH1 0x0 DUP5 ADDRESS TIMESTAMP PUSH1 0x40 MLOAD DUP7 PUSH4 0xFFFFFFFF AND PUSH1 0xE0 SHL DUP2 MSTORE PUSH1 0x4 ADD PUSH2 0x35D1 SWAP6 SWAP5 SWAP4 SWAP3 SWAP2 SWAP1 PUSH2 0x48C9 JUMP JUMPDEST PUSH1 0x0 PUSH1 0x40 MLOAD DUP1 DUP4 SUB DUP2 PUSH1 0x0 DUP8 DUP1 EXTCODESIZE ISZERO DUP1 ISZERO PUSH2 0x35EB JUMPI PUSH1 0x0 DUP1 REVERT JUMPDEST POP GAS CALL ISZERO DUP1 ISZERO PUSH2 0x35FF JUMPI RETURNDATASIZE PUSH1 0x0 DUP1 RETURNDATACOPY RETURNDATASIZE PUSH1 0x0 REVERT JUMPDEST POP POP POP POP POP POP JUMP JUMPDEST DUP2 PUSH20 0xFFFFFFFFFFFFFFFFFFFFFFFFFFFFFFFFFFFFFFFF AND PUSH2 0x8FC DUP3 SWAP1 DUP2 ISZERO MUL SWAP1 PUSH1 0x40 MLOAD PUSH1 0x0 PUSH1 0x40 MLOAD DUP1 DUP4 SUB DUP2 DUP6 DUP9 DUP9 CALL SWAP4 POP POP POP POP ISZERO DUP1 ISZERO PUSH2 0x364D JUMPI RETURNDATASIZE PUSH1 0x0 DUP1 RETURNDATACOPY RETURNDATASIZE PUSH1 0x0 REVERT JUMPDEST POP POP POP JUMP JUMPDEST PUSH1 0x0 PUSH1 0xB SLOAD EQ DUP1 ISZERO PUSH2 0x3666 JUMPI POP PUSH1 0x0 PUSH1 0xC SLOAD EQ JUMPDEST DUP1 ISZERO PUSH2 0x3674 JUMPI POP PUSH1 0x0 PUSH1 0xD SLOAD EQ JUMPDEST PUSH2 0x36AC JUMPI PUSH1 0xC SLOAD PUSH1 0xF DUP2 SWAP1 SSTORE POP PUSH1 0xD SLOAD PUSH1 0x10 DUP2 SWAP1 SSTORE POP PUSH1 0xB SLOAD PUSH1 0xE DUP2 SWAP1 SSTORE POP PUSH1 0x0 PUSH1 0xC DUP2 SWAP1 SSTORE POP PUSH1 0x0 PUSH1 0xD DUP2 SWAP1 SSTORE POP PUSH1 0x0 PUSH1 0xB DUP2 SWAP1 SSTORE POP JUMPDEST JUMP JUMPDEST PUSH1 0x0 DUP1 PUSH2 0x36BA DUP4 PUSH2 0x3906 JUMP JUMPDEST SWAP2 POP SWAP2 POP PUSH2 0x3710 DUP4 PUSH1 0x1 PUSH1 0x0 DUP9 PUSH20 0xFFFFFFFFFFFFFFFFFFFFFFFFFFFFFFFFFFFFFFFF AND PUSH20 0xFFFFFFFFFFFFFFFFFFFFFFFFFFFFFFFFFFFFFFFF AND DUP2 MSTORE PUSH1 0x20 ADD SWAP1 DUP2 MSTORE PUSH1 0x20 ADD PUSH1 0x0 KECCAK256 SLOAD PUSH2 0x394B SWAP1 SWAP2 SWAP1 PUSH4 0xFFFFFFFF AND JUMP JUMPDEST PUSH1 0x1 PUSH1 0x0 DUP8 PUSH20 0xFFFFFFFFFFFFFFFFFFFFFFFFFFFFFFFFFFFFFFFF AND PUSH20 0xFFFFFFFFFFFFFFFFFFFFFFFFFFFFFFFFFFFFFFFF AND DUP2 MSTORE PUSH1 0x20 ADD SWAP1 DUP2 MSTORE PUSH1 0x20 ADD PUSH1 0x0 KECCAK256 DUP2 SWAP1 SSTORE POP PUSH2 0x37A5 DUP3 PUSH1 0x1 PUSH1 0x0 DUP8 PUSH20 0xFFFFFFFFFFFFFFFFFFFFFFFFFFFFFFFFFFFFFFFF AND PUSH20 0xFFFFFFFFFFFFFFFFFFFFFFFFFFFFFFFFFFFFFFFF AND DUP2 MSTORE PUSH1 0x20 ADD SWAP1 DUP2 MSTORE PUSH1 0x20 ADD PUSH1 0x0 KECCAK256 SLOAD PUSH2 0x32D0 SWAP1 SWAP2 SWAP1 PUSH4 0xFFFFFFFF AND JUMP JUMPDEST PUSH1 0x1 PUSH1 0x0 DUP7 PUSH20 0xFFFFFFFFFFFFFFFFFFFFFFFFFFFFFFFFFFFFFFFF AND PUSH20 0xFFFFFFFFFFFFFFFFFFFFFFFFFFFFFFFFFFFFFFFF AND DUP2 MSTORE PUSH1 0x20 ADD SWAP1 DUP2 MSTORE PUSH1 0x20 ADD PUSH1 0x0 KECCAK256 DUP2 SWAP1 SSTORE POP PUSH2 0x383A DUP2 PUSH1 0x1 PUSH1 0x0 ADDRESS PUSH20 0xFFFFFFFFFFFFFFFFFFFFFFFFFFFFFFFFFFFFFFFF AND PUSH20 0xFFFFFFFFFFFFFFFFFFFFFFFFFFFFFFFFFFFFFFFF AND DUP2 MSTORE PUSH1 0x20 ADD SWAP1 DUP2 MSTORE PUSH1 0x20 ADD PUSH1 0x0 KECCAK256 SLOAD PUSH2 0x32D0 SWAP1 SWAP2 SWAP1 PUSH4 0xFFFFFFFF AND JUMP JUMPDEST PUSH1 0x1 PUSH1 0x0 ADDRESS PUSH20 0xFFFFFFFFFFFFFFFFFFFFFFFFFFFFFFFFFFFFFFFF AND PUSH20 0xFFFFFFFFFFFFFFFFFFFFFFFFFFFFFFFFFFFFFFFF AND DUP2 MSTORE PUSH1 0x20 ADD SWAP1 DUP2 MSTORE PUSH1 0x20 ADD PUSH1 0x0 KECCAK256 DUP2 SWAP1 SSTORE POP DUP4 PUSH20 0xFFFFFFFFFFFFFFFFFFFFFFFFFFFFFFFFFFFFFFFF AND DUP6 PUSH20 0xFFFFFFFFFFFFFFFFFFFFFFFFFFFFFFFFFFFFFFFF AND PUSH32 0xDDF252AD1BE2C89B69C2B068FC378DAA952BA7F163C4A11628F55A4DF523B3EF DUP5 PUSH1 0x40 MLOAD PUSH2 0x38DA SWAP2 SWAP1 PUSH2 0x3C0A JUMP JUMPDEST PUSH1 0x40 MLOAD DUP1 SWAP2 SUB SWAP1 LOG3 POP POP POP POP POP JUMP JUMPDEST PUSH1 0xE SLOAD PUSH1 0xB DUP2 SWAP1 SSTORE POP PUSH1 0xF SLOAD PUSH1 0xC DUP2 SWAP1 SSTORE POP PUSH1 0x10 SLOAD PUSH1 0xD DUP2 SWAP1 SSTORE POP JUMP JUMPDEST PUSH1 0x0 DUP1 PUSH1 0x0 PUSH1 0x64 PUSH1 0xB SLOAD DUP6 PUSH2 0x391B SWAP2 SWAP1 PUSH2 0x409A JUMP JUMPDEST PUSH2 0x3925 SWAP2 SWAP1 PUSH2 0x410B JUMP JUMPDEST SWAP1 POP PUSH1 0x0 PUSH2 0x393C DUP3 DUP7 PUSH2 0x394B SWAP1 SWAP2 SWAP1 PUSH4 0xFFFFFFFF AND JUMP JUMPDEST SWAP1 POP DUP1 DUP3 SWAP4 POP SWAP4 POP POP POP SWAP2 POP SWAP2 JUMP JUMPDEST PUSH1 0x0 DUP2 DUP4 PUSH2 0x3959 SWAP2 SWAP1 PUSH2 0x416B JUMP JUMPDEST SWAP1 POP SWAP3 SWAP2 POP POP JUMP JUMPDEST PUSH1 0x0 DUP2 MLOAD SWAP1 POP SWAP2 SWAP1 POP JUMP JUMPDEST PUSH1 0x0 DUP3 DUP3 MSTORE PUSH1 0x20 DUP3 ADD SWAP1 POP SWAP3 SWAP2 POP POP JUMP JUMPDEST PUSH1 0x0 JUMPDEST DUP4 DUP2 LT ISZERO PUSH2 0x399B JUMPI DUP1 DUP3 ADD MLOAD DUP2 DUP5 ADD MSTORE PUSH1 0x20 DUP2 ADD SWAP1 POP PUSH2 0x3980 JUMP JUMPDEST PUSH1 0x0 DUP5 DUP5 ADD MSTORE POP POP POP POP JUMP JUMPDEST PUSH1 0x0 PUSH1 0x1F NOT PUSH1 0x1F DUP4 ADD AND SWAP1 POP SWAP2 SWAP1 POP JUMP JUMPDEST PUSH1 0x0 PUSH2 0x39C3 DUP3 PUSH2 0x3961 JUMP JUMPDEST PUSH2 0x39CD DUP2 DUP6 PUSH2 0x396C JUMP JUMPDEST SWAP4 POP PUSH2 0x39DD DUP2 DUP6 PUSH1 0x20 DUP7 ADD PUSH2 0x397D JUMP JUMPDEST PUSH2 0x39E6 DUP2 PUSH2 0x39A7 JUMP JUMPDEST DUP5 ADD SWAP2 POP POP SWAP3 SWAP2 POP POP JUMP JUMPDEST PUSH1 0x0 PUSH1 0x20 DUP3 ADD SWAP1 POP DUP2 DUP2 SUB PUSH1 0x0 DUP4 ADD MSTORE PUSH2 0x3A0B DUP2 DUP5 PUSH2 0x39B8 JUMP JUMPDEST SWAP1 POP SWAP3 SWAP2 POP POP JUMP JUMPDEST PUSH1 0x0 DUP1 REVERT JUMPDEST PUSH1 0x0 DUP1 REVERT JUMPDEST PUSH1 0x0 PUSH20 0xFFFFFFFFFFFFFFFFFFFFFFFFFFFFFFFFFFFFFFFF DUP3 AND SWAP1 POP SWAP2 SWAP1 POP JUMP JUMPDEST PUSH1 0x0 PUSH2 0x3A48 DUP3 PUSH2 0x3A1D JUMP JUMPDEST SWAP1 POP SWAP2 SWAP1 POP JUMP JUMPDEST PUSH2 0x3A58 DUP2 PUSH2 0x3A3D JUMP JUMPDEST DUP2 EQ PUSH2 0x3A63 JUMPI PUSH1 0x0 DUP1 REVERT JUMPDEST POP JUMP JUMPDEST PUSH1 0x0 DUP2 CALLDATALOAD SWAP1 POP PUSH2 0x3A75 DUP2 PUSH2 0x3A4F JUMP JUMPDEST SWAP3 SWAP2 POP POP JUMP JUMPDEST PUSH1 0x0 DUP2 SWAP1 POP SWAP2 SWAP1 POP JUMP JUMPDEST PUSH2 0x3A8E DUP2 PUSH2 0x3A7B JUMP JUMPDEST DUP2 EQ PUSH2 0x3A99 JUMPI PUSH1 0x0 DUP1 REVERT JUMPDEST POP JUMP JUMPDEST PUSH1 0x0 DUP2 CALLDATALOAD SWAP1 POP PUSH2 0x3AAB DUP2 PUSH2 0x3A85 JUMP JUMPDEST SWAP3 SWAP2 POP POP JUMP JUMPDEST PUSH1 0x0 DUP1 PUSH1 0x40 DUP4 DUP6 SUB SLT ISZERO PUSH2 0x3AC8 JUMPI PUSH2 0x3AC7 PUSH2 0x3A13 JUMP JUMPDEST JUMPDEST PUSH1 0x0 PUSH2 0x3AD6 DUP6 DUP3 DUP7 ADD PUSH2 0x3A66 JUMP JUMPDEST SWAP3 POP POP PUSH1 0x20 PUSH2 0x3AE7 DUP6 DUP3 DUP7 ADD PUSH2 0x3A9C JUMP JUMPDEST SWAP2 POP POP SWAP3 POP SWAP3 SWAP1 POP JUMP JUMPDEST PUSH1 0x0 DUP2 ISZERO ISZERO SWAP1 POP SWAP2 SWAP1 POP JUMP JUMPDEST PUSH2 0x3B06 DUP2 PUSH2 0x3AF1 JUMP JUMPDEST DUP3 MSTORE POP POP JUMP JUMPDEST PUSH1 0x0 PUSH1 0x20 DUP3 ADD SWAP1 POP PUSH2 0x3B21 PUSH1 0x0 DUP4 ADD DUP5 PUSH2 0x3AFD JUMP JUMPDEST SWAP3 SWAP2 POP POP JUMP JUMPDEST PUSH1 0x0 PUSH1 0x20 DUP3 DUP5 SUB SLT ISZERO PUSH2 0x3B3D JUMPI PUSH2 0x3B3C PUSH2 0x3A13 JUMP JUMPDEST JUMPDEST PUSH1 0x0 PUSH2 0x3B4B DUP5 DUP3 DUP6 ADD PUSH2 0x3A66 JUMP JUMPDEST SWAP2 POP POP SWAP3 SWAP2 POP POP JUMP JUMPDEST PUSH1 0x0 PUSH1 0x20 DUP3 DUP5 SUB SLT ISZERO PUSH2 0x3B6A JUMPI PUSH2 0x3B69 PUSH2 0x3A13 JUMP JUMPDEST JUMPDEST PUSH1 0x0 PUSH2 0x3B78 DUP5 DUP3 DUP6 ADD PUSH2 0x3A9C JUMP JUMPDEST SWAP2 POP POP SWAP3 SWAP2 POP POP JUMP JUMPDEST PUSH1 0x0 DUP2 SWAP1 POP SWAP2 SWAP1 POP JUMP JUMPDEST PUSH1 0x0 PUSH2 0x3BA6 PUSH2 0x3BA1 PUSH2 0x3B9C DUP5 PUSH2 0x3A1D JUMP JUMPDEST PUSH2 0x3B81 JUMP JUMPDEST PUSH2 0x3A1D JUMP JUMPDEST SWAP1 POP SWAP2 SWAP1 POP JUMP JUMPDEST PUSH1 0x0 PUSH2 0x3BB8 DUP3 PUSH2 0x3B8B JUMP JUMPDEST SWAP1 POP SWAP2 SWAP1 POP JUMP JUMPDEST PUSH1 0x0 PUSH2 0x3BCA DUP3 PUSH2 0x3BAD JUMP JUMPDEST SWAP1 POP SWAP2 SWAP1 POP JUMP JUMPDEST PUSH2 0x3BDA DUP2 PUSH2 0x3BBF JUMP JUMPDEST DUP3 MSTORE POP POP JUMP JUMPDEST PUSH1 0x0 PUSH1 0x20 DUP3 ADD SWAP1 POP PUSH2 0x3BF5 PUSH1 0x0 DUP4 ADD DUP5 PUSH2 0x3BD1 JUMP JUMPDEST SWAP3 SWAP2 POP POP JUMP JUMPDEST PUSH2 0x3C04 DUP2 PUSH2 0x3A7B JUMP JUMPDEST DUP3 MSTORE POP POP JUMP JUMPDEST PUSH1 0x0 PUSH1 0x20 DUP3 ADD SWAP1 POP PUSH2 0x3C1F PUSH1 0x0 DUP4 ADD DUP5 PUSH2 0x3BFB JUMP JUMPDEST SWAP3 SWAP2 POP POP JUMP JUMPDEST PUSH1 0x0 DUP1 REVERT JUMPDEST PUSH1 0x0 DUP1 REVERT JUMPDEST PUSH1 0x0 DUP1 REVERT JUMPDEST PUSH1 0x0 DUP1 DUP4 PUSH1 0x1F DUP5 ADD SLT PUSH2 0x3C4A JUMPI PUSH2 0x3C49 PUSH2 0x3C25 JUMP JUMPDEST JUMPDEST DUP3 CALLDATALOAD SWAP1 POP PUSH8 0xFFFFFFFFFFFFFFFF DUP2 GT ISZERO PUSH2 0x3C67 JUMPI PUSH2 0x3C66 PUSH2 0x3C2A JUMP JUMPDEST JUMPDEST PUSH1 0x20 DUP4 ADD SWAP2 POP DUP4 PUSH1 0x20 DUP3 MUL DUP4 ADD GT ISZERO PUSH2 0x3C83 JUMPI PUSH2 0x3C82 PUSH2 0x3C2F JUMP JUMPDEST JUMPDEST SWAP3 POP SWAP3 SWAP1 POP JUMP JUMPDEST PUSH1 0x0 DUP1 PUSH1 0x20 DUP4 DUP6 SUB SLT ISZERO PUSH2 0x3CA1 JUMPI PUSH2 0x3CA0 PUSH2 0x3A13 JUMP JUMPDEST JUMPDEST PUSH1 0x0 DUP4 ADD CALLDATALOAD PUSH8 0xFFFFFFFFFFFFFFFF DUP2 GT ISZERO PUSH2 0x3CBF JUMPI PUSH2 0x3CBE PUSH2 0x3A18 JUMP JUMPDEST JUMPDEST PUSH2 0x3CCB DUP6 DUP3 DUP7 ADD PUSH2 0x3C34 JUMP JUMPDEST SWAP3 POP SWAP3 POP POP SWAP3 POP SWAP3 SWAP1 POP JUMP JUMPDEST PUSH1 0x0 DUP1 PUSH1 0x0 PUSH1 0x60 DUP5 DUP7 SUB SLT ISZERO PUSH2 0x3CF0 JUMPI PUSH2 0x3CEF PUSH2 0x3A13 JUMP JUMPDEST JUMPDEST PUSH1 0x0 PUSH2 0x3CFE DUP7 DUP3 DUP8 ADD PUSH2 0x3A66 JUMP JUMPDEST SWAP4 POP POP PUSH1 0x20 PUSH2 0x3D0F DUP7 DUP3 DUP8 ADD PUSH2 0x3A66 JUMP JUMPDEST SWAP3 POP POP PUSH1 0x40 PUSH2 0x3D20 DUP7 DUP3 DUP8 ADD PUSH2 0x3A9C JUMP JUMPDEST SWAP2 POP POP SWAP3 POP SWAP3 POP SWAP3 JUMP JUMPDEST PUSH1 0x0 PUSH1 0xFF DUP3 AND SWAP1 POP SWAP2 SWAP1 POP JUMP JUMPDEST PUSH2 0x3D40 DUP2 PUSH2 0x3D2A JUMP JUMPDEST DUP3 MSTORE POP POP JUMP JUMPDEST PUSH1 0x0 PUSH1 0x20 DUP3 ADD SWAP1 POP PUSH2 0x3D5B PUSH1 0x0 DUP4 ADD DUP5 PUSH2 0x3D37 JUMP JUMPDEST SWAP3 SWAP2 POP POP JUMP JUMPDEST PUSH2 0x3D6A DUP2 PUSH2 0x3A3D JUMP JUMPDEST DUP3 MSTORE POP POP JUMP JUMPDEST PUSH1 0x0 PUSH1 0x20 DUP3 ADD SWAP1 POP PUSH2 0x3D85 PUSH1 0x0 DUP4 ADD DUP5 PUSH2 0x3D61 JUMP JUMPDEST SWAP3 SWAP2 POP POP JUMP JUMPDEST PUSH1 0x0 DUP1 PUSH1 0x40 DUP4 DUP6 SUB SLT ISZERO PUSH2 0x3DA2 JUMPI PUSH2 0x3DA1 PUSH2 0x3A13 JUMP JUMPDEST JUMPDEST PUSH1 0x0 PUSH2 0x3DB0 DUP6 DUP3 DUP7 ADD PUSH2 0x3A9C JUMP JUMPDEST SWAP3 POP POP PUSH1 0x20 PUSH2 0x3DC1 DUP6 DUP3 DUP7 ADD PUSH2 0x3A9C JUMP JUMPDEST SWAP2 POP POP SWAP3 POP SWAP3 SWAP1 POP JUMP JUMPDEST PUSH2 0x3DD4 DUP2 PUSH2 0x3D2A JUMP JUMPDEST DUP2 EQ PUSH2 0x3DDF JUMPI PUSH1 0x0 DUP1 REVERT JUMPDEST POP JUMP JUMPDEST PUSH1 0x0 DUP2 CALLDATALOAD SWAP1 POP PUSH2 0x3DF1 DUP2 PUSH2 0x3DCB JUMP JUMPDEST SWAP3 SWAP2 POP POP JUMP JUMPDEST PUSH1 0x0 PUSH1 0x20 DUP3 DUP5 SUB SLT ISZERO PUSH2 0x3E0D JUMPI PUSH2 0x3E0C PUSH2 0x3A13 JUMP JUMPDEST JUMPDEST PUSH1 0x0 PUSH2 0x3E1B DUP5 DUP3 DUP6 ADD PUSH2 0x3DE2 JUMP JUMPDEST SWAP2 POP POP SWAP3 SWAP2 POP POP JUMP JUMPDEST PUSH2 0x3E2D DUP2 PUSH2 0x3AF1 JUMP JUMPDEST DUP2 EQ PUSH2 0x3E38 JUMPI PUSH1 0x0 DUP1 REVERT JUMPDEST POP JUMP JUMPDEST PUSH1 0x0 DUP2 CALLDATALOAD SWAP1 POP PUSH2 0x3E4A DUP2 PUSH2 0x3E24 JUMP JUMPDEST SWAP3 SWAP2 POP POP JUMP JUMPDEST PUSH1 0x0 PUSH1 0x20 DUP3 DUP5 SUB SLT ISZERO PUSH2 0x3E66 JUMPI PUSH2 0x3E65 PUSH2 0x3A13 JUMP JUMPDEST JUMPDEST PUSH1 0x0 PUSH2 0x3E74 DUP5 DUP3 DUP6 ADD PUSH2 0x3E3B JUMP JUMPDEST SWAP2 POP POP SWAP3 SWAP2 POP POP JUMP JUMPDEST PUSH1 0x0 DUP1 PUSH1 0x40 DUP4 DUP6 SUB SLT ISZERO PUSH2 0x3E94 JUMPI PUSH2 0x3E93 PUSH2 0x3A13 JUMP JUMPDEST JUMPDEST PUSH1 0x0 PUSH2 0x3EA2 DUP6 DUP3 DUP7 ADD PUSH2 0x3A66 JUMP JUMPDEST SWAP3 POP POP PUSH1 0x20 PUSH2 0x3EB3 DUP6 DUP3 DUP7 ADD PUSH2 0x3A66 JUMP JUMPDEST SWAP2 POP POP SWAP3 POP SWAP3 SWAP1 POP JUMP JUMPDEST PUSH1 0x0 PUSH2 0x3EC8 DUP3 PUSH2 0x3A1D JUMP JUMPDEST SWAP1 POP SWAP2 SWAP1 POP JUMP JUMPDEST PUSH2 0x3ED8 DUP2 PUSH2 0x3EBD JUMP JUMPDEST DUP2 EQ PUSH2 0x3EE3 JUMPI PUSH1 0x0 DUP1 REVERT JUMPDEST POP JUMP JUMPDEST PUSH1 0x0 DUP2 CALLDATALOAD SWAP1 POP PUSH2 0x3EF5 DUP2 PUSH2 0x3ECF JUMP JUMPDEST SWAP3 SWAP2 POP POP JUMP JUMPDEST PUSH1 0x0 PUSH1 0x20 DUP3 DUP5 SUB SLT ISZERO PUSH2 0x3F11 JUMPI PUSH2 0x3F10 PUSH2 0x3A13 JUMP JUMPDEST JUMPDEST PUSH1 0x0 PUSH2 0x3F1F DUP5 DUP3 DUP6 ADD PUSH2 0x3EE6 JUMP JUMPDEST SWAP2 POP POP SWAP3 SWAP2 POP POP JUMP JUMPDEST PUSH32 0x4F776E61626C653A2063616C6C6572206973206E6F7420746865206F776E6572 PUSH1 0x0 DUP3 ADD MSTORE POP JUMP JUMPDEST PUSH1 0x0 PUSH2 0x3F5E PUSH1 0x20 DUP4 PUSH2 0x396C JUMP JUMPDEST SWAP2 POP PUSH2 0x3F69 DUP3 PUSH2 0x3F28 JUMP JUMPDEST PUSH1 0x20 DUP3 ADD SWAP1 POP SWAP2 SWAP1 POP JUMP JUMPDEST PUSH1 0x0 PUSH1 0x20 DUP3 ADD SWAP1 POP DUP2 DUP2 SUB PUSH1 0x0 DUP4 ADD MSTORE PUSH2 0x3F8D DUP2 PUSH2 0x3F51 JUMP JUMPDEST SWAP1 POP SWAP2 SWAP1 POP JUMP JUMPDEST PUSH32 0x4552523A207A65726F2061646472657373000000000000000000000000000000 PUSH1 0x0 DUP3 ADD MSTORE POP JUMP JUMPDEST PUSH1 0x0 PUSH2 0x3FCA PUSH1 0x11 DUP4 PUSH2 0x396C JUMP JUMPDEST SWAP2 POP PUSH2 0x3FD5 DUP3 PUSH2 0x3F94 JUMP JUMPDEST PUSH1 0x20 DUP3 ADD SWAP1 POP SWAP2 SWAP1 POP JUMP JUMPDEST PUSH1 0x0 PUSH1 0x20 DUP3 ADD SWAP1 POP DUP2 DUP2 SUB PUSH1 0x0 DUP4 ADD MSTORE PUSH2 0x3FF9 DUP2 PUSH2 0x3FBD JUMP JUMPDEST SWAP1 POP SWAP2 SWAP1 POP JUMP JUMPDEST PUSH1 0x0 DUP2 MLOAD SWAP1 POP PUSH2 0x400F DUP2 PUSH2 0x3A4F JUMP JUMPDEST SWAP3 SWAP2 POP POP JUMP JUMPDEST PUSH1 0x0 PUSH1 0x20 DUP3 DUP5 SUB SLT ISZERO PUSH2 0x402B JUMPI PUSH2 0x402A PUSH2 0x3A13 JUMP JUMPDEST JUMPDEST PUSH1 0x0 PUSH2 0x4039 DUP5 DUP3 DUP6 ADD PUSH2 0x4000 JUMP JUMPDEST SWAP2 POP POP SWAP3 SWAP2 POP POP JUMP JUMPDEST PUSH1 0x0 PUSH1 0x40 DUP3 ADD SWAP1 POP PUSH2 0x4057 PUSH1 0x0 DUP4 ADD DUP6 PUSH2 0x3D61 JUMP JUMPDEST PUSH2 0x4064 PUSH1 0x20 DUP4 ADD DUP5 PUSH2 0x3D61 JUMP JUMPDEST SWAP4 SWAP3 POP POP POP JUMP JUMPDEST PUSH32 0x4E487B7100000000000000000000000000000000000000000000000000000000 PUSH1 0x0 MSTORE PUSH1 0x11 PUSH1 0x4 MSTORE PUSH1 0x24 PUSH1 0x0 REVERT JUMPDEST PUSH1 0x0 PUSH2 0x40A5 DUP3 PUSH2 0x3A7B JUMP JUMPDEST SWAP2 POP PUSH2 0x40B0 DUP4 PUSH2 0x3A7B JUMP JUMPDEST SWAP3 POP DUP3 DUP3 MUL PUSH2 0x40BE DUP2 PUSH2 0x3A7B JUMP JUMPDEST SWAP2 POP DUP3 DUP3 DIV DUP5 EQ DUP4 ISZERO OR PUSH2 0x40D5 JUMPI PUSH2 0x40D4 PUSH2 0x406B JUMP JUMPDEST JUMPDEST POP SWAP3 SWAP2 POP POP JUMP JUMPDEST PUSH32 0x4E487B7100000000000000000000000000000000000000000000000000000000 PUSH1 0x0 MSTORE PUSH1 0x12 PUSH1 0x4 MSTORE PUSH1 0x24 PUSH1 0x0 REVERT JUMPDEST PUSH1 0x0 PUSH2 0x4116 DUP3 PUSH2 0x3A7B JUMP JUMPDEST SWAP2 POP PUSH2 0x4121 DUP4 PUSH2 0x3A7B JUMP JUMPDEST SWAP3 POP DUP3 PUSH2 0x4131 JUMPI PUSH2 0x4130 PUSH2 0x40DC JUMP JUMPDEST JUMPDEST DUP3 DUP3 DIV SWAP1 POP SWAP3 SWAP2 POP POP JUMP JUMPDEST PUSH32 0x4E487B7100000000000000000000000000000000000000000000000000000000 PUSH1 0x0 MSTORE PUSH1 0x32 PUSH1 0x4 MSTORE PUSH1 0x24 PUSH1 0x0 REVERT JUMPDEST PUSH1 0x0 PUSH2 0x4176 DUP3 PUSH2 0x3A7B JUMP JUMPDEST SWAP2 POP PUSH2 0x4181 DUP4 PUSH2 0x3A7B JUMP JUMPDEST SWAP3 POP DUP3 DUP3 SUB SWAP1 POP DUP2 DUP2 GT ISZERO PUSH2 0x4199 JUMPI PUSH2 0x4198 PUSH2 0x406B JUMP JUMPDEST JUMPDEST SWAP3 SWAP2 POP POP JUMP JUMPDEST PUSH1 0x0 PUSH2 0x41AA DUP3 PUSH2 0x3A7B JUMP JUMPDEST SWAP2 POP PUSH32 0xFFFFFFFFFFFFFFFFFFFFFFFFFFFFFFFFFFFFFFFFFFFFFFFFFFFFFFFFFFFFFFFF DUP3 SUB PUSH2 0x41DC JUMPI PUSH2 0x41DB PUSH2 0x406B JUMP JUMPDEST JUMPDEST PUSH1 0x1 DUP3 ADD SWAP1 POP SWAP2 SWAP1 POP JUMP JUMPDEST PUSH32 0x43616E206E6F742072656D6F7665206E617469766520746F6B656E0000000000 PUSH1 0x0 DUP3 ADD MSTORE POP JUMP JUMPDEST PUSH1 0x0 PUSH2 0x421D PUSH1 0x1B DUP4 PUSH2 0x396C JUMP JUMPDEST SWAP2 POP PUSH2 0x4228 DUP3 PUSH2 0x41E7 JUMP JUMPDEST PUSH1 0x20 DUP3 ADD SWAP1 POP SWAP2 SWAP1 POP JUMP JUMPDEST PUSH1 0x0 PUSH1 0x20 DUP3 ADD SWAP1 POP DUP2 DUP2 SUB PUSH1 0x0 DUP4 ADD MSTORE PUSH2 0x424C DUP2 PUSH2 0x4210 JUMP JUMPDEST SWAP1 POP SWAP2 SWAP1 POP JUMP JUMPDEST PUSH1 0x0 DUP2 MLOAD SWAP1 POP PUSH2 0x4262 DUP2 PUSH2 0x3A85 JUMP JUMPDEST SWAP3 SWAP2 POP POP JUMP JUMPDEST PUSH1 0x0 PUSH1 0x20 DUP3 DUP5 SUB SLT ISZERO PUSH2 0x427E JUMPI PUSH2 0x427D PUSH2 0x3A13 JUMP JUMPDEST JUMPDEST PUSH1 0x0 PUSH2 0x428C DUP5 DUP3 DUP6 ADD PUSH2 0x4253 JUMP JUMPDEST SWAP2 POP POP SWAP3 SWAP2 POP POP JUMP JUMPDEST PUSH1 0x0 PUSH1 0x40 DUP3 ADD SWAP1 POP PUSH2 0x42AA PUSH1 0x0 DUP4 ADD DUP6 PUSH2 0x3D61 JUMP JUMPDEST PUSH2 0x42B7 PUSH1 0x20 DUP4 ADD DUP5 PUSH2 0x3BFB JUMP JUMPDEST SWAP4 SWAP3 POP POP POP JUMP JUMPDEST PUSH1 0x0 DUP2 MLOAD SWAP1 POP PUSH2 0x42CD DUP2 PUSH2 0x3E24 JUMP JUMPDEST SWAP3 SWAP2 POP POP JUMP JUMPDEST PUSH1 0x0 PUSH1 0x20 DUP3 DUP5 SUB SLT ISZERO PUSH2 0x42E9 JUMPI PUSH2 0x42E8 PUSH2 0x3A13 JUMP JUMPDEST JUMPDEST PUSH1 0x0 PUSH2 0x42F7 DUP5 DUP3 DUP6 ADD PUSH2 0x42BE JUMP JUMPDEST SWAP2 POP POP SWAP3 SWAP2 POP POP JUMP JUMPDEST PUSH1 0x0 PUSH2 0x430B DUP3 PUSH2 0x3A7B JUMP JUMPDEST SWAP2 POP PUSH2 0x4316 DUP4 PUSH2 0x3A7B JUMP JUMPDEST SWAP3 POP DUP3 DUP3 ADD SWAP1 POP DUP1 DUP3 GT ISZERO PUSH2 0x432E JUMPI PUSH2 0x432D PUSH2 0x406B JUMP JUMPDEST JUMPDEST SWAP3 SWAP2 POP POP JUMP JUMPDEST PUSH32 0x46656520697320746F6F20686967682100000000000000000000000000000000 PUSH1 0x0 DUP3 ADD MSTORE POP JUMP JUMPDEST PUSH1 0x0 PUSH2 0x436A PUSH1 0x10 DUP4 PUSH2 0x396C JUMP JUMPDEST SWAP2 POP PUSH2 0x4375 DUP3 PUSH2 0x4334 JUMP JUMPDEST PUSH1 0x20 DUP3 ADD SWAP1 POP SWAP2 SWAP1 POP JUMP JUMPDEST PUSH1 0x0 PUSH1 0x20 DUP3 ADD SWAP1 POP DUP2 DUP2 SUB PUSH1 0x0 DUP4 ADD MSTORE PUSH2 0x4399 DUP2 PUSH2 0x435D JUMP JUMPDEST SWAP1 POP SWAP2 SWAP1 POP JUMP JUMPDEST PUSH32 0x43757272656E746C792070726F63657373696E672C20747279206C617465722E PUSH1 0x0 DUP3 ADD MSTORE POP JUMP JUMPDEST PUSH1 0x0 PUSH2 0x43D6 PUSH1 0x20 DUP4 PUSH2 0x396C JUMP JUMPDEST SWAP2 POP PUSH2 0x43E1 DUP3 PUSH2 0x43A0 JUMP JUMPDEST PUSH1 0x20 DUP3 ADD SWAP1 POP SWAP2 SWAP1 POP JUMP JUMPDEST PUSH1 0x0 PUSH1 0x20 DUP3 ADD SWAP1 POP DUP2 DUP2 SUB PUSH1 0x0 DUP4 ADD MSTORE PUSH2 0x4405 DUP2 PUSH2 0x43C9 JUMP JUMPDEST SWAP1 POP SWAP2 SWAP1 POP JUMP JUMPDEST PUSH32 0x4F776E61626C653A206E6577206F776E657220697320746865207A65726F2061 PUSH1 0x0 DUP3 ADD MSTORE PUSH32 0x6464726573730000000000000000000000000000000000000000000000000000 PUSH1 0x20 DUP3 ADD MSTORE POP JUMP JUMPDEST PUSH1 0x0 PUSH2 0x4468 PUSH1 0x26 DUP4 PUSH2 0x396C JUMP JUMPDEST SWAP2 POP PUSH2 0x4473 DUP3 PUSH2 0x440C JUMP JUMPDEST PUSH1 0x40 DUP3 ADD SWAP1 POP SWAP2 SWAP1 POP JUMP JUMPDEST PUSH1 0x0 PUSH1 0x20 DUP3 ADD SWAP1 POP DUP2 DUP2 SUB PUSH1 0x0 DUP4 ADD MSTORE PUSH2 0x4497 DUP2 PUSH2 0x445B JUMP JUMPDEST SWAP1 POP SWAP2 SWAP1 POP JUMP JUMPDEST PUSH32 0x596F752061726520747279696E6720746F2062757920746F6F206D616E792074 PUSH1 0x0 DUP3 ADD MSTORE PUSH32 0x6F6B656E732E20596F752068617665207265616368656420746865206C696D69 PUSH1 0x20 DUP3 ADD MSTORE PUSH32 0x7420666F72206F6E652077616C6C65742E000000000000000000000000000000 PUSH1 0x40 DUP3 ADD MSTORE POP JUMP JUMPDEST PUSH1 0x0 PUSH2 0x4520 PUSH1 0x51 DUP4 PUSH2 0x396C JUMP JUMPDEST SWAP2 POP PUSH2 0x452B DUP3 PUSH2 0x449E JUMP JUMPDEST PUSH1 0x60 DUP3 ADD SWAP1 POP SWAP2 SWAP1 POP JUMP JUMPDEST PUSH1 0x0 PUSH1 0x20 DUP3 ADD SWAP1 POP DUP2 DUP2 SUB PUSH1 0x0 DUP4 ADD MSTORE PUSH2 0x454F DUP2 PUSH2 0x4513 JUMP JUMPDEST SWAP1 POP SWAP2 SWAP1 POP JUMP JUMPDEST PUSH32 0x596F752061726520747279696E6720746F20627579206D6F7265207468616E20 PUSH1 0x0 DUP3 ADD MSTORE PUSH32 0x746865206D6178207472616E73616374696F6E206C696D69742E000000000000 PUSH1 0x20 DUP3 ADD MSTORE POP JUMP JUMPDEST PUSH1 0x0 PUSH2 0x45B2 PUSH1 0x3A DUP4 PUSH2 0x396C JUMP JUMPDEST SWAP2 POP PUSH2 0x45BD DUP3 PUSH2 0x4556 JUMP JUMPDEST PUSH1 0x40 DUP3 ADD SWAP1 POP SWAP2 SWAP1 POP JUMP JUMPDEST PUSH1 0x0 PUSH1 0x20 DUP3 ADD SWAP1 POP DUP2 DUP2 SUB PUSH1 0x0 DUP4 ADD MSTORE PUSH2 0x45E1 DUP2 PUSH2 0x45A5 JUMP JUMPDEST SWAP1 POP SWAP2 SWAP1 POP JUMP JUMPDEST PUSH32 0x54686973206164647265737320697320626C61636B6C69737465642E20547261 PUSH1 0x0 DUP3 ADD MSTORE PUSH32 0x6E73616374696F6E2072657665727465642E0000000000000000000000000000 PUSH1 0x20 DUP3 ADD MSTORE POP JUMP JUMPDEST PUSH1 0x0 PUSH2 0x4644 PUSH1 0x32 DUP4 PUSH2 0x396C JUMP JUMPDEST SWAP2 POP PUSH2 0x464F DUP3 PUSH2 0x45E8 JUMP JUMPDEST PUSH1 0x40 DUP3 ADD SWAP1 POP SWAP2 SWAP1 POP JUMP JUMPDEST PUSH1 0x0 PUSH1 0x20 DUP3 ADD SWAP1 POP DUP2 DUP2 SUB PUSH1 0x0 DUP4 ADD MSTORE PUSH2 0x4673 DUP2 PUSH2 0x4637 JUMP JUMPDEST SWAP1 POP SWAP2 SWAP1 POP JUMP JUMPDEST PUSH32 0x4552523A205573696E6720302061646472657373210000000000000000000000 PUSH1 0x0 DUP3 ADD MSTORE POP JUMP JUMPDEST PUSH1 0x0 PUSH2 0x46B0 PUSH1 0x15 DUP4 PUSH2 0x396C JUMP JUMPDEST SWAP2 POP PUSH2 0x46BB DUP3 PUSH2 0x467A JUMP JUMPDEST PUSH1 0x20 DUP3 ADD SWAP1 POP SWAP2 SWAP1 POP JUMP JUMPDEST PUSH1 0x0 PUSH1 0x20 DUP3 ADD SWAP1 POP DUP2 DUP2 SUB PUSH1 0x0 DUP4 ADD MSTORE PUSH2 0x46DF DUP2 PUSH2 0x46A3 JUMP JUMPDEST SWAP1 POP SWAP2 SWAP1 POP JUMP JUMPDEST PUSH32 0x546F6B656E2076616C7565206D75737420626520686967686572207468616E20 PUSH1 0x0 DUP3 ADD MSTORE PUSH32 0x7A65726F2E000000000000000000000000000000000000000000000000000000 PUSH1 0x20 DUP3 ADD MSTORE POP JUMP JUMPDEST PUSH1 0x0 PUSH2 0x4742 PUSH1 0x25 DUP4 PUSH2 0x396C JUMP JUMPDEST SWAP2 POP PUSH2 0x474D DUP3 PUSH2 0x46E6 JUMP JUMPDEST PUSH1 0x40 DUP3 ADD SWAP1 POP SWAP2 SWAP1 POP JUMP JUMPDEST PUSH1 0x0 PUSH1 0x20 DUP3 ADD SWAP1 POP DUP2 DUP2 SUB PUSH1 0x0 DUP4 ADD MSTORE PUSH2 0x4771 DUP2 PUSH2 0x4735 JUMP JUMPDEST SWAP1 POP SWAP2 SWAP1 POP JUMP JUMPDEST PUSH1 0x0 PUSH2 0x4783 DUP3 PUSH2 0x3D2A JUMP JUMPDEST SWAP2 POP PUSH1 0xFF DUP3 SUB PUSH2 0x4796 JUMPI PUSH2 0x4795 PUSH2 0x406B JUMP JUMPDEST JUMPDEST PUSH1 0x1 DUP3 ADD SWAP1 POP SWAP2 SWAP1 POP JUMP JUMPDEST PUSH32 0x4E487B7100000000000000000000000000000000000000000000000000000000 PUSH1 0x0 MSTORE PUSH1 0x41 PUSH1 0x4 MSTORE PUSH1 0x24 PUSH1 0x0 REVERT JUMPDEST PUSH1 0x0 DUP2 SWAP1 POP SWAP2 SWAP1 POP JUMP JUMPDEST PUSH1 0x0 PUSH2 0x47F5 PUSH2 0x47F0 PUSH2 0x47EB DUP5 PUSH2 0x47D0 JUMP JUMPDEST PUSH2 0x3B81 JUMP JUMPDEST PUSH2 0x3A7B JUMP JUMPDEST SWAP1 POP SWAP2 SWAP1 POP JUMP JUMPDEST PUSH2 0x4805 DUP2 PUSH2 0x47DA JUMP JUMPDEST DUP3 MSTORE POP POP JUMP JUMPDEST PUSH1 0x0 DUP2 MLOAD SWAP1 POP SWAP2 SWAP1 POP JUMP JUMPDEST PUSH1 0x0 DUP3 DUP3 MSTORE PUSH1 0x20 DUP3 ADD SWAP1 POP SWAP3 SWAP2 POP POP JUMP JUMPDEST PUSH1 0x0 DUP2 SWAP1 POP PUSH1 0x20 DUP3 ADD SWAP1 POP SWAP2 SWAP1 POP JUMP JUMPDEST PUSH2 0x4840 DUP2 PUSH2 0x3A3D JUMP JUMPDEST DUP3 MSTORE POP POP JUMP JUMPDEST PUSH1 0x0 PUSH2 0x4852 DUP4 DUP4 PUSH2 0x4837 JUMP JUMPDEST PUSH1 0x20 DUP4 ADD SWAP1 POP SWAP3 SWAP2 POP POP JUMP JUMPDEST PUSH1 0x0 PUSH1 0x20 DUP3 ADD SWAP1 POP SWAP2 SWAP1 POP JUMP JUMPDEST PUSH1 0x0 PUSH2 0x4876 DUP3 PUSH2 0x480B JUMP JUMPDEST PUSH2 0x4880 DUP2 DUP6 PUSH2 0x4816 JUMP JUMPDEST SWAP4 POP PUSH2 0x488B DUP4 PUSH2 0x4827 JUMP JUMPDEST DUP1 PUSH1 0x0 JUMPDEST DUP4 DUP2 LT ISZERO PUSH2 0x48BC JUMPI DUP2 MLOAD PUSH2 0x48A3 DUP9 DUP3 PUSH2 0x4846 JUMP JUMPDEST SWAP8 POP PUSH2 0x48AE DUP4 PUSH2 0x485E JUMP JUMPDEST SWAP3 POP POP PUSH1 0x1 DUP2 ADD SWAP1 POP PUSH2 0x488F JUMP JUMPDEST POP DUP6 SWAP4 POP POP POP POP SWAP3 SWAP2 POP POP JUMP JUMPDEST PUSH1 0x0 PUSH1 0xA0 DUP3 ADD SWAP1 POP PUSH2 0x48DE PUSH1 0x0 DUP4 ADD DUP9 PUSH2 0x3BFB JUMP JUMPDEST PUSH2 0x48EB PUSH1 0x20 DUP4 ADD DUP8 PUSH2 0x47FC JUMP JUMPDEST DUP2 DUP2 SUB PUSH1 0x40 DUP4 ADD MSTORE PUSH2 0x48FD DUP2 DUP7 PUSH2 0x486B JUMP JUMPDEST SWAP1 POP PUSH2 0x490C PUSH1 0x60 DUP4 ADD DUP6 PUSH2 0x3D61 JUMP JUMPDEST PUSH2 0x4919 PUSH1 0x80 DUP4 ADD DUP5 PUSH2 0x3BFB JUMP JUMPDEST SWAP7 SWAP6 POP POP POP POP POP POP JUMP INVALID GASLIMIT MSTORE NUMBER ORIGIN ADDRESS GASPRICE KECCAK256 PUSH21 0x72616E7366657220616D6F756E7420657863656564 PUSH20 0x20616C6C6F77616E636545524332303A20646563 PUSH19 0x656173656420616C6C6F77616E63652062656C PUSH16 0x77207A65726FA2646970667358221220 DUP4 0xDD CALLDATASIZE COINBASE 0xBC CREATE SLOAD 0xCB GASPRICE 0xB4 0xEB 0xB6 0xAD DUP16 0xF9 CALLDATASIZE PUSH10 0xCC2676502888427D98E3 BALANCE GASLIMIT 0xE1 0xD9 DELEGATECALL PUSH5 0x736F6C6343 STOP ADDMOD SLT STOP CALLER "
				},
				"gasEstimates": {
					"creation": {
						"codeDepositCost": "3770800",
						"executionCost": "infinite",
						"totalCost": "infinite"
					},
					"external": {
						"Update__Dev_Wallet(address)": "53722",
						"_TotalFee()": "2585",
						"_buyFee()": "2474",
						"_isBlacklisted(address)": "2935",
						"_isExcludedFromFee(address)": "2935",
						"_maxToken()": "2540",
						"_maxTxAmount()": "2563",
						"_sellFee()": "2562",
						"_set_Fees(uint256,uint256)": "infinite",
						"_set_Transfer_Fee(uint256)": "26997",
						"allowance(address,address)": "infinite",
						"approve(address,uint256)": "infinite",
						"balanceOf(address)": "2887",
						"blacklist_Toggle(bool)": "27052",
						"blacklist_Wallets(address[])": "infinite",
						"decimals()": "411",
						"decreaseAllowance(address,uint256)": "infinite",
						"excludeFromFee(address)": "27154",
						"includeInFee(address)": "27175",
						"increaseAllowance(address,uint256)": "infinite",
						"isBlackList()": "2605",
						"isSwapping()": "2610",
						"name()": "infinite",
						"noTransferFee()": "2604",
						"owner()": "2589",
						"process_Tokens(uint256)": "infinite",
						"recover_Tokens(address,address,uint256)": "infinite",
						"renounceOwnership()": "30397",
						"set_Max_TX_Percent(uint256)": "infinite",
						"set_Max_Wal_Percent(uint256)": "infinite",
						"set_New_Pair_Address(address)": "27152",
						"set_New_Router_Address(address)": "27150",
						"set_New_Router_and_Make_Pair(address)": "infinite",
						"set_Number_Of_Transactions_Before_Liquify_Trigger(uint8)": "27081",
						"set_Swap_And_Liquify_Enabled(bool)": "infinite",
						"set_TransferFees(bool)": "26986",
						"swapAndLiqEnabled()": "2566",
						"symbol()": "infinite",
						"totalSupply()": "383",
						"transfer(address,uint256)": "infinite",
						"transferFrom(address,address,uint256)": "infinite",
						"transferOwnership(address)": "30785",
						"unBlacklist_Wallets(address[])": "infinite",
						"uniswapV2Pair()": "2603",
						"uniswapV2Router()": "infinite"
					},
					"internal": {
						"_approve(address,address,uint256)": "infinite",
						"_getValues(uint256)": "infinite",
						"_tokenTransfer(address,address,uint256,bool)": "infinite",
						"_transfer(address,address,uint256)": "infinite",
						"_transferTokens(address,address,uint256)": "infinite",
						"removeFees()": "94078",
						"restoreFees()": "72651",
						"sendToWallet(address payable,uint256)": "infinite",
						"swapTokens(uint256)": "infinite",
						"swapTokensForBNB(uint256)": "infinite"
					}
				},
				"methodIdentifiers": {
					"Update__Dev_Wallet(address)": "f73980f9",
					"_TotalFee()": "2b37b69b",
					"_buyFee()": "40b9a54b",
					"_isBlacklisted(address)": "1cdd3be3",
					"_isExcludedFromFee(address)": "768dc710",
					"_maxToken()": "5238f0e3",
					"_maxTxAmount()": "7d1db4a5",
					"_sellFee()": "590f897e",
					"_set_Fees(uint256,uint256)": "67cbd84c",
					"_set_Transfer_Fee(uint256)": "ba6a6cdb",
					"allowance(address,address)": "dd62ed3e",
					"approve(address,uint256)": "095ea7b3",
					"balanceOf(address)": "70a08231",
					"blacklist_Toggle(bool)": "a2a02c33",
					"blacklist_Wallets(address[])": "1b123b71",
					"decimals()": "313ce567",
					"decreaseAllowance(address,uint256)": "a457c2d7",
					"excludeFromFee(address)": "437823ec",
					"includeInFee(address)": "ea2f0b37",
					"increaseAllowance(address,uint256)": "39509351",
					"isBlackList()": "2a77c076",
					"isSwapping()": "b8863115",
					"name()": "06fdde03",
					"noTransferFee()": "c7039528",
					"owner()": "8da5cb5b",
					"process_Tokens(uint256)": "dcff0237",
					"recover_Tokens(address,address,uint256)": "2f536344",
					"renounceOwnership()": "715018a6",
					"set_Max_TX_Percent(uint256)": "15a2f349",
					"set_Max_Wal_Percent(uint256)": "a01cbf9a",
					"set_New_Pair_Address(address)": "d785d5be",
					"set_New_Router_Address(address)": "36b1a1bc",
					"set_New_Router_and_Make_Pair(address)": "1282a0a0",
					"set_Number_Of_Transactions_Before_Liquify_Trigger(uint8)": "7caefa89",
					"set_Swap_And_Liquify_Enabled(bool)": "f7739b5f",
					"set_TransferFees(bool)": "ae7bd3f2",
					"swapAndLiqEnabled()": "85ae099f",
					"symbol()": "95d89b41",
					"totalSupply()": "18160ddd",
					"transfer(address,uint256)": "a9059cbb",
					"transferFrom(address,address,uint256)": "23b872dd",
					"transferOwnership(address)": "f2fde38b",
					"unBlacklist_Wallets(address[])": "3e66c435",
					"uniswapV2Pair()": "49bd5a5e",
					"uniswapV2Router()": "1694505e"
				}
			},
			"storageLayout": {
				"storage": [
					{
						"astId": 198,
						"contract": "XODEX2.sol:XODEX",
						"label": "_owner",
						"offset": 0,
						"slot": "0",
						"type": "t_address"
					},
					{
						"astId": 983,
						"contract": "XODEX2.sol:XODEX",
						"label": "_totalOwned",
						"offset": 0,
						"slot": "1",
						"type": "t_mapping(t_address,t_uint256)"
					},
					{
						"astId": 989,
						"contract": "XODEX2.sol:XODEX",
						"label": "_allowances",
						"offset": 0,
						"slot": "2",
						"type": "t_mapping(t_address,t_mapping(t_address,t_uint256))"
					},
					{
						"astId": 993,
						"contract": "XODEX2.sol:XODEX",
						"label": "_isExcludedFromFee",
						"offset": 0,
						"slot": "3",
						"type": "t_mapping(t_address,t_bool)"
					},
					{
						"astId": 997,
						"contract": "XODEX2.sol:XODEX",
						"label": "_isBlacklisted",
						"offset": 0,
						"slot": "4",
						"type": "t_mapping(t_address,t_bool)"
					},
					{
						"astId": 1015,
						"contract": "XODEX2.sol:XODEX",
						"label": "isBlackList",
						"offset": 0,
						"slot": "5",
						"type": "t_bool"
					},
					{
						"astId": 1021,
						"contract": "XODEX2.sol:XODEX",
						"label": "Dev_Wallet",
						"offset": 1,
						"slot": "5",
						"type": "t_address_payable"
					},
					{
						"astId": 1030,
						"contract": "XODEX2.sol:XODEX",
						"label": "txCount",
						"offset": 21,
						"slot": "5",
						"type": "t_uint8"
					},
					{
						"astId": 1033,
						"contract": "XODEX2.sol:XODEX",
						"label": "swapTrigger",
						"offset": 22,
						"slot": "5",
						"type": "t_uint8"
					},
					{
						"astId": 1039,
						"contract": "XODEX2.sol:XODEX",
						"label": "maxTransferFee",
						"offset": 0,
						"slot": "6",
						"type": "t_uint256"
					},
					{
						"astId": 1048,
						"contract": "XODEX2.sol:XODEX",
						"label": "_maxToken",
						"offset": 0,
						"slot": "7",
						"type": "t_uint256"
					},
					{
						"astId": 1051,
						"contract": "XODEX2.sol:XODEX",
						"label": "_prevMaxToken",
						"offset": 0,
						"slot": "8",
						"type": "t_uint256"
					},
					{
						"astId": 1060,
						"contract": "XODEX2.sol:XODEX",
						"label": "_maxTxAmount",
						"offset": 0,
						"slot": "9",
						"type": "t_uint256"
					},
					{
						"astId": 1063,
						"contract": "XODEX2.sol:XODEX",
						"label": "_prevMaxTxAmount",
						"offset": 0,
						"slot": "10",
						"type": "t_uint256"
					},
					{
						"astId": 1066,
						"contract": "XODEX2.sol:XODEX",
						"label": "_TotalFee",
						"offset": 0,
						"slot": "11",
						"type": "t_uint256"
					},
					{
						"astId": 1069,
						"contract": "XODEX2.sol:XODEX",
						"label": "_buyFee",
						"offset": 0,
						"slot": "12",
						"type": "t_uint256"
					},
					{
						"astId": 1072,
						"contract": "XODEX2.sol:XODEX",
						"label": "_sellFee",
						"offset": 0,
						"slot": "13",
						"type": "t_uint256"
					},
					{
						"astId": 1075,
						"contract": "XODEX2.sol:XODEX",
						"label": "_prevTotalFee",
						"offset": 0,
						"slot": "14",
						"type": "t_uint256"
					},
					{
						"astId": 1078,
						"contract": "XODEX2.sol:XODEX",
						"label": "_prevBuyFee",
						"offset": 0,
						"slot": "15",
						"type": "t_uint256"
					},
					{
						"astId": 1081,
						"contract": "XODEX2.sol:XODEX",
						"label": "_prevSellFee",
						"offset": 0,
						"slot": "16",
						"type": "t_uint256"
					},
					{
						"astId": 1084,
						"contract": "XODEX2.sol:XODEX",
						"label": "noTransferFee",
						"offset": 0,
						"slot": "17",
						"type": "t_bool"
					},
					{
						"astId": 1087,
						"contract": "XODEX2.sol:XODEX",
						"label": "uniswapV2Router",
						"offset": 1,
						"slot": "17",
						"type": "t_contract(IUniswapV2Router02)967"
					},
					{
						"astId": 1089,
						"contract": "XODEX2.sol:XODEX",
						"label": "uniswapV2Pair",
						"offset": 0,
						"slot": "18",
						"type": "t_address"
					},
					{
						"astId": 1091,
						"contract": "XODEX2.sol:XODEX",
						"label": "isSwapping",
						"offset": 20,
						"slot": "18",
						"type": "t_bool"
					},
					{
						"astId": 1094,
						"contract": "XODEX2.sol:XODEX",
						"label": "swapAndLiqEnabled",
						"offset": 21,
						"slot": "18",
						"type": "t_bool"
					}
				],
				"types": {
					"t_address": {
						"encoding": "inplace",
						"label": "address",
						"numberOfBytes": "20"
					},
					"t_address_payable": {
						"encoding": "inplace",
						"label": "address payable",
						"numberOfBytes": "20"
					},
					"t_bool": {
						"encoding": "inplace",
						"label": "bool",
						"numberOfBytes": "1"
					},
					"t_contract(IUniswapV2Router02)967": {
						"encoding": "inplace",
						"label": "contract IUniswapV2Router02",
						"numberOfBytes": "20"
					},
					"t_mapping(t_address,t_bool)": {
						"encoding": "mapping",
						"key": "t_address",
						"label": "mapping(address => bool)",
						"numberOfBytes": "32",
						"value": "t_bool"
					},
					"t_mapping(t_address,t_mapping(t_address,t_uint256))": {
						"encoding": "mapping",
						"key": "t_address",
						"label": "mapping(address => mapping(address => uint256))",
						"numberOfBytes": "32",
						"value": "t_mapping(t_address,t_uint256)"
					},
					"t_mapping(t_address,t_uint256)": {
						"encoding": "mapping",
						"key": "t_address",
						"label": "mapping(address => uint256)",
						"numberOfBytes": "32",
						"value": "t_uint256"
					},
					"t_uint256": {
						"encoding": "inplace",
						"label": "uint256",
						"numberOfBytes": "32"
					},
					"t_uint8": {
						"encoding": "inplace",
						"label": "uint8",
						"numberOfBytes": "1"
					}
				}
			},
			"userdoc": {
				"kind": "user",
				"methods": {},
				"version": 1
			}
		}
	}
}