{
	"XODEX2.sol": {
		"XODEX": {
			"abi": [
				{
					"inputs": [],
					"stateMutability": "nonpayable",
					"type": "constructor"
				},
				{
					"anonymous": false,
					"inputs": [
						{
							"indexed": true,
							"internalType": "address",
							"name": "owner",
							"type": "address"
						},
						{
							"indexed": true,
							"internalType": "address",
							"name": "spender",
							"type": "address"
						},
						{
							"indexed": false,
							"internalType": "uint256",
							"name": "value",
							"type": "uint256"
						}
					],
					"name": "Approval",
					"type": "event"
				},
				{
					"anonymous": false,
					"inputs": [
						{
							"indexed": true,
							"internalType": "address",
							"name": "previousOwner",
							"type": "address"
						},
						{
							"indexed": true,
							"internalType": "address",
							"name": "newOwner",
							"type": "address"
						}
					],
					"name": "OwnershipTransferred",
					"type": "event"
				},
				{
					"anonymous": false,
					"inputs": [
						{
							"indexed": false,
							"internalType": "uint256",
							"name": "tokensSwapped",
							"type": "uint256"
						},
						{
							"indexed": false,
							"internalType": "uint256",
							"name": "ethReceived",
							"type": "uint256"
						},
						{
							"indexed": false,
							"internalType": "uint256",
							"name": "tokensIntoLiqudity",
							"type": "uint256"
						}
					],
					"name": "SwapAndLiquify",
					"type": "event"
				},
				{
					"anonymous": false,
					"inputs": [
						{
							"indexed": false,
							"internalType": "bool",
							"name": "enabled",
							"type": "bool"
						}
					],
					"name": "SwapAndLiquifyEnabledUpdated",
					"type": "event"
				},
				{
					"anonymous": false,
					"inputs": [
						{
							"indexed": true,
							"internalType": "address",
							"name": "from",
							"type": "address"
						},
						{
							"indexed": true,
							"internalType": "address",
							"name": "to",
							"type": "address"
						},
						{
							"indexed": false,
							"internalType": "uint256",
							"name": "value",
							"type": "uint256"
						}
					],
					"name": "Transfer",
					"type": "event"
				},
				{
					"inputs": [
						{
							"internalType": "address payable",
							"name": "wallet",
							"type": "address"
						}
					],
					"name": "Update__Dev_Wallet",
					"outputs": [],
					"stateMutability": "nonpayable",
					"type": "function"
				},
				{
					"inputs": [],
					"name": "_TotalFee",
					"outputs": [
						{
							"internalType": "uint256",
							"name": "",
							"type": "uint256"
						}
					],
					"stateMutability": "view",
					"type": "function"
				},
				{
					"inputs": [],
					"name": "_TransferFee",
					"outputs": [
						{
							"internalType": "uint256",
							"name": "",
							"type": "uint256"
						}
					],
					"stateMutability": "view",
					"type": "function"
				},
				{
					"inputs": [],
					"name": "_buyFee",
					"outputs": [
						{
							"internalType": "uint256",
							"name": "",
							"type": "uint256"
						}
					],
					"stateMutability": "view",
					"type": "function"
				},
				{
					"inputs": [
						{
							"internalType": "address",
							"name": "",
							"type": "address"
						}
					],
					"name": "_isBlacklisted",
					"outputs": [
						{
							"internalType": "bool",
							"name": "",
							"type": "bool"
						}
					],
					"stateMutability": "view",
					"type": "function"
				},
				{
					"inputs": [
						{
							"internalType": "address",
							"name": "",
							"type": "address"
						}
					],
					"name": "_isExcludedFromFee",
					"outputs": [
						{
							"internalType": "bool",
							"name": "",
							"type": "bool"
						}
					],
					"stateMutability": "view",
					"type": "function"
				},
				{
					"inputs": [],
					"name": "_maxToken",
					"outputs": [
						{
							"internalType": "uint256",
							"name": "",
							"type": "uint256"
						}
					],
					"stateMutability": "view",
					"type": "function"
				},
				{
					"inputs": [],
					"name": "_maxTxAmount",
					"outputs": [
						{
							"internalType": "uint256",
							"name": "",
							"type": "uint256"
						}
					],
					"stateMutability": "view",
					"type": "function"
				},
				{
					"inputs": [],
					"name": "_sellFee",
					"outputs": [
						{
							"internalType": "uint256",
							"name": "",
							"type": "uint256"
						}
					],
					"stateMutability": "view",
					"type": "function"
				},
				{
					"inputs": [
						{
							"internalType": "uint256",
							"name": "Buy_Fee",
							"type": "uint256"
						},
						{
							"internalType": "uint256",
							"name": "Sell_Fee",
							"type": "uint256"
						}
					],
					"name": "_set_Fees",
					"outputs": [],
					"stateMutability": "nonpayable",
					"type": "function"
				},
				{
					"inputs": [
						{
							"internalType": "uint256",
							"name": "Transfer_Fee",
							"type": "uint256"
						}
					],
					"name": "_set_Transfer_Fee",
					"outputs": [],
					"stateMutability": "nonpayable",
					"type": "function"
				},
				{
					"inputs": [
						{
							"internalType": "address",
							"name": "owner",
							"type": "address"
						},
						{
							"internalType": "address",
							"name": "spender",
							"type": "address"
						}
					],
					"name": "allowance",
					"outputs": [
						{
							"internalType": "uint256",
							"name": "",
							"type": "uint256"
						}
					],
					"stateMutability": "view",
					"type": "function"
				},
				{
					"inputs": [
						{
							"internalType": "address",
							"name": "spender",
							"type": "address"
						},
						{
							"internalType": "uint256",
							"name": "amount",
							"type": "uint256"
						}
					],
					"name": "approve",
					"outputs": [
						{
							"internalType": "bool",
							"name": "",
							"type": "bool"
						}
					],
					"stateMutability": "nonpayable",
					"type": "function"
				},
				{
					"inputs": [
						{
							"internalType": "address",
							"name": "account",
							"type": "address"
						}
					],
					"name": "balanceOf",
					"outputs": [
						{
							"internalType": "uint256",
							"name": "",
							"type": "uint256"
						}
					],
					"stateMutability": "view",
					"type": "function"
				},
				{
					"inputs": [
						{
							"internalType": "bool",
							"name": "true_or_false",
							"type": "bool"
						}
					],
					"name": "blacklist_Toggle",
					"outputs": [],
					"stateMutability": "nonpayable",
					"type": "function"
				},
				{
					"inputs": [
						{
							"internalType": "address[]",
							"name": "addresses",
							"type": "address[]"
						}
					],
					"name": "blacklist_Wallets",
					"outputs": [],
					"stateMutability": "nonpayable",
					"type": "function"
				},
				{
					"inputs": [],
					"name": "decimals",
					"outputs": [
						{
							"internalType": "uint8",
							"name": "",
							"type": "uint8"
						}
					],
					"stateMutability": "view",
					"type": "function"
				},
				{
					"inputs": [
						{
							"internalType": "address",
							"name": "spender",
							"type": "address"
						},
						{
							"internalType": "uint256",
							"name": "subtractedValue",
							"type": "uint256"
						}
					],
					"name": "decreaseAllowance",
					"outputs": [
						{
							"internalType": "bool",
							"name": "",
							"type": "bool"
						}
					],
					"stateMutability": "nonpayable",
					"type": "function"
				},
				{
					"inputs": [
						{
							"internalType": "address",
							"name": "account",
							"type": "address"
						}
					],
					"name": "excludeFromFee",
					"outputs": [],
					"stateMutability": "nonpayable",
					"type": "function"
				},
				{
					"inputs": [
						{
							"internalType": "address",
							"name": "account",
							"type": "address"
						}
					],
					"name": "includeInFee",
					"outputs": [],
					"stateMutability": "nonpayable",
					"type": "function"
				},
				{
					"inputs": [
						{
							"internalType": "address",
							"name": "spender",
							"type": "address"
						},
						{
							"internalType": "uint256",
							"name": "addedValue",
							"type": "uint256"
						}
					],
					"name": "increaseAllowance",
					"outputs": [
						{
							"internalType": "bool",
							"name": "",
							"type": "bool"
						}
					],
					"stateMutability": "nonpayable",
					"type": "function"
				},
				{
					"inputs": [],
					"name": "isBlackList",
					"outputs": [
						{
							"internalType": "bool",
							"name": "",
							"type": "bool"
						}
					],
					"stateMutability": "view",
					"type": "function"
				},
				{
					"inputs": [],
					"name": "isSwapping",
					"outputs": [
						{
							"internalType": "bool",
							"name": "",
							"type": "bool"
						}
					],
					"stateMutability": "view",
					"type": "function"
				},
				{
					"inputs": [],
					"name": "name",
					"outputs": [
						{
							"internalType": "string",
							"name": "",
							"type": "string"
						}
					],
					"stateMutability": "view",
					"type": "function"
				},
				{
					"inputs": [],
					"name": "noTransferFee",
					"outputs": [
						{
							"internalType": "bool",
							"name": "",
							"type": "bool"
						}
					],
					"stateMutability": "view",
					"type": "function"
				},
				{
					"inputs": [],
					"name": "owner",
					"outputs": [
						{
							"internalType": "address",
							"name": "",
							"type": "address"
						}
					],
					"stateMutability": "view",
					"type": "function"
				},
				{
					"inputs": [
						{
							"internalType": "uint256",
							"name": "percent_Of_Tokens_To_Process",
							"type": "uint256"
						}
					],
					"name": "process_Tokens",
					"outputs": [],
					"stateMutability": "nonpayable",
					"type": "function"
				},
				{
					"inputs": [
						{
							"internalType": "address",
							"name": "Token_Address",
							"type": "address"
						},
						{
							"internalType": "address",
							"name": "send_to_wallet",
							"type": "address"
						},
						{
							"internalType": "uint256",
							"name": "number_of_tokens",
							"type": "uint256"
						}
					],
					"name": "recover_Tokens",
					"outputs": [
						{
							"internalType": "bool",
							"name": "_sent",
							"type": "bool"
						}
					],
					"stateMutability": "nonpayable",
					"type": "function"
				},
				{
					"inputs": [],
					"name": "renounceOwnership",
					"outputs": [],
					"stateMutability": "nonpayable",
					"type": "function"
				},
				{
					"inputs": [
						{
							"internalType": "uint256",
							"name": "maxTxPercent_x100",
							"type": "uint256"
						}
					],
					"name": "set_Max_TX_Percent",
					"outputs": [],
					"stateMutability": "nonpayable",
					"type": "function"
				},
				{
					"inputs": [
						{
							"internalType": "uint256",
							"name": "maxWallPercent_x100",
							"type": "uint256"
						}
					],
					"name": "set_Max_Wal_Percent",
					"outputs": [],
					"stateMutability": "nonpayable",
					"type": "function"
				},
				{
					"inputs": [
						{
							"internalType": "uint8",
							"name": "number_of_transactions",
							"type": "uint8"
						}
					],
					"name": "set_Number_Of_Transactions_Before_Liquify_Trigger",
					"outputs": [],
					"stateMutability": "nonpayable",
					"type": "function"
				},
				{
					"inputs": [
						{
							"internalType": "bool",
							"name": "true_or_false",
							"type": "bool"
						}
					],
					"name": "set_Swap_And_Liquify_Enabled",
					"outputs": [],
					"stateMutability": "nonpayable",
					"type": "function"
				},
				{
					"inputs": [
						{
							"internalType": "bool",
							"name": "true_or_false",
							"type": "bool"
						}
					],
					"name": "set_TransferFees",
					"outputs": [],
					"stateMutability": "nonpayable",
					"type": "function"
				},
				{
					"inputs": [],
					"name": "swapAndLiqEnabled",
					"outputs": [
						{
							"internalType": "bool",
							"name": "",
							"type": "bool"
						}
					],
					"stateMutability": "view",
					"type": "function"
				},
				{
					"inputs": [],
					"name": "symbol",
					"outputs": [
						{
							"internalType": "string",
							"name": "",
							"type": "string"
						}
					],
					"stateMutability": "view",
					"type": "function"
				},
				{
					"inputs": [],
					"name": "totalSupply",
					"outputs": [
						{
							"internalType": "uint256",
							"name": "",
							"type": "uint256"
						}
					],
					"stateMutability": "view",
					"type": "function"
				},
				{
					"inputs": [
						{
							"internalType": "address",
							"name": "recipient",
							"type": "address"
						},
						{
							"internalType": "uint256",
							"name": "amount",
							"type": "uint256"
						}
					],
					"name": "transfer",
					"outputs": [
						{
							"internalType": "bool",
							"name": "",
							"type": "bool"
						}
					],
					"stateMutability": "nonpayable",
					"type": "function"
				},
				{
					"inputs": [
						{
							"internalType": "address",
							"name": "sender",
							"type": "address"
						},
						{
							"internalType": "address",
							"name": "recipient",
							"type": "address"
						},
						{
							"internalType": "uint256",
							"name": "amount",
							"type": "uint256"
						}
					],
					"name": "transferFrom",
					"outputs": [
						{
							"internalType": "bool",
							"name": "",
							"type": "bool"
						}
					],
					"stateMutability": "nonpayable",
					"type": "function"
				},
				{
					"inputs": [
						{
							"internalType": "address",
							"name": "newOwner",
							"type": "address"
						}
					],
					"name": "transferOwnership",
					"outputs": [],
					"stateMutability": "nonpayable",
					"type": "function"
				},
				{
					"inputs": [
						{
							"internalType": "address[]",
							"name": "addresses",
							"type": "address[]"
						}
					],
					"name": "unBlacklist_Wallets",
					"outputs": [],
					"stateMutability": "nonpayable",
					"type": "function"
				},
				{
					"inputs": [],
					"name": "uniswapV2Pair",
					"outputs": [
						{
							"internalType": "address",
							"name": "",
							"type": "address"
						}
					],
					"stateMutability": "view",
					"type": "function"
				},
				{
					"inputs": [],
					"name": "uniswapV2Router",
					"outputs": [
						{
							"internalType": "contract IUniswapV2Router02",
							"name": "",
							"type": "address"
						}
					],
					"stateMutability": "view",
					"type": "function"
				},
				{
					"stateMutability": "payable",
					"type": "receive"
				}
			],
			"devdoc": {
				"kind": "dev",
				"methods": {},
				"version": 1
			},
			"evm": {
				"assembly": "    /* \"XODEX2.sol\":11635:24277  contract XODEX is Context, IERC20, Ownable {... */\n  mstore(0x40, 0x80)\n    /* \"XODEX2.sol\":12223:12265  0x60EE6569662EE29295e2F09a0B657b8D535090b9 */\n  0x60ee6569662ee29295e2f09a0b657b8d535090b9\n    /* \"XODEX2.sol\":12178:12266  address payable private Dev_Wallet = payable(0x60EE6569662EE29295e2F09a0B657b8D535090b9) */\n  0x05\n  exp(0x0100, 0x01)\n  dup2\n  sload\n  dup2\n  0xffffffffffffffffffffffffffffffffffffffff\n  mul\n  not\n  and\n  swap1\n  dup4\n  0xffffffffffffffffffffffffffffffffffffffff\n  and\n  mul\n  or\n  swap1\n  sstore\n  pop\n    /* \"XODEX2.sol\":12393:12394  0 */\n  0x00\n    /* \"XODEX2.sol\":12369:12394  uint8 private txCount = 0 */\n  0x05\n  exp(0x0100, 0x15)\n  dup2\n  sload\n  dup2\n  0xff\n  mul\n  not\n  and\n  swap1\n  dup4\n  0xff\n  and\n  mul\n  or\n  swap1\n  sstore\n  pop\n    /* \"XODEX2.sol\":12428:12429  3 */\n  0x03\n    /* \"XODEX2.sol\":12400:12429  uint8 private swapTrigger = 3 */\n  0x05\n  exp(0x0100, 0x16)\n  dup2\n  sload\n  dup2\n  0xff\n  mul\n  not\n  and\n  swap1\n  dup4\n  0xff\n  and\n  mul\n  or\n  swap1\n  sstore\n  pop\n    /* \"XODEX2.sol\":12503:12505  10 */\n  0x0a\n    /* \"XODEX2.sol\":12470:12505  uint256 private maxTransferFee = 10 */\n  0x06\n  sstore\n    /* \"XODEX2.sol\":12538:12561  _tTotal.mul(2).div(100) */\n  tag_1\n    /* \"XODEX2.sol\":12557:12560  100 */\n  0x64\n    /* \"XODEX2.sol\":12538:12552  _tTotal.mul(2) */\n  tag_2\n    /* \"XODEX2.sol\":12550:12551  2 */\n  0x02\n    /* \"XODEX2.sol\":12121:12141  10000000000 * 10**18 */\n  0x204fce5e3e25026110000000\n    /* \"XODEX2.sol\":12538:12549  _tTotal.mul */\n  or(tag_0_252, shl(0x20, tag_3))\n  swap1\n    /* \"XODEX2.sol\":12538:12552  _tTotal.mul(2) */\n  swap2\n  swap1\n  0x20\n  shr\n  jump\t// in\ntag_2:\n    /* \"XODEX2.sol\":12538:12556  _tTotal.mul(2).div */\n  or(tag_0_253, shl(0x20, tag_4))\n  swap1\n    /* \"XODEX2.sol\":12538:12561  _tTotal.mul(2).div(100) */\n  swap2\n  swap1\n  0x20\n  shr\n  jump\t// in\ntag_1:\n    /* \"XODEX2.sol\":12511:12561  uint256 public _maxToken = _tTotal.mul(2).div(100) */\n  0x07\n  sstore\n    /* \"XODEX2.sol\":12599:12608  _maxToken */\n  sload(0x07)\n    /* \"XODEX2.sol\":12567:12608  uint256 private _prevMaxToken = _maxToken */\n  0x08\n  sstore\n    /* \"XODEX2.sol\":12644:12667  _tTotal.mul(1).div(100) */\n  tag_5\n    /* \"XODEX2.sol\":12663:12666  100 */\n  0x64\n    /* \"XODEX2.sol\":12644:12658  _tTotal.mul(1) */\n  tag_6\n    /* \"XODEX2.sol\":12656:12657  1 */\n  0x01\n    /* \"XODEX2.sol\":12121:12141  10000000000 * 10**18 */\n  0x204fce5e3e25026110000000\n    /* \"XODEX2.sol\":12644:12655  _tTotal.mul */\n  or(tag_0_252, shl(0x20, tag_3))\n  swap1\n    /* \"XODEX2.sol\":12644:12658  _tTotal.mul(1) */\n  swap2\n  swap1\n  0x20\n  shr\n  jump\t// in\ntag_6:\n    /* \"XODEX2.sol\":12644:12662  _tTotal.mul(1).div */\n  or(tag_0_253, shl(0x20, tag_4))\n  swap1\n    /* \"XODEX2.sol\":12644:12667  _tTotal.mul(1).div(100) */\n  swap2\n  swap1\n  0x20\n  shr\n  jump\t// in\ntag_5:\n    /* \"XODEX2.sol\":12614:12667  uint256 public _maxTxAmount = _tTotal.mul(1).div(100) */\n  0x09\n  sstore\n    /* \"XODEX2.sol\":12708:12720  _maxTxAmount */\n  sload(0x09)\n    /* \"XODEX2.sol\":12673:12720  uint256 private _prevMaxTxAmount = _maxTxAmount */\n  0x0a\n  sstore\n    /* \"XODEX2.sol\":12757:12759  10 */\n  0x0a\n    /* \"XODEX2.sol\":12727:12759  uint256 public _TransferFee = 10 */\n  0x0b\n  sstore\n    /* \"XODEX2.sol\":12790:12791  5 */\n  0x05\n    /* \"XODEX2.sol\":12765:12791  uint256 public _buyFee = 5 */\n  0x0c\n  sstore\n    /* \"XODEX2.sol\":12823:12824  5 */\n  0x05\n    /* \"XODEX2.sol\":12797:12824  uint256 public _sellFee = 5 */\n  0x0d\n  sstore\n    /* \"XODEX2.sol\":12857:12869  _TransferFee */\n  sload(0x0b)\n    /* \"XODEX2.sol\":12830:12869  uint256 public _TotalFee = _TransferFee */\n  0x0e\n  sstore\n    /* \"XODEX2.sol\":12905:12909  true */\n  0x01\n    /* \"XODEX2.sol\":12877:12909  bool public noTransferFee = true */\n  0x0f\n  exp(0x0100, 0x00)\n  dup2\n  sload\n  dup2\n  0xff\n  mul\n  not\n  and\n  swap1\n  dup4\n  iszero\n  iszero\n  mul\n  or\n  swap1\n  sstore\n  pop\n    /* \"XODEX2.sol\":13057:13061  true */\n  0x01\n    /* \"XODEX2.sol\":13025:13061  bool public swapAndLiqEnabled = true */\n  0x10\n  exp(0x0100, 0x15)\n  dup2\n  sload\n  dup2\n  0xff\n  mul\n  not\n  and\n  swap1\n  dup4\n  iszero\n  iszero\n  mul\n  or\n  swap1\n  sstore\n  pop\n    /* \"XODEX2.sol\":13320:13888  constructor() {... */\n  callvalue\n  dup1\n  iszero\n  tag_7\n  jumpi\n  0x00\n  dup1\n  revert\ntag_7:\n  pop\n    /* \"XODEX2.sol\":2130:2172  0xc402FE06948516567f2E59AB88172FEE49F5a84c */\n  0xc402fe06948516567f2e59ab88172fee49f5a84c\n    /* \"XODEX2.sol\":2121:2127  _owner */\n  0x00\n  dup1\n    /* \"XODEX2.sol\":2121:2172  _owner = 0xc402FE06948516567f2E59AB88172FEE49F5a84c */\n  0x0100\n  exp\n  dup2\n  sload\n  dup2\n  0xffffffffffffffffffffffffffffffffffffffff\n  mul\n  not\n  and\n  swap1\n  dup4\n  0xffffffffffffffffffffffffffffffffffffffff\n  and\n  mul\n  or\n  swap1\n  sstore\n  pop\n    /* \"XODEX2.sol\":2220:2226  _owner */\n  0x00\n  dup1\n  sload\n  swap1\n  0x0100\n  exp\n  swap1\n  div\n  0xffffffffffffffffffffffffffffffffffffffff\n  and\n    /* \"XODEX2.sol\":2187:2227  OwnershipTransferred(address(0), _owner) */\n  0xffffffffffffffffffffffffffffffffffffffff\n  and\n    /* \"XODEX2.sol\":2216:2217  0 */\n  0x00\n    /* \"XODEX2.sol\":2187:2227  OwnershipTransferred(address(0), _owner) */\n  0xffffffffffffffffffffffffffffffffffffffff\n  and\n  0x8be0079c531659141344cd1fd0a4f28419497f9722a3daafe3b4186f6b6457e0\n  mload(0x40)\n  mload(0x40)\n  dup1\n  swap2\n  sub\n  swap1\n  log3\n    /* \"XODEX2.sol\":12121:12141  10000000000 * 10**18 */\n  0x204fce5e3e25026110000000\n    /* \"XODEX2.sol\":13344:13355  _totalOwned */\n  0x01\n    /* \"XODEX2.sol\":13344:13364  _totalOwned[owner()] */\n  0x00\n    /* \"XODEX2.sol\":13356:13363  owner() */\n  tag_12\n    /* \"XODEX2.sol\":13356:13361  owner */\n  shl(0x20, tag_13)\n    /* \"XODEX2.sol\":13356:13363  owner() */\n  0x20\n  shr\n  jump\t// in\ntag_12:\n    /* \"XODEX2.sol\":13344:13364  _totalOwned[owner()] */\n  0xffffffffffffffffffffffffffffffffffffffff\n  and\n  0xffffffffffffffffffffffffffffffffffffffff\n  and\n  dup2\n  mstore\n  0x20\n  add\n  swap1\n  dup2\n  mstore\n  0x20\n  add\n  0x00\n  keccak256\n    /* \"XODEX2.sol\":13344:13374  _totalOwned[owner()] = _tTotal */\n  dup2\n  swap1\n  sstore\n  pop\n    /* \"XODEX2.sol\":13385:13420  IUniswapV2Router02 _uniswapV2Router */\n  0x00\n    /* \"XODEX2.sol\":13442:13484  0x10ED43C718714eb63d5aA57B78B54704E256024E */\n  0x10ed43c718714eb63d5aa57b78b54704e256024e\n    /* \"XODEX2.sol\":13385:13485  IUniswapV2Router02 _uniswapV2Router = IUniswapV2Router02(0x10ED43C718714eb63d5aA57B78B54704E256024E) */\n  swap1\n  pop\n    /* \"XODEX2.sol\":13530:13546  _uniswapV2Router */\n  dup1\n    /* \"XODEX2.sol\":13530:13554  _uniswapV2Router.factory */\n  0xffffffffffffffffffffffffffffffffffffffff\n  and\n  0xc45a0155\n    /* \"XODEX2.sol\":13530:13556  _uniswapV2Router.factory() */\n  mload(0x40)\n  dup2\n  0xffffffff\n  and\n  0xe0\n  shl\n  dup2\n  mstore\n  0x04\n  add\n  0x20\n  mload(0x40)\n  dup1\n  dup4\n  sub\n  dup2\n  dup7\n  gas\n  staticcall\n  iszero\n  dup1\n  iszero\n  tag_15\n  jumpi\n  returndatasize\n  0x00\n  dup1\n  returndatacopy\n  revert(0x00, returndatasize)\ntag_15:\n  pop\n  pop\n  pop\n  pop\n  mload(0x40)\n  returndatasize\n  not(0x1f)\n  0x1f\n  dup3\n  add\n  and\n  dup3\n  add\n  dup1\n  0x40\n  mstore\n  pop\n  dup2\n  add\n  swap1\n  tag_16\n  swap2\n  swap1\n  tag_17\n  jump\t// in\ntag_16:\n    /* \"XODEX2.sol\":13512:13568  IUniswapV2Factory(_uniswapV2Router.factory()).createPair */\n  0xffffffffffffffffffffffffffffffffffffffff\n  and\n  0xc9c65396\n    /* \"XODEX2.sol\":13590:13594  this */\n  address\n    /* \"XODEX2.sol\":13609:13625  _uniswapV2Router */\n  dup4\n    /* \"XODEX2.sol\":13609:13630  _uniswapV2Router.WETH */\n  0xffffffffffffffffffffffffffffffffffffffff\n  and\n  0xad5c4648\n    /* \"XODEX2.sol\":13609:13632  _uniswapV2Router.WETH() */\n  mload(0x40)\n  dup2\n  0xffffffff\n  and\n  0xe0\n  shl\n  dup2\n  mstore\n  0x04\n  add\n  0x20\n  mload(0x40)\n  dup1\n  dup4\n  sub\n  dup2\n  dup7\n  gas\n  staticcall\n  iszero\n  dup1\n  iszero\n  tag_19\n  jumpi\n  returndatasize\n  0x00\n  dup1\n  returndatacopy\n  revert(0x00, returndatasize)\ntag_19:\n  pop\n  pop\n  pop\n  pop\n  mload(0x40)\n  returndatasize\n  not(0x1f)\n  0x1f\n  dup3\n  add\n  and\n  dup3\n  add\n  dup1\n  0x40\n  mstore\n  pop\n  dup2\n  add\n  swap1\n  tag_20\n  swap2\n  swap1\n  tag_17\n  jump\t// in\ntag_20:\n    /* \"XODEX2.sol\":13512:13642  IUniswapV2Factory(_uniswapV2Router.factory()).createPair(... */\n  mload(0x40)\n  dup4\n  0xffffffff\n  and\n  0xe0\n  shl\n  dup2\n  mstore\n  0x04\n  add\n  tag_21\n  swap3\n  swap2\n  swap1\n  tag_22\n  jump\t// in\ntag_21:\n  0x20\n  mload(0x40)\n  dup1\n  dup4\n  sub\n  dup2\n  0x00\n  dup8\n  gas\n  call\n  iszero\n  dup1\n  iszero\n  tag_24\n  jumpi\n  returndatasize\n  0x00\n  dup1\n  returndatacopy\n  revert(0x00, returndatasize)\ntag_24:\n  pop\n  pop\n  pop\n  pop\n  mload(0x40)\n  returndatasize\n  not(0x1f)\n  0x1f\n  dup3\n  add\n  and\n  dup3\n  add\n  dup1\n  0x40\n  mstore\n  pop\n  dup2\n  add\n  swap1\n  tag_25\n  swap2\n  swap1\n  tag_17\n  jump\t// in\ntag_25:\n    /* \"XODEX2.sol\":13496:13509  uniswapV2Pair */\n  0x10\n  0x00\n    /* \"XODEX2.sol\":13496:13642  uniswapV2Pair = IUniswapV2Factory(_uniswapV2Router.factory()).createPair(... */\n  0x0100\n  exp\n  dup2\n  sload\n  dup2\n  0xffffffffffffffffffffffffffffffffffffffff\n  mul\n  not\n  and\n  swap1\n  dup4\n  0xffffffffffffffffffffffffffffffffffffffff\n  and\n  mul\n  or\n  swap1\n  sstore\n  pop\n    /* \"XODEX2.sol\":13670:13686  _uniswapV2Router */\n  dup1\n    /* \"XODEX2.sol\":13652:13667  uniswapV2Router */\n  0x0f\n  0x01\n    /* \"XODEX2.sol\":13652:13686  uniswapV2Router = _uniswapV2Router */\n  0x0100\n  exp\n  dup2\n  sload\n  dup2\n  0xffffffffffffffffffffffffffffffffffffffff\n  mul\n  not\n  and\n  swap1\n  dup4\n  0xffffffffffffffffffffffffffffffffffffffff\n  and\n  mul\n  or\n  swap1\n  sstore\n  pop\n    /* \"XODEX2.sol\":13726:13730  true */\n  0x01\n    /* \"XODEX2.sol\":13696:13714  _isExcludedFromFee */\n  0x03\n    /* \"XODEX2.sol\":13696:13723  _isExcludedFromFee[owner()] */\n  0x00\n    /* \"XODEX2.sol\":13715:13722  owner() */\n  tag_26\n    /* \"XODEX2.sol\":13715:13720  owner */\n  shl(0x20, tag_13)\n    /* \"XODEX2.sol\":13715:13722  owner() */\n  0x20\n  shr\n  jump\t// in\ntag_26:\n    /* \"XODEX2.sol\":13696:13723  _isExcludedFromFee[owner()] */\n  0xffffffffffffffffffffffffffffffffffffffff\n  and\n  0xffffffffffffffffffffffffffffffffffffffff\n  and\n  dup2\n  mstore\n  0x20\n  add\n  swap1\n  dup2\n  mstore\n  0x20\n  add\n  0x00\n  keccak256\n  0x00\n    /* \"XODEX2.sol\":13696:13730  _isExcludedFromFee[owner()] = true */\n  0x0100\n  exp\n  dup2\n  sload\n  dup2\n  0xff\n  mul\n  not\n  and\n  swap1\n  dup4\n  iszero\n  iszero\n  mul\n  or\n  swap1\n  sstore\n  pop\n    /* \"XODEX2.sol\":13776:13780  true */\n  0x01\n    /* \"XODEX2.sol\":13740:13758  _isExcludedFromFee */\n  0x03\n    /* \"XODEX2.sol\":13740:13773  _isExcludedFromFee[address(this)] */\n  0x00\n    /* \"XODEX2.sol\":13767:13771  this */\n  address\n    /* \"XODEX2.sol\":13740:13773  _isExcludedFromFee[address(this)] */\n  0xffffffffffffffffffffffffffffffffffffffff\n  and\n  0xffffffffffffffffffffffffffffffffffffffff\n  and\n  dup2\n  mstore\n  0x20\n  add\n  swap1\n  dup2\n  mstore\n  0x20\n  add\n  0x00\n  keccak256\n  0x00\n    /* \"XODEX2.sol\":13740:13780  _isExcludedFromFee[address(this)] = true */\n  0x0100\n  exp\n  dup2\n  sload\n  dup2\n  0xff\n  mul\n  not\n  and\n  swap1\n  dup4\n  iszero\n  iszero\n  mul\n  or\n  swap1\n  sstore\n  pop\n    /* \"XODEX2.sol\":13823:13827  true */\n  0x01\n    /* \"XODEX2.sol\":13790:13808  _isExcludedFromFee */\n  0x03\n    /* \"XODEX2.sol\":13790:13820  _isExcludedFromFee[Dev_Wallet] */\n  0x00\n    /* \"XODEX2.sol\":13809:13819  Dev_Wallet */\n  0x05\n  0x01\n  swap1\n  sload\n  swap1\n  0x0100\n  exp\n  swap1\n  div\n  0xffffffffffffffffffffffffffffffffffffffff\n  and\n    /* \"XODEX2.sol\":13790:13820  _isExcludedFromFee[Dev_Wallet] */\n  0xffffffffffffffffffffffffffffffffffffffff\n  and\n  0xffffffffffffffffffffffffffffffffffffffff\n  and\n  dup2\n  mstore\n  0x20\n  add\n  swap1\n  dup2\n  mstore\n  0x20\n  add\n  0x00\n  keccak256\n  0x00\n    /* \"XODEX2.sol\":13790:13827  _isExcludedFromFee[Dev_Wallet] = true */\n  0x0100\n  exp\n  dup2\n  sload\n  dup2\n  0xff\n  mul\n  not\n  and\n  swap1\n  dup4\n  iszero\n  iszero\n  mul\n  or\n  swap1\n  sstore\n  pop\n    /* \"XODEX2.sol\":13864:13871  owner() */\n  tag_27\n    /* \"XODEX2.sol\":13864:13869  owner */\n  shl(0x20, tag_13)\n    /* \"XODEX2.sol\":13864:13871  owner() */\n  0x20\n  shr\n  jump\t// in\ntag_27:\n    /* \"XODEX2.sol\":13843:13881  Transfer(address(0), owner(), _tTotal) */\n  0xffffffffffffffffffffffffffffffffffffffff\n  and\n    /* \"XODEX2.sol\":13860:13861  0 */\n  0x00\n    /* \"XODEX2.sol\":13843:13881  Transfer(address(0), owner(), _tTotal) */\n  0xffffffffffffffffffffffffffffffffffffffff\n  and\n  0xddf252ad1be2c89b69c2b068fc378daa952ba7f163c4a11628f55a4df523b3ef\n    /* \"XODEX2.sol\":12121:12141  10000000000 * 10**18 */\n  0x204fce5e3e25026110000000\n    /* \"XODEX2.sol\":13843:13881  Transfer(address(0), owner(), _tTotal) */\n  mload(0x40)\n  tag_28\n  swap2\n  swap1\n  tag_29\n  jump\t// in\ntag_28:\n  mload(0x40)\n  dup1\n  swap2\n  sub\n  swap1\n  log3\n    /* \"XODEX2.sol\":13334:13888  {... */\n  pop\n    /* \"XODEX2.sol\":11635:24277  contract XODEX is Context, IERC20, Ownable {... */\n  jump(tag_30)\n    /* \"XODEX2.sol\":983:1079  function mul(uint256 a, uint256 b) internal pure returns (uint256) {... */\ntag_3:\n    /* \"XODEX2.sol\":1041:1048  uint256 */\n  0x00\n    /* \"XODEX2.sol\":1071:1072  b */\n  dup2\n    /* \"XODEX2.sol\":1067:1068  a */\n  dup4\n    /* \"XODEX2.sol\":1067:1072  a * b */\n  tag_32\n  swap2\n  swap1\n  tag_33\n  jump\t// in\ntag_32:\n    /* \"XODEX2.sol\":1060:1072  return a * b */\n  swap1\n  pop\n    /* \"XODEX2.sol\":983:1079  function mul(uint256 a, uint256 b) internal pure returns (uint256) {... */\n  swap3\n  swap2\n  pop\n  pop\n  jump\t// out\n    /* \"XODEX2.sol\":1085:1181  function div(uint256 a, uint256 b) internal pure returns (uint256) {... */\ntag_4:\n    /* \"XODEX2.sol\":1143:1150  uint256 */\n  0x00\n    /* \"XODEX2.sol\":1173:1174  b */\n  dup2\n    /* \"XODEX2.sol\":1169:1170  a */\n  dup4\n    /* \"XODEX2.sol\":1169:1174  a / b */\n  tag_35\n  swap2\n  swap1\n  tag_36\n  jump\t// in\ntag_35:\n    /* \"XODEX2.sol\":1162:1174  return a / b */\n  swap1\n  pop\n    /* \"XODEX2.sol\":1085:1181  function div(uint256 a, uint256 b) internal pure returns (uint256) {... */\n  swap3\n  swap2\n  pop\n  pop\n  jump\t// out\n    /* \"XODEX2.sol\":2268:2353  function owner() public view virtual returns (address) {... */\ntag_13:\n    /* \"XODEX2.sol\":2314:2321  address */\n  0x00\n    /* \"XODEX2.sol\":2340:2346  _owner */\n  dup1\n  0x00\n  swap1\n  sload\n  swap1\n  0x0100\n  exp\n  swap1\n  div\n  0xffffffffffffffffffffffffffffffffffffffff\n  and\n    /* \"XODEX2.sol\":2333:2346  return _owner */\n  swap1\n  pop\n    /* \"XODEX2.sol\":2268:2353  function owner() public view virtual returns (address) {... */\n  swap1\n  jump\t// out\n    /* \"#utility.yul\":88:205   */\ntag_39:\n    /* \"#utility.yul\":197:198   */\n  0x00\n    /* \"#utility.yul\":194:195   */\n  dup1\n    /* \"#utility.yul\":187:199   */\n  revert\n    /* \"#utility.yul\":334:460   */\ntag_41:\n    /* \"#utility.yul\":371:378   */\n  0x00\n    /* \"#utility.yul\":411:453   */\n  0xffffffffffffffffffffffffffffffffffffffff\n    /* \"#utility.yul\":404:409   */\n  dup3\n    /* \"#utility.yul\":400:454   */\n  and\n    /* \"#utility.yul\":389:454   */\n  swap1\n  pop\n    /* \"#utility.yul\":334:460   */\n  swap2\n  swap1\n  pop\n  jump\t// out\n    /* \"#utility.yul\":466:562   */\ntag_42:\n    /* \"#utility.yul\":503:510   */\n  0x00\n    /* \"#utility.yul\":532:556   */\n  tag_56\n    /* \"#utility.yul\":550:555   */\n  dup3\n    /* \"#utility.yul\":532:556   */\n  tag_41\n  jump\t// in\ntag_56:\n    /* \"#utility.yul\":521:556   */\n  swap1\n  pop\n    /* \"#utility.yul\":466:562   */\n  swap2\n  swap1\n  pop\n  jump\t// out\n    /* \"#utility.yul\":568:690   */\ntag_43:\n    /* \"#utility.yul\":641:665   */\n  tag_58\n    /* \"#utility.yul\":659:664   */\n  dup2\n    /* \"#utility.yul\":641:665   */\n  tag_42\n  jump\t// in\ntag_58:\n    /* \"#utility.yul\":634:639   */\n  dup2\n    /* \"#utility.yul\":631:666   */\n  eq\n    /* \"#utility.yul\":621:684   */\n  tag_59\n  jumpi\n    /* \"#utility.yul\":680:681   */\n  0x00\n    /* \"#utility.yul\":677:678   */\n  dup1\n    /* \"#utility.yul\":670:682   */\n  revert\n    /* \"#utility.yul\":621:684   */\ntag_59:\n    /* \"#utility.yul\":568:690   */\n  pop\n  jump\t// out\n    /* \"#utility.yul\":696:839   */\ntag_44:\n    /* \"#utility.yul\":753:758   */\n  0x00\n    /* \"#utility.yul\":784:790   */\n  dup2\n    /* \"#utility.yul\":778:791   */\n  mload\n    /* \"#utility.yul\":769:791   */\n  swap1\n  pop\n    /* \"#utility.yul\":800:833   */\n  tag_61\n    /* \"#utility.yul\":827:832   */\n  dup2\n    /* \"#utility.yul\":800:833   */\n  tag_43\n  jump\t// in\ntag_61:\n    /* \"#utility.yul\":696:839   */\n  swap3\n  swap2\n  pop\n  pop\n  jump\t// out\n    /* \"#utility.yul\":845:1196   */\ntag_17:\n    /* \"#utility.yul\":915:921   */\n  0x00\n    /* \"#utility.yul\":964:966   */\n  0x20\n    /* \"#utility.yul\":952:961   */\n  dup3\n    /* \"#utility.yul\":943:950   */\n  dup5\n    /* \"#utility.yul\":939:962   */\n  sub\n    /* \"#utility.yul\":935:967   */\n  slt\n    /* \"#utility.yul\":932:1051   */\n  iszero\n  tag_63\n  jumpi\n    /* \"#utility.yul\":970:1049   */\n  tag_64\n  tag_39\n  jump\t// in\ntag_64:\n    /* \"#utility.yul\":932:1051   */\ntag_63:\n    /* \"#utility.yul\":1090:1091   */\n  0x00\n    /* \"#utility.yul\":1115:1179   */\n  tag_65\n    /* \"#utility.yul\":1171:1178   */\n  dup5\n    /* \"#utility.yul\":1162:1168   */\n  dup3\n    /* \"#utility.yul\":1151:1160   */\n  dup6\n    /* \"#utility.yul\":1147:1169   */\n  add\n    /* \"#utility.yul\":1115:1179   */\n  tag_44\n  jump\t// in\ntag_65:\n    /* \"#utility.yul\":1105:1179   */\n  swap2\n  pop\n    /* \"#utility.yul\":1061:1189   */\n  pop\n    /* \"#utility.yul\":845:1196   */\n  swap3\n  swap2\n  pop\n  pop\n  jump\t// out\n    /* \"#utility.yul\":1202:1320   */\ntag_45:\n    /* \"#utility.yul\":1289:1313   */\n  tag_67\n    /* \"#utility.yul\":1307:1312   */\n  dup2\n    /* \"#utility.yul\":1289:1313   */\n  tag_42\n  jump\t// in\ntag_67:\n    /* \"#utility.yul\":1284:1287   */\n  dup3\n    /* \"#utility.yul\":1277:1314   */\n  mstore\n    /* \"#utility.yul\":1202:1320   */\n  pop\n  pop\n  jump\t// out\n    /* \"#utility.yul\":1326:1658   */\ntag_22:\n    /* \"#utility.yul\":1447:1451   */\n  0x00\n    /* \"#utility.yul\":1485:1487   */\n  0x40\n    /* \"#utility.yul\":1474:1483   */\n  dup3\n    /* \"#utility.yul\":1470:1488   */\n  add\n    /* \"#utility.yul\":1462:1488   */\n  swap1\n  pop\n    /* \"#utility.yul\":1498:1569   */\n  tag_69\n    /* \"#utility.yul\":1566:1567   */\n  0x00\n    /* \"#utility.yul\":1555:1564   */\n  dup4\n    /* \"#utility.yul\":1551:1568   */\n  add\n    /* \"#utility.yul\":1542:1548   */\n  dup6\n    /* \"#utility.yul\":1498:1569   */\n  tag_45\n  jump\t// in\ntag_69:\n    /* \"#utility.yul\":1579:1651   */\n  tag_70\n    /* \"#utility.yul\":1647:1649   */\n  0x20\n    /* \"#utility.yul\":1636:1645   */\n  dup4\n    /* \"#utility.yul\":1632:1650   */\n  add\n    /* \"#utility.yul\":1623:1629   */\n  dup5\n    /* \"#utility.yul\":1579:1651   */\n  tag_45\n  jump\t// in\ntag_70:\n    /* \"#utility.yul\":1326:1658   */\n  swap4\n  swap3\n  pop\n  pop\n  pop\n  jump\t// out\n    /* \"#utility.yul\":1664:1741   */\ntag_46:\n    /* \"#utility.yul\":1701:1708   */\n  0x00\n    /* \"#utility.yul\":1730:1735   */\n  dup2\n    /* \"#utility.yul\":1719:1735   */\n  swap1\n  pop\n    /* \"#utility.yul\":1664:1741   */\n  swap2\n  swap1\n  pop\n  jump\t// out\n    /* \"#utility.yul\":1747:1865   */\ntag_47:\n    /* \"#utility.yul\":1834:1858   */\n  tag_73\n    /* \"#utility.yul\":1852:1857   */\n  dup2\n    /* \"#utility.yul\":1834:1858   */\n  tag_46\n  jump\t// in\ntag_73:\n    /* \"#utility.yul\":1829:1832   */\n  dup3\n    /* \"#utility.yul\":1822:1859   */\n  mstore\n    /* \"#utility.yul\":1747:1865   */\n  pop\n  pop\n  jump\t// out\n    /* \"#utility.yul\":1871:2093   */\ntag_29:\n    /* \"#utility.yul\":1964:1968   */\n  0x00\n    /* \"#utility.yul\":2002:2004   */\n  0x20\n    /* \"#utility.yul\":1991:2000   */\n  dup3\n    /* \"#utility.yul\":1987:2005   */\n  add\n    /* \"#utility.yul\":1979:2005   */\n  swap1\n  pop\n    /* \"#utility.yul\":2015:2086   */\n  tag_75\n    /* \"#utility.yul\":2083:2084   */\n  0x00\n    /* \"#utility.yul\":2072:2081   */\n  dup4\n    /* \"#utility.yul\":2068:2085   */\n  add\n    /* \"#utility.yul\":2059:2065   */\n  dup5\n    /* \"#utility.yul\":2015:2086   */\n  tag_47\n  jump\t// in\ntag_75:\n    /* \"#utility.yul\":1871:2093   */\n  swap3\n  swap2\n  pop\n  pop\n  jump\t// out\n    /* \"#utility.yul\":2099:2279   */\ntag_48:\n    /* \"#utility.yul\":2147:2224   */\n  0x4e487b7100000000000000000000000000000000000000000000000000000000\n    /* \"#utility.yul\":2144:2145   */\n  0x00\n    /* \"#utility.yul\":2137:2225   */\n  mstore\n    /* \"#utility.yul\":2244:2248   */\n  0x11\n    /* \"#utility.yul\":2241:2242   */\n  0x04\n    /* \"#utility.yul\":2234:2249   */\n  mstore\n    /* \"#utility.yul\":2268:2272   */\n  0x24\n    /* \"#utility.yul\":2265:2266   */\n  0x00\n    /* \"#utility.yul\":2258:2273   */\n  revert\n    /* \"#utility.yul\":2285:2695   */\ntag_33:\n    /* \"#utility.yul\":2325:2332   */\n  0x00\n    /* \"#utility.yul\":2348:2368   */\n  tag_78\n    /* \"#utility.yul\":2366:2367   */\n  dup3\n    /* \"#utility.yul\":2348:2368   */\n  tag_46\n  jump\t// in\ntag_78:\n    /* \"#utility.yul\":2343:2368   */\n  swap2\n  pop\n    /* \"#utility.yul\":2382:2402   */\n  tag_79\n    /* \"#utility.yul\":2400:2401   */\n  dup4\n    /* \"#utility.yul\":2382:2402   */\n  tag_46\n  jump\t// in\ntag_79:\n    /* \"#utility.yul\":2377:2402   */\n  swap3\n  pop\n    /* \"#utility.yul\":2437:2438   */\n  dup3\n    /* \"#utility.yul\":2434:2435   */\n  dup3\n    /* \"#utility.yul\":2430:2439   */\n  mul\n    /* \"#utility.yul\":2459:2489   */\n  tag_80\n    /* \"#utility.yul\":2477:2488   */\n  dup2\n    /* \"#utility.yul\":2459:2489   */\n  tag_46\n  jump\t// in\ntag_80:\n    /* \"#utility.yul\":2448:2489   */\n  swap2\n  pop\n    /* \"#utility.yul\":2638:2639   */\n  dup3\n    /* \"#utility.yul\":2629:2636   */\n  dup3\n    /* \"#utility.yul\":2625:2640   */\n  div\n    /* \"#utility.yul\":2622:2623   */\n  dup5\n    /* \"#utility.yul\":2619:2641   */\n  eq\n    /* \"#utility.yul\":2599:2600   */\n  dup4\n    /* \"#utility.yul\":2592:2601   */\n  iszero\n    /* \"#utility.yul\":2572:2655   */\n  or\n    /* \"#utility.yul\":2549:2688   */\n  tag_81\n  jumpi\n    /* \"#utility.yul\":2668:2686   */\n  tag_82\n  tag_48\n  jump\t// in\ntag_82:\n    /* \"#utility.yul\":2549:2688   */\ntag_81:\n    /* \"#utility.yul\":2333:2695   */\n  pop\n    /* \"#utility.yul\":2285:2695   */\n  swap3\n  swap2\n  pop\n  pop\n  jump\t// out\n    /* \"#utility.yul\":2701:2881   */\ntag_49:\n    /* \"#utility.yul\":2749:2826   */\n  0x4e487b7100000000000000000000000000000000000000000000000000000000\n    /* \"#utility.yul\":2746:2747   */\n  0x00\n    /* \"#utility.yul\":2739:2827   */\n  mstore\n    /* \"#utility.yul\":2846:2850   */\n  0x12\n    /* \"#utility.yul\":2843:2844   */\n  0x04\n    /* \"#utility.yul\":2836:2851   */\n  mstore\n    /* \"#utility.yul\":2870:2874   */\n  0x24\n    /* \"#utility.yul\":2867:2868   */\n  0x00\n    /* \"#utility.yul\":2860:2875   */\n  revert\n    /* \"#utility.yul\":2887:3072   */\ntag_36:\n    /* \"#utility.yul\":2927:2928   */\n  0x00\n    /* \"#utility.yul\":2944:2964   */\n  tag_85\n    /* \"#utility.yul\":2962:2963   */\n  dup3\n    /* \"#utility.yul\":2944:2964   */\n  tag_46\n  jump\t// in\ntag_85:\n    /* \"#utility.yul\":2939:2964   */\n  swap2\n  pop\n    /* \"#utility.yul\":2978:2998   */\n  tag_86\n    /* \"#utility.yul\":2996:2997   */\n  dup4\n    /* \"#utility.yul\":2978:2998   */\n  tag_46\n  jump\t// in\ntag_86:\n    /* \"#utility.yul\":2973:2998   */\n  swap3\n  pop\n    /* \"#utility.yul\":3017:3018   */\n  dup3\n    /* \"#utility.yul\":3007:3042   */\n  tag_87\n  jumpi\n    /* \"#utility.yul\":3022:3040   */\n  tag_88\n  tag_49\n  jump\t// in\ntag_88:\n    /* \"#utility.yul\":3007:3042   */\ntag_87:\n    /* \"#utility.yul\":3064:3065   */\n  dup3\n    /* \"#utility.yul\":3061:3062   */\n  dup3\n    /* \"#utility.yul\":3057:3066   */\n  div\n    /* \"#utility.yul\":3052:3066   */\n  swap1\n  pop\n    /* \"#utility.yul\":2887:3072   */\n  swap3\n  swap2\n  pop\n  pop\n  jump\t// out\n    /* \"XODEX2.sol\":11635:24277  contract XODEX is Context, IERC20, Ownable {... */\ntag_30:\n  dataSize(sub_0)\n  dup1\n  dataOffset(sub_0)\n  0x00\n  codecopy\n  0x00\n  return\nstop\n\nsub_0: assembly {\n        /* \"XODEX2.sol\":11635:24277  contract XODEX is Context, IERC20, Ownable {... */\n      mstore(0x40, 0x80)\n      jumpi(tag_1, lt(calldatasize, 0x04))\n      shr(0xe0, calldataload(0x00))\n      dup1\n      0x70a08231\n      gt\n      tag_46\n      jumpi\n      dup1\n      0xa9059cbb\n      gt\n      tag_47\n      jumpi\n      dup1\n      0xdcff0237\n      gt\n      tag_48\n      jumpi\n      dup1\n      0xdcff0237\n      eq\n      tag_40\n      jumpi\n      dup1\n      0xdd62ed3e\n      eq\n      tag_41\n      jumpi\n      dup1\n      0xea2f0b37\n      eq\n      tag_42\n      jumpi\n      dup1\n      0xf2fde38b\n      eq\n      tag_43\n      jumpi\n      dup1\n      0xf73980f9\n      eq\n      tag_44\n      jumpi\n      dup1\n      0xf7739b5f\n      eq\n      tag_45\n      jumpi\n      jump(tag_2)\n    tag_48:\n      dup1\n      0xa9059cbb\n      eq\n      tag_35\n      jumpi\n      dup1\n      0xae7bd3f2\n      eq\n      tag_36\n      jumpi\n      dup1\n      0xb8863115\n      eq\n      tag_37\n      jumpi\n      dup1\n      0xba6a6cdb\n      eq\n      tag_38\n      jumpi\n      dup1\n      0xc7039528\n      eq\n      tag_39\n      jumpi\n      jump(tag_2)\n    tag_47:\n      dup1\n      0x85ae099f\n      gt\n      tag_49\n      jumpi\n      dup1\n      0x85ae099f\n      eq\n      tag_29\n      jumpi\n      dup1\n      0x8da5cb5b\n      eq\n      tag_30\n      jumpi\n      dup1\n      0x95d89b41\n      eq\n      tag_31\n      jumpi\n      dup1\n      0xa01cbf9a\n      eq\n      tag_32\n      jumpi\n      dup1\n      0xa2a02c33\n      eq\n      tag_33\n      jumpi\n      dup1\n      0xa457c2d7\n      eq\n      tag_34\n      jumpi\n      jump(tag_2)\n    tag_49:\n      dup1\n      0x70a08231\n      eq\n      tag_24\n      jumpi\n      dup1\n      0x715018a6\n      eq\n      tag_25\n      jumpi\n      dup1\n      0x768dc710\n      eq\n      tag_26\n      jumpi\n      dup1\n      0x7caefa89\n      eq\n      tag_27\n      jumpi\n      dup1\n      0x7d1db4a5\n      eq\n      tag_28\n      jumpi\n      jump(tag_2)\n    tag_46:\n      dup1\n      0x2f536344\n      gt\n      tag_50\n      jumpi\n      dup1\n      0x437823ec\n      gt\n      tag_51\n      jumpi\n      dup1\n      0x437823ec\n      eq\n      tag_18\n      jumpi\n      dup1\n      0x46258ab3\n      eq\n      tag_19\n      jumpi\n      dup1\n      0x49bd5a5e\n      eq\n      tag_20\n      jumpi\n      dup1\n      0x5238f0e3\n      eq\n      tag_21\n      jumpi\n      dup1\n      0x590f897e\n      eq\n      tag_22\n      jumpi\n      dup1\n      0x67cbd84c\n      eq\n      tag_23\n      jumpi\n      jump(tag_2)\n    tag_51:\n      dup1\n      0x2f536344\n      eq\n      tag_13\n      jumpi\n      dup1\n      0x313ce567\n      eq\n      tag_14\n      jumpi\n      dup1\n      0x39509351\n      eq\n      tag_15\n      jumpi\n      dup1\n      0x3e66c435\n      eq\n      tag_16\n      jumpi\n      dup1\n      0x40b9a54b\n      eq\n      tag_17\n      jumpi\n      jump(tag_2)\n    tag_50:\n      dup1\n      0x1b123b71\n      gt\n      tag_52\n      jumpi\n      dup1\n      0x1b123b71\n      eq\n      tag_8\n      jumpi\n      dup1\n      0x1cdd3be3\n      eq\n      tag_9\n      jumpi\n      dup1\n      0x23b872dd\n      eq\n      tag_10\n      jumpi\n      dup1\n      0x2a77c076\n      eq\n      tag_11\n      jumpi\n      dup1\n      0x2b37b69b\n      eq\n      tag_12\n      jumpi\n      jump(tag_2)\n    tag_52:\n      dup1\n      0x06fdde03\n      eq\n      tag_3\n      jumpi\n      dup1\n      0x095ea7b3\n      eq\n      tag_4\n      jumpi\n      dup1\n      0x15a2f349\n      eq\n      tag_5\n      jumpi\n      dup1\n      0x1694505e\n      eq\n      tag_6\n      jumpi\n      dup1\n      0x18160ddd\n      eq\n      tag_7\n      jumpi\n      jump(tag_2)\n    tag_1:\n      jumpi(tag_2, calldatasize)\n      stop\n    tag_2:\n      0x00\n      dup1\n      revert\n        /* \"XODEX2.sol\":16145:16226  function name() public view returns (string memory) {... */\n    tag_3:\n      callvalue\n      dup1\n      iszero\n      tag_55\n      jumpi\n      0x00\n      dup1\n      revert\n    tag_55:\n      pop\n      tag_56\n      tag_57\n      jump\t// in\n    tag_56:\n      mload(0x40)\n      tag_58\n      swap2\n      swap1\n      tag_59\n      jump\t// in\n    tag_58:\n      mload(0x40)\n      dup1\n      swap2\n      sub\n      swap1\n      return\n        /* \"XODEX2.sol\":14076:14234  function approve(address spender, uint256 amount) public override returns (bool) {... */\n    tag_4:\n      callvalue\n      dup1\n      iszero\n      tag_60\n      jumpi\n      0x00\n      dup1\n      revert\n    tag_60:\n      pop\n      tag_61\n      0x04\n      dup1\n      calldatasize\n      sub\n      dup2\n      add\n      swap1\n      tag_62\n      swap2\n      swap1\n      tag_63\n      jump\t// in\n    tag_62:\n      tag_64\n      jump\t// in\n    tag_61:\n      mload(0x40)\n      tag_65\n      swap2\n      swap1\n      tag_66\n      jump\t// in\n    tag_65:\n      mload(0x40)\n      dup1\n      swap2\n      sub\n      swap1\n      return\n        /* \"XODEX2.sol\":19027:19244  function set_Max_TX_Percent(uint256 maxTxPercent_x100) external onlyOwner {... */\n    tag_5:\n      callvalue\n      dup1\n      iszero\n      tag_67\n      jumpi\n      0x00\n      dup1\n      revert\n    tag_67:\n      pop\n      tag_68\n      0x04\n      dup1\n      calldatasize\n      sub\n      dup2\n      add\n      swap1\n      tag_69\n      swap2\n      swap1\n      tag_70\n      jump\t// in\n    tag_69:\n      tag_71\n      jump\t// in\n    tag_68:\n      stop\n        /* \"XODEX2.sol\":12916:12957  IUniswapV2Router02 public uniswapV2Router */\n    tag_6:\n      callvalue\n      dup1\n      iszero\n      tag_72\n      jumpi\n      0x00\n      dup1\n      revert\n    tag_72:\n      pop\n      tag_73\n      tag_74\n      jump\t// in\n    tag_73:\n      mload(0x40)\n      tag_75\n      swap2\n      swap1\n      tag_76\n      jump\t// in\n    tag_75:\n      mload(0x40)\n      dup1\n      swap2\n      sub\n      swap1\n      return\n        /* \"XODEX2.sol\":19401:19494  function totalSupply() public view override returns (uint256) {... */\n    tag_7:\n      callvalue\n      dup1\n      iszero\n      tag_77\n      jumpi\n      0x00\n      dup1\n      revert\n    tag_77:\n      pop\n      tag_78\n      tag_79\n      jump\t// in\n    tag_78:\n      mload(0x40)\n      tag_80\n      swap2\n      swap1\n      tag_81\n      jump\t// in\n    tag_80:\n      mload(0x40)\n      dup1\n      swap2\n      sub\n      swap1\n      return\n        /* \"XODEX2.sol\":14240:14705  function blacklist_Wallets(address[] calldata addresses) external onlyOwner {... */\n    tag_8:\n      callvalue\n      dup1\n      iszero\n      tag_82\n      jumpi\n      0x00\n      dup1\n      revert\n    tag_82:\n      pop\n      tag_83\n      0x04\n      dup1\n      calldatasize\n      sub\n      dup2\n      add\n      swap1\n      tag_84\n      swap2\n      swap1\n      tag_85\n      jump\t// in\n    tag_84:\n      tag_86\n      jump\t// in\n    tag_83:\n      stop\n        /* \"XODEX2.sol\":11930:11976  mapping(address => bool) public _isBlacklisted */\n    tag_9:\n      callvalue\n      dup1\n      iszero\n      tag_87\n      jumpi\n      0x00\n      dup1\n      revert\n    tag_87:\n      pop\n      tag_88\n      0x04\n      dup1\n      calldatasize\n      sub\n      dup2\n      add\n      swap1\n      tag_89\n      swap2\n      swap1\n      tag_90\n      jump\t// in\n    tag_89:\n      tag_91\n      jump\t// in\n    tag_88:\n      mload(0x40)\n      tag_92\n      swap2\n      swap1\n      tag_66\n      jump\t// in\n    tag_92:\n      mload(0x40)\n      dup1\n      swap2\n      sub\n      swap1\n      return\n        /* \"XODEX2.sol\":19670:20055  function transferFrom(... */\n    tag_10:\n      callvalue\n      dup1\n      iszero\n      tag_93\n      jumpi\n      0x00\n      dup1\n      revert\n    tag_93:\n      pop\n      tag_94\n      0x04\n      dup1\n      calldatasize\n      sub\n      dup2\n      add\n      swap1\n      tag_95\n      swap2\n      swap1\n      tag_96\n      jump\t// in\n    tag_95:\n      tag_97\n      jump\t// in\n    tag_94:\n      mload(0x40)\n      tag_98\n      swap2\n      swap1\n      tag_66\n      jump\t// in\n    tag_98:\n      mload(0x40)\n      dup1\n      swap2\n      sub\n      swap1\n      return\n        /* \"XODEX2.sol\":12148:12171  bool public isBlackList */\n    tag_11:\n      callvalue\n      dup1\n      iszero\n      tag_99\n      jumpi\n      0x00\n      dup1\n      revert\n    tag_99:\n      pop\n      tag_100\n      tag_101\n      jump\t// in\n    tag_100:\n      mload(0x40)\n      tag_102\n      swap2\n      swap1\n      tag_66\n      jump\t// in\n    tag_102:\n      mload(0x40)\n      dup1\n      swap2\n      sub\n      swap1\n      return\n        /* \"XODEX2.sol\":12830:12869  uint256 public _TotalFee = _TransferFee */\n    tag_12:\n      callvalue\n      dup1\n      iszero\n      tag_103\n      jumpi\n      0x00\n      dup1\n      revert\n    tag_103:\n      pop\n      tag_104\n      tag_105\n      jump\t// in\n    tag_104:\n      mload(0x40)\n      tag_106\n      swap2\n      swap1\n      tag_81\n      jump\t// in\n    tag_106:\n      mload(0x40)\n      dup1\n      swap2\n      sub\n      swap1\n      return\n        /* \"XODEX2.sol\":16722:17341  function recover_Tokens(... */\n    tag_13:\n      callvalue\n      dup1\n      iszero\n      tag_107\n      jumpi\n      0x00\n      dup1\n      revert\n    tag_107:\n      pop\n      tag_108\n      0x04\n      dup1\n      calldatasize\n      sub\n      dup2\n      add\n      swap1\n      tag_109\n      swap2\n      swap1\n      tag_96\n      jump\t// in\n    tag_109:\n      tag_110\n      jump\t// in\n    tag_108:\n      mload(0x40)\n      tag_111\n      swap2\n      swap1\n      tag_66\n      jump\t// in\n    tag_111:\n      mload(0x40)\n      dup1\n      swap2\n      sub\n      swap1\n      return\n        /* \"XODEX2.sol\":15485:15566  function decimals() public view returns (uint8) {... */\n    tag_14:\n      callvalue\n      dup1\n      iszero\n      tag_112\n      jumpi\n      0x00\n      dup1\n      revert\n    tag_112:\n      pop\n      tag_113\n      tag_114\n      jump\t// in\n    tag_113:\n      mload(0x40)\n      tag_115\n      swap2\n      swap1\n      tag_116\n      jump\t// in\n    tag_115:\n      mload(0x40)\n      dup1\n      swap2\n      sub\n      swap1\n      return\n        /* \"XODEX2.sol\":15748:15963  function increaseAllowance(address spender, uint256 addedValue) public virtual returns (bool) {... */\n    tag_15:\n      callvalue\n      dup1\n      iszero\n      tag_117\n      jumpi\n      0x00\n      dup1\n      revert\n    tag_117:\n      pop\n      tag_118\n      0x04\n      dup1\n      calldatasize\n      sub\n      dup2\n      add\n      swap1\n      tag_119\n      swap2\n      swap1\n      tag_63\n      jump\t// in\n    tag_119:\n      tag_120\n      jump\t// in\n    tag_118:\n      mload(0x40)\n      tag_121\n      swap2\n      swap1\n      tag_66\n      jump\t// in\n    tag_121:\n      mload(0x40)\n      dup1\n      swap2\n      sub\n      swap1\n      return\n        /* \"XODEX2.sol\":20061:20528  function unBlacklist_Wallets(address[] calldata addresses) external onlyOwner {... */\n    tag_16:\n      callvalue\n      dup1\n      iszero\n      tag_122\n      jumpi\n      0x00\n      dup1\n      revert\n    tag_122:\n      pop\n      tag_123\n      0x04\n      dup1\n      calldatasize\n      sub\n      dup2\n      add\n      swap1\n      tag_124\n      swap2\n      swap1\n      tag_85\n      jump\t// in\n    tag_124:\n      tag_125\n      jump\t// in\n    tag_123:\n      stop\n        /* \"XODEX2.sol\":12765:12791  uint256 public _buyFee = 5 */\n    tag_17:\n      callvalue\n      dup1\n      iszero\n      tag_126\n      jumpi\n      0x00\n      dup1\n      revert\n    tag_126:\n      pop\n      tag_127\n      tag_128\n      jump\t// in\n    tag_127:\n      mload(0x40)\n      tag_129\n      swap2\n      swap1\n      tag_81\n      jump\t// in\n    tag_129:\n      mload(0x40)\n      dup1\n      swap2\n      sub\n      swap1\n      return\n        /* \"XODEX2.sol\":15572:15742  function excludeFromFee(address account) public onlyOwner {... */\n    tag_18:\n      callvalue\n      dup1\n      iszero\n      tag_130\n      jumpi\n      0x00\n      dup1\n      revert\n    tag_130:\n      pop\n      tag_131\n      0x04\n      dup1\n      calldatasize\n      sub\n      dup2\n      add\n      swap1\n      tag_132\n      swap2\n      swap1\n      tag_90\n      jump\t// in\n    tag_132:\n      tag_133\n      jump\t// in\n    tag_131:\n      stop\n        /* \"XODEX2.sol\":12727:12759  uint256 public _TransferFee = 10 */\n    tag_19:\n      callvalue\n      dup1\n      iszero\n      tag_134\n      jumpi\n      0x00\n      dup1\n      revert\n    tag_134:\n      pop\n      tag_135\n      tag_136\n      jump\t// in\n    tag_135:\n      mload(0x40)\n      tag_137\n      swap2\n      swap1\n      tag_81\n      jump\t// in\n    tag_137:\n      mload(0x40)\n      dup1\n      swap2\n      sub\n      swap1\n      return\n        /* \"XODEX2.sol\":12963:12991  address public uniswapV2Pair */\n    tag_20:\n      callvalue\n      dup1\n      iszero\n      tag_138\n      jumpi\n      0x00\n      dup1\n      revert\n    tag_138:\n      pop\n      tag_139\n      tag_140\n      jump\t// in\n    tag_139:\n      mload(0x40)\n      tag_141\n      swap2\n      swap1\n      tag_142\n      jump\t// in\n    tag_141:\n      mload(0x40)\n      dup1\n      swap2\n      sub\n      swap1\n      return\n        /* \"XODEX2.sol\":12511:12561  uint256 public _maxToken = _tTotal.mul(2).div(100) */\n    tag_21:\n      callvalue\n      dup1\n      iszero\n      tag_143\n      jumpi\n      0x00\n      dup1\n      revert\n    tag_143:\n      pop\n      tag_144\n      tag_145\n      jump\t// in\n    tag_144:\n      mload(0x40)\n      tag_146\n      swap2\n      swap1\n      tag_81\n      jump\t// in\n    tag_146:\n      mload(0x40)\n      dup1\n      swap2\n      sub\n      swap1\n      return\n        /* \"XODEX2.sol\":12797:12824  uint256 public _sellFee = 5 */\n    tag_22:\n      callvalue\n      dup1\n      iszero\n      tag_147\n      jumpi\n      0x00\n      dup1\n      revert\n    tag_147:\n      pop\n      tag_148\n      tag_149\n      jump\t// in\n    tag_148:\n      mload(0x40)\n      tag_150\n      swap2\n      swap1\n      tag_81\n      jump\t// in\n    tag_150:\n      mload(0x40)\n      dup1\n      swap2\n      sub\n      swap1\n      return\n        /* \"XODEX2.sol\":23883:24088  function _set_Fees(uint256 Buy_Fee, uint256 Sell_Fee) external onlyOwner {... */\n    tag_23:\n      callvalue\n      dup1\n      iszero\n      tag_151\n      jumpi\n      0x00\n      dup1\n      revert\n    tag_151:\n      pop\n      tag_152\n      0x04\n      dup1\n      calldatasize\n      sub\n      dup2\n      add\n      swap1\n      tag_153\n      swap2\n      swap1\n      tag_154\n      jump\t// in\n    tag_153:\n      tag_155\n      jump\t// in\n    tag_152:\n      stop\n        /* \"XODEX2.sol\":14824:14943  function balanceOf(address account) public view override returns (uint256) {... */\n    tag_24:\n      callvalue\n      dup1\n      iszero\n      tag_156\n      jumpi\n      0x00\n      dup1\n      revert\n    tag_156:\n      pop\n      tag_157\n      0x04\n      dup1\n      calldatasize\n      sub\n      dup2\n      add\n      swap1\n      tag_158\n      swap2\n      swap1\n      tag_90\n      jump\t// in\n    tag_158:\n      tag_159\n      jump\t// in\n    tag_157:\n      mload(0x40)\n      tag_160\n      swap2\n      swap1\n      tag_81\n      jump\t// in\n    tag_160:\n      mload(0x40)\n      dup1\n      swap2\n      sub\n      swap1\n      return\n        /* \"XODEX2.sol\":2572:2717  function renounceOwnership() public virtual onlyOwner {... */\n    tag_25:\n      callvalue\n      dup1\n      iszero\n      tag_161\n      jumpi\n      0x00\n      dup1\n      revert\n    tag_161:\n      pop\n      tag_162\n      tag_163\n      jump\t// in\n    tag_162:\n      stop\n        /* \"XODEX2.sol\":11874:11924  mapping(address => bool) public _isExcludedFromFee */\n    tag_26:\n      callvalue\n      dup1\n      iszero\n      tag_164\n      jumpi\n      0x00\n      dup1\n      revert\n    tag_164:\n      pop\n      tag_165\n      0x04\n      dup1\n      calldatasize\n      sub\n      dup2\n      add\n      swap1\n      tag_166\n      swap2\n      swap1\n      tag_90\n      jump\t// in\n    tag_166:\n      tag_167\n      jump\t// in\n    tag_165:\n      mload(0x40)\n      tag_168\n      swap2\n      swap1\n      tag_66\n      jump\t// in\n    tag_168:\n      mload(0x40)\n      dup1\n      swap2\n      sub\n      swap1\n      return\n        /* \"XODEX2.sol\":18665:18904  function set_Number_Of_Transactions_Before_Liquify_Trigger(uint8 number_of_transactions) public onlyOwner {... */\n    tag_27:\n      callvalue\n      dup1\n      iszero\n      tag_169\n      jumpi\n      0x00\n      dup1\n      revert\n    tag_169:\n      pop\n      tag_170\n      0x04\n      dup1\n      calldatasize\n      sub\n      dup2\n      add\n      swap1\n      tag_171\n      swap2\n      swap1\n      tag_172\n      jump\t// in\n    tag_171:\n      tag_173\n      jump\t// in\n    tag_170:\n      stop\n        /* \"XODEX2.sol\":12614:12667  uint256 public _maxTxAmount = _tTotal.mul(1).div(100) */\n    tag_28:\n      callvalue\n      dup1\n      iszero\n      tag_174\n      jumpi\n      0x00\n      dup1\n      revert\n    tag_174:\n      pop\n      tag_175\n      tag_176\n      jump\t// in\n    tag_175:\n      mload(0x40)\n      tag_177\n      swap2\n      swap1\n      tag_81\n      jump\t// in\n    tag_177:\n      mload(0x40)\n      dup1\n      swap2\n      sub\n      swap1\n      return\n        /* \"XODEX2.sol\":13025:13061  bool public swapAndLiqEnabled = true */\n    tag_29:\n      callvalue\n      dup1\n      iszero\n      tag_178\n      jumpi\n      0x00\n      dup1\n      revert\n    tag_178:\n      pop\n      tag_179\n      tag_180\n      jump\t// in\n    tag_179:\n      mload(0x40)\n      tag_181\n      swap2\n      swap1\n      tag_66\n      jump\t// in\n    tag_181:\n      mload(0x40)\n      dup1\n      swap2\n      sub\n      swap1\n      return\n        /* \"XODEX2.sol\":2268:2353  function owner() public view virtual returns (address) {... */\n    tag_30:\n      callvalue\n      dup1\n      iszero\n      tag_182\n      jumpi\n      0x00\n      dup1\n      revert\n    tag_182:\n      pop\n      tag_183\n      tag_184\n      jump\t// in\n    tag_183:\n      mload(0x40)\n      tag_185\n      swap2\n      swap1\n      tag_142\n      jump\t// in\n    tag_185:\n      mload(0x40)\n      dup1\n      swap2\n      sub\n      swap1\n      return\n        /* \"XODEX2.sol\":18385:18470  function symbol() public view returns (string memory) {... */\n    tag_31:\n      callvalue\n      dup1\n      iszero\n      tag_186\n      jumpi\n      0x00\n      dup1\n      revert\n    tag_186:\n      pop\n      tag_187\n      tag_188\n      jump\t// in\n    tag_187:\n      mload(0x40)\n      tag_189\n      swap2\n      swap1\n      tag_59\n      jump\t// in\n    tag_189:\n      mload(0x40)\n      dup1\n      swap2\n      sub\n      swap1\n      return\n        /* \"XODEX2.sol\":19250:19395  function set_Max_Wal_Percent(uint256 maxWallPercent_x100) external onlyOwner {... */\n    tag_32:\n      callvalue\n      dup1\n      iszero\n      tag_190\n      jumpi\n      0x00\n      dup1\n      revert\n    tag_190:\n      pop\n      tag_191\n      0x04\n      dup1\n      calldatasize\n      sub\n      dup2\n      add\n      swap1\n      tag_192\n      swap2\n      swap1\n      tag_70\n      jump\t// in\n    tag_192:\n      tag_193\n      jump\t// in\n    tag_191:\n      stop\n        /* \"XODEX2.sol\":14711:14818  function blacklist_Toggle(bool true_or_false) public onlyOwner {... */\n    tag_33:\n      callvalue\n      dup1\n      iszero\n      tag_194\n      jumpi\n      0x00\n      dup1\n      revert\n    tag_194:\n      pop\n      tag_195\n      0x04\n      dup1\n      calldatasize\n      sub\n      dup2\n      add\n      swap1\n      tag_196\n      swap2\n      swap1\n      tag_197\n      jump\t// in\n    tag_196:\n      tag_198\n      jump\t// in\n    tag_195:\n      stop\n        /* \"XODEX2.sol\":14949:15261  function decreaseAllowance(address spender, uint256 subtractedValue) public virtual returns (bool) {... */\n    tag_34:\n      callvalue\n      dup1\n      iszero\n      tag_199\n      jumpi\n      0x00\n      dup1\n      revert\n    tag_199:\n      pop\n      tag_200\n      0x04\n      dup1\n      calldatasize\n      sub\n      dup2\n      add\n      swap1\n      tag_201\n      swap2\n      swap1\n      tag_63\n      jump\t// in\n    tag_201:\n      tag_202\n      jump\t// in\n    tag_200:\n      mload(0x40)\n      tag_203\n      swap2\n      swap1\n      tag_66\n      jump\t// in\n    tag_203:\n      mload(0x40)\n      dup1\n      swap2\n      sub\n      swap1\n      return\n        /* \"XODEX2.sol\":19500:19664  function transfer(address recipient, uint256 amount) public override returns (bool) {... */\n    tag_35:\n      callvalue\n      dup1\n      iszero\n      tag_204\n      jumpi\n      0x00\n      dup1\n      revert\n    tag_204:\n      pop\n      tag_205\n      0x04\n      dup1\n      calldatasize\n      sub\n      dup2\n      add\n      swap1\n      tag_206\n      swap2\n      swap1\n      tag_63\n      jump\t// in\n    tag_206:\n      tag_207\n      jump\t// in\n    tag_205:\n      mload(0x40)\n      tag_208\n      swap2\n      swap1\n      tag_66\n      jump\t// in\n    tag_208:\n      mload(0x40)\n      dup1\n      swap2\n      sub\n      swap1\n      return\n        /* \"XODEX2.sol\":18910:19021  function set_TransferFees(bool true_or_false) external onlyOwner {... */\n    tag_36:\n      callvalue\n      dup1\n      iszero\n      tag_209\n      jumpi\n      0x00\n      dup1\n      revert\n    tag_209:\n      pop\n      tag_210\n      0x04\n      dup1\n      calldatasize\n      sub\n      dup2\n      add\n      swap1\n      tag_211\n      swap2\n      swap1\n      tag_197\n      jump\t// in\n    tag_211:\n      tag_212\n      jump\t// in\n    tag_210:\n      stop\n        /* \"XODEX2.sol\":12997:13019  bool public isSwapping */\n    tag_37:\n      callvalue\n      dup1\n      iszero\n      tag_213\n      jumpi\n      0x00\n      dup1\n      revert\n    tag_213:\n      pop\n      tag_214\n      tag_215\n      jump\t// in\n    tag_214:\n      mload(0x40)\n      tag_216\n      swap2\n      swap1\n      tag_66\n      jump\t// in\n    tag_216:\n      mload(0x40)\n      dup1\n      swap2\n      sub\n      swap1\n      return\n        /* \"XODEX2.sol\":24094:24275  function _set_Transfer_Fee(uint256 Transfer_Fee) external onlyOwner {... */\n    tag_38:\n      callvalue\n      dup1\n      iszero\n      tag_217\n      jumpi\n      0x00\n      dup1\n      revert\n    tag_217:\n      pop\n      tag_218\n      0x04\n      dup1\n      calldatasize\n      sub\n      dup2\n      add\n      swap1\n      tag_219\n      swap2\n      swap1\n      tag_70\n      jump\t// in\n    tag_219:\n      tag_220\n      jump\t// in\n    tag_218:\n      stop\n        /* \"XODEX2.sol\":12877:12909  bool public noTransferFee = true */\n    tag_39:\n      callvalue\n      dup1\n      iszero\n      tag_221\n      jumpi\n      0x00\n      dup1\n      revert\n    tag_221:\n      pop\n      tag_222\n      tag_223\n      jump\t// in\n    tag_222:\n      mload(0x40)\n      tag_224\n      swap2\n      swap1\n      tag_66\n      jump\t// in\n    tag_224:\n      mload(0x40)\n      dup1\n      swap2\n      sub\n      swap1\n      return\n        /* \"XODEX2.sol\":16232:16716  function process_Tokens(uint256 percent_Of_Tokens_To_Process) public onlyOwner {... */\n    tag_40:\n      callvalue\n      dup1\n      iszero\n      tag_225\n      jumpi\n      0x00\n      dup1\n      revert\n    tag_225:\n      pop\n      tag_226\n      0x04\n      dup1\n      calldatasize\n      sub\n      dup2\n      add\n      swap1\n      tag_227\n      swap2\n      swap1\n      tag_70\n      jump\t// in\n    tag_227:\n      tag_228\n      jump\t// in\n    tag_226:\n      stop\n        /* \"XODEX2.sol\":13929:14070  function allowance(address owner, address spender) public view override returns (uint256) {... */\n    tag_41:\n      callvalue\n      dup1\n      iszero\n      tag_229\n      jumpi\n      0x00\n      dup1\n      revert\n    tag_229:\n      pop\n      tag_230\n      0x04\n      dup1\n      calldatasize\n      sub\n      dup2\n      add\n      swap1\n      tag_231\n      swap2\n      swap1\n      tag_232\n      jump\t// in\n    tag_231:\n      tag_233\n      jump\t// in\n    tag_230:\n      mload(0x40)\n      tag_234\n      swap2\n      swap1\n      tag_81\n      jump\t// in\n    tag_234:\n      mload(0x40)\n      dup1\n      swap2\n      sub\n      swap1\n      return\n        /* \"XODEX2.sol\":15969:16139  function includeInFee(address account) public onlyOwner {... */\n    tag_42:\n      callvalue\n      dup1\n      iszero\n      tag_235\n      jumpi\n      0x00\n      dup1\n      revert\n    tag_235:\n      pop\n      tag_236\n      0x04\n      dup1\n      calldatasize\n      sub\n      dup2\n      add\n      swap1\n      tag_237\n      swap2\n      swap1\n      tag_90\n      jump\t// in\n    tag_237:\n      tag_238\n      jump\t// in\n    tag_236:\n      stop\n        /* \"XODEX2.sol\":2770:3010  function transferOwnership(address newOwner) public virtual onlyOwner {... */\n    tag_43:\n      callvalue\n      dup1\n      iszero\n      tag_239\n      jumpi\n      0x00\n      dup1\n      revert\n    tag_239:\n      pop\n      tag_240\n      0x04\n      dup1\n      calldatasize\n      sub\n      dup2\n      add\n      swap1\n      tag_241\n      swap2\n      swap1\n      tag_90\n      jump\t// in\n    tag_241:\n      tag_242\n      jump\t// in\n    tag_240:\n      stop\n        /* \"XODEX2.sol\":15267:15479  function Update__Dev_Wallet(address payable wallet) public onlyOwner {... */\n    tag_44:\n      callvalue\n      dup1\n      iszero\n      tag_243\n      jumpi\n      0x00\n      dup1\n      revert\n    tag_243:\n      pop\n      tag_244\n      0x04\n      dup1\n      calldatasize\n      sub\n      dup2\n      add\n      swap1\n      tag_245\n      swap2\n      swap1\n      tag_246\n      jump\t// in\n    tag_245:\n      tag_247\n      jump\t// in\n    tag_244:\n      stop\n        /* \"XODEX2.sol\":18476:18659  function set_Swap_And_Liquify_Enabled(bool true_or_false) public onlyOwner {... */\n    tag_45:\n      callvalue\n      dup1\n      iszero\n      tag_248\n      jumpi\n      0x00\n      dup1\n      revert\n    tag_248:\n      pop\n      tag_249\n      0x04\n      dup1\n      calldatasize\n      sub\n      dup2\n      add\n      swap1\n      tag_250\n      swap2\n      swap1\n      tag_197\n      jump\t// in\n    tag_250:\n      tag_251\n      jump\t// in\n    tag_249:\n      stop\n        /* \"XODEX2.sol\":16145:16226  function name() public view returns (string memory) {... */\n    tag_57:\n        /* \"XODEX2.sol\":16182:16195  string memory */\n      0x60\n        /* \"XODEX2.sol\":16214:16219  _name */\n      mload(0x40)\n      dup1\n      0x40\n      add\n      0x40\n      mstore\n      dup1\n      0x05\n      dup2\n      mstore\n      0x20\n      add\n      0x584f444558000000000000000000000000000000000000000000000000000000\n      dup2\n      mstore\n      pop\n        /* \"XODEX2.sol\":16207:16219  return _name */\n      swap1\n      pop\n        /* \"XODEX2.sol\":16145:16226  function name() public view returns (string memory) {... */\n      swap1\n      jump\t// out\n        /* \"XODEX2.sol\":14076:14234  function approve(address spender, uint256 amount) public override returns (bool) {... */\n    tag_64:\n        /* \"XODEX2.sol\":14151:14155  bool */\n      0x00\n        /* \"XODEX2.sol\":14167:14206  _approve(_msgSender(), spender, amount) */\n      tag_256\n        /* \"XODEX2.sol\":14176:14188  _msgSender() */\n      tag_257\n        /* \"XODEX2.sol\":14176:14186  _msgSender */\n      tag_258\n        /* \"XODEX2.sol\":14176:14188  _msgSender() */\n      jump\t// in\n    tag_257:\n        /* \"XODEX2.sol\":14190:14197  spender */\n      dup5\n        /* \"XODEX2.sol\":14199:14205  amount */\n      dup5\n        /* \"XODEX2.sol\":14167:14175  _approve */\n      tag_259\n        /* \"XODEX2.sol\":14167:14206  _approve(_msgSender(), spender, amount) */\n      jump\t// in\n    tag_256:\n        /* \"XODEX2.sol\":14223:14227  true */\n      0x01\n        /* \"XODEX2.sol\":14216:14227  return true */\n      swap1\n      pop\n        /* \"XODEX2.sol\":14076:14234  function approve(address spender, uint256 amount) public override returns (bool) {... */\n      swap3\n      swap2\n      pop\n      pop\n      jump\t// out\n        /* \"XODEX2.sol\":19027:19244  function set_Max_TX_Percent(uint256 maxTxPercent_x100) external onlyOwner {... */\n    tag_71:\n        /* \"XODEX2.sol\":2457:2469  _msgSender() */\n      tag_261\n        /* \"XODEX2.sol\":2457:2467  _msgSender */\n      tag_258\n        /* \"XODEX2.sol\":2457:2469  _msgSender() */\n      jump\t// in\n    tag_261:\n        /* \"XODEX2.sol\":2446:2469  owner() == _msgSender() */\n      0xffffffffffffffffffffffffffffffffffffffff\n      and\n        /* \"XODEX2.sol\":2446:2453  owner() */\n      tag_262\n        /* \"XODEX2.sol\":2446:2451  owner */\n      tag_184\n        /* \"XODEX2.sol\":2446:2453  owner() */\n      jump\t// in\n    tag_262:\n        /* \"XODEX2.sol\":2446:2469  owner() == _msgSender() */\n      0xffffffffffffffffffffffffffffffffffffffff\n      and\n      eq\n        /* \"XODEX2.sol\":2438:2506  require(owner() == _msgSender(), \"Ownable: caller is not the owner\") */\n      tag_263\n      jumpi\n      mload(0x40)\n      0x08c379a000000000000000000000000000000000000000000000000000000000\n      dup2\n      mstore\n      0x04\n      add\n      tag_264\n      swap1\n      tag_265\n      jump\t// in\n    tag_264:\n      mload(0x40)\n      dup1\n      swap2\n      sub\n      swap1\n      revert\n    tag_263:\n        /* \"XODEX2.sol\":19139:19140  0 */\n      0x00\n        /* \"XODEX2.sol\":19119:19136  maxTxPercent_x100 */\n      dup2\n        /* \"XODEX2.sol\":19119:19140  maxTxPercent_x100 > 0 */\n      gt\n        /* \"XODEX2.sol\":19111:19175  require(maxTxPercent_x100 > 0, \"Minimum must be greater than 0\") */\n      tag_267\n      jumpi\n      mload(0x40)\n      0x08c379a000000000000000000000000000000000000000000000000000000000\n      dup2\n      mstore\n      0x04\n      add\n      tag_268\n      swap1\n      tag_269\n      jump\t// in\n    tag_268:\n      mload(0x40)\n      dup1\n      swap2\n      sub\n      swap1\n      revert\n    tag_267:\n        /* \"XODEX2.sol\":19232:19237  10000 */\n      0x2710\n        /* \"XODEX2.sol\":19211:19228  maxTxPercent_x100 */\n      dup2\n        /* \"XODEX2.sol\":12121:12141  10000000000 * 10**18 */\n      0x204fce5e3e25026110000000\n        /* \"XODEX2.sol\":19201:19228  _tTotal * maxTxPercent_x100 */\n      tag_270\n      swap2\n      swap1\n      tag_271\n      jump\t// in\n    tag_270:\n        /* \"XODEX2.sol\":19200:19237  (_tTotal * maxTxPercent_x100) / 10000 */\n      tag_272\n      swap2\n      swap1\n      tag_273\n      jump\t// in\n    tag_272:\n        /* \"XODEX2.sol\":19185:19197  _maxTxAmount */\n      0x09\n        /* \"XODEX2.sol\":19185:19237  _maxTxAmount = (_tTotal * maxTxPercent_x100) / 10000 */\n      dup2\n      swap1\n      sstore\n      pop\n        /* \"XODEX2.sol\":19027:19244  function set_Max_TX_Percent(uint256 maxTxPercent_x100) external onlyOwner {... */\n      pop\n      jump\t// out\n        /* \"XODEX2.sol\":12916:12957  IUniswapV2Router02 public uniswapV2Router */\n    tag_74:\n      0x0f\n      0x01\n      swap1\n      sload\n      swap1\n      0x0100\n      exp\n      swap1\n      div\n      0xffffffffffffffffffffffffffffffffffffffff\n      and\n      dup2\n      jump\t// out\n        /* \"XODEX2.sol\":19401:19494  function totalSupply() public view override returns (uint256) {... */\n    tag_79:\n        /* \"XODEX2.sol\":19454:19461  uint256 */\n      0x00\n        /* \"XODEX2.sol\":12121:12141  10000000000 * 10**18 */\n      0x204fce5e3e25026110000000\n        /* \"XODEX2.sol\":19473:19487  return _tTotal */\n      swap1\n      pop\n        /* \"XODEX2.sol\":19401:19494  function totalSupply() public view override returns (uint256) {... */\n      swap1\n      jump\t// out\n        /* \"XODEX2.sol\":14240:14705  function blacklist_Wallets(address[] calldata addresses) external onlyOwner {... */\n    tag_86:\n        /* \"XODEX2.sol\":2457:2469  _msgSender() */\n      tag_276\n        /* \"XODEX2.sol\":2457:2467  _msgSender */\n      tag_258\n        /* \"XODEX2.sol\":2457:2469  _msgSender() */\n      jump\t// in\n    tag_276:\n        /* \"XODEX2.sol\":2446:2469  owner() == _msgSender() */\n      0xffffffffffffffffffffffffffffffffffffffff\n      and\n        /* \"XODEX2.sol\":2446:2453  owner() */\n      tag_277\n        /* \"XODEX2.sol\":2446:2451  owner */\n      tag_184\n        /* \"XODEX2.sol\":2446:2453  owner() */\n      jump\t// in\n    tag_277:\n        /* \"XODEX2.sol\":2446:2469  owner() == _msgSender() */\n      0xffffffffffffffffffffffffffffffffffffffff\n      and\n      eq\n        /* \"XODEX2.sol\":2438:2506  require(owner() == _msgSender(), \"Ownable: caller is not the owner\") */\n      tag_278\n      jumpi\n      mload(0x40)\n      0x08c379a000000000000000000000000000000000000000000000000000000000\n      dup2\n      mstore\n      0x04\n      add\n      tag_279\n      swap1\n      tag_265\n      jump\t// in\n    tag_279:\n      mload(0x40)\n      dup1\n      swap2\n      sub\n      swap1\n      revert\n    tag_278:\n        /* \"XODEX2.sol\":14326:14342  uint256 startGas */\n      0x00\n        /* \"XODEX2.sol\":14352:14367  uint256 gasUsed */\n      dup1\n        /* \"XODEX2.sol\":14383:14392  uint256 i */\n      0x00\n        /* \"XODEX2.sol\":14378:14699  for (uint256 i; i < addresses.length; ++i) {... */\n    tag_281:\n        /* \"XODEX2.sol\":14398:14407  addresses */\n      dup5\n      dup5\n        /* \"XODEX2.sol\":14398:14414  addresses.length */\n      swap1\n      pop\n        /* \"XODEX2.sol\":14394:14395  i */\n      dup2\n        /* \"XODEX2.sol\":14394:14414  i < addresses.length */\n      lt\n        /* \"XODEX2.sol\":14378:14699  for (uint256 i; i < addresses.length; ++i) {... */\n      iszero\n      tag_282\n      jumpi\n        /* \"XODEX2.sol\":14449:14458  gasleft() */\n      gas\n        /* \"XODEX2.sol\":14439:14446  gasUsed */\n      dup3\n        /* \"XODEX2.sol\":14439:14458  gasUsed < gasleft() */\n      lt\n        /* \"XODEX2.sol\":14435:14689  if (gasUsed < gasleft()) {... */\n      iszero\n      tag_284\n      jumpi\n        /* \"XODEX2.sol\":14489:14498  gasleft() */\n      gas\n        /* \"XODEX2.sol\":14478:14498  startGas = gasleft() */\n      swap3\n      pop\n        /* \"XODEX2.sol\":14521:14535  _isBlacklisted */\n      0x04\n        /* \"XODEX2.sol\":14521:14549  _isBlacklisted[addresses[i]] */\n      0x00\n        /* \"XODEX2.sol\":14536:14545  addresses */\n      dup7\n      dup7\n        /* \"XODEX2.sol\":14546:14547  i */\n      dup5\n        /* \"XODEX2.sol\":14536:14548  addresses[i] */\n      dup2\n      dup2\n      lt\n      tag_285\n      jumpi\n      tag_286\n      tag_287\n      jump\t// in\n    tag_286:\n    tag_285:\n      swap1\n      pop\n      0x20\n      mul\n      add\n      0x20\n      dup2\n      add\n      swap1\n      tag_288\n      swap2\n      swap1\n      tag_90\n      jump\t// in\n    tag_288:\n        /* \"XODEX2.sol\":14521:14549  _isBlacklisted[addresses[i]] */\n      0xffffffffffffffffffffffffffffffffffffffff\n      and\n      0xffffffffffffffffffffffffffffffffffffffff\n      and\n      dup2\n      mstore\n      0x20\n      add\n      swap1\n      dup2\n      mstore\n      0x20\n      add\n      0x00\n      keccak256\n      0x00\n      swap1\n      sload\n      swap1\n      0x0100\n      exp\n      swap1\n      div\n      0xff\n      and\n        /* \"XODEX2.sol\":14516:14627  if (!_isBlacklisted[addresses[i]]) {... */\n      tag_289\n      jumpi\n        /* \"XODEX2.sol\":14604:14608  true */\n      0x01\n        /* \"XODEX2.sol\":14573:14587  _isBlacklisted */\n      0x04\n        /* \"XODEX2.sol\":14573:14601  _isBlacklisted[addresses[i]] */\n      0x00\n        /* \"XODEX2.sol\":14588:14597  addresses */\n      dup8\n      dup8\n        /* \"XODEX2.sol\":14598:14599  i */\n      dup6\n        /* \"XODEX2.sol\":14588:14600  addresses[i] */\n      dup2\n      dup2\n      lt\n      tag_290\n      jumpi\n      tag_291\n      tag_287\n      jump\t// in\n    tag_291:\n    tag_290:\n      swap1\n      pop\n      0x20\n      mul\n      add\n      0x20\n      dup2\n      add\n      swap1\n      tag_292\n      swap2\n      swap1\n      tag_90\n      jump\t// in\n    tag_292:\n        /* \"XODEX2.sol\":14573:14601  _isBlacklisted[addresses[i]] */\n      0xffffffffffffffffffffffffffffffffffffffff\n      and\n      0xffffffffffffffffffffffffffffffffffffffff\n      and\n      dup2\n      mstore\n      0x20\n      add\n      swap1\n      dup2\n      mstore\n      0x20\n      add\n      0x00\n      keccak256\n      0x00\n        /* \"XODEX2.sol\":14573:14608  _isBlacklisted[addresses[i]] = true */\n      0x0100\n      exp\n      dup2\n      sload\n      dup2\n      0xff\n      mul\n      not\n      and\n      swap1\n      dup4\n      iszero\n      iszero\n      mul\n      or\n      swap1\n      sstore\n      pop\n        /* \"XODEX2.sol\":14516:14627  if (!_isBlacklisted[addresses[i]]) {... */\n    tag_289:\n        /* \"XODEX2.sol\":14665:14674  gasleft() */\n      gas\n        /* \"XODEX2.sol\":14654:14662  startGas */\n      dup4\n        /* \"XODEX2.sol\":14654:14674  startGas - gasleft() */\n      tag_293\n      swap2\n      swap1\n      tag_294\n      jump\t// in\n    tag_293:\n        /* \"XODEX2.sol\":14644:14674  gasUsed = startGas - gasleft() */\n      swap2\n      pop\n        /* \"XODEX2.sol\":14435:14689  if (gasUsed < gasleft()) {... */\n    tag_284:\n        /* \"XODEX2.sol\":14416:14419  ++i */\n      dup1\n      tag_295\n      swap1\n      tag_296\n      jump\t// in\n    tag_295:\n      swap1\n      pop\n        /* \"XODEX2.sol\":14378:14699  for (uint256 i; i < addresses.length; ++i) {... */\n      jump(tag_281)\n    tag_282:\n      pop\n        /* \"XODEX2.sol\":14316:14705  {... */\n      pop\n      pop\n        /* \"XODEX2.sol\":14240:14705  function blacklist_Wallets(address[] calldata addresses) external onlyOwner {... */\n      pop\n      pop\n      jump\t// out\n        /* \"XODEX2.sol\":11930:11976  mapping(address => bool) public _isBlacklisted */\n    tag_91:\n      mstore(0x20, 0x04)\n      dup1\n      0x00\n      mstore\n      keccak256(0x00, 0x40)\n      0x00\n      swap2\n      pop\n      sload\n      swap1\n      0x0100\n      exp\n      swap1\n      div\n      0xff\n      and\n      dup2\n      jump\t// out\n        /* \"XODEX2.sol\":19670:20055  function transferFrom(... */\n    tag_97:\n        /* \"XODEX2.sol\":19798:19802  bool */\n      0x00\n        /* \"XODEX2.sol\":19814:19850  _transfer(sender, recipient, amount) */\n      tag_298\n        /* \"XODEX2.sol\":19824:19830  sender */\n      dup5\n        /* \"XODEX2.sol\":19832:19841  recipient */\n      dup5\n        /* \"XODEX2.sol\":19843:19849  amount */\n      dup5\n        /* \"XODEX2.sol\":19814:19823  _transfer */\n      tag_299\n        /* \"XODEX2.sol\":19814:19850  _transfer(sender, recipient, amount) */\n      jump\t// in\n    tag_298:\n        /* \"XODEX2.sol\":19860:20027  _approve(... */\n      tag_300\n        /* \"XODEX2.sol\":19882:19888  sender */\n      dup5\n        /* \"XODEX2.sol\":19902:19914  _msgSender() */\n      tag_301\n        /* \"XODEX2.sol\":19902:19912  _msgSender */\n      tag_258\n        /* \"XODEX2.sol\":19902:19914  _msgSender() */\n      jump\t// in\n    tag_301:\n        /* \"XODEX2.sol\":19928:20017  _allowances[sender][_msgSender()].sub(amount, \"ERC20: transfer amount exceeds allowance\") */\n      tag_302\n        /* \"XODEX2.sol\":19966:19972  amount */\n      dup6\n        /* \"XODEX2.sol\":19928:20017  _allowances[sender][_msgSender()].sub(amount, \"ERC20: transfer amount exceeds allowance\") */\n      mload(0x40)\n      dup1\n      0x60\n      add\n      0x40\n      mstore\n      dup1\n      0x28\n      dup2\n      mstore\n      0x20\n      add\n      data_974d1b4421da69cc60b481194f0dad36a5bb4e23da810da7a7fb30cdba178330\n      0x28\n      swap2\n      codecopy\n        /* \"XODEX2.sol\":19928:19939  _allowances */\n      0x02\n        /* \"XODEX2.sol\":19928:19947  _allowances[sender] */\n      0x00\n        /* \"XODEX2.sol\":19940:19946  sender */\n      dup12\n        /* \"XODEX2.sol\":19928:19947  _allowances[sender] */\n      0xffffffffffffffffffffffffffffffffffffffff\n      and\n      0xffffffffffffffffffffffffffffffffffffffff\n      and\n      dup2\n      mstore\n      0x20\n      add\n      swap1\n      dup2\n      mstore\n      0x20\n      add\n      0x00\n      keccak256\n        /* \"XODEX2.sol\":19928:19961  _allowances[sender][_msgSender()] */\n      0x00\n        /* \"XODEX2.sol\":19948:19960  _msgSender() */\n      tag_303\n        /* \"XODEX2.sol\":19948:19958  _msgSender */\n      tag_258\n        /* \"XODEX2.sol\":19948:19960  _msgSender() */\n      jump\t// in\n    tag_303:\n        /* \"XODEX2.sol\":19928:19961  _allowances[sender][_msgSender()] */\n      0xffffffffffffffffffffffffffffffffffffffff\n      and\n      0xffffffffffffffffffffffffffffffffffffffff\n      and\n      dup2\n      mstore\n      0x20\n      add\n      swap1\n      dup2\n      mstore\n      0x20\n      add\n      0x00\n      keccak256\n      sload\n        /* \"XODEX2.sol\":19928:19965  _allowances[sender][_msgSender()].sub */\n      tag_304\n      swap1\n        /* \"XODEX2.sol\":19928:20017  _allowances[sender][_msgSender()].sub(amount, \"ERC20: transfer amount exceeds allowance\") */\n      swap3\n      swap2\n      swap1\n      0xffffffff\n      and\n      jump\t// in\n    tag_302:\n        /* \"XODEX2.sol\":19860:19868  _approve */\n      tag_259\n        /* \"XODEX2.sol\":19860:20027  _approve(... */\n      jump\t// in\n    tag_300:\n        /* \"XODEX2.sol\":20044:20048  true */\n      0x01\n        /* \"XODEX2.sol\":20037:20048  return true */\n      swap1\n      pop\n        /* \"XODEX2.sol\":19670:20055  function transferFrom(... */\n      swap4\n      swap3\n      pop\n      pop\n      pop\n      jump\t// out\n        /* \"XODEX2.sol\":12148:12171  bool public isBlackList */\n    tag_101:\n      0x05\n      0x00\n      swap1\n      sload\n      swap1\n      0x0100\n      exp\n      swap1\n      div\n      0xff\n      and\n      dup2\n      jump\t// out\n        /* \"XODEX2.sol\":12830:12869  uint256 public _TotalFee = _TransferFee */\n    tag_105:\n      sload(0x0e)\n      dup2\n      jump\t// out\n        /* \"XODEX2.sol\":16722:17341  function recover_Tokens(... */\n    tag_110:\n        /* \"XODEX2.sol\":16875:16885  bool _sent */\n      0x00\n        /* \"XODEX2.sol\":2457:2469  _msgSender() */\n      tag_306\n        /* \"XODEX2.sol\":2457:2467  _msgSender */\n      tag_258\n        /* \"XODEX2.sol\":2457:2469  _msgSender() */\n      jump\t// in\n    tag_306:\n        /* \"XODEX2.sol\":2446:2469  owner() == _msgSender() */\n      0xffffffffffffffffffffffffffffffffffffffff\n      and\n        /* \"XODEX2.sol\":2446:2453  owner() */\n      tag_307\n        /* \"XODEX2.sol\":2446:2451  owner */\n      tag_184\n        /* \"XODEX2.sol\":2446:2453  owner() */\n      jump\t// in\n    tag_307:\n        /* \"XODEX2.sol\":2446:2469  owner() == _msgSender() */\n      0xffffffffffffffffffffffffffffffffffffffff\n      and\n      eq\n        /* \"XODEX2.sol\":2438:2506  require(owner() == _msgSender(), \"Ownable: caller is not the owner\") */\n      tag_308\n      jumpi\n      mload(0x40)\n      0x08c379a000000000000000000000000000000000000000000000000000000000\n      dup2\n      mstore\n      0x04\n      add\n      tag_309\n      swap1\n      tag_265\n      jump\t// in\n    tag_309:\n      mload(0x40)\n      dup1\n      swap2\n      sub\n      swap1\n      revert\n    tag_308:\n        /* \"XODEX2.sol\":16930:16931  0 */\n      0x00\n        /* \"XODEX2.sol\":16905:16932  Token_Address != address(0) */\n      0xffffffffffffffffffffffffffffffffffffffff\n      and\n        /* \"XODEX2.sol\":16905:16918  Token_Address */\n      dup5\n        /* \"XODEX2.sol\":16905:16932  Token_Address != address(0) */\n      0xffffffffffffffffffffffffffffffffffffffff\n      and\n      eq\n      iszero\n        /* \"XODEX2.sol\":16905:16964  Token_Address != address(0) && send_to_wallet != address(0) */\n      dup1\n      iszero\n      tag_311\n      jumpi\n      pop\n        /* \"XODEX2.sol\":16962:16963  0 */\n      0x00\n        /* \"XODEX2.sol\":16936:16964  send_to_wallet != address(0) */\n      0xffffffffffffffffffffffffffffffffffffffff\n      and\n        /* \"XODEX2.sol\":16936:16950  send_to_wallet */\n      dup4\n        /* \"XODEX2.sol\":16936:16964  send_to_wallet != address(0) */\n      0xffffffffffffffffffffffffffffffffffffffff\n      and\n      eq\n      iszero\n        /* \"XODEX2.sol\":16905:16964  Token_Address != address(0) && send_to_wallet != address(0) */\n    tag_311:\n        /* \"XODEX2.sol\":16897:16986  require(Token_Address != address(0) && send_to_wallet != address(0), \"ERR: zero address\") */\n      tag_312\n      jumpi\n      mload(0x40)\n      0x08c379a000000000000000000000000000000000000000000000000000000000\n      dup2\n      mstore\n      0x04\n      add\n      tag_313\n      swap1\n      tag_314\n      jump\t// in\n    tag_313:\n      mload(0x40)\n      dup1\n      swap2\n      sub\n      swap1\n      revert\n    tag_312:\n        /* \"XODEX2.sol\":17029:17033  this */\n      address\n        /* \"XODEX2.sol\":17004:17034  Token_Address != address(this) */\n      0xffffffffffffffffffffffffffffffffffffffff\n      and\n        /* \"XODEX2.sol\":17004:17017  Token_Address */\n      dup5\n        /* \"XODEX2.sol\":17004:17034  Token_Address != address(this) */\n      0xffffffffffffffffffffffffffffffffffffffff\n      and\n      sub\n        /* \"XODEX2.sol\":16996:17066  require(Token_Address != address(this), \"Can not remove native token\") */\n      tag_315\n      jumpi\n      mload(0x40)\n      0x08c379a000000000000000000000000000000000000000000000000000000000\n      dup2\n      mstore\n      0x04\n      add\n      tag_316\n      swap1\n      tag_317\n      jump\t// in\n    tag_316:\n      mload(0x40)\n      dup1\n      swap2\n      sub\n      swap1\n      revert\n    tag_315:\n        /* \"XODEX2.sol\":17078:17099  uint256 randomBalance */\n      0x00\n        /* \"XODEX2.sol\":17109:17122  Token_Address */\n      dup5\n        /* \"XODEX2.sol\":17102:17133  IERC20(Token_Address).balanceOf */\n      0xffffffffffffffffffffffffffffffffffffffff\n      and\n      0x70a08231\n        /* \"XODEX2.sol\":17142:17146  this */\n      address\n        /* \"XODEX2.sol\":17102:17148  IERC20(Token_Address).balanceOf(address(this)) */\n      mload(0x40)\n      dup3\n      0xffffffff\n      and\n      0xe0\n      shl\n      dup2\n      mstore\n      0x04\n      add\n      tag_318\n      swap2\n      swap1\n      tag_142\n      jump\t// in\n    tag_318:\n      0x20\n      mload(0x40)\n      dup1\n      dup4\n      sub\n      dup2\n      dup7\n      gas\n      staticcall\n      iszero\n      dup1\n      iszero\n      tag_320\n      jumpi\n      returndatasize\n      0x00\n      dup1\n      returndatacopy\n      revert(0x00, returndatasize)\n    tag_320:\n      pop\n      pop\n      pop\n      pop\n      mload(0x40)\n      returndatasize\n      not(0x1f)\n      0x1f\n      dup3\n      add\n      and\n      dup3\n      add\n      dup1\n      0x40\n      mstore\n      pop\n      dup2\n      add\n      swap1\n      tag_321\n      swap2\n      swap1\n      tag_322\n      jump\t// in\n    tag_321:\n        /* \"XODEX2.sol\":17078:17148  uint256 randomBalance = IERC20(Token_Address).balanceOf(address(this)) */\n      swap1\n      pop\n        /* \"XODEX2.sol\":17181:17194  randomBalance */\n      dup1\n        /* \"XODEX2.sol\":17162:17178  number_of_tokens */\n      dup4\n        /* \"XODEX2.sol\":17162:17194  number_of_tokens > randomBalance */\n      gt\n        /* \"XODEX2.sol\":17158:17253  if (number_of_tokens > randomBalance) {... */\n      iszero\n      tag_323\n      jumpi\n        /* \"XODEX2.sol\":17229:17242  randomBalance */\n      dup1\n        /* \"XODEX2.sol\":17210:17242  number_of_tokens = randomBalance */\n      swap3\n      pop\n        /* \"XODEX2.sol\":17158:17253  if (number_of_tokens > randomBalance) {... */\n    tag_323:\n        /* \"XODEX2.sol\":17277:17290  Token_Address */\n      dup5\n        /* \"XODEX2.sol\":17270:17300  IERC20(Token_Address).transfer */\n      0xffffffffffffffffffffffffffffffffffffffff\n      and\n      0xa9059cbb\n        /* \"XODEX2.sol\":17301:17315  send_to_wallet */\n      dup6\n        /* \"XODEX2.sol\":17317:17333  number_of_tokens */\n      dup6\n        /* \"XODEX2.sol\":17270:17334  IERC20(Token_Address).transfer(send_to_wallet, number_of_tokens) */\n      mload(0x40)\n      dup4\n      0xffffffff\n      and\n      0xe0\n      shl\n      dup2\n      mstore\n      0x04\n      add\n      tag_324\n      swap3\n      swap2\n      swap1\n      tag_325\n      jump\t// in\n    tag_324:\n      0x20\n      mload(0x40)\n      dup1\n      dup4\n      sub\n      dup2\n      0x00\n      dup8\n      gas\n      call\n      iszero\n      dup1\n      iszero\n      tag_327\n      jumpi\n      returndatasize\n      0x00\n      dup1\n      returndatacopy\n      revert(0x00, returndatasize)\n    tag_327:\n      pop\n      pop\n      pop\n      pop\n      mload(0x40)\n      returndatasize\n      not(0x1f)\n      0x1f\n      dup3\n      add\n      and\n      dup3\n      add\n      dup1\n      0x40\n      mstore\n      pop\n      dup2\n      add\n      swap1\n      tag_328\n      swap2\n      swap1\n      tag_329\n      jump\t// in\n    tag_328:\n        /* \"XODEX2.sol\":17262:17334  _sent = IERC20(Token_Address).transfer(send_to_wallet, number_of_tokens) */\n      swap2\n      pop\n        /* \"XODEX2.sol\":16887:17341  {... */\n      pop\n        /* \"XODEX2.sol\":16722:17341  function recover_Tokens(... */\n      swap4\n      swap3\n      pop\n      pop\n      pop\n      jump\t// out\n        /* \"XODEX2.sol\":15485:15566  function decimals() public view returns (uint8) {... */\n    tag_114:\n        /* \"XODEX2.sol\":15526:15531  uint8 */\n      0x00\n        /* \"XODEX2.sol\":12086:12088  18 */\n      0x12\n        /* \"XODEX2.sol\":15543:15559  return _decimals */\n      swap1\n      pop\n        /* \"XODEX2.sol\":15485:15566  function decimals() public view returns (uint8) {... */\n      swap1\n      jump\t// out\n        /* \"XODEX2.sol\":15748:15963  function increaseAllowance(address spender, uint256 addedValue) public virtual returns (bool) {... */\n    tag_120:\n        /* \"XODEX2.sol\":15836:15840  bool */\n      0x00\n        /* \"XODEX2.sol\":15852:15935  _approve(_msgSender(), spender, _allowances[_msgSender()][spender].add(addedValue)) */\n      tag_332\n        /* \"XODEX2.sol\":15861:15873  _msgSender() */\n      tag_333\n        /* \"XODEX2.sol\":15861:15871  _msgSender */\n      tag_258\n        /* \"XODEX2.sol\":15861:15873  _msgSender() */\n      jump\t// in\n    tag_333:\n        /* \"XODEX2.sol\":15875:15882  spender */\n      dup5\n        /* \"XODEX2.sol\":15884:15934  _allowances[_msgSender()][spender].add(addedValue) */\n      tag_334\n        /* \"XODEX2.sol\":15923:15933  addedValue */\n      dup6\n        /* \"XODEX2.sol\":15884:15895  _allowances */\n      0x02\n        /* \"XODEX2.sol\":15884:15909  _allowances[_msgSender()] */\n      0x00\n        /* \"XODEX2.sol\":15896:15908  _msgSender() */\n      tag_335\n        /* \"XODEX2.sol\":15896:15906  _msgSender */\n      tag_258\n        /* \"XODEX2.sol\":15896:15908  _msgSender() */\n      jump\t// in\n    tag_335:\n        /* \"XODEX2.sol\":15884:15909  _allowances[_msgSender()] */\n      0xffffffffffffffffffffffffffffffffffffffff\n      and\n      0xffffffffffffffffffffffffffffffffffffffff\n      and\n      dup2\n      mstore\n      0x20\n      add\n      swap1\n      dup2\n      mstore\n      0x20\n      add\n      0x00\n      keccak256\n        /* \"XODEX2.sol\":15884:15918  _allowances[_msgSender()][spender] */\n      0x00\n        /* \"XODEX2.sol\":15910:15917  spender */\n      dup10\n        /* \"XODEX2.sol\":15884:15918  _allowances[_msgSender()][spender] */\n      0xffffffffffffffffffffffffffffffffffffffff\n      and\n      0xffffffffffffffffffffffffffffffffffffffff\n      and\n      dup2\n      mstore\n      0x20\n      add\n      swap1\n      dup2\n      mstore\n      0x20\n      add\n      0x00\n      keccak256\n      sload\n        /* \"XODEX2.sol\":15884:15922  _allowances[_msgSender()][spender].add */\n      tag_336\n      swap1\n        /* \"XODEX2.sol\":15884:15934  _allowances[_msgSender()][spender].add(addedValue) */\n      swap2\n      swap1\n      0xffffffff\n      and\n      jump\t// in\n    tag_334:\n        /* \"XODEX2.sol\":15852:15860  _approve */\n      tag_259\n        /* \"XODEX2.sol\":15852:15935  _approve(_msgSender(), spender, _allowances[_msgSender()][spender].add(addedValue)) */\n      jump\t// in\n    tag_332:\n        /* \"XODEX2.sol\":15952:15956  true */\n      0x01\n        /* \"XODEX2.sol\":15945:15956  return true */\n      swap1\n      pop\n        /* \"XODEX2.sol\":15748:15963  function increaseAllowance(address spender, uint256 addedValue) public virtual returns (bool) {... */\n      swap3\n      swap2\n      pop\n      pop\n      jump\t// out\n        /* \"XODEX2.sol\":20061:20528  function unBlacklist_Wallets(address[] calldata addresses) external onlyOwner {... */\n    tag_125:\n        /* \"XODEX2.sol\":2457:2469  _msgSender() */\n      tag_338\n        /* \"XODEX2.sol\":2457:2467  _msgSender */\n      tag_258\n        /* \"XODEX2.sol\":2457:2469  _msgSender() */\n      jump\t// in\n    tag_338:\n        /* \"XODEX2.sol\":2446:2469  owner() == _msgSender() */\n      0xffffffffffffffffffffffffffffffffffffffff\n      and\n        /* \"XODEX2.sol\":2446:2453  owner() */\n      tag_339\n        /* \"XODEX2.sol\":2446:2451  owner */\n      tag_184\n        /* \"XODEX2.sol\":2446:2453  owner() */\n      jump\t// in\n    tag_339:\n        /* \"XODEX2.sol\":2446:2469  owner() == _msgSender() */\n      0xffffffffffffffffffffffffffffffffffffffff\n      and\n      eq\n        /* \"XODEX2.sol\":2438:2506  require(owner() == _msgSender(), \"Ownable: caller is not the owner\") */\n      tag_340\n      jumpi\n      mload(0x40)\n      0x08c379a000000000000000000000000000000000000000000000000000000000\n      dup2\n      mstore\n      0x04\n      add\n      tag_341\n      swap1\n      tag_265\n      jump\t// in\n    tag_341:\n      mload(0x40)\n      dup1\n      swap2\n      sub\n      swap1\n      revert\n    tag_340:\n        /* \"XODEX2.sol\":20149:20165  uint256 startGas */\n      0x00\n        /* \"XODEX2.sol\":20175:20190  uint256 gasUsed */\n      dup1\n        /* \"XODEX2.sol\":20206:20215  uint256 i */\n      0x00\n        /* \"XODEX2.sol\":20201:20522  for (uint256 i; i < addresses.length; ++i) {... */\n    tag_343:\n        /* \"XODEX2.sol\":20221:20230  addresses */\n      dup5\n      dup5\n        /* \"XODEX2.sol\":20221:20237  addresses.length */\n      swap1\n      pop\n        /* \"XODEX2.sol\":20217:20218  i */\n      dup2\n        /* \"XODEX2.sol\":20217:20237  i < addresses.length */\n      lt\n        /* \"XODEX2.sol\":20201:20522  for (uint256 i; i < addresses.length; ++i) {... */\n      iszero\n      tag_344\n      jumpi\n        /* \"XODEX2.sol\":20272:20281  gasleft() */\n      gas\n        /* \"XODEX2.sol\":20262:20269  gasUsed */\n      dup3\n        /* \"XODEX2.sol\":20262:20281  gasUsed < gasleft() */\n      lt\n        /* \"XODEX2.sol\":20258:20512  if (gasUsed < gasleft()) {... */\n      iszero\n      tag_346\n      jumpi\n        /* \"XODEX2.sol\":20312:20321  gasleft() */\n      gas\n        /* \"XODEX2.sol\":20301:20321  startGas = gasleft() */\n      swap3\n      pop\n        /* \"XODEX2.sol\":20343:20357  _isBlacklisted */\n      0x04\n        /* \"XODEX2.sol\":20343:20371  _isBlacklisted[addresses[i]] */\n      0x00\n        /* \"XODEX2.sol\":20358:20367  addresses */\n      dup7\n      dup7\n        /* \"XODEX2.sol\":20368:20369  i */\n      dup5\n        /* \"XODEX2.sol\":20358:20370  addresses[i] */\n      dup2\n      dup2\n      lt\n      tag_347\n      jumpi\n      tag_348\n      tag_287\n      jump\t// in\n    tag_348:\n    tag_347:\n      swap1\n      pop\n      0x20\n      mul\n      add\n      0x20\n      dup2\n      add\n      swap1\n      tag_349\n      swap2\n      swap1\n      tag_90\n      jump\t// in\n    tag_349:\n        /* \"XODEX2.sol\":20343:20371  _isBlacklisted[addresses[i]] */\n      0xffffffffffffffffffffffffffffffffffffffff\n      and\n      0xffffffffffffffffffffffffffffffffffffffff\n      and\n      dup2\n      mstore\n      0x20\n      add\n      swap1\n      dup2\n      mstore\n      0x20\n      add\n      0x00\n      keccak256\n      0x00\n      swap1\n      sload\n      swap1\n      0x0100\n      exp\n      swap1\n      div\n      0xff\n      and\n        /* \"XODEX2.sol\":20339:20450  if (_isBlacklisted[addresses[i]]) {... */\n      iszero\n      tag_350\n      jumpi\n        /* \"XODEX2.sol\":20426:20431  false */\n      0x00\n        /* \"XODEX2.sol\":20395:20409  _isBlacklisted */\n      0x04\n        /* \"XODEX2.sol\":20395:20423  _isBlacklisted[addresses[i]] */\n      0x00\n        /* \"XODEX2.sol\":20410:20419  addresses */\n      dup8\n      dup8\n        /* \"XODEX2.sol\":20420:20421  i */\n      dup6\n        /* \"XODEX2.sol\":20410:20422  addresses[i] */\n      dup2\n      dup2\n      lt\n      tag_351\n      jumpi\n      tag_352\n      tag_287\n      jump\t// in\n    tag_352:\n    tag_351:\n      swap1\n      pop\n      0x20\n      mul\n      add\n      0x20\n      dup2\n      add\n      swap1\n      tag_353\n      swap2\n      swap1\n      tag_90\n      jump\t// in\n    tag_353:\n        /* \"XODEX2.sol\":20395:20423  _isBlacklisted[addresses[i]] */\n      0xffffffffffffffffffffffffffffffffffffffff\n      and\n      0xffffffffffffffffffffffffffffffffffffffff\n      and\n      dup2\n      mstore\n      0x20\n      add\n      swap1\n      dup2\n      mstore\n      0x20\n      add\n      0x00\n      keccak256\n      0x00\n        /* \"XODEX2.sol\":20395:20431  _isBlacklisted[addresses[i]] = false */\n      0x0100\n      exp\n      dup2\n      sload\n      dup2\n      0xff\n      mul\n      not\n      and\n      swap1\n      dup4\n      iszero\n      iszero\n      mul\n      or\n      swap1\n      sstore\n      pop\n        /* \"XODEX2.sol\":20339:20450  if (_isBlacklisted[addresses[i]]) {... */\n    tag_350:\n        /* \"XODEX2.sol\":20488:20497  gasleft() */\n      gas\n        /* \"XODEX2.sol\":20477:20485  startGas */\n      dup4\n        /* \"XODEX2.sol\":20477:20497  startGas - gasleft() */\n      tag_354\n      swap2\n      swap1\n      tag_294\n      jump\t// in\n    tag_354:\n        /* \"XODEX2.sol\":20467:20497  gasUsed = startGas - gasleft() */\n      swap2\n      pop\n        /* \"XODEX2.sol\":20258:20512  if (gasUsed < gasleft()) {... */\n    tag_346:\n        /* \"XODEX2.sol\":20239:20242  ++i */\n      dup1\n      tag_355\n      swap1\n      tag_296\n      jump\t// in\n    tag_355:\n      swap1\n      pop\n        /* \"XODEX2.sol\":20201:20522  for (uint256 i; i < addresses.length; ++i) {... */\n      jump(tag_343)\n    tag_344:\n      pop\n        /* \"XODEX2.sol\":20139:20528  {... */\n      pop\n      pop\n        /* \"XODEX2.sol\":20061:20528  function unBlacklist_Wallets(address[] calldata addresses) external onlyOwner {... */\n      pop\n      pop\n      jump\t// out\n        /* \"XODEX2.sol\":12765:12791  uint256 public _buyFee = 5 */\n    tag_128:\n      sload(0x0c)\n      dup2\n      jump\t// out\n        /* \"XODEX2.sol\":15572:15742  function excludeFromFee(address account) public onlyOwner {... */\n    tag_133:\n        /* \"XODEX2.sol\":2457:2469  _msgSender() */\n      tag_357\n        /* \"XODEX2.sol\":2457:2467  _msgSender */\n      tag_258\n        /* \"XODEX2.sol\":2457:2469  _msgSender() */\n      jump\t// in\n    tag_357:\n        /* \"XODEX2.sol\":2446:2469  owner() == _msgSender() */\n      0xffffffffffffffffffffffffffffffffffffffff\n      and\n        /* \"XODEX2.sol\":2446:2453  owner() */\n      tag_358\n        /* \"XODEX2.sol\":2446:2451  owner */\n      tag_184\n        /* \"XODEX2.sol\":2446:2453  owner() */\n      jump\t// in\n    tag_358:\n        /* \"XODEX2.sol\":2446:2469  owner() == _msgSender() */\n      0xffffffffffffffffffffffffffffffffffffffff\n      and\n      eq\n        /* \"XODEX2.sol\":2438:2506  require(owner() == _msgSender(), \"Ownable: caller is not the owner\") */\n      tag_359\n      jumpi\n      mload(0x40)\n      0x08c379a000000000000000000000000000000000000000000000000000000000\n      dup2\n      mstore\n      0x04\n      add\n      tag_360\n      swap1\n      tag_265\n      jump\t// in\n    tag_360:\n      mload(0x40)\n      dup1\n      swap2\n      sub\n      swap1\n      revert\n    tag_359:\n        /* \"XODEX2.sol\":15667:15668  0 */\n      0x00\n        /* \"XODEX2.sol\":15648:15669  account != address(0) */\n      0xffffffffffffffffffffffffffffffffffffffff\n      and\n        /* \"XODEX2.sol\":15648:15655  account */\n      dup2\n        /* \"XODEX2.sol\":15648:15669  account != address(0) */\n      0xffffffffffffffffffffffffffffffffffffffff\n      and\n      sub\n        /* \"XODEX2.sol\":15640:15691  require(account != address(0), \"ERR: zero address\") */\n      tag_362\n      jumpi\n      mload(0x40)\n      0x08c379a000000000000000000000000000000000000000000000000000000000\n      dup2\n      mstore\n      0x04\n      add\n      tag_363\n      swap1\n      tag_314\n      jump\t// in\n    tag_363:\n      mload(0x40)\n      dup1\n      swap2\n      sub\n      swap1\n      revert\n    tag_362:\n        /* \"XODEX2.sol\":15731:15735  true */\n      0x01\n        /* \"XODEX2.sol\":15701:15719  _isExcludedFromFee */\n      0x03\n        /* \"XODEX2.sol\":15701:15728  _isExcludedFromFee[account] */\n      0x00\n        /* \"XODEX2.sol\":15720:15727  account */\n      dup4\n        /* \"XODEX2.sol\":15701:15728  _isExcludedFromFee[account] */\n      0xffffffffffffffffffffffffffffffffffffffff\n      and\n      0xffffffffffffffffffffffffffffffffffffffff\n      and\n      dup2\n      mstore\n      0x20\n      add\n      swap1\n      dup2\n      mstore\n      0x20\n      add\n      0x00\n      keccak256\n      0x00\n        /* \"XODEX2.sol\":15701:15735  _isExcludedFromFee[account] = true */\n      0x0100\n      exp\n      dup2\n      sload\n      dup2\n      0xff\n      mul\n      not\n      and\n      swap1\n      dup4\n      iszero\n      iszero\n      mul\n      or\n      swap1\n      sstore\n      pop\n        /* \"XODEX2.sol\":15572:15742  function excludeFromFee(address account) public onlyOwner {... */\n      pop\n      jump\t// out\n        /* \"XODEX2.sol\":12727:12759  uint256 public _TransferFee = 10 */\n    tag_136:\n      sload(0x0b)\n      dup2\n      jump\t// out\n        /* \"XODEX2.sol\":12963:12991  address public uniswapV2Pair */\n    tag_140:\n      0x10\n      0x00\n      swap1\n      sload\n      swap1\n      0x0100\n      exp\n      swap1\n      div\n      0xffffffffffffffffffffffffffffffffffffffff\n      and\n      dup2\n      jump\t// out\n        /* \"XODEX2.sol\":12511:12561  uint256 public _maxToken = _tTotal.mul(2).div(100) */\n    tag_145:\n      sload(0x07)\n      dup2\n      jump\t// out\n        /* \"XODEX2.sol\":12797:12824  uint256 public _sellFee = 5 */\n    tag_149:\n      sload(0x0d)\n      dup2\n      jump\t// out\n        /* \"XODEX2.sol\":23883:24088  function _set_Fees(uint256 Buy_Fee, uint256 Sell_Fee) external onlyOwner {... */\n    tag_155:\n        /* \"XODEX2.sol\":2457:2469  _msgSender() */\n      tag_365\n        /* \"XODEX2.sol\":2457:2467  _msgSender */\n      tag_258\n        /* \"XODEX2.sol\":2457:2469  _msgSender() */\n      jump\t// in\n    tag_365:\n        /* \"XODEX2.sol\":2446:2469  owner() == _msgSender() */\n      0xffffffffffffffffffffffffffffffffffffffff\n      and\n        /* \"XODEX2.sol\":2446:2453  owner() */\n      tag_366\n        /* \"XODEX2.sol\":2446:2451  owner */\n      tag_184\n        /* \"XODEX2.sol\":2446:2453  owner() */\n      jump\t// in\n    tag_366:\n        /* \"XODEX2.sol\":2446:2469  owner() == _msgSender() */\n      0xffffffffffffffffffffffffffffffffffffffff\n      and\n      eq\n        /* \"XODEX2.sol\":2438:2506  require(owner() == _msgSender(), \"Ownable: caller is not the owner\") */\n      tag_367\n      jumpi\n      mload(0x40)\n      0x08c379a000000000000000000000000000000000000000000000000000000000\n      dup2\n      mstore\n      0x04\n      add\n      tag_368\n      swap1\n      tag_265\n      jump\t// in\n    tag_368:\n      mload(0x40)\n      dup1\n      swap2\n      sub\n      swap1\n      revert\n    tag_367:\n        /* \"XODEX2.sol\":12462:12464  25 */\n      0x19\n        /* \"XODEX2.sol\":23985:23993  Sell_Fee */\n      dup2\n        /* \"XODEX2.sol\":23975:23982  Buy_Fee */\n      dup4\n        /* \"XODEX2.sol\":23975:23993  Buy_Fee + Sell_Fee */\n      tag_370\n      swap2\n      swap1\n      tag_371\n      jump\t// in\n    tag_370:\n        /* \"XODEX2.sol\":23974:24004  (Buy_Fee + Sell_Fee) <= maxFee */\n      gt\n      iszero\n        /* \"XODEX2.sol\":23966:24025  require((Buy_Fee + Sell_Fee) <= maxFee, \"Fee is too high!\") */\n      tag_372\n      jumpi\n      mload(0x40)\n      0x08c379a000000000000000000000000000000000000000000000000000000000\n      dup2\n      mstore\n      0x04\n      add\n      tag_373\n      swap1\n      tag_374\n      jump\t// in\n    tag_373:\n      mload(0x40)\n      dup1\n      swap2\n      sub\n      swap1\n      revert\n    tag_372:\n        /* \"XODEX2.sol\":24046:24054  Sell_Fee */\n      dup1\n        /* \"XODEX2.sol\":24035:24043  _sellFee */\n      0x0d\n        /* \"XODEX2.sol\":24035:24054  _sellFee = Sell_Fee */\n      dup2\n      swap1\n      sstore\n      pop\n        /* \"XODEX2.sol\":24074:24081  Buy_Fee */\n      dup2\n        /* \"XODEX2.sol\":24064:24071  _buyFee */\n      0x0c\n        /* \"XODEX2.sol\":24064:24081  _buyFee = Buy_Fee */\n      dup2\n      swap1\n      sstore\n      pop\n        /* \"XODEX2.sol\":23883:24088  function _set_Fees(uint256 Buy_Fee, uint256 Sell_Fee) external onlyOwner {... */\n      pop\n      pop\n      jump\t// out\n        /* \"XODEX2.sol\":14824:14943  function balanceOf(address account) public view override returns (uint256) {... */\n    tag_159:\n        /* \"XODEX2.sol\":14890:14897  uint256 */\n      0x00\n        /* \"XODEX2.sol\":14916:14927  _totalOwned */\n      0x01\n        /* \"XODEX2.sol\":14916:14936  _totalOwned[account] */\n      0x00\n        /* \"XODEX2.sol\":14928:14935  account */\n      dup4\n        /* \"XODEX2.sol\":14916:14936  _totalOwned[account] */\n      0xffffffffffffffffffffffffffffffffffffffff\n      and\n      0xffffffffffffffffffffffffffffffffffffffff\n      and\n      dup2\n      mstore\n      0x20\n      add\n      swap1\n      dup2\n      mstore\n      0x20\n      add\n      0x00\n      keccak256\n      sload\n        /* \"XODEX2.sol\":14909:14936  return _totalOwned[account] */\n      swap1\n      pop\n        /* \"XODEX2.sol\":14824:14943  function balanceOf(address account) public view override returns (uint256) {... */\n      swap2\n      swap1\n      pop\n      jump\t// out\n        /* \"XODEX2.sol\":2572:2717  function renounceOwnership() public virtual onlyOwner {... */\n    tag_163:\n        /* \"XODEX2.sol\":2457:2469  _msgSender() */\n      tag_377\n        /* \"XODEX2.sol\":2457:2467  _msgSender */\n      tag_258\n        /* \"XODEX2.sol\":2457:2469  _msgSender() */\n      jump\t// in\n    tag_377:\n        /* \"XODEX2.sol\":2446:2469  owner() == _msgSender() */\n      0xffffffffffffffffffffffffffffffffffffffff\n      and\n        /* \"XODEX2.sol\":2446:2453  owner() */\n      tag_378\n        /* \"XODEX2.sol\":2446:2451  owner */\n      tag_184\n        /* \"XODEX2.sol\":2446:2453  owner() */\n      jump\t// in\n    tag_378:\n        /* \"XODEX2.sol\":2446:2469  owner() == _msgSender() */\n      0xffffffffffffffffffffffffffffffffffffffff\n      and\n      eq\n        /* \"XODEX2.sol\":2438:2506  require(owner() == _msgSender(), \"Ownable: caller is not the owner\") */\n      tag_379\n      jumpi\n      mload(0x40)\n      0x08c379a000000000000000000000000000000000000000000000000000000000\n      dup2\n      mstore\n      0x04\n      add\n      tag_380\n      swap1\n      tag_265\n      jump\t// in\n    tag_380:\n      mload(0x40)\n      dup1\n      swap2\n      sub\n      swap1\n      revert\n    tag_379:\n        /* \"XODEX2.sol\":2678:2679  0 */\n      0x00\n        /* \"XODEX2.sol\":2641:2681  OwnershipTransferred(_owner, address(0)) */\n      0xffffffffffffffffffffffffffffffffffffffff\n      and\n        /* \"XODEX2.sol\":2662:2668  _owner */\n      0x00\n      dup1\n      sload\n      swap1\n      0x0100\n      exp\n      swap1\n      div\n      0xffffffffffffffffffffffffffffffffffffffff\n      and\n        /* \"XODEX2.sol\":2641:2681  OwnershipTransferred(_owner, address(0)) */\n      0xffffffffffffffffffffffffffffffffffffffff\n      and\n      0x8be0079c531659141344cd1fd0a4f28419497f9722a3daafe3b4186f6b6457e0\n      mload(0x40)\n      mload(0x40)\n      dup1\n      swap2\n      sub\n      swap1\n      log3\n        /* \"XODEX2.sol\":2708:2709  0 */\n      0x00\n        /* \"XODEX2.sol\":2691:2697  _owner */\n      dup1\n      0x00\n        /* \"XODEX2.sol\":2691:2710  _owner = address(0) */\n      0x0100\n      exp\n      dup2\n      sload\n      dup2\n      0xffffffffffffffffffffffffffffffffffffffff\n      mul\n      not\n      and\n      swap1\n      dup4\n      0xffffffffffffffffffffffffffffffffffffffff\n      and\n      mul\n      or\n      swap1\n      sstore\n      pop\n        /* \"XODEX2.sol\":2572:2717  function renounceOwnership() public virtual onlyOwner {... */\n      jump\t// out\n        /* \"XODEX2.sol\":11874:11924  mapping(address => bool) public _isExcludedFromFee */\n    tag_167:\n      mstore(0x20, 0x03)\n      dup1\n      0x00\n      mstore\n      keccak256(0x00, 0x40)\n      0x00\n      swap2\n      pop\n      sload\n      swap1\n      0x0100\n      exp\n      swap1\n      div\n      0xff\n      and\n      dup2\n      jump\t// out\n        /* \"XODEX2.sol\":18665:18904  function set_Number_Of_Transactions_Before_Liquify_Trigger(uint8 number_of_transactions) public onlyOwner {... */\n    tag_173:\n        /* \"XODEX2.sol\":2457:2469  _msgSender() */\n      tag_383\n        /* \"XODEX2.sol\":2457:2467  _msgSender */\n      tag_258\n        /* \"XODEX2.sol\":2457:2469  _msgSender() */\n      jump\t// in\n    tag_383:\n        /* \"XODEX2.sol\":2446:2469  owner() == _msgSender() */\n      0xffffffffffffffffffffffffffffffffffffffff\n      and\n        /* \"XODEX2.sol\":2446:2453  owner() */\n      tag_384\n        /* \"XODEX2.sol\":2446:2451  owner */\n      tag_184\n        /* \"XODEX2.sol\":2446:2453  owner() */\n      jump\t// in\n    tag_384:\n        /* \"XODEX2.sol\":2446:2469  owner() == _msgSender() */\n      0xffffffffffffffffffffffffffffffffffffffff\n      and\n      eq\n        /* \"XODEX2.sol\":2438:2506  require(owner() == _msgSender(), \"Ownable: caller is not the owner\") */\n      tag_385\n      jumpi\n      mload(0x40)\n      0x08c379a000000000000000000000000000000000000000000000000000000000\n      dup2\n      mstore\n      0x04\n      add\n      tag_386\n      swap1\n      tag_265\n      jump\t// in\n    tag_386:\n      mload(0x40)\n      dup1\n      swap2\n      sub\n      swap1\n      revert\n    tag_385:\n        /* \"XODEX2.sol\":18814:18815  0 */\n      0x00\n        /* \"XODEX2.sol\":18789:18811  number_of_transactions */\n      dup2\n        /* \"XODEX2.sol\":18789:18815  number_of_transactions > 0 */\n      0xff\n      and\n      gt\n        /* \"XODEX2.sol\":18781:18850  require(number_of_transactions > 0, \"Minimum must be greater than 0\") */\n      tag_388\n      jumpi\n      mload(0x40)\n      0x08c379a000000000000000000000000000000000000000000000000000000000\n      dup2\n      mstore\n      0x04\n      add\n      tag_389\n      swap1\n      tag_269\n      jump\t// in\n    tag_389:\n      mload(0x40)\n      dup1\n      swap2\n      sub\n      swap1\n      revert\n    tag_388:\n        /* \"XODEX2.sol\":18875:18897  number_of_transactions */\n      dup1\n        /* \"XODEX2.sol\":18861:18872  swapTrigger */\n      0x05\n      0x16\n        /* \"XODEX2.sol\":18861:18897  swapTrigger = number_of_transactions */\n      0x0100\n      exp\n      dup2\n      sload\n      dup2\n      0xff\n      mul\n      not\n      and\n      swap1\n      dup4\n      0xff\n      and\n      mul\n      or\n      swap1\n      sstore\n      pop\n        /* \"XODEX2.sol\":18665:18904  function set_Number_Of_Transactions_Before_Liquify_Trigger(uint8 number_of_transactions) public onlyOwner {... */\n      pop\n      jump\t// out\n        /* \"XODEX2.sol\":12614:12667  uint256 public _maxTxAmount = _tTotal.mul(1).div(100) */\n    tag_176:\n      sload(0x09)\n      dup2\n      jump\t// out\n        /* \"XODEX2.sol\":13025:13061  bool public swapAndLiqEnabled = true */\n    tag_180:\n      0x10\n      0x15\n      swap1\n      sload\n      swap1\n      0x0100\n      exp\n      swap1\n      div\n      0xff\n      and\n      dup2\n      jump\t// out\n        /* \"XODEX2.sol\":2268:2353  function owner() public view virtual returns (address) {... */\n    tag_184:\n        /* \"XODEX2.sol\":2314:2321  address */\n      0x00\n        /* \"XODEX2.sol\":2340:2346  _owner */\n      dup1\n      0x00\n      swap1\n      sload\n      swap1\n      0x0100\n      exp\n      swap1\n      div\n      0xffffffffffffffffffffffffffffffffffffffff\n      and\n        /* \"XODEX2.sol\":2333:2346  return _owner */\n      swap1\n      pop\n        /* \"XODEX2.sol\":2268:2353  function owner() public view virtual returns (address) {... */\n      swap1\n      jump\t// out\n        /* \"XODEX2.sol\":18385:18470  function symbol() public view returns (string memory) {... */\n    tag_188:\n        /* \"XODEX2.sol\":18424:18437  string memory */\n      0x60\n        /* \"XODEX2.sol\":18456:18463  _symbol */\n      mload(0x40)\n      dup1\n      0x40\n      add\n      0x40\n      mstore\n      dup1\n      0x05\n      dup2\n      mstore\n      0x20\n      add\n      0x584f444558000000000000000000000000000000000000000000000000000000\n      dup2\n      mstore\n      pop\n        /* \"XODEX2.sol\":18449:18463  return _symbol */\n      swap1\n      pop\n        /* \"XODEX2.sol\":18385:18470  function symbol() public view returns (string memory) {... */\n      swap1\n      jump\t// out\n        /* \"XODEX2.sol\":19250:19395  function set_Max_Wal_Percent(uint256 maxWallPercent_x100) external onlyOwner {... */\n    tag_193:\n        /* \"XODEX2.sol\":2457:2469  _msgSender() */\n      tag_393\n        /* \"XODEX2.sol\":2457:2467  _msgSender */\n      tag_258\n        /* \"XODEX2.sol\":2457:2469  _msgSender() */\n      jump\t// in\n    tag_393:\n        /* \"XODEX2.sol\":2446:2469  owner() == _msgSender() */\n      0xffffffffffffffffffffffffffffffffffffffff\n      and\n        /* \"XODEX2.sol\":2446:2453  owner() */\n      tag_394\n        /* \"XODEX2.sol\":2446:2451  owner */\n      tag_184\n        /* \"XODEX2.sol\":2446:2453  owner() */\n      jump\t// in\n    tag_394:\n        /* \"XODEX2.sol\":2446:2469  owner() == _msgSender() */\n      0xffffffffffffffffffffffffffffffffffffffff\n      and\n      eq\n        /* \"XODEX2.sol\":2438:2506  require(owner() == _msgSender(), \"Ownable: caller is not the owner\") */\n      tag_395\n      jumpi\n      mload(0x40)\n      0x08c379a000000000000000000000000000000000000000000000000000000000\n      dup2\n      mstore\n      0x04\n      add\n      tag_396\n      swap1\n      tag_265\n      jump\t// in\n    tag_396:\n      mload(0x40)\n      dup1\n      swap2\n      sub\n      swap1\n      revert\n    tag_395:\n        /* \"XODEX2.sol\":19383:19388  10000 */\n      0x2710\n        /* \"XODEX2.sol\":19360:19379  maxWallPercent_x100 */\n      dup2\n        /* \"XODEX2.sol\":12121:12141  10000000000 * 10**18 */\n      0x204fce5e3e25026110000000\n        /* \"XODEX2.sol\":19350:19379  _tTotal * maxWallPercent_x100 */\n      tag_398\n      swap2\n      swap1\n      tag_271\n      jump\t// in\n    tag_398:\n        /* \"XODEX2.sol\":19349:19388  (_tTotal * maxWallPercent_x100) / 10000 */\n      tag_399\n      swap2\n      swap1\n      tag_273\n      jump\t// in\n    tag_399:\n        /* \"XODEX2.sol\":19337:19346  _maxToken */\n      0x07\n        /* \"XODEX2.sol\":19337:19388  _maxToken = (_tTotal * maxWallPercent_x100) / 10000 */\n      dup2\n      swap1\n      sstore\n      pop\n        /* \"XODEX2.sol\":19250:19395  function set_Max_Wal_Percent(uint256 maxWallPercent_x100) external onlyOwner {... */\n      pop\n      jump\t// out\n        /* \"XODEX2.sol\":14711:14818  function blacklist_Toggle(bool true_or_false) public onlyOwner {... */\n    tag_198:\n        /* \"XODEX2.sol\":2457:2469  _msgSender() */\n      tag_401\n        /* \"XODEX2.sol\":2457:2467  _msgSender */\n      tag_258\n        /* \"XODEX2.sol\":2457:2469  _msgSender() */\n      jump\t// in\n    tag_401:\n        /* \"XODEX2.sol\":2446:2469  owner() == _msgSender() */\n      0xffffffffffffffffffffffffffffffffffffffff\n      and\n        /* \"XODEX2.sol\":2446:2453  owner() */\n      tag_402\n        /* \"XODEX2.sol\":2446:2451  owner */\n      tag_184\n        /* \"XODEX2.sol\":2446:2453  owner() */\n      jump\t// in\n    tag_402:\n        /* \"XODEX2.sol\":2446:2469  owner() == _msgSender() */\n      0xffffffffffffffffffffffffffffffffffffffff\n      and\n      eq\n        /* \"XODEX2.sol\":2438:2506  require(owner() == _msgSender(), \"Ownable: caller is not the owner\") */\n      tag_403\n      jumpi\n      mload(0x40)\n      0x08c379a000000000000000000000000000000000000000000000000000000000\n      dup2\n      mstore\n      0x04\n      add\n      tag_404\n      swap1\n      tag_265\n      jump\t// in\n    tag_404:\n      mload(0x40)\n      dup1\n      swap2\n      sub\n      swap1\n      revert\n    tag_403:\n        /* \"XODEX2.sol\":14798:14811  true_or_false */\n      dup1\n        /* \"XODEX2.sol\":14784:14795  isBlackList */\n      0x05\n      0x00\n        /* \"XODEX2.sol\":14784:14811  isBlackList = true_or_false */\n      0x0100\n      exp\n      dup2\n      sload\n      dup2\n      0xff\n      mul\n      not\n      and\n      swap1\n      dup4\n      iszero\n      iszero\n      mul\n      or\n      swap1\n      sstore\n      pop\n        /* \"XODEX2.sol\":14711:14818  function blacklist_Toggle(bool true_or_false) public onlyOwner {... */\n      pop\n      jump\t// out\n        /* \"XODEX2.sol\":14949:15261  function decreaseAllowance(address spender, uint256 subtractedValue) public virtual returns (bool) {... */\n    tag_202:\n        /* \"XODEX2.sol\":15042:15046  bool */\n      0x00\n        /* \"XODEX2.sol\":15058:15233  _approve(... */\n      tag_407\n        /* \"XODEX2.sol\":15080:15092  _msgSender() */\n      tag_408\n        /* \"XODEX2.sol\":15080:15090  _msgSender */\n      tag_258\n        /* \"XODEX2.sol\":15080:15092  _msgSender() */\n      jump\t// in\n    tag_408:\n        /* \"XODEX2.sol\":15106:15113  spender */\n      dup5\n        /* \"XODEX2.sol\":15127:15223  _allowances[_msgSender()][spender].sub(subtractedValue, \"ERC20: decreased allowance below zero\") */\n      tag_409\n        /* \"XODEX2.sol\":15166:15181  subtractedValue */\n      dup6\n        /* \"XODEX2.sol\":15127:15223  _allowances[_msgSender()][spender].sub(subtractedValue, \"ERC20: decreased allowance below zero\") */\n      mload(0x40)\n      dup1\n      0x60\n      add\n      0x40\n      mstore\n      dup1\n      0x25\n      dup2\n      mstore\n      0x20\n      add\n      data_f8b476f7d28209d77d4a4ac1fe36b9f8259aa1bb6bddfa6e89de7e51615cf8a8\n      0x25\n      swap2\n      codecopy\n        /* \"XODEX2.sol\":15127:15138  _allowances */\n      0x02\n        /* \"XODEX2.sol\":15127:15152  _allowances[_msgSender()] */\n      0x00\n        /* \"XODEX2.sol\":15139:15151  _msgSender() */\n      tag_410\n        /* \"XODEX2.sol\":15139:15149  _msgSender */\n      tag_258\n        /* \"XODEX2.sol\":15139:15151  _msgSender() */\n      jump\t// in\n    tag_410:\n        /* \"XODEX2.sol\":15127:15152  _allowances[_msgSender()] */\n      0xffffffffffffffffffffffffffffffffffffffff\n      and\n      0xffffffffffffffffffffffffffffffffffffffff\n      and\n      dup2\n      mstore\n      0x20\n      add\n      swap1\n      dup2\n      mstore\n      0x20\n      add\n      0x00\n      keccak256\n        /* \"XODEX2.sol\":15127:15161  _allowances[_msgSender()][spender] */\n      0x00\n        /* \"XODEX2.sol\":15153:15160  spender */\n      dup11\n        /* \"XODEX2.sol\":15127:15161  _allowances[_msgSender()][spender] */\n      0xffffffffffffffffffffffffffffffffffffffff\n      and\n      0xffffffffffffffffffffffffffffffffffffffff\n      and\n      dup2\n      mstore\n      0x20\n      add\n      swap1\n      dup2\n      mstore\n      0x20\n      add\n      0x00\n      keccak256\n      sload\n        /* \"XODEX2.sol\":15127:15165  _allowances[_msgSender()][spender].sub */\n      tag_304\n      swap1\n        /* \"XODEX2.sol\":15127:15223  _allowances[_msgSender()][spender].sub(subtractedValue, \"ERC20: decreased allowance below zero\") */\n      swap3\n      swap2\n      swap1\n      0xffffffff\n      and\n      jump\t// in\n    tag_409:\n        /* \"XODEX2.sol\":15058:15066  _approve */\n      tag_259\n        /* \"XODEX2.sol\":15058:15233  _approve(... */\n      jump\t// in\n    tag_407:\n        /* \"XODEX2.sol\":15250:15254  true */\n      0x01\n        /* \"XODEX2.sol\":15243:15254  return true */\n      swap1\n      pop\n        /* \"XODEX2.sol\":14949:15261  function decreaseAllowance(address spender, uint256 subtractedValue) public virtual returns (bool) {... */\n      swap3\n      swap2\n      pop\n      pop\n      jump\t// out\n        /* \"XODEX2.sol\":19500:19664  function transfer(address recipient, uint256 amount) public override returns (bool) {... */\n    tag_207:\n        /* \"XODEX2.sol\":19578:19582  bool */\n      0x00\n        /* \"XODEX2.sol\":19594:19636  _transfer(_msgSender(), recipient, amount) */\n      tag_412\n        /* \"XODEX2.sol\":19604:19616  _msgSender() */\n      tag_413\n        /* \"XODEX2.sol\":19604:19614  _msgSender */\n      tag_258\n        /* \"XODEX2.sol\":19604:19616  _msgSender() */\n      jump\t// in\n    tag_413:\n        /* \"XODEX2.sol\":19618:19627  recipient */\n      dup5\n        /* \"XODEX2.sol\":19629:19635  amount */\n      dup5\n        /* \"XODEX2.sol\":19594:19603  _transfer */\n      tag_299\n        /* \"XODEX2.sol\":19594:19636  _transfer(_msgSender(), recipient, amount) */\n      jump\t// in\n    tag_412:\n        /* \"XODEX2.sol\":19653:19657  true */\n      0x01\n        /* \"XODEX2.sol\":19646:19657  return true */\n      swap1\n      pop\n        /* \"XODEX2.sol\":19500:19664  function transfer(address recipient, uint256 amount) public override returns (bool) {... */\n      swap3\n      swap2\n      pop\n      pop\n      jump\t// out\n        /* \"XODEX2.sol\":18910:19021  function set_TransferFees(bool true_or_false) external onlyOwner {... */\n    tag_212:\n        /* \"XODEX2.sol\":2457:2469  _msgSender() */\n      tag_415\n        /* \"XODEX2.sol\":2457:2467  _msgSender */\n      tag_258\n        /* \"XODEX2.sol\":2457:2469  _msgSender() */\n      jump\t// in\n    tag_415:\n        /* \"XODEX2.sol\":2446:2469  owner() == _msgSender() */\n      0xffffffffffffffffffffffffffffffffffffffff\n      and\n        /* \"XODEX2.sol\":2446:2453  owner() */\n      tag_416\n        /* \"XODEX2.sol\":2446:2451  owner */\n      tag_184\n        /* \"XODEX2.sol\":2446:2453  owner() */\n      jump\t// in\n    tag_416:\n        /* \"XODEX2.sol\":2446:2469  owner() == _msgSender() */\n      0xffffffffffffffffffffffffffffffffffffffff\n      and\n      eq\n        /* \"XODEX2.sol\":2438:2506  require(owner() == _msgSender(), \"Ownable: caller is not the owner\") */\n      tag_417\n      jumpi\n      mload(0x40)\n      0x08c379a000000000000000000000000000000000000000000000000000000000\n      dup2\n      mstore\n      0x04\n      add\n      tag_418\n      swap1\n      tag_265\n      jump\t// in\n    tag_418:\n      mload(0x40)\n      dup1\n      swap2\n      sub\n      swap1\n      revert\n    tag_417:\n        /* \"XODEX2.sol\":19001:19014  true_or_false */\n      dup1\n        /* \"XODEX2.sol\":18985:18998  noTransferFee */\n      0x0f\n      0x00\n        /* \"XODEX2.sol\":18985:19014  noTransferFee = true_or_false */\n      0x0100\n      exp\n      dup2\n      sload\n      dup2\n      0xff\n      mul\n      not\n      and\n      swap1\n      dup4\n      iszero\n      iszero\n      mul\n      or\n      swap1\n      sstore\n      pop\n        /* \"XODEX2.sol\":18910:19021  function set_TransferFees(bool true_or_false) external onlyOwner {... */\n      pop\n      jump\t// out\n        /* \"XODEX2.sol\":12997:13019  bool public isSwapping */\n    tag_215:\n      0x10\n      0x14\n      swap1\n      sload\n      swap1\n      0x0100\n      exp\n      swap1\n      div\n      0xff\n      and\n      dup2\n      jump\t// out\n        /* \"XODEX2.sol\":24094:24275  function _set_Transfer_Fee(uint256 Transfer_Fee) external onlyOwner {... */\n    tag_220:\n        /* \"XODEX2.sol\":2457:2469  _msgSender() */\n      tag_421\n        /* \"XODEX2.sol\":2457:2467  _msgSender */\n      tag_258\n        /* \"XODEX2.sol\":2457:2469  _msgSender() */\n      jump\t// in\n    tag_421:\n        /* \"XODEX2.sol\":2446:2469  owner() == _msgSender() */\n      0xffffffffffffffffffffffffffffffffffffffff\n      and\n        /* \"XODEX2.sol\":2446:2453  owner() */\n      tag_422\n        /* \"XODEX2.sol\":2446:2451  owner */\n      tag_184\n        /* \"XODEX2.sol\":2446:2453  owner() */\n      jump\t// in\n    tag_422:\n        /* \"XODEX2.sol\":2446:2469  owner() == _msgSender() */\n      0xffffffffffffffffffffffffffffffffffffffff\n      and\n      eq\n        /* \"XODEX2.sol\":2438:2506  require(owner() == _msgSender(), \"Ownable: caller is not the owner\") */\n      tag_423\n      jumpi\n      mload(0x40)\n      0x08c379a000000000000000000000000000000000000000000000000000000000\n      dup2\n      mstore\n      0x04\n      add\n      tag_424\n      swap1\n      tag_265\n      jump\t// in\n    tag_424:\n      mload(0x40)\n      dup1\n      swap2\n      sub\n      swap1\n      revert\n    tag_423:\n        /* \"XODEX2.sol\":24196:24210  maxTransferFee */\n      sload(0x06)\n        /* \"XODEX2.sol\":24180:24192  Transfer_Fee */\n      dup2\n        /* \"XODEX2.sol\":24180:24210  Transfer_Fee <= maxTransferFee */\n      gt\n      iszero\n        /* \"XODEX2.sol\":24172:24231  require(Transfer_Fee <= maxTransferFee, \"Fee is too high!\") */\n      tag_426\n      jumpi\n      mload(0x40)\n      0x08c379a000000000000000000000000000000000000000000000000000000000\n      dup2\n      mstore\n      0x04\n      add\n      tag_427\n      swap1\n      tag_374\n      jump\t// in\n    tag_427:\n      mload(0x40)\n      dup1\n      swap2\n      sub\n      swap1\n      revert\n    tag_426:\n        /* \"XODEX2.sol\":24256:24268  Transfer_Fee */\n      dup1\n        /* \"XODEX2.sol\":24241:24253  _TransferFee */\n      0x0b\n        /* \"XODEX2.sol\":24241:24268  _TransferFee = Transfer_Fee */\n      dup2\n      swap1\n      sstore\n      pop\n        /* \"XODEX2.sol\":24094:24275  function _set_Transfer_Fee(uint256 Transfer_Fee) external onlyOwner {... */\n      pop\n      jump\t// out\n        /* \"XODEX2.sol\":12877:12909  bool public noTransferFee = true */\n    tag_223:\n      0x0f\n      0x00\n      swap1\n      sload\n      swap1\n      0x0100\n      exp\n      swap1\n      div\n      0xff\n      and\n      dup2\n      jump\t// out\n        /* \"XODEX2.sol\":16232:16716  function process_Tokens(uint256 percent_Of_Tokens_To_Process) public onlyOwner {... */\n    tag_228:\n        /* \"XODEX2.sol\":2457:2469  _msgSender() */\n      tag_429\n        /* \"XODEX2.sol\":2457:2467  _msgSender */\n      tag_258\n        /* \"XODEX2.sol\":2457:2469  _msgSender() */\n      jump\t// in\n    tag_429:\n        /* \"XODEX2.sol\":2446:2469  owner() == _msgSender() */\n      0xffffffffffffffffffffffffffffffffffffffff\n      and\n        /* \"XODEX2.sol\":2446:2453  owner() */\n      tag_430\n        /* \"XODEX2.sol\":2446:2451  owner */\n      tag_184\n        /* \"XODEX2.sol\":2446:2453  owner() */\n      jump\t// in\n    tag_430:\n        /* \"XODEX2.sol\":2446:2469  owner() == _msgSender() */\n      0xffffffffffffffffffffffffffffffffffffffff\n      and\n      eq\n        /* \"XODEX2.sol\":2438:2506  require(owner() == _msgSender(), \"Ownable: caller is not the owner\") */\n      tag_431\n      jumpi\n      mload(0x40)\n      0x08c379a000000000000000000000000000000000000000000000000000000000\n      dup2\n      mstore\n      0x04\n      add\n      tag_432\n      swap1\n      tag_265\n      jump\t// in\n    tag_432:\n      mload(0x40)\n      dup1\n      swap2\n      sub\n      swap1\n      revert\n    tag_431:\n        /* \"XODEX2.sol\":16375:16385  isSwapping */\n      0x10\n      0x14\n      swap1\n      sload\n      swap1\n      0x0100\n      exp\n      swap1\n      div\n      0xff\n      and\n        /* \"XODEX2.sol\":16374:16385  !isSwapping */\n      iszero\n        /* \"XODEX2.sol\":16366:16422  require(!isSwapping, \"Currently processing, try later.\") */\n      tag_434\n      jumpi\n      mload(0x40)\n      0x08c379a000000000000000000000000000000000000000000000000000000000\n      dup2\n      mstore\n      0x04\n      add\n      tag_435\n      swap1\n      tag_436\n      jump\t// in\n    tag_435:\n      mload(0x40)\n      dup1\n      swap2\n      sub\n      swap1\n      revert\n    tag_434:\n        /* \"XODEX2.sol\":16467:16470  100 */\n      0x64\n        /* \"XODEX2.sol\":16436:16464  percent_Of_Tokens_To_Process */\n      dup2\n        /* \"XODEX2.sol\":16436:16470  percent_Of_Tokens_To_Process > 100 */\n      gt\n        /* \"XODEX2.sol\":16432:16531  if (percent_Of_Tokens_To_Process > 100) {... */\n      iszero\n      tag_437\n      jumpi\n        /* \"XODEX2.sol\":16517:16520  100 */\n      0x64\n        /* \"XODEX2.sol\":16486:16520  percent_Of_Tokens_To_Process = 100 */\n      swap1\n      pop\n        /* \"XODEX2.sol\":16432:16531  if (percent_Of_Tokens_To_Process > 100) {... */\n    tag_437:\n        /* \"XODEX2.sol\":16540:16564  uint256 tokensOnContract */\n      0x00\n        /* \"XODEX2.sol\":16567:16591  balanceOf(address(this)) */\n      tag_438\n        /* \"XODEX2.sol\":16585:16589  this */\n      address\n        /* \"XODEX2.sol\":16567:16576  balanceOf */\n      tag_159\n        /* \"XODEX2.sol\":16567:16591  balanceOf(address(this)) */\n      jump\t// in\n    tag_438:\n        /* \"XODEX2.sol\":16540:16591  uint256 tokensOnContract = balanceOf(address(this)) */\n      swap1\n      pop\n        /* \"XODEX2.sol\":16601:16619  uint256 sendTokens */\n      0x00\n        /* \"XODEX2.sol\":16674:16677  100 */\n      0x64\n        /* \"XODEX2.sol\":16642:16670  percent_Of_Tokens_To_Process */\n      dup4\n        /* \"XODEX2.sol\":16623:16639  tokensOnContract */\n      dup4\n        /* \"XODEX2.sol\":16623:16670  tokensOnContract * percent_Of_Tokens_To_Process */\n      tag_439\n      swap2\n      swap1\n      tag_271\n      jump\t// in\n    tag_439:\n        /* \"XODEX2.sol\":16622:16677  (tokensOnContract * percent_Of_Tokens_To_Process) / 100 */\n      tag_440\n      swap2\n      swap1\n      tag_273\n      jump\t// in\n    tag_440:\n        /* \"XODEX2.sol\":16601:16677  uint256 sendTokens = (tokensOnContract * percent_Of_Tokens_To_Process) / 100 */\n      swap1\n      pop\n        /* \"XODEX2.sol\":16687:16709  swapTokens(sendTokens) */\n      tag_441\n        /* \"XODEX2.sol\":16698:16708  sendTokens */\n      dup2\n        /* \"XODEX2.sol\":16687:16697  swapTokens */\n      tag_442\n        /* \"XODEX2.sol\":16687:16709  swapTokens(sendTokens) */\n      jump\t// in\n    tag_441:\n        /* \"XODEX2.sol\":16311:16716  {... */\n      pop\n      pop\n        /* \"XODEX2.sol\":16232:16716  function process_Tokens(uint256 percent_Of_Tokens_To_Process) public onlyOwner {... */\n      pop\n      jump\t// out\n        /* \"XODEX2.sol\":13929:14070  function allowance(address owner, address spender) public view override returns (uint256) {... */\n    tag_233:\n        /* \"XODEX2.sol\":14010:14017  uint256 */\n      0x00\n        /* \"XODEX2.sol\":14036:14047  _allowances */\n      0x02\n        /* \"XODEX2.sol\":14036:14054  _allowances[owner] */\n      0x00\n        /* \"XODEX2.sol\":14048:14053  owner */\n      dup5\n        /* \"XODEX2.sol\":14036:14054  _allowances[owner] */\n      0xffffffffffffffffffffffffffffffffffffffff\n      and\n      0xffffffffffffffffffffffffffffffffffffffff\n      and\n      dup2\n      mstore\n      0x20\n      add\n      swap1\n      dup2\n      mstore\n      0x20\n      add\n      0x00\n      keccak256\n        /* \"XODEX2.sol\":14036:14063  _allowances[owner][spender] */\n      0x00\n        /* \"XODEX2.sol\":14055:14062  spender */\n      dup4\n        /* \"XODEX2.sol\":14036:14063  _allowances[owner][spender] */\n      0xffffffffffffffffffffffffffffffffffffffff\n      and\n      0xffffffffffffffffffffffffffffffffffffffff\n      and\n      dup2\n      mstore\n      0x20\n      add\n      swap1\n      dup2\n      mstore\n      0x20\n      add\n      0x00\n      keccak256\n      sload\n        /* \"XODEX2.sol\":14029:14063  return _allowances[owner][spender] */\n      swap1\n      pop\n        /* \"XODEX2.sol\":13929:14070  function allowance(address owner, address spender) public view override returns (uint256) {... */\n      swap3\n      swap2\n      pop\n      pop\n      jump\t// out\n        /* \"XODEX2.sol\":15969:16139  function includeInFee(address account) public onlyOwner {... */\n    tag_238:\n        /* \"XODEX2.sol\":2457:2469  _msgSender() */\n      tag_445\n        /* \"XODEX2.sol\":2457:2467  _msgSender */\n      tag_258\n        /* \"XODEX2.sol\":2457:2469  _msgSender() */\n      jump\t// in\n    tag_445:\n        /* \"XODEX2.sol\":2446:2469  owner() == _msgSender() */\n      0xffffffffffffffffffffffffffffffffffffffff\n      and\n        /* \"XODEX2.sol\":2446:2453  owner() */\n      tag_446\n        /* \"XODEX2.sol\":2446:2451  owner */\n      tag_184\n        /* \"XODEX2.sol\":2446:2453  owner() */\n      jump\t// in\n    tag_446:\n        /* \"XODEX2.sol\":2446:2469  owner() == _msgSender() */\n      0xffffffffffffffffffffffffffffffffffffffff\n      and\n      eq\n        /* \"XODEX2.sol\":2438:2506  require(owner() == _msgSender(), \"Ownable: caller is not the owner\") */\n      tag_447\n      jumpi\n      mload(0x40)\n      0x08c379a000000000000000000000000000000000000000000000000000000000\n      dup2\n      mstore\n      0x04\n      add\n      tag_448\n      swap1\n      tag_265\n      jump\t// in\n    tag_448:\n      mload(0x40)\n      dup1\n      swap2\n      sub\n      swap1\n      revert\n    tag_447:\n        /* \"XODEX2.sol\":16062:16063  0 */\n      0x00\n        /* \"XODEX2.sol\":16043:16064  account != address(0) */\n      0xffffffffffffffffffffffffffffffffffffffff\n      and\n        /* \"XODEX2.sol\":16043:16050  account */\n      dup2\n        /* \"XODEX2.sol\":16043:16064  account != address(0) */\n      0xffffffffffffffffffffffffffffffffffffffff\n      and\n      sub\n        /* \"XODEX2.sol\":16035:16086  require(account != address(0), \"ERR: zero address\") */\n      tag_450\n      jumpi\n      mload(0x40)\n      0x08c379a000000000000000000000000000000000000000000000000000000000\n      dup2\n      mstore\n      0x04\n      add\n      tag_451\n      swap1\n      tag_314\n      jump\t// in\n    tag_451:\n      mload(0x40)\n      dup1\n      swap2\n      sub\n      swap1\n      revert\n    tag_450:\n        /* \"XODEX2.sol\":16127:16132  false */\n      0x00\n        /* \"XODEX2.sol\":16097:16115  _isExcludedFromFee */\n      0x03\n        /* \"XODEX2.sol\":16097:16124  _isExcludedFromFee[account] */\n      0x00\n        /* \"XODEX2.sol\":16116:16123  account */\n      dup4\n        /* \"XODEX2.sol\":16097:16124  _isExcludedFromFee[account] */\n      0xffffffffffffffffffffffffffffffffffffffff\n      and\n      0xffffffffffffffffffffffffffffffffffffffff\n      and\n      dup2\n      mstore\n      0x20\n      add\n      swap1\n      dup2\n      mstore\n      0x20\n      add\n      0x00\n      keccak256\n      0x00\n        /* \"XODEX2.sol\":16097:16132  _isExcludedFromFee[account] = false */\n      0x0100\n      exp\n      dup2\n      sload\n      dup2\n      0xff\n      mul\n      not\n      and\n      swap1\n      dup4\n      iszero\n      iszero\n      mul\n      or\n      swap1\n      sstore\n      pop\n        /* \"XODEX2.sol\":15969:16139  function includeInFee(address account) public onlyOwner {... */\n      pop\n      jump\t// out\n        /* \"XODEX2.sol\":2770:3010  function transferOwnership(address newOwner) public virtual onlyOwner {... */\n    tag_242:\n        /* \"XODEX2.sol\":2457:2469  _msgSender() */\n      tag_453\n        /* \"XODEX2.sol\":2457:2467  _msgSender */\n      tag_258\n        /* \"XODEX2.sol\":2457:2469  _msgSender() */\n      jump\t// in\n    tag_453:\n        /* \"XODEX2.sol\":2446:2469  owner() == _msgSender() */\n      0xffffffffffffffffffffffffffffffffffffffff\n      and\n        /* \"XODEX2.sol\":2446:2453  owner() */\n      tag_454\n        /* \"XODEX2.sol\":2446:2451  owner */\n      tag_184\n        /* \"XODEX2.sol\":2446:2453  owner() */\n      jump\t// in\n    tag_454:\n        /* \"XODEX2.sol\":2446:2469  owner() == _msgSender() */\n      0xffffffffffffffffffffffffffffffffffffffff\n      and\n      eq\n        /* \"XODEX2.sol\":2438:2506  require(owner() == _msgSender(), \"Ownable: caller is not the owner\") */\n      tag_455\n      jumpi\n      mload(0x40)\n      0x08c379a000000000000000000000000000000000000000000000000000000000\n      dup2\n      mstore\n      0x04\n      add\n      tag_456\n      swap1\n      tag_265\n      jump\t// in\n    tag_456:\n      mload(0x40)\n      dup1\n      swap2\n      sub\n      swap1\n      revert\n    tag_455:\n        /* \"XODEX2.sol\":2878:2879  0 */\n      0x00\n        /* \"XODEX2.sol\":2858:2880  newOwner != address(0) */\n      0xffffffffffffffffffffffffffffffffffffffff\n      and\n        /* \"XODEX2.sol\":2858:2866  newOwner */\n      dup2\n        /* \"XODEX2.sol\":2858:2880  newOwner != address(0) */\n      0xffffffffffffffffffffffffffffffffffffffff\n      and\n      sub\n        /* \"XODEX2.sol\":2850:2923  require(newOwner != address(0), \"Ownable: new owner is the zero address\") */\n      tag_458\n      jumpi\n      mload(0x40)\n      0x08c379a000000000000000000000000000000000000000000000000000000000\n      dup2\n      mstore\n      0x04\n      add\n      tag_459\n      swap1\n      tag_460\n      jump\t// in\n    tag_459:\n      mload(0x40)\n      dup1\n      swap2\n      sub\n      swap1\n      revert\n    tag_458:\n        /* \"XODEX2.sol\":2967:2975  newOwner */\n      dup1\n        /* \"XODEX2.sol\":2938:2976  OwnershipTransferred(_owner, newOwner) */\n      0xffffffffffffffffffffffffffffffffffffffff\n      and\n        /* \"XODEX2.sol\":2959:2965  _owner */\n      0x00\n      dup1\n      sload\n      swap1\n      0x0100\n      exp\n      swap1\n      div\n      0xffffffffffffffffffffffffffffffffffffffff\n      and\n        /* \"XODEX2.sol\":2938:2976  OwnershipTransferred(_owner, newOwner) */\n      0xffffffffffffffffffffffffffffffffffffffff\n      and\n      0x8be0079c531659141344cd1fd0a4f28419497f9722a3daafe3b4186f6b6457e0\n      mload(0x40)\n      mload(0x40)\n      dup1\n      swap2\n      sub\n      swap1\n      log3\n        /* \"XODEX2.sol\":2995:3003  newOwner */\n      dup1\n        /* \"XODEX2.sol\":2986:2992  _owner */\n      0x00\n      dup1\n        /* \"XODEX2.sol\":2986:3003  _owner = newOwner */\n      0x0100\n      exp\n      dup2\n      sload\n      dup2\n      0xffffffffffffffffffffffffffffffffffffffff\n      mul\n      not\n      and\n      swap1\n      dup4\n      0xffffffffffffffffffffffffffffffffffffffff\n      and\n      mul\n      or\n      swap1\n      sstore\n      pop\n        /* \"XODEX2.sol\":2770:3010  function transferOwnership(address newOwner) public virtual onlyOwner {... */\n      pop\n      jump\t// out\n        /* \"XODEX2.sol\":15267:15479  function Update__Dev_Wallet(address payable wallet) public onlyOwner {... */\n    tag_247:\n        /* \"XODEX2.sol\":2457:2469  _msgSender() */\n      tag_462\n        /* \"XODEX2.sol\":2457:2467  _msgSender */\n      tag_258\n        /* \"XODEX2.sol\":2457:2469  _msgSender() */\n      jump\t// in\n    tag_462:\n        /* \"XODEX2.sol\":2446:2469  owner() == _msgSender() */\n      0xffffffffffffffffffffffffffffffffffffffff\n      and\n        /* \"XODEX2.sol\":2446:2453  owner() */\n      tag_463\n        /* \"XODEX2.sol\":2446:2451  owner */\n      tag_184\n        /* \"XODEX2.sol\":2446:2453  owner() */\n      jump\t// in\n    tag_463:\n        /* \"XODEX2.sol\":2446:2469  owner() == _msgSender() */\n      0xffffffffffffffffffffffffffffffffffffffff\n      and\n      eq\n        /* \"XODEX2.sol\":2438:2506  require(owner() == _msgSender(), \"Ownable: caller is not the owner\") */\n      tag_464\n      jumpi\n      mload(0x40)\n      0x08c379a000000000000000000000000000000000000000000000000000000000\n      dup2\n      mstore\n      0x04\n      add\n      tag_465\n      swap1\n      tag_265\n      jump\t// in\n    tag_465:\n      mload(0x40)\n      dup1\n      swap2\n      sub\n      swap1\n      revert\n    tag_464:\n        /* \"XODEX2.sol\":15372:15373  0 */\n      0x00\n        /* \"XODEX2.sol\":15354:15374  wallet != address(0) */\n      0xffffffffffffffffffffffffffffffffffffffff\n      and\n        /* \"XODEX2.sol\":15354:15360  wallet */\n      dup2\n        /* \"XODEX2.sol\":15354:15374  wallet != address(0) */\n      0xffffffffffffffffffffffffffffffffffffffff\n      and\n      sub\n        /* \"XODEX2.sol\":15346:15396  require(wallet != address(0), \"ERR: zero address\") */\n      tag_467\n      jumpi\n      mload(0x40)\n      0x08c379a000000000000000000000000000000000000000000000000000000000\n      dup2\n      mstore\n      0x04\n      add\n      tag_468\n      swap1\n      tag_314\n      jump\t// in\n    tag_468:\n      mload(0x40)\n      dup1\n      swap2\n      sub\n      swap1\n      revert\n    tag_467:\n        /* \"XODEX2.sol\":15419:15425  wallet */\n      dup1\n        /* \"XODEX2.sol\":15406:15416  Dev_Wallet */\n      0x05\n      0x01\n        /* \"XODEX2.sol\":15406:15425  Dev_Wallet = wallet */\n      0x0100\n      exp\n      dup2\n      sload\n      dup2\n      0xffffffffffffffffffffffffffffffffffffffff\n      mul\n      not\n      and\n      swap1\n      dup4\n      0xffffffffffffffffffffffffffffffffffffffff\n      and\n      mul\n      or\n      swap1\n      sstore\n      pop\n        /* \"XODEX2.sol\":15468:15472  true */\n      0x01\n        /* \"XODEX2.sol\":15435:15453  _isExcludedFromFee */\n      0x03\n        /* \"XODEX2.sol\":15435:15465  _isExcludedFromFee[Dev_Wallet] */\n      0x00\n        /* \"XODEX2.sol\":15454:15464  Dev_Wallet */\n      0x05\n      0x01\n      swap1\n      sload\n      swap1\n      0x0100\n      exp\n      swap1\n      div\n      0xffffffffffffffffffffffffffffffffffffffff\n      and\n        /* \"XODEX2.sol\":15435:15465  _isExcludedFromFee[Dev_Wallet] */\n      0xffffffffffffffffffffffffffffffffffffffff\n      and\n      0xffffffffffffffffffffffffffffffffffffffff\n      and\n      dup2\n      mstore\n      0x20\n      add\n      swap1\n      dup2\n      mstore\n      0x20\n      add\n      0x00\n      keccak256\n      0x00\n        /* \"XODEX2.sol\":15435:15472  _isExcludedFromFee[Dev_Wallet] = true */\n      0x0100\n      exp\n      dup2\n      sload\n      dup2\n      0xff\n      mul\n      not\n      and\n      swap1\n      dup4\n      iszero\n      iszero\n      mul\n      or\n      swap1\n      sstore\n      pop\n        /* \"XODEX2.sol\":15267:15479  function Update__Dev_Wallet(address payable wallet) public onlyOwner {... */\n      pop\n      jump\t// out\n        /* \"XODEX2.sol\":18476:18659  function set_Swap_And_Liquify_Enabled(bool true_or_false) public onlyOwner {... */\n    tag_251:\n        /* \"XODEX2.sol\":2457:2469  _msgSender() */\n      tag_470\n        /* \"XODEX2.sol\":2457:2467  _msgSender */\n      tag_258\n        /* \"XODEX2.sol\":2457:2469  _msgSender() */\n      jump\t// in\n    tag_470:\n        /* \"XODEX2.sol\":2446:2469  owner() == _msgSender() */\n      0xffffffffffffffffffffffffffffffffffffffff\n      and\n        /* \"XODEX2.sol\":2446:2453  owner() */\n      tag_471\n        /* \"XODEX2.sol\":2446:2451  owner */\n      tag_184\n        /* \"XODEX2.sol\":2446:2453  owner() */\n      jump\t// in\n    tag_471:\n        /* \"XODEX2.sol\":2446:2469  owner() == _msgSender() */\n      0xffffffffffffffffffffffffffffffffffffffff\n      and\n      eq\n        /* \"XODEX2.sol\":2438:2506  require(owner() == _msgSender(), \"Ownable: caller is not the owner\") */\n      tag_472\n      jumpi\n      mload(0x40)\n      0x08c379a000000000000000000000000000000000000000000000000000000000\n      dup2\n      mstore\n      0x04\n      add\n      tag_473\n      swap1\n      tag_265\n      jump\t// in\n    tag_473:\n      mload(0x40)\n      dup1\n      swap2\n      sub\n      swap1\n      revert\n    tag_472:\n        /* \"XODEX2.sol\":18581:18594  true_or_false */\n      dup1\n        /* \"XODEX2.sol\":18561:18578  swapAndLiqEnabled */\n      0x10\n      0x15\n        /* \"XODEX2.sol\":18561:18594  swapAndLiqEnabled = true_or_false */\n      0x0100\n      exp\n      dup2\n      sload\n      dup2\n      0xff\n      mul\n      not\n      and\n      swap1\n      dup4\n      iszero\n      iszero\n      mul\n      or\n      swap1\n      sstore\n      pop\n        /* \"XODEX2.sol\":18609:18652  SwapAndLiquifyEnabledUpdated(true_or_false) */\n      0x53726dfcaf90650aa7eb35524f4d3220f07413c8d6cb404cc8c18bf5591bc159\n        /* \"XODEX2.sol\":18638:18651  true_or_false */\n      dup2\n        /* \"XODEX2.sol\":18609:18652  SwapAndLiquifyEnabledUpdated(true_or_false) */\n      mload(0x40)\n      tag_475\n      swap2\n      swap1\n      tag_66\n      jump\t// in\n    tag_475:\n      mload(0x40)\n      dup1\n      swap2\n      sub\n      swap1\n      log1\n        /* \"XODEX2.sol\":18476:18659  function set_Swap_And_Liquify_Enabled(bool true_or_false) public onlyOwner {... */\n      pop\n      jump\t// out\n        /* \"XODEX2.sol\":983:1079  function mul(uint256 a, uint256 b) internal pure returns (uint256) {... */\n    tag_252:\n        /* \"XODEX2.sol\":1041:1048  uint256 */\n      0x00\n        /* \"XODEX2.sol\":1071:1072  b */\n      dup2\n        /* \"XODEX2.sol\":1067:1068  a */\n      dup4\n        /* \"XODEX2.sol\":1067:1072  a * b */\n      tag_477\n      swap2\n      swap1\n      tag_271\n      jump\t// in\n    tag_477:\n        /* \"XODEX2.sol\":1060:1072  return a * b */\n      swap1\n      pop\n        /* \"XODEX2.sol\":983:1079  function mul(uint256 a, uint256 b) internal pure returns (uint256) {... */\n      swap3\n      swap2\n      pop\n      pop\n      jump\t// out\n        /* \"XODEX2.sol\":1085:1181  function div(uint256 a, uint256 b) internal pure returns (uint256) {... */\n    tag_253:\n        /* \"XODEX2.sol\":1143:1150  uint256 */\n      0x00\n        /* \"XODEX2.sol\":1173:1174  b */\n      dup2\n        /* \"XODEX2.sol\":1169:1170  a */\n      dup4\n        /* \"XODEX2.sol\":1169:1174  a / b */\n      tag_479\n      swap2\n      swap1\n      tag_273\n      jump\t// in\n    tag_479:\n        /* \"XODEX2.sol\":1162:1174  return a / b */\n      swap1\n      pop\n        /* \"XODEX2.sol\":1085:1181  function div(uint256 a, uint256 b) internal pure returns (uint256) {... */\n      swap3\n      swap2\n      pop\n      pop\n      jump\t// out\n        /* \"XODEX2.sol\":1690:1786  function _msgSender() internal view virtual returns (address) {... */\n    tag_258:\n        /* \"XODEX2.sol\":1743:1750  address */\n      0x00\n        /* \"XODEX2.sol\":1769:1779  msg.sender */\n      caller\n        /* \"XODEX2.sol\":1762:1779  return msg.sender */\n      swap1\n      pop\n        /* \"XODEX2.sol\":1690:1786  function _msgSender() internal view virtual returns (address) {... */\n      swap1\n      jump\t// out\n        /* \"XODEX2.sol\":20534:20822  function _approve(... */\n    tag_259:\n        /* \"XODEX2.sol\":20673:20674  0 */\n      0x00\n        /* \"XODEX2.sol\":20656:20675  owner != address(0) */\n      0xffffffffffffffffffffffffffffffffffffffff\n      and\n        /* \"XODEX2.sol\":20656:20661  owner */\n      dup4\n        /* \"XODEX2.sol\":20656:20675  owner != address(0) */\n      0xffffffffffffffffffffffffffffffffffffffff\n      and\n      eq\n      iszero\n        /* \"XODEX2.sol\":20656:20700  owner != address(0) && spender != address(0) */\n      dup1\n      iszero\n      tag_482\n      jumpi\n      pop\n        /* \"XODEX2.sol\":20698:20699  0 */\n      0x00\n        /* \"XODEX2.sol\":20679:20700  spender != address(0) */\n      0xffffffffffffffffffffffffffffffffffffffff\n      and\n        /* \"XODEX2.sol\":20679:20686  spender */\n      dup3\n        /* \"XODEX2.sol\":20679:20700  spender != address(0) */\n      0xffffffffffffffffffffffffffffffffffffffff\n      and\n      eq\n      iszero\n        /* \"XODEX2.sol\":20656:20700  owner != address(0) && spender != address(0) */\n    tag_482:\n        /* \"XODEX2.sol\":20648:20722  require(owner != address(0) && spender != address(0), \"ERR: zero address\") */\n      tag_483\n      jumpi\n      mload(0x40)\n      0x08c379a000000000000000000000000000000000000000000000000000000000\n      dup2\n      mstore\n      0x04\n      add\n      tag_484\n      swap1\n      tag_314\n      jump\t// in\n    tag_484:\n      mload(0x40)\n      dup1\n      swap2\n      sub\n      swap1\n      revert\n    tag_483:\n        /* \"XODEX2.sol\":20762:20768  amount */\n      dup1\n        /* \"XODEX2.sol\":20732:20743  _allowances */\n      0x02\n        /* \"XODEX2.sol\":20732:20750  _allowances[owner] */\n      0x00\n        /* \"XODEX2.sol\":20744:20749  owner */\n      dup6\n        /* \"XODEX2.sol\":20732:20750  _allowances[owner] */\n      0xffffffffffffffffffffffffffffffffffffffff\n      and\n      0xffffffffffffffffffffffffffffffffffffffff\n      and\n      dup2\n      mstore\n      0x20\n      add\n      swap1\n      dup2\n      mstore\n      0x20\n      add\n      0x00\n      keccak256\n        /* \"XODEX2.sol\":20732:20759  _allowances[owner][spender] */\n      0x00\n        /* \"XODEX2.sol\":20751:20758  spender */\n      dup5\n        /* \"XODEX2.sol\":20732:20759  _allowances[owner][spender] */\n      0xffffffffffffffffffffffffffffffffffffffff\n      and\n      0xffffffffffffffffffffffffffffffffffffffff\n      and\n      dup2\n      mstore\n      0x20\n      add\n      swap1\n      dup2\n      mstore\n      0x20\n      add\n      0x00\n      keccak256\n        /* \"XODEX2.sol\":20732:20768  _allowances[owner][spender] = amount */\n      dup2\n      swap1\n      sstore\n      pop\n        /* \"XODEX2.sol\":20799:20806  spender */\n      dup2\n        /* \"XODEX2.sol\":20783:20815  Approval(owner, spender, amount) */\n      0xffffffffffffffffffffffffffffffffffffffff\n      and\n        /* \"XODEX2.sol\":20792:20797  owner */\n      dup4\n        /* \"XODEX2.sol\":20783:20815  Approval(owner, spender, amount) */\n      0xffffffffffffffffffffffffffffffffffffffff\n      and\n      0x8c5be1e5ebec7d5bd14f71427d1e84f3dd0314c0f7b2291e5b200ac8c7c3b925\n        /* \"XODEX2.sol\":20808:20814  amount */\n      dup4\n        /* \"XODEX2.sol\":20783:20815  Approval(owner, spender, amount) */\n      mload(0x40)\n      tag_485\n      swap2\n      swap1\n      tag_81\n      jump\t// in\n    tag_485:\n      mload(0x40)\n      dup1\n      swap2\n      sub\n      swap1\n      log3\n        /* \"XODEX2.sol\":20534:20822  function _approve(... */\n      pop\n      pop\n      pop\n      jump\t// out\n        /* \"XODEX2.sol\":20828:22843  function _transfer(... */\n    tag_299:\n        /* \"XODEX2.sol\":20960:20967  owner() */\n      tag_487\n        /* \"XODEX2.sol\":20960:20965  owner */\n      tag_184\n        /* \"XODEX2.sol\":20960:20967  owner() */\n      jump\t// in\n    tag_487:\n        /* \"XODEX2.sol\":20954:20967  to != owner() */\n      0xffffffffffffffffffffffffffffffffffffffff\n      and\n        /* \"XODEX2.sol\":20954:20956  to */\n      dup3\n        /* \"XODEX2.sol\":20954:20967  to != owner() */\n      0xffffffffffffffffffffffffffffffffffffffff\n      and\n      eq\n      iszero\n        /* \"XODEX2.sol\":20954:20999  to != owner() &&... */\n      dup1\n      iszero\n      tag_488\n      jumpi\n      pop\n        /* \"XODEX2.sol\":20989:20999  Dev_Wallet */\n      0x05\n      0x01\n      swap1\n      sload\n      swap1\n      0x0100\n      exp\n      swap1\n      div\n      0xffffffffffffffffffffffffffffffffffffffff\n      and\n        /* \"XODEX2.sol\":20983:20999  to != Dev_Wallet */\n      0xffffffffffffffffffffffffffffffffffffffff\n      and\n        /* \"XODEX2.sol\":20983:20985  to */\n      dup3\n        /* \"XODEX2.sol\":20983:20999  to != Dev_Wallet */\n      0xffffffffffffffffffffffffffffffffffffffff\n      and\n      eq\n      iszero\n        /* \"XODEX2.sol\":20954:20999  to != owner() &&... */\n    tag_488:\n        /* \"XODEX2.sol\":20954:21034  to != owner() &&... */\n      dup1\n      iszero\n      tag_489\n      jumpi\n      pop\n        /* \"XODEX2.sol\":21029:21033  this */\n      address\n        /* \"XODEX2.sol\":21015:21034  to != address(this) */\n      0xffffffffffffffffffffffffffffffffffffffff\n      and\n        /* \"XODEX2.sol\":21015:21017  to */\n      dup3\n        /* \"XODEX2.sol\":21015:21034  to != address(this) */\n      0xffffffffffffffffffffffffffffffffffffffff\n      and\n      eq\n      iszero\n        /* \"XODEX2.sol\":20954:21034  to != owner() &&... */\n    tag_489:\n        /* \"XODEX2.sol\":20954:21069  to != owner() &&... */\n      dup1\n      iszero\n      tag_490\n      jumpi\n      pop\n        /* \"XODEX2.sol\":21056:21069  uniswapV2Pair */\n      0x10\n      0x00\n      swap1\n      sload\n      swap1\n      0x0100\n      exp\n      swap1\n      div\n      0xffffffffffffffffffffffffffffffffffffffff\n      and\n        /* \"XODEX2.sol\":21050:21069  to != uniswapV2Pair */\n      0xffffffffffffffffffffffffffffffffffffffff\n      and\n        /* \"XODEX2.sol\":21050:21052  to */\n      dup3\n        /* \"XODEX2.sol\":21050:21069  to != uniswapV2Pair */\n      0xffffffffffffffffffffffffffffffffffffffff\n      and\n      eq\n      iszero\n        /* \"XODEX2.sol\":20954:21069  to != owner() &&... */\n    tag_490:\n        /* \"XODEX2.sol\":20954:21102  to != owner() &&... */\n      dup1\n      iszero\n      tag_491\n      jumpi\n      pop\n        /* \"XODEX2.sol\":12319:12361  0x000000000000000000000000000000000000dEaD */\n      0xdead\n        /* \"XODEX2.sol\":21085:21102  to != Burn_Wallet */\n      0xffffffffffffffffffffffffffffffffffffffff\n      and\n        /* \"XODEX2.sol\":21085:21087  to */\n      dup3\n        /* \"XODEX2.sol\":21085:21102  to != Burn_Wallet */\n      0xffffffffffffffffffffffffffffffffffffffff\n      and\n      eq\n      iszero\n        /* \"XODEX2.sol\":20954:21102  to != owner() &&... */\n    tag_491:\n        /* \"XODEX2.sol\":20954:21133  to != owner() &&... */\n      dup1\n      iszero\n      tag_492\n      jumpi\n      pop\n        /* \"XODEX2.sol\":21126:21133  owner() */\n      tag_493\n        /* \"XODEX2.sol\":21126:21131  owner */\n      tag_184\n        /* \"XODEX2.sol\":21126:21133  owner() */\n      jump\t// in\n    tag_493:\n        /* \"XODEX2.sol\":21118:21133  from != owner() */\n      0xffffffffffffffffffffffffffffffffffffffff\n      and\n        /* \"XODEX2.sol\":21118:21122  from */\n      dup4\n        /* \"XODEX2.sol\":21118:21133  from != owner() */\n      0xffffffffffffffffffffffffffffffffffffffff\n      and\n      eq\n      iszero\n        /* \"XODEX2.sol\":20954:21133  to != owner() &&... */\n    tag_492:\n        /* \"XODEX2.sol\":20937:21391  if (... */\n      iszero\n      tag_494\n      jumpi\n        /* \"XODEX2.sol\":21158:21176  uint256 heldTokens */\n      0x00\n        /* \"XODEX2.sol\":21179:21192  balanceOf(to) */\n      tag_495\n        /* \"XODEX2.sol\":21189:21191  to */\n      dup4\n        /* \"XODEX2.sol\":21179:21188  balanceOf */\n      tag_159\n        /* \"XODEX2.sol\":21179:21192  balanceOf(to) */\n      jump\t// in\n    tag_495:\n        /* \"XODEX2.sol\":21158:21192  uint256 heldTokens = balanceOf(to) */\n      swap1\n      pop\n        /* \"XODEX2.sol\":21256:21265  _maxToken */\n      sload(0x07)\n        /* \"XODEX2.sol\":21245:21251  amount */\n      dup3\n        /* \"XODEX2.sol\":21232:21242  heldTokens */\n      dup3\n        /* \"XODEX2.sol\":21232:21251  heldTokens + amount */\n      tag_496\n      swap2\n      swap1\n      tag_371\n      jump\t// in\n    tag_496:\n        /* \"XODEX2.sol\":21231:21265  (heldTokens + amount) <= _maxToken */\n      gt\n      iszero\n        /* \"XODEX2.sol\":21206:21380  require(... */\n      tag_497\n      jumpi\n      mload(0x40)\n      0x08c379a000000000000000000000000000000000000000000000000000000000\n      dup2\n      mstore\n      0x04\n      add\n      tag_498\n      swap1\n      tag_499\n      jump\t// in\n    tag_498:\n      mload(0x40)\n      dup1\n      swap2\n      sub\n      swap1\n      revert\n    tag_497:\n        /* \"XODEX2.sol\":21144:21391  {... */\n      pop\n        /* \"XODEX2.sol\":20937:21391  if (... */\n    tag_494:\n        /* \"XODEX2.sol\":21505:21512  owner() */\n      tag_500\n        /* \"XODEX2.sol\":21505:21510  owner */\n      tag_184\n        /* \"XODEX2.sol\":21505:21512  owner() */\n      jump\t// in\n    tag_500:\n        /* \"XODEX2.sol\":21497:21512  from != owner() */\n      0xffffffffffffffffffffffffffffffffffffffff\n      and\n        /* \"XODEX2.sol\":21497:21501  from */\n      dup4\n        /* \"XODEX2.sol\":21497:21512  from != owner() */\n      0xffffffffffffffffffffffffffffffffffffffff\n      and\n      eq\n      iszero\n        /* \"XODEX2.sol\":21497:21529  from != owner() && to != owner() */\n      dup1\n      iszero\n      tag_501\n      jumpi\n      pop\n        /* \"XODEX2.sol\":21522:21529  owner() */\n      tag_502\n        /* \"XODEX2.sol\":21522:21527  owner */\n      tag_184\n        /* \"XODEX2.sol\":21522:21529  owner() */\n      jump\t// in\n    tag_502:\n        /* \"XODEX2.sol\":21516:21529  to != owner() */\n      0xffffffffffffffffffffffffffffffffffffffff\n      and\n        /* \"XODEX2.sol\":21516:21518  to */\n      dup3\n        /* \"XODEX2.sol\":21516:21529  to != owner() */\n      0xffffffffffffffffffffffffffffffffffffffff\n      and\n      eq\n      iszero\n        /* \"XODEX2.sol\":21497:21529  from != owner() && to != owner() */\n    tag_501:\n        /* \"XODEX2.sol\":21493:21636  if (from != owner() && to != owner())... */\n      iszero\n      tag_503\n      jumpi\n        /* \"XODEX2.sol\":21561:21573  _maxTxAmount */\n      sload(0x09)\n        /* \"XODEX2.sol\":21551:21557  amount */\n      dup2\n        /* \"XODEX2.sol\":21551:21573  amount <= _maxTxAmount */\n      gt\n      iszero\n        /* \"XODEX2.sol\":21543:21636  require(amount <= _maxTxAmount, \"You are trying to buy more than the max transaction limit.\") */\n      tag_504\n      jumpi\n      mload(0x40)\n      0x08c379a000000000000000000000000000000000000000000000000000000000\n      dup2\n      mstore\n      0x04\n      add\n      tag_505\n      swap1\n      tag_506\n      jump\t// in\n    tag_505:\n      mload(0x40)\n      dup1\n      swap2\n      sub\n      swap1\n      revert\n    tag_504:\n        /* \"XODEX2.sol\":21493:21636  if (from != owner() && to != owner())... */\n    tag_503:\n        /* \"XODEX2.sol\":21651:21662  isBlackList */\n      0x05\n      0x00\n      swap1\n      sload\n      swap1\n      0x0100\n      exp\n      swap1\n      div\n      0xff\n      and\n        /* \"XODEX2.sol\":21647:21796  if (isBlackList) {... */\n      iszero\n      tag_507\n      jumpi\n        /* \"XODEX2.sol\":21687:21701  _isBlacklisted */\n      0x04\n        /* \"XODEX2.sol\":21687:21707  _isBlacklisted[from] */\n      0x00\n        /* \"XODEX2.sol\":21702:21706  from */\n      dup5\n        /* \"XODEX2.sol\":21687:21707  _isBlacklisted[from] */\n      0xffffffffffffffffffffffffffffffffffffffff\n      and\n      0xffffffffffffffffffffffffffffffffffffffff\n      and\n      dup2\n      mstore\n      0x20\n      add\n      swap1\n      dup2\n      mstore\n      0x20\n      add\n      0x00\n      keccak256\n      0x00\n      swap1\n      sload\n      swap1\n      0x0100\n      exp\n      swap1\n      div\n      0xff\n      and\n        /* \"XODEX2.sol\":21686:21707  !_isBlacklisted[from] */\n      iszero\n        /* \"XODEX2.sol\":21686:21730  !_isBlacklisted[from] && !_isBlacklisted[to] */\n      dup1\n      iszero\n      tag_508\n      jumpi\n      pop\n        /* \"XODEX2.sol\":21712:21726  _isBlacklisted */\n      0x04\n        /* \"XODEX2.sol\":21712:21730  _isBlacklisted[to] */\n      0x00\n        /* \"XODEX2.sol\":21727:21729  to */\n      dup4\n        /* \"XODEX2.sol\":21712:21730  _isBlacklisted[to] */\n      0xffffffffffffffffffffffffffffffffffffffff\n      and\n      0xffffffffffffffffffffffffffffffffffffffff\n      and\n      dup2\n      mstore\n      0x20\n      add\n      swap1\n      dup2\n      mstore\n      0x20\n      add\n      0x00\n      keccak256\n      0x00\n      swap1\n      sload\n      swap1\n      0x0100\n      exp\n      swap1\n      div\n      0xff\n      and\n        /* \"XODEX2.sol\":21711:21730  !_isBlacklisted[to] */\n      iszero\n        /* \"XODEX2.sol\":21686:21730  !_isBlacklisted[from] && !_isBlacklisted[to] */\n    tag_508:\n        /* \"XODEX2.sol\":21678:21785  require(!_isBlacklisted[from] && !_isBlacklisted[to], \"This address is blacklisted. Transaction reverted.\") */\n      tag_509\n      jumpi\n      mload(0x40)\n      0x08c379a000000000000000000000000000000000000000000000000000000000\n      dup2\n      mstore\n      0x04\n      add\n      tag_510\n      swap1\n      tag_511\n      jump\t// in\n    tag_510:\n      mload(0x40)\n      dup1\n      swap2\n      sub\n      swap1\n      revert\n    tag_509:\n        /* \"XODEX2.sol\":21647:21796  if (isBlackList) {... */\n    tag_507:\n        /* \"XODEX2.sol\":21830:21831  0 */\n      0x00\n        /* \"XODEX2.sol\":21814:21832  from != address(0) */\n      0xffffffffffffffffffffffffffffffffffffffff\n      and\n        /* \"XODEX2.sol\":21814:21818  from */\n      dup4\n        /* \"XODEX2.sol\":21814:21832  from != address(0) */\n      0xffffffffffffffffffffffffffffffffffffffff\n      and\n      eq\n      iszero\n        /* \"XODEX2.sol\":21814:21852  from != address(0) && to != address(0) */\n      dup1\n      iszero\n      tag_512\n      jumpi\n      pop\n        /* \"XODEX2.sol\":21850:21851  0 */\n      0x00\n        /* \"XODEX2.sol\":21836:21852  to != address(0) */\n      0xffffffffffffffffffffffffffffffffffffffff\n      and\n        /* \"XODEX2.sol\":21836:21838  to */\n      dup3\n        /* \"XODEX2.sol\":21836:21852  to != address(0) */\n      0xffffffffffffffffffffffffffffffffffffffff\n      and\n      eq\n      iszero\n        /* \"XODEX2.sol\":21814:21852  from != address(0) && to != address(0) */\n    tag_512:\n        /* \"XODEX2.sol\":21806:21878  require(from != address(0) && to != address(0), \"ERR: Using 0 address!\") */\n      tag_513\n      jumpi\n      mload(0x40)\n      0x08c379a000000000000000000000000000000000000000000000000000000000\n      dup2\n      mstore\n      0x04\n      add\n      tag_514\n      swap1\n      tag_515\n      jump\t// in\n    tag_514:\n      mload(0x40)\n      dup1\n      swap2\n      sub\n      swap1\n      revert\n    tag_513:\n        /* \"XODEX2.sol\":21905:21906  0 */\n      0x00\n        /* \"XODEX2.sol\":21896:21902  amount */\n      dup2\n        /* \"XODEX2.sol\":21896:21906  amount > 0 */\n      gt\n        /* \"XODEX2.sol\":21888:21948  require(amount > 0, \"Token value must be higher than zero.\") */\n      tag_516\n      jumpi\n      mload(0x40)\n      0x08c379a000000000000000000000000000000000000000000000000000000000\n      dup2\n      mstore\n      0x04\n      add\n      tag_517\n      swap1\n      tag_518\n      jump\t// in\n    tag_517:\n      mload(0x40)\n      dup1\n      swap2\n      sub\n      swap1\n      revert\n    tag_516:\n        /* \"XODEX2.sol\":21974:21985  swapTrigger */\n      0x05\n      0x16\n      swap1\n      sload\n      swap1\n      0x0100\n      exp\n      swap1\n      div\n      0xff\n      and\n        /* \"XODEX2.sol\":21963:21985  txCount >= swapTrigger */\n      0xff\n      and\n        /* \"XODEX2.sol\":21963:21970  txCount */\n      0x05\n      0x15\n      swap1\n      sload\n      swap1\n      0x0100\n      exp\n      swap1\n      div\n      0xff\n      and\n        /* \"XODEX2.sol\":21963:21985  txCount >= swapTrigger */\n      0xff\n      and\n      lt\n      iszero\n        /* \"XODEX2.sol\":21963:22000  txCount >= swapTrigger && !isSwapping */\n      dup1\n      iszero\n      tag_519\n      jumpi\n      pop\n        /* \"XODEX2.sol\":21990:22000  isSwapping */\n      0x10\n      0x14\n      swap1\n      sload\n      swap1\n      0x0100\n      exp\n      swap1\n      div\n      0xff\n      and\n        /* \"XODEX2.sol\":21989:22000  !isSwapping */\n      iszero\n        /* \"XODEX2.sol\":21963:22000  txCount >= swapTrigger && !isSwapping */\n    tag_519:\n        /* \"XODEX2.sol\":21963:22025  txCount >= swapTrigger && !isSwapping && from != uniswapV2Pair */\n      dup1\n      iszero\n      tag_520\n      jumpi\n      pop\n        /* \"XODEX2.sol\":22012:22025  uniswapV2Pair */\n      0x10\n      0x00\n      swap1\n      sload\n      swap1\n      0x0100\n      exp\n      swap1\n      div\n      0xffffffffffffffffffffffffffffffffffffffff\n      and\n        /* \"XODEX2.sol\":22004:22025  from != uniswapV2Pair */\n      0xffffffffffffffffffffffffffffffffffffffff\n      and\n        /* \"XODEX2.sol\":22004:22008  from */\n      dup4\n        /* \"XODEX2.sol\":22004:22025  from != uniswapV2Pair */\n      0xffffffffffffffffffffffffffffffffffffffff\n      and\n      eq\n      iszero\n        /* \"XODEX2.sol\":21963:22025  txCount >= swapTrigger && !isSwapping && from != uniswapV2Pair */\n    tag_520:\n        /* \"XODEX2.sol\":21963:22046  txCount >= swapTrigger && !isSwapping && from != uniswapV2Pair && swapAndLiqEnabled */\n      dup1\n      iszero\n      tag_521\n      jumpi\n      pop\n        /* \"XODEX2.sol\":22029:22046  swapAndLiqEnabled */\n      0x10\n      0x15\n      swap1\n      sload\n      swap1\n      0x0100\n      exp\n      swap1\n      div\n      0xff\n      and\n        /* \"XODEX2.sol\":21963:22046  txCount >= swapTrigger && !isSwapping && from != uniswapV2Pair && swapAndLiqEnabled */\n    tag_521:\n        /* \"XODEX2.sol\":21959:22383  if (txCount >= swapTrigger && !isSwapping && from != uniswapV2Pair && swapAndLiqEnabled) {... */\n      iszero\n      tag_522\n      jumpi\n        /* \"XODEX2.sol\":22072:22073  0 */\n      0x00\n        /* \"XODEX2.sol\":22062:22069  txCount */\n      0x05\n      0x15\n        /* \"XODEX2.sol\":22062:22073  txCount = 0 */\n      0x0100\n      exp\n      dup2\n      sload\n      dup2\n      0xff\n      mul\n      not\n      and\n      swap1\n      dup4\n      0xff\n      and\n      mul\n      or\n      swap1\n      sstore\n      pop\n        /* \"XODEX2.sol\":22087:22115  uint256 contractTokenBalance */\n      0x00\n        /* \"XODEX2.sol\":22118:22142  balanceOf(address(this)) */\n      tag_523\n        /* \"XODEX2.sol\":22136:22140  this */\n      address\n        /* \"XODEX2.sol\":22118:22127  balanceOf */\n      tag_159\n        /* \"XODEX2.sol\":22118:22142  balanceOf(address(this)) */\n      jump\t// in\n    tag_523:\n        /* \"XODEX2.sol\":22087:22142  uint256 contractTokenBalance = balanceOf(address(this)) */\n      swap1\n      pop\n        /* \"XODEX2.sol\":22183:22195  _maxTxAmount */\n      sload(0x09)\n        /* \"XODEX2.sol\":22160:22180  contractTokenBalance */\n      dup2\n        /* \"XODEX2.sol\":22160:22195  contractTokenBalance > _maxTxAmount */\n      gt\n        /* \"XODEX2.sol\":22156:22265  if (contractTokenBalance > _maxTxAmount) {... */\n      iszero\n      tag_524\n      jumpi\n        /* \"XODEX2.sol\":22238:22250  _maxTxAmount */\n      sload(0x09)\n        /* \"XODEX2.sol\":22215:22250  contractTokenBalance = _maxTxAmount */\n      swap1\n      pop\n        /* \"XODEX2.sol\":22156:22265  if (contractTokenBalance > _maxTxAmount) {... */\n    tag_524:\n        /* \"XODEX2.sol\":22305:22306  0 */\n      0x00\n        /* \"XODEX2.sol\":22282:22302  contractTokenBalance */\n      dup2\n        /* \"XODEX2.sol\":22282:22306  contractTokenBalance > 0 */\n      gt\n        /* \"XODEX2.sol\":22278:22373  if (contractTokenBalance > 0) {... */\n      iszero\n      tag_525\n      jumpi\n        /* \"XODEX2.sol\":22326:22358  swapTokens(contractTokenBalance) */\n      tag_526\n        /* \"XODEX2.sol\":22337:22357  contractTokenBalance */\n      dup2\n        /* \"XODEX2.sol\":22326:22336  swapTokens */\n      tag_442\n        /* \"XODEX2.sol\":22326:22358  swapTokens(contractTokenBalance) */\n      jump\t// in\n    tag_526:\n        /* \"XODEX2.sol\":22278:22373  if (contractTokenBalance > 0) {... */\n    tag_525:\n        /* \"XODEX2.sol\":22048:22383  {... */\n      pop\n        /* \"XODEX2.sol\":21959:22383  if (txCount >= swapTrigger && !isSwapping && from != uniswapV2Pair && swapAndLiqEnabled) {... */\n    tag_522:\n        /* \"XODEX2.sol\":22393:22405  bool takeFee */\n      0x00\n        /* \"XODEX2.sol\":22408:22412  true */\n      0x01\n        /* \"XODEX2.sol\":22393:22412  bool takeFee = true */\n      swap1\n      pop\n        /* \"XODEX2.sol\":22440:22458  _isExcludedFromFee */\n      0x03\n        /* \"XODEX2.sol\":22440:22464  _isExcludedFromFee[from] */\n      0x00\n        /* \"XODEX2.sol\":22459:22463  from */\n      dup6\n        /* \"XODEX2.sol\":22440:22464  _isExcludedFromFee[from] */\n      0xffffffffffffffffffffffffffffffffffffffff\n      and\n      0xffffffffffffffffffffffffffffffffffffffff\n      and\n      dup2\n      mstore\n      0x20\n      add\n      swap1\n      dup2\n      mstore\n      0x20\n      add\n      0x00\n      keccak256\n      0x00\n      swap1\n      sload\n      swap1\n      0x0100\n      exp\n      swap1\n      div\n      0xff\n      and\n        /* \"XODEX2.sol\":22440:22502  _isExcludedFromFee[from] ||... */\n      dup1\n      tag_527\n      jumpi\n      pop\n        /* \"XODEX2.sol\":22480:22498  _isExcludedFromFee */\n      0x03\n        /* \"XODEX2.sol\":22480:22502  _isExcludedFromFee[to] */\n      0x00\n        /* \"XODEX2.sol\":22499:22501  to */\n      dup5\n        /* \"XODEX2.sol\":22480:22502  _isExcludedFromFee[to] */\n      0xffffffffffffffffffffffffffffffffffffffff\n      and\n      0xffffffffffffffffffffffffffffffffffffffff\n      and\n      dup2\n      mstore\n      0x20\n      add\n      swap1\n      dup2\n      mstore\n      0x20\n      add\n      0x00\n      keccak256\n      0x00\n      swap1\n      sload\n      swap1\n      0x0100\n      exp\n      swap1\n      div\n      0xff\n      and\n        /* \"XODEX2.sol\":22440:22502  _isExcludedFromFee[from] ||... */\n    tag_527:\n        /* \"XODEX2.sol\":22440:22581  _isExcludedFromFee[from] ||... */\n      dup1\n      tag_528\n      jumpi\n      pop\n        /* \"XODEX2.sol\":22519:22532  noTransferFee */\n      0x0f\n      0x00\n      swap1\n      sload\n      swap1\n      0x0100\n      exp\n      swap1\n      div\n      0xff\n      and\n        /* \"XODEX2.sol\":22519:22557  noTransferFee && from != uniswapV2Pair */\n      dup1\n      iszero\n      tag_529\n      jumpi\n      pop\n        /* \"XODEX2.sol\":22544:22557  uniswapV2Pair */\n      0x10\n      0x00\n      swap1\n      sload\n      swap1\n      0x0100\n      exp\n      swap1\n      div\n      0xffffffffffffffffffffffffffffffffffffffff\n      and\n        /* \"XODEX2.sol\":22536:22557  from != uniswapV2Pair */\n      0xffffffffffffffffffffffffffffffffffffffff\n      and\n        /* \"XODEX2.sol\":22536:22540  from */\n      dup5\n        /* \"XODEX2.sol\":22536:22557  from != uniswapV2Pair */\n      0xffffffffffffffffffffffffffffffffffffffff\n      and\n      eq\n      iszero\n        /* \"XODEX2.sol\":22519:22557  noTransferFee && from != uniswapV2Pair */\n    tag_529:\n        /* \"XODEX2.sol\":22519:22580  noTransferFee && from != uniswapV2Pair && to != uniswapV2Pair */\n      dup1\n      iszero\n      tag_530\n      jumpi\n      pop\n        /* \"XODEX2.sol\":22567:22580  uniswapV2Pair */\n      0x10\n      0x00\n      swap1\n      sload\n      swap1\n      0x0100\n      exp\n      swap1\n      div\n      0xffffffffffffffffffffffffffffffffffffffff\n      and\n        /* \"XODEX2.sol\":22561:22580  to != uniswapV2Pair */\n      0xffffffffffffffffffffffffffffffffffffffff\n      and\n        /* \"XODEX2.sol\":22561:22563  to */\n      dup4\n        /* \"XODEX2.sol\":22561:22580  to != uniswapV2Pair */\n      0xffffffffffffffffffffffffffffffffffffffff\n      and\n      eq\n      iszero\n        /* \"XODEX2.sol\":22519:22580  noTransferFee && from != uniswapV2Pair && to != uniswapV2Pair */\n    tag_530:\n        /* \"XODEX2.sol\":22440:22581  _isExcludedFromFee[from] ||... */\n    tag_528:\n        /* \"XODEX2.sol\":22423:22785  if (... */\n      iszero\n      tag_531\n      jumpi\n        /* \"XODEX2.sol\":22616:22621  false */\n      0x00\n        /* \"XODEX2.sol\":22606:22621  takeFee = false */\n      swap1\n      pop\n        /* \"XODEX2.sol\":22423:22785  if (... */\n      jump(tag_532)\n    tag_531:\n        /* \"XODEX2.sol\":22650:22663  uniswapV2Pair */\n      0x10\n      0x00\n      swap1\n      sload\n      swap1\n      0x0100\n      exp\n      swap1\n      div\n      0xffffffffffffffffffffffffffffffffffffffff\n      and\n        /* \"XODEX2.sol\":22642:22663  from == uniswapV2Pair */\n      0xffffffffffffffffffffffffffffffffffffffff\n      and\n        /* \"XODEX2.sol\":22642:22646  from */\n      dup5\n        /* \"XODEX2.sol\":22642:22663  from == uniswapV2Pair */\n      0xffffffffffffffffffffffffffffffffffffffff\n      and\n      sub\n        /* \"XODEX2.sol\":22638:22785  if (from == uniswapV2Pair) {... */\n      tag_533\n      jumpi\n        /* \"XODEX2.sol\":22691:22698  _buyFee */\n      sload(0x0c)\n        /* \"XODEX2.sol\":22679:22688  _TotalFee */\n      0x0e\n        /* \"XODEX2.sol\":22679:22698  _TotalFee = _buyFee */\n      dup2\n      swap1\n      sstore\n      pop\n        /* \"XODEX2.sol\":22638:22785  if (from == uniswapV2Pair) {... */\n      jump(tag_534)\n    tag_533:\n        /* \"XODEX2.sol\":22725:22738  uniswapV2Pair */\n      0x10\n      0x00\n      swap1\n      sload\n      swap1\n      0x0100\n      exp\n      swap1\n      div\n      0xffffffffffffffffffffffffffffffffffffffff\n      and\n        /* \"XODEX2.sol\":22719:22738  to == uniswapV2Pair */\n      0xffffffffffffffffffffffffffffffffffffffff\n      and\n        /* \"XODEX2.sol\":22719:22721  to */\n      dup4\n        /* \"XODEX2.sol\":22719:22738  to == uniswapV2Pair */\n      0xffffffffffffffffffffffffffffffffffffffff\n      and\n      sub\n        /* \"XODEX2.sol\":22715:22785  if (to == uniswapV2Pair) {... */\n      tag_535\n      jumpi\n        /* \"XODEX2.sol\":22766:22774  _sellFee */\n      sload(0x0d)\n        /* \"XODEX2.sol\":22754:22763  _TotalFee */\n      0x0e\n        /* \"XODEX2.sol\":22754:22774  _TotalFee = _sellFee */\n      dup2\n      swap1\n      sstore\n      pop\n        /* \"XODEX2.sol\":22715:22785  if (to == uniswapV2Pair) {... */\n    tag_535:\n        /* \"XODEX2.sol\":22638:22785  if (from == uniswapV2Pair) {... */\n    tag_534:\n        /* \"XODEX2.sol\":22423:22785  if (... */\n    tag_532:\n        /* \"XODEX2.sol\":22795:22836  _tokenTransfer(from, to, amount, takeFee) */\n      tag_536\n        /* \"XODEX2.sol\":22810:22814  from */\n      dup5\n        /* \"XODEX2.sol\":22816:22818  to */\n      dup5\n        /* \"XODEX2.sol\":22820:22826  amount */\n      dup5\n        /* \"XODEX2.sol\":22828:22835  takeFee */\n      dup5\n        /* \"XODEX2.sol\":22795:22809  _tokenTransfer */\n      tag_537\n        /* \"XODEX2.sol\":22795:22836  _tokenTransfer(from, to, amount, takeFee) */\n      jump\t// in\n    tag_536:\n        /* \"XODEX2.sol\":20927:22843  {... */\n      pop\n        /* \"XODEX2.sol\":20828:22843  function _transfer(... */\n      pop\n      pop\n      pop\n      jump\t// out\n        /* \"XODEX2.sol\":1187:1418  function sub(... */\n    tag_304:\n        /* \"XODEX2.sol\":1303:1310  uint256 */\n      0x00\n        /* \"XODEX2.sol\":1359:1360  a */\n      dup4\n        /* \"XODEX2.sol\":1354:1355  b */\n      dup4\n        /* \"XODEX2.sol\":1354:1360  b <= a */\n      gt\n      iszero\n        /* \"XODEX2.sol\":1362:1374  errorMessage */\n      dup3\n        /* \"XODEX2.sol\":1346:1375  require(b <= a, errorMessage) */\n      swap1\n      tag_539\n      jumpi\n      mload(0x40)\n      0x08c379a000000000000000000000000000000000000000000000000000000000\n      dup2\n      mstore\n      0x04\n      add\n      tag_540\n      swap2\n      swap1\n      tag_59\n      jump\t// in\n    tag_540:\n      mload(0x40)\n      dup1\n      swap2\n      sub\n      swap1\n      revert\n    tag_539:\n      pop\n        /* \"XODEX2.sol\":1400:1401  b */\n      dup3\n        /* \"XODEX2.sol\":1396:1397  a */\n      dup5\n        /* \"XODEX2.sol\":1396:1401  a - b */\n      sub\n        /* \"XODEX2.sol\":1389:1401  return a - b */\n      swap1\n      pop\n        /* \"XODEX2.sol\":1187:1418  function sub(... */\n      swap4\n      swap3\n      pop\n      pop\n      pop\n      jump\t// out\n        /* \"XODEX2.sol\":779:875  function add(uint256 a, uint256 b) internal pure returns (uint256) {... */\n    tag_336:\n        /* \"XODEX2.sol\":837:844  uint256 */\n      0x00\n        /* \"XODEX2.sol\":867:868  b */\n      dup2\n        /* \"XODEX2.sol\":863:864  a */\n      dup4\n        /* \"XODEX2.sol\":863:868  a + b */\n      tag_542\n      swap2\n      swap1\n      tag_371\n      jump\t// in\n    tag_542:\n        /* \"XODEX2.sol\":856:868  return a + b */\n      swap1\n      pop\n        /* \"XODEX2.sol\":779:875  function add(uint256 a, uint256 b) internal pure returns (uint256) {... */\n      swap3\n      swap2\n      pop\n      pop\n      jump\t// out\n        /* \"XODEX2.sol\":17692:17914  function swapTokens(uint256 contractTokenBalance) private lockSwap {... */\n    tag_442:\n        /* \"XODEX2.sol\":13264:13268  true */\n      0x01\n        /* \"XODEX2.sol\":13251:13261  isSwapping */\n      0x10\n      0x14\n        /* \"XODEX2.sol\":13251:13268  isSwapping = true */\n      0x0100\n      exp\n      dup2\n      sload\n      dup2\n      0xff\n      mul\n      not\n      and\n      swap1\n      dup4\n      iszero\n      iszero\n      mul\n      or\n      swap1\n      sstore\n      pop\n        /* \"XODEX2.sol\":17769:17807  swapTokensForBNB(contractTokenBalance) */\n      tag_545\n        /* \"XODEX2.sol\":17786:17806  contractTokenBalance */\n      dup2\n        /* \"XODEX2.sol\":17769:17785  swapTokensForBNB */\n      tag_546\n        /* \"XODEX2.sol\":17769:17807  swapTokensForBNB(contractTokenBalance) */\n      jump\t// in\n    tag_545:\n        /* \"XODEX2.sol\":17817:17836  uint256 contractBNB */\n      0x00\n        /* \"XODEX2.sol\":17839:17860  address(this).balance */\n      selfbalance\n        /* \"XODEX2.sol\":17817:17860  uint256 contractBNB = address(this).balance */\n      swap1\n      pop\n        /* \"XODEX2.sol\":17870:17907  sendToWallet(Dev_Wallet, contractBNB) */\n      tag_547\n        /* \"XODEX2.sol\":17883:17893  Dev_Wallet */\n      0x05\n      0x01\n      swap1\n      sload\n      swap1\n      0x0100\n      exp\n      swap1\n      div\n      0xffffffffffffffffffffffffffffffffffffffff\n      and\n        /* \"XODEX2.sol\":17895:17906  contractBNB */\n      dup3\n        /* \"XODEX2.sol\":17870:17882  sendToWallet */\n      tag_548\n        /* \"XODEX2.sol\":17870:17907  sendToWallet(Dev_Wallet, contractBNB) */\n      jump\t// in\n    tag_547:\n        /* \"XODEX2.sol\":17759:17914  {... */\n      pop\n        /* \"XODEX2.sol\":13302:13307  false */\n      0x00\n        /* \"XODEX2.sol\":13289:13299  isSwapping */\n      0x10\n      0x14\n        /* \"XODEX2.sol\":13289:13307  isSwapping = false */\n      0x0100\n      exp\n      dup2\n      sload\n      dup2\n      0xff\n      mul\n      not\n      and\n      swap1\n      dup4\n      iszero\n      iszero\n      mul\n      or\n      swap1\n      sstore\n      pop\n        /* \"XODEX2.sol\":17692:17914  function swapTokens(uint256 contractTokenBalance) private lockSwap {... */\n      pop\n      jump\t// out\n        /* \"XODEX2.sol\":22849:23167  function _tokenTransfer(... */\n    tag_537:\n        /* \"XODEX2.sol\":22999:23006  takeFee */\n      dup1\n        /* \"XODEX2.sol\":22994:23085  if (!takeFee) {... */\n      tag_550\n      jumpi\n        /* \"XODEX2.sol\":23022:23034  removeFees() */\n      tag_551\n        /* \"XODEX2.sol\":23022:23032  removeFees */\n      tag_552\n        /* \"XODEX2.sol\":23022:23034  removeFees() */\n      jump\t// in\n    tag_551:\n        /* \"XODEX2.sol\":22994:23085  if (!takeFee) {... */\n      jump(tag_553)\n    tag_550:\n        /* \"XODEX2.sol\":23065:23072  txCount */\n      0x05\n      0x15\n        /* \"XODEX2.sol\":23065:23074  txCount++ */\n      dup2\n      dup2\n      swap1\n      sload\n      swap1\n      0x0100\n      exp\n      swap1\n      div\n      0xff\n      and\n      dup1\n      swap3\n      swap2\n      swap1\n      tag_554\n      swap1\n      tag_555\n      jump\t// in\n    tag_554:\n      swap2\n      swap1\n      0x0100\n      exp\n      dup2\n      sload\n      dup2\n      0xff\n      mul\n      not\n      and\n      swap1\n      dup4\n      0xff\n      and\n      mul\n      or\n      swap1\n      sstore\n      pop\n      pop\n        /* \"XODEX2.sol\":22994:23085  if (!takeFee) {... */\n    tag_553:\n        /* \"XODEX2.sol\":23094:23136  _transferTokens(sender, recipient, amount) */\n      tag_556\n        /* \"XODEX2.sol\":23110:23116  sender */\n      dup5\n        /* \"XODEX2.sol\":23118:23127  recipient */\n      dup5\n        /* \"XODEX2.sol\":23129:23135  amount */\n      dup5\n        /* \"XODEX2.sol\":23094:23109  _transferTokens */\n      tag_557\n        /* \"XODEX2.sol\":23094:23136  _transferTokens(sender, recipient, amount) */\n      jump\t// in\n    tag_556:\n        /* \"XODEX2.sol\":23147:23160  restoreFees() */\n      tag_558\n        /* \"XODEX2.sol\":23147:23158  restoreFees */\n      tag_559\n        /* \"XODEX2.sol\":23147:23160  restoreFees() */\n      jump\t// in\n    tag_558:\n        /* \"XODEX2.sol\":22849:23167  function _tokenTransfer(... */\n      pop\n      pop\n      pop\n      pop\n      jump\t// out\n        /* \"XODEX2.sol\":17920:18379  function swapTokensForBNB(uint256 tokenAmount) private {... */\n    tag_546:\n        /* \"XODEX2.sol\":17985:18006  address[] memory path */\n      0x00\n        /* \"XODEX2.sol\":18023:18024  2 */\n      0x02\n        /* \"XODEX2.sol\":18009:18025  new address[](2) */\n      0xffffffffffffffff\n      dup2\n      gt\n      iszero\n      tag_561\n      jumpi\n      tag_562\n      tag_563\n      jump\t// in\n    tag_562:\n    tag_561:\n      mload(0x40)\n      swap1\n      dup1\n      dup3\n      mstore\n      dup1\n      0x20\n      mul\n      0x20\n      add\n      dup3\n      add\n      0x40\n      mstore\n      dup1\n      iszero\n      tag_564\n      jumpi\n      dup2\n      0x20\n      add\n      0x20\n      dup3\n      mul\n      dup1\n      calldatasize\n      dup4\n      calldatacopy\n      dup1\n      dup3\n      add\n      swap2\n      pop\n      pop\n      swap1\n      pop\n    tag_564:\n      pop\n        /* \"XODEX2.sol\":17985:18025  address[] memory path = new address[](2) */\n      swap1\n      pop\n        /* \"XODEX2.sol\":18053:18057  this */\n      address\n        /* \"XODEX2.sol\":18035:18039  path */\n      dup2\n        /* \"XODEX2.sol\":18040:18041  0 */\n      0x00\n        /* \"XODEX2.sol\":18035:18042  path[0] */\n      dup2\n      mload\n      dup2\n      lt\n      tag_565\n      jumpi\n      tag_566\n      tag_287\n      jump\t// in\n    tag_566:\n    tag_565:\n      0x20\n      mul\n      0x20\n      add\n      add\n        /* \"XODEX2.sol\":18035:18058  path[0] = address(this) */\n      swap1\n      0xffffffffffffffffffffffffffffffffffffffff\n      and\n      swap1\n      dup2\n      0xffffffffffffffffffffffffffffffffffffffff\n      and\n      dup2\n      mstore\n      pop\n      pop\n        /* \"XODEX2.sol\":18078:18093  uniswapV2Router */\n      0x0f\n      0x01\n      swap1\n      sload\n      swap1\n      0x0100\n      exp\n      swap1\n      div\n      0xffffffffffffffffffffffffffffffffffffffff\n      and\n        /* \"XODEX2.sol\":18078:18098  uniswapV2Router.WETH */\n      0xffffffffffffffffffffffffffffffffffffffff\n      and\n      0xad5c4648\n        /* \"XODEX2.sol\":18078:18100  uniswapV2Router.WETH() */\n      mload(0x40)\n      dup2\n      0xffffffff\n      and\n      0xe0\n      shl\n      dup2\n      mstore\n      0x04\n      add\n      0x20\n      mload(0x40)\n      dup1\n      dup4\n      sub\n      dup2\n      dup7\n      gas\n      staticcall\n      iszero\n      dup1\n      iszero\n      tag_568\n      jumpi\n      returndatasize\n      0x00\n      dup1\n      returndatacopy\n      revert(0x00, returndatasize)\n    tag_568:\n      pop\n      pop\n      pop\n      pop\n      mload(0x40)\n      returndatasize\n      not(0x1f)\n      0x1f\n      dup3\n      add\n      and\n      dup3\n      add\n      dup1\n      0x40\n      mstore\n      pop\n      dup2\n      add\n      swap1\n      tag_569\n      swap2\n      swap1\n      tag_570\n      jump\t// in\n    tag_569:\n        /* \"XODEX2.sol\":18068:18072  path */\n      dup2\n        /* \"XODEX2.sol\":18073:18074  1 */\n      0x01\n        /* \"XODEX2.sol\":18068:18075  path[1] */\n      dup2\n      mload\n      dup2\n      lt\n      tag_571\n      jumpi\n      tag_572\n      tag_287\n      jump\t// in\n    tag_572:\n    tag_571:\n      0x20\n      mul\n      0x20\n      add\n      add\n        /* \"XODEX2.sol\":18068:18100  path[1] = uniswapV2Router.WETH() */\n      swap1\n      0xffffffffffffffffffffffffffffffffffffffff\n      and\n      swap1\n      dup2\n      0xffffffffffffffffffffffffffffffffffffffff\n      and\n      dup2\n      mstore\n      pop\n      pop\n        /* \"XODEX2.sol\":18110:18172  _approve(address(this), address(uniswapV2Router), tokenAmount) */\n      tag_573\n        /* \"XODEX2.sol\":18127:18131  this */\n      address\n        /* \"XODEX2.sol\":18142:18157  uniswapV2Router */\n      0x0f\n      0x01\n      swap1\n      sload\n      swap1\n      0x0100\n      exp\n      swap1\n      div\n      0xffffffffffffffffffffffffffffffffffffffff\n      and\n        /* \"XODEX2.sol\":18160:18171  tokenAmount */\n      dup5\n        /* \"XODEX2.sol\":18110:18118  _approve */\n      tag_259\n        /* \"XODEX2.sol\":18110:18172  _approve(address(this), address(uniswapV2Router), tokenAmount) */\n      jump\t// in\n    tag_573:\n        /* \"XODEX2.sol\":18182:18197  uniswapV2Router */\n      0x0f\n      0x01\n      swap1\n      sload\n      swap1\n      0x0100\n      exp\n      swap1\n      div\n      0xffffffffffffffffffffffffffffffffffffffff\n      and\n        /* \"XODEX2.sol\":18182:18248  uniswapV2Router.swapExactTokensForETHSupportingFeeOnTransferTokens */\n      0xffffffffffffffffffffffffffffffffffffffff\n      and\n      0x791ac947\n        /* \"XODEX2.sol\":18262:18273  tokenAmount */\n      dup4\n        /* \"XODEX2.sol\":18287:18288  0 */\n      0x00\n        /* \"XODEX2.sol\":18302:18306  path */\n      dup5\n        /* \"XODEX2.sol\":18328:18332  this */\n      address\n        /* \"XODEX2.sol\":18347:18362  block.timestamp */\n      timestamp\n        /* \"XODEX2.sol\":18182:18372  uniswapV2Router.swapExactTokensForETHSupportingFeeOnTransferTokens(... */\n      mload(0x40)\n      dup7\n      0xffffffff\n      and\n      0xe0\n      shl\n      dup2\n      mstore\n      0x04\n      add\n      tag_574\n      swap6\n      swap5\n      swap4\n      swap3\n      swap2\n      swap1\n      tag_575\n      jump\t// in\n    tag_574:\n      0x00\n      mload(0x40)\n      dup1\n      dup4\n      sub\n      dup2\n      0x00\n      dup8\n      dup1\n      extcodesize\n      iszero\n      dup1\n      iszero\n      tag_576\n      jumpi\n      0x00\n      dup1\n      revert\n    tag_576:\n      pop\n      gas\n      call\n      iszero\n      dup1\n      iszero\n      tag_578\n      jumpi\n      returndatasize\n      0x00\n      dup1\n      returndatacopy\n      revert(0x00, returndatasize)\n    tag_578:\n      pop\n      pop\n      pop\n      pop\n        /* \"XODEX2.sol\":17975:18379  {... */\n      pop\n        /* \"XODEX2.sol\":17920:18379  function swapTokensForBNB(uint256 tokenAmount) private {... */\n      pop\n      jump\t// out\n        /* \"XODEX2.sol\":17576:17686  function sendToWallet(address payable wallet, uint256 amount) private {... */\n    tag_548:\n        /* \"XODEX2.sol\":17656:17662  wallet */\n      dup2\n        /* \"XODEX2.sol\":17656:17671  wallet.transfer */\n      0xffffffffffffffffffffffffffffffffffffffff\n      and\n        /* \"XODEX2.sol\":17656:17679  wallet.transfer(amount) */\n      0x08fc\n        /* \"XODEX2.sol\":17672:17678  amount */\n      dup3\n        /* \"XODEX2.sol\":17656:17679  wallet.transfer(amount) */\n      swap1\n      dup2\n      iszero\n      mul\n      swap1\n      mload(0x40)\n      0x00\n      mload(0x40)\n      dup1\n      dup4\n      sub\n      dup2\n      dup6\n      dup9\n      dup9\n      call\n      swap4\n      pop\n      pop\n      pop\n      pop\n      iszero\n      dup1\n      iszero\n      tag_581\n      jumpi\n      returndatasize\n      0x00\n      dup1\n      returndatacopy\n      revert(0x00, returndatasize)\n    tag_581:\n      pop\n        /* \"XODEX2.sol\":17576:17686  function sendToWallet(address payable wallet, uint256 amount) private {... */\n      pop\n      pop\n      jump\t// out\n        /* \"XODEX2.sol\":17347:17444  function removeFees() private {... */\n    tag_552:\n        /* \"XODEX2.sol\":17404:17405  0 */\n      0x00\n        /* \"XODEX2.sol\":17391:17400  _TotalFee */\n      sload(0x0e)\n        /* \"XODEX2.sol\":17391:17405  _TotalFee == 0 */\n      sub\n        /* \"XODEX2.sol\":17387:17414  if (_TotalFee == 0) return; */\n      iszero\n        /* \"XODEX2.sol\":17407:17414  return; */\n      tag_582\n        /* \"XODEX2.sol\":17387:17414  if (_TotalFee == 0) return; */\n      jumpi\n        /* \"XODEX2.sol\":17436:17437  0 */\n      0x00\n        /* \"XODEX2.sol\":17424:17433  _TotalFee */\n      0x0e\n        /* \"XODEX2.sol\":17424:17437  _TotalFee = 0 */\n      dup2\n      swap1\n      sstore\n      pop\n        /* \"XODEX2.sol\":17347:17444  function removeFees() private {... */\n    tag_582:\n      jump\t// out\n        /* \"XODEX2.sol\":23173:23642  function _transferTokens(... */\n    tag_557:\n        /* \"XODEX2.sol\":23299:23322  uint256 tTransferAmount */\n      0x00\n        /* \"XODEX2.sol\":23324:23336  uint256 tDev */\n      dup1\n        /* \"XODEX2.sol\":23340:23359  _getValues(tAmount) */\n      tag_585\n        /* \"XODEX2.sol\":23351:23358  tAmount */\n      dup4\n        /* \"XODEX2.sol\":23340:23350  _getValues */\n      tag_586\n        /* \"XODEX2.sol\":23340:23359  _getValues(tAmount) */\n      jump\t// in\n    tag_585:\n        /* \"XODEX2.sol\":23298:23359  (uint256 tTransferAmount, uint256 tDev) = _getValues(tAmount) */\n      swap2\n      pop\n      swap2\n      pop\n        /* \"XODEX2.sol\":23391:23423  _totalOwned[sender].sub(tAmount) */\n      tag_587\n        /* \"XODEX2.sol\":23415:23422  tAmount */\n      dup4\n        /* \"XODEX2.sol\":23391:23402  _totalOwned */\n      0x01\n        /* \"XODEX2.sol\":23391:23410  _totalOwned[sender] */\n      0x00\n        /* \"XODEX2.sol\":23403:23409  sender */\n      dup9\n        /* \"XODEX2.sol\":23391:23410  _totalOwned[sender] */\n      0xffffffffffffffffffffffffffffffffffffffff\n      and\n      0xffffffffffffffffffffffffffffffffffffffff\n      and\n      dup2\n      mstore\n      0x20\n      add\n      swap1\n      dup2\n      mstore\n      0x20\n      add\n      0x00\n      keccak256\n      sload\n        /* \"XODEX2.sol\":23391:23414  _totalOwned[sender].sub */\n      tag_588\n      swap1\n        /* \"XODEX2.sol\":23391:23423  _totalOwned[sender].sub(tAmount) */\n      swap2\n      swap1\n      0xffffffff\n      and\n      jump\t// in\n    tag_587:\n        /* \"XODEX2.sol\":23369:23380  _totalOwned */\n      0x01\n        /* \"XODEX2.sol\":23369:23388  _totalOwned[sender] */\n      0x00\n        /* \"XODEX2.sol\":23381:23387  sender */\n      dup8\n        /* \"XODEX2.sol\":23369:23388  _totalOwned[sender] */\n      0xffffffffffffffffffffffffffffffffffffffff\n      and\n      0xffffffffffffffffffffffffffffffffffffffff\n      and\n      dup2\n      mstore\n      0x20\n      add\n      swap1\n      dup2\n      mstore\n      0x20\n      add\n      0x00\n      keccak256\n        /* \"XODEX2.sol\":23369:23423  _totalOwned[sender] = _totalOwned[sender].sub(tAmount) */\n      dup2\n      swap1\n      sstore\n      pop\n        /* \"XODEX2.sol\":23458:23501  _totalOwned[recipient].add(tTransferAmount) */\n      tag_589\n        /* \"XODEX2.sol\":23485:23500  tTransferAmount */\n      dup3\n        /* \"XODEX2.sol\":23458:23469  _totalOwned */\n      0x01\n        /* \"XODEX2.sol\":23458:23480  _totalOwned[recipient] */\n      0x00\n        /* \"XODEX2.sol\":23470:23479  recipient */\n      dup8\n        /* \"XODEX2.sol\":23458:23480  _totalOwned[recipient] */\n      0xffffffffffffffffffffffffffffffffffffffff\n      and\n      0xffffffffffffffffffffffffffffffffffffffff\n      and\n      dup2\n      mstore\n      0x20\n      add\n      swap1\n      dup2\n      mstore\n      0x20\n      add\n      0x00\n      keccak256\n      sload\n        /* \"XODEX2.sol\":23458:23484  _totalOwned[recipient].add */\n      tag_336\n      swap1\n        /* \"XODEX2.sol\":23458:23501  _totalOwned[recipient].add(tTransferAmount) */\n      swap2\n      swap1\n      0xffffffff\n      and\n      jump\t// in\n    tag_589:\n        /* \"XODEX2.sol\":23433:23444  _totalOwned */\n      0x01\n        /* \"XODEX2.sol\":23433:23455  _totalOwned[recipient] */\n      0x00\n        /* \"XODEX2.sol\":23445:23454  recipient */\n      dup7\n        /* \"XODEX2.sol\":23433:23455  _totalOwned[recipient] */\n      0xffffffffffffffffffffffffffffffffffffffff\n      and\n      0xffffffffffffffffffffffffffffffffffffffff\n      and\n      dup2\n      mstore\n      0x20\n      add\n      swap1\n      dup2\n      mstore\n      0x20\n      add\n      0x00\n      keccak256\n        /* \"XODEX2.sol\":23433:23501  _totalOwned[recipient] = _totalOwned[recipient].add(tTransferAmount) */\n      dup2\n      swap1\n      sstore\n      pop\n        /* \"XODEX2.sol\":23540:23576  _totalOwned[address(this)].add(tDev) */\n      tag_590\n        /* \"XODEX2.sol\":23571:23575  tDev */\n      dup2\n        /* \"XODEX2.sol\":23540:23551  _totalOwned */\n      0x01\n        /* \"XODEX2.sol\":23540:23566  _totalOwned[address(this)] */\n      0x00\n        /* \"XODEX2.sol\":23560:23564  this */\n      address\n        /* \"XODEX2.sol\":23540:23566  _totalOwned[address(this)] */\n      0xffffffffffffffffffffffffffffffffffffffff\n      and\n      0xffffffffffffffffffffffffffffffffffffffff\n      and\n      dup2\n      mstore\n      0x20\n      add\n      swap1\n      dup2\n      mstore\n      0x20\n      add\n      0x00\n      keccak256\n      sload\n        /* \"XODEX2.sol\":23540:23570  _totalOwned[address(this)].add */\n      tag_336\n      swap1\n        /* \"XODEX2.sol\":23540:23576  _totalOwned[address(this)].add(tDev) */\n      swap2\n      swap1\n      0xffffffff\n      and\n      jump\t// in\n    tag_590:\n        /* \"XODEX2.sol\":23511:23522  _totalOwned */\n      0x01\n        /* \"XODEX2.sol\":23511:23537  _totalOwned[address(this)] */\n      0x00\n        /* \"XODEX2.sol\":23531:23535  this */\n      address\n        /* \"XODEX2.sol\":23511:23537  _totalOwned[address(this)] */\n      0xffffffffffffffffffffffffffffffffffffffff\n      and\n      0xffffffffffffffffffffffffffffffffffffffff\n      and\n      dup2\n      mstore\n      0x20\n      add\n      swap1\n      dup2\n      mstore\n      0x20\n      add\n      0x00\n      keccak256\n        /* \"XODEX2.sol\":23511:23576  _totalOwned[address(this)] = _totalOwned[address(this)].add(tDev) */\n      dup2\n      swap1\n      sstore\n      pop\n        /* \"XODEX2.sol\":23608:23617  recipient */\n      dup4\n        /* \"XODEX2.sol\":23591:23635  Transfer(sender, recipient, tTransferAmount) */\n      0xffffffffffffffffffffffffffffffffffffffff\n      and\n        /* \"XODEX2.sol\":23600:23606  sender */\n      dup6\n        /* \"XODEX2.sol\":23591:23635  Transfer(sender, recipient, tTransferAmount) */\n      0xffffffffffffffffffffffffffffffffffffffff\n      and\n      0xddf252ad1be2c89b69c2b068fc378daa952ba7f163c4a11628f55a4df523b3ef\n        /* \"XODEX2.sol\":23619:23634  tTransferAmount */\n      dup5\n        /* \"XODEX2.sol\":23591:23635  Transfer(sender, recipient, tTransferAmount) */\n      mload(0x40)\n      tag_591\n      swap2\n      swap1\n      tag_81\n      jump\t// in\n    tag_591:\n      mload(0x40)\n      dup1\n      swap2\n      sub\n      swap1\n      log3\n        /* \"XODEX2.sol\":23288:23642  {... */\n      pop\n      pop\n        /* \"XODEX2.sol\":23173:23642  function _transferTokens(... */\n      pop\n      pop\n      pop\n      jump\t// out\n        /* \"XODEX2.sol\":17450:17570  function restoreFees() private {... */\n    tag_559:\n        /* \"XODEX2.sol\":17508:17520  _TransferFee */\n      sload(0x0b)\n        /* \"XODEX2.sol\":17495:17504  _TotalFee */\n      sload(0x0e)\n        /* \"XODEX2.sol\":17495:17520  _TotalFee == _TransferFee */\n      sub\n        /* \"XODEX2.sol\":17491:17529  if (_TotalFee == _TransferFee) return; */\n      iszero\n        /* \"XODEX2.sol\":17522:17529  return; */\n      tag_592\n        /* \"XODEX2.sol\":17491:17529  if (_TotalFee == _TransferFee) return; */\n      jumpi\n        /* \"XODEX2.sol\":17551:17563  _TransferFee */\n      sload(0x0b)\n        /* \"XODEX2.sol\":17539:17548  _TotalFee */\n      0x0e\n        /* \"XODEX2.sol\":17539:17563  _TotalFee = _TransferFee */\n      dup2\n      swap1\n      sstore\n      pop\n        /* \"XODEX2.sol\":17450:17570  function restoreFees() private {... */\n    tag_592:\n      jump\t// out\n        /* \"XODEX2.sol\":23648:23877  function _getValues(uint256 tAmount) private view returns (uint256, uint256) {... */\n    tag_586:\n        /* \"XODEX2.sol\":23707:23714  uint256 */\n      0x00\n        /* \"XODEX2.sol\":23716:23723  uint256 */\n      dup1\n        /* \"XODEX2.sol\":23735:23747  uint256 tDev */\n      0x00\n        /* \"XODEX2.sol\":23774:23777  100 */\n      0x64\n        /* \"XODEX2.sol\":23761:23770  _TotalFee */\n      sload(0x0e)\n        /* \"XODEX2.sol\":23751:23758  tAmount */\n      dup6\n        /* \"XODEX2.sol\":23751:23770  tAmount * _TotalFee */\n      tag_595\n      swap2\n      swap1\n      tag_271\n      jump\t// in\n    tag_595:\n        /* \"XODEX2.sol\":23750:23777  (tAmount * _TotalFee) / 100 */\n      tag_596\n      swap2\n      swap1\n      tag_273\n      jump\t// in\n    tag_596:\n        /* \"XODEX2.sol\":23735:23777  uint256 tDev = (tAmount * _TotalFee) / 100 */\n      swap1\n      pop\n        /* \"XODEX2.sol\":23787:23810  uint256 tTransferAmount */\n      0x00\n        /* \"XODEX2.sol\":23813:23830  tAmount.sub(tDev) */\n      tag_597\n        /* \"XODEX2.sol\":23825:23829  tDev */\n      dup3\n        /* \"XODEX2.sol\":23813:23820  tAmount */\n      dup7\n        /* \"XODEX2.sol\":23813:23824  tAmount.sub */\n      tag_588\n      swap1\n        /* \"XODEX2.sol\":23813:23830  tAmount.sub(tDev) */\n      swap2\n      swap1\n      0xffffffff\n      and\n      jump\t// in\n    tag_597:\n        /* \"XODEX2.sol\":23787:23830  uint256 tTransferAmount = tAmount.sub(tDev) */\n      swap1\n      pop\n        /* \"XODEX2.sol\":23848:23863  tTransferAmount */\n      dup1\n        /* \"XODEX2.sol\":23865:23869  tDev */\n      dup3\n        /* \"XODEX2.sol\":23840:23870  return (tTransferAmount, tDev) */\n      swap4\n      pop\n      swap4\n      pop\n      pop\n      pop\n        /* \"XODEX2.sol\":23648:23877  function _getValues(uint256 tAmount) private view returns (uint256, uint256) {... */\n      swap2\n      pop\n      swap2\n      jump\t// out\n        /* \"XODEX2.sol\":881:977  function sub(uint256 a, uint256 b) internal pure returns (uint256) {... */\n    tag_588:\n        /* \"XODEX2.sol\":939:946  uint256 */\n      0x00\n        /* \"XODEX2.sol\":969:970  b */\n      dup2\n        /* \"XODEX2.sol\":965:966  a */\n      dup4\n        /* \"XODEX2.sol\":965:970  a - b */\n      tag_599\n      swap2\n      swap1\n      tag_294\n      jump\t// in\n    tag_599:\n        /* \"XODEX2.sol\":958:970  return a - b */\n      swap1\n      pop\n        /* \"XODEX2.sol\":881:977  function sub(uint256 a, uint256 b) internal pure returns (uint256) {... */\n      swap3\n      swap2\n      pop\n      pop\n      jump\t// out\n        /* \"#utility.yul\":7:106   */\n    tag_600:\n        /* \"#utility.yul\":59:65   */\n      0x00\n        /* \"#utility.yul\":93:98   */\n      dup2\n        /* \"#utility.yul\":87:99   */\n      mload\n        /* \"#utility.yul\":77:99   */\n      swap1\n      pop\n        /* \"#utility.yul\":7:106   */\n      swap2\n      swap1\n      pop\n      jump\t// out\n        /* \"#utility.yul\":112:281   */\n    tag_601:\n        /* \"#utility.yul\":196:207   */\n      0x00\n        /* \"#utility.yul\":230:236   */\n      dup3\n        /* \"#utility.yul\":225:228   */\n      dup3\n        /* \"#utility.yul\":218:237   */\n      mstore\n        /* \"#utility.yul\":270:274   */\n      0x20\n        /* \"#utility.yul\":265:268   */\n      dup3\n        /* \"#utility.yul\":261:275   */\n      add\n        /* \"#utility.yul\":246:275   */\n      swap1\n      pop\n        /* \"#utility.yul\":112:281   */\n      swap3\n      swap2\n      pop\n      pop\n      jump\t// out\n        /* \"#utility.yul\":287:533   */\n    tag_602:\n        /* \"#utility.yul\":368:369   */\n      0x00\n        /* \"#utility.yul\":378:491   */\n    tag_680:\n        /* \"#utility.yul\":392:398   */\n      dup4\n        /* \"#utility.yul\":389:390   */\n      dup2\n        /* \"#utility.yul\":386:399   */\n      lt\n        /* \"#utility.yul\":378:491   */\n      iszero\n      tag_682\n      jumpi\n        /* \"#utility.yul\":477:478   */\n      dup1\n        /* \"#utility.yul\":472:475   */\n      dup3\n        /* \"#utility.yul\":468:479   */\n      add\n        /* \"#utility.yul\":462:480   */\n      mload\n        /* \"#utility.yul\":458:459   */\n      dup2\n        /* \"#utility.yul\":453:456   */\n      dup5\n        /* \"#utility.yul\":449:460   */\n      add\n        /* \"#utility.yul\":442:481   */\n      mstore\n        /* \"#utility.yul\":414:416   */\n      0x20\n        /* \"#utility.yul\":411:412   */\n      dup2\n        /* \"#utility.yul\":407:417   */\n      add\n        /* \"#utility.yul\":402:417   */\n      swap1\n      pop\n        /* \"#utility.yul\":378:491   */\n      jump(tag_680)\n    tag_682:\n        /* \"#utility.yul\":525:526   */\n      0x00\n        /* \"#utility.yul\":516:522   */\n      dup5\n        /* \"#utility.yul\":511:514   */\n      dup5\n        /* \"#utility.yul\":507:523   */\n      add\n        /* \"#utility.yul\":500:527   */\n      mstore\n        /* \"#utility.yul\":349:533   */\n      pop\n        /* \"#utility.yul\":287:533   */\n      pop\n      pop\n      pop\n      jump\t// out\n        /* \"#utility.yul\":539:641   */\n    tag_603:\n        /* \"#utility.yul\":580:586   */\n      0x00\n        /* \"#utility.yul\":631:633   */\n      0x1f\n        /* \"#utility.yul\":627:634   */\n      not\n        /* \"#utility.yul\":622:624   */\n      0x1f\n        /* \"#utility.yul\":615:620   */\n      dup4\n        /* \"#utility.yul\":611:625   */\n      add\n        /* \"#utility.yul\":607:635   */\n      and\n        /* \"#utility.yul\":597:635   */\n      swap1\n      pop\n        /* \"#utility.yul\":539:641   */\n      swap2\n      swap1\n      pop\n      jump\t// out\n        /* \"#utility.yul\":647:1024   */\n    tag_604:\n        /* \"#utility.yul\":735:738   */\n      0x00\n        /* \"#utility.yul\":763:802   */\n      tag_685\n        /* \"#utility.yul\":796:801   */\n      dup3\n        /* \"#utility.yul\":763:802   */\n      tag_600\n      jump\t// in\n    tag_685:\n        /* \"#utility.yul\":818:889   */\n      tag_686\n        /* \"#utility.yul\":882:888   */\n      dup2\n        /* \"#utility.yul\":877:880   */\n      dup6\n        /* \"#utility.yul\":818:889   */\n      tag_601\n      jump\t// in\n    tag_686:\n        /* \"#utility.yul\":811:889   */\n      swap4\n      pop\n        /* \"#utility.yul\":898:963   */\n      tag_687\n        /* \"#utility.yul\":956:962   */\n      dup2\n        /* \"#utility.yul\":951:954   */\n      dup6\n        /* \"#utility.yul\":944:948   */\n      0x20\n        /* \"#utility.yul\":937:942   */\n      dup7\n        /* \"#utility.yul\":933:949   */\n      add\n        /* \"#utility.yul\":898:963   */\n      tag_602\n      jump\t// in\n    tag_687:\n        /* \"#utility.yul\":988:1017   */\n      tag_688\n        /* \"#utility.yul\":1010:1016   */\n      dup2\n        /* \"#utility.yul\":988:1017   */\n      tag_603\n      jump\t// in\n    tag_688:\n        /* \"#utility.yul\":983:986   */\n      dup5\n        /* \"#utility.yul\":979:1018   */\n      add\n        /* \"#utility.yul\":972:1018   */\n      swap2\n      pop\n        /* \"#utility.yul\":739:1024   */\n      pop\n        /* \"#utility.yul\":647:1024   */\n      swap3\n      swap2\n      pop\n      pop\n      jump\t// out\n        /* \"#utility.yul\":1030:1343   */\n    tag_59:\n        /* \"#utility.yul\":1143:1147   */\n      0x00\n        /* \"#utility.yul\":1181:1183   */\n      0x20\n        /* \"#utility.yul\":1170:1179   */\n      dup3\n        /* \"#utility.yul\":1166:1184   */\n      add\n        /* \"#utility.yul\":1158:1184   */\n      swap1\n      pop\n        /* \"#utility.yul\":1230:1239   */\n      dup2\n        /* \"#utility.yul\":1224:1228   */\n      dup2\n        /* \"#utility.yul\":1220:1240   */\n      sub\n        /* \"#utility.yul\":1216:1217   */\n      0x00\n        /* \"#utility.yul\":1205:1214   */\n      dup4\n        /* \"#utility.yul\":1201:1218   */\n      add\n        /* \"#utility.yul\":1194:1241   */\n      mstore\n        /* \"#utility.yul\":1258:1336   */\n      tag_690\n        /* \"#utility.yul\":1331:1335   */\n      dup2\n        /* \"#utility.yul\":1322:1328   */\n      dup5\n        /* \"#utility.yul\":1258:1336   */\n      tag_604\n      jump\t// in\n    tag_690:\n        /* \"#utility.yul\":1250:1336   */\n      swap1\n      pop\n        /* \"#utility.yul\":1030:1343   */\n      swap3\n      swap2\n      pop\n      pop\n      jump\t// out\n        /* \"#utility.yul\":1430:1547   */\n    tag_606:\n        /* \"#utility.yul\":1539:1540   */\n      0x00\n        /* \"#utility.yul\":1536:1537   */\n      dup1\n        /* \"#utility.yul\":1529:1541   */\n      revert\n        /* \"#utility.yul\":1553:1670   */\n    tag_607:\n        /* \"#utility.yul\":1662:1663   */\n      0x00\n        /* \"#utility.yul\":1659:1660   */\n      dup1\n        /* \"#utility.yul\":1652:1664   */\n      revert\n        /* \"#utility.yul\":1676:1802   */\n    tag_608:\n        /* \"#utility.yul\":1713:1720   */\n      0x00\n        /* \"#utility.yul\":1753:1795   */\n      0xffffffffffffffffffffffffffffffffffffffff\n        /* \"#utility.yul\":1746:1751   */\n      dup3\n        /* \"#utility.yul\":1742:1796   */\n      and\n        /* \"#utility.yul\":1731:1796   */\n      swap1\n      pop\n        /* \"#utility.yul\":1676:1802   */\n      swap2\n      swap1\n      pop\n      jump\t// out\n        /* \"#utility.yul\":1808:1904   */\n    tag_609:\n        /* \"#utility.yul\":1845:1852   */\n      0x00\n        /* \"#utility.yul\":1874:1898   */\n      tag_696\n        /* \"#utility.yul\":1892:1897   */\n      dup3\n        /* \"#utility.yul\":1874:1898   */\n      tag_608\n      jump\t// in\n    tag_696:\n        /* \"#utility.yul\":1863:1898   */\n      swap1\n      pop\n        /* \"#utility.yul\":1808:1904   */\n      swap2\n      swap1\n      pop\n      jump\t// out\n        /* \"#utility.yul\":1910:2032   */\n    tag_610:\n        /* \"#utility.yul\":1983:2007   */\n      tag_698\n        /* \"#utility.yul\":2001:2006   */\n      dup2\n        /* \"#utility.yul\":1983:2007   */\n      tag_609\n      jump\t// in\n    tag_698:\n        /* \"#utility.yul\":1976:1981   */\n      dup2\n        /* \"#utility.yul\":1973:2008   */\n      eq\n        /* \"#utility.yul\":1963:2026   */\n      tag_699\n      jumpi\n        /* \"#utility.yul\":2022:2023   */\n      0x00\n        /* \"#utility.yul\":2019:2020   */\n      dup1\n        /* \"#utility.yul\":2012:2024   */\n      revert\n        /* \"#utility.yul\":1963:2026   */\n    tag_699:\n        /* \"#utility.yul\":1910:2032   */\n      pop\n      jump\t// out\n        /* \"#utility.yul\":2038:2177   */\n    tag_611:\n        /* \"#utility.yul\":2084:2089   */\n      0x00\n        /* \"#utility.yul\":2122:2128   */\n      dup2\n        /* \"#utility.yul\":2109:2129   */\n      calldataload\n        /* \"#utility.yul\":2100:2129   */\n      swap1\n      pop\n        /* \"#utility.yul\":2138:2171   */\n      tag_701\n        /* \"#utility.yul\":2165:2170   */\n      dup2\n        /* \"#utility.yul\":2138:2171   */\n      tag_610\n      jump\t// in\n    tag_701:\n        /* \"#utility.yul\":2038:2177   */\n      swap3\n      swap2\n      pop\n      pop\n      jump\t// out\n        /* \"#utility.yul\":2183:2260   */\n    tag_612:\n        /* \"#utility.yul\":2220:2227   */\n      0x00\n        /* \"#utility.yul\":2249:2254   */\n      dup2\n        /* \"#utility.yul\":2238:2254   */\n      swap1\n      pop\n        /* \"#utility.yul\":2183:2260   */\n      swap2\n      swap1\n      pop\n      jump\t// out\n        /* \"#utility.yul\":2266:2388   */\n    tag_613:\n        /* \"#utility.yul\":2339:2363   */\n      tag_704\n        /* \"#utility.yul\":2357:2362   */\n      dup2\n        /* \"#utility.yul\":2339:2363   */\n      tag_612\n      jump\t// in\n    tag_704:\n        /* \"#utility.yul\":2332:2337   */\n      dup2\n        /* \"#utility.yul\":2329:2364   */\n      eq\n        /* \"#utility.yul\":2319:2382   */\n      tag_705\n      jumpi\n        /* \"#utility.yul\":2378:2379   */\n      0x00\n        /* \"#utility.yul\":2375:2376   */\n      dup1\n        /* \"#utility.yul\":2368:2380   */\n      revert\n        /* \"#utility.yul\":2319:2382   */\n    tag_705:\n        /* \"#utility.yul\":2266:2388   */\n      pop\n      jump\t// out\n        /* \"#utility.yul\":2394:2533   */\n    tag_614:\n        /* \"#utility.yul\":2440:2445   */\n      0x00\n        /* \"#utility.yul\":2478:2484   */\n      dup2\n        /* \"#utility.yul\":2465:2485   */\n      calldataload\n        /* \"#utility.yul\":2456:2485   */\n      swap1\n      pop\n        /* \"#utility.yul\":2494:2527   */\n      tag_707\n        /* \"#utility.yul\":2521:2526   */\n      dup2\n        /* \"#utility.yul\":2494:2527   */\n      tag_613\n      jump\t// in\n    tag_707:\n        /* \"#utility.yul\":2394:2533   */\n      swap3\n      swap2\n      pop\n      pop\n      jump\t// out\n        /* \"#utility.yul\":2539:3013   */\n    tag_63:\n        /* \"#utility.yul\":2607:2613   */\n      0x00\n        /* \"#utility.yul\":2615:2621   */\n      dup1\n        /* \"#utility.yul\":2664:2666   */\n      0x40\n        /* \"#utility.yul\":2652:2661   */\n      dup4\n        /* \"#utility.yul\":2643:2650   */\n      dup6\n        /* \"#utility.yul\":2639:2662   */\n      sub\n        /* \"#utility.yul\":2635:2667   */\n      slt\n        /* \"#utility.yul\":2632:2751   */\n      iszero\n      tag_709\n      jumpi\n        /* \"#utility.yul\":2670:2749   */\n      tag_710\n      tag_606\n      jump\t// in\n    tag_710:\n        /* \"#utility.yul\":2632:2751   */\n    tag_709:\n        /* \"#utility.yul\":2790:2791   */\n      0x00\n        /* \"#utility.yul\":2815:2868   */\n      tag_711\n        /* \"#utility.yul\":2860:2867   */\n      dup6\n        /* \"#utility.yul\":2851:2857   */\n      dup3\n        /* \"#utility.yul\":2840:2849   */\n      dup7\n        /* \"#utility.yul\":2836:2858   */\n      add\n        /* \"#utility.yul\":2815:2868   */\n      tag_611\n      jump\t// in\n    tag_711:\n        /* \"#utility.yul\":2805:2868   */\n      swap3\n      pop\n        /* \"#utility.yul\":2761:2878   */\n      pop\n        /* \"#utility.yul\":2917:2919   */\n      0x20\n        /* \"#utility.yul\":2943:2996   */\n      tag_712\n        /* \"#utility.yul\":2988:2995   */\n      dup6\n        /* \"#utility.yul\":2979:2985   */\n      dup3\n        /* \"#utility.yul\":2968:2977   */\n      dup7\n        /* \"#utility.yul\":2964:2986   */\n      add\n        /* \"#utility.yul\":2943:2996   */\n      tag_614\n      jump\t// in\n    tag_712:\n        /* \"#utility.yul\":2933:2996   */\n      swap2\n      pop\n        /* \"#utility.yul\":2888:3006   */\n      pop\n        /* \"#utility.yul\":2539:3013   */\n      swap3\n      pop\n      swap3\n      swap1\n      pop\n      jump\t// out\n        /* \"#utility.yul\":3019:3109   */\n    tag_615:\n        /* \"#utility.yul\":3053:3060   */\n      0x00\n        /* \"#utility.yul\":3096:3101   */\n      dup2\n        /* \"#utility.yul\":3089:3102   */\n      iszero\n        /* \"#utility.yul\":3082:3103   */\n      iszero\n        /* \"#utility.yul\":3071:3103   */\n      swap1\n      pop\n        /* \"#utility.yul\":3019:3109   */\n      swap2\n      swap1\n      pop\n      jump\t// out\n        /* \"#utility.yul\":3115:3224   */\n    tag_616:\n        /* \"#utility.yul\":3196:3217   */\n      tag_715\n        /* \"#utility.yul\":3211:3216   */\n      dup2\n        /* \"#utility.yul\":3196:3217   */\n      tag_615\n      jump\t// in\n    tag_715:\n        /* \"#utility.yul\":3191:3194   */\n      dup3\n        /* \"#utility.yul\":3184:3218   */\n      mstore\n        /* \"#utility.yul\":3115:3224   */\n      pop\n      pop\n      jump\t// out\n        /* \"#utility.yul\":3230:3440   */\n    tag_66:\n        /* \"#utility.yul\":3317:3321   */\n      0x00\n        /* \"#utility.yul\":3355:3357   */\n      0x20\n        /* \"#utility.yul\":3344:3353   */\n      dup3\n        /* \"#utility.yul\":3340:3358   */\n      add\n        /* \"#utility.yul\":3332:3358   */\n      swap1\n      pop\n        /* \"#utility.yul\":3368:3433   */\n      tag_717\n        /* \"#utility.yul\":3430:3431   */\n      0x00\n        /* \"#utility.yul\":3419:3428   */\n      dup4\n        /* \"#utility.yul\":3415:3432   */\n      add\n        /* \"#utility.yul\":3406:3412   */\n      dup5\n        /* \"#utility.yul\":3368:3433   */\n      tag_616\n      jump\t// in\n    tag_717:\n        /* \"#utility.yul\":3230:3440   */\n      swap3\n      swap2\n      pop\n      pop\n      jump\t// out\n        /* \"#utility.yul\":3446:3775   */\n    tag_70:\n        /* \"#utility.yul\":3505:3511   */\n      0x00\n        /* \"#utility.yul\":3554:3556   */\n      0x20\n        /* \"#utility.yul\":3542:3551   */\n      dup3\n        /* \"#utility.yul\":3533:3540   */\n      dup5\n        /* \"#utility.yul\":3529:3552   */\n      sub\n        /* \"#utility.yul\":3525:3557   */\n      slt\n        /* \"#utility.yul\":3522:3641   */\n      iszero\n      tag_719\n      jumpi\n        /* \"#utility.yul\":3560:3639   */\n      tag_720\n      tag_606\n      jump\t// in\n    tag_720:\n        /* \"#utility.yul\":3522:3641   */\n    tag_719:\n        /* \"#utility.yul\":3680:3681   */\n      0x00\n        /* \"#utility.yul\":3705:3758   */\n      tag_721\n        /* \"#utility.yul\":3750:3757   */\n      dup5\n        /* \"#utility.yul\":3741:3747   */\n      dup3\n        /* \"#utility.yul\":3730:3739   */\n      dup6\n        /* \"#utility.yul\":3726:3748   */\n      add\n        /* \"#utility.yul\":3705:3758   */\n      tag_614\n      jump\t// in\n    tag_721:\n        /* \"#utility.yul\":3695:3758   */\n      swap2\n      pop\n        /* \"#utility.yul\":3651:3768   */\n      pop\n        /* \"#utility.yul\":3446:3775   */\n      swap3\n      swap2\n      pop\n      pop\n      jump\t// out\n        /* \"#utility.yul\":3781:3841   */\n    tag_617:\n        /* \"#utility.yul\":3809:3812   */\n      0x00\n        /* \"#utility.yul\":3830:3835   */\n      dup2\n        /* \"#utility.yul\":3823:3835   */\n      swap1\n      pop\n        /* \"#utility.yul\":3781:3841   */\n      swap2\n      swap1\n      pop\n      jump\t// out\n        /* \"#utility.yul\":3847:3989   */\n    tag_618:\n        /* \"#utility.yul\":3897:3906   */\n      0x00\n        /* \"#utility.yul\":3930:3983   */\n      tag_724\n        /* \"#utility.yul\":3948:3982   */\n      tag_725\n        /* \"#utility.yul\":3957:3981   */\n      tag_726\n        /* \"#utility.yul\":3975:3980   */\n      dup5\n        /* \"#utility.yul\":3957:3981   */\n      tag_608\n      jump\t// in\n    tag_726:\n        /* \"#utility.yul\":3948:3982   */\n      tag_617\n      jump\t// in\n    tag_725:\n        /* \"#utility.yul\":3930:3983   */\n      tag_608\n      jump\t// in\n    tag_724:\n        /* \"#utility.yul\":3917:3983   */\n      swap1\n      pop\n        /* \"#utility.yul\":3847:3989   */\n      swap2\n      swap1\n      pop\n      jump\t// out\n        /* \"#utility.yul\":3995:4121   */\n    tag_619:\n        /* \"#utility.yul\":4045:4054   */\n      0x00\n        /* \"#utility.yul\":4078:4115   */\n      tag_728\n        /* \"#utility.yul\":4109:4114   */\n      dup3\n        /* \"#utility.yul\":4078:4115   */\n      tag_618\n      jump\t// in\n    tag_728:\n        /* \"#utility.yul\":4065:4115   */\n      swap1\n      pop\n        /* \"#utility.yul\":3995:4121   */\n      swap2\n      swap1\n      pop\n      jump\t// out\n        /* \"#utility.yul\":4127:4279   */\n    tag_620:\n        /* \"#utility.yul\":4203:4212   */\n      0x00\n        /* \"#utility.yul\":4236:4273   */\n      tag_730\n        /* \"#utility.yul\":4267:4272   */\n      dup3\n        /* \"#utility.yul\":4236:4273   */\n      tag_619\n      jump\t// in\n    tag_730:\n        /* \"#utility.yul\":4223:4273   */\n      swap1\n      pop\n        /* \"#utility.yul\":4127:4279   */\n      swap2\n      swap1\n      pop\n      jump\t// out\n        /* \"#utility.yul\":4285:4468   */\n    tag_621:\n        /* \"#utility.yul\":4398:4461   */\n      tag_732\n        /* \"#utility.yul\":4455:4460   */\n      dup2\n        /* \"#utility.yul\":4398:4461   */\n      tag_620\n      jump\t// in\n    tag_732:\n        /* \"#utility.yul\":4393:4396   */\n      dup3\n        /* \"#utility.yul\":4386:4462   */\n      mstore\n        /* \"#utility.yul\":4285:4468   */\n      pop\n      pop\n      jump\t// out\n        /* \"#utility.yul\":4474:4748   */\n    tag_76:\n        /* \"#utility.yul\":4593:4597   */\n      0x00\n        /* \"#utility.yul\":4631:4633   */\n      0x20\n        /* \"#utility.yul\":4620:4629   */\n      dup3\n        /* \"#utility.yul\":4616:4634   */\n      add\n        /* \"#utility.yul\":4608:4634   */\n      swap1\n      pop\n        /* \"#utility.yul\":4644:4741   */\n      tag_734\n        /* \"#utility.yul\":4738:4739   */\n      0x00\n        /* \"#utility.yul\":4727:4736   */\n      dup4\n        /* \"#utility.yul\":4723:4740   */\n      add\n        /* \"#utility.yul\":4714:4720   */\n      dup5\n        /* \"#utility.yul\":4644:4741   */\n      tag_621\n      jump\t// in\n    tag_734:\n        /* \"#utility.yul\":4474:4748   */\n      swap3\n      swap2\n      pop\n      pop\n      jump\t// out\n        /* \"#utility.yul\":4754:4872   */\n    tag_622:\n        /* \"#utility.yul\":4841:4865   */\n      tag_736\n        /* \"#utility.yul\":4859:4864   */\n      dup2\n        /* \"#utility.yul\":4841:4865   */\n      tag_612\n      jump\t// in\n    tag_736:\n        /* \"#utility.yul\":4836:4839   */\n      dup3\n        /* \"#utility.yul\":4829:4866   */\n      mstore\n        /* \"#utility.yul\":4754:4872   */\n      pop\n      pop\n      jump\t// out\n        /* \"#utility.yul\":4878:5100   */\n    tag_81:\n        /* \"#utility.yul\":4971:4975   */\n      0x00\n        /* \"#utility.yul\":5009:5011   */\n      0x20\n        /* \"#utility.yul\":4998:5007   */\n      dup3\n        /* \"#utility.yul\":4994:5012   */\n      add\n        /* \"#utility.yul\":4986:5012   */\n      swap1\n      pop\n        /* \"#utility.yul\":5022:5093   */\n      tag_738\n        /* \"#utility.yul\":5090:5091   */\n      0x00\n        /* \"#utility.yul\":5079:5088   */\n      dup4\n        /* \"#utility.yul\":5075:5092   */\n      add\n        /* \"#utility.yul\":5066:5072   */\n      dup5\n        /* \"#utility.yul\":5022:5093   */\n      tag_622\n      jump\t// in\n    tag_738:\n        /* \"#utility.yul\":4878:5100   */\n      swap3\n      swap2\n      pop\n      pop\n      jump\t// out\n        /* \"#utility.yul\":5106:5223   */\n    tag_623:\n        /* \"#utility.yul\":5215:5216   */\n      0x00\n        /* \"#utility.yul\":5212:5213   */\n      dup1\n        /* \"#utility.yul\":5205:5217   */\n      revert\n        /* \"#utility.yul\":5229:5346   */\n    tag_624:\n        /* \"#utility.yul\":5338:5339   */\n      0x00\n        /* \"#utility.yul\":5335:5336   */\n      dup1\n        /* \"#utility.yul\":5328:5340   */\n      revert\n        /* \"#utility.yul\":5352:5469   */\n    tag_625:\n        /* \"#utility.yul\":5461:5462   */\n      0x00\n        /* \"#utility.yul\":5458:5459   */\n      dup1\n        /* \"#utility.yul\":5451:5463   */\n      revert\n        /* \"#utility.yul\":5492:6060   */\n    tag_626:\n        /* \"#utility.yul\":5565:5573   */\n      0x00\n        /* \"#utility.yul\":5575:5581   */\n      dup1\n        /* \"#utility.yul\":5625:5628   */\n      dup4\n        /* \"#utility.yul\":5618:5622   */\n      0x1f\n        /* \"#utility.yul\":5610:5616   */\n      dup5\n        /* \"#utility.yul\":5606:5623   */\n      add\n        /* \"#utility.yul\":5602:5629   */\n      slt\n        /* \"#utility.yul\":5592:5714   */\n      tag_743\n      jumpi\n        /* \"#utility.yul\":5633:5712   */\n      tag_744\n      tag_623\n      jump\t// in\n    tag_744:\n        /* \"#utility.yul\":5592:5714   */\n    tag_743:\n        /* \"#utility.yul\":5746:5752   */\n      dup3\n        /* \"#utility.yul\":5733:5753   */\n      calldataload\n        /* \"#utility.yul\":5723:5753   */\n      swap1\n      pop\n        /* \"#utility.yul\":5776:5794   */\n      0xffffffffffffffff\n        /* \"#utility.yul\":5768:5774   */\n      dup2\n        /* \"#utility.yul\":5765:5795   */\n      gt\n        /* \"#utility.yul\":5762:5879   */\n      iszero\n      tag_745\n      jumpi\n        /* \"#utility.yul\":5798:5877   */\n      tag_746\n      tag_624\n      jump\t// in\n    tag_746:\n        /* \"#utility.yul\":5762:5879   */\n    tag_745:\n        /* \"#utility.yul\":5912:5916   */\n      0x20\n        /* \"#utility.yul\":5904:5910   */\n      dup4\n        /* \"#utility.yul\":5900:5917   */\n      add\n        /* \"#utility.yul\":5888:5917   */\n      swap2\n      pop\n        /* \"#utility.yul\":5966:5969   */\n      dup4\n        /* \"#utility.yul\":5958:5962   */\n      0x20\n        /* \"#utility.yul\":5950:5956   */\n      dup3\n        /* \"#utility.yul\":5946:5963   */\n      mul\n        /* \"#utility.yul\":5936:5944   */\n      dup4\n        /* \"#utility.yul\":5932:5964   */\n      add\n        /* \"#utility.yul\":5929:5970   */\n      gt\n        /* \"#utility.yul\":5926:6054   */\n      iszero\n      tag_747\n      jumpi\n        /* \"#utility.yul\":5973:6052   */\n      tag_748\n      tag_625\n      jump\t// in\n    tag_748:\n        /* \"#utility.yul\":5926:6054   */\n    tag_747:\n        /* \"#utility.yul\":5492:6060   */\n      swap3\n      pop\n      swap3\n      swap1\n      pop\n      jump\t// out\n        /* \"#utility.yul\":6066:6625   */\n    tag_85:\n        /* \"#utility.yul\":6152:6158   */\n      0x00\n        /* \"#utility.yul\":6160:6166   */\n      dup1\n        /* \"#utility.yul\":6209:6211   */\n      0x20\n        /* \"#utility.yul\":6197:6206   */\n      dup4\n        /* \"#utility.yul\":6188:6195   */\n      dup6\n        /* \"#utility.yul\":6184:6207   */\n      sub\n        /* \"#utility.yul\":6180:6212   */\n      slt\n        /* \"#utility.yul\":6177:6296   */\n      iszero\n      tag_750\n      jumpi\n        /* \"#utility.yul\":6215:6294   */\n      tag_751\n      tag_606\n      jump\t// in\n    tag_751:\n        /* \"#utility.yul\":6177:6296   */\n    tag_750:\n        /* \"#utility.yul\":6363:6364   */\n      0x00\n        /* \"#utility.yul\":6352:6361   */\n      dup4\n        /* \"#utility.yul\":6348:6365   */\n      add\n        /* \"#utility.yul\":6335:6366   */\n      calldataload\n        /* \"#utility.yul\":6393:6411   */\n      0xffffffffffffffff\n        /* \"#utility.yul\":6385:6391   */\n      dup2\n        /* \"#utility.yul\":6382:6412   */\n      gt\n        /* \"#utility.yul\":6379:6496   */\n      iszero\n      tag_752\n      jumpi\n        /* \"#utility.yul\":6415:6494   */\n      tag_753\n      tag_607\n      jump\t// in\n    tag_753:\n        /* \"#utility.yul\":6379:6496   */\n    tag_752:\n        /* \"#utility.yul\":6528:6608   */\n      tag_754\n        /* \"#utility.yul\":6600:6607   */\n      dup6\n        /* \"#utility.yul\":6591:6597   */\n      dup3\n        /* \"#utility.yul\":6580:6589   */\n      dup7\n        /* \"#utility.yul\":6576:6598   */\n      add\n        /* \"#utility.yul\":6528:6608   */\n      tag_626\n      jump\t// in\n    tag_754:\n        /* \"#utility.yul\":6510:6608   */\n      swap3\n      pop\n      swap3\n      pop\n        /* \"#utility.yul\":6306:6618   */\n      pop\n        /* \"#utility.yul\":6066:6625   */\n      swap3\n      pop\n      swap3\n      swap1\n      pop\n      jump\t// out\n        /* \"#utility.yul\":6631:6960   */\n    tag_90:\n        /* \"#utility.yul\":6690:6696   */\n      0x00\n        /* \"#utility.yul\":6739:6741   */\n      0x20\n        /* \"#utility.yul\":6727:6736   */\n      dup3\n        /* \"#utility.yul\":6718:6725   */\n      dup5\n        /* \"#utility.yul\":6714:6737   */\n      sub\n        /* \"#utility.yul\":6710:6742   */\n      slt\n        /* \"#utility.yul\":6707:6826   */\n      iszero\n      tag_756\n      jumpi\n        /* \"#utility.yul\":6745:6824   */\n      tag_757\n      tag_606\n      jump\t// in\n    tag_757:\n        /* \"#utility.yul\":6707:6826   */\n    tag_756:\n        /* \"#utility.yul\":6865:6866   */\n      0x00\n        /* \"#utility.yul\":6890:6943   */\n      tag_758\n        /* \"#utility.yul\":6935:6942   */\n      dup5\n        /* \"#utility.yul\":6926:6932   */\n      dup3\n        /* \"#utility.yul\":6915:6924   */\n      dup6\n        /* \"#utility.yul\":6911:6933   */\n      add\n        /* \"#utility.yul\":6890:6943   */\n      tag_611\n      jump\t// in\n    tag_758:\n        /* \"#utility.yul\":6880:6943   */\n      swap2\n      pop\n        /* \"#utility.yul\":6836:6953   */\n      pop\n        /* \"#utility.yul\":6631:6960   */\n      swap3\n      swap2\n      pop\n      pop\n      jump\t// out\n        /* \"#utility.yul\":6966:7585   */\n    tag_96:\n        /* \"#utility.yul\":7043:7049   */\n      0x00\n        /* \"#utility.yul\":7051:7057   */\n      dup1\n        /* \"#utility.yul\":7059:7065   */\n      0x00\n        /* \"#utility.yul\":7108:7110   */\n      0x60\n        /* \"#utility.yul\":7096:7105   */\n      dup5\n        /* \"#utility.yul\":7087:7094   */\n      dup7\n        /* \"#utility.yul\":7083:7106   */\n      sub\n        /* \"#utility.yul\":7079:7111   */\n      slt\n        /* \"#utility.yul\":7076:7195   */\n      iszero\n      tag_760\n      jumpi\n        /* \"#utility.yul\":7114:7193   */\n      tag_761\n      tag_606\n      jump\t// in\n    tag_761:\n        /* \"#utility.yul\":7076:7195   */\n    tag_760:\n        /* \"#utility.yul\":7234:7235   */\n      0x00\n        /* \"#utility.yul\":7259:7312   */\n      tag_762\n        /* \"#utility.yul\":7304:7311   */\n      dup7\n        /* \"#utility.yul\":7295:7301   */\n      dup3\n        /* \"#utility.yul\":7284:7293   */\n      dup8\n        /* \"#utility.yul\":7280:7302   */\n      add\n        /* \"#utility.yul\":7259:7312   */\n      tag_611\n      jump\t// in\n    tag_762:\n        /* \"#utility.yul\":7249:7312   */\n      swap4\n      pop\n        /* \"#utility.yul\":7205:7322   */\n      pop\n        /* \"#utility.yul\":7361:7363   */\n      0x20\n        /* \"#utility.yul\":7387:7440   */\n      tag_763\n        /* \"#utility.yul\":7432:7439   */\n      dup7\n        /* \"#utility.yul\":7423:7429   */\n      dup3\n        /* \"#utility.yul\":7412:7421   */\n      dup8\n        /* \"#utility.yul\":7408:7430   */\n      add\n        /* \"#utility.yul\":7387:7440   */\n      tag_611\n      jump\t// in\n    tag_763:\n        /* \"#utility.yul\":7377:7440   */\n      swap3\n      pop\n        /* \"#utility.yul\":7332:7450   */\n      pop\n        /* \"#utility.yul\":7489:7491   */\n      0x40\n        /* \"#utility.yul\":7515:7568   */\n      tag_764\n        /* \"#utility.yul\":7560:7567   */\n      dup7\n        /* \"#utility.yul\":7551:7557   */\n      dup3\n        /* \"#utility.yul\":7540:7549   */\n      dup8\n        /* \"#utility.yul\":7536:7558   */\n      add\n        /* \"#utility.yul\":7515:7568   */\n      tag_614\n      jump\t// in\n    tag_764:\n        /* \"#utility.yul\":7505:7568   */\n      swap2\n      pop\n        /* \"#utility.yul\":7460:7578   */\n      pop\n        /* \"#utility.yul\":6966:7585   */\n      swap3\n      pop\n      swap3\n      pop\n      swap3\n      jump\t// out\n        /* \"#utility.yul\":7591:7677   */\n    tag_627:\n        /* \"#utility.yul\":7626:7633   */\n      0x00\n        /* \"#utility.yul\":7666:7670   */\n      0xff\n        /* \"#utility.yul\":7659:7664   */\n      dup3\n        /* \"#utility.yul\":7655:7671   */\n      and\n        /* \"#utility.yul\":7644:7671   */\n      swap1\n      pop\n        /* \"#utility.yul\":7591:7677   */\n      swap2\n      swap1\n      pop\n      jump\t// out\n        /* \"#utility.yul\":7683:7795   */\n    tag_628:\n        /* \"#utility.yul\":7766:7788   */\n      tag_767\n        /* \"#utility.yul\":7782:7787   */\n      dup2\n        /* \"#utility.yul\":7766:7788   */\n      tag_627\n      jump\t// in\n    tag_767:\n        /* \"#utility.yul\":7761:7764   */\n      dup3\n        /* \"#utility.yul\":7754:7789   */\n      mstore\n        /* \"#utility.yul\":7683:7795   */\n      pop\n      pop\n      jump\t// out\n        /* \"#utility.yul\":7801:8015   */\n    tag_116:\n        /* \"#utility.yul\":7890:7894   */\n      0x00\n        /* \"#utility.yul\":7928:7930   */\n      0x20\n        /* \"#utility.yul\":7917:7926   */\n      dup3\n        /* \"#utility.yul\":7913:7931   */\n      add\n        /* \"#utility.yul\":7905:7931   */\n      swap1\n      pop\n        /* \"#utility.yul\":7941:8008   */\n      tag_769\n        /* \"#utility.yul\":8005:8006   */\n      0x00\n        /* \"#utility.yul\":7994:8003   */\n      dup4\n        /* \"#utility.yul\":7990:8007   */\n      add\n        /* \"#utility.yul\":7981:7987   */\n      dup5\n        /* \"#utility.yul\":7941:8008   */\n      tag_628\n      jump\t// in\n    tag_769:\n        /* \"#utility.yul\":7801:8015   */\n      swap3\n      swap2\n      pop\n      pop\n      jump\t// out\n        /* \"#utility.yul\":8021:8139   */\n    tag_629:\n        /* \"#utility.yul\":8108:8132   */\n      tag_771\n        /* \"#utility.yul\":8126:8131   */\n      dup2\n        /* \"#utility.yul\":8108:8132   */\n      tag_609\n      jump\t// in\n    tag_771:\n        /* \"#utility.yul\":8103:8106   */\n      dup3\n        /* \"#utility.yul\":8096:8133   */\n      mstore\n        /* \"#utility.yul\":8021:8139   */\n      pop\n      pop\n      jump\t// out\n        /* \"#utility.yul\":8145:8367   */\n    tag_142:\n        /* \"#utility.yul\":8238:8242   */\n      0x00\n        /* \"#utility.yul\":8276:8278   */\n      0x20\n        /* \"#utility.yul\":8265:8274   */\n      dup3\n        /* \"#utility.yul\":8261:8279   */\n      add\n        /* \"#utility.yul\":8253:8279   */\n      swap1\n      pop\n        /* \"#utility.yul\":8289:8360   */\n      tag_773\n        /* \"#utility.yul\":8357:8358   */\n      0x00\n        /* \"#utility.yul\":8346:8355   */\n      dup4\n        /* \"#utility.yul\":8342:8359   */\n      add\n        /* \"#utility.yul\":8333:8339   */\n      dup5\n        /* \"#utility.yul\":8289:8360   */\n      tag_629\n      jump\t// in\n    tag_773:\n        /* \"#utility.yul\":8145:8367   */\n      swap3\n      swap2\n      pop\n      pop\n      jump\t// out\n        /* \"#utility.yul\":8373:8847   */\n    tag_154:\n        /* \"#utility.yul\":8441:8447   */\n      0x00\n        /* \"#utility.yul\":8449:8455   */\n      dup1\n        /* \"#utility.yul\":8498:8500   */\n      0x40\n        /* \"#utility.yul\":8486:8495   */\n      dup4\n        /* \"#utility.yul\":8477:8484   */\n      dup6\n        /* \"#utility.yul\":8473:8496   */\n      sub\n        /* \"#utility.yul\":8469:8501   */\n      slt\n        /* \"#utility.yul\":8466:8585   */\n      iszero\n      tag_775\n      jumpi\n        /* \"#utility.yul\":8504:8583   */\n      tag_776\n      tag_606\n      jump\t// in\n    tag_776:\n        /* \"#utility.yul\":8466:8585   */\n    tag_775:\n        /* \"#utility.yul\":8624:8625   */\n      0x00\n        /* \"#utility.yul\":8649:8702   */\n      tag_777\n        /* \"#utility.yul\":8694:8701   */\n      dup6\n        /* \"#utility.yul\":8685:8691   */\n      dup3\n        /* \"#utility.yul\":8674:8683   */\n      dup7\n        /* \"#utility.yul\":8670:8692   */\n      add\n        /* \"#utility.yul\":8649:8702   */\n      tag_614\n      jump\t// in\n    tag_777:\n        /* \"#utility.yul\":8639:8702   */\n      swap3\n      pop\n        /* \"#utility.yul\":8595:8712   */\n      pop\n        /* \"#utility.yul\":8751:8753   */\n      0x20\n        /* \"#utility.yul\":8777:8830   */\n      tag_778\n        /* \"#utility.yul\":8822:8829   */\n      dup6\n        /* \"#utility.yul\":8813:8819   */\n      dup3\n        /* \"#utility.yul\":8802:8811   */\n      dup7\n        /* \"#utility.yul\":8798:8820   */\n      add\n        /* \"#utility.yul\":8777:8830   */\n      tag_614\n      jump\t// in\n    tag_778:\n        /* \"#utility.yul\":8767:8830   */\n      swap2\n      pop\n        /* \"#utility.yul\":8722:8840   */\n      pop\n        /* \"#utility.yul\":8373:8847   */\n      swap3\n      pop\n      swap3\n      swap1\n      pop\n      jump\t// out\n        /* \"#utility.yul\":8853:8971   */\n    tag_630:\n        /* \"#utility.yul\":8924:8946   */\n      tag_780\n        /* \"#utility.yul\":8940:8945   */\n      dup2\n        /* \"#utility.yul\":8924:8946   */\n      tag_627\n      jump\t// in\n    tag_780:\n        /* \"#utility.yul\":8917:8922   */\n      dup2\n        /* \"#utility.yul\":8914:8947   */\n      eq\n        /* \"#utility.yul\":8904:8965   */\n      tag_781\n      jumpi\n        /* \"#utility.yul\":8961:8962   */\n      0x00\n        /* \"#utility.yul\":8958:8959   */\n      dup1\n        /* \"#utility.yul\":8951:8963   */\n      revert\n        /* \"#utility.yul\":8904:8965   */\n    tag_781:\n        /* \"#utility.yul\":8853:8971   */\n      pop\n      jump\t// out\n        /* \"#utility.yul\":8977:9112   */\n    tag_631:\n        /* \"#utility.yul\":9021:9026   */\n      0x00\n        /* \"#utility.yul\":9059:9065   */\n      dup2\n        /* \"#utility.yul\":9046:9066   */\n      calldataload\n        /* \"#utility.yul\":9037:9066   */\n      swap1\n      pop\n        /* \"#utility.yul\":9075:9106   */\n      tag_783\n        /* \"#utility.yul\":9100:9105   */\n      dup2\n        /* \"#utility.yul\":9075:9106   */\n      tag_630\n      jump\t// in\n    tag_783:\n        /* \"#utility.yul\":8977:9112   */\n      swap3\n      swap2\n      pop\n      pop\n      jump\t// out\n        /* \"#utility.yul\":9118:9443   */\n    tag_172:\n        /* \"#utility.yul\":9175:9181   */\n      0x00\n        /* \"#utility.yul\":9224:9226   */\n      0x20\n        /* \"#utility.yul\":9212:9221   */\n      dup3\n        /* \"#utility.yul\":9203:9210   */\n      dup5\n        /* \"#utility.yul\":9199:9222   */\n      sub\n        /* \"#utility.yul\":9195:9227   */\n      slt\n        /* \"#utility.yul\":9192:9311   */\n      iszero\n      tag_785\n      jumpi\n        /* \"#utility.yul\":9230:9309   */\n      tag_786\n      tag_606\n      jump\t// in\n    tag_786:\n        /* \"#utility.yul\":9192:9311   */\n    tag_785:\n        /* \"#utility.yul\":9350:9351   */\n      0x00\n        /* \"#utility.yul\":9375:9426   */\n      tag_787\n        /* \"#utility.yul\":9418:9425   */\n      dup5\n        /* \"#utility.yul\":9409:9415   */\n      dup3\n        /* \"#utility.yul\":9398:9407   */\n      dup6\n        /* \"#utility.yul\":9394:9416   */\n      add\n        /* \"#utility.yul\":9375:9426   */\n      tag_631\n      jump\t// in\n    tag_787:\n        /* \"#utility.yul\":9365:9426   */\n      swap2\n      pop\n        /* \"#utility.yul\":9321:9436   */\n      pop\n        /* \"#utility.yul\":9118:9443   */\n      swap3\n      swap2\n      pop\n      pop\n      jump\t// out\n        /* \"#utility.yul\":9449:9565   */\n    tag_632:\n        /* \"#utility.yul\":9519:9540   */\n      tag_789\n        /* \"#utility.yul\":9534:9539   */\n      dup2\n        /* \"#utility.yul\":9519:9540   */\n      tag_615\n      jump\t// in\n    tag_789:\n        /* \"#utility.yul\":9512:9517   */\n      dup2\n        /* \"#utility.yul\":9509:9541   */\n      eq\n        /* \"#utility.yul\":9499:9559   */\n      tag_790\n      jumpi\n        /* \"#utility.yul\":9555:9556   */\n      0x00\n        /* \"#utility.yul\":9552:9553   */\n      dup1\n        /* \"#utility.yul\":9545:9557   */\n      revert\n        /* \"#utility.yul\":9499:9559   */\n    tag_790:\n        /* \"#utility.yul\":9449:9565   */\n      pop\n      jump\t// out\n        /* \"#utility.yul\":9571:9704   */\n    tag_633:\n        /* \"#utility.yul\":9614:9619   */\n      0x00\n        /* \"#utility.yul\":9652:9658   */\n      dup2\n        /* \"#utility.yul\":9639:9659   */\n      calldataload\n        /* \"#utility.yul\":9630:9659   */\n      swap1\n      pop\n        /* \"#utility.yul\":9668:9698   */\n      tag_792\n        /* \"#utility.yul\":9692:9697   */\n      dup2\n        /* \"#utility.yul\":9668:9698   */\n      tag_632\n      jump\t// in\n    tag_792:\n        /* \"#utility.yul\":9571:9704   */\n      swap3\n      swap2\n      pop\n      pop\n      jump\t// out\n        /* \"#utility.yul\":9710:10033   */\n    tag_197:\n        /* \"#utility.yul\":9766:9772   */\n      0x00\n        /* \"#utility.yul\":9815:9817   */\n      0x20\n        /* \"#utility.yul\":9803:9812   */\n      dup3\n        /* \"#utility.yul\":9794:9801   */\n      dup5\n        /* \"#utility.yul\":9790:9813   */\n      sub\n        /* \"#utility.yul\":9786:9818   */\n      slt\n        /* \"#utility.yul\":9783:9902   */\n      iszero\n      tag_794\n      jumpi\n        /* \"#utility.yul\":9821:9900   */\n      tag_795\n      tag_606\n      jump\t// in\n    tag_795:\n        /* \"#utility.yul\":9783:9902   */\n    tag_794:\n        /* \"#utility.yul\":9941:9942   */\n      0x00\n        /* \"#utility.yul\":9966:10016   */\n      tag_796\n        /* \"#utility.yul\":10008:10015   */\n      dup5\n        /* \"#utility.yul\":9999:10005   */\n      dup3\n        /* \"#utility.yul\":9988:9997   */\n      dup6\n        /* \"#utility.yul\":9984:10006   */\n      add\n        /* \"#utility.yul\":9966:10016   */\n      tag_633\n      jump\t// in\n    tag_796:\n        /* \"#utility.yul\":9956:10016   */\n      swap2\n      pop\n        /* \"#utility.yul\":9912:10026   */\n      pop\n        /* \"#utility.yul\":9710:10033   */\n      swap3\n      swap2\n      pop\n      pop\n      jump\t// out\n        /* \"#utility.yul\":10039:10513   */\n    tag_232:\n        /* \"#utility.yul\":10107:10113   */\n      0x00\n        /* \"#utility.yul\":10115:10121   */\n      dup1\n        /* \"#utility.yul\":10164:10166   */\n      0x40\n        /* \"#utility.yul\":10152:10161   */\n      dup4\n        /* \"#utility.yul\":10143:10150   */\n      dup6\n        /* \"#utility.yul\":10139:10162   */\n      sub\n        /* \"#utility.yul\":10135:10167   */\n      slt\n        /* \"#utility.yul\":10132:10251   */\n      iszero\n      tag_798\n      jumpi\n        /* \"#utility.yul\":10170:10249   */\n      tag_799\n      tag_606\n      jump\t// in\n    tag_799:\n        /* \"#utility.yul\":10132:10251   */\n    tag_798:\n        /* \"#utility.yul\":10290:10291   */\n      0x00\n        /* \"#utility.yul\":10315:10368   */\n      tag_800\n        /* \"#utility.yul\":10360:10367   */\n      dup6\n        /* \"#utility.yul\":10351:10357   */\n      dup3\n        /* \"#utility.yul\":10340:10349   */\n      dup7\n        /* \"#utility.yul\":10336:10358   */\n      add\n        /* \"#utility.yul\":10315:10368   */\n      tag_611\n      jump\t// in\n    tag_800:\n        /* \"#utility.yul\":10305:10368   */\n      swap3\n      pop\n        /* \"#utility.yul\":10261:10378   */\n      pop\n        /* \"#utility.yul\":10417:10419   */\n      0x20\n        /* \"#utility.yul\":10443:10496   */\n      tag_801\n        /* \"#utility.yul\":10488:10495   */\n      dup6\n        /* \"#utility.yul\":10479:10485   */\n      dup3\n        /* \"#utility.yul\":10468:10477   */\n      dup7\n        /* \"#utility.yul\":10464:10486   */\n      add\n        /* \"#utility.yul\":10443:10496   */\n      tag_611\n      jump\t// in\n    tag_801:\n        /* \"#utility.yul\":10433:10496   */\n      swap2\n      pop\n        /* \"#utility.yul\":10388:10506   */\n      pop\n        /* \"#utility.yul\":10039:10513   */\n      swap3\n      pop\n      swap3\n      swap1\n      pop\n      jump\t// out\n        /* \"#utility.yul\":10519:10623   */\n    tag_634:\n        /* \"#utility.yul\":10564:10571   */\n      0x00\n        /* \"#utility.yul\":10593:10617   */\n      tag_803\n        /* \"#utility.yul\":10611:10616   */\n      dup3\n        /* \"#utility.yul\":10593:10617   */\n      tag_608\n      jump\t// in\n    tag_803:\n        /* \"#utility.yul\":10582:10617   */\n      swap1\n      pop\n        /* \"#utility.yul\":10519:10623   */\n      swap2\n      swap1\n      pop\n      jump\t// out\n        /* \"#utility.yul\":10629:10767   */\n    tag_635:\n        /* \"#utility.yul\":10710:10742   */\n      tag_805\n        /* \"#utility.yul\":10736:10741   */\n      dup2\n        /* \"#utility.yul\":10710:10742   */\n      tag_634\n      jump\t// in\n    tag_805:\n        /* \"#utility.yul\":10703:10708   */\n      dup2\n        /* \"#utility.yul\":10700:10743   */\n      eq\n        /* \"#utility.yul\":10690:10761   */\n      tag_806\n      jumpi\n        /* \"#utility.yul\":10757:10758   */\n      0x00\n        /* \"#utility.yul\":10754:10755   */\n      dup1\n        /* \"#utility.yul\":10747:10759   */\n      revert\n        /* \"#utility.yul\":10690:10761   */\n    tag_806:\n        /* \"#utility.yul\":10629:10767   */\n      pop\n      jump\t// out\n        /* \"#utility.yul\":10773:10928   */\n    tag_636:\n        /* \"#utility.yul\":10827:10832   */\n      0x00\n        /* \"#utility.yul\":10865:10871   */\n      dup2\n        /* \"#utility.yul\":10852:10872   */\n      calldataload\n        /* \"#utility.yul\":10843:10872   */\n      swap1\n      pop\n        /* \"#utility.yul\":10881:10922   */\n      tag_808\n        /* \"#utility.yul\":10916:10921   */\n      dup2\n        /* \"#utility.yul\":10881:10922   */\n      tag_635\n      jump\t// in\n    tag_808:\n        /* \"#utility.yul\":10773:10928   */\n      swap3\n      swap2\n      pop\n      pop\n      jump\t// out\n        /* \"#utility.yul\":10934:11279   */\n    tag_246:\n        /* \"#utility.yul\":11001:11007   */\n      0x00\n        /* \"#utility.yul\":11050:11052   */\n      0x20\n        /* \"#utility.yul\":11038:11047   */\n      dup3\n        /* \"#utility.yul\":11029:11036   */\n      dup5\n        /* \"#utility.yul\":11025:11048   */\n      sub\n        /* \"#utility.yul\":11021:11053   */\n      slt\n        /* \"#utility.yul\":11018:11137   */\n      iszero\n      tag_810\n      jumpi\n        /* \"#utility.yul\":11056:11135   */\n      tag_811\n      tag_606\n      jump\t// in\n    tag_811:\n        /* \"#utility.yul\":11018:11137   */\n    tag_810:\n        /* \"#utility.yul\":11176:11177   */\n      0x00\n        /* \"#utility.yul\":11201:11262   */\n      tag_812\n        /* \"#utility.yul\":11254:11261   */\n      dup5\n        /* \"#utility.yul\":11245:11251   */\n      dup3\n        /* \"#utility.yul\":11234:11243   */\n      dup6\n        /* \"#utility.yul\":11230:11252   */\n      add\n        /* \"#utility.yul\":11201:11262   */\n      tag_636\n      jump\t// in\n    tag_812:\n        /* \"#utility.yul\":11191:11262   */\n      swap2\n      pop\n        /* \"#utility.yul\":11147:11272   */\n      pop\n        /* \"#utility.yul\":10934:11279   */\n      swap3\n      swap2\n      pop\n      pop\n      jump\t// out\n        /* \"#utility.yul\":11285:11467   */\n    tag_637:\n        /* \"#utility.yul\":11425:11459   */\n      0x4f776e61626c653a2063616c6c6572206973206e6f7420746865206f776e6572\n        /* \"#utility.yul\":11421:11422   */\n      0x00\n        /* \"#utility.yul\":11413:11419   */\n      dup3\n        /* \"#utility.yul\":11409:11423   */\n      add\n        /* \"#utility.yul\":11402:11460   */\n      mstore\n        /* \"#utility.yul\":11285:11467   */\n      pop\n      jump\t// out\n        /* \"#utility.yul\":11473:11839   */\n    tag_638:\n        /* \"#utility.yul\":11615:11618   */\n      0x00\n        /* \"#utility.yul\":11636:11703   */\n      tag_815\n        /* \"#utility.yul\":11700:11702   */\n      0x20\n        /* \"#utility.yul\":11695:11698   */\n      dup4\n        /* \"#utility.yul\":11636:11703   */\n      tag_601\n      jump\t// in\n    tag_815:\n        /* \"#utility.yul\":11629:11703   */\n      swap2\n      pop\n        /* \"#utility.yul\":11712:11805   */\n      tag_816\n        /* \"#utility.yul\":11801:11804   */\n      dup3\n        /* \"#utility.yul\":11712:11805   */\n      tag_637\n      jump\t// in\n    tag_816:\n        /* \"#utility.yul\":11830:11832   */\n      0x20\n        /* \"#utility.yul\":11825:11828   */\n      dup3\n        /* \"#utility.yul\":11821:11833   */\n      add\n        /* \"#utility.yul\":11814:11833   */\n      swap1\n      pop\n        /* \"#utility.yul\":11473:11839   */\n      swap2\n      swap1\n      pop\n      jump\t// out\n        /* \"#utility.yul\":11845:12264   */\n    tag_265:\n        /* \"#utility.yul\":12011:12015   */\n      0x00\n        /* \"#utility.yul\":12049:12051   */\n      0x20\n        /* \"#utility.yul\":12038:12047   */\n      dup3\n        /* \"#utility.yul\":12034:12052   */\n      add\n        /* \"#utility.yul\":12026:12052   */\n      swap1\n      pop\n        /* \"#utility.yul\":12098:12107   */\n      dup2\n        /* \"#utility.yul\":12092:12096   */\n      dup2\n        /* \"#utility.yul\":12088:12108   */\n      sub\n        /* \"#utility.yul\":12084:12085   */\n      0x00\n        /* \"#utility.yul\":12073:12082   */\n      dup4\n        /* \"#utility.yul\":12069:12086   */\n      add\n        /* \"#utility.yul\":12062:12109   */\n      mstore\n        /* \"#utility.yul\":12126:12257   */\n      tag_818\n        /* \"#utility.yul\":12252:12256   */\n      dup2\n        /* \"#utility.yul\":12126:12257   */\n      tag_638\n      jump\t// in\n    tag_818:\n        /* \"#utility.yul\":12118:12257   */\n      swap1\n      pop\n        /* \"#utility.yul\":11845:12264   */\n      swap2\n      swap1\n      pop\n      jump\t// out\n        /* \"#utility.yul\":12270:12450   */\n    tag_639:\n        /* \"#utility.yul\":12410:12442   */\n      0x4d696e696d756d206d7573742062652067726561746572207468616e20300000\n        /* \"#utility.yul\":12406:12407   */\n      0x00\n        /* \"#utility.yul\":12398:12404   */\n      dup3\n        /* \"#utility.yul\":12394:12408   */\n      add\n        /* \"#utility.yul\":12387:12443   */\n      mstore\n        /* \"#utility.yul\":12270:12450   */\n      pop\n      jump\t// out\n        /* \"#utility.yul\":12456:12822   */\n    tag_640:\n        /* \"#utility.yul\":12598:12601   */\n      0x00\n        /* \"#utility.yul\":12619:12686   */\n      tag_821\n        /* \"#utility.yul\":12683:12685   */\n      0x1e\n        /* \"#utility.yul\":12678:12681   */\n      dup4\n        /* \"#utility.yul\":12619:12686   */\n      tag_601\n      jump\t// in\n    tag_821:\n        /* \"#utility.yul\":12612:12686   */\n      swap2\n      pop\n        /* \"#utility.yul\":12695:12788   */\n      tag_822\n        /* \"#utility.yul\":12784:12787   */\n      dup3\n        /* \"#utility.yul\":12695:12788   */\n      tag_639\n      jump\t// in\n    tag_822:\n        /* \"#utility.yul\":12813:12815   */\n      0x20\n        /* \"#utility.yul\":12808:12811   */\n      dup3\n        /* \"#utility.yul\":12804:12816   */\n      add\n        /* \"#utility.yul\":12797:12816   */\n      swap1\n      pop\n        /* \"#utility.yul\":12456:12822   */\n      swap2\n      swap1\n      pop\n      jump\t// out\n        /* \"#utility.yul\":12828:13247   */\n    tag_269:\n        /* \"#utility.yul\":12994:12998   */\n      0x00\n        /* \"#utility.yul\":13032:13034   */\n      0x20\n        /* \"#utility.yul\":13021:13030   */\n      dup3\n        /* \"#utility.yul\":13017:13035   */\n      add\n        /* \"#utility.yul\":13009:13035   */\n      swap1\n      pop\n        /* \"#utility.yul\":13081:13090   */\n      dup2\n        /* \"#utility.yul\":13075:13079   */\n      dup2\n        /* \"#utility.yul\":13071:13091   */\n      sub\n        /* \"#utility.yul\":13067:13068   */\n      0x00\n        /* \"#utility.yul\":13056:13065   */\n      dup4\n        /* \"#utility.yul\":13052:13069   */\n      add\n        /* \"#utility.yul\":13045:13092   */\n      mstore\n        /* \"#utility.yul\":13109:13240   */\n      tag_824\n        /* \"#utility.yul\":13235:13239   */\n      dup2\n        /* \"#utility.yul\":13109:13240   */\n      tag_640\n      jump\t// in\n    tag_824:\n        /* \"#utility.yul\":13101:13240   */\n      swap1\n      pop\n        /* \"#utility.yul\":12828:13247   */\n      swap2\n      swap1\n      pop\n      jump\t// out\n        /* \"#utility.yul\":13253:13433   */\n    tag_641:\n        /* \"#utility.yul\":13301:13378   */\n      0x4e487b7100000000000000000000000000000000000000000000000000000000\n        /* \"#utility.yul\":13298:13299   */\n      0x00\n        /* \"#utility.yul\":13291:13379   */\n      mstore\n        /* \"#utility.yul\":13398:13402   */\n      0x11\n        /* \"#utility.yul\":13395:13396   */\n      0x04\n        /* \"#utility.yul\":13388:13403   */\n      mstore\n        /* \"#utility.yul\":13422:13426   */\n      0x24\n        /* \"#utility.yul\":13419:13420   */\n      0x00\n        /* \"#utility.yul\":13412:13427   */\n      revert\n        /* \"#utility.yul\":13439:13849   */\n    tag_271:\n        /* \"#utility.yul\":13479:13486   */\n      0x00\n        /* \"#utility.yul\":13502:13522   */\n      tag_827\n        /* \"#utility.yul\":13520:13521   */\n      dup3\n        /* \"#utility.yul\":13502:13522   */\n      tag_612\n      jump\t// in\n    tag_827:\n        /* \"#utility.yul\":13497:13522   */\n      swap2\n      pop\n        /* \"#utility.yul\":13536:13556   */\n      tag_828\n        /* \"#utility.yul\":13554:13555   */\n      dup4\n        /* \"#utility.yul\":13536:13556   */\n      tag_612\n      jump\t// in\n    tag_828:\n        /* \"#utility.yul\":13531:13556   */\n      swap3\n      pop\n        /* \"#utility.yul\":13591:13592   */\n      dup3\n        /* \"#utility.yul\":13588:13589   */\n      dup3\n        /* \"#utility.yul\":13584:13593   */\n      mul\n        /* \"#utility.yul\":13613:13643   */\n      tag_829\n        /* \"#utility.yul\":13631:13642   */\n      dup2\n        /* \"#utility.yul\":13613:13643   */\n      tag_612\n      jump\t// in\n    tag_829:\n        /* \"#utility.yul\":13602:13643   */\n      swap2\n      pop\n        /* \"#utility.yul\":13792:13793   */\n      dup3\n        /* \"#utility.yul\":13783:13790   */\n      dup3\n        /* \"#utility.yul\":13779:13794   */\n      div\n        /* \"#utility.yul\":13776:13777   */\n      dup5\n        /* \"#utility.yul\":13773:13795   */\n      eq\n        /* \"#utility.yul\":13753:13754   */\n      dup4\n        /* \"#utility.yul\":13746:13755   */\n      iszero\n        /* \"#utility.yul\":13726:13809   */\n      or\n        /* \"#utility.yul\":13703:13842   */\n      tag_830\n      jumpi\n        /* \"#utility.yul\":13822:13840   */\n      tag_831\n      tag_641\n      jump\t// in\n    tag_831:\n        /* \"#utility.yul\":13703:13842   */\n    tag_830:\n        /* \"#utility.yul\":13487:13849   */\n      pop\n        /* \"#utility.yul\":13439:13849   */\n      swap3\n      swap2\n      pop\n      pop\n      jump\t// out\n        /* \"#utility.yul\":13855:14035   */\n    tag_642:\n        /* \"#utility.yul\":13903:13980   */\n      0x4e487b7100000000000000000000000000000000000000000000000000000000\n        /* \"#utility.yul\":13900:13901   */\n      0x00\n        /* \"#utility.yul\":13893:13981   */\n      mstore\n        /* \"#utility.yul\":14000:14004   */\n      0x12\n        /* \"#utility.yul\":13997:13998   */\n      0x04\n        /* \"#utility.yul\":13990:14005   */\n      mstore\n        /* \"#utility.yul\":14024:14028   */\n      0x24\n        /* \"#utility.yul\":14021:14022   */\n      0x00\n        /* \"#utility.yul\":14014:14029   */\n      revert\n        /* \"#utility.yul\":14041:14226   */\n    tag_273:\n        /* \"#utility.yul\":14081:14082   */\n      0x00\n        /* \"#utility.yul\":14098:14118   */\n      tag_834\n        /* \"#utility.yul\":14116:14117   */\n      dup3\n        /* \"#utility.yul\":14098:14118   */\n      tag_612\n      jump\t// in\n    tag_834:\n        /* \"#utility.yul\":14093:14118   */\n      swap2\n      pop\n        /* \"#utility.yul\":14132:14152   */\n      tag_835\n        /* \"#utility.yul\":14150:14151   */\n      dup4\n        /* \"#utility.yul\":14132:14152   */\n      tag_612\n      jump\t// in\n    tag_835:\n        /* \"#utility.yul\":14127:14152   */\n      swap3\n      pop\n        /* \"#utility.yul\":14171:14172   */\n      dup3\n        /* \"#utility.yul\":14161:14196   */\n      tag_836\n      jumpi\n        /* \"#utility.yul\":14176:14194   */\n      tag_837\n      tag_642\n      jump\t// in\n    tag_837:\n        /* \"#utility.yul\":14161:14196   */\n    tag_836:\n        /* \"#utility.yul\":14218:14219   */\n      dup3\n        /* \"#utility.yul\":14215:14216   */\n      dup3\n        /* \"#utility.yul\":14211:14220   */\n      div\n        /* \"#utility.yul\":14206:14220   */\n      swap1\n      pop\n        /* \"#utility.yul\":14041:14226   */\n      swap3\n      swap2\n      pop\n      pop\n      jump\t// out\n        /* \"#utility.yul\":14232:14412   */\n    tag_287:\n        /* \"#utility.yul\":14280:14357   */\n      0x4e487b7100000000000000000000000000000000000000000000000000000000\n        /* \"#utility.yul\":14277:14278   */\n      0x00\n        /* \"#utility.yul\":14270:14358   */\n      mstore\n        /* \"#utility.yul\":14377:14381   */\n      0x32\n        /* \"#utility.yul\":14374:14375   */\n      0x04\n        /* \"#utility.yul\":14367:14382   */\n      mstore\n        /* \"#utility.yul\":14401:14405   */\n      0x24\n        /* \"#utility.yul\":14398:14399   */\n      0x00\n        /* \"#utility.yul\":14391:14406   */\n      revert\n        /* \"#utility.yul\":14418:14612   */\n    tag_294:\n        /* \"#utility.yul\":14458:14462   */\n      0x00\n        /* \"#utility.yul\":14478:14498   */\n      tag_840\n        /* \"#utility.yul\":14496:14497   */\n      dup3\n        /* \"#utility.yul\":14478:14498   */\n      tag_612\n      jump\t// in\n    tag_840:\n        /* \"#utility.yul\":14473:14498   */\n      swap2\n      pop\n        /* \"#utility.yul\":14512:14532   */\n      tag_841\n        /* \"#utility.yul\":14530:14531   */\n      dup4\n        /* \"#utility.yul\":14512:14532   */\n      tag_612\n      jump\t// in\n    tag_841:\n        /* \"#utility.yul\":14507:14532   */\n      swap3\n      pop\n        /* \"#utility.yul\":14556:14557   */\n      dup3\n        /* \"#utility.yul\":14553:14554   */\n      dup3\n        /* \"#utility.yul\":14549:14558   */\n      sub\n        /* \"#utility.yul\":14541:14558   */\n      swap1\n      pop\n        /* \"#utility.yul\":14580:14581   */\n      dup2\n        /* \"#utility.yul\":14574:14578   */\n      dup2\n        /* \"#utility.yul\":14571:14582   */\n      gt\n        /* \"#utility.yul\":14568:14605   */\n      iszero\n      tag_842\n      jumpi\n        /* \"#utility.yul\":14585:14603   */\n      tag_843\n      tag_641\n      jump\t// in\n    tag_843:\n        /* \"#utility.yul\":14568:14605   */\n    tag_842:\n        /* \"#utility.yul\":14418:14612   */\n      swap3\n      swap2\n      pop\n      pop\n      jump\t// out\n        /* \"#utility.yul\":14618:14851   */\n    tag_296:\n        /* \"#utility.yul\":14657:14660   */\n      0x00\n        /* \"#utility.yul\":14680:14704   */\n      tag_845\n        /* \"#utility.yul\":14698:14703   */\n      dup3\n        /* \"#utility.yul\":14680:14704   */\n      tag_612\n      jump\t// in\n    tag_845:\n        /* \"#utility.yul\":14671:14704   */\n      swap2\n      pop\n        /* \"#utility.yul\":14726:14792   */\n      0xffffffffffffffffffffffffffffffffffffffffffffffffffffffffffffffff\n        /* \"#utility.yul\":14719:14724   */\n      dup3\n        /* \"#utility.yul\":14716:14793   */\n      sub\n        /* \"#utility.yul\":14713:14816   */\n      tag_846\n      jumpi\n        /* \"#utility.yul\":14796:14814   */\n      tag_847\n      tag_641\n      jump\t// in\n    tag_847:\n        /* \"#utility.yul\":14713:14816   */\n    tag_846:\n        /* \"#utility.yul\":14843:14844   */\n      0x01\n        /* \"#utility.yul\":14836:14841   */\n      dup3\n        /* \"#utility.yul\":14832:14845   */\n      add\n        /* \"#utility.yul\":14825:14845   */\n      swap1\n      pop\n        /* \"#utility.yul\":14618:14851   */\n      swap2\n      swap1\n      pop\n      jump\t// out\n        /* \"#utility.yul\":14857:15024   */\n    tag_643:\n        /* \"#utility.yul\":14997:15016   */\n      0x4552523a207a65726f2061646472657373000000000000000000000000000000\n        /* \"#utility.yul\":14993:14994   */\n      0x00\n        /* \"#utility.yul\":14985:14991   */\n      dup3\n        /* \"#utility.yul\":14981:14995   */\n      add\n        /* \"#utility.yul\":14974:15017   */\n      mstore\n        /* \"#utility.yul\":14857:15024   */\n      pop\n      jump\t// out\n        /* \"#utility.yul\":15030:15396   */\n    tag_644:\n        /* \"#utility.yul\":15172:15175   */\n      0x00\n        /* \"#utility.yul\":15193:15260   */\n      tag_850\n        /* \"#utility.yul\":15257:15259   */\n      0x11\n        /* \"#utility.yul\":15252:15255   */\n      dup4\n        /* \"#utility.yul\":15193:15260   */\n      tag_601\n      jump\t// in\n    tag_850:\n        /* \"#utility.yul\":15186:15260   */\n      swap2\n      pop\n        /* \"#utility.yul\":15269:15362   */\n      tag_851\n        /* \"#utility.yul\":15358:15361   */\n      dup3\n        /* \"#utility.yul\":15269:15362   */\n      tag_643\n      jump\t// in\n    tag_851:\n        /* \"#utility.yul\":15387:15389   */\n      0x20\n        /* \"#utility.yul\":15382:15385   */\n      dup3\n        /* \"#utility.yul\":15378:15390   */\n      add\n        /* \"#utility.yul\":15371:15390   */\n      swap1\n      pop\n        /* \"#utility.yul\":15030:15396   */\n      swap2\n      swap1\n      pop\n      jump\t// out\n        /* \"#utility.yul\":15402:15821   */\n    tag_314:\n        /* \"#utility.yul\":15568:15572   */\n      0x00\n        /* \"#utility.yul\":15606:15608   */\n      0x20\n        /* \"#utility.yul\":15595:15604   */\n      dup3\n        /* \"#utility.yul\":15591:15609   */\n      add\n        /* \"#utility.yul\":15583:15609   */\n      swap1\n      pop\n        /* \"#utility.yul\":15655:15664   */\n      dup2\n        /* \"#utility.yul\":15649:15653   */\n      dup2\n        /* \"#utility.yul\":15645:15665   */\n      sub\n        /* \"#utility.yul\":15641:15642   */\n      0x00\n        /* \"#utility.yul\":15630:15639   */\n      dup4\n        /* \"#utility.yul\":15626:15643   */\n      add\n        /* \"#utility.yul\":15619:15666   */\n      mstore\n        /* \"#utility.yul\":15683:15814   */\n      tag_853\n        /* \"#utility.yul\":15809:15813   */\n      dup2\n        /* \"#utility.yul\":15683:15814   */\n      tag_644\n      jump\t// in\n    tag_853:\n        /* \"#utility.yul\":15675:15814   */\n      swap1\n      pop\n        /* \"#utility.yul\":15402:15821   */\n      swap2\n      swap1\n      pop\n      jump\t// out\n        /* \"#utility.yul\":15827:16004   */\n    tag_645:\n        /* \"#utility.yul\":15967:15996   */\n      0x43616e206e6f742072656d6f7665206e617469766520746f6b656e0000000000\n        /* \"#utility.yul\":15963:15964   */\n      0x00\n        /* \"#utility.yul\":15955:15961   */\n      dup3\n        /* \"#utility.yul\":15951:15965   */\n      add\n        /* \"#utility.yul\":15944:15997   */\n      mstore\n        /* \"#utility.yul\":15827:16004   */\n      pop\n      jump\t// out\n        /* \"#utility.yul\":16010:16376   */\n    tag_646:\n        /* \"#utility.yul\":16152:16155   */\n      0x00\n        /* \"#utility.yul\":16173:16240   */\n      tag_856\n        /* \"#utility.yul\":16237:16239   */\n      0x1b\n        /* \"#utility.yul\":16232:16235   */\n      dup4\n        /* \"#utility.yul\":16173:16240   */\n      tag_601\n      jump\t// in\n    tag_856:\n        /* \"#utility.yul\":16166:16240   */\n      swap2\n      pop\n        /* \"#utility.yul\":16249:16342   */\n      tag_857\n        /* \"#utility.yul\":16338:16341   */\n      dup3\n        /* \"#utility.yul\":16249:16342   */\n      tag_645\n      jump\t// in\n    tag_857:\n        /* \"#utility.yul\":16367:16369   */\n      0x20\n        /* \"#utility.yul\":16362:16365   */\n      dup3\n        /* \"#utility.yul\":16358:16370   */\n      add\n        /* \"#utility.yul\":16351:16370   */\n      swap1\n      pop\n        /* \"#utility.yul\":16010:16376   */\n      swap2\n      swap1\n      pop\n      jump\t// out\n        /* \"#utility.yul\":16382:16801   */\n    tag_317:\n        /* \"#utility.yul\":16548:16552   */\n      0x00\n        /* \"#utility.yul\":16586:16588   */\n      0x20\n        /* \"#utility.yul\":16575:16584   */\n      dup3\n        /* \"#utility.yul\":16571:16589   */\n      add\n        /* \"#utility.yul\":16563:16589   */\n      swap1\n      pop\n        /* \"#utility.yul\":16635:16644   */\n      dup2\n        /* \"#utility.yul\":16629:16633   */\n      dup2\n        /* \"#utility.yul\":16625:16645   */\n      sub\n        /* \"#utility.yul\":16621:16622   */\n      0x00\n        /* \"#utility.yul\":16610:16619   */\n      dup4\n        /* \"#utility.yul\":16606:16623   */\n      add\n        /* \"#utility.yul\":16599:16646   */\n      mstore\n        /* \"#utility.yul\":16663:16794   */\n      tag_859\n        /* \"#utility.yul\":16789:16793   */\n      dup2\n        /* \"#utility.yul\":16663:16794   */\n      tag_646\n      jump\t// in\n    tag_859:\n        /* \"#utility.yul\":16655:16794   */\n      swap1\n      pop\n        /* \"#utility.yul\":16382:16801   */\n      swap2\n      swap1\n      pop\n      jump\t// out\n        /* \"#utility.yul\":16807:16950   */\n    tag_647:\n        /* \"#utility.yul\":16864:16869   */\n      0x00\n        /* \"#utility.yul\":16895:16901   */\n      dup2\n        /* \"#utility.yul\":16889:16902   */\n      mload\n        /* \"#utility.yul\":16880:16902   */\n      swap1\n      pop\n        /* \"#utility.yul\":16911:16944   */\n      tag_861\n        /* \"#utility.yul\":16938:16943   */\n      dup2\n        /* \"#utility.yul\":16911:16944   */\n      tag_613\n      jump\t// in\n    tag_861:\n        /* \"#utility.yul\":16807:16950   */\n      swap3\n      swap2\n      pop\n      pop\n      jump\t// out\n        /* \"#utility.yul\":16956:17307   */\n    tag_322:\n        /* \"#utility.yul\":17026:17032   */\n      0x00\n        /* \"#utility.yul\":17075:17077   */\n      0x20\n        /* \"#utility.yul\":17063:17072   */\n      dup3\n        /* \"#utility.yul\":17054:17061   */\n      dup5\n        /* \"#utility.yul\":17050:17073   */\n      sub\n        /* \"#utility.yul\":17046:17078   */\n      slt\n        /* \"#utility.yul\":17043:17162   */\n      iszero\n      tag_863\n      jumpi\n        /* \"#utility.yul\":17081:17160   */\n      tag_864\n      tag_606\n      jump\t// in\n    tag_864:\n        /* \"#utility.yul\":17043:17162   */\n    tag_863:\n        /* \"#utility.yul\":17201:17202   */\n      0x00\n        /* \"#utility.yul\":17226:17290   */\n      tag_865\n        /* \"#utility.yul\":17282:17289   */\n      dup5\n        /* \"#utility.yul\":17273:17279   */\n      dup3\n        /* \"#utility.yul\":17262:17271   */\n      dup6\n        /* \"#utility.yul\":17258:17280   */\n      add\n        /* \"#utility.yul\":17226:17290   */\n      tag_647\n      jump\t// in\n    tag_865:\n        /* \"#utility.yul\":17216:17290   */\n      swap2\n      pop\n        /* \"#utility.yul\":17172:17300   */\n      pop\n        /* \"#utility.yul\":16956:17307   */\n      swap3\n      swap2\n      pop\n      pop\n      jump\t// out\n        /* \"#utility.yul\":17313:17645   */\n    tag_325:\n        /* \"#utility.yul\":17434:17438   */\n      0x00\n        /* \"#utility.yul\":17472:17474   */\n      0x40\n        /* \"#utility.yul\":17461:17470   */\n      dup3\n        /* \"#utility.yul\":17457:17475   */\n      add\n        /* \"#utility.yul\":17449:17475   */\n      swap1\n      pop\n        /* \"#utility.yul\":17485:17556   */\n      tag_867\n        /* \"#utility.yul\":17553:17554   */\n      0x00\n        /* \"#utility.yul\":17542:17551   */\n      dup4\n        /* \"#utility.yul\":17538:17555   */\n      add\n        /* \"#utility.yul\":17529:17535   */\n      dup6\n        /* \"#utility.yul\":17485:17556   */\n      tag_629\n      jump\t// in\n    tag_867:\n        /* \"#utility.yul\":17566:17638   */\n      tag_868\n        /* \"#utility.yul\":17634:17636   */\n      0x20\n        /* \"#utility.yul\":17623:17632   */\n      dup4\n        /* \"#utility.yul\":17619:17637   */\n      add\n        /* \"#utility.yul\":17610:17616   */\n      dup5\n        /* \"#utility.yul\":17566:17638   */\n      tag_622\n      jump\t// in\n    tag_868:\n        /* \"#utility.yul\":17313:17645   */\n      swap4\n      swap3\n      pop\n      pop\n      pop\n      jump\t// out\n        /* \"#utility.yul\":17651:17788   */\n    tag_648:\n        /* \"#utility.yul\":17705:17710   */\n      0x00\n        /* \"#utility.yul\":17736:17742   */\n      dup2\n        /* \"#utility.yul\":17730:17743   */\n      mload\n        /* \"#utility.yul\":17721:17743   */\n      swap1\n      pop\n        /* \"#utility.yul\":17752:17782   */\n      tag_870\n        /* \"#utility.yul\":17776:17781   */\n      dup2\n        /* \"#utility.yul\":17752:17782   */\n      tag_632\n      jump\t// in\n    tag_870:\n        /* \"#utility.yul\":17651:17788   */\n      swap3\n      swap2\n      pop\n      pop\n      jump\t// out\n        /* \"#utility.yul\":17794:18139   */\n    tag_329:\n        /* \"#utility.yul\":17861:17867   */\n      0x00\n        /* \"#utility.yul\":17910:17912   */\n      0x20\n        /* \"#utility.yul\":17898:17907   */\n      dup3\n        /* \"#utility.yul\":17889:17896   */\n      dup5\n        /* \"#utility.yul\":17885:17908   */\n      sub\n        /* \"#utility.yul\":17881:17913   */\n      slt\n        /* \"#utility.yul\":17878:17997   */\n      iszero\n      tag_872\n      jumpi\n        /* \"#utility.yul\":17916:17995   */\n      tag_873\n      tag_606\n      jump\t// in\n    tag_873:\n        /* \"#utility.yul\":17878:17997   */\n    tag_872:\n        /* \"#utility.yul\":18036:18037   */\n      0x00\n        /* \"#utility.yul\":18061:18122   */\n      tag_874\n        /* \"#utility.yul\":18114:18121   */\n      dup5\n        /* \"#utility.yul\":18105:18111   */\n      dup3\n        /* \"#utility.yul\":18094:18103   */\n      dup6\n        /* \"#utility.yul\":18090:18112   */\n      add\n        /* \"#utility.yul\":18061:18122   */\n      tag_648\n      jump\t// in\n    tag_874:\n        /* \"#utility.yul\":18051:18122   */\n      swap2\n      pop\n        /* \"#utility.yul\":18007:18132   */\n      pop\n        /* \"#utility.yul\":17794:18139   */\n      swap3\n      swap2\n      pop\n      pop\n      jump\t// out\n        /* \"#utility.yul\":18145:18336   */\n    tag_371:\n        /* \"#utility.yul\":18185:18188   */\n      0x00\n        /* \"#utility.yul\":18204:18224   */\n      tag_876\n        /* \"#utility.yul\":18222:18223   */\n      dup3\n        /* \"#utility.yul\":18204:18224   */\n      tag_612\n      jump\t// in\n    tag_876:\n        /* \"#utility.yul\":18199:18224   */\n      swap2\n      pop\n        /* \"#utility.yul\":18238:18258   */\n      tag_877\n        /* \"#utility.yul\":18256:18257   */\n      dup4\n        /* \"#utility.yul\":18238:18258   */\n      tag_612\n      jump\t// in\n    tag_877:\n        /* \"#utility.yul\":18233:18258   */\n      swap3\n      pop\n        /* \"#utility.yul\":18281:18282   */\n      dup3\n        /* \"#utility.yul\":18278:18279   */\n      dup3\n        /* \"#utility.yul\":18274:18283   */\n      add\n        /* \"#utility.yul\":18267:18283   */\n      swap1\n      pop\n        /* \"#utility.yul\":18302:18305   */\n      dup1\n        /* \"#utility.yul\":18299:18300   */\n      dup3\n        /* \"#utility.yul\":18296:18306   */\n      gt\n        /* \"#utility.yul\":18293:18329   */\n      iszero\n      tag_878\n      jumpi\n        /* \"#utility.yul\":18309:18327   */\n      tag_879\n      tag_641\n      jump\t// in\n    tag_879:\n        /* \"#utility.yul\":18293:18329   */\n    tag_878:\n        /* \"#utility.yul\":18145:18336   */\n      swap3\n      swap2\n      pop\n      pop\n      jump\t// out\n        /* \"#utility.yul\":18342:18508   */\n    tag_649:\n        /* \"#utility.yul\":18482:18500   */\n      0x46656520697320746f6f20686967682100000000000000000000000000000000\n        /* \"#utility.yul\":18478:18479   */\n      0x00\n        /* \"#utility.yul\":18470:18476   */\n      dup3\n        /* \"#utility.yul\":18466:18480   */\n      add\n        /* \"#utility.yul\":18459:18501   */\n      mstore\n        /* \"#utility.yul\":18342:18508   */\n      pop\n      jump\t// out\n        /* \"#utility.yul\":18514:18880   */\n    tag_650:\n        /* \"#utility.yul\":18656:18659   */\n      0x00\n        /* \"#utility.yul\":18677:18744   */\n      tag_882\n        /* \"#utility.yul\":18741:18743   */\n      0x10\n        /* \"#utility.yul\":18736:18739   */\n      dup4\n        /* \"#utility.yul\":18677:18744   */\n      tag_601\n      jump\t// in\n    tag_882:\n        /* \"#utility.yul\":18670:18744   */\n      swap2\n      pop\n        /* \"#utility.yul\":18753:18846   */\n      tag_883\n        /* \"#utility.yul\":18842:18845   */\n      dup3\n        /* \"#utility.yul\":18753:18846   */\n      tag_649\n      jump\t// in\n    tag_883:\n        /* \"#utility.yul\":18871:18873   */\n      0x20\n        /* \"#utility.yul\":18866:18869   */\n      dup3\n        /* \"#utility.yul\":18862:18874   */\n      add\n        /* \"#utility.yul\":18855:18874   */\n      swap1\n      pop\n        /* \"#utility.yul\":18514:18880   */\n      swap2\n      swap1\n      pop\n      jump\t// out\n        /* \"#utility.yul\":18886:19305   */\n    tag_374:\n        /* \"#utility.yul\":19052:19056   */\n      0x00\n        /* \"#utility.yul\":19090:19092   */\n      0x20\n        /* \"#utility.yul\":19079:19088   */\n      dup3\n        /* \"#utility.yul\":19075:19093   */\n      add\n        /* \"#utility.yul\":19067:19093   */\n      swap1\n      pop\n        /* \"#utility.yul\":19139:19148   */\n      dup2\n        /* \"#utility.yul\":19133:19137   */\n      dup2\n        /* \"#utility.yul\":19129:19149   */\n      sub\n        /* \"#utility.yul\":19125:19126   */\n      0x00\n        /* \"#utility.yul\":19114:19123   */\n      dup4\n        /* \"#utility.yul\":19110:19127   */\n      add\n        /* \"#utility.yul\":19103:19150   */\n      mstore\n        /* \"#utility.yul\":19167:19298   */\n      tag_885\n        /* \"#utility.yul\":19293:19297   */\n      dup2\n        /* \"#utility.yul\":19167:19298   */\n      tag_650\n      jump\t// in\n    tag_885:\n        /* \"#utility.yul\":19159:19298   */\n      swap1\n      pop\n        /* \"#utility.yul\":18886:19305   */\n      swap2\n      swap1\n      pop\n      jump\t// out\n        /* \"#utility.yul\":19311:19493   */\n    tag_651:\n        /* \"#utility.yul\":19451:19485   */\n      0x43757272656e746c792070726f63657373696e672c20747279206c617465722e\n        /* \"#utility.yul\":19447:19448   */\n      0x00\n        /* \"#utility.yul\":19439:19445   */\n      dup3\n        /* \"#utility.yul\":19435:19449   */\n      add\n        /* \"#utility.yul\":19428:19486   */\n      mstore\n        /* \"#utility.yul\":19311:19493   */\n      pop\n      jump\t// out\n        /* \"#utility.yul\":19499:19865   */\n    tag_652:\n        /* \"#utility.yul\":19641:19644   */\n      0x00\n        /* \"#utility.yul\":19662:19729   */\n      tag_888\n        /* \"#utility.yul\":19726:19728   */\n      0x20\n        /* \"#utility.yul\":19721:19724   */\n      dup4\n        /* \"#utility.yul\":19662:19729   */\n      tag_601\n      jump\t// in\n    tag_888:\n        /* \"#utility.yul\":19655:19729   */\n      swap2\n      pop\n        /* \"#utility.yul\":19738:19831   */\n      tag_889\n        /* \"#utility.yul\":19827:19830   */\n      dup3\n        /* \"#utility.yul\":19738:19831   */\n      tag_651\n      jump\t// in\n    tag_889:\n        /* \"#utility.yul\":19856:19858   */\n      0x20\n        /* \"#utility.yul\":19851:19854   */\n      dup3\n        /* \"#utility.yul\":19847:19859   */\n      add\n        /* \"#utility.yul\":19840:19859   */\n      swap1\n      pop\n        /* \"#utility.yul\":19499:19865   */\n      swap2\n      swap1\n      pop\n      jump\t// out\n        /* \"#utility.yul\":19871:20290   */\n    tag_436:\n        /* \"#utility.yul\":20037:20041   */\n      0x00\n        /* \"#utility.yul\":20075:20077   */\n      0x20\n        /* \"#utility.yul\":20064:20073   */\n      dup3\n        /* \"#utility.yul\":20060:20078   */\n      add\n        /* \"#utility.yul\":20052:20078   */\n      swap1\n      pop\n        /* \"#utility.yul\":20124:20133   */\n      dup2\n        /* \"#utility.yul\":20118:20122   */\n      dup2\n        /* \"#utility.yul\":20114:20134   */\n      sub\n        /* \"#utility.yul\":20110:20111   */\n      0x00\n        /* \"#utility.yul\":20099:20108   */\n      dup4\n        /* \"#utility.yul\":20095:20112   */\n      add\n        /* \"#utility.yul\":20088:20135   */\n      mstore\n        /* \"#utility.yul\":20152:20283   */\n      tag_891\n        /* \"#utility.yul\":20278:20282   */\n      dup2\n        /* \"#utility.yul\":20152:20283   */\n      tag_652\n      jump\t// in\n    tag_891:\n        /* \"#utility.yul\":20144:20283   */\n      swap1\n      pop\n        /* \"#utility.yul\":19871:20290   */\n      swap2\n      swap1\n      pop\n      jump\t// out\n        /* \"#utility.yul\":20296:20521   */\n    tag_653:\n        /* \"#utility.yul\":20436:20470   */\n      0x4f776e61626c653a206e6577206f776e657220697320746865207a65726f2061\n        /* \"#utility.yul\":20432:20433   */\n      0x00\n        /* \"#utility.yul\":20424:20430   */\n      dup3\n        /* \"#utility.yul\":20420:20434   */\n      add\n        /* \"#utility.yul\":20413:20471   */\n      mstore\n        /* \"#utility.yul\":20505:20513   */\n      0x6464726573730000000000000000000000000000000000000000000000000000\n        /* \"#utility.yul\":20500:20502   */\n      0x20\n        /* \"#utility.yul\":20492:20498   */\n      dup3\n        /* \"#utility.yul\":20488:20503   */\n      add\n        /* \"#utility.yul\":20481:20514   */\n      mstore\n        /* \"#utility.yul\":20296:20521   */\n      pop\n      jump\t// out\n        /* \"#utility.yul\":20527:20893   */\n    tag_654:\n        /* \"#utility.yul\":20669:20672   */\n      0x00\n        /* \"#utility.yul\":20690:20757   */\n      tag_894\n        /* \"#utility.yul\":20754:20756   */\n      0x26\n        /* \"#utility.yul\":20749:20752   */\n      dup4\n        /* \"#utility.yul\":20690:20757   */\n      tag_601\n      jump\t// in\n    tag_894:\n        /* \"#utility.yul\":20683:20757   */\n      swap2\n      pop\n        /* \"#utility.yul\":20766:20859   */\n      tag_895\n        /* \"#utility.yul\":20855:20858   */\n      dup3\n        /* \"#utility.yul\":20766:20859   */\n      tag_653\n      jump\t// in\n    tag_895:\n        /* \"#utility.yul\":20884:20886   */\n      0x40\n        /* \"#utility.yul\":20879:20882   */\n      dup3\n        /* \"#utility.yul\":20875:20887   */\n      add\n        /* \"#utility.yul\":20868:20887   */\n      swap1\n      pop\n        /* \"#utility.yul\":20527:20893   */\n      swap2\n      swap1\n      pop\n      jump\t// out\n        /* \"#utility.yul\":20899:21318   */\n    tag_460:\n        /* \"#utility.yul\":21065:21069   */\n      0x00\n        /* \"#utility.yul\":21103:21105   */\n      0x20\n        /* \"#utility.yul\":21092:21101   */\n      dup3\n        /* \"#utility.yul\":21088:21106   */\n      add\n        /* \"#utility.yul\":21080:21106   */\n      swap1\n      pop\n        /* \"#utility.yul\":21152:21161   */\n      dup2\n        /* \"#utility.yul\":21146:21150   */\n      dup2\n        /* \"#utility.yul\":21142:21162   */\n      sub\n        /* \"#utility.yul\":21138:21139   */\n      0x00\n        /* \"#utility.yul\":21127:21136   */\n      dup4\n        /* \"#utility.yul\":21123:21140   */\n      add\n        /* \"#utility.yul\":21116:21163   */\n      mstore\n        /* \"#utility.yul\":21180:21311   */\n      tag_897\n        /* \"#utility.yul\":21306:21310   */\n      dup2\n        /* \"#utility.yul\":21180:21311   */\n      tag_654\n      jump\t// in\n    tag_897:\n        /* \"#utility.yul\":21172:21311   */\n      swap1\n      pop\n        /* \"#utility.yul\":20899:21318   */\n      swap2\n      swap1\n      pop\n      jump\t// out\n        /* \"#utility.yul\":21324:21629   */\n    tag_655:\n        /* \"#utility.yul\":21464:21498   */\n      0x596f752061726520747279696e6720746f2062757920746f6f206d616e792074\n        /* \"#utility.yul\":21460:21461   */\n      0x00\n        /* \"#utility.yul\":21452:21458   */\n      dup3\n        /* \"#utility.yul\":21448:21462   */\n      add\n        /* \"#utility.yul\":21441:21499   */\n      mstore\n        /* \"#utility.yul\":21533:21567   */\n      0x6f6b656e732e20596f752068617665207265616368656420746865206c696d69\n        /* \"#utility.yul\":21528:21530   */\n      0x20\n        /* \"#utility.yul\":21520:21526   */\n      dup3\n        /* \"#utility.yul\":21516:21531   */\n      add\n        /* \"#utility.yul\":21509:21568   */\n      mstore\n        /* \"#utility.yul\":21602:21621   */\n      0x7420666f72206f6e652077616c6c65742e000000000000000000000000000000\n        /* \"#utility.yul\":21597:21599   */\n      0x40\n        /* \"#utility.yul\":21589:21595   */\n      dup3\n        /* \"#utility.yul\":21585:21600   */\n      add\n        /* \"#utility.yul\":21578:21622   */\n      mstore\n        /* \"#utility.yul\":21324:21629   */\n      pop\n      jump\t// out\n        /* \"#utility.yul\":21635:22001   */\n    tag_656:\n        /* \"#utility.yul\":21777:21780   */\n      0x00\n        /* \"#utility.yul\":21798:21865   */\n      tag_900\n        /* \"#utility.yul\":21862:21864   */\n      0x51\n        /* \"#utility.yul\":21857:21860   */\n      dup4\n        /* \"#utility.yul\":21798:21865   */\n      tag_601\n      jump\t// in\n    tag_900:\n        /* \"#utility.yul\":21791:21865   */\n      swap2\n      pop\n        /* \"#utility.yul\":21874:21967   */\n      tag_901\n        /* \"#utility.yul\":21963:21966   */\n      dup3\n        /* \"#utility.yul\":21874:21967   */\n      tag_655\n      jump\t// in\n    tag_901:\n        /* \"#utility.yul\":21992:21994   */\n      0x60\n        /* \"#utility.yul\":21987:21990   */\n      dup3\n        /* \"#utility.yul\":21983:21995   */\n      add\n        /* \"#utility.yul\":21976:21995   */\n      swap1\n      pop\n        /* \"#utility.yul\":21635:22001   */\n      swap2\n      swap1\n      pop\n      jump\t// out\n        /* \"#utility.yul\":22007:22426   */\n    tag_499:\n        /* \"#utility.yul\":22173:22177   */\n      0x00\n        /* \"#utility.yul\":22211:22213   */\n      0x20\n        /* \"#utility.yul\":22200:22209   */\n      dup3\n        /* \"#utility.yul\":22196:22214   */\n      add\n        /* \"#utility.yul\":22188:22214   */\n      swap1\n      pop\n        /* \"#utility.yul\":22260:22269   */\n      dup2\n        /* \"#utility.yul\":22254:22258   */\n      dup2\n        /* \"#utility.yul\":22250:22270   */\n      sub\n        /* \"#utility.yul\":22246:22247   */\n      0x00\n        /* \"#utility.yul\":22235:22244   */\n      dup4\n        /* \"#utility.yul\":22231:22248   */\n      add\n        /* \"#utility.yul\":22224:22271   */\n      mstore\n        /* \"#utility.yul\":22288:22419   */\n      tag_903\n        /* \"#utility.yul\":22414:22418   */\n      dup2\n        /* \"#utility.yul\":22288:22419   */\n      tag_656\n      jump\t// in\n    tag_903:\n        /* \"#utility.yul\":22280:22419   */\n      swap1\n      pop\n        /* \"#utility.yul\":22007:22426   */\n      swap2\n      swap1\n      pop\n      jump\t// out\n        /* \"#utility.yul\":22432:22677   */\n    tag_657:\n        /* \"#utility.yul\":22572:22606   */\n      0x596f752061726520747279696e6720746f20627579206d6f7265207468616e20\n        /* \"#utility.yul\":22568:22569   */\n      0x00\n        /* \"#utility.yul\":22560:22566   */\n      dup3\n        /* \"#utility.yul\":22556:22570   */\n      add\n        /* \"#utility.yul\":22549:22607   */\n      mstore\n        /* \"#utility.yul\":22641:22669   */\n      0x746865206d6178207472616e73616374696f6e206c696d69742e000000000000\n        /* \"#utility.yul\":22636:22638   */\n      0x20\n        /* \"#utility.yul\":22628:22634   */\n      dup3\n        /* \"#utility.yul\":22624:22639   */\n      add\n        /* \"#utility.yul\":22617:22670   */\n      mstore\n        /* \"#utility.yul\":22432:22677   */\n      pop\n      jump\t// out\n        /* \"#utility.yul\":22683:23049   */\n    tag_658:\n        /* \"#utility.yul\":22825:22828   */\n      0x00\n        /* \"#utility.yul\":22846:22913   */\n      tag_906\n        /* \"#utility.yul\":22910:22912   */\n      0x3a\n        /* \"#utility.yul\":22905:22908   */\n      dup4\n        /* \"#utility.yul\":22846:22913   */\n      tag_601\n      jump\t// in\n    tag_906:\n        /* \"#utility.yul\":22839:22913   */\n      swap2\n      pop\n        /* \"#utility.yul\":22922:23015   */\n      tag_907\n        /* \"#utility.yul\":23011:23014   */\n      dup3\n        /* \"#utility.yul\":22922:23015   */\n      tag_657\n      jump\t// in\n    tag_907:\n        /* \"#utility.yul\":23040:23042   */\n      0x40\n        /* \"#utility.yul\":23035:23038   */\n      dup3\n        /* \"#utility.yul\":23031:23043   */\n      add\n        /* \"#utility.yul\":23024:23043   */\n      swap1\n      pop\n        /* \"#utility.yul\":22683:23049   */\n      swap2\n      swap1\n      pop\n      jump\t// out\n        /* \"#utility.yul\":23055:23474   */\n    tag_506:\n        /* \"#utility.yul\":23221:23225   */\n      0x00\n        /* \"#utility.yul\":23259:23261   */\n      0x20\n        /* \"#utility.yul\":23248:23257   */\n      dup3\n        /* \"#utility.yul\":23244:23262   */\n      add\n        /* \"#utility.yul\":23236:23262   */\n      swap1\n      pop\n        /* \"#utility.yul\":23308:23317   */\n      dup2\n        /* \"#utility.yul\":23302:23306   */\n      dup2\n        /* \"#utility.yul\":23298:23318   */\n      sub\n        /* \"#utility.yul\":23294:23295   */\n      0x00\n        /* \"#utility.yul\":23283:23292   */\n      dup4\n        /* \"#utility.yul\":23279:23296   */\n      add\n        /* \"#utility.yul\":23272:23319   */\n      mstore\n        /* \"#utility.yul\":23336:23467   */\n      tag_909\n        /* \"#utility.yul\":23462:23466   */\n      dup2\n        /* \"#utility.yul\":23336:23467   */\n      tag_658\n      jump\t// in\n    tag_909:\n        /* \"#utility.yul\":23328:23467   */\n      swap1\n      pop\n        /* \"#utility.yul\":23055:23474   */\n      swap2\n      swap1\n      pop\n      jump\t// out\n        /* \"#utility.yul\":23480:23717   */\n    tag_659:\n        /* \"#utility.yul\":23620:23654   */\n      0x54686973206164647265737320697320626c61636b6c69737465642e20547261\n        /* \"#utility.yul\":23616:23617   */\n      0x00\n        /* \"#utility.yul\":23608:23614   */\n      dup3\n        /* \"#utility.yul\":23604:23618   */\n      add\n        /* \"#utility.yul\":23597:23655   */\n      mstore\n        /* \"#utility.yul\":23689:23709   */\n      0x6e73616374696f6e2072657665727465642e0000000000000000000000000000\n        /* \"#utility.yul\":23684:23686   */\n      0x20\n        /* \"#utility.yul\":23676:23682   */\n      dup3\n        /* \"#utility.yul\":23672:23687   */\n      add\n        /* \"#utility.yul\":23665:23710   */\n      mstore\n        /* \"#utility.yul\":23480:23717   */\n      pop\n      jump\t// out\n        /* \"#utility.yul\":23723:24089   */\n    tag_660:\n        /* \"#utility.yul\":23865:23868   */\n      0x00\n        /* \"#utility.yul\":23886:23953   */\n      tag_912\n        /* \"#utility.yul\":23950:23952   */\n      0x32\n        /* \"#utility.yul\":23945:23948   */\n      dup4\n        /* \"#utility.yul\":23886:23953   */\n      tag_601\n      jump\t// in\n    tag_912:\n        /* \"#utility.yul\":23879:23953   */\n      swap2\n      pop\n        /* \"#utility.yul\":23962:24055   */\n      tag_913\n        /* \"#utility.yul\":24051:24054   */\n      dup3\n        /* \"#utility.yul\":23962:24055   */\n      tag_659\n      jump\t// in\n    tag_913:\n        /* \"#utility.yul\":24080:24082   */\n      0x40\n        /* \"#utility.yul\":24075:24078   */\n      dup3\n        /* \"#utility.yul\":24071:24083   */\n      add\n        /* \"#utility.yul\":24064:24083   */\n      swap1\n      pop\n        /* \"#utility.yul\":23723:24089   */\n      swap2\n      swap1\n      pop\n      jump\t// out\n        /* \"#utility.yul\":24095:24514   */\n    tag_511:\n        /* \"#utility.yul\":24261:24265   */\n      0x00\n        /* \"#utility.yul\":24299:24301   */\n      0x20\n        /* \"#utility.yul\":24288:24297   */\n      dup3\n        /* \"#utility.yul\":24284:24302   */\n      add\n        /* \"#utility.yul\":24276:24302   */\n      swap1\n      pop\n        /* \"#utility.yul\":24348:24357   */\n      dup2\n        /* \"#utility.yul\":24342:24346   */\n      dup2\n        /* \"#utility.yul\":24338:24358   */\n      sub\n        /* \"#utility.yul\":24334:24335   */\n      0x00\n        /* \"#utility.yul\":24323:24332   */\n      dup4\n        /* \"#utility.yul\":24319:24336   */\n      add\n        /* \"#utility.yul\":24312:24359   */\n      mstore\n        /* \"#utility.yul\":24376:24507   */\n      tag_915\n        /* \"#utility.yul\":24502:24506   */\n      dup2\n        /* \"#utility.yul\":24376:24507   */\n      tag_660\n      jump\t// in\n    tag_915:\n        /* \"#utility.yul\":24368:24507   */\n      swap1\n      pop\n        /* \"#utility.yul\":24095:24514   */\n      swap2\n      swap1\n      pop\n      jump\t// out\n        /* \"#utility.yul\":24520:24691   */\n    tag_661:\n        /* \"#utility.yul\":24660:24683   */\n      0x4552523a205573696e6720302061646472657373210000000000000000000000\n        /* \"#utility.yul\":24656:24657   */\n      0x00\n        /* \"#utility.yul\":24648:24654   */\n      dup3\n        /* \"#utility.yul\":24644:24658   */\n      add\n        /* \"#utility.yul\":24637:24684   */\n      mstore\n        /* \"#utility.yul\":24520:24691   */\n      pop\n      jump\t// out\n        /* \"#utility.yul\":24697:25063   */\n    tag_662:\n        /* \"#utility.yul\":24839:24842   */\n      0x00\n        /* \"#utility.yul\":24860:24927   */\n      tag_918\n        /* \"#utility.yul\":24924:24926   */\n      0x15\n        /* \"#utility.yul\":24919:24922   */\n      dup4\n        /* \"#utility.yul\":24860:24927   */\n      tag_601\n      jump\t// in\n    tag_918:\n        /* \"#utility.yul\":24853:24927   */\n      swap2\n      pop\n        /* \"#utility.yul\":24936:25029   */\n      tag_919\n        /* \"#utility.yul\":25025:25028   */\n      dup3\n        /* \"#utility.yul\":24936:25029   */\n      tag_661\n      jump\t// in\n    tag_919:\n        /* \"#utility.yul\":25054:25056   */\n      0x20\n        /* \"#utility.yul\":25049:25052   */\n      dup3\n        /* \"#utility.yul\":25045:25057   */\n      add\n        /* \"#utility.yul\":25038:25057   */\n      swap1\n      pop\n        /* \"#utility.yul\":24697:25063   */\n      swap2\n      swap1\n      pop\n      jump\t// out\n        /* \"#utility.yul\":25069:25488   */\n    tag_515:\n        /* \"#utility.yul\":25235:25239   */\n      0x00\n        /* \"#utility.yul\":25273:25275   */\n      0x20\n        /* \"#utility.yul\":25262:25271   */\n      dup3\n        /* \"#utility.yul\":25258:25276   */\n      add\n        /* \"#utility.yul\":25250:25276   */\n      swap1\n      pop\n        /* \"#utility.yul\":25322:25331   */\n      dup2\n        /* \"#utility.yul\":25316:25320   */\n      dup2\n        /* \"#utility.yul\":25312:25332   */\n      sub\n        /* \"#utility.yul\":25308:25309   */\n      0x00\n        /* \"#utility.yul\":25297:25306   */\n      dup4\n        /* \"#utility.yul\":25293:25310   */\n      add\n        /* \"#utility.yul\":25286:25333   */\n      mstore\n        /* \"#utility.yul\":25350:25481   */\n      tag_921\n        /* \"#utility.yul\":25476:25480   */\n      dup2\n        /* \"#utility.yul\":25350:25481   */\n      tag_662\n      jump\t// in\n    tag_921:\n        /* \"#utility.yul\":25342:25481   */\n      swap1\n      pop\n        /* \"#utility.yul\":25069:25488   */\n      swap2\n      swap1\n      pop\n      jump\t// out\n        /* \"#utility.yul\":25494:25718   */\n    tag_663:\n        /* \"#utility.yul\":25634:25668   */\n      0x546f6b656e2076616c7565206d75737420626520686967686572207468616e20\n        /* \"#utility.yul\":25630:25631   */\n      0x00\n        /* \"#utility.yul\":25622:25628   */\n      dup3\n        /* \"#utility.yul\":25618:25632   */\n      add\n        /* \"#utility.yul\":25611:25669   */\n      mstore\n        /* \"#utility.yul\":25703:25710   */\n      0x7a65726f2e000000000000000000000000000000000000000000000000000000\n        /* \"#utility.yul\":25698:25700   */\n      0x20\n        /* \"#utility.yul\":25690:25696   */\n      dup3\n        /* \"#utility.yul\":25686:25701   */\n      add\n        /* \"#utility.yul\":25679:25711   */\n      mstore\n        /* \"#utility.yul\":25494:25718   */\n      pop\n      jump\t// out\n        /* \"#utility.yul\":25724:26090   */\n    tag_664:\n        /* \"#utility.yul\":25866:25869   */\n      0x00\n        /* \"#utility.yul\":25887:25954   */\n      tag_924\n        /* \"#utility.yul\":25951:25953   */\n      0x25\n        /* \"#utility.yul\":25946:25949   */\n      dup4\n        /* \"#utility.yul\":25887:25954   */\n      tag_601\n      jump\t// in\n    tag_924:\n        /* \"#utility.yul\":25880:25954   */\n      swap2\n      pop\n        /* \"#utility.yul\":25963:26056   */\n      tag_925\n        /* \"#utility.yul\":26052:26055   */\n      dup3\n        /* \"#utility.yul\":25963:26056   */\n      tag_663\n      jump\t// in\n    tag_925:\n        /* \"#utility.yul\":26081:26083   */\n      0x40\n        /* \"#utility.yul\":26076:26079   */\n      dup3\n        /* \"#utility.yul\":26072:26084   */\n      add\n        /* \"#utility.yul\":26065:26084   */\n      swap1\n      pop\n        /* \"#utility.yul\":25724:26090   */\n      swap2\n      swap1\n      pop\n      jump\t// out\n        /* \"#utility.yul\":26096:26515   */\n    tag_518:\n        /* \"#utility.yul\":26262:26266   */\n      0x00\n        /* \"#utility.yul\":26300:26302   */\n      0x20\n        /* \"#utility.yul\":26289:26298   */\n      dup3\n        /* \"#utility.yul\":26285:26303   */\n      add\n        /* \"#utility.yul\":26277:26303   */\n      swap1\n      pop\n        /* \"#utility.yul\":26349:26358   */\n      dup2\n        /* \"#utility.yul\":26343:26347   */\n      dup2\n        /* \"#utility.yul\":26339:26359   */\n      sub\n        /* \"#utility.yul\":26335:26336   */\n      0x00\n        /* \"#utility.yul\":26324:26333   */\n      dup4\n        /* \"#utility.yul\":26320:26337   */\n      add\n        /* \"#utility.yul\":26313:26360   */\n      mstore\n        /* \"#utility.yul\":26377:26508   */\n      tag_927\n        /* \"#utility.yul\":26503:26507   */\n      dup2\n        /* \"#utility.yul\":26377:26508   */\n      tag_664\n      jump\t// in\n    tag_927:\n        /* \"#utility.yul\":26369:26508   */\n      swap1\n      pop\n        /* \"#utility.yul\":26096:26515   */\n      swap2\n      swap1\n      pop\n      jump\t// out\n        /* \"#utility.yul\":26521:26688   */\n    tag_555:\n        /* \"#utility.yul\":26558:26561   */\n      0x00\n        /* \"#utility.yul\":26581:26603   */\n      tag_929\n        /* \"#utility.yul\":26597:26602   */\n      dup3\n        /* \"#utility.yul\":26581:26603   */\n      tag_627\n      jump\t// in\n    tag_929:\n        /* \"#utility.yul\":26572:26603   */\n      swap2\n      pop\n        /* \"#utility.yul\":26625:26629   */\n      0xff\n        /* \"#utility.yul\":26618:26623   */\n      dup3\n        /* \"#utility.yul\":26615:26630   */\n      sub\n        /* \"#utility.yul\":26612:26653   */\n      tag_930\n      jumpi\n        /* \"#utility.yul\":26633:26651   */\n      tag_931\n      tag_641\n      jump\t// in\n    tag_931:\n        /* \"#utility.yul\":26612:26653   */\n    tag_930:\n        /* \"#utility.yul\":26680:26681   */\n      0x01\n        /* \"#utility.yul\":26673:26678   */\n      dup3\n        /* \"#utility.yul\":26669:26682   */\n      add\n        /* \"#utility.yul\":26662:26682   */\n      swap1\n      pop\n        /* \"#utility.yul\":26521:26688   */\n      swap2\n      swap1\n      pop\n      jump\t// out\n        /* \"#utility.yul\":26694:26874   */\n    tag_563:\n        /* \"#utility.yul\":26742:26819   */\n      0x4e487b7100000000000000000000000000000000000000000000000000000000\n        /* \"#utility.yul\":26739:26740   */\n      0x00\n        /* \"#utility.yul\":26732:26820   */\n      mstore\n        /* \"#utility.yul\":26839:26843   */\n      0x41\n        /* \"#utility.yul\":26836:26837   */\n      0x04\n        /* \"#utility.yul\":26829:26844   */\n      mstore\n        /* \"#utility.yul\":26863:26867   */\n      0x24\n        /* \"#utility.yul\":26860:26861   */\n      0x00\n        /* \"#utility.yul\":26853:26868   */\n      revert\n        /* \"#utility.yul\":26880:27023   */\n    tag_665:\n        /* \"#utility.yul\":26937:26942   */\n      0x00\n        /* \"#utility.yul\":26968:26974   */\n      dup2\n        /* \"#utility.yul\":26962:26975   */\n      mload\n        /* \"#utility.yul\":26953:26975   */\n      swap1\n      pop\n        /* \"#utility.yul\":26984:27017   */\n      tag_934\n        /* \"#utility.yul\":27011:27016   */\n      dup2\n        /* \"#utility.yul\":26984:27017   */\n      tag_610\n      jump\t// in\n    tag_934:\n        /* \"#utility.yul\":26880:27023   */\n      swap3\n      swap2\n      pop\n      pop\n      jump\t// out\n        /* \"#utility.yul\":27029:27380   */\n    tag_570:\n        /* \"#utility.yul\":27099:27105   */\n      0x00\n        /* \"#utility.yul\":27148:27150   */\n      0x20\n        /* \"#utility.yul\":27136:27145   */\n      dup3\n        /* \"#utility.yul\":27127:27134   */\n      dup5\n        /* \"#utility.yul\":27123:27146   */\n      sub\n        /* \"#utility.yul\":27119:27151   */\n      slt\n        /* \"#utility.yul\":27116:27235   */\n      iszero\n      tag_936\n      jumpi\n        /* \"#utility.yul\":27154:27233   */\n      tag_937\n      tag_606\n      jump\t// in\n    tag_937:\n        /* \"#utility.yul\":27116:27235   */\n    tag_936:\n        /* \"#utility.yul\":27274:27275   */\n      0x00\n        /* \"#utility.yul\":27299:27363   */\n      tag_938\n        /* \"#utility.yul\":27355:27362   */\n      dup5\n        /* \"#utility.yul\":27346:27352   */\n      dup3\n        /* \"#utility.yul\":27335:27344   */\n      dup6\n        /* \"#utility.yul\":27331:27353   */\n      add\n        /* \"#utility.yul\":27299:27363   */\n      tag_665\n      jump\t// in\n    tag_938:\n        /* \"#utility.yul\":27289:27363   */\n      swap2\n      pop\n        /* \"#utility.yul\":27245:27373   */\n      pop\n        /* \"#utility.yul\":27029:27380   */\n      swap3\n      swap2\n      pop\n      pop\n      jump\t// out\n        /* \"#utility.yul\":27386:27471   */\n    tag_666:\n        /* \"#utility.yul\":27431:27438   */\n      0x00\n        /* \"#utility.yul\":27460:27465   */\n      dup2\n        /* \"#utility.yul\":27449:27465   */\n      swap1\n      pop\n        /* \"#utility.yul\":27386:27471   */\n      swap2\n      swap1\n      pop\n      jump\t// out\n        /* \"#utility.yul\":27477:27635   */\n    tag_667:\n        /* \"#utility.yul\":27535:27544   */\n      0x00\n        /* \"#utility.yul\":27568:27629   */\n      tag_941\n        /* \"#utility.yul\":27586:27628   */\n      tag_942\n        /* \"#utility.yul\":27595:27627   */\n      tag_943\n        /* \"#utility.yul\":27621:27626   */\n      dup5\n        /* \"#utility.yul\":27595:27627   */\n      tag_666\n      jump\t// in\n    tag_943:\n        /* \"#utility.yul\":27586:27628   */\n      tag_617\n      jump\t// in\n    tag_942:\n        /* \"#utility.yul\":27568:27629   */\n      tag_612\n      jump\t// in\n    tag_941:\n        /* \"#utility.yul\":27555:27629   */\n      swap1\n      pop\n        /* \"#utility.yul\":27477:27635   */\n      swap2\n      swap1\n      pop\n      jump\t// out\n        /* \"#utility.yul\":27641:27788   */\n    tag_668:\n        /* \"#utility.yul\":27736:27781   */\n      tag_945\n        /* \"#utility.yul\":27775:27780   */\n      dup2\n        /* \"#utility.yul\":27736:27781   */\n      tag_667\n      jump\t// in\n    tag_945:\n        /* \"#utility.yul\":27731:27734   */\n      dup3\n        /* \"#utility.yul\":27724:27782   */\n      mstore\n        /* \"#utility.yul\":27641:27788   */\n      pop\n      pop\n      jump\t// out\n        /* \"#utility.yul\":27794:27908   */\n    tag_669:\n        /* \"#utility.yul\":27861:27867   */\n      0x00\n        /* \"#utility.yul\":27895:27900   */\n      dup2\n        /* \"#utility.yul\":27889:27901   */\n      mload\n        /* \"#utility.yul\":27879:27901   */\n      swap1\n      pop\n        /* \"#utility.yul\":27794:27908   */\n      swap2\n      swap1\n      pop\n      jump\t// out\n        /* \"#utility.yul\":27914:28098   */\n    tag_670:\n        /* \"#utility.yul\":28013:28024   */\n      0x00\n        /* \"#utility.yul\":28047:28053   */\n      dup3\n        /* \"#utility.yul\":28042:28045   */\n      dup3\n        /* \"#utility.yul\":28035:28054   */\n      mstore\n        /* \"#utility.yul\":28087:28091   */\n      0x20\n        /* \"#utility.yul\":28082:28085   */\n      dup3\n        /* \"#utility.yul\":28078:28092   */\n      add\n        /* \"#utility.yul\":28063:28092   */\n      swap1\n      pop\n        /* \"#utility.yul\":27914:28098   */\n      swap3\n      swap2\n      pop\n      pop\n      jump\t// out\n        /* \"#utility.yul\":28104:28236   */\n    tag_671:\n        /* \"#utility.yul\":28171:28175   */\n      0x00\n        /* \"#utility.yul\":28194:28197   */\n      dup2\n        /* \"#utility.yul\":28186:28197   */\n      swap1\n      pop\n        /* \"#utility.yul\":28224:28228   */\n      0x20\n        /* \"#utility.yul\":28219:28222   */\n      dup3\n        /* \"#utility.yul\":28215:28229   */\n      add\n        /* \"#utility.yul\":28207:28229   */\n      swap1\n      pop\n        /* \"#utility.yul\":28104:28236   */\n      swap2\n      swap1\n      pop\n      jump\t// out\n        /* \"#utility.yul\":28242:28350   */\n    tag_672:\n        /* \"#utility.yul\":28319:28343   */\n      tag_950\n        /* \"#utility.yul\":28337:28342   */\n      dup2\n        /* \"#utility.yul\":28319:28343   */\n      tag_609\n      jump\t// in\n    tag_950:\n        /* \"#utility.yul\":28314:28317   */\n      dup3\n        /* \"#utility.yul\":28307:28344   */\n      mstore\n        /* \"#utility.yul\":28242:28350   */\n      pop\n      pop\n      jump\t// out\n        /* \"#utility.yul\":28356:28535   */\n    tag_673:\n        /* \"#utility.yul\":28425:28435   */\n      0x00\n        /* \"#utility.yul\":28446:28492   */\n      tag_952\n        /* \"#utility.yul\":28488:28491   */\n      dup4\n        /* \"#utility.yul\":28480:28486   */\n      dup4\n        /* \"#utility.yul\":28446:28492   */\n      tag_672\n      jump\t// in\n    tag_952:\n        /* \"#utility.yul\":28524:28528   */\n      0x20\n        /* \"#utility.yul\":28519:28522   */\n      dup4\n        /* \"#utility.yul\":28515:28529   */\n      add\n        /* \"#utility.yul\":28501:28529   */\n      swap1\n      pop\n        /* \"#utility.yul\":28356:28535   */\n      swap3\n      swap2\n      pop\n      pop\n      jump\t// out\n        /* \"#utility.yul\":28541:28654   */\n    tag_674:\n        /* \"#utility.yul\":28611:28615   */\n      0x00\n        /* \"#utility.yul\":28643:28647   */\n      0x20\n        /* \"#utility.yul\":28638:28641   */\n      dup3\n        /* \"#utility.yul\":28634:28648   */\n      add\n        /* \"#utility.yul\":28626:28648   */\n      swap1\n      pop\n        /* \"#utility.yul\":28541:28654   */\n      swap2\n      swap1\n      pop\n      jump\t// out\n        /* \"#utility.yul\":28690:29422   */\n    tag_675:\n        /* \"#utility.yul\":28809:28812   */\n      0x00\n        /* \"#utility.yul\":28838:28892   */\n      tag_955\n        /* \"#utility.yul\":28886:28891   */\n      dup3\n        /* \"#utility.yul\":28838:28892   */\n      tag_669\n      jump\t// in\n    tag_955:\n        /* \"#utility.yul\":28908:28994   */\n      tag_956\n        /* \"#utility.yul\":28987:28993   */\n      dup2\n        /* \"#utility.yul\":28982:28985   */\n      dup6\n        /* \"#utility.yul\":28908:28994   */\n      tag_670\n      jump\t// in\n    tag_956:\n        /* \"#utility.yul\":28901:28994   */\n      swap4\n      pop\n        /* \"#utility.yul\":29018:29074   */\n      tag_957\n        /* \"#utility.yul\":29068:29073   */\n      dup4\n        /* \"#utility.yul\":29018:29074   */\n      tag_671\n      jump\t// in\n    tag_957:\n        /* \"#utility.yul\":29097:29104   */\n      dup1\n        /* \"#utility.yul\":29128:29129   */\n      0x00\n        /* \"#utility.yul\":29113:29397   */\n    tag_958:\n        /* \"#utility.yul\":29138:29144   */\n      dup4\n        /* \"#utility.yul\":29135:29136   */\n      dup2\n        /* \"#utility.yul\":29132:29145   */\n      lt\n        /* \"#utility.yul\":29113:29397   */\n      iszero\n      tag_960\n      jumpi\n        /* \"#utility.yul\":29214:29220   */\n      dup2\n        /* \"#utility.yul\":29208:29221   */\n      mload\n        /* \"#utility.yul\":29241:29304   */\n      tag_961\n        /* \"#utility.yul\":29300:29303   */\n      dup9\n        /* \"#utility.yul\":29285:29298   */\n      dup3\n        /* \"#utility.yul\":29241:29304   */\n      tag_673\n      jump\t// in\n    tag_961:\n        /* \"#utility.yul\":29234:29304   */\n      swap8\n      pop\n        /* \"#utility.yul\":29327:29387   */\n      tag_962\n        /* \"#utility.yul\":29380:29386   */\n      dup4\n        /* \"#utility.yul\":29327:29387   */\n      tag_674\n      jump\t// in\n    tag_962:\n        /* \"#utility.yul\":29317:29387   */\n      swap3\n      pop\n        /* \"#utility.yul\":29173:29397   */\n      pop\n        /* \"#utility.yul\":29160:29161   */\n      0x01\n        /* \"#utility.yul\":29157:29158   */\n      dup2\n        /* \"#utility.yul\":29153:29162   */\n      add\n        /* \"#utility.yul\":29148:29162   */\n      swap1\n      pop\n        /* \"#utility.yul\":29113:29397   */\n      jump(tag_958)\n    tag_960:\n        /* \"#utility.yul\":29117:29131   */\n      pop\n        /* \"#utility.yul\":29413:29416   */\n      dup6\n        /* \"#utility.yul\":29406:29416   */\n      swap4\n      pop\n        /* \"#utility.yul\":28814:29422   */\n      pop\n      pop\n      pop\n        /* \"#utility.yul\":28690:29422   */\n      swap3\n      swap2\n      pop\n      pop\n      jump\t// out\n        /* \"#utility.yul\":29428:30259   */\n    tag_575:\n        /* \"#utility.yul\":29691:29695   */\n      0x00\n        /* \"#utility.yul\":29729:29732   */\n      0xa0\n        /* \"#utility.yul\":29718:29727   */\n      dup3\n        /* \"#utility.yul\":29714:29733   */\n      add\n        /* \"#utility.yul\":29706:29733   */\n      swap1\n      pop\n        /* \"#utility.yul\":29743:29814   */\n      tag_964\n        /* \"#utility.yul\":29811:29812   */\n      0x00\n        /* \"#utility.yul\":29800:29809   */\n      dup4\n        /* \"#utility.yul\":29796:29813   */\n      add\n        /* \"#utility.yul\":29787:29793   */\n      dup9\n        /* \"#utility.yul\":29743:29814   */\n      tag_622\n      jump\t// in\n    tag_964:\n        /* \"#utility.yul\":29824:29904   */\n      tag_965\n        /* \"#utility.yul\":29900:29902   */\n      0x20\n        /* \"#utility.yul\":29889:29898   */\n      dup4\n        /* \"#utility.yul\":29885:29903   */\n      add\n        /* \"#utility.yul\":29876:29882   */\n      dup8\n        /* \"#utility.yul\":29824:29904   */\n      tag_668\n      jump\t// in\n    tag_965:\n        /* \"#utility.yul\":29951:29960   */\n      dup2\n        /* \"#utility.yul\":29945:29949   */\n      dup2\n        /* \"#utility.yul\":29941:29961   */\n      sub\n        /* \"#utility.yul\":29936:29938   */\n      0x40\n        /* \"#utility.yul\":29925:29934   */\n      dup4\n        /* \"#utility.yul\":29921:29939   */\n      add\n        /* \"#utility.yul\":29914:29962   */\n      mstore\n        /* \"#utility.yul\":29979:30087   */\n      tag_966\n        /* \"#utility.yul\":30082:30086   */\n      dup2\n        /* \"#utility.yul\":30073:30079   */\n      dup7\n        /* \"#utility.yul\":29979:30087   */\n      tag_675\n      jump\t// in\n    tag_966:\n        /* \"#utility.yul\":29971:30087   */\n      swap1\n      pop\n        /* \"#utility.yul\":30097:30169   */\n      tag_967\n        /* \"#utility.yul\":30165:30167   */\n      0x60\n        /* \"#utility.yul\":30154:30163   */\n      dup4\n        /* \"#utility.yul\":30150:30168   */\n      add\n        /* \"#utility.yul\":30141:30147   */\n      dup6\n        /* \"#utility.yul\":30097:30169   */\n      tag_629\n      jump\t// in\n    tag_967:\n        /* \"#utility.yul\":30179:30252   */\n      tag_968\n        /* \"#utility.yul\":30247:30250   */\n      0x80\n        /* \"#utility.yul\":30236:30245   */\n      dup4\n        /* \"#utility.yul\":30232:30251   */\n      add\n        /* \"#utility.yul\":30223:30229   */\n      dup5\n        /* \"#utility.yul\":30179:30252   */\n      tag_622\n      jump\t// in\n    tag_968:\n        /* \"#utility.yul\":29428:30259   */\n      swap7\n      swap6\n      pop\n      pop\n      pop\n      pop\n      pop\n      pop\n      jump\t// out\n    stop\n    data_974d1b4421da69cc60b481194f0dad36a5bb4e23da810da7a7fb30cdba178330 45524332303a207472616e7366657220616d6f756e74206578636565647320616c6c6f77616e6365\n    data_f8b476f7d28209d77d4a4ac1fe36b9f8259aa1bb6bddfa6e89de7e51615cf8a8 45524332303a2064656372656173656420616c6c6f77616e63652062656c6f77207a65726f\n\n    auxdata: 0xa2646970667358221220c8d8964a7249bc9bb2e4ec3ea94893ecf271a1c6c653ddf2b9b85a434124af6e64736f6c63430008120033\n}\n",
				"bytecode": {
					"linkReferences": {},
					"object": "60806040527360ee6569662ee29295e2f09a0b657b8d535090b9600560016101000a81548173ffffffffffffffffffffffffffffffffffffffff021916908373ffffffffffffffffffffffffffffffffffffffff1602179055506000600560156101000a81548160ff021916908360ff1602179055506003600560166101000a81548160ff021916908360ff160217905550600a600655620000d76064620000c360026b204fce5e3e250261100000006200067360201b620023a71790919060201c565b6200068b60201b620023bd1790919060201c565b6007556007546008556200012160646200010d60016b204fce5e3e250261100000006200067360201b620023a71790919060201c565b6200068b60201b620023bd1790919060201c565b600955600954600a55600a600b556005600c556005600d55600b54600e556001600f60006101000a81548160ff0219169083151502179055506001601060156101000a81548160ff0219169083151502179055503480156200018257600080fd5b5073c402fe06948516567f2e59ab88172fee49f5a84c6000806101000a81548173ffffffffffffffffffffffffffffffffffffffff021916908373ffffffffffffffffffffffffffffffffffffffff16021790555060008054906101000a900473ffffffffffffffffffffffffffffffffffffffff1673ffffffffffffffffffffffffffffffffffffffff16600073ffffffffffffffffffffffffffffffffffffffff167f8be0079c531659141344cd1fd0a4f28419497f9722a3daafe3b4186f6b6457e060405160405180910390a36b204fce5e3e250261100000006001600062000273620006a360201b60201c565b73ffffffffffffffffffffffffffffffffffffffff1673ffffffffffffffffffffffffffffffffffffffff1681526020019081526020016000208190555060007310ed43c718714eb63d5aa57b78b54704e256024e90508073ffffffffffffffffffffffffffffffffffffffff1663c45a01556040518163ffffffff1660e01b8152600401602060405180830381865afa15801562000316573d6000803e3d6000fd5b505050506040513d601f19601f820116820180604052508101906200033c919062000736565b73ffffffffffffffffffffffffffffffffffffffff1663c9c65396308373ffffffffffffffffffffffffffffffffffffffff1663ad5c46486040518163ffffffff1660e01b8152600401602060405180830381865afa158015620003a4573d6000803e3d6000fd5b505050506040513d601f19601f82011682018060405250810190620003ca919062000736565b6040518363ffffffff1660e01b8152600401620003e992919062000779565b6020604051808303816000875af115801562000409573d6000803e3d6000fd5b505050506040513d601f19601f820116820180604052508101906200042f919062000736565b601060006101000a81548173ffffffffffffffffffffffffffffffffffffffff021916908373ffffffffffffffffffffffffffffffffffffffff16021790555080600f60016101000a81548173ffffffffffffffffffffffffffffffffffffffff021916908373ffffffffffffffffffffffffffffffffffffffff160217905550600160036000620004c6620006a360201b60201c565b73ffffffffffffffffffffffffffffffffffffffff1673ffffffffffffffffffffffffffffffffffffffff16815260200190815260200160002060006101000a81548160ff0219169083151502179055506001600360003073ffffffffffffffffffffffffffffffffffffffff1673ffffffffffffffffffffffffffffffffffffffff16815260200190815260200160002060006101000a81548160ff021916908315150217905550600160036000600560019054906101000a900473ffffffffffffffffffffffffffffffffffffffff1673ffffffffffffffffffffffffffffffffffffffff1673ffffffffffffffffffffffffffffffffffffffff16815260200190815260200160002060006101000a81548160ff021916908315150217905550620005f9620006a360201b60201c565b73ffffffffffffffffffffffffffffffffffffffff16600073ffffffffffffffffffffffffffffffffffffffff167fddf252ad1be2c89b69c2b068fc378daa952ba7f163c4a11628f55a4df523b3ef6b204fce5e3e25026110000000604051620006649190620007c1565b60405180910390a350620008bf565b600081836200068391906200080d565b905092915050565b600081836200069b919062000887565b905092915050565b60008060009054906101000a900473ffffffffffffffffffffffffffffffffffffffff16905090565b600080fd5b600073ffffffffffffffffffffffffffffffffffffffff82169050919050565b6000620006fe82620006d1565b9050919050565b6200071081620006f1565b81146200071c57600080fd5b50565b600081519050620007308162000705565b92915050565b6000602082840312156200074f576200074e620006cc565b5b60006200075f848285016200071f565b91505092915050565b6200077381620006f1565b82525050565b600060408201905062000790600083018562000768565b6200079f602083018462000768565b9392505050565b6000819050919050565b620007bb81620007a6565b82525050565b6000602082019050620007d86000830184620007b0565b92915050565b7f4e487b7100000000000000000000000000000000000000000000000000000000600052601160045260246000fd5b60006200081a82620007a6565b91506200082783620007a6565b92508282026200083781620007a6565b91508282048414831517620008515762000850620007de565b5b5092915050565b7f4e487b7100000000000000000000000000000000000000000000000000000000600052601260045260246000fd5b60006200089482620007a6565b9150620008a183620007a6565b925082620008b457620008b362000858565b5b828204905092915050565b61448e80620008cf6000396000f3fe6080604052600436106102605760003560e01c806370a0823111610144578063a9059cbb116100b6578063dcff02371161007a578063dcff02371461091d578063dd62ed3e14610946578063ea2f0b3714610983578063f2fde38b146109ac578063f73980f9146109d5578063f7739b5f146109fe57610267565b8063a9059cbb14610838578063ae7bd3f214610875578063b88631151461089e578063ba6a6cdb146108c9578063c7039528146108f257610267565b806385ae099f1161010857806385ae099f146107285780638da5cb5b1461075357806395d89b411461077e578063a01cbf9a146107a9578063a2a02c33146107d2578063a457c2d7146107fb57610267565b806370a0823114610643578063715018a614610680578063768dc710146106975780637caefa89146106d45780637d1db4a5146106fd57610267565b80632f536344116101dd578063437823ec116101a1578063437823ec1461054557806346258ab31461056e57806349bd5a5e146105995780635238f0e3146105c4578063590f897e146105ef57806367cbd84c1461061a57610267565b80632f5363441461044c578063313ce5671461048957806339509351146104b45780633e66c435146104f157806340b9a54b1461051a57610267565b80631b123b71116102245780631b123b71146103535780631cdd3be31461037c57806323b872dd146103b95780632a77c076146103f65780632b37b69b1461042157610267565b806306fdde031461026c578063095ea7b31461029757806315a2f349146102d45780631694505e146102fd57806318160ddd1461032857610267565b3661026757005b600080fd5b34801561027857600080fd5b50610281610a27565b60405161028e9190613496565b60405180910390f35b3480156102a357600080fd5b506102be60048036038101906102b99190613556565b610a64565b6040516102cb91906135b1565b60405180910390f35b3480156102e057600080fd5b506102fb60048036038101906102f691906135cc565b610a82565b005b34801561030957600080fd5b50610312610b6f565b60405161031f9190613658565b60405180910390f35b34801561033457600080fd5b5061033d610b95565b60405161034a9190613682565b60405180910390f35b34801561035f57600080fd5b5061037a60048036038101906103759190613702565b610ba9565b005b34801561038857600080fd5b506103a3600480360381019061039e919061374f565b610d60565b6040516103b091906135b1565b60405180910390f35b3480156103c557600080fd5b506103e060048036038101906103db919061377c565b610d80565b6040516103ed91906135b1565b60405180910390f35b34801561040257600080fd5b5061040b610e59565b60405161041891906135b1565b60405180910390f35b34801561042d57600080fd5b50610436610e6c565b6040516104439190613682565b60405180910390f35b34801561045857600080fd5b50610473600480360381019061046e919061377c565b610e72565b60405161048091906135b1565b60405180910390f35b34801561049557600080fd5b5061049e611119565b6040516104ab91906137eb565b60405180910390f35b3480156104c057600080fd5b506104db60048036038101906104d69190613556565b611122565b6040516104e891906135b1565b60405180910390f35b3480156104fd57600080fd5b5061051860048036038101906105139190613702565b6111d5565b005b34801561052657600080fd5b5061052f61138d565b60405161053c9190613682565b60405180910390f35b34801561055157600080fd5b5061056c6004803603810190610567919061374f565b611393565b005b34801561057a57600080fd5b506105836114d9565b6040516105909190613682565b60405180910390f35b3480156105a557600080fd5b506105ae6114df565b6040516105bb9190613815565b60405180910390f35b3480156105d057600080fd5b506105d9611505565b6040516105e69190613682565b60405180910390f35b3480156105fb57600080fd5b5061060461150b565b6040516106119190613682565b60405180910390f35b34801561062657600080fd5b50610641600480360381019061063c9190613830565b611511565b005b34801561064f57600080fd5b5061066a6004803603810190610665919061374f565b6115ee565b6040516106779190613682565b60405180910390f35b34801561068c57600080fd5b50610695611637565b005b3480156106a357600080fd5b506106be60048036038101906106b9919061374f565b611771565b6040516106cb91906135b1565b60405180910390f35b3480156106e057600080fd5b506106fb60048036038101906106f6919061389c565b611791565b005b34801561070957600080fd5b50610712611871565b60405161071f9190613682565b60405180910390f35b34801561073457600080fd5b5061073d611877565b60405161074a91906135b1565b60405180910390f35b34801561075f57600080fd5b5061076861188a565b6040516107759190613815565b60405180910390f35b34801561078a57600080fd5b506107936118b3565b6040516107a09190613496565b60405180910390f35b3480156107b557600080fd5b506107d060048036038101906107cb91906135cc565b6118f0565b005b3480156107de57600080fd5b506107f960048036038101906107f491906138f5565b61199a565b005b34801561080757600080fd5b50610822600480360381019061081d9190613556565b611a33565b60405161082f91906135b1565b60405180910390f35b34801561084457600080fd5b5061085f600480360381019061085a9190613556565b611b00565b60405161086c91906135b1565b60405180910390f35b34801561088157600080fd5b5061089c600480360381019061089791906138f5565b611b1e565b005b3480156108aa57600080fd5b506108b3611bb7565b6040516108c091906135b1565b60405180910390f35b3480156108d557600080fd5b506108f060048036038101906108eb91906135cc565b611bca565b005b3480156108fe57600080fd5b50610907611c95565b60405161091491906135b1565b60405180910390f35b34801561092957600080fd5b50610944600480360381019061093f91906135cc565b611ca8565b005b34801561095257600080fd5b5061096d60048036038101906109689190613922565b611db9565b60405161097a9190613682565b60405180910390f35b34801561098f57600080fd5b506109aa60048036038101906109a5919061374f565b611e40565b005b3480156109b857600080fd5b506109d360048036038101906109ce919061374f565b611f86565b005b3480156109e157600080fd5b506109fc60048036038101906109f791906139a0565b61212e565b005b348015610a0a57600080fd5b50610a256004803603810190610a2091906138f5565b6122d7565b005b60606040518060400160405280600581526020017f584f444558000000000000000000000000000000000000000000000000000000815250905090565b6000610a78610a716123d3565b84846123db565b6001905092915050565b610a8a6123d3565b73ffffffffffffffffffffffffffffffffffffffff16610aa861188a565b73ffffffffffffffffffffffffffffffffffffffff1614610afe576040517f08c379a0000000000000000000000000000000000000000000000000000000008152600401610af590613a19565b60405180910390fd5b60008111610b41576040517f08c379a0000000000000000000000000000000000000000000000000000000008152600401610b3890613a85565b60405180910390fd5b612710816b204fce5e3e25026110000000610b5c9190613ad4565b610b669190613b45565b60098190555050565b600f60019054906101000a900473ffffffffffffffffffffffffffffffffffffffff1681565b60006b204fce5e3e25026110000000905090565b610bb16123d3565b73ffffffffffffffffffffffffffffffffffffffff16610bcf61188a565b73ffffffffffffffffffffffffffffffffffffffff1614610c25576040517f08c379a0000000000000000000000000000000000000000000000000000000008152600401610c1c90613a19565b60405180910390fd5b60008060005b84849050811015610d59575a821015610d48575a925060046000868684818110610c5857610c57613b76565b5b9050602002016020810190610c6d919061374f565b73ffffffffffffffffffffffffffffffffffffffff1673ffffffffffffffffffffffffffffffffffffffff16815260200190815260200160002060009054906101000a900460ff16610d3957600160046000878785818110610cd257610cd1613b76565b5b9050602002016020810190610ce7919061374f565b73ffffffffffffffffffffffffffffffffffffffff1673ffffffffffffffffffffffffffffffffffffffff16815260200190815260200160002060006101000a81548160ff0219169083151502179055505b5a83610d459190613ba5565b91505b80610d5290613bd9565b9050610c2b565b5050505050565b60046020528060005260406000206000915054906101000a900460ff1681565b6000610d8d84848461256f565b610e4e84610d996123d3565b610e498560405180606001604052806028815260200161440c60289139600260008b73ffffffffffffffffffffffffffffffffffffffff1673ffffffffffffffffffffffffffffffffffffffff1681526020019081526020016000206000610dff6123d3565b73ffffffffffffffffffffffffffffffffffffffff1673ffffffffffffffffffffffffffffffffffffffff16815260200190815260200160002054612d719092919063ffffffff16565b6123db565b600190509392505050565b600560009054906101000a900460ff1681565b600e5481565b6000610e7c6123d3565b73ffffffffffffffffffffffffffffffffffffffff16610e9a61188a565b73ffffffffffffffffffffffffffffffffffffffff1614610ef0576040517f08c379a0000000000000000000000000000000000000000000000000000000008152600401610ee790613a19565b60405180910390fd5b600073ffffffffffffffffffffffffffffffffffffffff168473ffffffffffffffffffffffffffffffffffffffff1614158015610f5a5750600073ffffffffffffffffffffffffffffffffffffffff168373ffffffffffffffffffffffffffffffffffffffff1614155b610f99576040517f08c379a0000000000000000000000000000000000000000000000000000000008152600401610f9090613c6d565b60405180910390fd5b3073ffffffffffffffffffffffffffffffffffffffff168473ffffffffffffffffffffffffffffffffffffffff1603611007576040517f08c379a0000000000000000000000000000000000000000000000000000000008152600401610ffe90613cd9565b60405180910390fd5b60008473ffffffffffffffffffffffffffffffffffffffff166370a08231306040518263ffffffff1660e01b81526004016110429190613815565b602060405180830381865afa15801561105f573d6000803e3d6000fd5b505050506040513d601f19601f820116820180604052508101906110839190613d0e565b905080831115611091578092505b8473ffffffffffffffffffffffffffffffffffffffff1663a9059cbb85856040518363ffffffff1660e01b81526004016110cc929190613d3b565b6020604051808303816000875af11580156110eb573d6000803e3d6000fd5b505050506040513d601f19601f8201168201806040525081019061110f9190613d79565b9150509392505050565b60006012905090565b60006111cb61112f6123d3565b846111c685600260006111406123d3565b73ffffffffffffffffffffffffffffffffffffffff1673ffffffffffffffffffffffffffffffffffffffff16815260200190815260200160002060008973ffffffffffffffffffffffffffffffffffffffff1673ffffffffffffffffffffffffffffffffffffffff16815260200190815260200160002054612dc690919063ffffffff16565b6123db565b6001905092915050565b6111dd6123d3565b73ffffffffffffffffffffffffffffffffffffffff166111fb61188a565b73ffffffffffffffffffffffffffffffffffffffff1614611251576040517f08c379a000000000000000000000000000000000000000000000000000000000815260040161124890613a19565b60405180910390fd5b60008060005b84849050811015611386575a821015611375575a92506004600086868481811061128457611283613b76565b5b9050602002016020810190611299919061374f565b73ffffffffffffffffffffffffffffffffffffffff1673ffffffffffffffffffffffffffffffffffffffff16815260200190815260200160002060009054906101000a900460ff1615611366576000600460008787858181106112ff576112fe613b76565b5b9050602002016020810190611314919061374f565b73ffffffffffffffffffffffffffffffffffffffff1673ffffffffffffffffffffffffffffffffffffffff16815260200190815260200160002060006101000a81548160ff0219169083151502179055505b5a836113729190613ba5565b91505b8061137f90613bd9565b9050611257565b5050505050565b600c5481565b61139b6123d3565b73ffffffffffffffffffffffffffffffffffffffff166113b961188a565b73ffffffffffffffffffffffffffffffffffffffff161461140f576040517f08c379a000000000000000000000000000000000000000000000000000000000815260040161140690613a19565b60405180910390fd5b600073ffffffffffffffffffffffffffffffffffffffff168173ffffffffffffffffffffffffffffffffffffffff160361147e576040517f08c379a000000000000000000000000000000000000000000000000000000000815260040161147590613c6d565b60405180910390fd5b6001600360008373ffffffffffffffffffffffffffffffffffffffff1673ffffffffffffffffffffffffffffffffffffffff16815260200190815260200160002060006101000a81548160ff02191690831515021790555050565b600b5481565b601060009054906101000a900473ffffffffffffffffffffffffffffffffffffffff1681565b60075481565b600d5481565b6115196123d3565b73ffffffffffffffffffffffffffffffffffffffff1661153761188a565b73ffffffffffffffffffffffffffffffffffffffff161461158d576040517f08c379a000000000000000000000000000000000000000000000000000000000815260040161158490613a19565b60405180910390fd5b6019818361159b9190613da6565b11156115dc576040517f08c379a00000000000000000000000000000000000000000000000000000000081526004016115d390613e26565b60405180910390fd5b80600d8190555081600c819055505050565b6000600160008373ffffffffffffffffffffffffffffffffffffffff1673ffffffffffffffffffffffffffffffffffffffff168152602001908152602001600020549050919050565b61163f6123d3565b73ffffffffffffffffffffffffffffffffffffffff1661165d61188a565b73ffffffffffffffffffffffffffffffffffffffff16146116b3576040517f08c379a00000000000000000000000000000000000000000000000000000000081526004016116aa90613a19565b60405180910390fd5b600073ffffffffffffffffffffffffffffffffffffffff1660008054906101000a900473ffffffffffffffffffffffffffffffffffffffff1673ffffffffffffffffffffffffffffffffffffffff167f8be0079c531659141344cd1fd0a4f28419497f9722a3daafe3b4186f6b6457e060405160405180910390a360008060006101000a81548173ffffffffffffffffffffffffffffffffffffffff021916908373ffffffffffffffffffffffffffffffffffffffff160217905550565b60036020528060005260406000206000915054906101000a900460ff1681565b6117996123d3565b73ffffffffffffffffffffffffffffffffffffffff166117b761188a565b73ffffffffffffffffffffffffffffffffffffffff161461180d576040517f08c379a000000000000000000000000000000000000000000000000000000000815260040161180490613a19565b60405180910390fd5b60008160ff1611611853576040517f08c379a000000000000000000000000000000000000000000000000000000000815260040161184a90613a85565b60405180910390fd5b80600560166101000a81548160ff021916908360ff16021790555050565b60095481565b601060159054906101000a900460ff1681565b60008060009054906101000a900473ffffffffffffffffffffffffffffffffffffffff16905090565b60606040518060400160405280600581526020017f584f444558000000000000000000000000000000000000000000000000000000815250905090565b6118f86123d3565b73ffffffffffffffffffffffffffffffffffffffff1661191661188a565b73ffffffffffffffffffffffffffffffffffffffff161461196c576040517f08c379a000000000000000000000000000000000000000000000000000000000815260040161196390613a19565b60405180910390fd5b612710816b204fce5e3e250261100000006119879190613ad4565b6119919190613b45565b60078190555050565b6119a26123d3565b73ffffffffffffffffffffffffffffffffffffffff166119c061188a565b73ffffffffffffffffffffffffffffffffffffffff1614611a16576040517f08c379a0000000000000000000000000000000000000000000000000000000008152600401611a0d90613a19565b60405180910390fd5b80600560006101000a81548160ff02191690831515021790555050565b6000611af6611a406123d3565b84611af1856040518060600160405280602581526020016144346025913960026000611a6a6123d3565b73ffffffffffffffffffffffffffffffffffffffff1673ffffffffffffffffffffffffffffffffffffffff16815260200190815260200160002060008a73ffffffffffffffffffffffffffffffffffffffff1673ffffffffffffffffffffffffffffffffffffffff16815260200190815260200160002054612d719092919063ffffffff16565b6123db565b6001905092915050565b6000611b14611b0d6123d3565b848461256f565b6001905092915050565b611b266123d3565b73ffffffffffffffffffffffffffffffffffffffff16611b4461188a565b73ffffffffffffffffffffffffffffffffffffffff1614611b9a576040517f08c379a0000000000000000000000000000000000000000000000000000000008152600401611b9190613a19565b60405180910390fd5b80600f60006101000a81548160ff02191690831515021790555050565b601060149054906101000a900460ff1681565b611bd26123d3565b73ffffffffffffffffffffffffffffffffffffffff16611bf061188a565b73ffffffffffffffffffffffffffffffffffffffff1614611c46576040517f08c379a0000000000000000000000000000000000000000000000000000000008152600401611c3d90613a19565b60405180910390fd5b600654811115611c8b576040517f08c379a0000000000000000000000000000000000000000000000000000000008152600401611c8290613e26565b60405180910390fd5b80600b8190555050565b600f60009054906101000a900460ff1681565b611cb06123d3565b73ffffffffffffffffffffffffffffffffffffffff16611cce61188a565b73ffffffffffffffffffffffffffffffffffffffff1614611d24576040517f08c379a0000000000000000000000000000000000000000000000000000000008152600401611d1b90613a19565b60405180910390fd5b601060149054906101000a900460ff1615611d74576040517f08c379a0000000000000000000000000000000000000000000000000000000008152600401611d6b90613e92565b60405180910390fd5b6064811115611d8257606490505b6000611d8d306115ee565b9050600060648383611d9f9190613ad4565b611da99190613b45565b9050611db481612ddc565b505050565b6000600260008473ffffffffffffffffffffffffffffffffffffffff1673ffffffffffffffffffffffffffffffffffffffff16815260200190815260200160002060008373ffffffffffffffffffffffffffffffffffffffff1673ffffffffffffffffffffffffffffffffffffffff16815260200190815260200160002054905092915050565b611e486123d3565b73ffffffffffffffffffffffffffffffffffffffff16611e6661188a565b73ffffffffffffffffffffffffffffffffffffffff1614611ebc576040517f08c379a0000000000000000000000000000000000000000000000000000000008152600401611eb390613a19565b60405180910390fd5b600073ffffffffffffffffffffffffffffffffffffffff168173ffffffffffffffffffffffffffffffffffffffff1603611f2b576040517f08c379a0000000000000000000000000000000000000000000000000000000008152600401611f2290613c6d565b60405180910390fd5b6000600360008373ffffffffffffffffffffffffffffffffffffffff1673ffffffffffffffffffffffffffffffffffffffff16815260200190815260200160002060006101000a81548160ff02191690831515021790555050565b611f8e6123d3565b73ffffffffffffffffffffffffffffffffffffffff16611fac61188a565b73ffffffffffffffffffffffffffffffffffffffff1614612002576040517f08c379a0000000000000000000000000000000000000000000000000000000008152600401611ff990613a19565b60405180910390fd5b600073ffffffffffffffffffffffffffffffffffffffff168173ffffffffffffffffffffffffffffffffffffffff1603612071576040517f08c379a000000000000000000000000000000000000000000000000000000000815260040161206890613f24565b60405180910390fd5b8073ffffffffffffffffffffffffffffffffffffffff1660008054906101000a900473ffffffffffffffffffffffffffffffffffffffff1673ffffffffffffffffffffffffffffffffffffffff167f8be0079c531659141344cd1fd0a4f28419497f9722a3daafe3b4186f6b6457e060405160405180910390a3806000806101000a81548173ffffffffffffffffffffffffffffffffffffffff021916908373ffffffffffffffffffffffffffffffffffffffff16021790555050565b6121366123d3565b73ffffffffffffffffffffffffffffffffffffffff1661215461188a565b73ffffffffffffffffffffffffffffffffffffffff16146121aa576040517f08c379a00000000000000000000000000000000000000000000000000000000081526004016121a190613a19565b60405180910390fd5b600073ffffffffffffffffffffffffffffffffffffffff168173ffffffffffffffffffffffffffffffffffffffff1603612219576040517f08c379a000000000000000000000000000000000000000000000000000000000815260040161221090613c6d565b60405180910390fd5b80600560016101000a81548173ffffffffffffffffffffffffffffffffffffffff021916908373ffffffffffffffffffffffffffffffffffffffff160217905550600160036000600560019054906101000a900473ffffffffffffffffffffffffffffffffffffffff1673ffffffffffffffffffffffffffffffffffffffff1673ffffffffffffffffffffffffffffffffffffffff16815260200190815260200160002060006101000a81548160ff02191690831515021790555050565b6122df6123d3565b73ffffffffffffffffffffffffffffffffffffffff166122fd61188a565b73ffffffffffffffffffffffffffffffffffffffff1614612353576040517f08c379a000000000000000000000000000000000000000000000000000000000815260040161234a90613a19565b60405180910390fd5b80601060156101000a81548160ff0219169083151502179055507f53726dfcaf90650aa7eb35524f4d3220f07413c8d6cb404cc8c18bf5591bc1598160405161239c91906135b1565b60405180910390a150565b600081836123b59190613ad4565b905092915050565b600081836123cb9190613b45565b905092915050565b600033905090565b600073ffffffffffffffffffffffffffffffffffffffff168373ffffffffffffffffffffffffffffffffffffffff16141580156124455750600073ffffffffffffffffffffffffffffffffffffffff168273ffffffffffffffffffffffffffffffffffffffff1614155b612484576040517f08c379a000000000000000000000000000000000000000000000000000000000815260040161247b90613c6d565b60405180910390fd5b80600260008573ffffffffffffffffffffffffffffffffffffffff1673ffffffffffffffffffffffffffffffffffffffff16815260200190815260200160002060008473ffffffffffffffffffffffffffffffffffffffff1673ffffffffffffffffffffffffffffffffffffffff168152602001908152602001600020819055508173ffffffffffffffffffffffffffffffffffffffff168373ffffffffffffffffffffffffffffffffffffffff167f8c5be1e5ebec7d5bd14f71427d1e84f3dd0314c0f7b2291e5b200ac8c7c3b925836040516125629190613682565b60405180910390a3505050565b61257761188a565b73ffffffffffffffffffffffffffffffffffffffff168273ffffffffffffffffffffffffffffffffffffffff16141580156126005750600560019054906101000a900473ffffffffffffffffffffffffffffffffffffffff1673ffffffffffffffffffffffffffffffffffffffff168273ffffffffffffffffffffffffffffffffffffffff1614155b801561263857503073ffffffffffffffffffffffffffffffffffffffff168273ffffffffffffffffffffffffffffffffffffffff1614155b80156126925750601060009054906101000a900473ffffffffffffffffffffffffffffffffffffffff1673ffffffffffffffffffffffffffffffffffffffff168273ffffffffffffffffffffffffffffffffffffffff1614155b80156126cc575061dead73ffffffffffffffffffffffffffffffffffffffff168273ffffffffffffffffffffffffffffffffffffffff1614155b801561270b57506126db61188a565b73ffffffffffffffffffffffffffffffffffffffff168373ffffffffffffffffffffffffffffffffffffffff1614155b1561276f57600061271b836115ee565b9050600754828261272c9190613da6565b111561276d576040517f08c379a000000000000000000000000000000000000000000000000000000000815260040161276490613fdc565b60405180910390fd5b505b61277761188a565b73ffffffffffffffffffffffffffffffffffffffff168373ffffffffffffffffffffffffffffffffffffffff16141580156127e557506127b561188a565b73ffffffffffffffffffffffffffffffffffffffff168273ffffffffffffffffffffffffffffffffffffffff1614155b156128305760095481111561282f576040517f08c379a00000000000000000000000000000000000000000000000000000000081526004016128269061406e565b60405180910390fd5b5b600560009054906101000a900460ff161561292957600460008473ffffffffffffffffffffffffffffffffffffffff1673ffffffffffffffffffffffffffffffffffffffff16815260200190815260200160002060009054906101000a900460ff161580156128e95750600460008373ffffffffffffffffffffffffffffffffffffffff1673ffffffffffffffffffffffffffffffffffffffff16815260200190815260200160002060009054906101000a900460ff16155b612928576040517f08c379a000000000000000000000000000000000000000000000000000000000815260040161291f90614100565b60405180910390fd5b5b600073ffffffffffffffffffffffffffffffffffffffff168373ffffffffffffffffffffffffffffffffffffffff16141580156129935750600073ffffffffffffffffffffffffffffffffffffffff168273ffffffffffffffffffffffffffffffffffffffff1614155b6129d2576040517f08c379a00000000000000000000000000000000000000000000000000000000081526004016129c99061416c565b60405180910390fd5b60008111612a15576040517f08c379a0000000000000000000000000000000000000000000000000000000008152600401612a0c906141fe565b60405180910390fd5b600560169054906101000a900460ff1660ff16600560159054906101000a900460ff1660ff1610158015612a565750601060149054906101000a900460ff16155b8015612ab05750601060009054906101000a900473ffffffffffffffffffffffffffffffffffffffff1673ffffffffffffffffffffffffffffffffffffffff168373ffffffffffffffffffffffffffffffffffffffff1614155b8015612ac85750601060159054906101000a900460ff165b15612b1b576000600560156101000a81548160ff021916908360ff1602179055506000612af4306115ee565b9050600954811115612b065760095490505b6000811115612b1957612b1881612ddc565b5b505b600060019050600360008573ffffffffffffffffffffffffffffffffffffffff1673ffffffffffffffffffffffffffffffffffffffff16815260200190815260200160002060009054906101000a900460ff1680612bc25750600360008473ffffffffffffffffffffffffffffffffffffffff1673ffffffffffffffffffffffffffffffffffffffff16815260200190815260200160002060009054906101000a900460ff165b80612c8d5750600f60009054906101000a900460ff168015612c325750601060009054906101000a900473ffffffffffffffffffffffffffffffffffffffff1673ffffffffffffffffffffffffffffffffffffffff168473ffffffffffffffffffffffffffffffffffffffff1614155b8015612c8c5750601060009054906101000a900473ffffffffffffffffffffffffffffffffffffffff1673ffffffffffffffffffffffffffffffffffffffff168373ffffffffffffffffffffffffffffffffffffffff1614155b5b15612c9b5760009050612d5f565b601060009054906101000a900473ffffffffffffffffffffffffffffffffffffffff1673ffffffffffffffffffffffffffffffffffffffff168473ffffffffffffffffffffffffffffffffffffffff1603612cfe57600c54600e81905550612d5e565b601060009054906101000a900473ffffffffffffffffffffffffffffffffffffffff1673ffffffffffffffffffffffffffffffffffffffff168373ffffffffffffffffffffffffffffffffffffffff1603612d5d57600d54600e819055505b5b5b612d6b84848484612e50565b50505050565b6000838311158290612db9576040517f08c379a0000000000000000000000000000000000000000000000000000000008152600401612db09190613496565b60405180910390fd5b5082840390509392505050565b60008183612dd49190613da6565b905092915050565b6001601060146101000a81548160ff021916908315150217905550612e0081612eb4565b6000479050612e31600560019054906101000a900473ffffffffffffffffffffffffffffffffffffffff16826130f7565b506000601060146101000a81548160ff02191690831515021790555050565b80612e6257612e5d613142565b612e9b565b6005601581819054906101000a900460ff1680929190612e819061421e565b91906101000a81548160ff021916908360ff160217905550505b612ea6848484613158565b612eae613393565b50505050565b6000600267ffffffffffffffff811115612ed157612ed0614247565b5b604051908082528060200260200182016040528015612eff5781602001602082028036833780820191505090505b5090503081600081518110612f1757612f16613b76565b5b602002602001019073ffffffffffffffffffffffffffffffffffffffff16908173ffffffffffffffffffffffffffffffffffffffff1681525050600f60019054906101000a900473ffffffffffffffffffffffffffffffffffffffff1673ffffffffffffffffffffffffffffffffffffffff1663ad5c46486040518163ffffffff1660e01b8152600401602060405180830381865afa158015612fbe573d6000803e3d6000fd5b505050506040513d601f19601f82011682018060405250810190612fe2919061428b565b81600181518110612ff657612ff5613b76565b5b602002602001019073ffffffffffffffffffffffffffffffffffffffff16908173ffffffffffffffffffffffffffffffffffffffff168152505061305d30600f60019054906101000a900473ffffffffffffffffffffffffffffffffffffffff16846123db565b600f60019054906101000a900473ffffffffffffffffffffffffffffffffffffffff1673ffffffffffffffffffffffffffffffffffffffff1663791ac9478360008430426040518663ffffffff1660e01b81526004016130c19594939291906143b1565b600060405180830381600087803b1580156130db57600080fd5b505af11580156130ef573d6000803e3d6000fd5b505050505050565b8173ffffffffffffffffffffffffffffffffffffffff166108fc829081150290604051600060405180830381858888f1935050505015801561313d573d6000803e3d6000fd5b505050565b6000600e540315613156576000600e819055505b565b600080613164836133ab565b915091506131ba83600160008873ffffffffffffffffffffffffffffffffffffffff1673ffffffffffffffffffffffffffffffffffffffff168152602001908152602001600020546133f090919063ffffffff16565b600160008773ffffffffffffffffffffffffffffffffffffffff1673ffffffffffffffffffffffffffffffffffffffff1681526020019081526020016000208190555061324f82600160008773ffffffffffffffffffffffffffffffffffffffff1673ffffffffffffffffffffffffffffffffffffffff16815260200190815260200160002054612dc690919063ffffffff16565b600160008673ffffffffffffffffffffffffffffffffffffffff1673ffffffffffffffffffffffffffffffffffffffff168152602001908152602001600020819055506132e481600160003073ffffffffffffffffffffffffffffffffffffffff1673ffffffffffffffffffffffffffffffffffffffff16815260200190815260200160002054612dc690919063ffffffff16565b600160003073ffffffffffffffffffffffffffffffffffffffff1673ffffffffffffffffffffffffffffffffffffffff168152602001908152602001600020819055508373ffffffffffffffffffffffffffffffffffffffff168573ffffffffffffffffffffffffffffffffffffffff167fddf252ad1be2c89b69c2b068fc378daa952ba7f163c4a11628f55a4df523b3ef846040516133849190613682565b60405180910390a35050505050565b600b54600e5403156133a957600b54600e819055505b565b60008060006064600e54856133c09190613ad4565b6133ca9190613b45565b905060006133e182866133f090919063ffffffff16565b90508082935093505050915091565b600081836133fe9190613ba5565b905092915050565b600081519050919050565b600082825260208201905092915050565b60005b83811015613440578082015181840152602081019050613425565b60008484015250505050565b6000601f19601f8301169050919050565b600061346882613406565b6134728185613411565b9350613482818560208601613422565b61348b8161344c565b840191505092915050565b600060208201905081810360008301526134b0818461345d565b905092915050565b600080fd5b600080fd5b600073ffffffffffffffffffffffffffffffffffffffff82169050919050565b60006134ed826134c2565b9050919050565b6134fd816134e2565b811461350857600080fd5b50565b60008135905061351a816134f4565b92915050565b6000819050919050565b61353381613520565b811461353e57600080fd5b50565b6000813590506135508161352a565b92915050565b6000806040838503121561356d5761356c6134b8565b5b600061357b8582860161350b565b925050602061358c85828601613541565b9150509250929050565b60008115159050919050565b6135ab81613596565b82525050565b60006020820190506135c660008301846135a2565b92915050565b6000602082840312156135e2576135e16134b8565b5b60006135f084828501613541565b91505092915050565b6000819050919050565b600061361e613619613614846134c2565b6135f9565b6134c2565b9050919050565b600061363082613603565b9050919050565b600061364282613625565b9050919050565b61365281613637565b82525050565b600060208201905061366d6000830184613649565b92915050565b61367c81613520565b82525050565b60006020820190506136976000830184613673565b92915050565b600080fd5b600080fd5b600080fd5b60008083601f8401126136c2576136c161369d565b5b8235905067ffffffffffffffff8111156136df576136de6136a2565b5b6020830191508360208202830111156136fb576136fa6136a7565b5b9250929050565b60008060208385031215613719576137186134b8565b5b600083013567ffffffffffffffff811115613737576137366134bd565b5b613743858286016136ac565b92509250509250929050565b600060208284031215613765576137646134b8565b5b60006137738482850161350b565b91505092915050565b600080600060608486031215613795576137946134b8565b5b60006137a38682870161350b565b93505060206137b48682870161350b565b92505060406137c586828701613541565b9150509250925092565b600060ff82169050919050565b6137e5816137cf565b82525050565b600060208201905061380060008301846137dc565b92915050565b61380f816134e2565b82525050565b600060208201905061382a6000830184613806565b92915050565b60008060408385031215613847576138466134b8565b5b600061385585828601613541565b925050602061386685828601613541565b9150509250929050565b613879816137cf565b811461388457600080fd5b50565b60008135905061389681613870565b92915050565b6000602082840312156138b2576138b16134b8565b5b60006138c084828501613887565b91505092915050565b6138d281613596565b81146138dd57600080fd5b50565b6000813590506138ef816138c9565b92915050565b60006020828403121561390b5761390a6134b8565b5b6000613919848285016138e0565b91505092915050565b60008060408385031215613939576139386134b8565b5b60006139478582860161350b565b92505060206139588582860161350b565b9150509250929050565b600061396d826134c2565b9050919050565b61397d81613962565b811461398857600080fd5b50565b60008135905061399a81613974565b92915050565b6000602082840312156139b6576139b56134b8565b5b60006139c48482850161398b565b91505092915050565b7f4f776e61626c653a2063616c6c6572206973206e6f7420746865206f776e6572600082015250565b6000613a03602083613411565b9150613a0e826139cd565b602082019050919050565b60006020820190508181036000830152613a32816139f6565b9050919050565b7f4d696e696d756d206d7573742062652067726561746572207468616e20300000600082015250565b6000613a6f601e83613411565b9150613a7a82613a39565b602082019050919050565b60006020820190508181036000830152613a9e81613a62565b9050919050565b7f4e487b7100000000000000000000000000000000000000000000000000000000600052601160045260246000fd5b6000613adf82613520565b9150613aea83613520565b9250828202613af881613520565b91508282048414831517613b0f57613b0e613aa5565b5b5092915050565b7f4e487b7100000000000000000000000000000000000000000000000000000000600052601260045260246000fd5b6000613b5082613520565b9150613b5b83613520565b925082613b6b57613b6a613b16565b5b828204905092915050565b7f4e487b7100000000000000000000000000000000000000000000000000000000600052603260045260246000fd5b6000613bb082613520565b9150613bbb83613520565b9250828203905081811115613bd357613bd2613aa5565b5b92915050565b6000613be482613520565b91507fffffffffffffffffffffffffffffffffffffffffffffffffffffffffffffffff8203613c1657613c15613aa5565b5b600182019050919050565b7f4552523a207a65726f2061646472657373000000000000000000000000000000600082015250565b6000613c57601183613411565b9150613c6282613c21565b602082019050919050565b60006020820190508181036000830152613c8681613c4a565b9050919050565b7f43616e206e6f742072656d6f7665206e617469766520746f6b656e0000000000600082015250565b6000613cc3601b83613411565b9150613cce82613c8d565b602082019050919050565b60006020820190508181036000830152613cf281613cb6565b9050919050565b600081519050613d088161352a565b92915050565b600060208284031215613d2457613d236134b8565b5b6000613d3284828501613cf9565b91505092915050565b6000604082019050613d506000830185613806565b613d5d6020830184613673565b9392505050565b600081519050613d73816138c9565b92915050565b600060208284031215613d8f57613d8e6134b8565b5b6000613d9d84828501613d64565b91505092915050565b6000613db182613520565b9150613dbc83613520565b9250828201905080821115613dd457613dd3613aa5565b5b92915050565b7f46656520697320746f6f20686967682100000000000000000000000000000000600082015250565b6000613e10601083613411565b9150613e1b82613dda565b602082019050919050565b60006020820190508181036000830152613e3f81613e03565b9050919050565b7f43757272656e746c792070726f63657373696e672c20747279206c617465722e600082015250565b6000613e7c602083613411565b9150613e8782613e46565b602082019050919050565b60006020820190508181036000830152613eab81613e6f565b9050919050565b7f4f776e61626c653a206e6577206f776e657220697320746865207a65726f206160008201527f6464726573730000000000000000000000000000000000000000000000000000602082015250565b6000613f0e602683613411565b9150613f1982613eb2565b604082019050919050565b60006020820190508181036000830152613f3d81613f01565b9050919050565b7f596f752061726520747279696e6720746f2062757920746f6f206d616e79207460008201527f6f6b656e732e20596f752068617665207265616368656420746865206c696d6960208201527f7420666f72206f6e652077616c6c65742e000000000000000000000000000000604082015250565b6000613fc6605183613411565b9150613fd182613f44565b606082019050919050565b60006020820190508181036000830152613ff581613fb9565b9050919050565b7f596f752061726520747279696e6720746f20627579206d6f7265207468616e2060008201527f746865206d6178207472616e73616374696f6e206c696d69742e000000000000602082015250565b6000614058603a83613411565b915061406382613ffc565b604082019050919050565b600060208201905081810360008301526140878161404b565b9050919050565b7f54686973206164647265737320697320626c61636b6c69737465642e2054726160008201527f6e73616374696f6e2072657665727465642e0000000000000000000000000000602082015250565b60006140ea603283613411565b91506140f58261408e565b604082019050919050565b60006020820190508181036000830152614119816140dd565b9050919050565b7f4552523a205573696e6720302061646472657373210000000000000000000000600082015250565b6000614156601583613411565b915061416182614120565b602082019050919050565b6000602082019050818103600083015261418581614149565b9050919050565b7f546f6b656e2076616c7565206d75737420626520686967686572207468616e2060008201527f7a65726f2e000000000000000000000000000000000000000000000000000000602082015250565b60006141e8602583613411565b91506141f38261418c565b604082019050919050565b60006020820190508181036000830152614217816141db565b9050919050565b6000614229826137cf565b915060ff820361423c5761423b613aa5565b5b600182019050919050565b7f4e487b7100000000000000000000000000000000000000000000000000000000600052604160045260246000fd5b600081519050614285816134f4565b92915050565b6000602082840312156142a1576142a06134b8565b5b60006142af84828501614276565b91505092915050565b6000819050919050565b60006142dd6142d86142d3846142b8565b6135f9565b613520565b9050919050565b6142ed816142c2565b82525050565b600081519050919050565b600082825260208201905092915050565b6000819050602082019050919050565b614328816134e2565b82525050565b600061433a838361431f565b60208301905092915050565b6000602082019050919050565b600061435e826142f3565b61436881856142fe565b93506143738361430f565b8060005b838110156143a457815161438b888261432e565b975061439683614346565b925050600181019050614377565b5085935050505092915050565b600060a0820190506143c66000830188613673565b6143d360208301876142e4565b81810360408301526143e58186614353565b90506143f46060830185613806565b6144016080830184613673565b969550505050505056fe45524332303a207472616e7366657220616d6f756e74206578636565647320616c6c6f77616e636545524332303a2064656372656173656420616c6c6f77616e63652062656c6f77207a65726fa2646970667358221220c8d8964a7249bc9bb2e4ec3ea94893ecf271a1c6c653ddf2b9b85a434124af6e64736f6c63430008120033",
					"opcodes": "PUSH1 0x80 PUSH1 0x40 MSTORE PUSH20 0x60EE6569662EE29295E2F09A0B657B8D535090B9 PUSH1 0x5 PUSH1 0x1 PUSH2 0x100 EXP DUP2 SLOAD DUP2 PUSH20 0xFFFFFFFFFFFFFFFFFFFFFFFFFFFFFFFFFFFFFFFF MUL NOT AND SWAP1 DUP4 PUSH20 0xFFFFFFFFFFFFFFFFFFFFFFFFFFFFFFFFFFFFFFFF AND MUL OR SWAP1 SSTORE POP PUSH1 0x0 PUSH1 0x5 PUSH1 0x15 PUSH2 0x100 EXP DUP2 SLOAD DUP2 PUSH1 0xFF MUL NOT AND SWAP1 DUP4 PUSH1 0xFF AND MUL OR SWAP1 SSTORE POP PUSH1 0x3 PUSH1 0x5 PUSH1 0x16 PUSH2 0x100 EXP DUP2 SLOAD DUP2 PUSH1 0xFF MUL NOT AND SWAP1 DUP4 PUSH1 0xFF AND MUL OR SWAP1 SSTORE POP PUSH1 0xA PUSH1 0x6 SSTORE PUSH3 0xD7 PUSH1 0x64 PUSH3 0xC3 PUSH1 0x2 PUSH12 0x204FCE5E3E25026110000000 PUSH3 0x673 PUSH1 0x20 SHL PUSH3 0x23A7 OR SWAP1 SWAP2 SWAP1 PUSH1 0x20 SHR JUMP JUMPDEST PUSH3 0x68B PUSH1 0x20 SHL PUSH3 0x23BD OR SWAP1 SWAP2 SWAP1 PUSH1 0x20 SHR JUMP JUMPDEST PUSH1 0x7 SSTORE PUSH1 0x7 SLOAD PUSH1 0x8 SSTORE PUSH3 0x121 PUSH1 0x64 PUSH3 0x10D PUSH1 0x1 PUSH12 0x204FCE5E3E25026110000000 PUSH3 0x673 PUSH1 0x20 SHL PUSH3 0x23A7 OR SWAP1 SWAP2 SWAP1 PUSH1 0x20 SHR JUMP JUMPDEST PUSH3 0x68B PUSH1 0x20 SHL PUSH3 0x23BD OR SWAP1 SWAP2 SWAP1 PUSH1 0x20 SHR JUMP JUMPDEST PUSH1 0x9 SSTORE PUSH1 0x9 SLOAD PUSH1 0xA SSTORE PUSH1 0xA PUSH1 0xB SSTORE PUSH1 0x5 PUSH1 0xC SSTORE PUSH1 0x5 PUSH1 0xD SSTORE PUSH1 0xB SLOAD PUSH1 0xE SSTORE PUSH1 0x1 PUSH1 0xF PUSH1 0x0 PUSH2 0x100 EXP DUP2 SLOAD DUP2 PUSH1 0xFF MUL NOT AND SWAP1 DUP4 ISZERO ISZERO MUL OR SWAP1 SSTORE POP PUSH1 0x1 PUSH1 0x10 PUSH1 0x15 PUSH2 0x100 EXP DUP2 SLOAD DUP2 PUSH1 0xFF MUL NOT AND SWAP1 DUP4 ISZERO ISZERO MUL OR SWAP1 SSTORE POP CALLVALUE DUP1 ISZERO PUSH3 0x182 JUMPI PUSH1 0x0 DUP1 REVERT JUMPDEST POP PUSH20 0xC402FE06948516567F2E59AB88172FEE49F5A84C PUSH1 0x0 DUP1 PUSH2 0x100 EXP DUP2 SLOAD DUP2 PUSH20 0xFFFFFFFFFFFFFFFFFFFFFFFFFFFFFFFFFFFFFFFF MUL NOT AND SWAP1 DUP4 PUSH20 0xFFFFFFFFFFFFFFFFFFFFFFFFFFFFFFFFFFFFFFFF AND MUL OR SWAP1 SSTORE POP PUSH1 0x0 DUP1 SLOAD SWAP1 PUSH2 0x100 EXP SWAP1 DIV PUSH20 0xFFFFFFFFFFFFFFFFFFFFFFFFFFFFFFFFFFFFFFFF AND PUSH20 0xFFFFFFFFFFFFFFFFFFFFFFFFFFFFFFFFFFFFFFFF AND PUSH1 0x0 PUSH20 0xFFFFFFFFFFFFFFFFFFFFFFFFFFFFFFFFFFFFFFFF AND PUSH32 0x8BE0079C531659141344CD1FD0A4F28419497F9722A3DAAFE3B4186F6B6457E0 PUSH1 0x40 MLOAD PUSH1 0x40 MLOAD DUP1 SWAP2 SUB SWAP1 LOG3 PUSH12 0x204FCE5E3E25026110000000 PUSH1 0x1 PUSH1 0x0 PUSH3 0x273 PUSH3 0x6A3 PUSH1 0x20 SHL PUSH1 0x20 SHR JUMP JUMPDEST PUSH20 0xFFFFFFFFFFFFFFFFFFFFFFFFFFFFFFFFFFFFFFFF AND PUSH20 0xFFFFFFFFFFFFFFFFFFFFFFFFFFFFFFFFFFFFFFFF AND DUP2 MSTORE PUSH1 0x20 ADD SWAP1 DUP2 MSTORE PUSH1 0x20 ADD PUSH1 0x0 KECCAK256 DUP2 SWAP1 SSTORE POP PUSH1 0x0 PUSH20 0x10ED43C718714EB63D5AA57B78B54704E256024E SWAP1 POP DUP1 PUSH20 0xFFFFFFFFFFFFFFFFFFFFFFFFFFFFFFFFFFFFFFFF AND PUSH4 0xC45A0155 PUSH1 0x40 MLOAD DUP2 PUSH4 0xFFFFFFFF AND PUSH1 0xE0 SHL DUP2 MSTORE PUSH1 0x4 ADD PUSH1 0x20 PUSH1 0x40 MLOAD DUP1 DUP4 SUB DUP2 DUP7 GAS STATICCALL ISZERO DUP1 ISZERO PUSH3 0x316 JUMPI RETURNDATASIZE PUSH1 0x0 DUP1 RETURNDATACOPY RETURNDATASIZE PUSH1 0x0 REVERT JUMPDEST POP POP POP POP PUSH1 0x40 MLOAD RETURNDATASIZE PUSH1 0x1F NOT PUSH1 0x1F DUP3 ADD AND DUP3 ADD DUP1 PUSH1 0x40 MSTORE POP DUP2 ADD SWAP1 PUSH3 0x33C SWAP2 SWAP1 PUSH3 0x736 JUMP JUMPDEST PUSH20 0xFFFFFFFFFFFFFFFFFFFFFFFFFFFFFFFFFFFFFFFF AND PUSH4 0xC9C65396 ADDRESS DUP4 PUSH20 0xFFFFFFFFFFFFFFFFFFFFFFFFFFFFFFFFFFFFFFFF AND PUSH4 0xAD5C4648 PUSH1 0x40 MLOAD DUP2 PUSH4 0xFFFFFFFF AND PUSH1 0xE0 SHL DUP2 MSTORE PUSH1 0x4 ADD PUSH1 0x20 PUSH1 0x40 MLOAD DUP1 DUP4 SUB DUP2 DUP7 GAS STATICCALL ISZERO DUP1 ISZERO PUSH3 0x3A4 JUMPI RETURNDATASIZE PUSH1 0x0 DUP1 RETURNDATACOPY RETURNDATASIZE PUSH1 0x0 REVERT JUMPDEST POP POP POP POP PUSH1 0x40 MLOAD RETURNDATASIZE PUSH1 0x1F NOT PUSH1 0x1F DUP3 ADD AND DUP3 ADD DUP1 PUSH1 0x40 MSTORE POP DUP2 ADD SWAP1 PUSH3 0x3CA SWAP2 SWAP1 PUSH3 0x736 JUMP JUMPDEST PUSH1 0x40 MLOAD DUP4 PUSH4 0xFFFFFFFF AND PUSH1 0xE0 SHL DUP2 MSTORE PUSH1 0x4 ADD PUSH3 0x3E9 SWAP3 SWAP2 SWAP1 PUSH3 0x779 JUMP JUMPDEST PUSH1 0x20 PUSH1 0x40 MLOAD DUP1 DUP4 SUB DUP2 PUSH1 0x0 DUP8 GAS CALL ISZERO DUP1 ISZERO PUSH3 0x409 JUMPI RETURNDATASIZE PUSH1 0x0 DUP1 RETURNDATACOPY RETURNDATASIZE PUSH1 0x0 REVERT JUMPDEST POP POP POP POP PUSH1 0x40 MLOAD RETURNDATASIZE PUSH1 0x1F NOT PUSH1 0x1F DUP3 ADD AND DUP3 ADD DUP1 PUSH1 0x40 MSTORE POP DUP2 ADD SWAP1 PUSH3 0x42F SWAP2 SWAP1 PUSH3 0x736 JUMP JUMPDEST PUSH1 0x10 PUSH1 0x0 PUSH2 0x100 EXP DUP2 SLOAD DUP2 PUSH20 0xFFFFFFFFFFFFFFFFFFFFFFFFFFFFFFFFFFFFFFFF MUL NOT AND SWAP1 DUP4 PUSH20 0xFFFFFFFFFFFFFFFFFFFFFFFFFFFFFFFFFFFFFFFF AND MUL OR SWAP1 SSTORE POP DUP1 PUSH1 0xF PUSH1 0x1 PUSH2 0x100 EXP DUP2 SLOAD DUP2 PUSH20 0xFFFFFFFFFFFFFFFFFFFFFFFFFFFFFFFFFFFFFFFF MUL NOT AND SWAP1 DUP4 PUSH20 0xFFFFFFFFFFFFFFFFFFFFFFFFFFFFFFFFFFFFFFFF AND MUL OR SWAP1 SSTORE POP PUSH1 0x1 PUSH1 0x3 PUSH1 0x0 PUSH3 0x4C6 PUSH3 0x6A3 PUSH1 0x20 SHL PUSH1 0x20 SHR JUMP JUMPDEST PUSH20 0xFFFFFFFFFFFFFFFFFFFFFFFFFFFFFFFFFFFFFFFF AND PUSH20 0xFFFFFFFFFFFFFFFFFFFFFFFFFFFFFFFFFFFFFFFF AND DUP2 MSTORE PUSH1 0x20 ADD SWAP1 DUP2 MSTORE PUSH1 0x20 ADD PUSH1 0x0 KECCAK256 PUSH1 0x0 PUSH2 0x100 EXP DUP2 SLOAD DUP2 PUSH1 0xFF MUL NOT AND SWAP1 DUP4 ISZERO ISZERO MUL OR SWAP1 SSTORE POP PUSH1 0x1 PUSH1 0x3 PUSH1 0x0 ADDRESS PUSH20 0xFFFFFFFFFFFFFFFFFFFFFFFFFFFFFFFFFFFFFFFF AND PUSH20 0xFFFFFFFFFFFFFFFFFFFFFFFFFFFFFFFFFFFFFFFF AND DUP2 MSTORE PUSH1 0x20 ADD SWAP1 DUP2 MSTORE PUSH1 0x20 ADD PUSH1 0x0 KECCAK256 PUSH1 0x0 PUSH2 0x100 EXP DUP2 SLOAD DUP2 PUSH1 0xFF MUL NOT AND SWAP1 DUP4 ISZERO ISZERO MUL OR SWAP1 SSTORE POP PUSH1 0x1 PUSH1 0x3 PUSH1 0x0 PUSH1 0x5 PUSH1 0x1 SWAP1 SLOAD SWAP1 PUSH2 0x100 EXP SWAP1 DIV PUSH20 0xFFFFFFFFFFFFFFFFFFFFFFFFFFFFFFFFFFFFFFFF AND PUSH20 0xFFFFFFFFFFFFFFFFFFFFFFFFFFFFFFFFFFFFFFFF AND PUSH20 0xFFFFFFFFFFFFFFFFFFFFFFFFFFFFFFFFFFFFFFFF AND DUP2 MSTORE PUSH1 0x20 ADD SWAP1 DUP2 MSTORE PUSH1 0x20 ADD PUSH1 0x0 KECCAK256 PUSH1 0x0 PUSH2 0x100 EXP DUP2 SLOAD DUP2 PUSH1 0xFF MUL NOT AND SWAP1 DUP4 ISZERO ISZERO MUL OR SWAP1 SSTORE POP PUSH3 0x5F9 PUSH3 0x6A3 PUSH1 0x20 SHL PUSH1 0x20 SHR JUMP JUMPDEST PUSH20 0xFFFFFFFFFFFFFFFFFFFFFFFFFFFFFFFFFFFFFFFF AND PUSH1 0x0 PUSH20 0xFFFFFFFFFFFFFFFFFFFFFFFFFFFFFFFFFFFFFFFF AND PUSH32 0xDDF252AD1BE2C89B69C2B068FC378DAA952BA7F163C4A11628F55A4DF523B3EF PUSH12 0x204FCE5E3E25026110000000 PUSH1 0x40 MLOAD PUSH3 0x664 SWAP2 SWAP1 PUSH3 0x7C1 JUMP JUMPDEST PUSH1 0x40 MLOAD DUP1 SWAP2 SUB SWAP1 LOG3 POP PUSH3 0x8BF JUMP JUMPDEST PUSH1 0x0 DUP2 DUP4 PUSH3 0x683 SWAP2 SWAP1 PUSH3 0x80D JUMP JUMPDEST SWAP1 POP SWAP3 SWAP2 POP POP JUMP JUMPDEST PUSH1 0x0 DUP2 DUP4 PUSH3 0x69B SWAP2 SWAP1 PUSH3 0x887 JUMP JUMPDEST SWAP1 POP SWAP3 SWAP2 POP POP JUMP JUMPDEST PUSH1 0x0 DUP1 PUSH1 0x0 SWAP1 SLOAD SWAP1 PUSH2 0x100 EXP SWAP1 DIV PUSH20 0xFFFFFFFFFFFFFFFFFFFFFFFFFFFFFFFFFFFFFFFF AND SWAP1 POP SWAP1 JUMP JUMPDEST PUSH1 0x0 DUP1 REVERT JUMPDEST PUSH1 0x0 PUSH20 0xFFFFFFFFFFFFFFFFFFFFFFFFFFFFFFFFFFFFFFFF DUP3 AND SWAP1 POP SWAP2 SWAP1 POP JUMP JUMPDEST PUSH1 0x0 PUSH3 0x6FE DUP3 PUSH3 0x6D1 JUMP JUMPDEST SWAP1 POP SWAP2 SWAP1 POP JUMP JUMPDEST PUSH3 0x710 DUP2 PUSH3 0x6F1 JUMP JUMPDEST DUP2 EQ PUSH3 0x71C JUMPI PUSH1 0x0 DUP1 REVERT JUMPDEST POP JUMP JUMPDEST PUSH1 0x0 DUP2 MLOAD SWAP1 POP PUSH3 0x730 DUP2 PUSH3 0x705 JUMP JUMPDEST SWAP3 SWAP2 POP POP JUMP JUMPDEST PUSH1 0x0 PUSH1 0x20 DUP3 DUP5 SUB SLT ISZERO PUSH3 0x74F JUMPI PUSH3 0x74E PUSH3 0x6CC JUMP JUMPDEST JUMPDEST PUSH1 0x0 PUSH3 0x75F DUP5 DUP3 DUP6 ADD PUSH3 0x71F JUMP JUMPDEST SWAP2 POP POP SWAP3 SWAP2 POP POP JUMP JUMPDEST PUSH3 0x773 DUP2 PUSH3 0x6F1 JUMP JUMPDEST DUP3 MSTORE POP POP JUMP JUMPDEST PUSH1 0x0 PUSH1 0x40 DUP3 ADD SWAP1 POP PUSH3 0x790 PUSH1 0x0 DUP4 ADD DUP6 PUSH3 0x768 JUMP JUMPDEST PUSH3 0x79F PUSH1 0x20 DUP4 ADD DUP5 PUSH3 0x768 JUMP JUMPDEST SWAP4 SWAP3 POP POP POP JUMP JUMPDEST PUSH1 0x0 DUP2 SWAP1 POP SWAP2 SWAP1 POP JUMP JUMPDEST PUSH3 0x7BB DUP2 PUSH3 0x7A6 JUMP JUMPDEST DUP3 MSTORE POP POP JUMP JUMPDEST PUSH1 0x0 PUSH1 0x20 DUP3 ADD SWAP1 POP PUSH3 0x7D8 PUSH1 0x0 DUP4 ADD DUP5 PUSH3 0x7B0 JUMP JUMPDEST SWAP3 SWAP2 POP POP JUMP JUMPDEST PUSH32 0x4E487B7100000000000000000000000000000000000000000000000000000000 PUSH1 0x0 MSTORE PUSH1 0x11 PUSH1 0x4 MSTORE PUSH1 0x24 PUSH1 0x0 REVERT JUMPDEST PUSH1 0x0 PUSH3 0x81A DUP3 PUSH3 0x7A6 JUMP JUMPDEST SWAP2 POP PUSH3 0x827 DUP4 PUSH3 0x7A6 JUMP JUMPDEST SWAP3 POP DUP3 DUP3 MUL PUSH3 0x837 DUP2 PUSH3 0x7A6 JUMP JUMPDEST SWAP2 POP DUP3 DUP3 DIV DUP5 EQ DUP4 ISZERO OR PUSH3 0x851 JUMPI PUSH3 0x850 PUSH3 0x7DE JUMP JUMPDEST JUMPDEST POP SWAP3 SWAP2 POP POP JUMP JUMPDEST PUSH32 0x4E487B7100000000000000000000000000000000000000000000000000000000 PUSH1 0x0 MSTORE PUSH1 0x12 PUSH1 0x4 MSTORE PUSH1 0x24 PUSH1 0x0 REVERT JUMPDEST PUSH1 0x0 PUSH3 0x894 DUP3 PUSH3 0x7A6 JUMP JUMPDEST SWAP2 POP PUSH3 0x8A1 DUP4 PUSH3 0x7A6 JUMP JUMPDEST SWAP3 POP DUP3 PUSH3 0x8B4 JUMPI PUSH3 0x8B3 PUSH3 0x858 JUMP JUMPDEST JUMPDEST DUP3 DUP3 DIV SWAP1 POP SWAP3 SWAP2 POP POP JUMP JUMPDEST PUSH2 0x448E DUP1 PUSH3 0x8CF PUSH1 0x0 CODECOPY PUSH1 0x0 RETURN INVALID PUSH1 0x80 PUSH1 0x40 MSTORE PUSH1 0x4 CALLDATASIZE LT PUSH2 0x260 JUMPI PUSH1 0x0 CALLDATALOAD PUSH1 0xE0 SHR DUP1 PUSH4 0x70A08231 GT PUSH2 0x144 JUMPI DUP1 PUSH4 0xA9059CBB GT PUSH2 0xB6 JUMPI DUP1 PUSH4 0xDCFF0237 GT PUSH2 0x7A JUMPI DUP1 PUSH4 0xDCFF0237 EQ PUSH2 0x91D JUMPI DUP1 PUSH4 0xDD62ED3E EQ PUSH2 0x946 JUMPI DUP1 PUSH4 0xEA2F0B37 EQ PUSH2 0x983 JUMPI DUP1 PUSH4 0xF2FDE38B EQ PUSH2 0x9AC JUMPI DUP1 PUSH4 0xF73980F9 EQ PUSH2 0x9D5 JUMPI DUP1 PUSH4 0xF7739B5F EQ PUSH2 0x9FE JUMPI PUSH2 0x267 JUMP JUMPDEST DUP1 PUSH4 0xA9059CBB EQ PUSH2 0x838 JUMPI DUP1 PUSH4 0xAE7BD3F2 EQ PUSH2 0x875 JUMPI DUP1 PUSH4 0xB8863115 EQ PUSH2 0x89E JUMPI DUP1 PUSH4 0xBA6A6CDB EQ PUSH2 0x8C9 JUMPI DUP1 PUSH4 0xC7039528 EQ PUSH2 0x8F2 JUMPI PUSH2 0x267 JUMP JUMPDEST DUP1 PUSH4 0x85AE099F GT PUSH2 0x108 JUMPI DUP1 PUSH4 0x85AE099F EQ PUSH2 0x728 JUMPI DUP1 PUSH4 0x8DA5CB5B EQ PUSH2 0x753 JUMPI DUP1 PUSH4 0x95D89B41 EQ PUSH2 0x77E JUMPI DUP1 PUSH4 0xA01CBF9A EQ PUSH2 0x7A9 JUMPI DUP1 PUSH4 0xA2A02C33 EQ PUSH2 0x7D2 JUMPI DUP1 PUSH4 0xA457C2D7 EQ PUSH2 0x7FB JUMPI PUSH2 0x267 JUMP JUMPDEST DUP1 PUSH4 0x70A08231 EQ PUSH2 0x643 JUMPI DUP1 PUSH4 0x715018A6 EQ PUSH2 0x680 JUMPI DUP1 PUSH4 0x768DC710 EQ PUSH2 0x697 JUMPI DUP1 PUSH4 0x7CAEFA89 EQ PUSH2 0x6D4 JUMPI DUP1 PUSH4 0x7D1DB4A5 EQ PUSH2 0x6FD JUMPI PUSH2 0x267 JUMP JUMPDEST DUP1 PUSH4 0x2F536344 GT PUSH2 0x1DD JUMPI DUP1 PUSH4 0x437823EC GT PUSH2 0x1A1 JUMPI DUP1 PUSH4 0x437823EC EQ PUSH2 0x545 JUMPI DUP1 PUSH4 0x46258AB3 EQ PUSH2 0x56E JUMPI DUP1 PUSH4 0x49BD5A5E EQ PUSH2 0x599 JUMPI DUP1 PUSH4 0x5238F0E3 EQ PUSH2 0x5C4 JUMPI DUP1 PUSH4 0x590F897E EQ PUSH2 0x5EF JUMPI DUP1 PUSH4 0x67CBD84C EQ PUSH2 0x61A JUMPI PUSH2 0x267 JUMP JUMPDEST DUP1 PUSH4 0x2F536344 EQ PUSH2 0x44C JUMPI DUP1 PUSH4 0x313CE567 EQ PUSH2 0x489 JUMPI DUP1 PUSH4 0x39509351 EQ PUSH2 0x4B4 JUMPI DUP1 PUSH4 0x3E66C435 EQ PUSH2 0x4F1 JUMPI DUP1 PUSH4 0x40B9A54B EQ PUSH2 0x51A JUMPI PUSH2 0x267 JUMP JUMPDEST DUP1 PUSH4 0x1B123B71 GT PUSH2 0x224 JUMPI DUP1 PUSH4 0x1B123B71 EQ PUSH2 0x353 JUMPI DUP1 PUSH4 0x1CDD3BE3 EQ PUSH2 0x37C JUMPI DUP1 PUSH4 0x23B872DD EQ PUSH2 0x3B9 JUMPI DUP1 PUSH4 0x2A77C076 EQ PUSH2 0x3F6 JUMPI DUP1 PUSH4 0x2B37B69B EQ PUSH2 0x421 JUMPI PUSH2 0x267 JUMP JUMPDEST DUP1 PUSH4 0x6FDDE03 EQ PUSH2 0x26C JUMPI DUP1 PUSH4 0x95EA7B3 EQ PUSH2 0x297 JUMPI DUP1 PUSH4 0x15A2F349 EQ PUSH2 0x2D4 JUMPI DUP1 PUSH4 0x1694505E EQ PUSH2 0x2FD JUMPI DUP1 PUSH4 0x18160DDD EQ PUSH2 0x328 JUMPI PUSH2 0x267 JUMP JUMPDEST CALLDATASIZE PUSH2 0x267 JUMPI STOP JUMPDEST PUSH1 0x0 DUP1 REVERT JUMPDEST CALLVALUE DUP1 ISZERO PUSH2 0x278 JUMPI PUSH1 0x0 DUP1 REVERT JUMPDEST POP PUSH2 0x281 PUSH2 0xA27 JUMP JUMPDEST PUSH1 0x40 MLOAD PUSH2 0x28E SWAP2 SWAP1 PUSH2 0x3496 JUMP JUMPDEST PUSH1 0x40 MLOAD DUP1 SWAP2 SUB SWAP1 RETURN JUMPDEST CALLVALUE DUP1 ISZERO PUSH2 0x2A3 JUMPI PUSH1 0x0 DUP1 REVERT JUMPDEST POP PUSH2 0x2BE PUSH1 0x4 DUP1 CALLDATASIZE SUB DUP2 ADD SWAP1 PUSH2 0x2B9 SWAP2 SWAP1 PUSH2 0x3556 JUMP JUMPDEST PUSH2 0xA64 JUMP JUMPDEST PUSH1 0x40 MLOAD PUSH2 0x2CB SWAP2 SWAP1 PUSH2 0x35B1 JUMP JUMPDEST PUSH1 0x40 MLOAD DUP1 SWAP2 SUB SWAP1 RETURN JUMPDEST CALLVALUE DUP1 ISZERO PUSH2 0x2E0 JUMPI PUSH1 0x0 DUP1 REVERT JUMPDEST POP PUSH2 0x2FB PUSH1 0x4 DUP1 CALLDATASIZE SUB DUP2 ADD SWAP1 PUSH2 0x2F6 SWAP2 SWAP1 PUSH2 0x35CC JUMP JUMPDEST PUSH2 0xA82 JUMP JUMPDEST STOP JUMPDEST CALLVALUE DUP1 ISZERO PUSH2 0x309 JUMPI PUSH1 0x0 DUP1 REVERT JUMPDEST POP PUSH2 0x312 PUSH2 0xB6F JUMP JUMPDEST PUSH1 0x40 MLOAD PUSH2 0x31F SWAP2 SWAP1 PUSH2 0x3658 JUMP JUMPDEST PUSH1 0x40 MLOAD DUP1 SWAP2 SUB SWAP1 RETURN JUMPDEST CALLVALUE DUP1 ISZERO PUSH2 0x334 JUMPI PUSH1 0x0 DUP1 REVERT JUMPDEST POP PUSH2 0x33D PUSH2 0xB95 JUMP JUMPDEST PUSH1 0x40 MLOAD PUSH2 0x34A SWAP2 SWAP1 PUSH2 0x3682 JUMP JUMPDEST PUSH1 0x40 MLOAD DUP1 SWAP2 SUB SWAP1 RETURN JUMPDEST CALLVALUE DUP1 ISZERO PUSH2 0x35F JUMPI PUSH1 0x0 DUP1 REVERT JUMPDEST POP PUSH2 0x37A PUSH1 0x4 DUP1 CALLDATASIZE SUB DUP2 ADD SWAP1 PUSH2 0x375 SWAP2 SWAP1 PUSH2 0x3702 JUMP JUMPDEST PUSH2 0xBA9 JUMP JUMPDEST STOP JUMPDEST CALLVALUE DUP1 ISZERO PUSH2 0x388 JUMPI PUSH1 0x0 DUP1 REVERT JUMPDEST POP PUSH2 0x3A3 PUSH1 0x4 DUP1 CALLDATASIZE SUB DUP2 ADD SWAP1 PUSH2 0x39E SWAP2 SWAP1 PUSH2 0x374F JUMP JUMPDEST PUSH2 0xD60 JUMP JUMPDEST PUSH1 0x40 MLOAD PUSH2 0x3B0 SWAP2 SWAP1 PUSH2 0x35B1 JUMP JUMPDEST PUSH1 0x40 MLOAD DUP1 SWAP2 SUB SWAP1 RETURN JUMPDEST CALLVALUE DUP1 ISZERO PUSH2 0x3C5 JUMPI PUSH1 0x0 DUP1 REVERT JUMPDEST POP PUSH2 0x3E0 PUSH1 0x4 DUP1 CALLDATASIZE SUB DUP2 ADD SWAP1 PUSH2 0x3DB SWAP2 SWAP1 PUSH2 0x377C JUMP JUMPDEST PUSH2 0xD80 JUMP JUMPDEST PUSH1 0x40 MLOAD PUSH2 0x3ED SWAP2 SWAP1 PUSH2 0x35B1 JUMP JUMPDEST PUSH1 0x40 MLOAD DUP1 SWAP2 SUB SWAP1 RETURN JUMPDEST CALLVALUE DUP1 ISZERO PUSH2 0x402 JUMPI PUSH1 0x0 DUP1 REVERT JUMPDEST POP PUSH2 0x40B PUSH2 0xE59 JUMP JUMPDEST PUSH1 0x40 MLOAD PUSH2 0x418 SWAP2 SWAP1 PUSH2 0x35B1 JUMP JUMPDEST PUSH1 0x40 MLOAD DUP1 SWAP2 SUB SWAP1 RETURN JUMPDEST CALLVALUE DUP1 ISZERO PUSH2 0x42D JUMPI PUSH1 0x0 DUP1 REVERT JUMPDEST POP PUSH2 0x436 PUSH2 0xE6C JUMP JUMPDEST PUSH1 0x40 MLOAD PUSH2 0x443 SWAP2 SWAP1 PUSH2 0x3682 JUMP JUMPDEST PUSH1 0x40 MLOAD DUP1 SWAP2 SUB SWAP1 RETURN JUMPDEST CALLVALUE DUP1 ISZERO PUSH2 0x458 JUMPI PUSH1 0x0 DUP1 REVERT JUMPDEST POP PUSH2 0x473 PUSH1 0x4 DUP1 CALLDATASIZE SUB DUP2 ADD SWAP1 PUSH2 0x46E SWAP2 SWAP1 PUSH2 0x377C JUMP JUMPDEST PUSH2 0xE72 JUMP JUMPDEST PUSH1 0x40 MLOAD PUSH2 0x480 SWAP2 SWAP1 PUSH2 0x35B1 JUMP JUMPDEST PUSH1 0x40 MLOAD DUP1 SWAP2 SUB SWAP1 RETURN JUMPDEST CALLVALUE DUP1 ISZERO PUSH2 0x495 JUMPI PUSH1 0x0 DUP1 REVERT JUMPDEST POP PUSH2 0x49E PUSH2 0x1119 JUMP JUMPDEST PUSH1 0x40 MLOAD PUSH2 0x4AB SWAP2 SWAP1 PUSH2 0x37EB JUMP JUMPDEST PUSH1 0x40 MLOAD DUP1 SWAP2 SUB SWAP1 RETURN JUMPDEST CALLVALUE DUP1 ISZERO PUSH2 0x4C0 JUMPI PUSH1 0x0 DUP1 REVERT JUMPDEST POP PUSH2 0x4DB PUSH1 0x4 DUP1 CALLDATASIZE SUB DUP2 ADD SWAP1 PUSH2 0x4D6 SWAP2 SWAP1 PUSH2 0x3556 JUMP JUMPDEST PUSH2 0x1122 JUMP JUMPDEST PUSH1 0x40 MLOAD PUSH2 0x4E8 SWAP2 SWAP1 PUSH2 0x35B1 JUMP JUMPDEST PUSH1 0x40 MLOAD DUP1 SWAP2 SUB SWAP1 RETURN JUMPDEST CALLVALUE DUP1 ISZERO PUSH2 0x4FD JUMPI PUSH1 0x0 DUP1 REVERT JUMPDEST POP PUSH2 0x518 PUSH1 0x4 DUP1 CALLDATASIZE SUB DUP2 ADD SWAP1 PUSH2 0x513 SWAP2 SWAP1 PUSH2 0x3702 JUMP JUMPDEST PUSH2 0x11D5 JUMP JUMPDEST STOP JUMPDEST CALLVALUE DUP1 ISZERO PUSH2 0x526 JUMPI PUSH1 0x0 DUP1 REVERT JUMPDEST POP PUSH2 0x52F PUSH2 0x138D JUMP JUMPDEST PUSH1 0x40 MLOAD PUSH2 0x53C SWAP2 SWAP1 PUSH2 0x3682 JUMP JUMPDEST PUSH1 0x40 MLOAD DUP1 SWAP2 SUB SWAP1 RETURN JUMPDEST CALLVALUE DUP1 ISZERO PUSH2 0x551 JUMPI PUSH1 0x0 DUP1 REVERT JUMPDEST POP PUSH2 0x56C PUSH1 0x4 DUP1 CALLDATASIZE SUB DUP2 ADD SWAP1 PUSH2 0x567 SWAP2 SWAP1 PUSH2 0x374F JUMP JUMPDEST PUSH2 0x1393 JUMP JUMPDEST STOP JUMPDEST CALLVALUE DUP1 ISZERO PUSH2 0x57A JUMPI PUSH1 0x0 DUP1 REVERT JUMPDEST POP PUSH2 0x583 PUSH2 0x14D9 JUMP JUMPDEST PUSH1 0x40 MLOAD PUSH2 0x590 SWAP2 SWAP1 PUSH2 0x3682 JUMP JUMPDEST PUSH1 0x40 MLOAD DUP1 SWAP2 SUB SWAP1 RETURN JUMPDEST CALLVALUE DUP1 ISZERO PUSH2 0x5A5 JUMPI PUSH1 0x0 DUP1 REVERT JUMPDEST POP PUSH2 0x5AE PUSH2 0x14DF JUMP JUMPDEST PUSH1 0x40 MLOAD PUSH2 0x5BB SWAP2 SWAP1 PUSH2 0x3815 JUMP JUMPDEST PUSH1 0x40 MLOAD DUP1 SWAP2 SUB SWAP1 RETURN JUMPDEST CALLVALUE DUP1 ISZERO PUSH2 0x5D0 JUMPI PUSH1 0x0 DUP1 REVERT JUMPDEST POP PUSH2 0x5D9 PUSH2 0x1505 JUMP JUMPDEST PUSH1 0x40 MLOAD PUSH2 0x5E6 SWAP2 SWAP1 PUSH2 0x3682 JUMP JUMPDEST PUSH1 0x40 MLOAD DUP1 SWAP2 SUB SWAP1 RETURN JUMPDEST CALLVALUE DUP1 ISZERO PUSH2 0x5FB JUMPI PUSH1 0x0 DUP1 REVERT JUMPDEST POP PUSH2 0x604 PUSH2 0x150B JUMP JUMPDEST PUSH1 0x40 MLOAD PUSH2 0x611 SWAP2 SWAP1 PUSH2 0x3682 JUMP JUMPDEST PUSH1 0x40 MLOAD DUP1 SWAP2 SUB SWAP1 RETURN JUMPDEST CALLVALUE DUP1 ISZERO PUSH2 0x626 JUMPI PUSH1 0x0 DUP1 REVERT JUMPDEST POP PUSH2 0x641 PUSH1 0x4 DUP1 CALLDATASIZE SUB DUP2 ADD SWAP1 PUSH2 0x63C SWAP2 SWAP1 PUSH2 0x3830 JUMP JUMPDEST PUSH2 0x1511 JUMP JUMPDEST STOP JUMPDEST CALLVALUE DUP1 ISZERO PUSH2 0x64F JUMPI PUSH1 0x0 DUP1 REVERT JUMPDEST POP PUSH2 0x66A PUSH1 0x4 DUP1 CALLDATASIZE SUB DUP2 ADD SWAP1 PUSH2 0x665 SWAP2 SWAP1 PUSH2 0x374F JUMP JUMPDEST PUSH2 0x15EE JUMP JUMPDEST PUSH1 0x40 MLOAD PUSH2 0x677 SWAP2 SWAP1 PUSH2 0x3682 JUMP JUMPDEST PUSH1 0x40 MLOAD DUP1 SWAP2 SUB SWAP1 RETURN JUMPDEST CALLVALUE DUP1 ISZERO PUSH2 0x68C JUMPI PUSH1 0x0 DUP1 REVERT JUMPDEST POP PUSH2 0x695 PUSH2 0x1637 JUMP JUMPDEST STOP JUMPDEST CALLVALUE DUP1 ISZERO PUSH2 0x6A3 JUMPI PUSH1 0x0 DUP1 REVERT JUMPDEST POP PUSH2 0x6BE PUSH1 0x4 DUP1 CALLDATASIZE SUB DUP2 ADD SWAP1 PUSH2 0x6B9 SWAP2 SWAP1 PUSH2 0x374F JUMP JUMPDEST PUSH2 0x1771 JUMP JUMPDEST PUSH1 0x40 MLOAD PUSH2 0x6CB SWAP2 SWAP1 PUSH2 0x35B1 JUMP JUMPDEST PUSH1 0x40 MLOAD DUP1 SWAP2 SUB SWAP1 RETURN JUMPDEST CALLVALUE DUP1 ISZERO PUSH2 0x6E0 JUMPI PUSH1 0x0 DUP1 REVERT JUMPDEST POP PUSH2 0x6FB PUSH1 0x4 DUP1 CALLDATASIZE SUB DUP2 ADD SWAP1 PUSH2 0x6F6 SWAP2 SWAP1 PUSH2 0x389C JUMP JUMPDEST PUSH2 0x1791 JUMP JUMPDEST STOP JUMPDEST CALLVALUE DUP1 ISZERO PUSH2 0x709 JUMPI PUSH1 0x0 DUP1 REVERT JUMPDEST POP PUSH2 0x712 PUSH2 0x1871 JUMP JUMPDEST PUSH1 0x40 MLOAD PUSH2 0x71F SWAP2 SWAP1 PUSH2 0x3682 JUMP JUMPDEST PUSH1 0x40 MLOAD DUP1 SWAP2 SUB SWAP1 RETURN JUMPDEST CALLVALUE DUP1 ISZERO PUSH2 0x734 JUMPI PUSH1 0x0 DUP1 REVERT JUMPDEST POP PUSH2 0x73D PUSH2 0x1877 JUMP JUMPDEST PUSH1 0x40 MLOAD PUSH2 0x74A SWAP2 SWAP1 PUSH2 0x35B1 JUMP JUMPDEST PUSH1 0x40 MLOAD DUP1 SWAP2 SUB SWAP1 RETURN JUMPDEST CALLVALUE DUP1 ISZERO PUSH2 0x75F JUMPI PUSH1 0x0 DUP1 REVERT JUMPDEST POP PUSH2 0x768 PUSH2 0x188A JUMP JUMPDEST PUSH1 0x40 MLOAD PUSH2 0x775 SWAP2 SWAP1 PUSH2 0x3815 JUMP JUMPDEST PUSH1 0x40 MLOAD DUP1 SWAP2 SUB SWAP1 RETURN JUMPDEST CALLVALUE DUP1 ISZERO PUSH2 0x78A JUMPI PUSH1 0x0 DUP1 REVERT JUMPDEST POP PUSH2 0x793 PUSH2 0x18B3 JUMP JUMPDEST PUSH1 0x40 MLOAD PUSH2 0x7A0 SWAP2 SWAP1 PUSH2 0x3496 JUMP JUMPDEST PUSH1 0x40 MLOAD DUP1 SWAP2 SUB SWAP1 RETURN JUMPDEST CALLVALUE DUP1 ISZERO PUSH2 0x7B5 JUMPI PUSH1 0x0 DUP1 REVERT JUMPDEST POP PUSH2 0x7D0 PUSH1 0x4 DUP1 CALLDATASIZE SUB DUP2 ADD SWAP1 PUSH2 0x7CB SWAP2 SWAP1 PUSH2 0x35CC JUMP JUMPDEST PUSH2 0x18F0 JUMP JUMPDEST STOP JUMPDEST CALLVALUE DUP1 ISZERO PUSH2 0x7DE JUMPI PUSH1 0x0 DUP1 REVERT JUMPDEST POP PUSH2 0x7F9 PUSH1 0x4 DUP1 CALLDATASIZE SUB DUP2 ADD SWAP1 PUSH2 0x7F4 SWAP2 SWAP1 PUSH2 0x38F5 JUMP JUMPDEST PUSH2 0x199A JUMP JUMPDEST STOP JUMPDEST CALLVALUE DUP1 ISZERO PUSH2 0x807 JUMPI PUSH1 0x0 DUP1 REVERT JUMPDEST POP PUSH2 0x822 PUSH1 0x4 DUP1 CALLDATASIZE SUB DUP2 ADD SWAP1 PUSH2 0x81D SWAP2 SWAP1 PUSH2 0x3556 JUMP JUMPDEST PUSH2 0x1A33 JUMP JUMPDEST PUSH1 0x40 MLOAD PUSH2 0x82F SWAP2 SWAP1 PUSH2 0x35B1 JUMP JUMPDEST PUSH1 0x40 MLOAD DUP1 SWAP2 SUB SWAP1 RETURN JUMPDEST CALLVALUE DUP1 ISZERO PUSH2 0x844 JUMPI PUSH1 0x0 DUP1 REVERT JUMPDEST POP PUSH2 0x85F PUSH1 0x4 DUP1 CALLDATASIZE SUB DUP2 ADD SWAP1 PUSH2 0x85A SWAP2 SWAP1 PUSH2 0x3556 JUMP JUMPDEST PUSH2 0x1B00 JUMP JUMPDEST PUSH1 0x40 MLOAD PUSH2 0x86C SWAP2 SWAP1 PUSH2 0x35B1 JUMP JUMPDEST PUSH1 0x40 MLOAD DUP1 SWAP2 SUB SWAP1 RETURN JUMPDEST CALLVALUE DUP1 ISZERO PUSH2 0x881 JUMPI PUSH1 0x0 DUP1 REVERT JUMPDEST POP PUSH2 0x89C PUSH1 0x4 DUP1 CALLDATASIZE SUB DUP2 ADD SWAP1 PUSH2 0x897 SWAP2 SWAP1 PUSH2 0x38F5 JUMP JUMPDEST PUSH2 0x1B1E JUMP JUMPDEST STOP JUMPDEST CALLVALUE DUP1 ISZERO PUSH2 0x8AA JUMPI PUSH1 0x0 DUP1 REVERT JUMPDEST POP PUSH2 0x8B3 PUSH2 0x1BB7 JUMP JUMPDEST PUSH1 0x40 MLOAD PUSH2 0x8C0 SWAP2 SWAP1 PUSH2 0x35B1 JUMP JUMPDEST PUSH1 0x40 MLOAD DUP1 SWAP2 SUB SWAP1 RETURN JUMPDEST CALLVALUE DUP1 ISZERO PUSH2 0x8D5 JUMPI PUSH1 0x0 DUP1 REVERT JUMPDEST POP PUSH2 0x8F0 PUSH1 0x4 DUP1 CALLDATASIZE SUB DUP2 ADD SWAP1 PUSH2 0x8EB SWAP2 SWAP1 PUSH2 0x35CC JUMP JUMPDEST PUSH2 0x1BCA JUMP JUMPDEST STOP JUMPDEST CALLVALUE DUP1 ISZERO PUSH2 0x8FE JUMPI PUSH1 0x0 DUP1 REVERT JUMPDEST POP PUSH2 0x907 PUSH2 0x1C95 JUMP JUMPDEST PUSH1 0x40 MLOAD PUSH2 0x914 SWAP2 SWAP1 PUSH2 0x35B1 JUMP JUMPDEST PUSH1 0x40 MLOAD DUP1 SWAP2 SUB SWAP1 RETURN JUMPDEST CALLVALUE DUP1 ISZERO PUSH2 0x929 JUMPI PUSH1 0x0 DUP1 REVERT JUMPDEST POP PUSH2 0x944 PUSH1 0x4 DUP1 CALLDATASIZE SUB DUP2 ADD SWAP1 PUSH2 0x93F SWAP2 SWAP1 PUSH2 0x35CC JUMP JUMPDEST PUSH2 0x1CA8 JUMP JUMPDEST STOP JUMPDEST CALLVALUE DUP1 ISZERO PUSH2 0x952 JUMPI PUSH1 0x0 DUP1 REVERT JUMPDEST POP PUSH2 0x96D PUSH1 0x4 DUP1 CALLDATASIZE SUB DUP2 ADD SWAP1 PUSH2 0x968 SWAP2 SWAP1 PUSH2 0x3922 JUMP JUMPDEST PUSH2 0x1DB9 JUMP JUMPDEST PUSH1 0x40 MLOAD PUSH2 0x97A SWAP2 SWAP1 PUSH2 0x3682 JUMP JUMPDEST PUSH1 0x40 MLOAD DUP1 SWAP2 SUB SWAP1 RETURN JUMPDEST CALLVALUE DUP1 ISZERO PUSH2 0x98F JUMPI PUSH1 0x0 DUP1 REVERT JUMPDEST POP PUSH2 0x9AA PUSH1 0x4 DUP1 CALLDATASIZE SUB DUP2 ADD SWAP1 PUSH2 0x9A5 SWAP2 SWAP1 PUSH2 0x374F JUMP JUMPDEST PUSH2 0x1E40 JUMP JUMPDEST STOP JUMPDEST CALLVALUE DUP1 ISZERO PUSH2 0x9B8 JUMPI PUSH1 0x0 DUP1 REVERT JUMPDEST POP PUSH2 0x9D3 PUSH1 0x4 DUP1 CALLDATASIZE SUB DUP2 ADD SWAP1 PUSH2 0x9CE SWAP2 SWAP1 PUSH2 0x374F JUMP JUMPDEST PUSH2 0x1F86 JUMP JUMPDEST STOP JUMPDEST CALLVALUE DUP1 ISZERO PUSH2 0x9E1 JUMPI PUSH1 0x0 DUP1 REVERT JUMPDEST POP PUSH2 0x9FC PUSH1 0x4 DUP1 CALLDATASIZE SUB DUP2 ADD SWAP1 PUSH2 0x9F7 SWAP2 SWAP1 PUSH2 0x39A0 JUMP JUMPDEST PUSH2 0x212E JUMP JUMPDEST STOP JUMPDEST CALLVALUE DUP1 ISZERO PUSH2 0xA0A JUMPI PUSH1 0x0 DUP1 REVERT JUMPDEST POP PUSH2 0xA25 PUSH1 0x4 DUP1 CALLDATASIZE SUB DUP2 ADD SWAP1 PUSH2 0xA20 SWAP2 SWAP1 PUSH2 0x38F5 JUMP JUMPDEST PUSH2 0x22D7 JUMP JUMPDEST STOP JUMPDEST PUSH1 0x60 PUSH1 0x40 MLOAD DUP1 PUSH1 0x40 ADD PUSH1 0x40 MSTORE DUP1 PUSH1 0x5 DUP2 MSTORE PUSH1 0x20 ADD PUSH32 0x584F444558000000000000000000000000000000000000000000000000000000 DUP2 MSTORE POP SWAP1 POP SWAP1 JUMP JUMPDEST PUSH1 0x0 PUSH2 0xA78 PUSH2 0xA71 PUSH2 0x23D3 JUMP JUMPDEST DUP5 DUP5 PUSH2 0x23DB JUMP JUMPDEST PUSH1 0x1 SWAP1 POP SWAP3 SWAP2 POP POP JUMP JUMPDEST PUSH2 0xA8A PUSH2 0x23D3 JUMP JUMPDEST PUSH20 0xFFFFFFFFFFFFFFFFFFFFFFFFFFFFFFFFFFFFFFFF AND PUSH2 0xAA8 PUSH2 0x188A JUMP JUMPDEST PUSH20 0xFFFFFFFFFFFFFFFFFFFFFFFFFFFFFFFFFFFFFFFF AND EQ PUSH2 0xAFE JUMPI PUSH1 0x40 MLOAD PUSH32 0x8C379A000000000000000000000000000000000000000000000000000000000 DUP2 MSTORE PUSH1 0x4 ADD PUSH2 0xAF5 SWAP1 PUSH2 0x3A19 JUMP JUMPDEST PUSH1 0x40 MLOAD DUP1 SWAP2 SUB SWAP1 REVERT JUMPDEST PUSH1 0x0 DUP2 GT PUSH2 0xB41 JUMPI PUSH1 0x40 MLOAD PUSH32 0x8C379A000000000000000000000000000000000000000000000000000000000 DUP2 MSTORE PUSH1 0x4 ADD PUSH2 0xB38 SWAP1 PUSH2 0x3A85 JUMP JUMPDEST PUSH1 0x40 MLOAD DUP1 SWAP2 SUB SWAP1 REVERT JUMPDEST PUSH2 0x2710 DUP2 PUSH12 0x204FCE5E3E25026110000000 PUSH2 0xB5C SWAP2 SWAP1 PUSH2 0x3AD4 JUMP JUMPDEST PUSH2 0xB66 SWAP2 SWAP1 PUSH2 0x3B45 JUMP JUMPDEST PUSH1 0x9 DUP2 SWAP1 SSTORE POP POP JUMP JUMPDEST PUSH1 0xF PUSH1 0x1 SWAP1 SLOAD SWAP1 PUSH2 0x100 EXP SWAP1 DIV PUSH20 0xFFFFFFFFFFFFFFFFFFFFFFFFFFFFFFFFFFFFFFFF AND DUP2 JUMP JUMPDEST PUSH1 0x0 PUSH12 0x204FCE5E3E25026110000000 SWAP1 POP SWAP1 JUMP JUMPDEST PUSH2 0xBB1 PUSH2 0x23D3 JUMP JUMPDEST PUSH20 0xFFFFFFFFFFFFFFFFFFFFFFFFFFFFFFFFFFFFFFFF AND PUSH2 0xBCF PUSH2 0x188A JUMP JUMPDEST PUSH20 0xFFFFFFFFFFFFFFFFFFFFFFFFFFFFFFFFFFFFFFFF AND EQ PUSH2 0xC25 JUMPI PUSH1 0x40 MLOAD PUSH32 0x8C379A000000000000000000000000000000000000000000000000000000000 DUP2 MSTORE PUSH1 0x4 ADD PUSH2 0xC1C SWAP1 PUSH2 0x3A19 JUMP JUMPDEST PUSH1 0x40 MLOAD DUP1 SWAP2 SUB SWAP1 REVERT JUMPDEST PUSH1 0x0 DUP1 PUSH1 0x0 JUMPDEST DUP5 DUP5 SWAP1 POP DUP2 LT ISZERO PUSH2 0xD59 JUMPI GAS DUP3 LT ISZERO PUSH2 0xD48 JUMPI GAS SWAP3 POP PUSH1 0x4 PUSH1 0x0 DUP7 DUP7 DUP5 DUP2 DUP2 LT PUSH2 0xC58 JUMPI PUSH2 0xC57 PUSH2 0x3B76 JUMP JUMPDEST JUMPDEST SWAP1 POP PUSH1 0x20 MUL ADD PUSH1 0x20 DUP2 ADD SWAP1 PUSH2 0xC6D SWAP2 SWAP1 PUSH2 0x374F JUMP JUMPDEST PUSH20 0xFFFFFFFFFFFFFFFFFFFFFFFFFFFFFFFFFFFFFFFF AND PUSH20 0xFFFFFFFFFFFFFFFFFFFFFFFFFFFFFFFFFFFFFFFF AND DUP2 MSTORE PUSH1 0x20 ADD SWAP1 DUP2 MSTORE PUSH1 0x20 ADD PUSH1 0x0 KECCAK256 PUSH1 0x0 SWAP1 SLOAD SWAP1 PUSH2 0x100 EXP SWAP1 DIV PUSH1 0xFF AND PUSH2 0xD39 JUMPI PUSH1 0x1 PUSH1 0x4 PUSH1 0x0 DUP8 DUP8 DUP6 DUP2 DUP2 LT PUSH2 0xCD2 JUMPI PUSH2 0xCD1 PUSH2 0x3B76 JUMP JUMPDEST JUMPDEST SWAP1 POP PUSH1 0x20 MUL ADD PUSH1 0x20 DUP2 ADD SWAP1 PUSH2 0xCE7 SWAP2 SWAP1 PUSH2 0x374F JUMP JUMPDEST PUSH20 0xFFFFFFFFFFFFFFFFFFFFFFFFFFFFFFFFFFFFFFFF AND PUSH20 0xFFFFFFFFFFFFFFFFFFFFFFFFFFFFFFFFFFFFFFFF AND DUP2 MSTORE PUSH1 0x20 ADD SWAP1 DUP2 MSTORE PUSH1 0x20 ADD PUSH1 0x0 KECCAK256 PUSH1 0x0 PUSH2 0x100 EXP DUP2 SLOAD DUP2 PUSH1 0xFF MUL NOT AND SWAP1 DUP4 ISZERO ISZERO MUL OR SWAP1 SSTORE POP JUMPDEST GAS DUP4 PUSH2 0xD45 SWAP2 SWAP1 PUSH2 0x3BA5 JUMP JUMPDEST SWAP2 POP JUMPDEST DUP1 PUSH2 0xD52 SWAP1 PUSH2 0x3BD9 JUMP JUMPDEST SWAP1 POP PUSH2 0xC2B JUMP JUMPDEST POP POP POP POP POP JUMP JUMPDEST PUSH1 0x4 PUSH1 0x20 MSTORE DUP1 PUSH1 0x0 MSTORE PUSH1 0x40 PUSH1 0x0 KECCAK256 PUSH1 0x0 SWAP2 POP SLOAD SWAP1 PUSH2 0x100 EXP SWAP1 DIV PUSH1 0xFF AND DUP2 JUMP JUMPDEST PUSH1 0x0 PUSH2 0xD8D DUP5 DUP5 DUP5 PUSH2 0x256F JUMP JUMPDEST PUSH2 0xE4E DUP5 PUSH2 0xD99 PUSH2 0x23D3 JUMP JUMPDEST PUSH2 0xE49 DUP6 PUSH1 0x40 MLOAD DUP1 PUSH1 0x60 ADD PUSH1 0x40 MSTORE DUP1 PUSH1 0x28 DUP2 MSTORE PUSH1 0x20 ADD PUSH2 0x440C PUSH1 0x28 SWAP2 CODECOPY PUSH1 0x2 PUSH1 0x0 DUP12 PUSH20 0xFFFFFFFFFFFFFFFFFFFFFFFFFFFFFFFFFFFFFFFF AND PUSH20 0xFFFFFFFFFFFFFFFFFFFFFFFFFFFFFFFFFFFFFFFF AND DUP2 MSTORE PUSH1 0x20 ADD SWAP1 DUP2 MSTORE PUSH1 0x20 ADD PUSH1 0x0 KECCAK256 PUSH1 0x0 PUSH2 0xDFF PUSH2 0x23D3 JUMP JUMPDEST PUSH20 0xFFFFFFFFFFFFFFFFFFFFFFFFFFFFFFFFFFFFFFFF AND PUSH20 0xFFFFFFFFFFFFFFFFFFFFFFFFFFFFFFFFFFFFFFFF AND DUP2 MSTORE PUSH1 0x20 ADD SWAP1 DUP2 MSTORE PUSH1 0x20 ADD PUSH1 0x0 KECCAK256 SLOAD PUSH2 0x2D71 SWAP1 SWAP3 SWAP2 SWAP1 PUSH4 0xFFFFFFFF AND JUMP JUMPDEST PUSH2 0x23DB JUMP JUMPDEST PUSH1 0x1 SWAP1 POP SWAP4 SWAP3 POP POP POP JUMP JUMPDEST PUSH1 0x5 PUSH1 0x0 SWAP1 SLOAD SWAP1 PUSH2 0x100 EXP SWAP1 DIV PUSH1 0xFF AND DUP2 JUMP JUMPDEST PUSH1 0xE SLOAD DUP2 JUMP JUMPDEST PUSH1 0x0 PUSH2 0xE7C PUSH2 0x23D3 JUMP JUMPDEST PUSH20 0xFFFFFFFFFFFFFFFFFFFFFFFFFFFFFFFFFFFFFFFF AND PUSH2 0xE9A PUSH2 0x188A JUMP JUMPDEST PUSH20 0xFFFFFFFFFFFFFFFFFFFFFFFFFFFFFFFFFFFFFFFF AND EQ PUSH2 0xEF0 JUMPI PUSH1 0x40 MLOAD PUSH32 0x8C379A000000000000000000000000000000000000000000000000000000000 DUP2 MSTORE PUSH1 0x4 ADD PUSH2 0xEE7 SWAP1 PUSH2 0x3A19 JUMP JUMPDEST PUSH1 0x40 MLOAD DUP1 SWAP2 SUB SWAP1 REVERT JUMPDEST PUSH1 0x0 PUSH20 0xFFFFFFFFFFFFFFFFFFFFFFFFFFFFFFFFFFFFFFFF AND DUP5 PUSH20 0xFFFFFFFFFFFFFFFFFFFFFFFFFFFFFFFFFFFFFFFF AND EQ ISZERO DUP1 ISZERO PUSH2 0xF5A JUMPI POP PUSH1 0x0 PUSH20 0xFFFFFFFFFFFFFFFFFFFFFFFFFFFFFFFFFFFFFFFF AND DUP4 PUSH20 0xFFFFFFFFFFFFFFFFFFFFFFFFFFFFFFFFFFFFFFFF AND EQ ISZERO JUMPDEST PUSH2 0xF99 JUMPI PUSH1 0x40 MLOAD PUSH32 0x8C379A000000000000000000000000000000000000000000000000000000000 DUP2 MSTORE PUSH1 0x4 ADD PUSH2 0xF90 SWAP1 PUSH2 0x3C6D JUMP JUMPDEST PUSH1 0x40 MLOAD DUP1 SWAP2 SUB SWAP1 REVERT JUMPDEST ADDRESS PUSH20 0xFFFFFFFFFFFFFFFFFFFFFFFFFFFFFFFFFFFFFFFF AND DUP5 PUSH20 0xFFFFFFFFFFFFFFFFFFFFFFFFFFFFFFFFFFFFFFFF AND SUB PUSH2 0x1007 JUMPI PUSH1 0x40 MLOAD PUSH32 0x8C379A000000000000000000000000000000000000000000000000000000000 DUP2 MSTORE PUSH1 0x4 ADD PUSH2 0xFFE SWAP1 PUSH2 0x3CD9 JUMP JUMPDEST PUSH1 0x40 MLOAD DUP1 SWAP2 SUB SWAP1 REVERT JUMPDEST PUSH1 0x0 DUP5 PUSH20 0xFFFFFFFFFFFFFFFFFFFFFFFFFFFFFFFFFFFFFFFF AND PUSH4 0x70A08231 ADDRESS PUSH1 0x40 MLOAD DUP3 PUSH4 0xFFFFFFFF AND PUSH1 0xE0 SHL DUP2 MSTORE PUSH1 0x4 ADD PUSH2 0x1042 SWAP2 SWAP1 PUSH2 0x3815 JUMP JUMPDEST PUSH1 0x20 PUSH1 0x40 MLOAD DUP1 DUP4 SUB DUP2 DUP7 GAS STATICCALL ISZERO DUP1 ISZERO PUSH2 0x105F JUMPI RETURNDATASIZE PUSH1 0x0 DUP1 RETURNDATACOPY RETURNDATASIZE PUSH1 0x0 REVERT JUMPDEST POP POP POP POP PUSH1 0x40 MLOAD RETURNDATASIZE PUSH1 0x1F NOT PUSH1 0x1F DUP3 ADD AND DUP3 ADD DUP1 PUSH1 0x40 MSTORE POP DUP2 ADD SWAP1 PUSH2 0x1083 SWAP2 SWAP1 PUSH2 0x3D0E JUMP JUMPDEST SWAP1 POP DUP1 DUP4 GT ISZERO PUSH2 0x1091 JUMPI DUP1 SWAP3 POP JUMPDEST DUP5 PUSH20 0xFFFFFFFFFFFFFFFFFFFFFFFFFFFFFFFFFFFFFFFF AND PUSH4 0xA9059CBB DUP6 DUP6 PUSH1 0x40 MLOAD DUP4 PUSH4 0xFFFFFFFF AND PUSH1 0xE0 SHL DUP2 MSTORE PUSH1 0x4 ADD PUSH2 0x10CC SWAP3 SWAP2 SWAP1 PUSH2 0x3D3B JUMP JUMPDEST PUSH1 0x20 PUSH1 0x40 MLOAD DUP1 DUP4 SUB DUP2 PUSH1 0x0 DUP8 GAS CALL ISZERO DUP1 ISZERO PUSH2 0x10EB JUMPI RETURNDATASIZE PUSH1 0x0 DUP1 RETURNDATACOPY RETURNDATASIZE PUSH1 0x0 REVERT JUMPDEST POP POP POP POP PUSH1 0x40 MLOAD RETURNDATASIZE PUSH1 0x1F NOT PUSH1 0x1F DUP3 ADD AND DUP3 ADD DUP1 PUSH1 0x40 MSTORE POP DUP2 ADD SWAP1 PUSH2 0x110F SWAP2 SWAP1 PUSH2 0x3D79 JUMP JUMPDEST SWAP2 POP POP SWAP4 SWAP3 POP POP POP JUMP JUMPDEST PUSH1 0x0 PUSH1 0x12 SWAP1 POP SWAP1 JUMP JUMPDEST PUSH1 0x0 PUSH2 0x11CB PUSH2 0x112F PUSH2 0x23D3 JUMP JUMPDEST DUP5 PUSH2 0x11C6 DUP6 PUSH1 0x2 PUSH1 0x0 PUSH2 0x1140 PUSH2 0x23D3 JUMP JUMPDEST PUSH20 0xFFFFFFFFFFFFFFFFFFFFFFFFFFFFFFFFFFFFFFFF AND PUSH20 0xFFFFFFFFFFFFFFFFFFFFFFFFFFFFFFFFFFFFFFFF AND DUP2 MSTORE PUSH1 0x20 ADD SWAP1 DUP2 MSTORE PUSH1 0x20 ADD PUSH1 0x0 KECCAK256 PUSH1 0x0 DUP10 PUSH20 0xFFFFFFFFFFFFFFFFFFFFFFFFFFFFFFFFFFFFFFFF AND PUSH20 0xFFFFFFFFFFFFFFFFFFFFFFFFFFFFFFFFFFFFFFFF AND DUP2 MSTORE PUSH1 0x20 ADD SWAP1 DUP2 MSTORE PUSH1 0x20 ADD PUSH1 0x0 KECCAK256 SLOAD PUSH2 0x2DC6 SWAP1 SWAP2 SWAP1 PUSH4 0xFFFFFFFF AND JUMP JUMPDEST PUSH2 0x23DB JUMP JUMPDEST PUSH1 0x1 SWAP1 POP SWAP3 SWAP2 POP POP JUMP JUMPDEST PUSH2 0x11DD PUSH2 0x23D3 JUMP JUMPDEST PUSH20 0xFFFFFFFFFFFFFFFFFFFFFFFFFFFFFFFFFFFFFFFF AND PUSH2 0x11FB PUSH2 0x188A JUMP JUMPDEST PUSH20 0xFFFFFFFFFFFFFFFFFFFFFFFFFFFFFFFFFFFFFFFF AND EQ PUSH2 0x1251 JUMPI PUSH1 0x40 MLOAD PUSH32 0x8C379A000000000000000000000000000000000000000000000000000000000 DUP2 MSTORE PUSH1 0x4 ADD PUSH2 0x1248 SWAP1 PUSH2 0x3A19 JUMP JUMPDEST PUSH1 0x40 MLOAD DUP1 SWAP2 SUB SWAP1 REVERT JUMPDEST PUSH1 0x0 DUP1 PUSH1 0x0 JUMPDEST DUP5 DUP5 SWAP1 POP DUP2 LT ISZERO PUSH2 0x1386 JUMPI GAS DUP3 LT ISZERO PUSH2 0x1375 JUMPI GAS SWAP3 POP PUSH1 0x4 PUSH1 0x0 DUP7 DUP7 DUP5 DUP2 DUP2 LT PUSH2 0x1284 JUMPI PUSH2 0x1283 PUSH2 0x3B76 JUMP JUMPDEST JUMPDEST SWAP1 POP PUSH1 0x20 MUL ADD PUSH1 0x20 DUP2 ADD SWAP1 PUSH2 0x1299 SWAP2 SWAP1 PUSH2 0x374F JUMP JUMPDEST PUSH20 0xFFFFFFFFFFFFFFFFFFFFFFFFFFFFFFFFFFFFFFFF AND PUSH20 0xFFFFFFFFFFFFFFFFFFFFFFFFFFFFFFFFFFFFFFFF AND DUP2 MSTORE PUSH1 0x20 ADD SWAP1 DUP2 MSTORE PUSH1 0x20 ADD PUSH1 0x0 KECCAK256 PUSH1 0x0 SWAP1 SLOAD SWAP1 PUSH2 0x100 EXP SWAP1 DIV PUSH1 0xFF AND ISZERO PUSH2 0x1366 JUMPI PUSH1 0x0 PUSH1 0x4 PUSH1 0x0 DUP8 DUP8 DUP6 DUP2 DUP2 LT PUSH2 0x12FF JUMPI PUSH2 0x12FE PUSH2 0x3B76 JUMP JUMPDEST JUMPDEST SWAP1 POP PUSH1 0x20 MUL ADD PUSH1 0x20 DUP2 ADD SWAP1 PUSH2 0x1314 SWAP2 SWAP1 PUSH2 0x374F JUMP JUMPDEST PUSH20 0xFFFFFFFFFFFFFFFFFFFFFFFFFFFFFFFFFFFFFFFF AND PUSH20 0xFFFFFFFFFFFFFFFFFFFFFFFFFFFFFFFFFFFFFFFF AND DUP2 MSTORE PUSH1 0x20 ADD SWAP1 DUP2 MSTORE PUSH1 0x20 ADD PUSH1 0x0 KECCAK256 PUSH1 0x0 PUSH2 0x100 EXP DUP2 SLOAD DUP2 PUSH1 0xFF MUL NOT AND SWAP1 DUP4 ISZERO ISZERO MUL OR SWAP1 SSTORE POP JUMPDEST GAS DUP4 PUSH2 0x1372 SWAP2 SWAP1 PUSH2 0x3BA5 JUMP JUMPDEST SWAP2 POP JUMPDEST DUP1 PUSH2 0x137F SWAP1 PUSH2 0x3BD9 JUMP JUMPDEST SWAP1 POP PUSH2 0x1257 JUMP JUMPDEST POP POP POP POP POP JUMP JUMPDEST PUSH1 0xC SLOAD DUP2 JUMP JUMPDEST PUSH2 0x139B PUSH2 0x23D3 JUMP JUMPDEST PUSH20 0xFFFFFFFFFFFFFFFFFFFFFFFFFFFFFFFFFFFFFFFF AND PUSH2 0x13B9 PUSH2 0x188A JUMP JUMPDEST PUSH20 0xFFFFFFFFFFFFFFFFFFFFFFFFFFFFFFFFFFFFFFFF AND EQ PUSH2 0x140F JUMPI PUSH1 0x40 MLOAD PUSH32 0x8C379A000000000000000000000000000000000000000000000000000000000 DUP2 MSTORE PUSH1 0x4 ADD PUSH2 0x1406 SWAP1 PUSH2 0x3A19 JUMP JUMPDEST PUSH1 0x40 MLOAD DUP1 SWAP2 SUB SWAP1 REVERT JUMPDEST PUSH1 0x0 PUSH20 0xFFFFFFFFFFFFFFFFFFFFFFFFFFFFFFFFFFFFFFFF AND DUP2 PUSH20 0xFFFFFFFFFFFFFFFFFFFFFFFFFFFFFFFFFFFFFFFF AND SUB PUSH2 0x147E JUMPI PUSH1 0x40 MLOAD PUSH32 0x8C379A000000000000000000000000000000000000000000000000000000000 DUP2 MSTORE PUSH1 0x4 ADD PUSH2 0x1475 SWAP1 PUSH2 0x3C6D JUMP JUMPDEST PUSH1 0x40 MLOAD DUP1 SWAP2 SUB SWAP1 REVERT JUMPDEST PUSH1 0x1 PUSH1 0x3 PUSH1 0x0 DUP4 PUSH20 0xFFFFFFFFFFFFFFFFFFFFFFFFFFFFFFFFFFFFFFFF AND PUSH20 0xFFFFFFFFFFFFFFFFFFFFFFFFFFFFFFFFFFFFFFFF AND DUP2 MSTORE PUSH1 0x20 ADD SWAP1 DUP2 MSTORE PUSH1 0x20 ADD PUSH1 0x0 KECCAK256 PUSH1 0x0 PUSH2 0x100 EXP DUP2 SLOAD DUP2 PUSH1 0xFF MUL NOT AND SWAP1 DUP4 ISZERO ISZERO MUL OR SWAP1 SSTORE POP POP JUMP JUMPDEST PUSH1 0xB SLOAD DUP2 JUMP JUMPDEST PUSH1 0x10 PUSH1 0x0 SWAP1 SLOAD SWAP1 PUSH2 0x100 EXP SWAP1 DIV PUSH20 0xFFFFFFFFFFFFFFFFFFFFFFFFFFFFFFFFFFFFFFFF AND DUP2 JUMP JUMPDEST PUSH1 0x7 SLOAD DUP2 JUMP JUMPDEST PUSH1 0xD SLOAD DUP2 JUMP JUMPDEST PUSH2 0x1519 PUSH2 0x23D3 JUMP JUMPDEST PUSH20 0xFFFFFFFFFFFFFFFFFFFFFFFFFFFFFFFFFFFFFFFF AND PUSH2 0x1537 PUSH2 0x188A JUMP JUMPDEST PUSH20 0xFFFFFFFFFFFFFFFFFFFFFFFFFFFFFFFFFFFFFFFF AND EQ PUSH2 0x158D JUMPI PUSH1 0x40 MLOAD PUSH32 0x8C379A000000000000000000000000000000000000000000000000000000000 DUP2 MSTORE PUSH1 0x4 ADD PUSH2 0x1584 SWAP1 PUSH2 0x3A19 JUMP JUMPDEST PUSH1 0x40 MLOAD DUP1 SWAP2 SUB SWAP1 REVERT JUMPDEST PUSH1 0x19 DUP2 DUP4 PUSH2 0x159B SWAP2 SWAP1 PUSH2 0x3DA6 JUMP JUMPDEST GT ISZERO PUSH2 0x15DC JUMPI PUSH1 0x40 MLOAD PUSH32 0x8C379A000000000000000000000000000000000000000000000000000000000 DUP2 MSTORE PUSH1 0x4 ADD PUSH2 0x15D3 SWAP1 PUSH2 0x3E26 JUMP JUMPDEST PUSH1 0x40 MLOAD DUP1 SWAP2 SUB SWAP1 REVERT JUMPDEST DUP1 PUSH1 0xD DUP2 SWAP1 SSTORE POP DUP2 PUSH1 0xC DUP2 SWAP1 SSTORE POP POP POP JUMP JUMPDEST PUSH1 0x0 PUSH1 0x1 PUSH1 0x0 DUP4 PUSH20 0xFFFFFFFFFFFFFFFFFFFFFFFFFFFFFFFFFFFFFFFF AND PUSH20 0xFFFFFFFFFFFFFFFFFFFFFFFFFFFFFFFFFFFFFFFF AND DUP2 MSTORE PUSH1 0x20 ADD SWAP1 DUP2 MSTORE PUSH1 0x20 ADD PUSH1 0x0 KECCAK256 SLOAD SWAP1 POP SWAP2 SWAP1 POP JUMP JUMPDEST PUSH2 0x163F PUSH2 0x23D3 JUMP JUMPDEST PUSH20 0xFFFFFFFFFFFFFFFFFFFFFFFFFFFFFFFFFFFFFFFF AND PUSH2 0x165D PUSH2 0x188A JUMP JUMPDEST PUSH20 0xFFFFFFFFFFFFFFFFFFFFFFFFFFFFFFFFFFFFFFFF AND EQ PUSH2 0x16B3 JUMPI PUSH1 0x40 MLOAD PUSH32 0x8C379A000000000000000000000000000000000000000000000000000000000 DUP2 MSTORE PUSH1 0x4 ADD PUSH2 0x16AA SWAP1 PUSH2 0x3A19 JUMP JUMPDEST PUSH1 0x40 MLOAD DUP1 SWAP2 SUB SWAP1 REVERT JUMPDEST PUSH1 0x0 PUSH20 0xFFFFFFFFFFFFFFFFFFFFFFFFFFFFFFFFFFFFFFFF AND PUSH1 0x0 DUP1 SLOAD SWAP1 PUSH2 0x100 EXP SWAP1 DIV PUSH20 0xFFFFFFFFFFFFFFFFFFFFFFFFFFFFFFFFFFFFFFFF AND PUSH20 0xFFFFFFFFFFFFFFFFFFFFFFFFFFFFFFFFFFFFFFFF AND PUSH32 0x8BE0079C531659141344CD1FD0A4F28419497F9722A3DAAFE3B4186F6B6457E0 PUSH1 0x40 MLOAD PUSH1 0x40 MLOAD DUP1 SWAP2 SUB SWAP1 LOG3 PUSH1 0x0 DUP1 PUSH1 0x0 PUSH2 0x100 EXP DUP2 SLOAD DUP2 PUSH20 0xFFFFFFFFFFFFFFFFFFFFFFFFFFFFFFFFFFFFFFFF MUL NOT AND SWAP1 DUP4 PUSH20 0xFFFFFFFFFFFFFFFFFFFFFFFFFFFFFFFFFFFFFFFF AND MUL OR SWAP1 SSTORE POP JUMP JUMPDEST PUSH1 0x3 PUSH1 0x20 MSTORE DUP1 PUSH1 0x0 MSTORE PUSH1 0x40 PUSH1 0x0 KECCAK256 PUSH1 0x0 SWAP2 POP SLOAD SWAP1 PUSH2 0x100 EXP SWAP1 DIV PUSH1 0xFF AND DUP2 JUMP JUMPDEST PUSH2 0x1799 PUSH2 0x23D3 JUMP JUMPDEST PUSH20 0xFFFFFFFFFFFFFFFFFFFFFFFFFFFFFFFFFFFFFFFF AND PUSH2 0x17B7 PUSH2 0x188A JUMP JUMPDEST PUSH20 0xFFFFFFFFFFFFFFFFFFFFFFFFFFFFFFFFFFFFFFFF AND EQ PUSH2 0x180D JUMPI PUSH1 0x40 MLOAD PUSH32 0x8C379A000000000000000000000000000000000000000000000000000000000 DUP2 MSTORE PUSH1 0x4 ADD PUSH2 0x1804 SWAP1 PUSH2 0x3A19 JUMP JUMPDEST PUSH1 0x40 MLOAD DUP1 SWAP2 SUB SWAP1 REVERT JUMPDEST PUSH1 0x0 DUP2 PUSH1 0xFF AND GT PUSH2 0x1853 JUMPI PUSH1 0x40 MLOAD PUSH32 0x8C379A000000000000000000000000000000000000000000000000000000000 DUP2 MSTORE PUSH1 0x4 ADD PUSH2 0x184A SWAP1 PUSH2 0x3A85 JUMP JUMPDEST PUSH1 0x40 MLOAD DUP1 SWAP2 SUB SWAP1 REVERT JUMPDEST DUP1 PUSH1 0x5 PUSH1 0x16 PUSH2 0x100 EXP DUP2 SLOAD DUP2 PUSH1 0xFF MUL NOT AND SWAP1 DUP4 PUSH1 0xFF AND MUL OR SWAP1 SSTORE POP POP JUMP JUMPDEST PUSH1 0x9 SLOAD DUP2 JUMP JUMPDEST PUSH1 0x10 PUSH1 0x15 SWAP1 SLOAD SWAP1 PUSH2 0x100 EXP SWAP1 DIV PUSH1 0xFF AND DUP2 JUMP JUMPDEST PUSH1 0x0 DUP1 PUSH1 0x0 SWAP1 SLOAD SWAP1 PUSH2 0x100 EXP SWAP1 DIV PUSH20 0xFFFFFFFFFFFFFFFFFFFFFFFFFFFFFFFFFFFFFFFF AND SWAP1 POP SWAP1 JUMP JUMPDEST PUSH1 0x60 PUSH1 0x40 MLOAD DUP1 PUSH1 0x40 ADD PUSH1 0x40 MSTORE DUP1 PUSH1 0x5 DUP2 MSTORE PUSH1 0x20 ADD PUSH32 0x584F444558000000000000000000000000000000000000000000000000000000 DUP2 MSTORE POP SWAP1 POP SWAP1 JUMP JUMPDEST PUSH2 0x18F8 PUSH2 0x23D3 JUMP JUMPDEST PUSH20 0xFFFFFFFFFFFFFFFFFFFFFFFFFFFFFFFFFFFFFFFF AND PUSH2 0x1916 PUSH2 0x188A JUMP JUMPDEST PUSH20 0xFFFFFFFFFFFFFFFFFFFFFFFFFFFFFFFFFFFFFFFF AND EQ PUSH2 0x196C JUMPI PUSH1 0x40 MLOAD PUSH32 0x8C379A000000000000000000000000000000000000000000000000000000000 DUP2 MSTORE PUSH1 0x4 ADD PUSH2 0x1963 SWAP1 PUSH2 0x3A19 JUMP JUMPDEST PUSH1 0x40 MLOAD DUP1 SWAP2 SUB SWAP1 REVERT JUMPDEST PUSH2 0x2710 DUP2 PUSH12 0x204FCE5E3E25026110000000 PUSH2 0x1987 SWAP2 SWAP1 PUSH2 0x3AD4 JUMP JUMPDEST PUSH2 0x1991 SWAP2 SWAP1 PUSH2 0x3B45 JUMP JUMPDEST PUSH1 0x7 DUP2 SWAP1 SSTORE POP POP JUMP JUMPDEST PUSH2 0x19A2 PUSH2 0x23D3 JUMP JUMPDEST PUSH20 0xFFFFFFFFFFFFFFFFFFFFFFFFFFFFFFFFFFFFFFFF AND PUSH2 0x19C0 PUSH2 0x188A JUMP JUMPDEST PUSH20 0xFFFFFFFFFFFFFFFFFFFFFFFFFFFFFFFFFFFFFFFF AND EQ PUSH2 0x1A16 JUMPI PUSH1 0x40 MLOAD PUSH32 0x8C379A000000000000000000000000000000000000000000000000000000000 DUP2 MSTORE PUSH1 0x4 ADD PUSH2 0x1A0D SWAP1 PUSH2 0x3A19 JUMP JUMPDEST PUSH1 0x40 MLOAD DUP1 SWAP2 SUB SWAP1 REVERT JUMPDEST DUP1 PUSH1 0x5 PUSH1 0x0 PUSH2 0x100 EXP DUP2 SLOAD DUP2 PUSH1 0xFF MUL NOT AND SWAP1 DUP4 ISZERO ISZERO MUL OR SWAP1 SSTORE POP POP JUMP JUMPDEST PUSH1 0x0 PUSH2 0x1AF6 PUSH2 0x1A40 PUSH2 0x23D3 JUMP JUMPDEST DUP5 PUSH2 0x1AF1 DUP6 PUSH1 0x40 MLOAD DUP1 PUSH1 0x60 ADD PUSH1 0x40 MSTORE DUP1 PUSH1 0x25 DUP2 MSTORE PUSH1 0x20 ADD PUSH2 0x4434 PUSH1 0x25 SWAP2 CODECOPY PUSH1 0x2 PUSH1 0x0 PUSH2 0x1A6A PUSH2 0x23D3 JUMP JUMPDEST PUSH20 0xFFFFFFFFFFFFFFFFFFFFFFFFFFFFFFFFFFFFFFFF AND PUSH20 0xFFFFFFFFFFFFFFFFFFFFFFFFFFFFFFFFFFFFFFFF AND DUP2 MSTORE PUSH1 0x20 ADD SWAP1 DUP2 MSTORE PUSH1 0x20 ADD PUSH1 0x0 KECCAK256 PUSH1 0x0 DUP11 PUSH20 0xFFFFFFFFFFFFFFFFFFFFFFFFFFFFFFFFFFFFFFFF AND PUSH20 0xFFFFFFFFFFFFFFFFFFFFFFFFFFFFFFFFFFFFFFFF AND DUP2 MSTORE PUSH1 0x20 ADD SWAP1 DUP2 MSTORE PUSH1 0x20 ADD PUSH1 0x0 KECCAK256 SLOAD PUSH2 0x2D71 SWAP1 SWAP3 SWAP2 SWAP1 PUSH4 0xFFFFFFFF AND JUMP JUMPDEST PUSH2 0x23DB JUMP JUMPDEST PUSH1 0x1 SWAP1 POP SWAP3 SWAP2 POP POP JUMP JUMPDEST PUSH1 0x0 PUSH2 0x1B14 PUSH2 0x1B0D PUSH2 0x23D3 JUMP JUMPDEST DUP5 DUP5 PUSH2 0x256F JUMP JUMPDEST PUSH1 0x1 SWAP1 POP SWAP3 SWAP2 POP POP JUMP JUMPDEST PUSH2 0x1B26 PUSH2 0x23D3 JUMP JUMPDEST PUSH20 0xFFFFFFFFFFFFFFFFFFFFFFFFFFFFFFFFFFFFFFFF AND PUSH2 0x1B44 PUSH2 0x188A JUMP JUMPDEST PUSH20 0xFFFFFFFFFFFFFFFFFFFFFFFFFFFFFFFFFFFFFFFF AND EQ PUSH2 0x1B9A JUMPI PUSH1 0x40 MLOAD PUSH32 0x8C379A000000000000000000000000000000000000000000000000000000000 DUP2 MSTORE PUSH1 0x4 ADD PUSH2 0x1B91 SWAP1 PUSH2 0x3A19 JUMP JUMPDEST PUSH1 0x40 MLOAD DUP1 SWAP2 SUB SWAP1 REVERT JUMPDEST DUP1 PUSH1 0xF PUSH1 0x0 PUSH2 0x100 EXP DUP2 SLOAD DUP2 PUSH1 0xFF MUL NOT AND SWAP1 DUP4 ISZERO ISZERO MUL OR SWAP1 SSTORE POP POP JUMP JUMPDEST PUSH1 0x10 PUSH1 0x14 SWAP1 SLOAD SWAP1 PUSH2 0x100 EXP SWAP1 DIV PUSH1 0xFF AND DUP2 JUMP JUMPDEST PUSH2 0x1BD2 PUSH2 0x23D3 JUMP JUMPDEST PUSH20 0xFFFFFFFFFFFFFFFFFFFFFFFFFFFFFFFFFFFFFFFF AND PUSH2 0x1BF0 PUSH2 0x188A JUMP JUMPDEST PUSH20 0xFFFFFFFFFFFFFFFFFFFFFFFFFFFFFFFFFFFFFFFF AND EQ PUSH2 0x1C46 JUMPI PUSH1 0x40 MLOAD PUSH32 0x8C379A000000000000000000000000000000000000000000000000000000000 DUP2 MSTORE PUSH1 0x4 ADD PUSH2 0x1C3D SWAP1 PUSH2 0x3A19 JUMP JUMPDEST PUSH1 0x40 MLOAD DUP1 SWAP2 SUB SWAP1 REVERT JUMPDEST PUSH1 0x6 SLOAD DUP2 GT ISZERO PUSH2 0x1C8B JUMPI PUSH1 0x40 MLOAD PUSH32 0x8C379A000000000000000000000000000000000000000000000000000000000 DUP2 MSTORE PUSH1 0x4 ADD PUSH2 0x1C82 SWAP1 PUSH2 0x3E26 JUMP JUMPDEST PUSH1 0x40 MLOAD DUP1 SWAP2 SUB SWAP1 REVERT JUMPDEST DUP1 PUSH1 0xB DUP2 SWAP1 SSTORE POP POP JUMP JUMPDEST PUSH1 0xF PUSH1 0x0 SWAP1 SLOAD SWAP1 PUSH2 0x100 EXP SWAP1 DIV PUSH1 0xFF AND DUP2 JUMP JUMPDEST PUSH2 0x1CB0 PUSH2 0x23D3 JUMP JUMPDEST PUSH20 0xFFFFFFFFFFFFFFFFFFFFFFFFFFFFFFFFFFFFFFFF AND PUSH2 0x1CCE PUSH2 0x188A JUMP JUMPDEST PUSH20 0xFFFFFFFFFFFFFFFFFFFFFFFFFFFFFFFFFFFFFFFF AND EQ PUSH2 0x1D24 JUMPI PUSH1 0x40 MLOAD PUSH32 0x8C379A000000000000000000000000000000000000000000000000000000000 DUP2 MSTORE PUSH1 0x4 ADD PUSH2 0x1D1B SWAP1 PUSH2 0x3A19 JUMP JUMPDEST PUSH1 0x40 MLOAD DUP1 SWAP2 SUB SWAP1 REVERT JUMPDEST PUSH1 0x10 PUSH1 0x14 SWAP1 SLOAD SWAP1 PUSH2 0x100 EXP SWAP1 DIV PUSH1 0xFF AND ISZERO PUSH2 0x1D74 JUMPI PUSH1 0x40 MLOAD PUSH32 0x8C379A000000000000000000000000000000000000000000000000000000000 DUP2 MSTORE PUSH1 0x4 ADD PUSH2 0x1D6B SWAP1 PUSH2 0x3E92 JUMP JUMPDEST PUSH1 0x40 MLOAD DUP1 SWAP2 SUB SWAP1 REVERT JUMPDEST PUSH1 0x64 DUP2 GT ISZERO PUSH2 0x1D82 JUMPI PUSH1 0x64 SWAP1 POP JUMPDEST PUSH1 0x0 PUSH2 0x1D8D ADDRESS PUSH2 0x15EE JUMP JUMPDEST SWAP1 POP PUSH1 0x0 PUSH1 0x64 DUP4 DUP4 PUSH2 0x1D9F SWAP2 SWAP1 PUSH2 0x3AD4 JUMP JUMPDEST PUSH2 0x1DA9 SWAP2 SWAP1 PUSH2 0x3B45 JUMP JUMPDEST SWAP1 POP PUSH2 0x1DB4 DUP2 PUSH2 0x2DDC JUMP JUMPDEST POP POP POP JUMP JUMPDEST PUSH1 0x0 PUSH1 0x2 PUSH1 0x0 DUP5 PUSH20 0xFFFFFFFFFFFFFFFFFFFFFFFFFFFFFFFFFFFFFFFF AND PUSH20 0xFFFFFFFFFFFFFFFFFFFFFFFFFFFFFFFFFFFFFFFF AND DUP2 MSTORE PUSH1 0x20 ADD SWAP1 DUP2 MSTORE PUSH1 0x20 ADD PUSH1 0x0 KECCAK256 PUSH1 0x0 DUP4 PUSH20 0xFFFFFFFFFFFFFFFFFFFFFFFFFFFFFFFFFFFFFFFF AND PUSH20 0xFFFFFFFFFFFFFFFFFFFFFFFFFFFFFFFFFFFFFFFF AND DUP2 MSTORE PUSH1 0x20 ADD SWAP1 DUP2 MSTORE PUSH1 0x20 ADD PUSH1 0x0 KECCAK256 SLOAD SWAP1 POP SWAP3 SWAP2 POP POP JUMP JUMPDEST PUSH2 0x1E48 PUSH2 0x23D3 JUMP JUMPDEST PUSH20 0xFFFFFFFFFFFFFFFFFFFFFFFFFFFFFFFFFFFFFFFF AND PUSH2 0x1E66 PUSH2 0x188A JUMP JUMPDEST PUSH20 0xFFFFFFFFFFFFFFFFFFFFFFFFFFFFFFFFFFFFFFFF AND EQ PUSH2 0x1EBC JUMPI PUSH1 0x40 MLOAD PUSH32 0x8C379A000000000000000000000000000000000000000000000000000000000 DUP2 MSTORE PUSH1 0x4 ADD PUSH2 0x1EB3 SWAP1 PUSH2 0x3A19 JUMP JUMPDEST PUSH1 0x40 MLOAD DUP1 SWAP2 SUB SWAP1 REVERT JUMPDEST PUSH1 0x0 PUSH20 0xFFFFFFFFFFFFFFFFFFFFFFFFFFFFFFFFFFFFFFFF AND DUP2 PUSH20 0xFFFFFFFFFFFFFFFFFFFFFFFFFFFFFFFFFFFFFFFF AND SUB PUSH2 0x1F2B JUMPI PUSH1 0x40 MLOAD PUSH32 0x8C379A000000000000000000000000000000000000000000000000000000000 DUP2 MSTORE PUSH1 0x4 ADD PUSH2 0x1F22 SWAP1 PUSH2 0x3C6D JUMP JUMPDEST PUSH1 0x40 MLOAD DUP1 SWAP2 SUB SWAP1 REVERT JUMPDEST PUSH1 0x0 PUSH1 0x3 PUSH1 0x0 DUP4 PUSH20 0xFFFFFFFFFFFFFFFFFFFFFFFFFFFFFFFFFFFFFFFF AND PUSH20 0xFFFFFFFFFFFFFFFFFFFFFFFFFFFFFFFFFFFFFFFF AND DUP2 MSTORE PUSH1 0x20 ADD SWAP1 DUP2 MSTORE PUSH1 0x20 ADD PUSH1 0x0 KECCAK256 PUSH1 0x0 PUSH2 0x100 EXP DUP2 SLOAD DUP2 PUSH1 0xFF MUL NOT AND SWAP1 DUP4 ISZERO ISZERO MUL OR SWAP1 SSTORE POP POP JUMP JUMPDEST PUSH2 0x1F8E PUSH2 0x23D3 JUMP JUMPDEST PUSH20 0xFFFFFFFFFFFFFFFFFFFFFFFFFFFFFFFFFFFFFFFF AND PUSH2 0x1FAC PUSH2 0x188A JUMP JUMPDEST PUSH20 0xFFFFFFFFFFFFFFFFFFFFFFFFFFFFFFFFFFFFFFFF AND EQ PUSH2 0x2002 JUMPI PUSH1 0x40 MLOAD PUSH32 0x8C379A000000000000000000000000000000000000000000000000000000000 DUP2 MSTORE PUSH1 0x4 ADD PUSH2 0x1FF9 SWAP1 PUSH2 0x3A19 JUMP JUMPDEST PUSH1 0x40 MLOAD DUP1 SWAP2 SUB SWAP1 REVERT JUMPDEST PUSH1 0x0 PUSH20 0xFFFFFFFFFFFFFFFFFFFFFFFFFFFFFFFFFFFFFFFF AND DUP2 PUSH20 0xFFFFFFFFFFFFFFFFFFFFFFFFFFFFFFFFFFFFFFFF AND SUB PUSH2 0x2071 JUMPI PUSH1 0x40 MLOAD PUSH32 0x8C379A000000000000000000000000000000000000000000000000000000000 DUP2 MSTORE PUSH1 0x4 ADD PUSH2 0x2068 SWAP1 PUSH2 0x3F24 JUMP JUMPDEST PUSH1 0x40 MLOAD DUP1 SWAP2 SUB SWAP1 REVERT JUMPDEST DUP1 PUSH20 0xFFFFFFFFFFFFFFFFFFFFFFFFFFFFFFFFFFFFFFFF AND PUSH1 0x0 DUP1 SLOAD SWAP1 PUSH2 0x100 EXP SWAP1 DIV PUSH20 0xFFFFFFFFFFFFFFFFFFFFFFFFFFFFFFFFFFFFFFFF AND PUSH20 0xFFFFFFFFFFFFFFFFFFFFFFFFFFFFFFFFFFFFFFFF AND PUSH32 0x8BE0079C531659141344CD1FD0A4F28419497F9722A3DAAFE3B4186F6B6457E0 PUSH1 0x40 MLOAD PUSH1 0x40 MLOAD DUP1 SWAP2 SUB SWAP1 LOG3 DUP1 PUSH1 0x0 DUP1 PUSH2 0x100 EXP DUP2 SLOAD DUP2 PUSH20 0xFFFFFFFFFFFFFFFFFFFFFFFFFFFFFFFFFFFFFFFF MUL NOT AND SWAP1 DUP4 PUSH20 0xFFFFFFFFFFFFFFFFFFFFFFFFFFFFFFFFFFFFFFFF AND MUL OR SWAP1 SSTORE POP POP JUMP JUMPDEST PUSH2 0x2136 PUSH2 0x23D3 JUMP JUMPDEST PUSH20 0xFFFFFFFFFFFFFFFFFFFFFFFFFFFFFFFFFFFFFFFF AND PUSH2 0x2154 PUSH2 0x188A JUMP JUMPDEST PUSH20 0xFFFFFFFFFFFFFFFFFFFFFFFFFFFFFFFFFFFFFFFF AND EQ PUSH2 0x21AA JUMPI PUSH1 0x40 MLOAD PUSH32 0x8C379A000000000000000000000000000000000000000000000000000000000 DUP2 MSTORE PUSH1 0x4 ADD PUSH2 0x21A1 SWAP1 PUSH2 0x3A19 JUMP JUMPDEST PUSH1 0x40 MLOAD DUP1 SWAP2 SUB SWAP1 REVERT JUMPDEST PUSH1 0x0 PUSH20 0xFFFFFFFFFFFFFFFFFFFFFFFFFFFFFFFFFFFFFFFF AND DUP2 PUSH20 0xFFFFFFFFFFFFFFFFFFFFFFFFFFFFFFFFFFFFFFFF AND SUB PUSH2 0x2219 JUMPI PUSH1 0x40 MLOAD PUSH32 0x8C379A000000000000000000000000000000000000000000000000000000000 DUP2 MSTORE PUSH1 0x4 ADD PUSH2 0x2210 SWAP1 PUSH2 0x3C6D JUMP JUMPDEST PUSH1 0x40 MLOAD DUP1 SWAP2 SUB SWAP1 REVERT JUMPDEST DUP1 PUSH1 0x5 PUSH1 0x1 PUSH2 0x100 EXP DUP2 SLOAD DUP2 PUSH20 0xFFFFFFFFFFFFFFFFFFFFFFFFFFFFFFFFFFFFFFFF MUL NOT AND SWAP1 DUP4 PUSH20 0xFFFFFFFFFFFFFFFFFFFFFFFFFFFFFFFFFFFFFFFF AND MUL OR SWAP1 SSTORE POP PUSH1 0x1 PUSH1 0x3 PUSH1 0x0 PUSH1 0x5 PUSH1 0x1 SWAP1 SLOAD SWAP1 PUSH2 0x100 EXP SWAP1 DIV PUSH20 0xFFFFFFFFFFFFFFFFFFFFFFFFFFFFFFFFFFFFFFFF AND PUSH20 0xFFFFFFFFFFFFFFFFFFFFFFFFFFFFFFFFFFFFFFFF AND PUSH20 0xFFFFFFFFFFFFFFFFFFFFFFFFFFFFFFFFFFFFFFFF AND DUP2 MSTORE PUSH1 0x20 ADD SWAP1 DUP2 MSTORE PUSH1 0x20 ADD PUSH1 0x0 KECCAK256 PUSH1 0x0 PUSH2 0x100 EXP DUP2 SLOAD DUP2 PUSH1 0xFF MUL NOT AND SWAP1 DUP4 ISZERO ISZERO MUL OR SWAP1 SSTORE POP POP JUMP JUMPDEST PUSH2 0x22DF PUSH2 0x23D3 JUMP JUMPDEST PUSH20 0xFFFFFFFFFFFFFFFFFFFFFFFFFFFFFFFFFFFFFFFF AND PUSH2 0x22FD PUSH2 0x188A JUMP JUMPDEST PUSH20 0xFFFFFFFFFFFFFFFFFFFFFFFFFFFFFFFFFFFFFFFF AND EQ PUSH2 0x2353 JUMPI PUSH1 0x40 MLOAD PUSH32 0x8C379A000000000000000000000000000000000000000000000000000000000 DUP2 MSTORE PUSH1 0x4 ADD PUSH2 0x234A SWAP1 PUSH2 0x3A19 JUMP JUMPDEST PUSH1 0x40 MLOAD DUP1 SWAP2 SUB SWAP1 REVERT JUMPDEST DUP1 PUSH1 0x10 PUSH1 0x15 PUSH2 0x100 EXP DUP2 SLOAD DUP2 PUSH1 0xFF MUL NOT AND SWAP1 DUP4 ISZERO ISZERO MUL OR SWAP1 SSTORE POP PUSH32 0x53726DFCAF90650AA7EB35524F4D3220F07413C8D6CB404CC8C18BF5591BC159 DUP2 PUSH1 0x40 MLOAD PUSH2 0x239C SWAP2 SWAP1 PUSH2 0x35B1 JUMP JUMPDEST PUSH1 0x40 MLOAD DUP1 SWAP2 SUB SWAP1 LOG1 POP JUMP JUMPDEST PUSH1 0x0 DUP2 DUP4 PUSH2 0x23B5 SWAP2 SWAP1 PUSH2 0x3AD4 JUMP JUMPDEST SWAP1 POP SWAP3 SWAP2 POP POP JUMP JUMPDEST PUSH1 0x0 DUP2 DUP4 PUSH2 0x23CB SWAP2 SWAP1 PUSH2 0x3B45 JUMP JUMPDEST SWAP1 POP SWAP3 SWAP2 POP POP JUMP JUMPDEST PUSH1 0x0 CALLER SWAP1 POP SWAP1 JUMP JUMPDEST PUSH1 0x0 PUSH20 0xFFFFFFFFFFFFFFFFFFFFFFFFFFFFFFFFFFFFFFFF AND DUP4 PUSH20 0xFFFFFFFFFFFFFFFFFFFFFFFFFFFFFFFFFFFFFFFF AND EQ ISZERO DUP1 ISZERO PUSH2 0x2445 JUMPI POP PUSH1 0x0 PUSH20 0xFFFFFFFFFFFFFFFFFFFFFFFFFFFFFFFFFFFFFFFF AND DUP3 PUSH20 0xFFFFFFFFFFFFFFFFFFFFFFFFFFFFFFFFFFFFFFFF AND EQ ISZERO JUMPDEST PUSH2 0x2484 JUMPI PUSH1 0x40 MLOAD PUSH32 0x8C379A000000000000000000000000000000000000000000000000000000000 DUP2 MSTORE PUSH1 0x4 ADD PUSH2 0x247B SWAP1 PUSH2 0x3C6D JUMP JUMPDEST PUSH1 0x40 MLOAD DUP1 SWAP2 SUB SWAP1 REVERT JUMPDEST DUP1 PUSH1 0x2 PUSH1 0x0 DUP6 PUSH20 0xFFFFFFFFFFFFFFFFFFFFFFFFFFFFFFFFFFFFFFFF AND PUSH20 0xFFFFFFFFFFFFFFFFFFFFFFFFFFFFFFFFFFFFFFFF AND DUP2 MSTORE PUSH1 0x20 ADD SWAP1 DUP2 MSTORE PUSH1 0x20 ADD PUSH1 0x0 KECCAK256 PUSH1 0x0 DUP5 PUSH20 0xFFFFFFFFFFFFFFFFFFFFFFFFFFFFFFFFFFFFFFFF AND PUSH20 0xFFFFFFFFFFFFFFFFFFFFFFFFFFFFFFFFFFFFFFFF AND DUP2 MSTORE PUSH1 0x20 ADD SWAP1 DUP2 MSTORE PUSH1 0x20 ADD PUSH1 0x0 KECCAK256 DUP2 SWAP1 SSTORE POP DUP2 PUSH20 0xFFFFFFFFFFFFFFFFFFFFFFFFFFFFFFFFFFFFFFFF AND DUP4 PUSH20 0xFFFFFFFFFFFFFFFFFFFFFFFFFFFFFFFFFFFFFFFF AND PUSH32 0x8C5BE1E5EBEC7D5BD14F71427D1E84F3DD0314C0F7B2291E5B200AC8C7C3B925 DUP4 PUSH1 0x40 MLOAD PUSH2 0x2562 SWAP2 SWAP1 PUSH2 0x3682 JUMP JUMPDEST PUSH1 0x40 MLOAD DUP1 SWAP2 SUB SWAP1 LOG3 POP POP POP JUMP JUMPDEST PUSH2 0x2577 PUSH2 0x188A JUMP JUMPDEST PUSH20 0xFFFFFFFFFFFFFFFFFFFFFFFFFFFFFFFFFFFFFFFF AND DUP3 PUSH20 0xFFFFFFFFFFFFFFFFFFFFFFFFFFFFFFFFFFFFFFFF AND EQ ISZERO DUP1 ISZERO PUSH2 0x2600 JUMPI POP PUSH1 0x5 PUSH1 0x1 SWAP1 SLOAD SWAP1 PUSH2 0x100 EXP SWAP1 DIV PUSH20 0xFFFFFFFFFFFFFFFFFFFFFFFFFFFFFFFFFFFFFFFF AND PUSH20 0xFFFFFFFFFFFFFFFFFFFFFFFFFFFFFFFFFFFFFFFF AND DUP3 PUSH20 0xFFFFFFFFFFFFFFFFFFFFFFFFFFFFFFFFFFFFFFFF AND EQ ISZERO JUMPDEST DUP1 ISZERO PUSH2 0x2638 JUMPI POP ADDRESS PUSH20 0xFFFFFFFFFFFFFFFFFFFFFFFFFFFFFFFFFFFFFFFF AND DUP3 PUSH20 0xFFFFFFFFFFFFFFFFFFFFFFFFFFFFFFFFFFFFFFFF AND EQ ISZERO JUMPDEST DUP1 ISZERO PUSH2 0x2692 JUMPI POP PUSH1 0x10 PUSH1 0x0 SWAP1 SLOAD SWAP1 PUSH2 0x100 EXP SWAP1 DIV PUSH20 0xFFFFFFFFFFFFFFFFFFFFFFFFFFFFFFFFFFFFFFFF AND PUSH20 0xFFFFFFFFFFFFFFFFFFFFFFFFFFFFFFFFFFFFFFFF AND DUP3 PUSH20 0xFFFFFFFFFFFFFFFFFFFFFFFFFFFFFFFFFFFFFFFF AND EQ ISZERO JUMPDEST DUP1 ISZERO PUSH2 0x26CC JUMPI POP PUSH2 0xDEAD PUSH20 0xFFFFFFFFFFFFFFFFFFFFFFFFFFFFFFFFFFFFFFFF AND DUP3 PUSH20 0xFFFFFFFFFFFFFFFFFFFFFFFFFFFFFFFFFFFFFFFF AND EQ ISZERO JUMPDEST DUP1 ISZERO PUSH2 0x270B JUMPI POP PUSH2 0x26DB PUSH2 0x188A JUMP JUMPDEST PUSH20 0xFFFFFFFFFFFFFFFFFFFFFFFFFFFFFFFFFFFFFFFF AND DUP4 PUSH20 0xFFFFFFFFFFFFFFFFFFFFFFFFFFFFFFFFFFFFFFFF AND EQ ISZERO JUMPDEST ISZERO PUSH2 0x276F JUMPI PUSH1 0x0 PUSH2 0x271B DUP4 PUSH2 0x15EE JUMP JUMPDEST SWAP1 POP PUSH1 0x7 SLOAD DUP3 DUP3 PUSH2 0x272C SWAP2 SWAP1 PUSH2 0x3DA6 JUMP JUMPDEST GT ISZERO PUSH2 0x276D JUMPI PUSH1 0x40 MLOAD PUSH32 0x8C379A000000000000000000000000000000000000000000000000000000000 DUP2 MSTORE PUSH1 0x4 ADD PUSH2 0x2764 SWAP1 PUSH2 0x3FDC JUMP JUMPDEST PUSH1 0x40 MLOAD DUP1 SWAP2 SUB SWAP1 REVERT JUMPDEST POP JUMPDEST PUSH2 0x2777 PUSH2 0x188A JUMP JUMPDEST PUSH20 0xFFFFFFFFFFFFFFFFFFFFFFFFFFFFFFFFFFFFFFFF AND DUP4 PUSH20 0xFFFFFFFFFFFFFFFFFFFFFFFFFFFFFFFFFFFFFFFF AND EQ ISZERO DUP1 ISZERO PUSH2 0x27E5 JUMPI POP PUSH2 0x27B5 PUSH2 0x188A JUMP JUMPDEST PUSH20 0xFFFFFFFFFFFFFFFFFFFFFFFFFFFFFFFFFFFFFFFF AND DUP3 PUSH20 0xFFFFFFFFFFFFFFFFFFFFFFFFFFFFFFFFFFFFFFFF AND EQ ISZERO JUMPDEST ISZERO PUSH2 0x2830 JUMPI PUSH1 0x9 SLOAD DUP2 GT ISZERO PUSH2 0x282F JUMPI PUSH1 0x40 MLOAD PUSH32 0x8C379A000000000000000000000000000000000000000000000000000000000 DUP2 MSTORE PUSH1 0x4 ADD PUSH2 0x2826 SWAP1 PUSH2 0x406E JUMP JUMPDEST PUSH1 0x40 MLOAD DUP1 SWAP2 SUB SWAP1 REVERT JUMPDEST JUMPDEST PUSH1 0x5 PUSH1 0x0 SWAP1 SLOAD SWAP1 PUSH2 0x100 EXP SWAP1 DIV PUSH1 0xFF AND ISZERO PUSH2 0x2929 JUMPI PUSH1 0x4 PUSH1 0x0 DUP5 PUSH20 0xFFFFFFFFFFFFFFFFFFFFFFFFFFFFFFFFFFFFFFFF AND PUSH20 0xFFFFFFFFFFFFFFFFFFFFFFFFFFFFFFFFFFFFFFFF AND DUP2 MSTORE PUSH1 0x20 ADD SWAP1 DUP2 MSTORE PUSH1 0x20 ADD PUSH1 0x0 KECCAK256 PUSH1 0x0 SWAP1 SLOAD SWAP1 PUSH2 0x100 EXP SWAP1 DIV PUSH1 0xFF AND ISZERO DUP1 ISZERO PUSH2 0x28E9 JUMPI POP PUSH1 0x4 PUSH1 0x0 DUP4 PUSH20 0xFFFFFFFFFFFFFFFFFFFFFFFFFFFFFFFFFFFFFFFF AND PUSH20 0xFFFFFFFFFFFFFFFFFFFFFFFFFFFFFFFFFFFFFFFF AND DUP2 MSTORE PUSH1 0x20 ADD SWAP1 DUP2 MSTORE PUSH1 0x20 ADD PUSH1 0x0 KECCAK256 PUSH1 0x0 SWAP1 SLOAD SWAP1 PUSH2 0x100 EXP SWAP1 DIV PUSH1 0xFF AND ISZERO JUMPDEST PUSH2 0x2928 JUMPI PUSH1 0x40 MLOAD PUSH32 0x8C379A000000000000000000000000000000000000000000000000000000000 DUP2 MSTORE PUSH1 0x4 ADD PUSH2 0x291F SWAP1 PUSH2 0x4100 JUMP JUMPDEST PUSH1 0x40 MLOAD DUP1 SWAP2 SUB SWAP1 REVERT JUMPDEST JUMPDEST PUSH1 0x0 PUSH20 0xFFFFFFFFFFFFFFFFFFFFFFFFFFFFFFFFFFFFFFFF AND DUP4 PUSH20 0xFFFFFFFFFFFFFFFFFFFFFFFFFFFFFFFFFFFFFFFF AND EQ ISZERO DUP1 ISZERO PUSH2 0x2993 JUMPI POP PUSH1 0x0 PUSH20 0xFFFFFFFFFFFFFFFFFFFFFFFFFFFFFFFFFFFFFFFF AND DUP3 PUSH20 0xFFFFFFFFFFFFFFFFFFFFFFFFFFFFFFFFFFFFFFFF AND EQ ISZERO JUMPDEST PUSH2 0x29D2 JUMPI PUSH1 0x40 MLOAD PUSH32 0x8C379A000000000000000000000000000000000000000000000000000000000 DUP2 MSTORE PUSH1 0x4 ADD PUSH2 0x29C9 SWAP1 PUSH2 0x416C JUMP JUMPDEST PUSH1 0x40 MLOAD DUP1 SWAP2 SUB SWAP1 REVERT JUMPDEST PUSH1 0x0 DUP2 GT PUSH2 0x2A15 JUMPI PUSH1 0x40 MLOAD PUSH32 0x8C379A000000000000000000000000000000000000000000000000000000000 DUP2 MSTORE PUSH1 0x4 ADD PUSH2 0x2A0C SWAP1 PUSH2 0x41FE JUMP JUMPDEST PUSH1 0x40 MLOAD DUP1 SWAP2 SUB SWAP1 REVERT JUMPDEST PUSH1 0x5 PUSH1 0x16 SWAP1 SLOAD SWAP1 PUSH2 0x100 EXP SWAP1 DIV PUSH1 0xFF AND PUSH1 0xFF AND PUSH1 0x5 PUSH1 0x15 SWAP1 SLOAD SWAP1 PUSH2 0x100 EXP SWAP1 DIV PUSH1 0xFF AND PUSH1 0xFF AND LT ISZERO DUP1 ISZERO PUSH2 0x2A56 JUMPI POP PUSH1 0x10 PUSH1 0x14 SWAP1 SLOAD SWAP1 PUSH2 0x100 EXP SWAP1 DIV PUSH1 0xFF AND ISZERO JUMPDEST DUP1 ISZERO PUSH2 0x2AB0 JUMPI POP PUSH1 0x10 PUSH1 0x0 SWAP1 SLOAD SWAP1 PUSH2 0x100 EXP SWAP1 DIV PUSH20 0xFFFFFFFFFFFFFFFFFFFFFFFFFFFFFFFFFFFFFFFF AND PUSH20 0xFFFFFFFFFFFFFFFFFFFFFFFFFFFFFFFFFFFFFFFF AND DUP4 PUSH20 0xFFFFFFFFFFFFFFFFFFFFFFFFFFFFFFFFFFFFFFFF AND EQ ISZERO JUMPDEST DUP1 ISZERO PUSH2 0x2AC8 JUMPI POP PUSH1 0x10 PUSH1 0x15 SWAP1 SLOAD SWAP1 PUSH2 0x100 EXP SWAP1 DIV PUSH1 0xFF AND JUMPDEST ISZERO PUSH2 0x2B1B JUMPI PUSH1 0x0 PUSH1 0x5 PUSH1 0x15 PUSH2 0x100 EXP DUP2 SLOAD DUP2 PUSH1 0xFF MUL NOT AND SWAP1 DUP4 PUSH1 0xFF AND MUL OR SWAP1 SSTORE POP PUSH1 0x0 PUSH2 0x2AF4 ADDRESS PUSH2 0x15EE JUMP JUMPDEST SWAP1 POP PUSH1 0x9 SLOAD DUP2 GT ISZERO PUSH2 0x2B06 JUMPI PUSH1 0x9 SLOAD SWAP1 POP JUMPDEST PUSH1 0x0 DUP2 GT ISZERO PUSH2 0x2B19 JUMPI PUSH2 0x2B18 DUP2 PUSH2 0x2DDC JUMP JUMPDEST JUMPDEST POP JUMPDEST PUSH1 0x0 PUSH1 0x1 SWAP1 POP PUSH1 0x3 PUSH1 0x0 DUP6 PUSH20 0xFFFFFFFFFFFFFFFFFFFFFFFFFFFFFFFFFFFFFFFF AND PUSH20 0xFFFFFFFFFFFFFFFFFFFFFFFFFFFFFFFFFFFFFFFF AND DUP2 MSTORE PUSH1 0x20 ADD SWAP1 DUP2 MSTORE PUSH1 0x20 ADD PUSH1 0x0 KECCAK256 PUSH1 0x0 SWAP1 SLOAD SWAP1 PUSH2 0x100 EXP SWAP1 DIV PUSH1 0xFF AND DUP1 PUSH2 0x2BC2 JUMPI POP PUSH1 0x3 PUSH1 0x0 DUP5 PUSH20 0xFFFFFFFFFFFFFFFFFFFFFFFFFFFFFFFFFFFFFFFF AND PUSH20 0xFFFFFFFFFFFFFFFFFFFFFFFFFFFFFFFFFFFFFFFF AND DUP2 MSTORE PUSH1 0x20 ADD SWAP1 DUP2 MSTORE PUSH1 0x20 ADD PUSH1 0x0 KECCAK256 PUSH1 0x0 SWAP1 SLOAD SWAP1 PUSH2 0x100 EXP SWAP1 DIV PUSH1 0xFF AND JUMPDEST DUP1 PUSH2 0x2C8D JUMPI POP PUSH1 0xF PUSH1 0x0 SWAP1 SLOAD SWAP1 PUSH2 0x100 EXP SWAP1 DIV PUSH1 0xFF AND DUP1 ISZERO PUSH2 0x2C32 JUMPI POP PUSH1 0x10 PUSH1 0x0 SWAP1 SLOAD SWAP1 PUSH2 0x100 EXP SWAP1 DIV PUSH20 0xFFFFFFFFFFFFFFFFFFFFFFFFFFFFFFFFFFFFFFFF AND PUSH20 0xFFFFFFFFFFFFFFFFFFFFFFFFFFFFFFFFFFFFFFFF AND DUP5 PUSH20 0xFFFFFFFFFFFFFFFFFFFFFFFFFFFFFFFFFFFFFFFF AND EQ ISZERO JUMPDEST DUP1 ISZERO PUSH2 0x2C8C JUMPI POP PUSH1 0x10 PUSH1 0x0 SWAP1 SLOAD SWAP1 PUSH2 0x100 EXP SWAP1 DIV PUSH20 0xFFFFFFFFFFFFFFFFFFFFFFFFFFFFFFFFFFFFFFFF AND PUSH20 0xFFFFFFFFFFFFFFFFFFFFFFFFFFFFFFFFFFFFFFFF AND DUP4 PUSH20 0xFFFFFFFFFFFFFFFFFFFFFFFFFFFFFFFFFFFFFFFF AND EQ ISZERO JUMPDEST JUMPDEST ISZERO PUSH2 0x2C9B JUMPI PUSH1 0x0 SWAP1 POP PUSH2 0x2D5F JUMP JUMPDEST PUSH1 0x10 PUSH1 0x0 SWAP1 SLOAD SWAP1 PUSH2 0x100 EXP SWAP1 DIV PUSH20 0xFFFFFFFFFFFFFFFFFFFFFFFFFFFFFFFFFFFFFFFF AND PUSH20 0xFFFFFFFFFFFFFFFFFFFFFFFFFFFFFFFFFFFFFFFF AND DUP5 PUSH20 0xFFFFFFFFFFFFFFFFFFFFFFFFFFFFFFFFFFFFFFFF AND SUB PUSH2 0x2CFE JUMPI PUSH1 0xC SLOAD PUSH1 0xE DUP2 SWAP1 SSTORE POP PUSH2 0x2D5E JUMP JUMPDEST PUSH1 0x10 PUSH1 0x0 SWAP1 SLOAD SWAP1 PUSH2 0x100 EXP SWAP1 DIV PUSH20 0xFFFFFFFFFFFFFFFFFFFFFFFFFFFFFFFFFFFFFFFF AND PUSH20 0xFFFFFFFFFFFFFFFFFFFFFFFFFFFFFFFFFFFFFFFF AND DUP4 PUSH20 0xFFFFFFFFFFFFFFFFFFFFFFFFFFFFFFFFFFFFFFFF AND SUB PUSH2 0x2D5D JUMPI PUSH1 0xD SLOAD PUSH1 0xE DUP2 SWAP1 SSTORE POP JUMPDEST JUMPDEST JUMPDEST PUSH2 0x2D6B DUP5 DUP5 DUP5 DUP5 PUSH2 0x2E50 JUMP JUMPDEST POP POP POP POP JUMP JUMPDEST PUSH1 0x0 DUP4 DUP4 GT ISZERO DUP3 SWAP1 PUSH2 0x2DB9 JUMPI PUSH1 0x40 MLOAD PUSH32 0x8C379A000000000000000000000000000000000000000000000000000000000 DUP2 MSTORE PUSH1 0x4 ADD PUSH2 0x2DB0 SWAP2 SWAP1 PUSH2 0x3496 JUMP JUMPDEST PUSH1 0x40 MLOAD DUP1 SWAP2 SUB SWAP1 REVERT JUMPDEST POP DUP3 DUP5 SUB SWAP1 POP SWAP4 SWAP3 POP POP POP JUMP JUMPDEST PUSH1 0x0 DUP2 DUP4 PUSH2 0x2DD4 SWAP2 SWAP1 PUSH2 0x3DA6 JUMP JUMPDEST SWAP1 POP SWAP3 SWAP2 POP POP JUMP JUMPDEST PUSH1 0x1 PUSH1 0x10 PUSH1 0x14 PUSH2 0x100 EXP DUP2 SLOAD DUP2 PUSH1 0xFF MUL NOT AND SWAP1 DUP4 ISZERO ISZERO MUL OR SWAP1 SSTORE POP PUSH2 0x2E00 DUP2 PUSH2 0x2EB4 JUMP JUMPDEST PUSH1 0x0 SELFBALANCE SWAP1 POP PUSH2 0x2E31 PUSH1 0x5 PUSH1 0x1 SWAP1 SLOAD SWAP1 PUSH2 0x100 EXP SWAP1 DIV PUSH20 0xFFFFFFFFFFFFFFFFFFFFFFFFFFFFFFFFFFFFFFFF AND DUP3 PUSH2 0x30F7 JUMP JUMPDEST POP PUSH1 0x0 PUSH1 0x10 PUSH1 0x14 PUSH2 0x100 EXP DUP2 SLOAD DUP2 PUSH1 0xFF MUL NOT AND SWAP1 DUP4 ISZERO ISZERO MUL OR SWAP1 SSTORE POP POP JUMP JUMPDEST DUP1 PUSH2 0x2E62 JUMPI PUSH2 0x2E5D PUSH2 0x3142 JUMP JUMPDEST PUSH2 0x2E9B JUMP JUMPDEST PUSH1 0x5 PUSH1 0x15 DUP2 DUP2 SWAP1 SLOAD SWAP1 PUSH2 0x100 EXP SWAP1 DIV PUSH1 0xFF AND DUP1 SWAP3 SWAP2 SWAP1 PUSH2 0x2E81 SWAP1 PUSH2 0x421E JUMP JUMPDEST SWAP2 SWAP1 PUSH2 0x100 EXP DUP2 SLOAD DUP2 PUSH1 0xFF MUL NOT AND SWAP1 DUP4 PUSH1 0xFF AND MUL OR SWAP1 SSTORE POP POP JUMPDEST PUSH2 0x2EA6 DUP5 DUP5 DUP5 PUSH2 0x3158 JUMP JUMPDEST PUSH2 0x2EAE PUSH2 0x3393 JUMP JUMPDEST POP POP POP POP JUMP JUMPDEST PUSH1 0x0 PUSH1 0x2 PUSH8 0xFFFFFFFFFFFFFFFF DUP2 GT ISZERO PUSH2 0x2ED1 JUMPI PUSH2 0x2ED0 PUSH2 0x4247 JUMP JUMPDEST JUMPDEST PUSH1 0x40 MLOAD SWAP1 DUP1 DUP3 MSTORE DUP1 PUSH1 0x20 MUL PUSH1 0x20 ADD DUP3 ADD PUSH1 0x40 MSTORE DUP1 ISZERO PUSH2 0x2EFF JUMPI DUP2 PUSH1 0x20 ADD PUSH1 0x20 DUP3 MUL DUP1 CALLDATASIZE DUP4 CALLDATACOPY DUP1 DUP3 ADD SWAP2 POP POP SWAP1 POP JUMPDEST POP SWAP1 POP ADDRESS DUP2 PUSH1 0x0 DUP2 MLOAD DUP2 LT PUSH2 0x2F17 JUMPI PUSH2 0x2F16 PUSH2 0x3B76 JUMP JUMPDEST JUMPDEST PUSH1 0x20 MUL PUSH1 0x20 ADD ADD SWAP1 PUSH20 0xFFFFFFFFFFFFFFFFFFFFFFFFFFFFFFFFFFFFFFFF AND SWAP1 DUP2 PUSH20 0xFFFFFFFFFFFFFFFFFFFFFFFFFFFFFFFFFFFFFFFF AND DUP2 MSTORE POP POP PUSH1 0xF PUSH1 0x1 SWAP1 SLOAD SWAP1 PUSH2 0x100 EXP SWAP1 DIV PUSH20 0xFFFFFFFFFFFFFFFFFFFFFFFFFFFFFFFFFFFFFFFF AND PUSH20 0xFFFFFFFFFFFFFFFFFFFFFFFFFFFFFFFFFFFFFFFF AND PUSH4 0xAD5C4648 PUSH1 0x40 MLOAD DUP2 PUSH4 0xFFFFFFFF AND PUSH1 0xE0 SHL DUP2 MSTORE PUSH1 0x4 ADD PUSH1 0x20 PUSH1 0x40 MLOAD DUP1 DUP4 SUB DUP2 DUP7 GAS STATICCALL ISZERO DUP1 ISZERO PUSH2 0x2FBE JUMPI RETURNDATASIZE PUSH1 0x0 DUP1 RETURNDATACOPY RETURNDATASIZE PUSH1 0x0 REVERT JUMPDEST POP POP POP POP PUSH1 0x40 MLOAD RETURNDATASIZE PUSH1 0x1F NOT PUSH1 0x1F DUP3 ADD AND DUP3 ADD DUP1 PUSH1 0x40 MSTORE POP DUP2 ADD SWAP1 PUSH2 0x2FE2 SWAP2 SWAP1 PUSH2 0x428B JUMP JUMPDEST DUP2 PUSH1 0x1 DUP2 MLOAD DUP2 LT PUSH2 0x2FF6 JUMPI PUSH2 0x2FF5 PUSH2 0x3B76 JUMP JUMPDEST JUMPDEST PUSH1 0x20 MUL PUSH1 0x20 ADD ADD SWAP1 PUSH20 0xFFFFFFFFFFFFFFFFFFFFFFFFFFFFFFFFFFFFFFFF AND SWAP1 DUP2 PUSH20 0xFFFFFFFFFFFFFFFFFFFFFFFFFFFFFFFFFFFFFFFF AND DUP2 MSTORE POP POP PUSH2 0x305D ADDRESS PUSH1 0xF PUSH1 0x1 SWAP1 SLOAD SWAP1 PUSH2 0x100 EXP SWAP1 DIV PUSH20 0xFFFFFFFFFFFFFFFFFFFFFFFFFFFFFFFFFFFFFFFF AND DUP5 PUSH2 0x23DB JUMP JUMPDEST PUSH1 0xF PUSH1 0x1 SWAP1 SLOAD SWAP1 PUSH2 0x100 EXP SWAP1 DIV PUSH20 0xFFFFFFFFFFFFFFFFFFFFFFFFFFFFFFFFFFFFFFFF AND PUSH20 0xFFFFFFFFFFFFFFFFFFFFFFFFFFFFFFFFFFFFFFFF AND PUSH4 0x791AC947 DUP4 PUSH1 0x0 DUP5 ADDRESS TIMESTAMP PUSH1 0x40 MLOAD DUP7 PUSH4 0xFFFFFFFF AND PUSH1 0xE0 SHL DUP2 MSTORE PUSH1 0x4 ADD PUSH2 0x30C1 SWAP6 SWAP5 SWAP4 SWAP3 SWAP2 SWAP1 PUSH2 0x43B1 JUMP JUMPDEST PUSH1 0x0 PUSH1 0x40 MLOAD DUP1 DUP4 SUB DUP2 PUSH1 0x0 DUP8 DUP1 EXTCODESIZE ISZERO DUP1 ISZERO PUSH2 0x30DB JUMPI PUSH1 0x0 DUP1 REVERT JUMPDEST POP GAS CALL ISZERO DUP1 ISZERO PUSH2 0x30EF JUMPI RETURNDATASIZE PUSH1 0x0 DUP1 RETURNDATACOPY RETURNDATASIZE PUSH1 0x0 REVERT JUMPDEST POP POP POP POP POP POP JUMP JUMPDEST DUP2 PUSH20 0xFFFFFFFFFFFFFFFFFFFFFFFFFFFFFFFFFFFFFFFF AND PUSH2 0x8FC DUP3 SWAP1 DUP2 ISZERO MUL SWAP1 PUSH1 0x40 MLOAD PUSH1 0x0 PUSH1 0x40 MLOAD DUP1 DUP4 SUB DUP2 DUP6 DUP9 DUP9 CALL SWAP4 POP POP POP POP ISZERO DUP1 ISZERO PUSH2 0x313D JUMPI RETURNDATASIZE PUSH1 0x0 DUP1 RETURNDATACOPY RETURNDATASIZE PUSH1 0x0 REVERT JUMPDEST POP POP POP JUMP JUMPDEST PUSH1 0x0 PUSH1 0xE SLOAD SUB ISZERO PUSH2 0x3156 JUMPI PUSH1 0x0 PUSH1 0xE DUP2 SWAP1 SSTORE POP JUMPDEST JUMP JUMPDEST PUSH1 0x0 DUP1 PUSH2 0x3164 DUP4 PUSH2 0x33AB JUMP JUMPDEST SWAP2 POP SWAP2 POP PUSH2 0x31BA DUP4 PUSH1 0x1 PUSH1 0x0 DUP9 PUSH20 0xFFFFFFFFFFFFFFFFFFFFFFFFFFFFFFFFFFFFFFFF AND PUSH20 0xFFFFFFFFFFFFFFFFFFFFFFFFFFFFFFFFFFFFFFFF AND DUP2 MSTORE PUSH1 0x20 ADD SWAP1 DUP2 MSTORE PUSH1 0x20 ADD PUSH1 0x0 KECCAK256 SLOAD PUSH2 0x33F0 SWAP1 SWAP2 SWAP1 PUSH4 0xFFFFFFFF AND JUMP JUMPDEST PUSH1 0x1 PUSH1 0x0 DUP8 PUSH20 0xFFFFFFFFFFFFFFFFFFFFFFFFFFFFFFFFFFFFFFFF AND PUSH20 0xFFFFFFFFFFFFFFFFFFFFFFFFFFFFFFFFFFFFFFFF AND DUP2 MSTORE PUSH1 0x20 ADD SWAP1 DUP2 MSTORE PUSH1 0x20 ADD PUSH1 0x0 KECCAK256 DUP2 SWAP1 SSTORE POP PUSH2 0x324F DUP3 PUSH1 0x1 PUSH1 0x0 DUP8 PUSH20 0xFFFFFFFFFFFFFFFFFFFFFFFFFFFFFFFFFFFFFFFF AND PUSH20 0xFFFFFFFFFFFFFFFFFFFFFFFFFFFFFFFFFFFFFFFF AND DUP2 MSTORE PUSH1 0x20 ADD SWAP1 DUP2 MSTORE PUSH1 0x20 ADD PUSH1 0x0 KECCAK256 SLOAD PUSH2 0x2DC6 SWAP1 SWAP2 SWAP1 PUSH4 0xFFFFFFFF AND JUMP JUMPDEST PUSH1 0x1 PUSH1 0x0 DUP7 PUSH20 0xFFFFFFFFFFFFFFFFFFFFFFFFFFFFFFFFFFFFFFFF AND PUSH20 0xFFFFFFFFFFFFFFFFFFFFFFFFFFFFFFFFFFFFFFFF AND DUP2 MSTORE PUSH1 0x20 ADD SWAP1 DUP2 MSTORE PUSH1 0x20 ADD PUSH1 0x0 KECCAK256 DUP2 SWAP1 SSTORE POP PUSH2 0x32E4 DUP2 PUSH1 0x1 PUSH1 0x0 ADDRESS PUSH20 0xFFFFFFFFFFFFFFFFFFFFFFFFFFFFFFFFFFFFFFFF AND PUSH20 0xFFFFFFFFFFFFFFFFFFFFFFFFFFFFFFFFFFFFFFFF AND DUP2 MSTORE PUSH1 0x20 ADD SWAP1 DUP2 MSTORE PUSH1 0x20 ADD PUSH1 0x0 KECCAK256 SLOAD PUSH2 0x2DC6 SWAP1 SWAP2 SWAP1 PUSH4 0xFFFFFFFF AND JUMP JUMPDEST PUSH1 0x1 PUSH1 0x0 ADDRESS PUSH20 0xFFFFFFFFFFFFFFFFFFFFFFFFFFFFFFFFFFFFFFFF AND PUSH20 0xFFFFFFFFFFFFFFFFFFFFFFFFFFFFFFFFFFFFFFFF AND DUP2 MSTORE PUSH1 0x20 ADD SWAP1 DUP2 MSTORE PUSH1 0x20 ADD PUSH1 0x0 KECCAK256 DUP2 SWAP1 SSTORE POP DUP4 PUSH20 0xFFFFFFFFFFFFFFFFFFFFFFFFFFFFFFFFFFFFFFFF AND DUP6 PUSH20 0xFFFFFFFFFFFFFFFFFFFFFFFFFFFFFFFFFFFFFFFF AND PUSH32 0xDDF252AD1BE2C89B69C2B068FC378DAA952BA7F163C4A11628F55A4DF523B3EF DUP5 PUSH1 0x40 MLOAD PUSH2 0x3384 SWAP2 SWAP1 PUSH2 0x3682 JUMP JUMPDEST PUSH1 0x40 MLOAD DUP1 SWAP2 SUB SWAP1 LOG3 POP POP POP POP POP JUMP JUMPDEST PUSH1 0xB SLOAD PUSH1 0xE SLOAD SUB ISZERO PUSH2 0x33A9 JUMPI PUSH1 0xB SLOAD PUSH1 0xE DUP2 SWAP1 SSTORE POP JUMPDEST JUMP JUMPDEST PUSH1 0x0 DUP1 PUSH1 0x0 PUSH1 0x64 PUSH1 0xE SLOAD DUP6 PUSH2 0x33C0 SWAP2 SWAP1 PUSH2 0x3AD4 JUMP JUMPDEST PUSH2 0x33CA SWAP2 SWAP1 PUSH2 0x3B45 JUMP JUMPDEST SWAP1 POP PUSH1 0x0 PUSH2 0x33E1 DUP3 DUP7 PUSH2 0x33F0 SWAP1 SWAP2 SWAP1 PUSH4 0xFFFFFFFF AND JUMP JUMPDEST SWAP1 POP DUP1 DUP3 SWAP4 POP SWAP4 POP POP POP SWAP2 POP SWAP2 JUMP JUMPDEST PUSH1 0x0 DUP2 DUP4 PUSH2 0x33FE SWAP2 SWAP1 PUSH2 0x3BA5 JUMP JUMPDEST SWAP1 POP SWAP3 SWAP2 POP POP JUMP JUMPDEST PUSH1 0x0 DUP2 MLOAD SWAP1 POP SWAP2 SWAP1 POP JUMP JUMPDEST PUSH1 0x0 DUP3 DUP3 MSTORE PUSH1 0x20 DUP3 ADD SWAP1 POP SWAP3 SWAP2 POP POP JUMP JUMPDEST PUSH1 0x0 JUMPDEST DUP4 DUP2 LT ISZERO PUSH2 0x3440 JUMPI DUP1 DUP3 ADD MLOAD DUP2 DUP5 ADD MSTORE PUSH1 0x20 DUP2 ADD SWAP1 POP PUSH2 0x3425 JUMP JUMPDEST PUSH1 0x0 DUP5 DUP5 ADD MSTORE POP POP POP POP JUMP JUMPDEST PUSH1 0x0 PUSH1 0x1F NOT PUSH1 0x1F DUP4 ADD AND SWAP1 POP SWAP2 SWAP1 POP JUMP JUMPDEST PUSH1 0x0 PUSH2 0x3468 DUP3 PUSH2 0x3406 JUMP JUMPDEST PUSH2 0x3472 DUP2 DUP6 PUSH2 0x3411 JUMP JUMPDEST SWAP4 POP PUSH2 0x3482 DUP2 DUP6 PUSH1 0x20 DUP7 ADD PUSH2 0x3422 JUMP JUMPDEST PUSH2 0x348B DUP2 PUSH2 0x344C JUMP JUMPDEST DUP5 ADD SWAP2 POP POP SWAP3 SWAP2 POP POP JUMP JUMPDEST PUSH1 0x0 PUSH1 0x20 DUP3 ADD SWAP1 POP DUP2 DUP2 SUB PUSH1 0x0 DUP4 ADD MSTORE PUSH2 0x34B0 DUP2 DUP5 PUSH2 0x345D JUMP JUMPDEST SWAP1 POP SWAP3 SWAP2 POP POP JUMP JUMPDEST PUSH1 0x0 DUP1 REVERT JUMPDEST PUSH1 0x0 DUP1 REVERT JUMPDEST PUSH1 0x0 PUSH20 0xFFFFFFFFFFFFFFFFFFFFFFFFFFFFFFFFFFFFFFFF DUP3 AND SWAP1 POP SWAP2 SWAP1 POP JUMP JUMPDEST PUSH1 0x0 PUSH2 0x34ED DUP3 PUSH2 0x34C2 JUMP JUMPDEST SWAP1 POP SWAP2 SWAP1 POP JUMP JUMPDEST PUSH2 0x34FD DUP2 PUSH2 0x34E2 JUMP JUMPDEST DUP2 EQ PUSH2 0x3508 JUMPI PUSH1 0x0 DUP1 REVERT JUMPDEST POP JUMP JUMPDEST PUSH1 0x0 DUP2 CALLDATALOAD SWAP1 POP PUSH2 0x351A DUP2 PUSH2 0x34F4 JUMP JUMPDEST SWAP3 SWAP2 POP POP JUMP JUMPDEST PUSH1 0x0 DUP2 SWAP1 POP SWAP2 SWAP1 POP JUMP JUMPDEST PUSH2 0x3533 DUP2 PUSH2 0x3520 JUMP JUMPDEST DUP2 EQ PUSH2 0x353E JUMPI PUSH1 0x0 DUP1 REVERT JUMPDEST POP JUMP JUMPDEST PUSH1 0x0 DUP2 CALLDATALOAD SWAP1 POP PUSH2 0x3550 DUP2 PUSH2 0x352A JUMP JUMPDEST SWAP3 SWAP2 POP POP JUMP JUMPDEST PUSH1 0x0 DUP1 PUSH1 0x40 DUP4 DUP6 SUB SLT ISZERO PUSH2 0x356D JUMPI PUSH2 0x356C PUSH2 0x34B8 JUMP JUMPDEST JUMPDEST PUSH1 0x0 PUSH2 0x357B DUP6 DUP3 DUP7 ADD PUSH2 0x350B JUMP JUMPDEST SWAP3 POP POP PUSH1 0x20 PUSH2 0x358C DUP6 DUP3 DUP7 ADD PUSH2 0x3541 JUMP JUMPDEST SWAP2 POP POP SWAP3 POP SWAP3 SWAP1 POP JUMP JUMPDEST PUSH1 0x0 DUP2 ISZERO ISZERO SWAP1 POP SWAP2 SWAP1 POP JUMP JUMPDEST PUSH2 0x35AB DUP2 PUSH2 0x3596 JUMP JUMPDEST DUP3 MSTORE POP POP JUMP JUMPDEST PUSH1 0x0 PUSH1 0x20 DUP3 ADD SWAP1 POP PUSH2 0x35C6 PUSH1 0x0 DUP4 ADD DUP5 PUSH2 0x35A2 JUMP JUMPDEST SWAP3 SWAP2 POP POP JUMP JUMPDEST PUSH1 0x0 PUSH1 0x20 DUP3 DUP5 SUB SLT ISZERO PUSH2 0x35E2 JUMPI PUSH2 0x35E1 PUSH2 0x34B8 JUMP JUMPDEST JUMPDEST PUSH1 0x0 PUSH2 0x35F0 DUP5 DUP3 DUP6 ADD PUSH2 0x3541 JUMP JUMPDEST SWAP2 POP POP SWAP3 SWAP2 POP POP JUMP JUMPDEST PUSH1 0x0 DUP2 SWAP1 POP SWAP2 SWAP1 POP JUMP JUMPDEST PUSH1 0x0 PUSH2 0x361E PUSH2 0x3619 PUSH2 0x3614 DUP5 PUSH2 0x34C2 JUMP JUMPDEST PUSH2 0x35F9 JUMP JUMPDEST PUSH2 0x34C2 JUMP JUMPDEST SWAP1 POP SWAP2 SWAP1 POP JUMP JUMPDEST PUSH1 0x0 PUSH2 0x3630 DUP3 PUSH2 0x3603 JUMP JUMPDEST SWAP1 POP SWAP2 SWAP1 POP JUMP JUMPDEST PUSH1 0x0 PUSH2 0x3642 DUP3 PUSH2 0x3625 JUMP JUMPDEST SWAP1 POP SWAP2 SWAP1 POP JUMP JUMPDEST PUSH2 0x3652 DUP2 PUSH2 0x3637 JUMP JUMPDEST DUP3 MSTORE POP POP JUMP JUMPDEST PUSH1 0x0 PUSH1 0x20 DUP3 ADD SWAP1 POP PUSH2 0x366D PUSH1 0x0 DUP4 ADD DUP5 PUSH2 0x3649 JUMP JUMPDEST SWAP3 SWAP2 POP POP JUMP JUMPDEST PUSH2 0x367C DUP2 PUSH2 0x3520 JUMP JUMPDEST DUP3 MSTORE POP POP JUMP JUMPDEST PUSH1 0x0 PUSH1 0x20 DUP3 ADD SWAP1 POP PUSH2 0x3697 PUSH1 0x0 DUP4 ADD DUP5 PUSH2 0x3673 JUMP JUMPDEST SWAP3 SWAP2 POP POP JUMP JUMPDEST PUSH1 0x0 DUP1 REVERT JUMPDEST PUSH1 0x0 DUP1 REVERT JUMPDEST PUSH1 0x0 DUP1 REVERT JUMPDEST PUSH1 0x0 DUP1 DUP4 PUSH1 0x1F DUP5 ADD SLT PUSH2 0x36C2 JUMPI PUSH2 0x36C1 PUSH2 0x369D JUMP JUMPDEST JUMPDEST DUP3 CALLDATALOAD SWAP1 POP PUSH8 0xFFFFFFFFFFFFFFFF DUP2 GT ISZERO PUSH2 0x36DF JUMPI PUSH2 0x36DE PUSH2 0x36A2 JUMP JUMPDEST JUMPDEST PUSH1 0x20 DUP4 ADD SWAP2 POP DUP4 PUSH1 0x20 DUP3 MUL DUP4 ADD GT ISZERO PUSH2 0x36FB JUMPI PUSH2 0x36FA PUSH2 0x36A7 JUMP JUMPDEST JUMPDEST SWAP3 POP SWAP3 SWAP1 POP JUMP JUMPDEST PUSH1 0x0 DUP1 PUSH1 0x20 DUP4 DUP6 SUB SLT ISZERO PUSH2 0x3719 JUMPI PUSH2 0x3718 PUSH2 0x34B8 JUMP JUMPDEST JUMPDEST PUSH1 0x0 DUP4 ADD CALLDATALOAD PUSH8 0xFFFFFFFFFFFFFFFF DUP2 GT ISZERO PUSH2 0x3737 JUMPI PUSH2 0x3736 PUSH2 0x34BD JUMP JUMPDEST JUMPDEST PUSH2 0x3743 DUP6 DUP3 DUP7 ADD PUSH2 0x36AC JUMP JUMPDEST SWAP3 POP SWAP3 POP POP SWAP3 POP SWAP3 SWAP1 POP JUMP JUMPDEST PUSH1 0x0 PUSH1 0x20 DUP3 DUP5 SUB SLT ISZERO PUSH2 0x3765 JUMPI PUSH2 0x3764 PUSH2 0x34B8 JUMP JUMPDEST JUMPDEST PUSH1 0x0 PUSH2 0x3773 DUP5 DUP3 DUP6 ADD PUSH2 0x350B JUMP JUMPDEST SWAP2 POP POP SWAP3 SWAP2 POP POP JUMP JUMPDEST PUSH1 0x0 DUP1 PUSH1 0x0 PUSH1 0x60 DUP5 DUP7 SUB SLT ISZERO PUSH2 0x3795 JUMPI PUSH2 0x3794 PUSH2 0x34B8 JUMP JUMPDEST JUMPDEST PUSH1 0x0 PUSH2 0x37A3 DUP7 DUP3 DUP8 ADD PUSH2 0x350B JUMP JUMPDEST SWAP4 POP POP PUSH1 0x20 PUSH2 0x37B4 DUP7 DUP3 DUP8 ADD PUSH2 0x350B JUMP JUMPDEST SWAP3 POP POP PUSH1 0x40 PUSH2 0x37C5 DUP7 DUP3 DUP8 ADD PUSH2 0x3541 JUMP JUMPDEST SWAP2 POP POP SWAP3 POP SWAP3 POP SWAP3 JUMP JUMPDEST PUSH1 0x0 PUSH1 0xFF DUP3 AND SWAP1 POP SWAP2 SWAP1 POP JUMP JUMPDEST PUSH2 0x37E5 DUP2 PUSH2 0x37CF JUMP JUMPDEST DUP3 MSTORE POP POP JUMP JUMPDEST PUSH1 0x0 PUSH1 0x20 DUP3 ADD SWAP1 POP PUSH2 0x3800 PUSH1 0x0 DUP4 ADD DUP5 PUSH2 0x37DC JUMP JUMPDEST SWAP3 SWAP2 POP POP JUMP JUMPDEST PUSH2 0x380F DUP2 PUSH2 0x34E2 JUMP JUMPDEST DUP3 MSTORE POP POP JUMP JUMPDEST PUSH1 0x0 PUSH1 0x20 DUP3 ADD SWAP1 POP PUSH2 0x382A PUSH1 0x0 DUP4 ADD DUP5 PUSH2 0x3806 JUMP JUMPDEST SWAP3 SWAP2 POP POP JUMP JUMPDEST PUSH1 0x0 DUP1 PUSH1 0x40 DUP4 DUP6 SUB SLT ISZERO PUSH2 0x3847 JUMPI PUSH2 0x3846 PUSH2 0x34B8 JUMP JUMPDEST JUMPDEST PUSH1 0x0 PUSH2 0x3855 DUP6 DUP3 DUP7 ADD PUSH2 0x3541 JUMP JUMPDEST SWAP3 POP POP PUSH1 0x20 PUSH2 0x3866 DUP6 DUP3 DUP7 ADD PUSH2 0x3541 JUMP JUMPDEST SWAP2 POP POP SWAP3 POP SWAP3 SWAP1 POP JUMP JUMPDEST PUSH2 0x3879 DUP2 PUSH2 0x37CF JUMP JUMPDEST DUP2 EQ PUSH2 0x3884 JUMPI PUSH1 0x0 DUP1 REVERT JUMPDEST POP JUMP JUMPDEST PUSH1 0x0 DUP2 CALLDATALOAD SWAP1 POP PUSH2 0x3896 DUP2 PUSH2 0x3870 JUMP JUMPDEST SWAP3 SWAP2 POP POP JUMP JUMPDEST PUSH1 0x0 PUSH1 0x20 DUP3 DUP5 SUB SLT ISZERO PUSH2 0x38B2 JUMPI PUSH2 0x38B1 PUSH2 0x34B8 JUMP JUMPDEST JUMPDEST PUSH1 0x0 PUSH2 0x38C0 DUP5 DUP3 DUP6 ADD PUSH2 0x3887 JUMP JUMPDEST SWAP2 POP POP SWAP3 SWAP2 POP POP JUMP JUMPDEST PUSH2 0x38D2 DUP2 PUSH2 0x3596 JUMP JUMPDEST DUP2 EQ PUSH2 0x38DD JUMPI PUSH1 0x0 DUP1 REVERT JUMPDEST POP JUMP JUMPDEST PUSH1 0x0 DUP2 CALLDATALOAD SWAP1 POP PUSH2 0x38EF DUP2 PUSH2 0x38C9 JUMP JUMPDEST SWAP3 SWAP2 POP POP JUMP JUMPDEST PUSH1 0x0 PUSH1 0x20 DUP3 DUP5 SUB SLT ISZERO PUSH2 0x390B JUMPI PUSH2 0x390A PUSH2 0x34B8 JUMP JUMPDEST JUMPDEST PUSH1 0x0 PUSH2 0x3919 DUP5 DUP3 DUP6 ADD PUSH2 0x38E0 JUMP JUMPDEST SWAP2 POP POP SWAP3 SWAP2 POP POP JUMP JUMPDEST PUSH1 0x0 DUP1 PUSH1 0x40 DUP4 DUP6 SUB SLT ISZERO PUSH2 0x3939 JUMPI PUSH2 0x3938 PUSH2 0x34B8 JUMP JUMPDEST JUMPDEST PUSH1 0x0 PUSH2 0x3947 DUP6 DUP3 DUP7 ADD PUSH2 0x350B JUMP JUMPDEST SWAP3 POP POP PUSH1 0x20 PUSH2 0x3958 DUP6 DUP3 DUP7 ADD PUSH2 0x350B JUMP JUMPDEST SWAP2 POP POP SWAP3 POP SWAP3 SWAP1 POP JUMP JUMPDEST PUSH1 0x0 PUSH2 0x396D DUP3 PUSH2 0x34C2 JUMP JUMPDEST SWAP1 POP SWAP2 SWAP1 POP JUMP JUMPDEST PUSH2 0x397D DUP2 PUSH2 0x3962 JUMP JUMPDEST DUP2 EQ PUSH2 0x3988 JUMPI PUSH1 0x0 DUP1 REVERT JUMPDEST POP JUMP JUMPDEST PUSH1 0x0 DUP2 CALLDATALOAD SWAP1 POP PUSH2 0x399A DUP2 PUSH2 0x3974 JUMP JUMPDEST SWAP3 SWAP2 POP POP JUMP JUMPDEST PUSH1 0x0 PUSH1 0x20 DUP3 DUP5 SUB SLT ISZERO PUSH2 0x39B6 JUMPI PUSH2 0x39B5 PUSH2 0x34B8 JUMP JUMPDEST JUMPDEST PUSH1 0x0 PUSH2 0x39C4 DUP5 DUP3 DUP6 ADD PUSH2 0x398B JUMP JUMPDEST SWAP2 POP POP SWAP3 SWAP2 POP POP JUMP JUMPDEST PUSH32 0x4F776E61626C653A2063616C6C6572206973206E6F7420746865206F776E6572 PUSH1 0x0 DUP3 ADD MSTORE POP JUMP JUMPDEST PUSH1 0x0 PUSH2 0x3A03 PUSH1 0x20 DUP4 PUSH2 0x3411 JUMP JUMPDEST SWAP2 POP PUSH2 0x3A0E DUP3 PUSH2 0x39CD JUMP JUMPDEST PUSH1 0x20 DUP3 ADD SWAP1 POP SWAP2 SWAP1 POP JUMP JUMPDEST PUSH1 0x0 PUSH1 0x20 DUP3 ADD SWAP1 POP DUP2 DUP2 SUB PUSH1 0x0 DUP4 ADD MSTORE PUSH2 0x3A32 DUP2 PUSH2 0x39F6 JUMP JUMPDEST SWAP1 POP SWAP2 SWAP1 POP JUMP JUMPDEST PUSH32 0x4D696E696D756D206D7573742062652067726561746572207468616E20300000 PUSH1 0x0 DUP3 ADD MSTORE POP JUMP JUMPDEST PUSH1 0x0 PUSH2 0x3A6F PUSH1 0x1E DUP4 PUSH2 0x3411 JUMP JUMPDEST SWAP2 POP PUSH2 0x3A7A DUP3 PUSH2 0x3A39 JUMP JUMPDEST PUSH1 0x20 DUP3 ADD SWAP1 POP SWAP2 SWAP1 POP JUMP JUMPDEST PUSH1 0x0 PUSH1 0x20 DUP3 ADD SWAP1 POP DUP2 DUP2 SUB PUSH1 0x0 DUP4 ADD MSTORE PUSH2 0x3A9E DUP2 PUSH2 0x3A62 JUMP JUMPDEST SWAP1 POP SWAP2 SWAP1 POP JUMP JUMPDEST PUSH32 0x4E487B7100000000000000000000000000000000000000000000000000000000 PUSH1 0x0 MSTORE PUSH1 0x11 PUSH1 0x4 MSTORE PUSH1 0x24 PUSH1 0x0 REVERT JUMPDEST PUSH1 0x0 PUSH2 0x3ADF DUP3 PUSH2 0x3520 JUMP JUMPDEST SWAP2 POP PUSH2 0x3AEA DUP4 PUSH2 0x3520 JUMP JUMPDEST SWAP3 POP DUP3 DUP3 MUL PUSH2 0x3AF8 DUP2 PUSH2 0x3520 JUMP JUMPDEST SWAP2 POP DUP3 DUP3 DIV DUP5 EQ DUP4 ISZERO OR PUSH2 0x3B0F JUMPI PUSH2 0x3B0E PUSH2 0x3AA5 JUMP JUMPDEST JUMPDEST POP SWAP3 SWAP2 POP POP JUMP JUMPDEST PUSH32 0x4E487B7100000000000000000000000000000000000000000000000000000000 PUSH1 0x0 MSTORE PUSH1 0x12 PUSH1 0x4 MSTORE PUSH1 0x24 PUSH1 0x0 REVERT JUMPDEST PUSH1 0x0 PUSH2 0x3B50 DUP3 PUSH2 0x3520 JUMP JUMPDEST SWAP2 POP PUSH2 0x3B5B DUP4 PUSH2 0x3520 JUMP JUMPDEST SWAP3 POP DUP3 PUSH2 0x3B6B JUMPI PUSH2 0x3B6A PUSH2 0x3B16 JUMP JUMPDEST JUMPDEST DUP3 DUP3 DIV SWAP1 POP SWAP3 SWAP2 POP POP JUMP JUMPDEST PUSH32 0x4E487B7100000000000000000000000000000000000000000000000000000000 PUSH1 0x0 MSTORE PUSH1 0x32 PUSH1 0x4 MSTORE PUSH1 0x24 PUSH1 0x0 REVERT JUMPDEST PUSH1 0x0 PUSH2 0x3BB0 DUP3 PUSH2 0x3520 JUMP JUMPDEST SWAP2 POP PUSH2 0x3BBB DUP4 PUSH2 0x3520 JUMP JUMPDEST SWAP3 POP DUP3 DUP3 SUB SWAP1 POP DUP2 DUP2 GT ISZERO PUSH2 0x3BD3 JUMPI PUSH2 0x3BD2 PUSH2 0x3AA5 JUMP JUMPDEST JUMPDEST SWAP3 SWAP2 POP POP JUMP JUMPDEST PUSH1 0x0 PUSH2 0x3BE4 DUP3 PUSH2 0x3520 JUMP JUMPDEST SWAP2 POP PUSH32 0xFFFFFFFFFFFFFFFFFFFFFFFFFFFFFFFFFFFFFFFFFFFFFFFFFFFFFFFFFFFFFFFF DUP3 SUB PUSH2 0x3C16 JUMPI PUSH2 0x3C15 PUSH2 0x3AA5 JUMP JUMPDEST JUMPDEST PUSH1 0x1 DUP3 ADD SWAP1 POP SWAP2 SWAP1 POP JUMP JUMPDEST PUSH32 0x4552523A207A65726F2061646472657373000000000000000000000000000000 PUSH1 0x0 DUP3 ADD MSTORE POP JUMP JUMPDEST PUSH1 0x0 PUSH2 0x3C57 PUSH1 0x11 DUP4 PUSH2 0x3411 JUMP JUMPDEST SWAP2 POP PUSH2 0x3C62 DUP3 PUSH2 0x3C21 JUMP JUMPDEST PUSH1 0x20 DUP3 ADD SWAP1 POP SWAP2 SWAP1 POP JUMP JUMPDEST PUSH1 0x0 PUSH1 0x20 DUP3 ADD SWAP1 POP DUP2 DUP2 SUB PUSH1 0x0 DUP4 ADD MSTORE PUSH2 0x3C86 DUP2 PUSH2 0x3C4A JUMP JUMPDEST SWAP1 POP SWAP2 SWAP1 POP JUMP JUMPDEST PUSH32 0x43616E206E6F742072656D6F7665206E617469766520746F6B656E0000000000 PUSH1 0x0 DUP3 ADD MSTORE POP JUMP JUMPDEST PUSH1 0x0 PUSH2 0x3CC3 PUSH1 0x1B DUP4 PUSH2 0x3411 JUMP JUMPDEST SWAP2 POP PUSH2 0x3CCE DUP3 PUSH2 0x3C8D JUMP JUMPDEST PUSH1 0x20 DUP3 ADD SWAP1 POP SWAP2 SWAP1 POP JUMP JUMPDEST PUSH1 0x0 PUSH1 0x20 DUP3 ADD SWAP1 POP DUP2 DUP2 SUB PUSH1 0x0 DUP4 ADD MSTORE PUSH2 0x3CF2 DUP2 PUSH2 0x3CB6 JUMP JUMPDEST SWAP1 POP SWAP2 SWAP1 POP JUMP JUMPDEST PUSH1 0x0 DUP2 MLOAD SWAP1 POP PUSH2 0x3D08 DUP2 PUSH2 0x352A JUMP JUMPDEST SWAP3 SWAP2 POP POP JUMP JUMPDEST PUSH1 0x0 PUSH1 0x20 DUP3 DUP5 SUB SLT ISZERO PUSH2 0x3D24 JUMPI PUSH2 0x3D23 PUSH2 0x34B8 JUMP JUMPDEST JUMPDEST PUSH1 0x0 PUSH2 0x3D32 DUP5 DUP3 DUP6 ADD PUSH2 0x3CF9 JUMP JUMPDEST SWAP2 POP POP SWAP3 SWAP2 POP POP JUMP JUMPDEST PUSH1 0x0 PUSH1 0x40 DUP3 ADD SWAP1 POP PUSH2 0x3D50 PUSH1 0x0 DUP4 ADD DUP6 PUSH2 0x3806 JUMP JUMPDEST PUSH2 0x3D5D PUSH1 0x20 DUP4 ADD DUP5 PUSH2 0x3673 JUMP JUMPDEST SWAP4 SWAP3 POP POP POP JUMP JUMPDEST PUSH1 0x0 DUP2 MLOAD SWAP1 POP PUSH2 0x3D73 DUP2 PUSH2 0x38C9 JUMP JUMPDEST SWAP3 SWAP2 POP POP JUMP JUMPDEST PUSH1 0x0 PUSH1 0x20 DUP3 DUP5 SUB SLT ISZERO PUSH2 0x3D8F JUMPI PUSH2 0x3D8E PUSH2 0x34B8 JUMP JUMPDEST JUMPDEST PUSH1 0x0 PUSH2 0x3D9D DUP5 DUP3 DUP6 ADD PUSH2 0x3D64 JUMP JUMPDEST SWAP2 POP POP SWAP3 SWAP2 POP POP JUMP JUMPDEST PUSH1 0x0 PUSH2 0x3DB1 DUP3 PUSH2 0x3520 JUMP JUMPDEST SWAP2 POP PUSH2 0x3DBC DUP4 PUSH2 0x3520 JUMP JUMPDEST SWAP3 POP DUP3 DUP3 ADD SWAP1 POP DUP1 DUP3 GT ISZERO PUSH2 0x3DD4 JUMPI PUSH2 0x3DD3 PUSH2 0x3AA5 JUMP JUMPDEST JUMPDEST SWAP3 SWAP2 POP POP JUMP JUMPDEST PUSH32 0x46656520697320746F6F20686967682100000000000000000000000000000000 PUSH1 0x0 DUP3 ADD MSTORE POP JUMP JUMPDEST PUSH1 0x0 PUSH2 0x3E10 PUSH1 0x10 DUP4 PUSH2 0x3411 JUMP JUMPDEST SWAP2 POP PUSH2 0x3E1B DUP3 PUSH2 0x3DDA JUMP JUMPDEST PUSH1 0x20 DUP3 ADD SWAP1 POP SWAP2 SWAP1 POP JUMP JUMPDEST PUSH1 0x0 PUSH1 0x20 DUP3 ADD SWAP1 POP DUP2 DUP2 SUB PUSH1 0x0 DUP4 ADD MSTORE PUSH2 0x3E3F DUP2 PUSH2 0x3E03 JUMP JUMPDEST SWAP1 POP SWAP2 SWAP1 POP JUMP JUMPDEST PUSH32 0x43757272656E746C792070726F63657373696E672C20747279206C617465722E PUSH1 0x0 DUP3 ADD MSTORE POP JUMP JUMPDEST PUSH1 0x0 PUSH2 0x3E7C PUSH1 0x20 DUP4 PUSH2 0x3411 JUMP JUMPDEST SWAP2 POP PUSH2 0x3E87 DUP3 PUSH2 0x3E46 JUMP JUMPDEST PUSH1 0x20 DUP3 ADD SWAP1 POP SWAP2 SWAP1 POP JUMP JUMPDEST PUSH1 0x0 PUSH1 0x20 DUP3 ADD SWAP1 POP DUP2 DUP2 SUB PUSH1 0x0 DUP4 ADD MSTORE PUSH2 0x3EAB DUP2 PUSH2 0x3E6F JUMP JUMPDEST SWAP1 POP SWAP2 SWAP1 POP JUMP JUMPDEST PUSH32 0x4F776E61626C653A206E6577206F776E657220697320746865207A65726F2061 PUSH1 0x0 DUP3 ADD MSTORE PUSH32 0x6464726573730000000000000000000000000000000000000000000000000000 PUSH1 0x20 DUP3 ADD MSTORE POP JUMP JUMPDEST PUSH1 0x0 PUSH2 0x3F0E PUSH1 0x26 DUP4 PUSH2 0x3411 JUMP JUMPDEST SWAP2 POP PUSH2 0x3F19 DUP3 PUSH2 0x3EB2 JUMP JUMPDEST PUSH1 0x40 DUP3 ADD SWAP1 POP SWAP2 SWAP1 POP JUMP JUMPDEST PUSH1 0x0 PUSH1 0x20 DUP3 ADD SWAP1 POP DUP2 DUP2 SUB PUSH1 0x0 DUP4 ADD MSTORE PUSH2 0x3F3D DUP2 PUSH2 0x3F01 JUMP JUMPDEST SWAP1 POP SWAP2 SWAP1 POP JUMP JUMPDEST PUSH32 0x596F752061726520747279696E6720746F2062757920746F6F206D616E792074 PUSH1 0x0 DUP3 ADD MSTORE PUSH32 0x6F6B656E732E20596F752068617665207265616368656420746865206C696D69 PUSH1 0x20 DUP3 ADD MSTORE PUSH32 0x7420666F72206F6E652077616C6C65742E000000000000000000000000000000 PUSH1 0x40 DUP3 ADD MSTORE POP JUMP JUMPDEST PUSH1 0x0 PUSH2 0x3FC6 PUSH1 0x51 DUP4 PUSH2 0x3411 JUMP JUMPDEST SWAP2 POP PUSH2 0x3FD1 DUP3 PUSH2 0x3F44 JUMP JUMPDEST PUSH1 0x60 DUP3 ADD SWAP1 POP SWAP2 SWAP1 POP JUMP JUMPDEST PUSH1 0x0 PUSH1 0x20 DUP3 ADD SWAP1 POP DUP2 DUP2 SUB PUSH1 0x0 DUP4 ADD MSTORE PUSH2 0x3FF5 DUP2 PUSH2 0x3FB9 JUMP JUMPDEST SWAP1 POP SWAP2 SWAP1 POP JUMP JUMPDEST PUSH32 0x596F752061726520747279696E6720746F20627579206D6F7265207468616E20 PUSH1 0x0 DUP3 ADD MSTORE PUSH32 0x746865206D6178207472616E73616374696F6E206C696D69742E000000000000 PUSH1 0x20 DUP3 ADD MSTORE POP JUMP JUMPDEST PUSH1 0x0 PUSH2 0x4058 PUSH1 0x3A DUP4 PUSH2 0x3411 JUMP JUMPDEST SWAP2 POP PUSH2 0x4063 DUP3 PUSH2 0x3FFC JUMP JUMPDEST PUSH1 0x40 DUP3 ADD SWAP1 POP SWAP2 SWAP1 POP JUMP JUMPDEST PUSH1 0x0 PUSH1 0x20 DUP3 ADD SWAP1 POP DUP2 DUP2 SUB PUSH1 0x0 DUP4 ADD MSTORE PUSH2 0x4087 DUP2 PUSH2 0x404B JUMP JUMPDEST SWAP1 POP SWAP2 SWAP1 POP JUMP JUMPDEST PUSH32 0x54686973206164647265737320697320626C61636B6C69737465642E20547261 PUSH1 0x0 DUP3 ADD MSTORE PUSH32 0x6E73616374696F6E2072657665727465642E0000000000000000000000000000 PUSH1 0x20 DUP3 ADD MSTORE POP JUMP JUMPDEST PUSH1 0x0 PUSH2 0x40EA PUSH1 0x32 DUP4 PUSH2 0x3411 JUMP JUMPDEST SWAP2 POP PUSH2 0x40F5 DUP3 PUSH2 0x408E JUMP JUMPDEST PUSH1 0x40 DUP3 ADD SWAP1 POP SWAP2 SWAP1 POP JUMP JUMPDEST PUSH1 0x0 PUSH1 0x20 DUP3 ADD SWAP1 POP DUP2 DUP2 SUB PUSH1 0x0 DUP4 ADD MSTORE PUSH2 0x4119 DUP2 PUSH2 0x40DD JUMP JUMPDEST SWAP1 POP SWAP2 SWAP1 POP JUMP JUMPDEST PUSH32 0x4552523A205573696E6720302061646472657373210000000000000000000000 PUSH1 0x0 DUP3 ADD MSTORE POP JUMP JUMPDEST PUSH1 0x0 PUSH2 0x4156 PUSH1 0x15 DUP4 PUSH2 0x3411 JUMP JUMPDEST SWAP2 POP PUSH2 0x4161 DUP3 PUSH2 0x4120 JUMP JUMPDEST PUSH1 0x20 DUP3 ADD SWAP1 POP SWAP2 SWAP1 POP JUMP JUMPDEST PUSH1 0x0 PUSH1 0x20 DUP3 ADD SWAP1 POP DUP2 DUP2 SUB PUSH1 0x0 DUP4 ADD MSTORE PUSH2 0x4185 DUP2 PUSH2 0x4149 JUMP JUMPDEST SWAP1 POP SWAP2 SWAP1 POP JUMP JUMPDEST PUSH32 0x546F6B656E2076616C7565206D75737420626520686967686572207468616E20 PUSH1 0x0 DUP3 ADD MSTORE PUSH32 0x7A65726F2E000000000000000000000000000000000000000000000000000000 PUSH1 0x20 DUP3 ADD MSTORE POP JUMP JUMPDEST PUSH1 0x0 PUSH2 0x41E8 PUSH1 0x25 DUP4 PUSH2 0x3411 JUMP JUMPDEST SWAP2 POP PUSH2 0x41F3 DUP3 PUSH2 0x418C JUMP JUMPDEST PUSH1 0x40 DUP3 ADD SWAP1 POP SWAP2 SWAP1 POP JUMP JUMPDEST PUSH1 0x0 PUSH1 0x20 DUP3 ADD SWAP1 POP DUP2 DUP2 SUB PUSH1 0x0 DUP4 ADD MSTORE PUSH2 0x4217 DUP2 PUSH2 0x41DB JUMP JUMPDEST SWAP1 POP SWAP2 SWAP1 POP JUMP JUMPDEST PUSH1 0x0 PUSH2 0x4229 DUP3 PUSH2 0x37CF JUMP JUMPDEST SWAP2 POP PUSH1 0xFF DUP3 SUB PUSH2 0x423C JUMPI PUSH2 0x423B PUSH2 0x3AA5 JUMP JUMPDEST JUMPDEST PUSH1 0x1 DUP3 ADD SWAP1 POP SWAP2 SWAP1 POP JUMP JUMPDEST PUSH32 0x4E487B7100000000000000000000000000000000000000000000000000000000 PUSH1 0x0 MSTORE PUSH1 0x41 PUSH1 0x4 MSTORE PUSH1 0x24 PUSH1 0x0 REVERT JUMPDEST PUSH1 0x0 DUP2 MLOAD SWAP1 POP PUSH2 0x4285 DUP2 PUSH2 0x34F4 JUMP JUMPDEST SWAP3 SWAP2 POP POP JUMP JUMPDEST PUSH1 0x0 PUSH1 0x20 DUP3 DUP5 SUB SLT ISZERO PUSH2 0x42A1 JUMPI PUSH2 0x42A0 PUSH2 0x34B8 JUMP JUMPDEST JUMPDEST PUSH1 0x0 PUSH2 0x42AF DUP5 DUP3 DUP6 ADD PUSH2 0x4276 JUMP JUMPDEST SWAP2 POP POP SWAP3 SWAP2 POP POP JUMP JUMPDEST PUSH1 0x0 DUP2 SWAP1 POP SWAP2 SWAP1 POP JUMP JUMPDEST PUSH1 0x0 PUSH2 0x42DD PUSH2 0x42D8 PUSH2 0x42D3 DUP5 PUSH2 0x42B8 JUMP JUMPDEST PUSH2 0x35F9 JUMP JUMPDEST PUSH2 0x3520 JUMP JUMPDEST SWAP1 POP SWAP2 SWAP1 POP JUMP JUMPDEST PUSH2 0x42ED DUP2 PUSH2 0x42C2 JUMP JUMPDEST DUP3 MSTORE POP POP JUMP JUMPDEST PUSH1 0x0 DUP2 MLOAD SWAP1 POP SWAP2 SWAP1 POP JUMP JUMPDEST PUSH1 0x0 DUP3 DUP3 MSTORE PUSH1 0x20 DUP3 ADD SWAP1 POP SWAP3 SWAP2 POP POP JUMP JUMPDEST PUSH1 0x0 DUP2 SWAP1 POP PUSH1 0x20 DUP3 ADD SWAP1 POP SWAP2 SWAP1 POP JUMP JUMPDEST PUSH2 0x4328 DUP2 PUSH2 0x34E2 JUMP JUMPDEST DUP3 MSTORE POP POP JUMP JUMPDEST PUSH1 0x0 PUSH2 0x433A DUP4 DUP4 PUSH2 0x431F JUMP JUMPDEST PUSH1 0x20 DUP4 ADD SWAP1 POP SWAP3 SWAP2 POP POP JUMP JUMPDEST PUSH1 0x0 PUSH1 0x20 DUP3 ADD SWAP1 POP SWAP2 SWAP1 POP JUMP JUMPDEST PUSH1 0x0 PUSH2 0x435E DUP3 PUSH2 0x42F3 JUMP JUMPDEST PUSH2 0x4368 DUP2 DUP6 PUSH2 0x42FE JUMP JUMPDEST SWAP4 POP PUSH2 0x4373 DUP4 PUSH2 0x430F JUMP JUMPDEST DUP1 PUSH1 0x0 JUMPDEST DUP4 DUP2 LT ISZERO PUSH2 0x43A4 JUMPI DUP2 MLOAD PUSH2 0x438B DUP9 DUP3 PUSH2 0x432E JUMP JUMPDEST SWAP8 POP PUSH2 0x4396 DUP4 PUSH2 0x4346 JUMP JUMPDEST SWAP3 POP POP PUSH1 0x1 DUP2 ADD SWAP1 POP PUSH2 0x4377 JUMP JUMPDEST POP DUP6 SWAP4 POP POP POP POP SWAP3 SWAP2 POP POP JUMP JUMPDEST PUSH1 0x0 PUSH1 0xA0 DUP3 ADD SWAP1 POP PUSH2 0x43C6 PUSH1 0x0 DUP4 ADD DUP9 PUSH2 0x3673 JUMP JUMPDEST PUSH2 0x43D3 PUSH1 0x20 DUP4 ADD DUP8 PUSH2 0x42E4 JUMP JUMPDEST DUP2 DUP2 SUB PUSH1 0x40 DUP4 ADD MSTORE PUSH2 0x43E5 DUP2 DUP7 PUSH2 0x4353 JUMP JUMPDEST SWAP1 POP PUSH2 0x43F4 PUSH1 0x60 DUP4 ADD DUP6 PUSH2 0x3806 JUMP JUMPDEST PUSH2 0x4401 PUSH1 0x80 DUP4 ADD DUP5 PUSH2 0x3673 JUMP JUMPDEST SWAP7 SWAP6 POP POP POP POP POP POP JUMP INVALID GASLIMIT MSTORE NUMBER ORIGIN ADDRESS GASPRICE KECCAK256 PUSH21 0x72616E7366657220616D6F756E7420657863656564 PUSH20 0x20616C6C6F77616E636545524332303A20646563 PUSH19 0x656173656420616C6C6F77616E63652062656C PUSH16 0x77207A65726FA2646970667358221220 0xC8 0xD8 SWAP7 0x4A PUSH19 0x49BC9BB2E4EC3EA94893ECF271A1C6C653DDF2 0xB9 0xB8 GAS NUMBER COINBASE 0x24 0xAF PUSH15 0x64736F6C6343000812003300000000 "
				},
				"gasEstimates": {
					"creation": {
						"codeDepositCost": "3510000",
						"executionCost": "infinite",
						"totalCost": "infinite"
					},
					"external": {
						"Update__Dev_Wallet(address)": "53722",
						"_TotalFee()": "2563",
						"_TransferFee()": "2496",
						"_buyFee()": "2563",
						"_isBlacklisted(address)": "2913",
						"_isExcludedFromFee(address)": "2935",
						"_maxToken()": "2540",
						"_maxTxAmount()": "2563",
						"_sellFee()": "2562",
						"_set_Fees(uint256,uint256)": "infinite",
						"_set_Transfer_Fee(uint256)": "26997",
						"allowance(address,address)": "infinite",
						"approve(address,uint256)": "infinite",
						"balanceOf(address)": "2887",
						"blacklist_Toggle(bool)": "27052",
						"blacklist_Wallets(address[])": "infinite",
						"decimals()": "411",
						"decreaseAllowance(address,uint256)": "infinite",
						"excludeFromFee(address)": "27132",
						"includeInFee(address)": "27175",
						"increaseAllowance(address,uint256)": "infinite",
						"isBlackList()": "2583",
						"isSwapping()": "2610",
						"name()": "infinite",
						"noTransferFee()": "2604",
						"owner()": "2589",
						"process_Tokens(uint256)": "infinite",
						"recover_Tokens(address,address,uint256)": "infinite",
						"renounceOwnership()": "30397",
						"set_Max_TX_Percent(uint256)": "infinite",
						"set_Max_Wal_Percent(uint256)": "infinite",
						"set_Number_Of_Transactions_Before_Liquify_Trigger(uint8)": "27110",
						"set_Swap_And_Liquify_Enabled(bool)": "infinite",
						"set_TransferFees(bool)": "26986",
						"swapAndLiqEnabled()": "2566",
						"symbol()": "infinite",
						"totalSupply()": "472",
						"transfer(address,uint256)": "infinite",
						"transferFrom(address,address,uint256)": "infinite",
						"transferOwnership(address)": "30785",
						"unBlacklist_Wallets(address[])": "infinite",
						"uniswapV2Pair()": "2603",
						"uniswapV2Router()": "infinite"
					},
					"internal": {
						"_approve(address,address,uint256)": "infinite",
						"_getValues(uint256)": "infinite",
						"_tokenTransfer(address,address,uint256,bool)": "infinite",
						"_transfer(address,address,uint256)": "infinite",
						"_transferTokens(address,address,uint256)": "infinite",
						"removeFees()": "7149",
						"restoreFees()": "28449",
						"sendToWallet(address payable,uint256)": "infinite",
						"swapTokens(uint256)": "infinite",
						"swapTokensForBNB(uint256)": "infinite"
					}
				},
				"methodIdentifiers": {
					"Update__Dev_Wallet(address)": "f73980f9",
					"_TotalFee()": "2b37b69b",
					"_TransferFee()": "46258ab3",
					"_buyFee()": "40b9a54b",
					"_isBlacklisted(address)": "1cdd3be3",
					"_isExcludedFromFee(address)": "768dc710",
					"_maxToken()": "5238f0e3",
					"_maxTxAmount()": "7d1db4a5",
					"_sellFee()": "590f897e",
					"_set_Fees(uint256,uint256)": "67cbd84c",
					"_set_Transfer_Fee(uint256)": "ba6a6cdb",
					"allowance(address,address)": "dd62ed3e",
					"approve(address,uint256)": "095ea7b3",
					"balanceOf(address)": "70a08231",
					"blacklist_Toggle(bool)": "a2a02c33",
					"blacklist_Wallets(address[])": "1b123b71",
					"decimals()": "313ce567",
					"decreaseAllowance(address,uint256)": "a457c2d7",
					"excludeFromFee(address)": "437823ec",
					"includeInFee(address)": "ea2f0b37",
					"increaseAllowance(address,uint256)": "39509351",
					"isBlackList()": "2a77c076",
					"isSwapping()": "b8863115",
					"name()": "06fdde03",
					"noTransferFee()": "c7039528",
					"owner()": "8da5cb5b",
					"process_Tokens(uint256)": "dcff0237",
					"recover_Tokens(address,address,uint256)": "2f536344",
					"renounceOwnership()": "715018a6",
					"set_Max_TX_Percent(uint256)": "15a2f349",
					"set_Max_Wal_Percent(uint256)": "a01cbf9a",
					"set_Number_Of_Transactions_Before_Liquify_Trigger(uint8)": "7caefa89",
					"set_Swap_And_Liquify_Enabled(bool)": "f7739b5f",
					"set_TransferFees(bool)": "ae7bd3f2",
					"swapAndLiqEnabled()": "85ae099f",
					"symbol()": "95d89b41",
					"totalSupply()": "18160ddd",
					"transfer(address,uint256)": "a9059cbb",
					"transferFrom(address,address,uint256)": "23b872dd",
					"transferOwnership(address)": "f2fde38b",
					"unBlacklist_Wallets(address[])": "3e66c435",
					"uniswapV2Pair()": "49bd5a5e",
					"uniswapV2Router()": "1694505e"
				}
			},
			"storageLayout": {
				"storage": [
					{
						"astId": 198,
						"contract": "XODEX2.sol:XODEX",
						"label": "_owner",
						"offset": 0,
						"slot": "0",
						"type": "t_address"
					},
					{
						"astId": 983,
						"contract": "XODEX2.sol:XODEX",
						"label": "_totalOwned",
						"offset": 0,
						"slot": "1",
						"type": "t_mapping(t_address,t_uint256)"
					},
					{
						"astId": 989,
						"contract": "XODEX2.sol:XODEX",
						"label": "_allowances",
						"offset": 0,
						"slot": "2",
						"type": "t_mapping(t_address,t_mapping(t_address,t_uint256))"
					},
					{
						"astId": 993,
						"contract": "XODEX2.sol:XODEX",
						"label": "_isExcludedFromFee",
						"offset": 0,
						"slot": "3",
						"type": "t_mapping(t_address,t_bool)"
					},
					{
						"astId": 997,
						"contract": "XODEX2.sol:XODEX",
						"label": "_isBlacklisted",
						"offset": 0,
						"slot": "4",
						"type": "t_mapping(t_address,t_bool)"
					},
					{
						"astId": 1015,
						"contract": "XODEX2.sol:XODEX",
						"label": "isBlackList",
						"offset": 0,
						"slot": "5",
						"type": "t_bool"
					},
					{
						"astId": 1021,
						"contract": "XODEX2.sol:XODEX",
						"label": "Dev_Wallet",
						"offset": 1,
						"slot": "5",
						"type": "t_address_payable"
					},
					{
						"astId": 1030,
						"contract": "XODEX2.sol:XODEX",
						"label": "txCount",
						"offset": 21,
						"slot": "5",
						"type": "t_uint8"
					},
					{
						"astId": 1033,
						"contract": "XODEX2.sol:XODEX",
						"label": "swapTrigger",
						"offset": 22,
						"slot": "5",
						"type": "t_uint8"
					},
					{
						"astId": 1039,
						"contract": "XODEX2.sol:XODEX",
						"label": "maxTransferFee",
						"offset": 0,
						"slot": "6",
						"type": "t_uint256"
					},
					{
						"astId": 1048,
						"contract": "XODEX2.sol:XODEX",
						"label": "_maxToken",
						"offset": 0,
						"slot": "7",
						"type": "t_uint256"
					},
					{
						"astId": 1051,
						"contract": "XODEX2.sol:XODEX",
						"label": "_prevMaxToken",
						"offset": 0,
						"slot": "8",
						"type": "t_uint256"
					},
					{
						"astId": 1060,
						"contract": "XODEX2.sol:XODEX",
						"label": "_maxTxAmount",
						"offset": 0,
						"slot": "9",
						"type": "t_uint256"
					},
					{
						"astId": 1063,
						"contract": "XODEX2.sol:XODEX",
						"label": "_prevMaxTxAmount",
						"offset": 0,
						"slot": "10",
						"type": "t_uint256"
					},
					{
						"astId": 1066,
						"contract": "XODEX2.sol:XODEX",
						"label": "_TransferFee",
						"offset": 0,
						"slot": "11",
						"type": "t_uint256"
					},
					{
						"astId": 1069,
						"contract": "XODEX2.sol:XODEX",
						"label": "_buyFee",
						"offset": 0,
						"slot": "12",
						"type": "t_uint256"
					},
					{
						"astId": 1072,
						"contract": "XODEX2.sol:XODEX",
						"label": "_sellFee",
						"offset": 0,
						"slot": "13",
						"type": "t_uint256"
					},
					{
						"astId": 1075,
						"contract": "XODEX2.sol:XODEX",
						"label": "_TotalFee",
						"offset": 0,
						"slot": "14",
						"type": "t_uint256"
					},
					{
						"astId": 1078,
						"contract": "XODEX2.sol:XODEX",
						"label": "noTransferFee",
						"offset": 0,
						"slot": "15",
						"type": "t_bool"
					},
					{
						"astId": 1081,
						"contract": "XODEX2.sol:XODEX",
						"label": "uniswapV2Router",
						"offset": 1,
						"slot": "15",
						"type": "t_contract(IUniswapV2Router02)967"
					},
					{
						"astId": 1083,
						"contract": "XODEX2.sol:XODEX",
						"label": "uniswapV2Pair",
						"offset": 0,
						"slot": "16",
						"type": "t_address"
					},
					{
						"astId": 1085,
						"contract": "XODEX2.sol:XODEX",
						"label": "isSwapping",
						"offset": 20,
						"slot": "16",
						"type": "t_bool"
					},
					{
						"astId": 1088,
						"contract": "XODEX2.sol:XODEX",
						"label": "swapAndLiqEnabled",
						"offset": 21,
						"slot": "16",
						"type": "t_bool"
					}
				],
				"types": {
					"t_address": {
						"encoding": "inplace",
						"label": "address",
						"numberOfBytes": "20"
					},
					"t_address_payable": {
						"encoding": "inplace",
						"label": "address payable",
						"numberOfBytes": "20"
					},
					"t_bool": {
						"encoding": "inplace",
						"label": "bool",
						"numberOfBytes": "1"
					},
					"t_contract(IUniswapV2Router02)967": {
						"encoding": "inplace",
						"label": "contract IUniswapV2Router02",
						"numberOfBytes": "20"
					},
					"t_mapping(t_address,t_bool)": {
						"encoding": "mapping",
						"key": "t_address",
						"label": "mapping(address => bool)",
						"numberOfBytes": "32",
						"value": "t_bool"
					},
					"t_mapping(t_address,t_mapping(t_address,t_uint256))": {
						"encoding": "mapping",
						"key": "t_address",
						"label": "mapping(address => mapping(address => uint256))",
						"numberOfBytes": "32",
						"value": "t_mapping(t_address,t_uint256)"
					},
					"t_mapping(t_address,t_uint256)": {
						"encoding": "mapping",
						"key": "t_address",
						"label": "mapping(address => uint256)",
						"numberOfBytes": "32",
						"value": "t_uint256"
					},
					"t_uint256": {
						"encoding": "inplace",
						"label": "uint256",
						"numberOfBytes": "32"
					},
					"t_uint8": {
						"encoding": "inplace",
						"label": "uint8",
						"numberOfBytes": "1"
					}
				}
			},
			"userdoc": {
				"kind": "user",
				"methods": {},
				"version": 1
			}
		}
	}
}