{
	"XODEX2.sol": {
		"XODEX": {
			"abi": [
				{
					"inputs": [],
					"stateMutability": "nonpayable",
					"type": "constructor"
				},
				{
					"anonymous": false,
					"inputs": [
						{
							"indexed": true,
							"internalType": "address",
							"name": "owner",
							"type": "address"
						},
						{
							"indexed": true,
							"internalType": "address",
							"name": "spender",
							"type": "address"
						},
						{
							"indexed": false,
							"internalType": "uint256",
							"name": "value",
							"type": "uint256"
						}
					],
					"name": "Approval",
					"type": "event"
				},
				{
					"anonymous": false,
					"inputs": [
						{
							"indexed": true,
							"internalType": "address",
							"name": "previousOwner",
							"type": "address"
						},
						{
							"indexed": true,
							"internalType": "address",
							"name": "newOwner",
							"type": "address"
						}
					],
					"name": "OwnershipTransferred",
					"type": "event"
				},
				{
					"anonymous": false,
					"inputs": [
						{
							"indexed": false,
							"internalType": "uint256",
							"name": "tokensSwapped",
							"type": "uint256"
						},
						{
							"indexed": false,
							"internalType": "uint256",
							"name": "ethReceived",
							"type": "uint256"
						},
						{
							"indexed": false,
							"internalType": "uint256",
							"name": "tokensIntoLiqudity",
							"type": "uint256"
						}
					],
					"name": "SwapAndLiquify",
					"type": "event"
				},
				{
					"anonymous": false,
					"inputs": [
						{
							"indexed": false,
							"internalType": "bool",
							"name": "enabled",
							"type": "bool"
						}
					],
					"name": "SwapAndLiquifyEnabledUpdated",
					"type": "event"
				},
				{
					"anonymous": false,
					"inputs": [
						{
							"indexed": true,
							"internalType": "address",
							"name": "from",
							"type": "address"
						},
						{
							"indexed": true,
							"internalType": "address",
							"name": "to",
							"type": "address"
						},
						{
							"indexed": false,
							"internalType": "uint256",
							"name": "value",
							"type": "uint256"
						}
					],
					"name": "Transfer",
					"type": "event"
				},
				{
					"inputs": [
						{
							"internalType": "address payable",
							"name": "wallet",
							"type": "address"
						}
					],
					"name": "Update__Dev_Wallet",
					"outputs": [],
					"stateMutability": "nonpayable",
					"type": "function"
				},
				{
					"inputs": [],
					"name": "_TotalFee",
					"outputs": [
						{
							"internalType": "uint256",
							"name": "",
							"type": "uint256"
						}
					],
					"stateMutability": "view",
					"type": "function"
				},
				{
					"inputs": [],
					"name": "_TransferFee",
					"outputs": [
						{
							"internalType": "uint256",
							"name": "",
							"type": "uint256"
						}
					],
					"stateMutability": "view",
					"type": "function"
				},
				{
					"inputs": [],
					"name": "_buyFee",
					"outputs": [
						{
							"internalType": "uint256",
							"name": "",
							"type": "uint256"
						}
					],
					"stateMutability": "view",
					"type": "function"
				},
				{
					"inputs": [
						{
							"internalType": "address",
							"name": "",
							"type": "address"
						}
					],
					"name": "_isBlacklisted",
					"outputs": [
						{
							"internalType": "bool",
							"name": "",
							"type": "bool"
						}
					],
					"stateMutability": "view",
					"type": "function"
				},
				{
					"inputs": [
						{
							"internalType": "address",
							"name": "",
							"type": "address"
						}
					],
					"name": "_isExcludedFromFee",
					"outputs": [
						{
							"internalType": "bool",
							"name": "",
							"type": "bool"
						}
					],
					"stateMutability": "view",
					"type": "function"
				},
				{
					"inputs": [],
					"name": "_maxToken",
					"outputs": [
						{
							"internalType": "uint256",
							"name": "",
							"type": "uint256"
						}
					],
					"stateMutability": "view",
					"type": "function"
				},
				{
					"inputs": [],
					"name": "_maxTxAmount",
					"outputs": [
						{
							"internalType": "uint256",
							"name": "",
							"type": "uint256"
						}
					],
					"stateMutability": "view",
					"type": "function"
				},
				{
					"inputs": [],
					"name": "_sellFee",
					"outputs": [
						{
							"internalType": "uint256",
							"name": "",
							"type": "uint256"
						}
					],
					"stateMutability": "view",
					"type": "function"
				},
				{
					"inputs": [
						{
							"internalType": "uint256",
							"name": "Buy_Fee",
							"type": "uint256"
						},
						{
							"internalType": "uint256",
							"name": "Sell_Fee",
							"type": "uint256"
						}
					],
					"name": "_set_Fees",
					"outputs": [],
					"stateMutability": "nonpayable",
					"type": "function"
				},
				{
					"inputs": [
						{
							"internalType": "uint256",
							"name": "Transfer_Fee",
							"type": "uint256"
						}
					],
					"name": "_set_Transfer_Fee",
					"outputs": [],
					"stateMutability": "nonpayable",
					"type": "function"
				},
				{
					"inputs": [
						{
							"internalType": "address",
							"name": "owner",
							"type": "address"
						},
						{
							"internalType": "address",
							"name": "spender",
							"type": "address"
						}
					],
					"name": "allowance",
					"outputs": [
						{
							"internalType": "uint256",
							"name": "",
							"type": "uint256"
						}
					],
					"stateMutability": "view",
					"type": "function"
				},
				{
					"inputs": [
						{
							"internalType": "address",
							"name": "spender",
							"type": "address"
						},
						{
							"internalType": "uint256",
							"name": "amount",
							"type": "uint256"
						}
					],
					"name": "approve",
					"outputs": [
						{
							"internalType": "bool",
							"name": "",
							"type": "bool"
						}
					],
					"stateMutability": "nonpayable",
					"type": "function"
				},
				{
					"inputs": [
						{
							"internalType": "address",
							"name": "account",
							"type": "address"
						}
					],
					"name": "balanceOf",
					"outputs": [
						{
							"internalType": "uint256",
							"name": "",
							"type": "uint256"
						}
					],
					"stateMutability": "view",
					"type": "function"
				},
				{
					"inputs": [
						{
							"internalType": "bool",
							"name": "true_or_false",
							"type": "bool"
						}
					],
					"name": "blacklist_Toggle",
					"outputs": [],
					"stateMutability": "nonpayable",
					"type": "function"
				},
				{
					"inputs": [
						{
							"internalType": "address[]",
							"name": "addresses",
							"type": "address[]"
						}
					],
					"name": "blacklist_Wallets",
					"outputs": [],
					"stateMutability": "nonpayable",
					"type": "function"
				},
				{
					"inputs": [],
					"name": "decimals",
					"outputs": [
						{
							"internalType": "uint8",
							"name": "",
							"type": "uint8"
						}
					],
					"stateMutability": "view",
					"type": "function"
				},
				{
					"inputs": [
						{
							"internalType": "address",
							"name": "spender",
							"type": "address"
						},
						{
							"internalType": "uint256",
							"name": "subtractedValue",
							"type": "uint256"
						}
					],
					"name": "decreaseAllowance",
					"outputs": [
						{
							"internalType": "bool",
							"name": "",
							"type": "bool"
						}
					],
					"stateMutability": "nonpayable",
					"type": "function"
				},
				{
					"inputs": [
						{
							"internalType": "address",
							"name": "account",
							"type": "address"
						}
					],
					"name": "excludeFromFee",
					"outputs": [],
					"stateMutability": "nonpayable",
					"type": "function"
				},
				{
					"inputs": [
						{
							"internalType": "address",
							"name": "account",
							"type": "address"
						}
					],
					"name": "includeInFee",
					"outputs": [],
					"stateMutability": "nonpayable",
					"type": "function"
				},
				{
					"inputs": [
						{
							"internalType": "address",
							"name": "spender",
							"type": "address"
						},
						{
							"internalType": "uint256",
							"name": "addedValue",
							"type": "uint256"
						}
					],
					"name": "increaseAllowance",
					"outputs": [
						{
							"internalType": "bool",
							"name": "",
							"type": "bool"
						}
					],
					"stateMutability": "nonpayable",
					"type": "function"
				},
				{
					"inputs": [],
					"name": "isBlackList",
					"outputs": [
						{
							"internalType": "bool",
							"name": "",
							"type": "bool"
						}
					],
					"stateMutability": "view",
					"type": "function"
				},
				{
					"inputs": [],
					"name": "isSwapping",
					"outputs": [
						{
							"internalType": "bool",
							"name": "",
							"type": "bool"
						}
					],
					"stateMutability": "view",
					"type": "function"
				},
				{
					"inputs": [],
					"name": "name",
					"outputs": [
						{
							"internalType": "string",
							"name": "",
							"type": "string"
						}
					],
					"stateMutability": "view",
					"type": "function"
				},
				{
					"inputs": [],
					"name": "noTransferFee",
					"outputs": [
						{
							"internalType": "bool",
							"name": "",
							"type": "bool"
						}
					],
					"stateMutability": "view",
					"type": "function"
				},
				{
					"inputs": [],
					"name": "owner",
					"outputs": [
						{
							"internalType": "address",
							"name": "",
							"type": "address"
						}
					],
					"stateMutability": "view",
					"type": "function"
				},
				{
					"inputs": [
						{
							"internalType": "uint256",
							"name": "percent_Of_Tokens_To_Process",
							"type": "uint256"
						}
					],
					"name": "process_Tokens",
					"outputs": [],
					"stateMutability": "nonpayable",
					"type": "function"
				},
				{
					"inputs": [
						{
							"internalType": "address",
							"name": "Token_Address",
							"type": "address"
						},
						{
							"internalType": "address",
							"name": "send_to_wallet",
							"type": "address"
						},
						{
							"internalType": "uint256",
							"name": "number_of_tokens",
							"type": "uint256"
						}
					],
					"name": "recover_Tokens",
					"outputs": [
						{
							"internalType": "bool",
							"name": "_sent",
							"type": "bool"
						}
					],
					"stateMutability": "nonpayable",
					"type": "function"
				},
				{
					"inputs": [],
					"name": "renounceOwnership",
					"outputs": [],
					"stateMutability": "nonpayable",
					"type": "function"
				},
				{
					"inputs": [
						{
							"internalType": "uint256",
							"name": "maxTxPercent_x100",
							"type": "uint256"
						}
					],
					"name": "set_Max_TX_Percent",
					"outputs": [],
					"stateMutability": "nonpayable",
					"type": "function"
				},
				{
					"inputs": [
						{
							"internalType": "uint256",
							"name": "maxWallPercent_x100",
							"type": "uint256"
						}
					],
					"name": "set_Max_Wal_Percent",
					"outputs": [],
					"stateMutability": "nonpayable",
					"type": "function"
				},
				{
					"inputs": [
						{
							"internalType": "address",
							"name": "newPair",
							"type": "address"
						}
					],
					"name": "set_New_Pair_Address",
					"outputs": [],
					"stateMutability": "nonpayable",
					"type": "function"
				},
				{
					"inputs": [
						{
							"internalType": "address",
							"name": "newRouter",
							"type": "address"
						}
					],
					"name": "set_New_Router_Address",
					"outputs": [],
					"stateMutability": "nonpayable",
					"type": "function"
				},
				{
					"inputs": [
						{
							"internalType": "address",
							"name": "newRouter",
							"type": "address"
						}
					],
					"name": "set_New_Router_and_Make_Pair",
					"outputs": [],
					"stateMutability": "nonpayable",
					"type": "function"
				},
				{
					"inputs": [
						{
							"internalType": "uint8",
							"name": "number_of_transactions",
							"type": "uint8"
						}
					],
					"name": "set_Number_Of_Transactions_Before_Liquify_Trigger",
					"outputs": [],
					"stateMutability": "nonpayable",
					"type": "function"
				},
				{
					"inputs": [
						{
							"internalType": "bool",
							"name": "true_or_false",
							"type": "bool"
						}
					],
					"name": "set_Swap_And_Liquify_Enabled",
					"outputs": [],
					"stateMutability": "nonpayable",
					"type": "function"
				},
				{
					"inputs": [
						{
							"internalType": "bool",
							"name": "true_or_false",
							"type": "bool"
						}
					],
					"name": "set_TransferFees",
					"outputs": [],
					"stateMutability": "nonpayable",
					"type": "function"
				},
				{
					"inputs": [],
					"name": "swapAndLiqEnabled",
					"outputs": [
						{
							"internalType": "bool",
							"name": "",
							"type": "bool"
						}
					],
					"stateMutability": "view",
					"type": "function"
				},
				{
					"inputs": [],
					"name": "symbol",
					"outputs": [
						{
							"internalType": "string",
							"name": "",
							"type": "string"
						}
					],
					"stateMutability": "view",
					"type": "function"
				},
				{
					"inputs": [],
					"name": "totalSupply",
					"outputs": [
						{
							"internalType": "uint256",
							"name": "",
							"type": "uint256"
						}
					],
					"stateMutability": "view",
					"type": "function"
				},
				{
					"inputs": [
						{
							"internalType": "address",
							"name": "recipient",
							"type": "address"
						},
						{
							"internalType": "uint256",
							"name": "amount",
							"type": "uint256"
						}
					],
					"name": "transfer",
					"outputs": [
						{
							"internalType": "bool",
							"name": "",
							"type": "bool"
						}
					],
					"stateMutability": "nonpayable",
					"type": "function"
				},
				{
					"inputs": [
						{
							"internalType": "address",
							"name": "sender",
							"type": "address"
						},
						{
							"internalType": "address",
							"name": "recipient",
							"type": "address"
						},
						{
							"internalType": "uint256",
							"name": "amount",
							"type": "uint256"
						}
					],
					"name": "transferFrom",
					"outputs": [
						{
							"internalType": "bool",
							"name": "",
							"type": "bool"
						}
					],
					"stateMutability": "nonpayable",
					"type": "function"
				},
				{
					"inputs": [
						{
							"internalType": "address",
							"name": "newOwner",
							"type": "address"
						}
					],
					"name": "transferOwnership",
					"outputs": [],
					"stateMutability": "nonpayable",
					"type": "function"
				},
				{
					"inputs": [
						{
							"internalType": "address[]",
							"name": "addresses",
							"type": "address[]"
						}
					],
					"name": "unBlacklist_Wallets",
					"outputs": [],
					"stateMutability": "nonpayable",
					"type": "function"
				},
				{
					"inputs": [],
					"name": "uniswapV2Pair",
					"outputs": [
						{
							"internalType": "address",
							"name": "",
							"type": "address"
						}
					],
					"stateMutability": "view",
					"type": "function"
				},
				{
					"inputs": [],
					"name": "uniswapV2Router",
					"outputs": [
						{
							"internalType": "contract IUniswapV2Router02",
							"name": "",
							"type": "address"
						}
					],
					"stateMutability": "view",
					"type": "function"
				},
				{
					"stateMutability": "payable",
					"type": "receive"
				}
			],
			"devdoc": {
				"kind": "dev",
				"methods": {},
				"version": 1
			},
			"evm": {
				"assembly": "    /* \"XODEX2.sol\":11635:24936  contract XODEX is Context, IERC20, Ownable {... */\n  mstore(0x40, 0x80)\n    /* \"XODEX2.sol\":12223:12265  0x60EE6569662EE29295e2F09a0B657b8D535090b9 */\n  0x60ee6569662ee29295e2f09a0b657b8d535090b9\n    /* \"XODEX2.sol\":12178:12266  address payable private Dev_Wallet = payable(0x60EE6569662EE29295e2F09a0B657b8D535090b9) */\n  0x05\n  exp(0x0100, 0x01)\n  dup2\n  sload\n  dup2\n  0xffffffffffffffffffffffffffffffffffffffff\n  mul\n  not\n  and\n  swap1\n  dup4\n  0xffffffffffffffffffffffffffffffffffffffff\n  and\n  mul\n  or\n  swap1\n  sstore\n  pop\n    /* \"XODEX2.sol\":12393:12394  0 */\n  0x00\n    /* \"XODEX2.sol\":12369:12394  uint8 private txCount = 0 */\n  0x05\n  exp(0x0100, 0x15)\n  dup2\n  sload\n  dup2\n  0xff\n  mul\n  not\n  and\n  swap1\n  dup4\n  0xff\n  and\n  mul\n  or\n  swap1\n  sstore\n  pop\n    /* \"XODEX2.sol\":12428:12429  3 */\n  0x03\n    /* \"XODEX2.sol\":12400:12429  uint8 private swapTrigger = 3 */\n  0x05\n  exp(0x0100, 0x16)\n  dup2\n  sload\n  dup2\n  0xff\n  mul\n  not\n  and\n  swap1\n  dup4\n  0xff\n  and\n  mul\n  or\n  swap1\n  sstore\n  pop\n    /* \"XODEX2.sol\":12503:12505  10 */\n  0x0a\n    /* \"XODEX2.sol\":12470:12505  uint256 private maxTransferFee = 10 */\n  0x06\n  sstore\n    /* \"XODEX2.sol\":12538:12561  _tTotal.mul(2).div(100) */\n  tag_1\n    /* \"XODEX2.sol\":12557:12560  100 */\n  0x64\n    /* \"XODEX2.sol\":12538:12552  _tTotal.mul(2) */\n  tag_2\n    /* \"XODEX2.sol\":12550:12551  2 */\n  0x02\n    /* \"XODEX2.sol\":12121:12141  10000000000 * 10**18 */\n  0x204fce5e3e25026110000000\n    /* \"XODEX2.sol\":12538:12549  _tTotal.mul */\n  or(tag_0_267, shl(0x20, tag_3))\n  swap1\n    /* \"XODEX2.sol\":12538:12552  _tTotal.mul(2) */\n  swap2\n  swap1\n  0x20\n  shr\n  jump\t// in\ntag_2:\n    /* \"XODEX2.sol\":12538:12556  _tTotal.mul(2).div */\n  or(tag_0_268, shl(0x20, tag_4))\n  swap1\n    /* \"XODEX2.sol\":12538:12561  _tTotal.mul(2).div(100) */\n  swap2\n  swap1\n  0x20\n  shr\n  jump\t// in\ntag_1:\n    /* \"XODEX2.sol\":12511:12561  uint256 public _maxToken = _tTotal.mul(2).div(100) */\n  0x07\n  sstore\n    /* \"XODEX2.sol\":12599:12608  _maxToken */\n  sload(0x07)\n    /* \"XODEX2.sol\":12567:12608  uint256 private _prevMaxToken = _maxToken */\n  0x08\n  sstore\n    /* \"XODEX2.sol\":12644:12667  _tTotal.mul(1).div(100) */\n  tag_5\n    /* \"XODEX2.sol\":12663:12666  100 */\n  0x64\n    /* \"XODEX2.sol\":12644:12658  _tTotal.mul(1) */\n  tag_6\n    /* \"XODEX2.sol\":12656:12657  1 */\n  0x01\n    /* \"XODEX2.sol\":12121:12141  10000000000 * 10**18 */\n  0x204fce5e3e25026110000000\n    /* \"XODEX2.sol\":12644:12655  _tTotal.mul */\n  or(tag_0_267, shl(0x20, tag_3))\n  swap1\n    /* \"XODEX2.sol\":12644:12658  _tTotal.mul(1) */\n  swap2\n  swap1\n  0x20\n  shr\n  jump\t// in\ntag_6:\n    /* \"XODEX2.sol\":12644:12662  _tTotal.mul(1).div */\n  or(tag_0_268, shl(0x20, tag_4))\n  swap1\n    /* \"XODEX2.sol\":12644:12667  _tTotal.mul(1).div(100) */\n  swap2\n  swap1\n  0x20\n  shr\n  jump\t// in\ntag_5:\n    /* \"XODEX2.sol\":12614:12667  uint256 public _maxTxAmount = _tTotal.mul(1).div(100) */\n  0x09\n  sstore\n    /* \"XODEX2.sol\":12708:12720  _maxTxAmount */\n  sload(0x09)\n    /* \"XODEX2.sol\":12673:12720  uint256 private _prevMaxTxAmount = _maxTxAmount */\n  0x0a\n  sstore\n    /* \"XODEX2.sol\":12757:12759  10 */\n  0x0a\n    /* \"XODEX2.sol\":12727:12759  uint256 public _TransferFee = 10 */\n  0x0b\n  sstore\n    /* \"XODEX2.sol\":12790:12791  5 */\n  0x05\n    /* \"XODEX2.sol\":12765:12791  uint256 public _buyFee = 5 */\n  0x0c\n  sstore\n    /* \"XODEX2.sol\":12823:12824  5 */\n  0x05\n    /* \"XODEX2.sol\":12797:12824  uint256 public _sellFee = 5 */\n  0x0d\n  sstore\n    /* \"XODEX2.sol\":12857:12869  _TransferFee */\n  sload(0x0b)\n    /* \"XODEX2.sol\":12830:12869  uint256 public _TotalFee = _TransferFee */\n  0x0e\n  sstore\n    /* \"XODEX2.sol\":12905:12909  true */\n  0x01\n    /* \"XODEX2.sol\":12877:12909  bool public noTransferFee = true */\n  0x0f\n  exp(0x0100, 0x00)\n  dup2\n  sload\n  dup2\n  0xff\n  mul\n  not\n  and\n  swap1\n  dup4\n  iszero\n  iszero\n  mul\n  or\n  swap1\n  sstore\n  pop\n    /* \"XODEX2.sol\":13057:13061  true */\n  0x01\n    /* \"XODEX2.sol\":13025:13061  bool public swapAndLiqEnabled = true */\n  0x10\n  exp(0x0100, 0x15)\n  dup2\n  sload\n  dup2\n  0xff\n  mul\n  not\n  and\n  swap1\n  dup4\n  iszero\n  iszero\n  mul\n  or\n  swap1\n  sstore\n  pop\n    /* \"XODEX2.sol\":13320:13888  constructor() {... */\n  callvalue\n  dup1\n  iszero\n  tag_7\n  jumpi\n  0x00\n  dup1\n  revert\ntag_7:\n  pop\n    /* \"XODEX2.sol\":2130:2172  0xc402FE06948516567f2E59AB88172FEE49F5a84c */\n  0xc402fe06948516567f2e59ab88172fee49f5a84c\n    /* \"XODEX2.sol\":2121:2127  _owner */\n  0x00\n  dup1\n    /* \"XODEX2.sol\":2121:2172  _owner = 0xc402FE06948516567f2E59AB88172FEE49F5a84c */\n  0x0100\n  exp\n  dup2\n  sload\n  dup2\n  0xffffffffffffffffffffffffffffffffffffffff\n  mul\n  not\n  and\n  swap1\n  dup4\n  0xffffffffffffffffffffffffffffffffffffffff\n  and\n  mul\n  or\n  swap1\n  sstore\n  pop\n    /* \"XODEX2.sol\":2220:2226  _owner */\n  0x00\n  dup1\n  sload\n  swap1\n  0x0100\n  exp\n  swap1\n  div\n  0xffffffffffffffffffffffffffffffffffffffff\n  and\n    /* \"XODEX2.sol\":2187:2227  OwnershipTransferred(address(0), _owner) */\n  0xffffffffffffffffffffffffffffffffffffffff\n  and\n    /* \"XODEX2.sol\":2216:2217  0 */\n  0x00\n    /* \"XODEX2.sol\":2187:2227  OwnershipTransferred(address(0), _owner) */\n  0xffffffffffffffffffffffffffffffffffffffff\n  and\n  0x8be0079c531659141344cd1fd0a4f28419497f9722a3daafe3b4186f6b6457e0\n  mload(0x40)\n  mload(0x40)\n  dup1\n  swap2\n  sub\n  swap1\n  log3\n    /* \"XODEX2.sol\":12121:12141  10000000000 * 10**18 */\n  0x204fce5e3e25026110000000\n    /* \"XODEX2.sol\":13344:13355  _totalOwned */\n  0x01\n    /* \"XODEX2.sol\":13344:13364  _totalOwned[owner()] */\n  0x00\n    /* \"XODEX2.sol\":13356:13363  owner() */\n  tag_12\n    /* \"XODEX2.sol\":13356:13361  owner */\n  shl(0x20, tag_13)\n    /* \"XODEX2.sol\":13356:13363  owner() */\n  0x20\n  shr\n  jump\t// in\ntag_12:\n    /* \"XODEX2.sol\":13344:13364  _totalOwned[owner()] */\n  0xffffffffffffffffffffffffffffffffffffffff\n  and\n  0xffffffffffffffffffffffffffffffffffffffff\n  and\n  dup2\n  mstore\n  0x20\n  add\n  swap1\n  dup2\n  mstore\n  0x20\n  add\n  0x00\n  keccak256\n    /* \"XODEX2.sol\":13344:13374  _totalOwned[owner()] = _tTotal */\n  dup2\n  swap1\n  sstore\n  pop\n    /* \"XODEX2.sol\":13385:13420  IUniswapV2Router02 _uniswapV2Router */\n  0x00\n    /* \"XODEX2.sol\":13442:13484  0x10ED43C718714eb63d5aA57B78B54704E256024E */\n  0x10ed43c718714eb63d5aa57b78b54704e256024e\n    /* \"XODEX2.sol\":13385:13485  IUniswapV2Router02 _uniswapV2Router = IUniswapV2Router02(0x10ED43C718714eb63d5aA57B78B54704E256024E) */\n  swap1\n  pop\n    /* \"XODEX2.sol\":13530:13546  _uniswapV2Router */\n  dup1\n    /* \"XODEX2.sol\":13530:13554  _uniswapV2Router.factory */\n  0xffffffffffffffffffffffffffffffffffffffff\n  and\n  0xc45a0155\n    /* \"XODEX2.sol\":13530:13556  _uniswapV2Router.factory() */\n  mload(0x40)\n  dup2\n  0xffffffff\n  and\n  0xe0\n  shl\n  dup2\n  mstore\n  0x04\n  add\n  0x20\n  mload(0x40)\n  dup1\n  dup4\n  sub\n  dup2\n  dup7\n  gas\n  staticcall\n  iszero\n  dup1\n  iszero\n  tag_15\n  jumpi\n  returndatasize\n  0x00\n  dup1\n  returndatacopy\n  revert(0x00, returndatasize)\ntag_15:\n  pop\n  pop\n  pop\n  pop\n  mload(0x40)\n  returndatasize\n  not(0x1f)\n  0x1f\n  dup3\n  add\n  and\n  dup3\n  add\n  dup1\n  0x40\n  mstore\n  pop\n  dup2\n  add\n  swap1\n  tag_16\n  swap2\n  swap1\n  tag_17\n  jump\t// in\ntag_16:\n    /* \"XODEX2.sol\":13512:13568  IUniswapV2Factory(_uniswapV2Router.factory()).createPair */\n  0xffffffffffffffffffffffffffffffffffffffff\n  and\n  0xc9c65396\n    /* \"XODEX2.sol\":13590:13594  this */\n  address\n    /* \"XODEX2.sol\":13609:13625  _uniswapV2Router */\n  dup4\n    /* \"XODEX2.sol\":13609:13630  _uniswapV2Router.WETH */\n  0xffffffffffffffffffffffffffffffffffffffff\n  and\n  0xad5c4648\n    /* \"XODEX2.sol\":13609:13632  _uniswapV2Router.WETH() */\n  mload(0x40)\n  dup2\n  0xffffffff\n  and\n  0xe0\n  shl\n  dup2\n  mstore\n  0x04\n  add\n  0x20\n  mload(0x40)\n  dup1\n  dup4\n  sub\n  dup2\n  dup7\n  gas\n  staticcall\n  iszero\n  dup1\n  iszero\n  tag_19\n  jumpi\n  returndatasize\n  0x00\n  dup1\n  returndatacopy\n  revert(0x00, returndatasize)\ntag_19:\n  pop\n  pop\n  pop\n  pop\n  mload(0x40)\n  returndatasize\n  not(0x1f)\n  0x1f\n  dup3\n  add\n  and\n  dup3\n  add\n  dup1\n  0x40\n  mstore\n  pop\n  dup2\n  add\n  swap1\n  tag_20\n  swap2\n  swap1\n  tag_17\n  jump\t// in\ntag_20:\n    /* \"XODEX2.sol\":13512:13642  IUniswapV2Factory(_uniswapV2Router.factory()).createPair(... */\n  mload(0x40)\n  dup4\n  0xffffffff\n  and\n  0xe0\n  shl\n  dup2\n  mstore\n  0x04\n  add\n  tag_21\n  swap3\n  swap2\n  swap1\n  tag_22\n  jump\t// in\ntag_21:\n  0x20\n  mload(0x40)\n  dup1\n  dup4\n  sub\n  dup2\n  0x00\n  dup8\n  gas\n  call\n  iszero\n  dup1\n  iszero\n  tag_24\n  jumpi\n  returndatasize\n  0x00\n  dup1\n  returndatacopy\n  revert(0x00, returndatasize)\ntag_24:\n  pop\n  pop\n  pop\n  pop\n  mload(0x40)\n  returndatasize\n  not(0x1f)\n  0x1f\n  dup3\n  add\n  and\n  dup3\n  add\n  dup1\n  0x40\n  mstore\n  pop\n  dup2\n  add\n  swap1\n  tag_25\n  swap2\n  swap1\n  tag_17\n  jump\t// in\ntag_25:\n    /* \"XODEX2.sol\":13496:13509  uniswapV2Pair */\n  0x10\n  0x00\n    /* \"XODEX2.sol\":13496:13642  uniswapV2Pair = IUniswapV2Factory(_uniswapV2Router.factory()).createPair(... */\n  0x0100\n  exp\n  dup2\n  sload\n  dup2\n  0xffffffffffffffffffffffffffffffffffffffff\n  mul\n  not\n  and\n  swap1\n  dup4\n  0xffffffffffffffffffffffffffffffffffffffff\n  and\n  mul\n  or\n  swap1\n  sstore\n  pop\n    /* \"XODEX2.sol\":13670:13686  _uniswapV2Router */\n  dup1\n    /* \"XODEX2.sol\":13652:13667  uniswapV2Router */\n  0x0f\n  0x01\n    /* \"XODEX2.sol\":13652:13686  uniswapV2Router = _uniswapV2Router */\n  0x0100\n  exp\n  dup2\n  sload\n  dup2\n  0xffffffffffffffffffffffffffffffffffffffff\n  mul\n  not\n  and\n  swap1\n  dup4\n  0xffffffffffffffffffffffffffffffffffffffff\n  and\n  mul\n  or\n  swap1\n  sstore\n  pop\n    /* \"XODEX2.sol\":13726:13730  true */\n  0x01\n    /* \"XODEX2.sol\":13696:13714  _isExcludedFromFee */\n  0x03\n    /* \"XODEX2.sol\":13696:13723  _isExcludedFromFee[owner()] */\n  0x00\n    /* \"XODEX2.sol\":13715:13722  owner() */\n  tag_26\n    /* \"XODEX2.sol\":13715:13720  owner */\n  shl(0x20, tag_13)\n    /* \"XODEX2.sol\":13715:13722  owner() */\n  0x20\n  shr\n  jump\t// in\ntag_26:\n    /* \"XODEX2.sol\":13696:13723  _isExcludedFromFee[owner()] */\n  0xffffffffffffffffffffffffffffffffffffffff\n  and\n  0xffffffffffffffffffffffffffffffffffffffff\n  and\n  dup2\n  mstore\n  0x20\n  add\n  swap1\n  dup2\n  mstore\n  0x20\n  add\n  0x00\n  keccak256\n  0x00\n    /* \"XODEX2.sol\":13696:13730  _isExcludedFromFee[owner()] = true */\n  0x0100\n  exp\n  dup2\n  sload\n  dup2\n  0xff\n  mul\n  not\n  and\n  swap1\n  dup4\n  iszero\n  iszero\n  mul\n  or\n  swap1\n  sstore\n  pop\n    /* \"XODEX2.sol\":13776:13780  true */\n  0x01\n    /* \"XODEX2.sol\":13740:13758  _isExcludedFromFee */\n  0x03\n    /* \"XODEX2.sol\":13740:13773  _isExcludedFromFee[address(this)] */\n  0x00\n    /* \"XODEX2.sol\":13767:13771  this */\n  address\n    /* \"XODEX2.sol\":13740:13773  _isExcludedFromFee[address(this)] */\n  0xffffffffffffffffffffffffffffffffffffffff\n  and\n  0xffffffffffffffffffffffffffffffffffffffff\n  and\n  dup2\n  mstore\n  0x20\n  add\n  swap1\n  dup2\n  mstore\n  0x20\n  add\n  0x00\n  keccak256\n  0x00\n    /* \"XODEX2.sol\":13740:13780  _isExcludedFromFee[address(this)] = true */\n  0x0100\n  exp\n  dup2\n  sload\n  dup2\n  0xff\n  mul\n  not\n  and\n  swap1\n  dup4\n  iszero\n  iszero\n  mul\n  or\n  swap1\n  sstore\n  pop\n    /* \"XODEX2.sol\":13823:13827  true */\n  0x01\n    /* \"XODEX2.sol\":13790:13808  _isExcludedFromFee */\n  0x03\n    /* \"XODEX2.sol\":13790:13820  _isExcludedFromFee[Dev_Wallet] */\n  0x00\n    /* \"XODEX2.sol\":13809:13819  Dev_Wallet */\n  0x05\n  0x01\n  swap1\n  sload\n  swap1\n  0x0100\n  exp\n  swap1\n  div\n  0xffffffffffffffffffffffffffffffffffffffff\n  and\n    /* \"XODEX2.sol\":13790:13820  _isExcludedFromFee[Dev_Wallet] */\n  0xffffffffffffffffffffffffffffffffffffffff\n  and\n  0xffffffffffffffffffffffffffffffffffffffff\n  and\n  dup2\n  mstore\n  0x20\n  add\n  swap1\n  dup2\n  mstore\n  0x20\n  add\n  0x00\n  keccak256\n  0x00\n    /* \"XODEX2.sol\":13790:13827  _isExcludedFromFee[Dev_Wallet] = true */\n  0x0100\n  exp\n  dup2\n  sload\n  dup2\n  0xff\n  mul\n  not\n  and\n  swap1\n  dup4\n  iszero\n  iszero\n  mul\n  or\n  swap1\n  sstore\n  pop\n    /* \"XODEX2.sol\":13864:13871  owner() */\n  tag_27\n    /* \"XODEX2.sol\":13864:13869  owner */\n  shl(0x20, tag_13)\n    /* \"XODEX2.sol\":13864:13871  owner() */\n  0x20\n  shr\n  jump\t// in\ntag_27:\n    /* \"XODEX2.sol\":13843:13881  Transfer(address(0), owner(), _tTotal) */\n  0xffffffffffffffffffffffffffffffffffffffff\n  and\n    /* \"XODEX2.sol\":13860:13861  0 */\n  0x00\n    /* \"XODEX2.sol\":13843:13881  Transfer(address(0), owner(), _tTotal) */\n  0xffffffffffffffffffffffffffffffffffffffff\n  and\n  0xddf252ad1be2c89b69c2b068fc378daa952ba7f163c4a11628f55a4df523b3ef\n    /* \"XODEX2.sol\":12121:12141  10000000000 * 10**18 */\n  0x204fce5e3e25026110000000\n    /* \"XODEX2.sol\":13843:13881  Transfer(address(0), owner(), _tTotal) */\n  mload(0x40)\n  tag_28\n  swap2\n  swap1\n  tag_29\n  jump\t// in\ntag_28:\n  mload(0x40)\n  dup1\n  swap2\n  sub\n  swap1\n  log3\n    /* \"XODEX2.sol\":13334:13888  {... */\n  pop\n    /* \"XODEX2.sol\":11635:24936  contract XODEX is Context, IERC20, Ownable {... */\n  jump(tag_30)\n    /* \"XODEX2.sol\":983:1079  function mul(uint256 a, uint256 b) internal pure returns (uint256) {... */\ntag_3:\n    /* \"XODEX2.sol\":1041:1048  uint256 */\n  0x00\n    /* \"XODEX2.sol\":1071:1072  b */\n  dup2\n    /* \"XODEX2.sol\":1067:1068  a */\n  dup4\n    /* \"XODEX2.sol\":1067:1072  a * b */\n  tag_32\n  swap2\n  swap1\n  tag_33\n  jump\t// in\ntag_32:\n    /* \"XODEX2.sol\":1060:1072  return a * b */\n  swap1\n  pop\n    /* \"XODEX2.sol\":983:1079  function mul(uint256 a, uint256 b) internal pure returns (uint256) {... */\n  swap3\n  swap2\n  pop\n  pop\n  jump\t// out\n    /* \"XODEX2.sol\":1085:1181  function div(uint256 a, uint256 b) internal pure returns (uint256) {... */\ntag_4:\n    /* \"XODEX2.sol\":1143:1150  uint256 */\n  0x00\n    /* \"XODEX2.sol\":1173:1174  b */\n  dup2\n    /* \"XODEX2.sol\":1169:1170  a */\n  dup4\n    /* \"XODEX2.sol\":1169:1174  a / b */\n  tag_35\n  swap2\n  swap1\n  tag_36\n  jump\t// in\ntag_35:\n    /* \"XODEX2.sol\":1162:1174  return a / b */\n  swap1\n  pop\n    /* \"XODEX2.sol\":1085:1181  function div(uint256 a, uint256 b) internal pure returns (uint256) {... */\n  swap3\n  swap2\n  pop\n  pop\n  jump\t// out\n    /* \"XODEX2.sol\":2268:2353  function owner() public view virtual returns (address) {... */\ntag_13:\n    /* \"XODEX2.sol\":2314:2321  address */\n  0x00\n    /* \"XODEX2.sol\":2340:2346  _owner */\n  dup1\n  0x00\n  swap1\n  sload\n  swap1\n  0x0100\n  exp\n  swap1\n  div\n  0xffffffffffffffffffffffffffffffffffffffff\n  and\n    /* \"XODEX2.sol\":2333:2346  return _owner */\n  swap1\n  pop\n    /* \"XODEX2.sol\":2268:2353  function owner() public view virtual returns (address) {... */\n  swap1\n  jump\t// out\n    /* \"#utility.yul\":88:205   */\ntag_39:\n    /* \"#utility.yul\":197:198   */\n  0x00\n    /* \"#utility.yul\":194:195   */\n  dup1\n    /* \"#utility.yul\":187:199   */\n  revert\n    /* \"#utility.yul\":334:460   */\ntag_41:\n    /* \"#utility.yul\":371:378   */\n  0x00\n    /* \"#utility.yul\":411:453   */\n  0xffffffffffffffffffffffffffffffffffffffff\n    /* \"#utility.yul\":404:409   */\n  dup3\n    /* \"#utility.yul\":400:454   */\n  and\n    /* \"#utility.yul\":389:454   */\n  swap1\n  pop\n    /* \"#utility.yul\":334:460   */\n  swap2\n  swap1\n  pop\n  jump\t// out\n    /* \"#utility.yul\":466:562   */\ntag_42:\n    /* \"#utility.yul\":503:510   */\n  0x00\n    /* \"#utility.yul\":532:556   */\n  tag_56\n    /* \"#utility.yul\":550:555   */\n  dup3\n    /* \"#utility.yul\":532:556   */\n  tag_41\n  jump\t// in\ntag_56:\n    /* \"#utility.yul\":521:556   */\n  swap1\n  pop\n    /* \"#utility.yul\":466:562   */\n  swap2\n  swap1\n  pop\n  jump\t// out\n    /* \"#utility.yul\":568:690   */\ntag_43:\n    /* \"#utility.yul\":641:665   */\n  tag_58\n    /* \"#utility.yul\":659:664   */\n  dup2\n    /* \"#utility.yul\":641:665   */\n  tag_42\n  jump\t// in\ntag_58:\n    /* \"#utility.yul\":634:639   */\n  dup2\n    /* \"#utility.yul\":631:666   */\n  eq\n    /* \"#utility.yul\":621:684   */\n  tag_59\n  jumpi\n    /* \"#utility.yul\":680:681   */\n  0x00\n    /* \"#utility.yul\":677:678   */\n  dup1\n    /* \"#utility.yul\":670:682   */\n  revert\n    /* \"#utility.yul\":621:684   */\ntag_59:\n    /* \"#utility.yul\":568:690   */\n  pop\n  jump\t// out\n    /* \"#utility.yul\":696:839   */\ntag_44:\n    /* \"#utility.yul\":753:758   */\n  0x00\n    /* \"#utility.yul\":784:790   */\n  dup2\n    /* \"#utility.yul\":778:791   */\n  mload\n    /* \"#utility.yul\":769:791   */\n  swap1\n  pop\n    /* \"#utility.yul\":800:833   */\n  tag_61\n    /* \"#utility.yul\":827:832   */\n  dup2\n    /* \"#utility.yul\":800:833   */\n  tag_43\n  jump\t// in\ntag_61:\n    /* \"#utility.yul\":696:839   */\n  swap3\n  swap2\n  pop\n  pop\n  jump\t// out\n    /* \"#utility.yul\":845:1196   */\ntag_17:\n    /* \"#utility.yul\":915:921   */\n  0x00\n    /* \"#utility.yul\":964:966   */\n  0x20\n    /* \"#utility.yul\":952:961   */\n  dup3\n    /* \"#utility.yul\":943:950   */\n  dup5\n    /* \"#utility.yul\":939:962   */\n  sub\n    /* \"#utility.yul\":935:967   */\n  slt\n    /* \"#utility.yul\":932:1051   */\n  iszero\n  tag_63\n  jumpi\n    /* \"#utility.yul\":970:1049   */\n  tag_64\n  tag_39\n  jump\t// in\ntag_64:\n    /* \"#utility.yul\":932:1051   */\ntag_63:\n    /* \"#utility.yul\":1090:1091   */\n  0x00\n    /* \"#utility.yul\":1115:1179   */\n  tag_65\n    /* \"#utility.yul\":1171:1178   */\n  dup5\n    /* \"#utility.yul\":1162:1168   */\n  dup3\n    /* \"#utility.yul\":1151:1160   */\n  dup6\n    /* \"#utility.yul\":1147:1169   */\n  add\n    /* \"#utility.yul\":1115:1179   */\n  tag_44\n  jump\t// in\ntag_65:\n    /* \"#utility.yul\":1105:1179   */\n  swap2\n  pop\n    /* \"#utility.yul\":1061:1189   */\n  pop\n    /* \"#utility.yul\":845:1196   */\n  swap3\n  swap2\n  pop\n  pop\n  jump\t// out\n    /* \"#utility.yul\":1202:1320   */\ntag_45:\n    /* \"#utility.yul\":1289:1313   */\n  tag_67\n    /* \"#utility.yul\":1307:1312   */\n  dup2\n    /* \"#utility.yul\":1289:1313   */\n  tag_42\n  jump\t// in\ntag_67:\n    /* \"#utility.yul\":1284:1287   */\n  dup3\n    /* \"#utility.yul\":1277:1314   */\n  mstore\n    /* \"#utility.yul\":1202:1320   */\n  pop\n  pop\n  jump\t// out\n    /* \"#utility.yul\":1326:1658   */\ntag_22:\n    /* \"#utility.yul\":1447:1451   */\n  0x00\n    /* \"#utility.yul\":1485:1487   */\n  0x40\n    /* \"#utility.yul\":1474:1483   */\n  dup3\n    /* \"#utility.yul\":1470:1488   */\n  add\n    /* \"#utility.yul\":1462:1488   */\n  swap1\n  pop\n    /* \"#utility.yul\":1498:1569   */\n  tag_69\n    /* \"#utility.yul\":1566:1567   */\n  0x00\n    /* \"#utility.yul\":1555:1564   */\n  dup4\n    /* \"#utility.yul\":1551:1568   */\n  add\n    /* \"#utility.yul\":1542:1548   */\n  dup6\n    /* \"#utility.yul\":1498:1569   */\n  tag_45\n  jump\t// in\ntag_69:\n    /* \"#utility.yul\":1579:1651   */\n  tag_70\n    /* \"#utility.yul\":1647:1649   */\n  0x20\n    /* \"#utility.yul\":1636:1645   */\n  dup4\n    /* \"#utility.yul\":1632:1650   */\n  add\n    /* \"#utility.yul\":1623:1629   */\n  dup5\n    /* \"#utility.yul\":1579:1651   */\n  tag_45\n  jump\t// in\ntag_70:\n    /* \"#utility.yul\":1326:1658   */\n  swap4\n  swap3\n  pop\n  pop\n  pop\n  jump\t// out\n    /* \"#utility.yul\":1664:1741   */\ntag_46:\n    /* \"#utility.yul\":1701:1708   */\n  0x00\n    /* \"#utility.yul\":1730:1735   */\n  dup2\n    /* \"#utility.yul\":1719:1735   */\n  swap1\n  pop\n    /* \"#utility.yul\":1664:1741   */\n  swap2\n  swap1\n  pop\n  jump\t// out\n    /* \"#utility.yul\":1747:1865   */\ntag_47:\n    /* \"#utility.yul\":1834:1858   */\n  tag_73\n    /* \"#utility.yul\":1852:1857   */\n  dup2\n    /* \"#utility.yul\":1834:1858   */\n  tag_46\n  jump\t// in\ntag_73:\n    /* \"#utility.yul\":1829:1832   */\n  dup3\n    /* \"#utility.yul\":1822:1859   */\n  mstore\n    /* \"#utility.yul\":1747:1865   */\n  pop\n  pop\n  jump\t// out\n    /* \"#utility.yul\":1871:2093   */\ntag_29:\n    /* \"#utility.yul\":1964:1968   */\n  0x00\n    /* \"#utility.yul\":2002:2004   */\n  0x20\n    /* \"#utility.yul\":1991:2000   */\n  dup3\n    /* \"#utility.yul\":1987:2005   */\n  add\n    /* \"#utility.yul\":1979:2005   */\n  swap1\n  pop\n    /* \"#utility.yul\":2015:2086   */\n  tag_75\n    /* \"#utility.yul\":2083:2084   */\n  0x00\n    /* \"#utility.yul\":2072:2081   */\n  dup4\n    /* \"#utility.yul\":2068:2085   */\n  add\n    /* \"#utility.yul\":2059:2065   */\n  dup5\n    /* \"#utility.yul\":2015:2086   */\n  tag_47\n  jump\t// in\ntag_75:\n    /* \"#utility.yul\":1871:2093   */\n  swap3\n  swap2\n  pop\n  pop\n  jump\t// out\n    /* \"#utility.yul\":2099:2279   */\ntag_48:\n    /* \"#utility.yul\":2147:2224   */\n  0x4e487b7100000000000000000000000000000000000000000000000000000000\n    /* \"#utility.yul\":2144:2145   */\n  0x00\n    /* \"#utility.yul\":2137:2225   */\n  mstore\n    /* \"#utility.yul\":2244:2248   */\n  0x11\n    /* \"#utility.yul\":2241:2242   */\n  0x04\n    /* \"#utility.yul\":2234:2249   */\n  mstore\n    /* \"#utility.yul\":2268:2272   */\n  0x24\n    /* \"#utility.yul\":2265:2266   */\n  0x00\n    /* \"#utility.yul\":2258:2273   */\n  revert\n    /* \"#utility.yul\":2285:2695   */\ntag_33:\n    /* \"#utility.yul\":2325:2332   */\n  0x00\n    /* \"#utility.yul\":2348:2368   */\n  tag_78\n    /* \"#utility.yul\":2366:2367   */\n  dup3\n    /* \"#utility.yul\":2348:2368   */\n  tag_46\n  jump\t// in\ntag_78:\n    /* \"#utility.yul\":2343:2368   */\n  swap2\n  pop\n    /* \"#utility.yul\":2382:2402   */\n  tag_79\n    /* \"#utility.yul\":2400:2401   */\n  dup4\n    /* \"#utility.yul\":2382:2402   */\n  tag_46\n  jump\t// in\ntag_79:\n    /* \"#utility.yul\":2377:2402   */\n  swap3\n  pop\n    /* \"#utility.yul\":2437:2438   */\n  dup3\n    /* \"#utility.yul\":2434:2435   */\n  dup3\n    /* \"#utility.yul\":2430:2439   */\n  mul\n    /* \"#utility.yul\":2459:2489   */\n  tag_80\n    /* \"#utility.yul\":2477:2488   */\n  dup2\n    /* \"#utility.yul\":2459:2489   */\n  tag_46\n  jump\t// in\ntag_80:\n    /* \"#utility.yul\":2448:2489   */\n  swap2\n  pop\n    /* \"#utility.yul\":2638:2639   */\n  dup3\n    /* \"#utility.yul\":2629:2636   */\n  dup3\n    /* \"#utility.yul\":2625:2640   */\n  div\n    /* \"#utility.yul\":2622:2623   */\n  dup5\n    /* \"#utility.yul\":2619:2641   */\n  eq\n    /* \"#utility.yul\":2599:2600   */\n  dup4\n    /* \"#utility.yul\":2592:2601   */\n  iszero\n    /* \"#utility.yul\":2572:2655   */\n  or\n    /* \"#utility.yul\":2549:2688   */\n  tag_81\n  jumpi\n    /* \"#utility.yul\":2668:2686   */\n  tag_82\n  tag_48\n  jump\t// in\ntag_82:\n    /* \"#utility.yul\":2549:2688   */\ntag_81:\n    /* \"#utility.yul\":2333:2695   */\n  pop\n    /* \"#utility.yul\":2285:2695   */\n  swap3\n  swap2\n  pop\n  pop\n  jump\t// out\n    /* \"#utility.yul\":2701:2881   */\ntag_49:\n    /* \"#utility.yul\":2749:2826   */\n  0x4e487b7100000000000000000000000000000000000000000000000000000000\n    /* \"#utility.yul\":2746:2747   */\n  0x00\n    /* \"#utility.yul\":2739:2827   */\n  mstore\n    /* \"#utility.yul\":2846:2850   */\n  0x12\n    /* \"#utility.yul\":2843:2844   */\n  0x04\n    /* \"#utility.yul\":2836:2851   */\n  mstore\n    /* \"#utility.yul\":2870:2874   */\n  0x24\n    /* \"#utility.yul\":2867:2868   */\n  0x00\n    /* \"#utility.yul\":2860:2875   */\n  revert\n    /* \"#utility.yul\":2887:3072   */\ntag_36:\n    /* \"#utility.yul\":2927:2928   */\n  0x00\n    /* \"#utility.yul\":2944:2964   */\n  tag_85\n    /* \"#utility.yul\":2962:2963   */\n  dup3\n    /* \"#utility.yul\":2944:2964   */\n  tag_46\n  jump\t// in\ntag_85:\n    /* \"#utility.yul\":2939:2964   */\n  swap2\n  pop\n    /* \"#utility.yul\":2978:2998   */\n  tag_86\n    /* \"#utility.yul\":2996:2997   */\n  dup4\n    /* \"#utility.yul\":2978:2998   */\n  tag_46\n  jump\t// in\ntag_86:\n    /* \"#utility.yul\":2973:2998   */\n  swap3\n  pop\n    /* \"#utility.yul\":3017:3018   */\n  dup3\n    /* \"#utility.yul\":3007:3042   */\n  tag_87\n  jumpi\n    /* \"#utility.yul\":3022:3040   */\n  tag_88\n  tag_49\n  jump\t// in\ntag_88:\n    /* \"#utility.yul\":3007:3042   */\ntag_87:\n    /* \"#utility.yul\":3064:3065   */\n  dup3\n    /* \"#utility.yul\":3061:3062   */\n  dup3\n    /* \"#utility.yul\":3057:3066   */\n  div\n    /* \"#utility.yul\":3052:3066   */\n  swap1\n  pop\n    /* \"#utility.yul\":2887:3072   */\n  swap3\n  swap2\n  pop\n  pop\n  jump\t// out\n    /* \"XODEX2.sol\":11635:24936  contract XODEX is Context, IERC20, Ownable {... */\ntag_30:\n  dataSize(sub_0)\n  dup1\n  dataOffset(sub_0)\n  0x00\n  codecopy\n  0x00\n  return\nstop\n\nsub_0: assembly {\n        /* \"XODEX2.sol\":11635:24936  contract XODEX is Context, IERC20, Ownable {... */\n      mstore(0x40, 0x80)\n      jumpi(tag_1, lt(calldatasize, 0x04))\n      shr(0xe0, calldataload(0x00))\n      dup1\n      0x70a08231\n      gt\n      tag_49\n      jumpi\n      dup1\n      0xa9059cbb\n      gt\n      tag_50\n      jumpi\n      dup1\n      0xdcff0237\n      gt\n      tag_51\n      jumpi\n      dup1\n      0xdcff0237\n      eq\n      tag_43\n      jumpi\n      dup1\n      0xdd62ed3e\n      eq\n      tag_44\n      jumpi\n      dup1\n      0xea2f0b37\n      eq\n      tag_45\n      jumpi\n      dup1\n      0xf2fde38b\n      eq\n      tag_46\n      jumpi\n      dup1\n      0xf73980f9\n      eq\n      tag_47\n      jumpi\n      dup1\n      0xf7739b5f\n      eq\n      tag_48\n      jumpi\n      jump(tag_2)\n    tag_51:\n      dup1\n      0xa9059cbb\n      eq\n      tag_37\n      jumpi\n      dup1\n      0xae7bd3f2\n      eq\n      tag_38\n      jumpi\n      dup1\n      0xb8863115\n      eq\n      tag_39\n      jumpi\n      dup1\n      0xba6a6cdb\n      eq\n      tag_40\n      jumpi\n      dup1\n      0xc7039528\n      eq\n      tag_41\n      jumpi\n      dup1\n      0xd785d5be\n      eq\n      tag_42\n      jumpi\n      jump(tag_2)\n    tag_50:\n      dup1\n      0x85ae099f\n      gt\n      tag_52\n      jumpi\n      dup1\n      0x85ae099f\n      eq\n      tag_31\n      jumpi\n      dup1\n      0x8da5cb5b\n      eq\n      tag_32\n      jumpi\n      dup1\n      0x95d89b41\n      eq\n      tag_33\n      jumpi\n      dup1\n      0xa01cbf9a\n      eq\n      tag_34\n      jumpi\n      dup1\n      0xa2a02c33\n      eq\n      tag_35\n      jumpi\n      dup1\n      0xa457c2d7\n      eq\n      tag_36\n      jumpi\n      jump(tag_2)\n    tag_52:\n      dup1\n      0x70a08231\n      eq\n      tag_26\n      jumpi\n      dup1\n      0x715018a6\n      eq\n      tag_27\n      jumpi\n      dup1\n      0x768dc710\n      eq\n      tag_28\n      jumpi\n      dup1\n      0x7caefa89\n      eq\n      tag_29\n      jumpi\n      dup1\n      0x7d1db4a5\n      eq\n      tag_30\n      jumpi\n      jump(tag_2)\n    tag_49:\n      dup1\n      0x2f536344\n      gt\n      tag_53\n      jumpi\n      dup1\n      0x437823ec\n      gt\n      tag_54\n      jumpi\n      dup1\n      0x437823ec\n      eq\n      tag_20\n      jumpi\n      dup1\n      0x46258ab3\n      eq\n      tag_21\n      jumpi\n      dup1\n      0x49bd5a5e\n      eq\n      tag_22\n      jumpi\n      dup1\n      0x5238f0e3\n      eq\n      tag_23\n      jumpi\n      dup1\n      0x590f897e\n      eq\n      tag_24\n      jumpi\n      dup1\n      0x67cbd84c\n      eq\n      tag_25\n      jumpi\n      jump(tag_2)\n    tag_54:\n      dup1\n      0x2f536344\n      eq\n      tag_14\n      jumpi\n      dup1\n      0x313ce567\n      eq\n      tag_15\n      jumpi\n      dup1\n      0x36b1a1bc\n      eq\n      tag_16\n      jumpi\n      dup1\n      0x39509351\n      eq\n      tag_17\n      jumpi\n      dup1\n      0x3e66c435\n      eq\n      tag_18\n      jumpi\n      dup1\n      0x40b9a54b\n      eq\n      tag_19\n      jumpi\n      jump(tag_2)\n    tag_53:\n      dup1\n      0x18160ddd\n      gt\n      tag_55\n      jumpi\n      dup1\n      0x18160ddd\n      eq\n      tag_8\n      jumpi\n      dup1\n      0x1b123b71\n      eq\n      tag_9\n      jumpi\n      dup1\n      0x1cdd3be3\n      eq\n      tag_10\n      jumpi\n      dup1\n      0x23b872dd\n      eq\n      tag_11\n      jumpi\n      dup1\n      0x2a77c076\n      eq\n      tag_12\n      jumpi\n      dup1\n      0x2b37b69b\n      eq\n      tag_13\n      jumpi\n      jump(tag_2)\n    tag_55:\n      dup1\n      0x06fdde03\n      eq\n      tag_3\n      jumpi\n      dup1\n      0x095ea7b3\n      eq\n      tag_4\n      jumpi\n      dup1\n      0x1282a0a0\n      eq\n      tag_5\n      jumpi\n      dup1\n      0x15a2f349\n      eq\n      tag_6\n      jumpi\n      dup1\n      0x1694505e\n      eq\n      tag_7\n      jumpi\n      jump(tag_2)\n    tag_1:\n      jumpi(tag_2, calldatasize)\n      stop\n    tag_2:\n      0x00\n      dup1\n      revert\n        /* \"XODEX2.sol\":16145:16226  function name() public view returns (string memory) {... */\n    tag_3:\n      callvalue\n      dup1\n      iszero\n      tag_58\n      jumpi\n      0x00\n      dup1\n      revert\n    tag_58:\n      pop\n      tag_59\n      tag_60\n      jump\t// in\n    tag_59:\n      mload(0x40)\n      tag_61\n      swap2\n      swap1\n      tag_62\n      jump\t// in\n    tag_61:\n      mload(0x40)\n      dup1\n      swap2\n      sub\n      swap1\n      return\n        /* \"XODEX2.sol\":14076:14234  function approve(address spender, uint256 amount) public override returns (bool) {... */\n    tag_4:\n      callvalue\n      dup1\n      iszero\n      tag_63\n      jumpi\n      0x00\n      dup1\n      revert\n    tag_63:\n      pop\n      tag_64\n      0x04\n      dup1\n      calldatasize\n      sub\n      dup2\n      add\n      swap1\n      tag_65\n      swap2\n      swap1\n      tag_66\n      jump\t// in\n    tag_65:\n      tag_67\n      jump\t// in\n    tag_64:\n      mload(0x40)\n      tag_68\n      swap2\n      swap1\n      tag_69\n      jump\t// in\n    tag_68:\n      mload(0x40)\n      dup1\n      swap2\n      sub\n      swap1\n      return\n        /* \"XODEX2.sol\":18385:18761  function set_New_Router_and_Make_Pair(address newRouter) public onlyOwner {... */\n    tag_5:\n      callvalue\n      dup1\n      iszero\n      tag_70\n      jumpi\n      0x00\n      dup1\n      revert\n    tag_70:\n      pop\n      tag_71\n      0x04\n      dup1\n      calldatasize\n      sub\n      dup2\n      add\n      swap1\n      tag_72\n      swap2\n      swap1\n      tag_73\n      jump\t// in\n    tag_72:\n      tag_74\n      jump\t// in\n    tag_71:\n      stop\n        /* \"XODEX2.sol\":19760:19903  function set_Max_TX_Percent(uint256 maxTxPercent_x100) external onlyOwner {... */\n    tag_6:\n      callvalue\n      dup1\n      iszero\n      tag_75\n      jumpi\n      0x00\n      dup1\n      revert\n    tag_75:\n      pop\n      tag_76\n      0x04\n      dup1\n      calldatasize\n      sub\n      dup2\n      add\n      swap1\n      tag_77\n      swap2\n      swap1\n      tag_78\n      jump\t// in\n    tag_77:\n      tag_79\n      jump\t// in\n    tag_76:\n      stop\n        /* \"XODEX2.sol\":12916:12957  IUniswapV2Router02 public uniswapV2Router */\n    tag_7:\n      callvalue\n      dup1\n      iszero\n      tag_80\n      jumpi\n      0x00\n      dup1\n      revert\n    tag_80:\n      pop\n      tag_81\n      tag_82\n      jump\t// in\n    tag_81:\n      mload(0x40)\n      tag_83\n      swap2\n      swap1\n      tag_84\n      jump\t// in\n    tag_83:\n      mload(0x40)\n      dup1\n      swap2\n      sub\n      swap1\n      return\n        /* \"XODEX2.sol\":20060:20153  function totalSupply() public view override returns (uint256) {... */\n    tag_8:\n      callvalue\n      dup1\n      iszero\n      tag_85\n      jumpi\n      0x00\n      dup1\n      revert\n    tag_85:\n      pop\n      tag_86\n      tag_87\n      jump\t// in\n    tag_86:\n      mload(0x40)\n      tag_88\n      swap2\n      swap1\n      tag_89\n      jump\t// in\n    tag_88:\n      mload(0x40)\n      dup1\n      swap2\n      sub\n      swap1\n      return\n        /* \"XODEX2.sol\":14240:14705  function blacklist_Wallets(address[] calldata addresses) external onlyOwner {... */\n    tag_9:\n      callvalue\n      dup1\n      iszero\n      tag_90\n      jumpi\n      0x00\n      dup1\n      revert\n    tag_90:\n      pop\n      tag_91\n      0x04\n      dup1\n      calldatasize\n      sub\n      dup2\n      add\n      swap1\n      tag_92\n      swap2\n      swap1\n      tag_93\n      jump\t// in\n    tag_92:\n      tag_94\n      jump\t// in\n    tag_91:\n      stop\n        /* \"XODEX2.sol\":11930:11976  mapping(address => bool) public _isBlacklisted */\n    tag_10:\n      callvalue\n      dup1\n      iszero\n      tag_95\n      jumpi\n      0x00\n      dup1\n      revert\n    tag_95:\n      pop\n      tag_96\n      0x04\n      dup1\n      calldatasize\n      sub\n      dup2\n      add\n      swap1\n      tag_97\n      swap2\n      swap1\n      tag_73\n      jump\t// in\n    tag_97:\n      tag_98\n      jump\t// in\n    tag_96:\n      mload(0x40)\n      tag_99\n      swap2\n      swap1\n      tag_69\n      jump\t// in\n    tag_99:\n      mload(0x40)\n      dup1\n      swap2\n      sub\n      swap1\n      return\n        /* \"XODEX2.sol\":20329:20714  function transferFrom(... */\n    tag_11:\n      callvalue\n      dup1\n      iszero\n      tag_100\n      jumpi\n      0x00\n      dup1\n      revert\n    tag_100:\n      pop\n      tag_101\n      0x04\n      dup1\n      calldatasize\n      sub\n      dup2\n      add\n      swap1\n      tag_102\n      swap2\n      swap1\n      tag_103\n      jump\t// in\n    tag_102:\n      tag_104\n      jump\t// in\n    tag_101:\n      mload(0x40)\n      tag_105\n      swap2\n      swap1\n      tag_69\n      jump\t// in\n    tag_105:\n      mload(0x40)\n      dup1\n      swap2\n      sub\n      swap1\n      return\n        /* \"XODEX2.sol\":12148:12171  bool public isBlackList */\n    tag_12:\n      callvalue\n      dup1\n      iszero\n      tag_106\n      jumpi\n      0x00\n      dup1\n      revert\n    tag_106:\n      pop\n      tag_107\n      tag_108\n      jump\t// in\n    tag_107:\n      mload(0x40)\n      tag_109\n      swap2\n      swap1\n      tag_69\n      jump\t// in\n    tag_109:\n      mload(0x40)\n      dup1\n      swap2\n      sub\n      swap1\n      return\n        /* \"XODEX2.sol\":12830:12869  uint256 public _TotalFee = _TransferFee */\n    tag_13:\n      callvalue\n      dup1\n      iszero\n      tag_110\n      jumpi\n      0x00\n      dup1\n      revert\n    tag_110:\n      pop\n      tag_111\n      tag_112\n      jump\t// in\n    tag_111:\n      mload(0x40)\n      tag_113\n      swap2\n      swap1\n      tag_89\n      jump\t// in\n    tag_113:\n      mload(0x40)\n      dup1\n      swap2\n      sub\n      swap1\n      return\n        /* \"XODEX2.sol\":16722:17341  function recover_Tokens(... */\n    tag_14:\n      callvalue\n      dup1\n      iszero\n      tag_114\n      jumpi\n      0x00\n      dup1\n      revert\n    tag_114:\n      pop\n      tag_115\n      0x04\n      dup1\n      calldatasize\n      sub\n      dup2\n      add\n      swap1\n      tag_116\n      swap2\n      swap1\n      tag_103\n      jump\t// in\n    tag_116:\n      tag_117\n      jump\t// in\n    tag_115:\n      mload(0x40)\n      tag_118\n      swap2\n      swap1\n      tag_69\n      jump\t// in\n    tag_118:\n      mload(0x40)\n      dup1\n      swap2\n      sub\n      swap1\n      return\n        /* \"XODEX2.sol\":15485:15566  function decimals() public view returns (uint8) {... */\n    tag_15:\n      callvalue\n      dup1\n      iszero\n      tag_119\n      jumpi\n      0x00\n      dup1\n      revert\n    tag_119:\n      pop\n      tag_120\n      tag_121\n      jump\t// in\n    tag_120:\n      mload(0x40)\n      tag_122\n      swap2\n      swap1\n      tag_123\n      jump\t// in\n    tag_122:\n      mload(0x40)\n      dup1\n      swap2\n      sub\n      swap1\n      return\n        /* \"XODEX2.sol\":18767:19021  function set_New_Router_Address(address newRouter) public onlyOwner {... */\n    tag_16:\n      callvalue\n      dup1\n      iszero\n      tag_124\n      jumpi\n      0x00\n      dup1\n      revert\n    tag_124:\n      pop\n      tag_125\n      0x04\n      dup1\n      calldatasize\n      sub\n      dup2\n      add\n      swap1\n      tag_126\n      swap2\n      swap1\n      tag_73\n      jump\t// in\n    tag_126:\n      tag_127\n      jump\t// in\n    tag_125:\n      stop\n        /* \"XODEX2.sol\":15748:15963  function increaseAllowance(address spender, uint256 addedValue) public virtual returns (bool) {... */\n    tag_17:\n      callvalue\n      dup1\n      iszero\n      tag_128\n      jumpi\n      0x00\n      dup1\n      revert\n    tag_128:\n      pop\n      tag_129\n      0x04\n      dup1\n      calldatasize\n      sub\n      dup2\n      add\n      swap1\n      tag_130\n      swap2\n      swap1\n      tag_66\n      jump\t// in\n    tag_130:\n      tag_131\n      jump\t// in\n    tag_129:\n      mload(0x40)\n      tag_132\n      swap2\n      swap1\n      tag_69\n      jump\t// in\n    tag_132:\n      mload(0x40)\n      dup1\n      swap2\n      sub\n      swap1\n      return\n        /* \"XODEX2.sol\":20720:21187  function unBlacklist_Wallets(address[] calldata addresses) external onlyOwner {... */\n    tag_18:\n      callvalue\n      dup1\n      iszero\n      tag_133\n      jumpi\n      0x00\n      dup1\n      revert\n    tag_133:\n      pop\n      tag_134\n      0x04\n      dup1\n      calldatasize\n      sub\n      dup2\n      add\n      swap1\n      tag_135\n      swap2\n      swap1\n      tag_93\n      jump\t// in\n    tag_135:\n      tag_136\n      jump\t// in\n    tag_134:\n      stop\n        /* \"XODEX2.sol\":12765:12791  uint256 public _buyFee = 5 */\n    tag_19:\n      callvalue\n      dup1\n      iszero\n      tag_137\n      jumpi\n      0x00\n      dup1\n      revert\n    tag_137:\n      pop\n      tag_138\n      tag_139\n      jump\t// in\n    tag_138:\n      mload(0x40)\n      tag_140\n      swap2\n      swap1\n      tag_89\n      jump\t// in\n    tag_140:\n      mload(0x40)\n      dup1\n      swap2\n      sub\n      swap1\n      return\n        /* \"XODEX2.sol\":15572:15742  function excludeFromFee(address account) public onlyOwner {... */\n    tag_20:\n      callvalue\n      dup1\n      iszero\n      tag_141\n      jumpi\n      0x00\n      dup1\n      revert\n    tag_141:\n      pop\n      tag_142\n      0x04\n      dup1\n      calldatasize\n      sub\n      dup2\n      add\n      swap1\n      tag_143\n      swap2\n      swap1\n      tag_73\n      jump\t// in\n    tag_143:\n      tag_144\n      jump\t// in\n    tag_142:\n      stop\n        /* \"XODEX2.sol\":12727:12759  uint256 public _TransferFee = 10 */\n    tag_21:\n      callvalue\n      dup1\n      iszero\n      tag_145\n      jumpi\n      0x00\n      dup1\n      revert\n    tag_145:\n      pop\n      tag_146\n      tag_147\n      jump\t// in\n    tag_146:\n      mload(0x40)\n      tag_148\n      swap2\n      swap1\n      tag_89\n      jump\t// in\n    tag_148:\n      mload(0x40)\n      dup1\n      swap2\n      sub\n      swap1\n      return\n        /* \"XODEX2.sol\":12963:12991  address public uniswapV2Pair */\n    tag_22:\n      callvalue\n      dup1\n      iszero\n      tag_149\n      jumpi\n      0x00\n      dup1\n      revert\n    tag_149:\n      pop\n      tag_150\n      tag_151\n      jump\t// in\n    tag_150:\n      mload(0x40)\n      tag_152\n      swap2\n      swap1\n      tag_153\n      jump\t// in\n    tag_152:\n      mload(0x40)\n      dup1\n      swap2\n      sub\n      swap1\n      return\n        /* \"XODEX2.sol\":12511:12561  uint256 public _maxToken = _tTotal.mul(2).div(100) */\n    tag_23:\n      callvalue\n      dup1\n      iszero\n      tag_154\n      jumpi\n      0x00\n      dup1\n      revert\n    tag_154:\n      pop\n      tag_155\n      tag_156\n      jump\t// in\n    tag_155:\n      mload(0x40)\n      tag_157\n      swap2\n      swap1\n      tag_89\n      jump\t// in\n    tag_157:\n      mload(0x40)\n      dup1\n      swap2\n      sub\n      swap1\n      return\n        /* \"XODEX2.sol\":12797:12824  uint256 public _sellFee = 5 */\n    tag_24:\n      callvalue\n      dup1\n      iszero\n      tag_158\n      jumpi\n      0x00\n      dup1\n      revert\n    tag_158:\n      pop\n      tag_159\n      tag_160\n      jump\t// in\n    tag_159:\n      mload(0x40)\n      tag_161\n      swap2\n      swap1\n      tag_89\n      jump\t// in\n    tag_161:\n      mload(0x40)\n      dup1\n      swap2\n      sub\n      swap1\n      return\n        /* \"XODEX2.sol\":24542:24747  function _set_Fees(uint256 Buy_Fee, uint256 Sell_Fee) external onlyOwner {... */\n    tag_25:\n      callvalue\n      dup1\n      iszero\n      tag_162\n      jumpi\n      0x00\n      dup1\n      revert\n    tag_162:\n      pop\n      tag_163\n      0x04\n      dup1\n      calldatasize\n      sub\n      dup2\n      add\n      swap1\n      tag_164\n      swap2\n      swap1\n      tag_165\n      jump\t// in\n    tag_164:\n      tag_166\n      jump\t// in\n    tag_163:\n      stop\n        /* \"XODEX2.sol\":14824:14943  function balanceOf(address account) public view override returns (uint256) {... */\n    tag_26:\n      callvalue\n      dup1\n      iszero\n      tag_167\n      jumpi\n      0x00\n      dup1\n      revert\n    tag_167:\n      pop\n      tag_168\n      0x04\n      dup1\n      calldatasize\n      sub\n      dup2\n      add\n      swap1\n      tag_169\n      swap2\n      swap1\n      tag_73\n      jump\t// in\n    tag_169:\n      tag_170\n      jump\t// in\n    tag_168:\n      mload(0x40)\n      tag_171\n      swap2\n      swap1\n      tag_89\n      jump\t// in\n    tag_171:\n      mload(0x40)\n      dup1\n      swap2\n      sub\n      swap1\n      return\n        /* \"XODEX2.sol\":2572:2717  function renounceOwnership() public virtual onlyOwner {... */\n    tag_27:\n      callvalue\n      dup1\n      iszero\n      tag_172\n      jumpi\n      0x00\n      dup1\n      revert\n    tag_172:\n      pop\n      tag_173\n      tag_174\n      jump\t// in\n    tag_173:\n      stop\n        /* \"XODEX2.sol\":11874:11924  mapping(address => bool) public _isExcludedFromFee */\n    tag_28:\n      callvalue\n      dup1\n      iszero\n      tag_175\n      jumpi\n      0x00\n      dup1\n      revert\n    tag_175:\n      pop\n      tag_176\n      0x04\n      dup1\n      calldatasize\n      sub\n      dup2\n      add\n      swap1\n      tag_177\n      swap2\n      swap1\n      tag_73\n      jump\t// in\n    tag_177:\n      tag_178\n      jump\t// in\n    tag_176:\n      mload(0x40)\n      tag_179\n      swap2\n      swap1\n      tag_69\n      jump\t// in\n    tag_179:\n      mload(0x40)\n      dup1\n      swap2\n      sub\n      swap1\n      return\n        /* \"XODEX2.sol\":19478:19637  function set_Number_Of_Transactions_Before_Liquify_Trigger(uint8 number_of_transactions) public onlyOwner {... */\n    tag_29:\n      callvalue\n      dup1\n      iszero\n      tag_180\n      jumpi\n      0x00\n      dup1\n      revert\n    tag_180:\n      pop\n      tag_181\n      0x04\n      dup1\n      calldatasize\n      sub\n      dup2\n      add\n      swap1\n      tag_182\n      swap2\n      swap1\n      tag_183\n      jump\t// in\n    tag_182:\n      tag_184\n      jump\t// in\n    tag_181:\n      stop\n        /* \"XODEX2.sol\":12614:12667  uint256 public _maxTxAmount = _tTotal.mul(1).div(100) */\n    tag_30:\n      callvalue\n      dup1\n      iszero\n      tag_185\n      jumpi\n      0x00\n      dup1\n      revert\n    tag_185:\n      pop\n      tag_186\n      tag_187\n      jump\t// in\n    tag_186:\n      mload(0x40)\n      tag_188\n      swap2\n      swap1\n      tag_89\n      jump\t// in\n    tag_188:\n      mload(0x40)\n      dup1\n      swap2\n      sub\n      swap1\n      return\n        /* \"XODEX2.sol\":13025:13061  bool public swapAndLiqEnabled = true */\n    tag_31:\n      callvalue\n      dup1\n      iszero\n      tag_189\n      jumpi\n      0x00\n      dup1\n      revert\n    tag_189:\n      pop\n      tag_190\n      tag_191\n      jump\t// in\n    tag_190:\n      mload(0x40)\n      tag_192\n      swap2\n      swap1\n      tag_69\n      jump\t// in\n    tag_192:\n      mload(0x40)\n      dup1\n      swap2\n      sub\n      swap1\n      return\n        /* \"XODEX2.sol\":2268:2353  function owner() public view virtual returns (address) {... */\n    tag_32:\n      callvalue\n      dup1\n      iszero\n      tag_193\n      jumpi\n      0x00\n      dup1\n      revert\n    tag_193:\n      pop\n      tag_194\n      tag_195\n      jump\t// in\n    tag_194:\n      mload(0x40)\n      tag_196\n      swap2\n      swap1\n      tag_153\n      jump\t// in\n    tag_196:\n      mload(0x40)\n      dup1\n      swap2\n      sub\n      swap1\n      return\n        /* \"XODEX2.sol\":19198:19283  function symbol() public view returns (string memory) {... */\n    tag_33:\n      callvalue\n      dup1\n      iszero\n      tag_197\n      jumpi\n      0x00\n      dup1\n      revert\n    tag_197:\n      pop\n      tag_198\n      tag_199\n      jump\t// in\n    tag_198:\n      mload(0x40)\n      tag_200\n      swap2\n      swap1\n      tag_62\n      jump\t// in\n    tag_200:\n      mload(0x40)\n      dup1\n      swap2\n      sub\n      swap1\n      return\n        /* \"XODEX2.sol\":19909:20054  function set_Max_Wal_Percent(uint256 maxWallPercent_x100) external onlyOwner {... */\n    tag_34:\n      callvalue\n      dup1\n      iszero\n      tag_201\n      jumpi\n      0x00\n      dup1\n      revert\n    tag_201:\n      pop\n      tag_202\n      0x04\n      dup1\n      calldatasize\n      sub\n      dup2\n      add\n      swap1\n      tag_203\n      swap2\n      swap1\n      tag_78\n      jump\t// in\n    tag_203:\n      tag_204\n      jump\t// in\n    tag_202:\n      stop\n        /* \"XODEX2.sol\":14711:14818  function blacklist_Toggle(bool true_or_false) public onlyOwner {... */\n    tag_35:\n      callvalue\n      dup1\n      iszero\n      tag_205\n      jumpi\n      0x00\n      dup1\n      revert\n    tag_205:\n      pop\n      tag_206\n      0x04\n      dup1\n      calldatasize\n      sub\n      dup2\n      add\n      swap1\n      tag_207\n      swap2\n      swap1\n      tag_208\n      jump\t// in\n    tag_207:\n      tag_209\n      jump\t// in\n    tag_206:\n      stop\n        /* \"XODEX2.sol\":14949:15261  function decreaseAllowance(address spender, uint256 subtractedValue) public virtual returns (bool) {... */\n    tag_36:\n      callvalue\n      dup1\n      iszero\n      tag_210\n      jumpi\n      0x00\n      dup1\n      revert\n    tag_210:\n      pop\n      tag_211\n      0x04\n      dup1\n      calldatasize\n      sub\n      dup2\n      add\n      swap1\n      tag_212\n      swap2\n      swap1\n      tag_66\n      jump\t// in\n    tag_212:\n      tag_213\n      jump\t// in\n    tag_211:\n      mload(0x40)\n      tag_214\n      swap2\n      swap1\n      tag_69\n      jump\t// in\n    tag_214:\n      mload(0x40)\n      dup1\n      swap2\n      sub\n      swap1\n      return\n        /* \"XODEX2.sol\":20159:20323  function transfer(address recipient, uint256 amount) public override returns (bool) {... */\n    tag_37:\n      callvalue\n      dup1\n      iszero\n      tag_215\n      jumpi\n      0x00\n      dup1\n      revert\n    tag_215:\n      pop\n      tag_216\n      0x04\n      dup1\n      calldatasize\n      sub\n      dup2\n      add\n      swap1\n      tag_217\n      swap2\n      swap1\n      tag_66\n      jump\t// in\n    tag_217:\n      tag_218\n      jump\t// in\n    tag_216:\n      mload(0x40)\n      tag_219\n      swap2\n      swap1\n      tag_69\n      jump\t// in\n    tag_219:\n      mload(0x40)\n      dup1\n      swap2\n      sub\n      swap1\n      return\n        /* \"XODEX2.sol\":19643:19754  function set_TransferFees(bool true_or_false) external onlyOwner {... */\n    tag_38:\n      callvalue\n      dup1\n      iszero\n      tag_220\n      jumpi\n      0x00\n      dup1\n      revert\n    tag_220:\n      pop\n      tag_221\n      0x04\n      dup1\n      calldatasize\n      sub\n      dup2\n      add\n      swap1\n      tag_222\n      swap2\n      swap1\n      tag_208\n      jump\t// in\n    tag_222:\n      tag_223\n      jump\t// in\n    tag_221:\n      stop\n        /* \"XODEX2.sol\":12997:13019  bool public isSwapping */\n    tag_39:\n      callvalue\n      dup1\n      iszero\n      tag_224\n      jumpi\n      0x00\n      dup1\n      revert\n    tag_224:\n      pop\n      tag_225\n      tag_226\n      jump\t// in\n    tag_225:\n      mload(0x40)\n      tag_227\n      swap2\n      swap1\n      tag_69\n      jump\t// in\n    tag_227:\n      mload(0x40)\n      dup1\n      swap2\n      sub\n      swap1\n      return\n        /* \"XODEX2.sol\":24753:24934  function _set_Transfer_Fee(uint256 Transfer_Fee) external onlyOwner {... */\n    tag_40:\n      callvalue\n      dup1\n      iszero\n      tag_228\n      jumpi\n      0x00\n      dup1\n      revert\n    tag_228:\n      pop\n      tag_229\n      0x04\n      dup1\n      calldatasize\n      sub\n      dup2\n      add\n      swap1\n      tag_230\n      swap2\n      swap1\n      tag_78\n      jump\t// in\n    tag_230:\n      tag_231\n      jump\t// in\n    tag_229:\n      stop\n        /* \"XODEX2.sol\":12877:12909  bool public noTransferFee = true */\n    tag_41:\n      callvalue\n      dup1\n      iszero\n      tag_232\n      jumpi\n      0x00\n      dup1\n      revert\n    tag_232:\n      pop\n      tag_233\n      tag_234\n      jump\t// in\n    tag_233:\n      mload(0x40)\n      tag_235\n      swap2\n      swap1\n      tag_69\n      jump\t// in\n    tag_235:\n      mload(0x40)\n      dup1\n      swap2\n      sub\n      swap1\n      return\n        /* \"XODEX2.sol\":19027:19192  function set_New_Pair_Address(address newPair) public onlyOwner {... */\n    tag_42:\n      callvalue\n      dup1\n      iszero\n      tag_236\n      jumpi\n      0x00\n      dup1\n      revert\n    tag_236:\n      pop\n      tag_237\n      0x04\n      dup1\n      calldatasize\n      sub\n      dup2\n      add\n      swap1\n      tag_238\n      swap2\n      swap1\n      tag_73\n      jump\t// in\n    tag_238:\n      tag_239\n      jump\t// in\n    tag_237:\n      stop\n        /* \"XODEX2.sol\":16232:16716  function process_Tokens(uint256 percent_Of_Tokens_To_Process) public onlyOwner {... */\n    tag_43:\n      callvalue\n      dup1\n      iszero\n      tag_240\n      jumpi\n      0x00\n      dup1\n      revert\n    tag_240:\n      pop\n      tag_241\n      0x04\n      dup1\n      calldatasize\n      sub\n      dup2\n      add\n      swap1\n      tag_242\n      swap2\n      swap1\n      tag_78\n      jump\t// in\n    tag_242:\n      tag_243\n      jump\t// in\n    tag_241:\n      stop\n        /* \"XODEX2.sol\":13929:14070  function allowance(address owner, address spender) public view override returns (uint256) {... */\n    tag_44:\n      callvalue\n      dup1\n      iszero\n      tag_244\n      jumpi\n      0x00\n      dup1\n      revert\n    tag_244:\n      pop\n      tag_245\n      0x04\n      dup1\n      calldatasize\n      sub\n      dup2\n      add\n      swap1\n      tag_246\n      swap2\n      swap1\n      tag_247\n      jump\t// in\n    tag_246:\n      tag_248\n      jump\t// in\n    tag_245:\n      mload(0x40)\n      tag_249\n      swap2\n      swap1\n      tag_89\n      jump\t// in\n    tag_249:\n      mload(0x40)\n      dup1\n      swap2\n      sub\n      swap1\n      return\n        /* \"XODEX2.sol\":15969:16139  function includeInFee(address account) public onlyOwner {... */\n    tag_45:\n      callvalue\n      dup1\n      iszero\n      tag_250\n      jumpi\n      0x00\n      dup1\n      revert\n    tag_250:\n      pop\n      tag_251\n      0x04\n      dup1\n      calldatasize\n      sub\n      dup2\n      add\n      swap1\n      tag_252\n      swap2\n      swap1\n      tag_73\n      jump\t// in\n    tag_252:\n      tag_253\n      jump\t// in\n    tag_251:\n      stop\n        /* \"XODEX2.sol\":2770:3010  function transferOwnership(address newOwner) public virtual onlyOwner {... */\n    tag_46:\n      callvalue\n      dup1\n      iszero\n      tag_254\n      jumpi\n      0x00\n      dup1\n      revert\n    tag_254:\n      pop\n      tag_255\n      0x04\n      dup1\n      calldatasize\n      sub\n      dup2\n      add\n      swap1\n      tag_256\n      swap2\n      swap1\n      tag_73\n      jump\t// in\n    tag_256:\n      tag_257\n      jump\t// in\n    tag_255:\n      stop\n        /* \"XODEX2.sol\":15267:15479  function Update__Dev_Wallet(address payable wallet) public onlyOwner {... */\n    tag_47:\n      callvalue\n      dup1\n      iszero\n      tag_258\n      jumpi\n      0x00\n      dup1\n      revert\n    tag_258:\n      pop\n      tag_259\n      0x04\n      dup1\n      calldatasize\n      sub\n      dup2\n      add\n      swap1\n      tag_260\n      swap2\n      swap1\n      tag_261\n      jump\t// in\n    tag_260:\n      tag_262\n      jump\t// in\n    tag_259:\n      stop\n        /* \"XODEX2.sol\":19289:19472  function set_Swap_And_Liquify_Enabled(bool true_or_false) public onlyOwner {... */\n    tag_48:\n      callvalue\n      dup1\n      iszero\n      tag_263\n      jumpi\n      0x00\n      dup1\n      revert\n    tag_263:\n      pop\n      tag_264\n      0x04\n      dup1\n      calldatasize\n      sub\n      dup2\n      add\n      swap1\n      tag_265\n      swap2\n      swap1\n      tag_208\n      jump\t// in\n    tag_265:\n      tag_266\n      jump\t// in\n    tag_264:\n      stop\n        /* \"XODEX2.sol\":16145:16226  function name() public view returns (string memory) {... */\n    tag_60:\n        /* \"XODEX2.sol\":16182:16195  string memory */\n      0x60\n        /* \"XODEX2.sol\":16214:16219  _name */\n      mload(0x40)\n      dup1\n      0x40\n      add\n      0x40\n      mstore\n      dup1\n      0x05\n      dup2\n      mstore\n      0x20\n      add\n      0x584f444558000000000000000000000000000000000000000000000000000000\n      dup2\n      mstore\n      pop\n        /* \"XODEX2.sol\":16207:16219  return _name */\n      swap1\n      pop\n        /* \"XODEX2.sol\":16145:16226  function name() public view returns (string memory) {... */\n      swap1\n      jump\t// out\n        /* \"XODEX2.sol\":14076:14234  function approve(address spender, uint256 amount) public override returns (bool) {... */\n    tag_67:\n        /* \"XODEX2.sol\":14151:14155  bool */\n      0x00\n        /* \"XODEX2.sol\":14167:14206  _approve(_msgSender(), spender, amount) */\n      tag_271\n        /* \"XODEX2.sol\":14176:14188  _msgSender() */\n      tag_272\n        /* \"XODEX2.sol\":14176:14186  _msgSender */\n      tag_273\n        /* \"XODEX2.sol\":14176:14188  _msgSender() */\n      jump\t// in\n    tag_272:\n        /* \"XODEX2.sol\":14190:14197  spender */\n      dup5\n        /* \"XODEX2.sol\":14199:14205  amount */\n      dup5\n        /* \"XODEX2.sol\":14167:14175  _approve */\n      tag_274\n        /* \"XODEX2.sol\":14167:14206  _approve(_msgSender(), spender, amount) */\n      jump\t// in\n    tag_271:\n        /* \"XODEX2.sol\":14223:14227  true */\n      0x01\n        /* \"XODEX2.sol\":14216:14227  return true */\n      swap1\n      pop\n        /* \"XODEX2.sol\":14076:14234  function approve(address spender, uint256 amount) public override returns (bool) {... */\n      swap3\n      swap2\n      pop\n      pop\n      jump\t// out\n        /* \"XODEX2.sol\":18385:18761  function set_New_Router_and_Make_Pair(address newRouter) public onlyOwner {... */\n    tag_74:\n        /* \"XODEX2.sol\":2457:2469  _msgSender() */\n      tag_276\n        /* \"XODEX2.sol\":2457:2467  _msgSender */\n      tag_273\n        /* \"XODEX2.sol\":2457:2469  _msgSender() */\n      jump\t// in\n    tag_276:\n        /* \"XODEX2.sol\":2446:2469  owner() == _msgSender() */\n      0xffffffffffffffffffffffffffffffffffffffff\n      and\n        /* \"XODEX2.sol\":2446:2453  owner() */\n      tag_277\n        /* \"XODEX2.sol\":2446:2451  owner */\n      tag_195\n        /* \"XODEX2.sol\":2446:2453  owner() */\n      jump\t// in\n    tag_277:\n        /* \"XODEX2.sol\":2446:2469  owner() == _msgSender() */\n      0xffffffffffffffffffffffffffffffffffffffff\n      and\n      eq\n        /* \"XODEX2.sol\":2438:2506  require(owner() == _msgSender(), \"Ownable: caller is not the owner\") */\n      tag_278\n      jumpi\n      mload(0x40)\n      0x08c379a000000000000000000000000000000000000000000000000000000000\n      dup2\n      mstore\n      0x04\n      add\n      tag_279\n      swap1\n      tag_280\n      jump\t// in\n    tag_279:\n      mload(0x40)\n      dup1\n      swap2\n      sub\n      swap1\n      revert\n    tag_278:\n        /* \"XODEX2.sol\":18498:18499  0 */\n      0x00\n        /* \"XODEX2.sol\":18477:18500  newRouter != address(0) */\n      0xffffffffffffffffffffffffffffffffffffffff\n      and\n        /* \"XODEX2.sol\":18477:18486  newRouter */\n      dup2\n        /* \"XODEX2.sol\":18477:18500  newRouter != address(0) */\n      0xffffffffffffffffffffffffffffffffffffffff\n      and\n      sub\n        /* \"XODEX2.sol\":18469:18522  require(newRouter != address(0), \"ERR: zero address\") */\n      tag_282\n      jumpi\n      mload(0x40)\n      0x08c379a000000000000000000000000000000000000000000000000000000000\n      dup2\n      mstore\n      0x04\n      add\n      tag_283\n      swap1\n      tag_284\n      jump\t// in\n    tag_283:\n      mload(0x40)\n      dup1\n      swap2\n      sub\n      swap1\n      revert\n    tag_282:\n        /* \"XODEX2.sol\":18533:18565  IUniswapV2Router02 _newPCSRouter */\n      0x00\n        /* \"XODEX2.sol\":18587:18596  newRouter */\n      dup2\n        /* \"XODEX2.sol\":18533:18597  IUniswapV2Router02 _newPCSRouter = IUniswapV2Router02(newRouter) */\n      swap1\n      pop\n        /* \"XODEX2.sol\":18641:18654  _newPCSRouter */\n      dup1\n        /* \"XODEX2.sol\":18641:18662  _newPCSRouter.factory */\n      0xffffffffffffffffffffffffffffffffffffffff\n      and\n      0xc45a0155\n        /* \"XODEX2.sol\":18641:18664  _newPCSRouter.factory() */\n      mload(0x40)\n      dup2\n      0xffffffff\n      and\n      0xe0\n      shl\n      dup2\n      mstore\n      0x04\n      add\n      0x20\n      mload(0x40)\n      dup1\n      dup4\n      sub\n      dup2\n      dup7\n      gas\n      staticcall\n      iszero\n      dup1\n      iszero\n      tag_286\n      jumpi\n      returndatasize\n      0x00\n      dup1\n      returndatacopy\n      revert(0x00, returndatasize)\n    tag_286:\n      pop\n      pop\n      pop\n      pop\n      mload(0x40)\n      returndatasize\n      not(0x1f)\n      0x1f\n      dup3\n      add\n      and\n      dup3\n      add\n      dup1\n      0x40\n      mstore\n      pop\n      dup2\n      add\n      swap1\n      tag_287\n      swap2\n      swap1\n      tag_288\n      jump\t// in\n    tag_287:\n        /* \"XODEX2.sol\":18623:18676  IUniswapV2Factory(_newPCSRouter.factory()).createPair */\n      0xffffffffffffffffffffffffffffffffffffffff\n      and\n      0xc9c65396\n        /* \"XODEX2.sol\":18685:18689  this */\n      address\n        /* \"XODEX2.sol\":18692:18705  _newPCSRouter */\n      dup4\n        /* \"XODEX2.sol\":18692:18710  _newPCSRouter.WETH */\n      0xffffffffffffffffffffffffffffffffffffffff\n      and\n      0xad5c4648\n        /* \"XODEX2.sol\":18692:18712  _newPCSRouter.WETH() */\n      mload(0x40)\n      dup2\n      0xffffffff\n      and\n      0xe0\n      shl\n      dup2\n      mstore\n      0x04\n      add\n      0x20\n      mload(0x40)\n      dup1\n      dup4\n      sub\n      dup2\n      dup7\n      gas\n      staticcall\n      iszero\n      dup1\n      iszero\n      tag_290\n      jumpi\n      returndatasize\n      0x00\n      dup1\n      returndatacopy\n      revert(0x00, returndatasize)\n    tag_290:\n      pop\n      pop\n      pop\n      pop\n      mload(0x40)\n      returndatasize\n      not(0x1f)\n      0x1f\n      dup3\n      add\n      and\n      dup3\n      add\n      dup1\n      0x40\n      mstore\n      pop\n      dup2\n      add\n      swap1\n      tag_291\n      swap2\n      swap1\n      tag_288\n      jump\t// in\n    tag_291:\n        /* \"XODEX2.sol\":18623:18713  IUniswapV2Factory(_newPCSRouter.factory()).createPair(address(this), _newPCSRouter.WETH()) */\n      mload(0x40)\n      dup4\n      0xffffffff\n      and\n      0xe0\n      shl\n      dup2\n      mstore\n      0x04\n      add\n      tag_292\n      swap3\n      swap2\n      swap1\n      tag_293\n      jump\t// in\n    tag_292:\n      0x20\n      mload(0x40)\n      dup1\n      dup4\n      sub\n      dup2\n      0x00\n      dup8\n      gas\n      call\n      iszero\n      dup1\n      iszero\n      tag_295\n      jumpi\n      returndatasize\n      0x00\n      dup1\n      returndatacopy\n      revert(0x00, returndatasize)\n    tag_295:\n      pop\n      pop\n      pop\n      pop\n      mload(0x40)\n      returndatasize\n      not(0x1f)\n      0x1f\n      dup3\n      add\n      and\n      dup3\n      add\n      dup1\n      0x40\n      mstore\n      pop\n      dup2\n      add\n      swap1\n      tag_296\n      swap2\n      swap1\n      tag_288\n      jump\t// in\n    tag_296:\n        /* \"XODEX2.sol\":18607:18620  uniswapV2Pair */\n      0x10\n      0x00\n        /* \"XODEX2.sol\":18607:18713  uniswapV2Pair = IUniswapV2Factory(_newPCSRouter.factory()).createPair(address(this), _newPCSRouter.WETH()) */\n      0x0100\n      exp\n      dup2\n      sload\n      dup2\n      0xffffffffffffffffffffffffffffffffffffffff\n      mul\n      not\n      and\n      swap1\n      dup4\n      0xffffffffffffffffffffffffffffffffffffffff\n      and\n      mul\n      or\n      swap1\n      sstore\n      pop\n        /* \"XODEX2.sol\":18741:18754  _newPCSRouter */\n      dup1\n        /* \"XODEX2.sol\":18723:18738  uniswapV2Router */\n      0x0f\n      0x01\n        /* \"XODEX2.sol\":18723:18754  uniswapV2Router = _newPCSRouter */\n      0x0100\n      exp\n      dup2\n      sload\n      dup2\n      0xffffffffffffffffffffffffffffffffffffffff\n      mul\n      not\n      and\n      swap1\n      dup4\n      0xffffffffffffffffffffffffffffffffffffffff\n      and\n      mul\n      or\n      swap1\n      sstore\n      pop\n        /* \"XODEX2.sol\":18459:18761  {... */\n      pop\n        /* \"XODEX2.sol\":18385:18761  function set_New_Router_and_Make_Pair(address newRouter) public onlyOwner {... */\n      pop\n      jump\t// out\n        /* \"XODEX2.sol\":19760:19903  function set_Max_TX_Percent(uint256 maxTxPercent_x100) external onlyOwner {... */\n    tag_79:\n        /* \"XODEX2.sol\":2457:2469  _msgSender() */\n      tag_298\n        /* \"XODEX2.sol\":2457:2467  _msgSender */\n      tag_273\n        /* \"XODEX2.sol\":2457:2469  _msgSender() */\n      jump\t// in\n    tag_298:\n        /* \"XODEX2.sol\":2446:2469  owner() == _msgSender() */\n      0xffffffffffffffffffffffffffffffffffffffff\n      and\n        /* \"XODEX2.sol\":2446:2453  owner() */\n      tag_299\n        /* \"XODEX2.sol\":2446:2451  owner */\n      tag_195\n        /* \"XODEX2.sol\":2446:2453  owner() */\n      jump\t// in\n    tag_299:\n        /* \"XODEX2.sol\":2446:2469  owner() == _msgSender() */\n      0xffffffffffffffffffffffffffffffffffffffff\n      and\n      eq\n        /* \"XODEX2.sol\":2438:2506  require(owner() == _msgSender(), \"Ownable: caller is not the owner\") */\n      tag_300\n      jumpi\n      mload(0x40)\n      0x08c379a000000000000000000000000000000000000000000000000000000000\n      dup2\n      mstore\n      0x04\n      add\n      tag_301\n      swap1\n      tag_280\n      jump\t// in\n    tag_301:\n      mload(0x40)\n      dup1\n      swap2\n      sub\n      swap1\n      revert\n    tag_300:\n        /* \"XODEX2.sol\":19891:19896  10000 */\n      0x2710\n        /* \"XODEX2.sol\":19870:19887  maxTxPercent_x100 */\n      dup2\n        /* \"XODEX2.sol\":12121:12141  10000000000 * 10**18 */\n      0x204fce5e3e25026110000000\n        /* \"XODEX2.sol\":19860:19887  _tTotal * maxTxPercent_x100 */\n      tag_303\n      swap2\n      swap1\n      tag_304\n      jump\t// in\n    tag_303:\n        /* \"XODEX2.sol\":19859:19896  (_tTotal * maxTxPercent_x100) / 10000 */\n      tag_305\n      swap2\n      swap1\n      tag_306\n      jump\t// in\n    tag_305:\n        /* \"XODEX2.sol\":19844:19856  _maxTxAmount */\n      0x09\n        /* \"XODEX2.sol\":19844:19896  _maxTxAmount = (_tTotal * maxTxPercent_x100) / 10000 */\n      dup2\n      swap1\n      sstore\n      pop\n        /* \"XODEX2.sol\":19760:19903  function set_Max_TX_Percent(uint256 maxTxPercent_x100) external onlyOwner {... */\n      pop\n      jump\t// out\n        /* \"XODEX2.sol\":12916:12957  IUniswapV2Router02 public uniswapV2Router */\n    tag_82:\n      0x0f\n      0x01\n      swap1\n      sload\n      swap1\n      0x0100\n      exp\n      swap1\n      div\n      0xffffffffffffffffffffffffffffffffffffffff\n      and\n      dup2\n      jump\t// out\n        /* \"XODEX2.sol\":20060:20153  function totalSupply() public view override returns (uint256) {... */\n    tag_87:\n        /* \"XODEX2.sol\":20113:20120  uint256 */\n      0x00\n        /* \"XODEX2.sol\":12121:12141  10000000000 * 10**18 */\n      0x204fce5e3e25026110000000\n        /* \"XODEX2.sol\":20132:20146  return _tTotal */\n      swap1\n      pop\n        /* \"XODEX2.sol\":20060:20153  function totalSupply() public view override returns (uint256) {... */\n      swap1\n      jump\t// out\n        /* \"XODEX2.sol\":14240:14705  function blacklist_Wallets(address[] calldata addresses) external onlyOwner {... */\n    tag_94:\n        /* \"XODEX2.sol\":2457:2469  _msgSender() */\n      tag_309\n        /* \"XODEX2.sol\":2457:2467  _msgSender */\n      tag_273\n        /* \"XODEX2.sol\":2457:2469  _msgSender() */\n      jump\t// in\n    tag_309:\n        /* \"XODEX2.sol\":2446:2469  owner() == _msgSender() */\n      0xffffffffffffffffffffffffffffffffffffffff\n      and\n        /* \"XODEX2.sol\":2446:2453  owner() */\n      tag_310\n        /* \"XODEX2.sol\":2446:2451  owner */\n      tag_195\n        /* \"XODEX2.sol\":2446:2453  owner() */\n      jump\t// in\n    tag_310:\n        /* \"XODEX2.sol\":2446:2469  owner() == _msgSender() */\n      0xffffffffffffffffffffffffffffffffffffffff\n      and\n      eq\n        /* \"XODEX2.sol\":2438:2506  require(owner() == _msgSender(), \"Ownable: caller is not the owner\") */\n      tag_311\n      jumpi\n      mload(0x40)\n      0x08c379a000000000000000000000000000000000000000000000000000000000\n      dup2\n      mstore\n      0x04\n      add\n      tag_312\n      swap1\n      tag_280\n      jump\t// in\n    tag_312:\n      mload(0x40)\n      dup1\n      swap2\n      sub\n      swap1\n      revert\n    tag_311:\n        /* \"XODEX2.sol\":14326:14342  uint256 startGas */\n      0x00\n        /* \"XODEX2.sol\":14352:14367  uint256 gasUsed */\n      dup1\n        /* \"XODEX2.sol\":14383:14392  uint256 i */\n      0x00\n        /* \"XODEX2.sol\":14378:14699  for (uint256 i; i < addresses.length; ++i) {... */\n    tag_314:\n        /* \"XODEX2.sol\":14398:14407  addresses */\n      dup5\n      dup5\n        /* \"XODEX2.sol\":14398:14414  addresses.length */\n      swap1\n      pop\n        /* \"XODEX2.sol\":14394:14395  i */\n      dup2\n        /* \"XODEX2.sol\":14394:14414  i < addresses.length */\n      lt\n        /* \"XODEX2.sol\":14378:14699  for (uint256 i; i < addresses.length; ++i) {... */\n      iszero\n      tag_315\n      jumpi\n        /* \"XODEX2.sol\":14449:14458  gasleft() */\n      gas\n        /* \"XODEX2.sol\":14439:14446  gasUsed */\n      dup3\n        /* \"XODEX2.sol\":14439:14458  gasUsed < gasleft() */\n      lt\n        /* \"XODEX2.sol\":14435:14689  if (gasUsed < gasleft()) {... */\n      iszero\n      tag_317\n      jumpi\n        /* \"XODEX2.sol\":14489:14498  gasleft() */\n      gas\n        /* \"XODEX2.sol\":14478:14498  startGas = gasleft() */\n      swap3\n      pop\n        /* \"XODEX2.sol\":14521:14535  _isBlacklisted */\n      0x04\n        /* \"XODEX2.sol\":14521:14549  _isBlacklisted[addresses[i]] */\n      0x00\n        /* \"XODEX2.sol\":14536:14545  addresses */\n      dup7\n      dup7\n        /* \"XODEX2.sol\":14546:14547  i */\n      dup5\n        /* \"XODEX2.sol\":14536:14548  addresses[i] */\n      dup2\n      dup2\n      lt\n      tag_318\n      jumpi\n      tag_319\n      tag_320\n      jump\t// in\n    tag_319:\n    tag_318:\n      swap1\n      pop\n      0x20\n      mul\n      add\n      0x20\n      dup2\n      add\n      swap1\n      tag_321\n      swap2\n      swap1\n      tag_73\n      jump\t// in\n    tag_321:\n        /* \"XODEX2.sol\":14521:14549  _isBlacklisted[addresses[i]] */\n      0xffffffffffffffffffffffffffffffffffffffff\n      and\n      0xffffffffffffffffffffffffffffffffffffffff\n      and\n      dup2\n      mstore\n      0x20\n      add\n      swap1\n      dup2\n      mstore\n      0x20\n      add\n      0x00\n      keccak256\n      0x00\n      swap1\n      sload\n      swap1\n      0x0100\n      exp\n      swap1\n      div\n      0xff\n      and\n        /* \"XODEX2.sol\":14516:14627  if (!_isBlacklisted[addresses[i]]) {... */\n      tag_322\n      jumpi\n        /* \"XODEX2.sol\":14604:14608  true */\n      0x01\n        /* \"XODEX2.sol\":14573:14587  _isBlacklisted */\n      0x04\n        /* \"XODEX2.sol\":14573:14601  _isBlacklisted[addresses[i]] */\n      0x00\n        /* \"XODEX2.sol\":14588:14597  addresses */\n      dup8\n      dup8\n        /* \"XODEX2.sol\":14598:14599  i */\n      dup6\n        /* \"XODEX2.sol\":14588:14600  addresses[i] */\n      dup2\n      dup2\n      lt\n      tag_323\n      jumpi\n      tag_324\n      tag_320\n      jump\t// in\n    tag_324:\n    tag_323:\n      swap1\n      pop\n      0x20\n      mul\n      add\n      0x20\n      dup2\n      add\n      swap1\n      tag_325\n      swap2\n      swap1\n      tag_73\n      jump\t// in\n    tag_325:\n        /* \"XODEX2.sol\":14573:14601  _isBlacklisted[addresses[i]] */\n      0xffffffffffffffffffffffffffffffffffffffff\n      and\n      0xffffffffffffffffffffffffffffffffffffffff\n      and\n      dup2\n      mstore\n      0x20\n      add\n      swap1\n      dup2\n      mstore\n      0x20\n      add\n      0x00\n      keccak256\n      0x00\n        /* \"XODEX2.sol\":14573:14608  _isBlacklisted[addresses[i]] = true */\n      0x0100\n      exp\n      dup2\n      sload\n      dup2\n      0xff\n      mul\n      not\n      and\n      swap1\n      dup4\n      iszero\n      iszero\n      mul\n      or\n      swap1\n      sstore\n      pop\n        /* \"XODEX2.sol\":14516:14627  if (!_isBlacklisted[addresses[i]]) {... */\n    tag_322:\n        /* \"XODEX2.sol\":14665:14674  gasleft() */\n      gas\n        /* \"XODEX2.sol\":14654:14662  startGas */\n      dup4\n        /* \"XODEX2.sol\":14654:14674  startGas - gasleft() */\n      tag_326\n      swap2\n      swap1\n      tag_327\n      jump\t// in\n    tag_326:\n        /* \"XODEX2.sol\":14644:14674  gasUsed = startGas - gasleft() */\n      swap2\n      pop\n        /* \"XODEX2.sol\":14435:14689  if (gasUsed < gasleft()) {... */\n    tag_317:\n        /* \"XODEX2.sol\":14416:14419  ++i */\n      dup1\n      tag_328\n      swap1\n      tag_329\n      jump\t// in\n    tag_328:\n      swap1\n      pop\n        /* \"XODEX2.sol\":14378:14699  for (uint256 i; i < addresses.length; ++i) {... */\n      jump(tag_314)\n    tag_315:\n      pop\n        /* \"XODEX2.sol\":14316:14705  {... */\n      pop\n      pop\n        /* \"XODEX2.sol\":14240:14705  function blacklist_Wallets(address[] calldata addresses) external onlyOwner {... */\n      pop\n      pop\n      jump\t// out\n        /* \"XODEX2.sol\":11930:11976  mapping(address => bool) public _isBlacklisted */\n    tag_98:\n      mstore(0x20, 0x04)\n      dup1\n      0x00\n      mstore\n      keccak256(0x00, 0x40)\n      0x00\n      swap2\n      pop\n      sload\n      swap1\n      0x0100\n      exp\n      swap1\n      div\n      0xff\n      and\n      dup2\n      jump\t// out\n        /* \"XODEX2.sol\":20329:20714  function transferFrom(... */\n    tag_104:\n        /* \"XODEX2.sol\":20457:20461  bool */\n      0x00\n        /* \"XODEX2.sol\":20473:20509  _transfer(sender, recipient, amount) */\n      tag_331\n        /* \"XODEX2.sol\":20483:20489  sender */\n      dup5\n        /* \"XODEX2.sol\":20491:20500  recipient */\n      dup5\n        /* \"XODEX2.sol\":20502:20508  amount */\n      dup5\n        /* \"XODEX2.sol\":20473:20482  _transfer */\n      tag_332\n        /* \"XODEX2.sol\":20473:20509  _transfer(sender, recipient, amount) */\n      jump\t// in\n    tag_331:\n        /* \"XODEX2.sol\":20519:20686  _approve(... */\n      tag_333\n        /* \"XODEX2.sol\":20541:20547  sender */\n      dup5\n        /* \"XODEX2.sol\":20561:20573  _msgSender() */\n      tag_334\n        /* \"XODEX2.sol\":20561:20571  _msgSender */\n      tag_273\n        /* \"XODEX2.sol\":20561:20573  _msgSender() */\n      jump\t// in\n    tag_334:\n        /* \"XODEX2.sol\":20587:20676  _allowances[sender][_msgSender()].sub(amount, \"ERC20: transfer amount exceeds allowance\") */\n      tag_335\n        /* \"XODEX2.sol\":20625:20631  amount */\n      dup6\n        /* \"XODEX2.sol\":20587:20676  _allowances[sender][_msgSender()].sub(amount, \"ERC20: transfer amount exceeds allowance\") */\n      mload(0x40)\n      dup1\n      0x60\n      add\n      0x40\n      mstore\n      dup1\n      0x28\n      dup2\n      mstore\n      0x20\n      add\n      data_974d1b4421da69cc60b481194f0dad36a5bb4e23da810da7a7fb30cdba178330\n      0x28\n      swap2\n      codecopy\n        /* \"XODEX2.sol\":20587:20598  _allowances */\n      0x02\n        /* \"XODEX2.sol\":20587:20606  _allowances[sender] */\n      0x00\n        /* \"XODEX2.sol\":20599:20605  sender */\n      dup12\n        /* \"XODEX2.sol\":20587:20606  _allowances[sender] */\n      0xffffffffffffffffffffffffffffffffffffffff\n      and\n      0xffffffffffffffffffffffffffffffffffffffff\n      and\n      dup2\n      mstore\n      0x20\n      add\n      swap1\n      dup2\n      mstore\n      0x20\n      add\n      0x00\n      keccak256\n        /* \"XODEX2.sol\":20587:20620  _allowances[sender][_msgSender()] */\n      0x00\n        /* \"XODEX2.sol\":20607:20619  _msgSender() */\n      tag_336\n        /* \"XODEX2.sol\":20607:20617  _msgSender */\n      tag_273\n        /* \"XODEX2.sol\":20607:20619  _msgSender() */\n      jump\t// in\n    tag_336:\n        /* \"XODEX2.sol\":20587:20620  _allowances[sender][_msgSender()] */\n      0xffffffffffffffffffffffffffffffffffffffff\n      and\n      0xffffffffffffffffffffffffffffffffffffffff\n      and\n      dup2\n      mstore\n      0x20\n      add\n      swap1\n      dup2\n      mstore\n      0x20\n      add\n      0x00\n      keccak256\n      sload\n        /* \"XODEX2.sol\":20587:20624  _allowances[sender][_msgSender()].sub */\n      tag_337\n      swap1\n        /* \"XODEX2.sol\":20587:20676  _allowances[sender][_msgSender()].sub(amount, \"ERC20: transfer amount exceeds allowance\") */\n      swap3\n      swap2\n      swap1\n      0xffffffff\n      and\n      jump\t// in\n    tag_335:\n        /* \"XODEX2.sol\":20519:20527  _approve */\n      tag_274\n        /* \"XODEX2.sol\":20519:20686  _approve(... */\n      jump\t// in\n    tag_333:\n        /* \"XODEX2.sol\":20703:20707  true */\n      0x01\n        /* \"XODEX2.sol\":20696:20707  return true */\n      swap1\n      pop\n        /* \"XODEX2.sol\":20329:20714  function transferFrom(... */\n      swap4\n      swap3\n      pop\n      pop\n      pop\n      jump\t// out\n        /* \"XODEX2.sol\":12148:12171  bool public isBlackList */\n    tag_108:\n      0x05\n      0x00\n      swap1\n      sload\n      swap1\n      0x0100\n      exp\n      swap1\n      div\n      0xff\n      and\n      dup2\n      jump\t// out\n        /* \"XODEX2.sol\":12830:12869  uint256 public _TotalFee = _TransferFee */\n    tag_112:\n      sload(0x0e)\n      dup2\n      jump\t// out\n        /* \"XODEX2.sol\":16722:17341  function recover_Tokens(... */\n    tag_117:\n        /* \"XODEX2.sol\":16875:16885  bool _sent */\n      0x00\n        /* \"XODEX2.sol\":2457:2469  _msgSender() */\n      tag_339\n        /* \"XODEX2.sol\":2457:2467  _msgSender */\n      tag_273\n        /* \"XODEX2.sol\":2457:2469  _msgSender() */\n      jump\t// in\n    tag_339:\n        /* \"XODEX2.sol\":2446:2469  owner() == _msgSender() */\n      0xffffffffffffffffffffffffffffffffffffffff\n      and\n        /* \"XODEX2.sol\":2446:2453  owner() */\n      tag_340\n        /* \"XODEX2.sol\":2446:2451  owner */\n      tag_195\n        /* \"XODEX2.sol\":2446:2453  owner() */\n      jump\t// in\n    tag_340:\n        /* \"XODEX2.sol\":2446:2469  owner() == _msgSender() */\n      0xffffffffffffffffffffffffffffffffffffffff\n      and\n      eq\n        /* \"XODEX2.sol\":2438:2506  require(owner() == _msgSender(), \"Ownable: caller is not the owner\") */\n      tag_341\n      jumpi\n      mload(0x40)\n      0x08c379a000000000000000000000000000000000000000000000000000000000\n      dup2\n      mstore\n      0x04\n      add\n      tag_342\n      swap1\n      tag_280\n      jump\t// in\n    tag_342:\n      mload(0x40)\n      dup1\n      swap2\n      sub\n      swap1\n      revert\n    tag_341:\n        /* \"XODEX2.sol\":16930:16931  0 */\n      0x00\n        /* \"XODEX2.sol\":16905:16932  Token_Address != address(0) */\n      0xffffffffffffffffffffffffffffffffffffffff\n      and\n        /* \"XODEX2.sol\":16905:16918  Token_Address */\n      dup5\n        /* \"XODEX2.sol\":16905:16932  Token_Address != address(0) */\n      0xffffffffffffffffffffffffffffffffffffffff\n      and\n      eq\n      iszero\n        /* \"XODEX2.sol\":16905:16964  Token_Address != address(0) && send_to_wallet != address(0) */\n      dup1\n      iszero\n      tag_344\n      jumpi\n      pop\n        /* \"XODEX2.sol\":16962:16963  0 */\n      0x00\n        /* \"XODEX2.sol\":16936:16964  send_to_wallet != address(0) */\n      0xffffffffffffffffffffffffffffffffffffffff\n      and\n        /* \"XODEX2.sol\":16936:16950  send_to_wallet */\n      dup4\n        /* \"XODEX2.sol\":16936:16964  send_to_wallet != address(0) */\n      0xffffffffffffffffffffffffffffffffffffffff\n      and\n      eq\n      iszero\n        /* \"XODEX2.sol\":16905:16964  Token_Address != address(0) && send_to_wallet != address(0) */\n    tag_344:\n        /* \"XODEX2.sol\":16897:16986  require(Token_Address != address(0) && send_to_wallet != address(0), \"ERR: zero address\") */\n      tag_345\n      jumpi\n      mload(0x40)\n      0x08c379a000000000000000000000000000000000000000000000000000000000\n      dup2\n      mstore\n      0x04\n      add\n      tag_346\n      swap1\n      tag_284\n      jump\t// in\n    tag_346:\n      mload(0x40)\n      dup1\n      swap2\n      sub\n      swap1\n      revert\n    tag_345:\n        /* \"XODEX2.sol\":17029:17033  this */\n      address\n        /* \"XODEX2.sol\":17004:17034  Token_Address != address(this) */\n      0xffffffffffffffffffffffffffffffffffffffff\n      and\n        /* \"XODEX2.sol\":17004:17017  Token_Address */\n      dup5\n        /* \"XODEX2.sol\":17004:17034  Token_Address != address(this) */\n      0xffffffffffffffffffffffffffffffffffffffff\n      and\n      sub\n        /* \"XODEX2.sol\":16996:17066  require(Token_Address != address(this), \"Can not remove native token\") */\n      tag_347\n      jumpi\n      mload(0x40)\n      0x08c379a000000000000000000000000000000000000000000000000000000000\n      dup2\n      mstore\n      0x04\n      add\n      tag_348\n      swap1\n      tag_349\n      jump\t// in\n    tag_348:\n      mload(0x40)\n      dup1\n      swap2\n      sub\n      swap1\n      revert\n    tag_347:\n        /* \"XODEX2.sol\":17078:17099  uint256 randomBalance */\n      0x00\n        /* \"XODEX2.sol\":17109:17122  Token_Address */\n      dup5\n        /* \"XODEX2.sol\":17102:17133  IERC20(Token_Address).balanceOf */\n      0xffffffffffffffffffffffffffffffffffffffff\n      and\n      0x70a08231\n        /* \"XODEX2.sol\":17142:17146  this */\n      address\n        /* \"XODEX2.sol\":17102:17148  IERC20(Token_Address).balanceOf(address(this)) */\n      mload(0x40)\n      dup3\n      0xffffffff\n      and\n      0xe0\n      shl\n      dup2\n      mstore\n      0x04\n      add\n      tag_350\n      swap2\n      swap1\n      tag_153\n      jump\t// in\n    tag_350:\n      0x20\n      mload(0x40)\n      dup1\n      dup4\n      sub\n      dup2\n      dup7\n      gas\n      staticcall\n      iszero\n      dup1\n      iszero\n      tag_352\n      jumpi\n      returndatasize\n      0x00\n      dup1\n      returndatacopy\n      revert(0x00, returndatasize)\n    tag_352:\n      pop\n      pop\n      pop\n      pop\n      mload(0x40)\n      returndatasize\n      not(0x1f)\n      0x1f\n      dup3\n      add\n      and\n      dup3\n      add\n      dup1\n      0x40\n      mstore\n      pop\n      dup2\n      add\n      swap1\n      tag_353\n      swap2\n      swap1\n      tag_354\n      jump\t// in\n    tag_353:\n        /* \"XODEX2.sol\":17078:17148  uint256 randomBalance = IERC20(Token_Address).balanceOf(address(this)) */\n      swap1\n      pop\n        /* \"XODEX2.sol\":17181:17194  randomBalance */\n      dup1\n        /* \"XODEX2.sol\":17162:17178  number_of_tokens */\n      dup4\n        /* \"XODEX2.sol\":17162:17194  number_of_tokens > randomBalance */\n      gt\n        /* \"XODEX2.sol\":17158:17253  if (number_of_tokens > randomBalance) {... */\n      iszero\n      tag_355\n      jumpi\n        /* \"XODEX2.sol\":17229:17242  randomBalance */\n      dup1\n        /* \"XODEX2.sol\":17210:17242  number_of_tokens = randomBalance */\n      swap3\n      pop\n        /* \"XODEX2.sol\":17158:17253  if (number_of_tokens > randomBalance) {... */\n    tag_355:\n        /* \"XODEX2.sol\":17277:17290  Token_Address */\n      dup5\n        /* \"XODEX2.sol\":17270:17300  IERC20(Token_Address).transfer */\n      0xffffffffffffffffffffffffffffffffffffffff\n      and\n      0xa9059cbb\n        /* \"XODEX2.sol\":17301:17315  send_to_wallet */\n      dup6\n        /* \"XODEX2.sol\":17317:17333  number_of_tokens */\n      dup6\n        /* \"XODEX2.sol\":17270:17334  IERC20(Token_Address).transfer(send_to_wallet, number_of_tokens) */\n      mload(0x40)\n      dup4\n      0xffffffff\n      and\n      0xe0\n      shl\n      dup2\n      mstore\n      0x04\n      add\n      tag_356\n      swap3\n      swap2\n      swap1\n      tag_357\n      jump\t// in\n    tag_356:\n      0x20\n      mload(0x40)\n      dup1\n      dup4\n      sub\n      dup2\n      0x00\n      dup8\n      gas\n      call\n      iszero\n      dup1\n      iszero\n      tag_359\n      jumpi\n      returndatasize\n      0x00\n      dup1\n      returndatacopy\n      revert(0x00, returndatasize)\n    tag_359:\n      pop\n      pop\n      pop\n      pop\n      mload(0x40)\n      returndatasize\n      not(0x1f)\n      0x1f\n      dup3\n      add\n      and\n      dup3\n      add\n      dup1\n      0x40\n      mstore\n      pop\n      dup2\n      add\n      swap1\n      tag_360\n      swap2\n      swap1\n      tag_361\n      jump\t// in\n    tag_360:\n        /* \"XODEX2.sol\":17262:17334  _sent = IERC20(Token_Address).transfer(send_to_wallet, number_of_tokens) */\n      swap2\n      pop\n        /* \"XODEX2.sol\":16887:17341  {... */\n      pop\n        /* \"XODEX2.sol\":16722:17341  function recover_Tokens(... */\n      swap4\n      swap3\n      pop\n      pop\n      pop\n      jump\t// out\n        /* \"XODEX2.sol\":15485:15566  function decimals() public view returns (uint8) {... */\n    tag_121:\n        /* \"XODEX2.sol\":15526:15531  uint8 */\n      0x00\n        /* \"XODEX2.sol\":12086:12088  18 */\n      0x12\n        /* \"XODEX2.sol\":15543:15559  return _decimals */\n      swap1\n      pop\n        /* \"XODEX2.sol\":15485:15566  function decimals() public view returns (uint8) {... */\n      swap1\n      jump\t// out\n        /* \"XODEX2.sol\":18767:19021  function set_New_Router_Address(address newRouter) public onlyOwner {... */\n    tag_127:\n        /* \"XODEX2.sol\":2457:2469  _msgSender() */\n      tag_364\n        /* \"XODEX2.sol\":2457:2467  _msgSender */\n      tag_273\n        /* \"XODEX2.sol\":2457:2469  _msgSender() */\n      jump\t// in\n    tag_364:\n        /* \"XODEX2.sol\":2446:2469  owner() == _msgSender() */\n      0xffffffffffffffffffffffffffffffffffffffff\n      and\n        /* \"XODEX2.sol\":2446:2453  owner() */\n      tag_365\n        /* \"XODEX2.sol\":2446:2451  owner */\n      tag_195\n        /* \"XODEX2.sol\":2446:2453  owner() */\n      jump\t// in\n    tag_365:\n        /* \"XODEX2.sol\":2446:2469  owner() == _msgSender() */\n      0xffffffffffffffffffffffffffffffffffffffff\n      and\n      eq\n        /* \"XODEX2.sol\":2438:2506  require(owner() == _msgSender(), \"Ownable: caller is not the owner\") */\n      tag_366\n      jumpi\n      mload(0x40)\n      0x08c379a000000000000000000000000000000000000000000000000000000000\n      dup2\n      mstore\n      0x04\n      add\n      tag_367\n      swap1\n      tag_280\n      jump\t// in\n    tag_367:\n      mload(0x40)\n      dup1\n      swap2\n      sub\n      swap1\n      revert\n    tag_366:\n        /* \"XODEX2.sol\":18874:18875  0 */\n      0x00\n        /* \"XODEX2.sol\":18853:18876  newRouter != address(0) */\n      0xffffffffffffffffffffffffffffffffffffffff\n      and\n        /* \"XODEX2.sol\":18853:18862  newRouter */\n      dup2\n        /* \"XODEX2.sol\":18853:18876  newRouter != address(0) */\n      0xffffffffffffffffffffffffffffffffffffffff\n      and\n      sub\n        /* \"XODEX2.sol\":18845:18898  require(newRouter != address(0), \"ERR: zero address\") */\n      tag_369\n      jumpi\n      mload(0x40)\n      0x08c379a000000000000000000000000000000000000000000000000000000000\n      dup2\n      mstore\n      0x04\n      add\n      tag_370\n      swap1\n      tag_284\n      jump\t// in\n    tag_370:\n      mload(0x40)\n      dup1\n      swap2\n      sub\n      swap1\n      revert\n    tag_369:\n        /* \"XODEX2.sol\":18909:18941  IUniswapV2Router02 _newPCSRouter */\n      0x00\n        /* \"XODEX2.sol\":18963:18972  newRouter */\n      dup2\n        /* \"XODEX2.sol\":18909:18973  IUniswapV2Router02 _newPCSRouter = IUniswapV2Router02(newRouter) */\n      swap1\n      pop\n        /* \"XODEX2.sol\":19001:19014  _newPCSRouter */\n      dup1\n        /* \"XODEX2.sol\":18983:18998  uniswapV2Router */\n      0x0f\n      0x01\n        /* \"XODEX2.sol\":18983:19014  uniswapV2Router = _newPCSRouter */\n      0x0100\n      exp\n      dup2\n      sload\n      dup2\n      0xffffffffffffffffffffffffffffffffffffffff\n      mul\n      not\n      and\n      swap1\n      dup4\n      0xffffffffffffffffffffffffffffffffffffffff\n      and\n      mul\n      or\n      swap1\n      sstore\n      pop\n        /* \"XODEX2.sol\":18835:19021  {... */\n      pop\n        /* \"XODEX2.sol\":18767:19021  function set_New_Router_Address(address newRouter) public onlyOwner {... */\n      pop\n      jump\t// out\n        /* \"XODEX2.sol\":15748:15963  function increaseAllowance(address spender, uint256 addedValue) public virtual returns (bool) {... */\n    tag_131:\n        /* \"XODEX2.sol\":15836:15840  bool */\n      0x00\n        /* \"XODEX2.sol\":15852:15935  _approve(_msgSender(), spender, _allowances[_msgSender()][spender].add(addedValue)) */\n      tag_372\n        /* \"XODEX2.sol\":15861:15873  _msgSender() */\n      tag_373\n        /* \"XODEX2.sol\":15861:15871  _msgSender */\n      tag_273\n        /* \"XODEX2.sol\":15861:15873  _msgSender() */\n      jump\t// in\n    tag_373:\n        /* \"XODEX2.sol\":15875:15882  spender */\n      dup5\n        /* \"XODEX2.sol\":15884:15934  _allowances[_msgSender()][spender].add(addedValue) */\n      tag_374\n        /* \"XODEX2.sol\":15923:15933  addedValue */\n      dup6\n        /* \"XODEX2.sol\":15884:15895  _allowances */\n      0x02\n        /* \"XODEX2.sol\":15884:15909  _allowances[_msgSender()] */\n      0x00\n        /* \"XODEX2.sol\":15896:15908  _msgSender() */\n      tag_375\n        /* \"XODEX2.sol\":15896:15906  _msgSender */\n      tag_273\n        /* \"XODEX2.sol\":15896:15908  _msgSender() */\n      jump\t// in\n    tag_375:\n        /* \"XODEX2.sol\":15884:15909  _allowances[_msgSender()] */\n      0xffffffffffffffffffffffffffffffffffffffff\n      and\n      0xffffffffffffffffffffffffffffffffffffffff\n      and\n      dup2\n      mstore\n      0x20\n      add\n      swap1\n      dup2\n      mstore\n      0x20\n      add\n      0x00\n      keccak256\n        /* \"XODEX2.sol\":15884:15918  _allowances[_msgSender()][spender] */\n      0x00\n        /* \"XODEX2.sol\":15910:15917  spender */\n      dup10\n        /* \"XODEX2.sol\":15884:15918  _allowances[_msgSender()][spender] */\n      0xffffffffffffffffffffffffffffffffffffffff\n      and\n      0xffffffffffffffffffffffffffffffffffffffff\n      and\n      dup2\n      mstore\n      0x20\n      add\n      swap1\n      dup2\n      mstore\n      0x20\n      add\n      0x00\n      keccak256\n      sload\n        /* \"XODEX2.sol\":15884:15922  _allowances[_msgSender()][spender].add */\n      tag_376\n      swap1\n        /* \"XODEX2.sol\":15884:15934  _allowances[_msgSender()][spender].add(addedValue) */\n      swap2\n      swap1\n      0xffffffff\n      and\n      jump\t// in\n    tag_374:\n        /* \"XODEX2.sol\":15852:15860  _approve */\n      tag_274\n        /* \"XODEX2.sol\":15852:15935  _approve(_msgSender(), spender, _allowances[_msgSender()][spender].add(addedValue)) */\n      jump\t// in\n    tag_372:\n        /* \"XODEX2.sol\":15952:15956  true */\n      0x01\n        /* \"XODEX2.sol\":15945:15956  return true */\n      swap1\n      pop\n        /* \"XODEX2.sol\":15748:15963  function increaseAllowance(address spender, uint256 addedValue) public virtual returns (bool) {... */\n      swap3\n      swap2\n      pop\n      pop\n      jump\t// out\n        /* \"XODEX2.sol\":20720:21187  function unBlacklist_Wallets(address[] calldata addresses) external onlyOwner {... */\n    tag_136:\n        /* \"XODEX2.sol\":2457:2469  _msgSender() */\n      tag_378\n        /* \"XODEX2.sol\":2457:2467  _msgSender */\n      tag_273\n        /* \"XODEX2.sol\":2457:2469  _msgSender() */\n      jump\t// in\n    tag_378:\n        /* \"XODEX2.sol\":2446:2469  owner() == _msgSender() */\n      0xffffffffffffffffffffffffffffffffffffffff\n      and\n        /* \"XODEX2.sol\":2446:2453  owner() */\n      tag_379\n        /* \"XODEX2.sol\":2446:2451  owner */\n      tag_195\n        /* \"XODEX2.sol\":2446:2453  owner() */\n      jump\t// in\n    tag_379:\n        /* \"XODEX2.sol\":2446:2469  owner() == _msgSender() */\n      0xffffffffffffffffffffffffffffffffffffffff\n      and\n      eq\n        /* \"XODEX2.sol\":2438:2506  require(owner() == _msgSender(), \"Ownable: caller is not the owner\") */\n      tag_380\n      jumpi\n      mload(0x40)\n      0x08c379a000000000000000000000000000000000000000000000000000000000\n      dup2\n      mstore\n      0x04\n      add\n      tag_381\n      swap1\n      tag_280\n      jump\t// in\n    tag_381:\n      mload(0x40)\n      dup1\n      swap2\n      sub\n      swap1\n      revert\n    tag_380:\n        /* \"XODEX2.sol\":20808:20824  uint256 startGas */\n      0x00\n        /* \"XODEX2.sol\":20834:20849  uint256 gasUsed */\n      dup1\n        /* \"XODEX2.sol\":20865:20874  uint256 i */\n      0x00\n        /* \"XODEX2.sol\":20860:21181  for (uint256 i; i < addresses.length; ++i) {... */\n    tag_383:\n        /* \"XODEX2.sol\":20880:20889  addresses */\n      dup5\n      dup5\n        /* \"XODEX2.sol\":20880:20896  addresses.length */\n      swap1\n      pop\n        /* \"XODEX2.sol\":20876:20877  i */\n      dup2\n        /* \"XODEX2.sol\":20876:20896  i < addresses.length */\n      lt\n        /* \"XODEX2.sol\":20860:21181  for (uint256 i; i < addresses.length; ++i) {... */\n      iszero\n      tag_384\n      jumpi\n        /* \"XODEX2.sol\":20931:20940  gasleft() */\n      gas\n        /* \"XODEX2.sol\":20921:20928  gasUsed */\n      dup3\n        /* \"XODEX2.sol\":20921:20940  gasUsed < gasleft() */\n      lt\n        /* \"XODEX2.sol\":20917:21171  if (gasUsed < gasleft()) {... */\n      iszero\n      tag_386\n      jumpi\n        /* \"XODEX2.sol\":20971:20980  gasleft() */\n      gas\n        /* \"XODEX2.sol\":20960:20980  startGas = gasleft() */\n      swap3\n      pop\n        /* \"XODEX2.sol\":21002:21016  _isBlacklisted */\n      0x04\n        /* \"XODEX2.sol\":21002:21030  _isBlacklisted[addresses[i]] */\n      0x00\n        /* \"XODEX2.sol\":21017:21026  addresses */\n      dup7\n      dup7\n        /* \"XODEX2.sol\":21027:21028  i */\n      dup5\n        /* \"XODEX2.sol\":21017:21029  addresses[i] */\n      dup2\n      dup2\n      lt\n      tag_387\n      jumpi\n      tag_388\n      tag_320\n      jump\t// in\n    tag_388:\n    tag_387:\n      swap1\n      pop\n      0x20\n      mul\n      add\n      0x20\n      dup2\n      add\n      swap1\n      tag_389\n      swap2\n      swap1\n      tag_73\n      jump\t// in\n    tag_389:\n        /* \"XODEX2.sol\":21002:21030  _isBlacklisted[addresses[i]] */\n      0xffffffffffffffffffffffffffffffffffffffff\n      and\n      0xffffffffffffffffffffffffffffffffffffffff\n      and\n      dup2\n      mstore\n      0x20\n      add\n      swap1\n      dup2\n      mstore\n      0x20\n      add\n      0x00\n      keccak256\n      0x00\n      swap1\n      sload\n      swap1\n      0x0100\n      exp\n      swap1\n      div\n      0xff\n      and\n        /* \"XODEX2.sol\":20998:21109  if (_isBlacklisted[addresses[i]]) {... */\n      iszero\n      tag_390\n      jumpi\n        /* \"XODEX2.sol\":21085:21090  false */\n      0x00\n        /* \"XODEX2.sol\":21054:21068  _isBlacklisted */\n      0x04\n        /* \"XODEX2.sol\":21054:21082  _isBlacklisted[addresses[i]] */\n      0x00\n        /* \"XODEX2.sol\":21069:21078  addresses */\n      dup8\n      dup8\n        /* \"XODEX2.sol\":21079:21080  i */\n      dup6\n        /* \"XODEX2.sol\":21069:21081  addresses[i] */\n      dup2\n      dup2\n      lt\n      tag_391\n      jumpi\n      tag_392\n      tag_320\n      jump\t// in\n    tag_392:\n    tag_391:\n      swap1\n      pop\n      0x20\n      mul\n      add\n      0x20\n      dup2\n      add\n      swap1\n      tag_393\n      swap2\n      swap1\n      tag_73\n      jump\t// in\n    tag_393:\n        /* \"XODEX2.sol\":21054:21082  _isBlacklisted[addresses[i]] */\n      0xffffffffffffffffffffffffffffffffffffffff\n      and\n      0xffffffffffffffffffffffffffffffffffffffff\n      and\n      dup2\n      mstore\n      0x20\n      add\n      swap1\n      dup2\n      mstore\n      0x20\n      add\n      0x00\n      keccak256\n      0x00\n        /* \"XODEX2.sol\":21054:21090  _isBlacklisted[addresses[i]] = false */\n      0x0100\n      exp\n      dup2\n      sload\n      dup2\n      0xff\n      mul\n      not\n      and\n      swap1\n      dup4\n      iszero\n      iszero\n      mul\n      or\n      swap1\n      sstore\n      pop\n        /* \"XODEX2.sol\":20998:21109  if (_isBlacklisted[addresses[i]]) {... */\n    tag_390:\n        /* \"XODEX2.sol\":21147:21156  gasleft() */\n      gas\n        /* \"XODEX2.sol\":21136:21144  startGas */\n      dup4\n        /* \"XODEX2.sol\":21136:21156  startGas - gasleft() */\n      tag_394\n      swap2\n      swap1\n      tag_327\n      jump\t// in\n    tag_394:\n        /* \"XODEX2.sol\":21126:21156  gasUsed = startGas - gasleft() */\n      swap2\n      pop\n        /* \"XODEX2.sol\":20917:21171  if (gasUsed < gasleft()) {... */\n    tag_386:\n        /* \"XODEX2.sol\":20898:20901  ++i */\n      dup1\n      tag_395\n      swap1\n      tag_329\n      jump\t// in\n    tag_395:\n      swap1\n      pop\n        /* \"XODEX2.sol\":20860:21181  for (uint256 i; i < addresses.length; ++i) {... */\n      jump(tag_383)\n    tag_384:\n      pop\n        /* \"XODEX2.sol\":20798:21187  {... */\n      pop\n      pop\n        /* \"XODEX2.sol\":20720:21187  function unBlacklist_Wallets(address[] calldata addresses) external onlyOwner {... */\n      pop\n      pop\n      jump\t// out\n        /* \"XODEX2.sol\":12765:12791  uint256 public _buyFee = 5 */\n    tag_139:\n      sload(0x0c)\n      dup2\n      jump\t// out\n        /* \"XODEX2.sol\":15572:15742  function excludeFromFee(address account) public onlyOwner {... */\n    tag_144:\n        /* \"XODEX2.sol\":2457:2469  _msgSender() */\n      tag_397\n        /* \"XODEX2.sol\":2457:2467  _msgSender */\n      tag_273\n        /* \"XODEX2.sol\":2457:2469  _msgSender() */\n      jump\t// in\n    tag_397:\n        /* \"XODEX2.sol\":2446:2469  owner() == _msgSender() */\n      0xffffffffffffffffffffffffffffffffffffffff\n      and\n        /* \"XODEX2.sol\":2446:2453  owner() */\n      tag_398\n        /* \"XODEX2.sol\":2446:2451  owner */\n      tag_195\n        /* \"XODEX2.sol\":2446:2453  owner() */\n      jump\t// in\n    tag_398:\n        /* \"XODEX2.sol\":2446:2469  owner() == _msgSender() */\n      0xffffffffffffffffffffffffffffffffffffffff\n      and\n      eq\n        /* \"XODEX2.sol\":2438:2506  require(owner() == _msgSender(), \"Ownable: caller is not the owner\") */\n      tag_399\n      jumpi\n      mload(0x40)\n      0x08c379a000000000000000000000000000000000000000000000000000000000\n      dup2\n      mstore\n      0x04\n      add\n      tag_400\n      swap1\n      tag_280\n      jump\t// in\n    tag_400:\n      mload(0x40)\n      dup1\n      swap2\n      sub\n      swap1\n      revert\n    tag_399:\n        /* \"XODEX2.sol\":15667:15668  0 */\n      0x00\n        /* \"XODEX2.sol\":15648:15669  account != address(0) */\n      0xffffffffffffffffffffffffffffffffffffffff\n      and\n        /* \"XODEX2.sol\":15648:15655  account */\n      dup2\n        /* \"XODEX2.sol\":15648:15669  account != address(0) */\n      0xffffffffffffffffffffffffffffffffffffffff\n      and\n      sub\n        /* \"XODEX2.sol\":15640:15691  require(account != address(0), \"ERR: zero address\") */\n      tag_402\n      jumpi\n      mload(0x40)\n      0x08c379a000000000000000000000000000000000000000000000000000000000\n      dup2\n      mstore\n      0x04\n      add\n      tag_403\n      swap1\n      tag_284\n      jump\t// in\n    tag_403:\n      mload(0x40)\n      dup1\n      swap2\n      sub\n      swap1\n      revert\n    tag_402:\n        /* \"XODEX2.sol\":15731:15735  true */\n      0x01\n        /* \"XODEX2.sol\":15701:15719  _isExcludedFromFee */\n      0x03\n        /* \"XODEX2.sol\":15701:15728  _isExcludedFromFee[account] */\n      0x00\n        /* \"XODEX2.sol\":15720:15727  account */\n      dup4\n        /* \"XODEX2.sol\":15701:15728  _isExcludedFromFee[account] */\n      0xffffffffffffffffffffffffffffffffffffffff\n      and\n      0xffffffffffffffffffffffffffffffffffffffff\n      and\n      dup2\n      mstore\n      0x20\n      add\n      swap1\n      dup2\n      mstore\n      0x20\n      add\n      0x00\n      keccak256\n      0x00\n        /* \"XODEX2.sol\":15701:15735  _isExcludedFromFee[account] = true */\n      0x0100\n      exp\n      dup2\n      sload\n      dup2\n      0xff\n      mul\n      not\n      and\n      swap1\n      dup4\n      iszero\n      iszero\n      mul\n      or\n      swap1\n      sstore\n      pop\n        /* \"XODEX2.sol\":15572:15742  function excludeFromFee(address account) public onlyOwner {... */\n      pop\n      jump\t// out\n        /* \"XODEX2.sol\":12727:12759  uint256 public _TransferFee = 10 */\n    tag_147:\n      sload(0x0b)\n      dup2\n      jump\t// out\n        /* \"XODEX2.sol\":12963:12991  address public uniswapV2Pair */\n    tag_151:\n      0x10\n      0x00\n      swap1\n      sload\n      swap1\n      0x0100\n      exp\n      swap1\n      div\n      0xffffffffffffffffffffffffffffffffffffffff\n      and\n      dup2\n      jump\t// out\n        /* \"XODEX2.sol\":12511:12561  uint256 public _maxToken = _tTotal.mul(2).div(100) */\n    tag_156:\n      sload(0x07)\n      dup2\n      jump\t// out\n        /* \"XODEX2.sol\":12797:12824  uint256 public _sellFee = 5 */\n    tag_160:\n      sload(0x0d)\n      dup2\n      jump\t// out\n        /* \"XODEX2.sol\":24542:24747  function _set_Fees(uint256 Buy_Fee, uint256 Sell_Fee) external onlyOwner {... */\n    tag_166:\n        /* \"XODEX2.sol\":2457:2469  _msgSender() */\n      tag_405\n        /* \"XODEX2.sol\":2457:2467  _msgSender */\n      tag_273\n        /* \"XODEX2.sol\":2457:2469  _msgSender() */\n      jump\t// in\n    tag_405:\n        /* \"XODEX2.sol\":2446:2469  owner() == _msgSender() */\n      0xffffffffffffffffffffffffffffffffffffffff\n      and\n        /* \"XODEX2.sol\":2446:2453  owner() */\n      tag_406\n        /* \"XODEX2.sol\":2446:2451  owner */\n      tag_195\n        /* \"XODEX2.sol\":2446:2453  owner() */\n      jump\t// in\n    tag_406:\n        /* \"XODEX2.sol\":2446:2469  owner() == _msgSender() */\n      0xffffffffffffffffffffffffffffffffffffffff\n      and\n      eq\n        /* \"XODEX2.sol\":2438:2506  require(owner() == _msgSender(), \"Ownable: caller is not the owner\") */\n      tag_407\n      jumpi\n      mload(0x40)\n      0x08c379a000000000000000000000000000000000000000000000000000000000\n      dup2\n      mstore\n      0x04\n      add\n      tag_408\n      swap1\n      tag_280\n      jump\t// in\n    tag_408:\n      mload(0x40)\n      dup1\n      swap2\n      sub\n      swap1\n      revert\n    tag_407:\n        /* \"XODEX2.sol\":12462:12464  25 */\n      0x19\n        /* \"XODEX2.sol\":24644:24652  Sell_Fee */\n      dup2\n        /* \"XODEX2.sol\":24634:24641  Buy_Fee */\n      dup4\n        /* \"XODEX2.sol\":24634:24652  Buy_Fee + Sell_Fee */\n      tag_410\n      swap2\n      swap1\n      tag_411\n      jump\t// in\n    tag_410:\n        /* \"XODEX2.sol\":24633:24663  (Buy_Fee + Sell_Fee) <= maxFee */\n      gt\n      iszero\n        /* \"XODEX2.sol\":24625:24684  require((Buy_Fee + Sell_Fee) <= maxFee, \"Fee is too high!\") */\n      tag_412\n      jumpi\n      mload(0x40)\n      0x08c379a000000000000000000000000000000000000000000000000000000000\n      dup2\n      mstore\n      0x04\n      add\n      tag_413\n      swap1\n      tag_414\n      jump\t// in\n    tag_413:\n      mload(0x40)\n      dup1\n      swap2\n      sub\n      swap1\n      revert\n    tag_412:\n        /* \"XODEX2.sol\":24705:24713  Sell_Fee */\n      dup1\n        /* \"XODEX2.sol\":24694:24702  _sellFee */\n      0x0d\n        /* \"XODEX2.sol\":24694:24713  _sellFee = Sell_Fee */\n      dup2\n      swap1\n      sstore\n      pop\n        /* \"XODEX2.sol\":24733:24740  Buy_Fee */\n      dup2\n        /* \"XODEX2.sol\":24723:24730  _buyFee */\n      0x0c\n        /* \"XODEX2.sol\":24723:24740  _buyFee = Buy_Fee */\n      dup2\n      swap1\n      sstore\n      pop\n        /* \"XODEX2.sol\":24542:24747  function _set_Fees(uint256 Buy_Fee, uint256 Sell_Fee) external onlyOwner {... */\n      pop\n      pop\n      jump\t// out\n        /* \"XODEX2.sol\":14824:14943  function balanceOf(address account) public view override returns (uint256) {... */\n    tag_170:\n        /* \"XODEX2.sol\":14890:14897  uint256 */\n      0x00\n        /* \"XODEX2.sol\":14916:14927  _totalOwned */\n      0x01\n        /* \"XODEX2.sol\":14916:14936  _totalOwned[account] */\n      0x00\n        /* \"XODEX2.sol\":14928:14935  account */\n      dup4\n        /* \"XODEX2.sol\":14916:14936  _totalOwned[account] */\n      0xffffffffffffffffffffffffffffffffffffffff\n      and\n      0xffffffffffffffffffffffffffffffffffffffff\n      and\n      dup2\n      mstore\n      0x20\n      add\n      swap1\n      dup2\n      mstore\n      0x20\n      add\n      0x00\n      keccak256\n      sload\n        /* \"XODEX2.sol\":14909:14936  return _totalOwned[account] */\n      swap1\n      pop\n        /* \"XODEX2.sol\":14824:14943  function balanceOf(address account) public view override returns (uint256) {... */\n      swap2\n      swap1\n      pop\n      jump\t// out\n        /* \"XODEX2.sol\":2572:2717  function renounceOwnership() public virtual onlyOwner {... */\n    tag_174:\n        /* \"XODEX2.sol\":2457:2469  _msgSender() */\n      tag_417\n        /* \"XODEX2.sol\":2457:2467  _msgSender */\n      tag_273\n        /* \"XODEX2.sol\":2457:2469  _msgSender() */\n      jump\t// in\n    tag_417:\n        /* \"XODEX2.sol\":2446:2469  owner() == _msgSender() */\n      0xffffffffffffffffffffffffffffffffffffffff\n      and\n        /* \"XODEX2.sol\":2446:2453  owner() */\n      tag_418\n        /* \"XODEX2.sol\":2446:2451  owner */\n      tag_195\n        /* \"XODEX2.sol\":2446:2453  owner() */\n      jump\t// in\n    tag_418:\n        /* \"XODEX2.sol\":2446:2469  owner() == _msgSender() */\n      0xffffffffffffffffffffffffffffffffffffffff\n      and\n      eq\n        /* \"XODEX2.sol\":2438:2506  require(owner() == _msgSender(), \"Ownable: caller is not the owner\") */\n      tag_419\n      jumpi\n      mload(0x40)\n      0x08c379a000000000000000000000000000000000000000000000000000000000\n      dup2\n      mstore\n      0x04\n      add\n      tag_420\n      swap1\n      tag_280\n      jump\t// in\n    tag_420:\n      mload(0x40)\n      dup1\n      swap2\n      sub\n      swap1\n      revert\n    tag_419:\n        /* \"XODEX2.sol\":2678:2679  0 */\n      0x00\n        /* \"XODEX2.sol\":2641:2681  OwnershipTransferred(_owner, address(0)) */\n      0xffffffffffffffffffffffffffffffffffffffff\n      and\n        /* \"XODEX2.sol\":2662:2668  _owner */\n      0x00\n      dup1\n      sload\n      swap1\n      0x0100\n      exp\n      swap1\n      div\n      0xffffffffffffffffffffffffffffffffffffffff\n      and\n        /* \"XODEX2.sol\":2641:2681  OwnershipTransferred(_owner, address(0)) */\n      0xffffffffffffffffffffffffffffffffffffffff\n      and\n      0x8be0079c531659141344cd1fd0a4f28419497f9722a3daafe3b4186f6b6457e0\n      mload(0x40)\n      mload(0x40)\n      dup1\n      swap2\n      sub\n      swap1\n      log3\n        /* \"XODEX2.sol\":2708:2709  0 */\n      0x00\n        /* \"XODEX2.sol\":2691:2697  _owner */\n      dup1\n      0x00\n        /* \"XODEX2.sol\":2691:2710  _owner = address(0) */\n      0x0100\n      exp\n      dup2\n      sload\n      dup2\n      0xffffffffffffffffffffffffffffffffffffffff\n      mul\n      not\n      and\n      swap1\n      dup4\n      0xffffffffffffffffffffffffffffffffffffffff\n      and\n      mul\n      or\n      swap1\n      sstore\n      pop\n        /* \"XODEX2.sol\":2572:2717  function renounceOwnership() public virtual onlyOwner {... */\n      jump\t// out\n        /* \"XODEX2.sol\":11874:11924  mapping(address => bool) public _isExcludedFromFee */\n    tag_178:\n      mstore(0x20, 0x03)\n      dup1\n      0x00\n      mstore\n      keccak256(0x00, 0x40)\n      0x00\n      swap2\n      pop\n      sload\n      swap1\n      0x0100\n      exp\n      swap1\n      div\n      0xff\n      and\n      dup2\n      jump\t// out\n        /* \"XODEX2.sol\":19478:19637  function set_Number_Of_Transactions_Before_Liquify_Trigger(uint8 number_of_transactions) public onlyOwner {... */\n    tag_184:\n        /* \"XODEX2.sol\":2457:2469  _msgSender() */\n      tag_423\n        /* \"XODEX2.sol\":2457:2467  _msgSender */\n      tag_273\n        /* \"XODEX2.sol\":2457:2469  _msgSender() */\n      jump\t// in\n    tag_423:\n        /* \"XODEX2.sol\":2446:2469  owner() == _msgSender() */\n      0xffffffffffffffffffffffffffffffffffffffff\n      and\n        /* \"XODEX2.sol\":2446:2453  owner() */\n      tag_424\n        /* \"XODEX2.sol\":2446:2451  owner */\n      tag_195\n        /* \"XODEX2.sol\":2446:2453  owner() */\n      jump\t// in\n    tag_424:\n        /* \"XODEX2.sol\":2446:2469  owner() == _msgSender() */\n      0xffffffffffffffffffffffffffffffffffffffff\n      and\n      eq\n        /* \"XODEX2.sol\":2438:2506  require(owner() == _msgSender(), \"Ownable: caller is not the owner\") */\n      tag_425\n      jumpi\n      mload(0x40)\n      0x08c379a000000000000000000000000000000000000000000000000000000000\n      dup2\n      mstore\n      0x04\n      add\n      tag_426\n      swap1\n      tag_280\n      jump\t// in\n    tag_426:\n      mload(0x40)\n      dup1\n      swap2\n      sub\n      swap1\n      revert\n    tag_425:\n        /* \"XODEX2.sol\":19608:19630  number_of_transactions */\n      dup1\n        /* \"XODEX2.sol\":19594:19605  swapTrigger */\n      0x05\n      0x16\n        /* \"XODEX2.sol\":19594:19630  swapTrigger = number_of_transactions */\n      0x0100\n      exp\n      dup2\n      sload\n      dup2\n      0xff\n      mul\n      not\n      and\n      swap1\n      dup4\n      0xff\n      and\n      mul\n      or\n      swap1\n      sstore\n      pop\n        /* \"XODEX2.sol\":19478:19637  function set_Number_Of_Transactions_Before_Liquify_Trigger(uint8 number_of_transactions) public onlyOwner {... */\n      pop\n      jump\t// out\n        /* \"XODEX2.sol\":12614:12667  uint256 public _maxTxAmount = _tTotal.mul(1).div(100) */\n    tag_187:\n      sload(0x09)\n      dup2\n      jump\t// out\n        /* \"XODEX2.sol\":13025:13061  bool public swapAndLiqEnabled = true */\n    tag_191:\n      0x10\n      0x15\n      swap1\n      sload\n      swap1\n      0x0100\n      exp\n      swap1\n      div\n      0xff\n      and\n      dup2\n      jump\t// out\n        /* \"XODEX2.sol\":2268:2353  function owner() public view virtual returns (address) {... */\n    tag_195:\n        /* \"XODEX2.sol\":2314:2321  address */\n      0x00\n        /* \"XODEX2.sol\":2340:2346  _owner */\n      dup1\n      0x00\n      swap1\n      sload\n      swap1\n      0x0100\n      exp\n      swap1\n      div\n      0xffffffffffffffffffffffffffffffffffffffff\n      and\n        /* \"XODEX2.sol\":2333:2346  return _owner */\n      swap1\n      pop\n        /* \"XODEX2.sol\":2268:2353  function owner() public view virtual returns (address) {... */\n      swap1\n      jump\t// out\n        /* \"XODEX2.sol\":19198:19283  function symbol() public view returns (string memory) {... */\n    tag_199:\n        /* \"XODEX2.sol\":19237:19250  string memory */\n      0x60\n        /* \"XODEX2.sol\":19269:19276  _symbol */\n      mload(0x40)\n      dup1\n      0x40\n      add\n      0x40\n      mstore\n      dup1\n      0x05\n      dup2\n      mstore\n      0x20\n      add\n      0x584f444558000000000000000000000000000000000000000000000000000000\n      dup2\n      mstore\n      pop\n        /* \"XODEX2.sol\":19262:19276  return _symbol */\n      swap1\n      pop\n        /* \"XODEX2.sol\":19198:19283  function symbol() public view returns (string memory) {... */\n      swap1\n      jump\t// out\n        /* \"XODEX2.sol\":19909:20054  function set_Max_Wal_Percent(uint256 maxWallPercent_x100) external onlyOwner {... */\n    tag_204:\n        /* \"XODEX2.sol\":2457:2469  _msgSender() */\n      tag_431\n        /* \"XODEX2.sol\":2457:2467  _msgSender */\n      tag_273\n        /* \"XODEX2.sol\":2457:2469  _msgSender() */\n      jump\t// in\n    tag_431:\n        /* \"XODEX2.sol\":2446:2469  owner() == _msgSender() */\n      0xffffffffffffffffffffffffffffffffffffffff\n      and\n        /* \"XODEX2.sol\":2446:2453  owner() */\n      tag_432\n        /* \"XODEX2.sol\":2446:2451  owner */\n      tag_195\n        /* \"XODEX2.sol\":2446:2453  owner() */\n      jump\t// in\n    tag_432:\n        /* \"XODEX2.sol\":2446:2469  owner() == _msgSender() */\n      0xffffffffffffffffffffffffffffffffffffffff\n      and\n      eq\n        /* \"XODEX2.sol\":2438:2506  require(owner() == _msgSender(), \"Ownable: caller is not the owner\") */\n      tag_433\n      jumpi\n      mload(0x40)\n      0x08c379a000000000000000000000000000000000000000000000000000000000\n      dup2\n      mstore\n      0x04\n      add\n      tag_434\n      swap1\n      tag_280\n      jump\t// in\n    tag_434:\n      mload(0x40)\n      dup1\n      swap2\n      sub\n      swap1\n      revert\n    tag_433:\n        /* \"XODEX2.sol\":20042:20047  10000 */\n      0x2710\n        /* \"XODEX2.sol\":20019:20038  maxWallPercent_x100 */\n      dup2\n        /* \"XODEX2.sol\":12121:12141  10000000000 * 10**18 */\n      0x204fce5e3e25026110000000\n        /* \"XODEX2.sol\":20009:20038  _tTotal * maxWallPercent_x100 */\n      tag_436\n      swap2\n      swap1\n      tag_304\n      jump\t// in\n    tag_436:\n        /* \"XODEX2.sol\":20008:20047  (_tTotal * maxWallPercent_x100) / 10000 */\n      tag_437\n      swap2\n      swap1\n      tag_306\n      jump\t// in\n    tag_437:\n        /* \"XODEX2.sol\":19996:20005  _maxToken */\n      0x07\n        /* \"XODEX2.sol\":19996:20047  _maxToken = (_tTotal * maxWallPercent_x100) / 10000 */\n      dup2\n      swap1\n      sstore\n      pop\n        /* \"XODEX2.sol\":19909:20054  function set_Max_Wal_Percent(uint256 maxWallPercent_x100) external onlyOwner {... */\n      pop\n      jump\t// out\n        /* \"XODEX2.sol\":14711:14818  function blacklist_Toggle(bool true_or_false) public onlyOwner {... */\n    tag_209:\n        /* \"XODEX2.sol\":2457:2469  _msgSender() */\n      tag_439\n        /* \"XODEX2.sol\":2457:2467  _msgSender */\n      tag_273\n        /* \"XODEX2.sol\":2457:2469  _msgSender() */\n      jump\t// in\n    tag_439:\n        /* \"XODEX2.sol\":2446:2469  owner() == _msgSender() */\n      0xffffffffffffffffffffffffffffffffffffffff\n      and\n        /* \"XODEX2.sol\":2446:2453  owner() */\n      tag_440\n        /* \"XODEX2.sol\":2446:2451  owner */\n      tag_195\n        /* \"XODEX2.sol\":2446:2453  owner() */\n      jump\t// in\n    tag_440:\n        /* \"XODEX2.sol\":2446:2469  owner() == _msgSender() */\n      0xffffffffffffffffffffffffffffffffffffffff\n      and\n      eq\n        /* \"XODEX2.sol\":2438:2506  require(owner() == _msgSender(), \"Ownable: caller is not the owner\") */\n      tag_441\n      jumpi\n      mload(0x40)\n      0x08c379a000000000000000000000000000000000000000000000000000000000\n      dup2\n      mstore\n      0x04\n      add\n      tag_442\n      swap1\n      tag_280\n      jump\t// in\n    tag_442:\n      mload(0x40)\n      dup1\n      swap2\n      sub\n      swap1\n      revert\n    tag_441:\n        /* \"XODEX2.sol\":14798:14811  true_or_false */\n      dup1\n        /* \"XODEX2.sol\":14784:14795  isBlackList */\n      0x05\n      0x00\n        /* \"XODEX2.sol\":14784:14811  isBlackList = true_or_false */\n      0x0100\n      exp\n      dup2\n      sload\n      dup2\n      0xff\n      mul\n      not\n      and\n      swap1\n      dup4\n      iszero\n      iszero\n      mul\n      or\n      swap1\n      sstore\n      pop\n        /* \"XODEX2.sol\":14711:14818  function blacklist_Toggle(bool true_or_false) public onlyOwner {... */\n      pop\n      jump\t// out\n        /* \"XODEX2.sol\":14949:15261  function decreaseAllowance(address spender, uint256 subtractedValue) public virtual returns (bool) {... */\n    tag_213:\n        /* \"XODEX2.sol\":15042:15046  bool */\n      0x00\n        /* \"XODEX2.sol\":15058:15233  _approve(... */\n      tag_445\n        /* \"XODEX2.sol\":15080:15092  _msgSender() */\n      tag_446\n        /* \"XODEX2.sol\":15080:15090  _msgSender */\n      tag_273\n        /* \"XODEX2.sol\":15080:15092  _msgSender() */\n      jump\t// in\n    tag_446:\n        /* \"XODEX2.sol\":15106:15113  spender */\n      dup5\n        /* \"XODEX2.sol\":15127:15223  _allowances[_msgSender()][spender].sub(subtractedValue, \"ERC20: decreased allowance below zero\") */\n      tag_447\n        /* \"XODEX2.sol\":15166:15181  subtractedValue */\n      dup6\n        /* \"XODEX2.sol\":15127:15223  _allowances[_msgSender()][spender].sub(subtractedValue, \"ERC20: decreased allowance below zero\") */\n      mload(0x40)\n      dup1\n      0x60\n      add\n      0x40\n      mstore\n      dup1\n      0x25\n      dup2\n      mstore\n      0x20\n      add\n      data_f8b476f7d28209d77d4a4ac1fe36b9f8259aa1bb6bddfa6e89de7e51615cf8a8\n      0x25\n      swap2\n      codecopy\n        /* \"XODEX2.sol\":15127:15138  _allowances */\n      0x02\n        /* \"XODEX2.sol\":15127:15152  _allowances[_msgSender()] */\n      0x00\n        /* \"XODEX2.sol\":15139:15151  _msgSender() */\n      tag_448\n        /* \"XODEX2.sol\":15139:15149  _msgSender */\n      tag_273\n        /* \"XODEX2.sol\":15139:15151  _msgSender() */\n      jump\t// in\n    tag_448:\n        /* \"XODEX2.sol\":15127:15152  _allowances[_msgSender()] */\n      0xffffffffffffffffffffffffffffffffffffffff\n      and\n      0xffffffffffffffffffffffffffffffffffffffff\n      and\n      dup2\n      mstore\n      0x20\n      add\n      swap1\n      dup2\n      mstore\n      0x20\n      add\n      0x00\n      keccak256\n        /* \"XODEX2.sol\":15127:15161  _allowances[_msgSender()][spender] */\n      0x00\n        /* \"XODEX2.sol\":15153:15160  spender */\n      dup11\n        /* \"XODEX2.sol\":15127:15161  _allowances[_msgSender()][spender] */\n      0xffffffffffffffffffffffffffffffffffffffff\n      and\n      0xffffffffffffffffffffffffffffffffffffffff\n      and\n      dup2\n      mstore\n      0x20\n      add\n      swap1\n      dup2\n      mstore\n      0x20\n      add\n      0x00\n      keccak256\n      sload\n        /* \"XODEX2.sol\":15127:15165  _allowances[_msgSender()][spender].sub */\n      tag_337\n      swap1\n        /* \"XODEX2.sol\":15127:15223  _allowances[_msgSender()][spender].sub(subtractedValue, \"ERC20: decreased allowance below zero\") */\n      swap3\n      swap2\n      swap1\n      0xffffffff\n      and\n      jump\t// in\n    tag_447:\n        /* \"XODEX2.sol\":15058:15066  _approve */\n      tag_274\n        /* \"XODEX2.sol\":15058:15233  _approve(... */\n      jump\t// in\n    tag_445:\n        /* \"XODEX2.sol\":15250:15254  true */\n      0x01\n        /* \"XODEX2.sol\":15243:15254  return true */\n      swap1\n      pop\n        /* \"XODEX2.sol\":14949:15261  function decreaseAllowance(address spender, uint256 subtractedValue) public virtual returns (bool) {... */\n      swap3\n      swap2\n      pop\n      pop\n      jump\t// out\n        /* \"XODEX2.sol\":20159:20323  function transfer(address recipient, uint256 amount) public override returns (bool) {... */\n    tag_218:\n        /* \"XODEX2.sol\":20237:20241  bool */\n      0x00\n        /* \"XODEX2.sol\":20253:20295  _transfer(_msgSender(), recipient, amount) */\n      tag_450\n        /* \"XODEX2.sol\":20263:20275  _msgSender() */\n      tag_451\n        /* \"XODEX2.sol\":20263:20273  _msgSender */\n      tag_273\n        /* \"XODEX2.sol\":20263:20275  _msgSender() */\n      jump\t// in\n    tag_451:\n        /* \"XODEX2.sol\":20277:20286  recipient */\n      dup5\n        /* \"XODEX2.sol\":20288:20294  amount */\n      dup5\n        /* \"XODEX2.sol\":20253:20262  _transfer */\n      tag_332\n        /* \"XODEX2.sol\":20253:20295  _transfer(_msgSender(), recipient, amount) */\n      jump\t// in\n    tag_450:\n        /* \"XODEX2.sol\":20312:20316  true */\n      0x01\n        /* \"XODEX2.sol\":20305:20316  return true */\n      swap1\n      pop\n        /* \"XODEX2.sol\":20159:20323  function transfer(address recipient, uint256 amount) public override returns (bool) {... */\n      swap3\n      swap2\n      pop\n      pop\n      jump\t// out\n        /* \"XODEX2.sol\":19643:19754  function set_TransferFees(bool true_or_false) external onlyOwner {... */\n    tag_223:\n        /* \"XODEX2.sol\":2457:2469  _msgSender() */\n      tag_453\n        /* \"XODEX2.sol\":2457:2467  _msgSender */\n      tag_273\n        /* \"XODEX2.sol\":2457:2469  _msgSender() */\n      jump\t// in\n    tag_453:\n        /* \"XODEX2.sol\":2446:2469  owner() == _msgSender() */\n      0xffffffffffffffffffffffffffffffffffffffff\n      and\n        /* \"XODEX2.sol\":2446:2453  owner() */\n      tag_454\n        /* \"XODEX2.sol\":2446:2451  owner */\n      tag_195\n        /* \"XODEX2.sol\":2446:2453  owner() */\n      jump\t// in\n    tag_454:\n        /* \"XODEX2.sol\":2446:2469  owner() == _msgSender() */\n      0xffffffffffffffffffffffffffffffffffffffff\n      and\n      eq\n        /* \"XODEX2.sol\":2438:2506  require(owner() == _msgSender(), \"Ownable: caller is not the owner\") */\n      tag_455\n      jumpi\n      mload(0x40)\n      0x08c379a000000000000000000000000000000000000000000000000000000000\n      dup2\n      mstore\n      0x04\n      add\n      tag_456\n      swap1\n      tag_280\n      jump\t// in\n    tag_456:\n      mload(0x40)\n      dup1\n      swap2\n      sub\n      swap1\n      revert\n    tag_455:\n        /* \"XODEX2.sol\":19734:19747  true_or_false */\n      dup1\n        /* \"XODEX2.sol\":19718:19731  noTransferFee */\n      0x0f\n      0x00\n        /* \"XODEX2.sol\":19718:19747  noTransferFee = true_or_false */\n      0x0100\n      exp\n      dup2\n      sload\n      dup2\n      0xff\n      mul\n      not\n      and\n      swap1\n      dup4\n      iszero\n      iszero\n      mul\n      or\n      swap1\n      sstore\n      pop\n        /* \"XODEX2.sol\":19643:19754  function set_TransferFees(bool true_or_false) external onlyOwner {... */\n      pop\n      jump\t// out\n        /* \"XODEX2.sol\":12997:13019  bool public isSwapping */\n    tag_226:\n      0x10\n      0x14\n      swap1\n      sload\n      swap1\n      0x0100\n      exp\n      swap1\n      div\n      0xff\n      and\n      dup2\n      jump\t// out\n        /* \"XODEX2.sol\":24753:24934  function _set_Transfer_Fee(uint256 Transfer_Fee) external onlyOwner {... */\n    tag_231:\n        /* \"XODEX2.sol\":2457:2469  _msgSender() */\n      tag_459\n        /* \"XODEX2.sol\":2457:2467  _msgSender */\n      tag_273\n        /* \"XODEX2.sol\":2457:2469  _msgSender() */\n      jump\t// in\n    tag_459:\n        /* \"XODEX2.sol\":2446:2469  owner() == _msgSender() */\n      0xffffffffffffffffffffffffffffffffffffffff\n      and\n        /* \"XODEX2.sol\":2446:2453  owner() */\n      tag_460\n        /* \"XODEX2.sol\":2446:2451  owner */\n      tag_195\n        /* \"XODEX2.sol\":2446:2453  owner() */\n      jump\t// in\n    tag_460:\n        /* \"XODEX2.sol\":2446:2469  owner() == _msgSender() */\n      0xffffffffffffffffffffffffffffffffffffffff\n      and\n      eq\n        /* \"XODEX2.sol\":2438:2506  require(owner() == _msgSender(), \"Ownable: caller is not the owner\") */\n      tag_461\n      jumpi\n      mload(0x40)\n      0x08c379a000000000000000000000000000000000000000000000000000000000\n      dup2\n      mstore\n      0x04\n      add\n      tag_462\n      swap1\n      tag_280\n      jump\t// in\n    tag_462:\n      mload(0x40)\n      dup1\n      swap2\n      sub\n      swap1\n      revert\n    tag_461:\n        /* \"XODEX2.sol\":24855:24869  maxTransferFee */\n      sload(0x06)\n        /* \"XODEX2.sol\":24839:24851  Transfer_Fee */\n      dup2\n        /* \"XODEX2.sol\":24839:24869  Transfer_Fee <= maxTransferFee */\n      gt\n      iszero\n        /* \"XODEX2.sol\":24831:24890  require(Transfer_Fee <= maxTransferFee, \"Fee is too high!\") */\n      tag_464\n      jumpi\n      mload(0x40)\n      0x08c379a000000000000000000000000000000000000000000000000000000000\n      dup2\n      mstore\n      0x04\n      add\n      tag_465\n      swap1\n      tag_414\n      jump\t// in\n    tag_465:\n      mload(0x40)\n      dup1\n      swap2\n      sub\n      swap1\n      revert\n    tag_464:\n        /* \"XODEX2.sol\":24915:24927  Transfer_Fee */\n      dup1\n        /* \"XODEX2.sol\":24900:24912  _TransferFee */\n      0x0b\n        /* \"XODEX2.sol\":24900:24927  _TransferFee = Transfer_Fee */\n      dup2\n      swap1\n      sstore\n      pop\n        /* \"XODEX2.sol\":24753:24934  function _set_Transfer_Fee(uint256 Transfer_Fee) external onlyOwner {... */\n      pop\n      jump\t// out\n        /* \"XODEX2.sol\":12877:12909  bool public noTransferFee = true */\n    tag_234:\n      0x0f\n      0x00\n      swap1\n      sload\n      swap1\n      0x0100\n      exp\n      swap1\n      div\n      0xff\n      and\n      dup2\n      jump\t// out\n        /* \"XODEX2.sol\":19027:19192  function set_New_Pair_Address(address newPair) public onlyOwner {... */\n    tag_239:\n        /* \"XODEX2.sol\":2457:2469  _msgSender() */\n      tag_467\n        /* \"XODEX2.sol\":2457:2467  _msgSender */\n      tag_273\n        /* \"XODEX2.sol\":2457:2469  _msgSender() */\n      jump\t// in\n    tag_467:\n        /* \"XODEX2.sol\":2446:2469  owner() == _msgSender() */\n      0xffffffffffffffffffffffffffffffffffffffff\n      and\n        /* \"XODEX2.sol\":2446:2453  owner() */\n      tag_468\n        /* \"XODEX2.sol\":2446:2451  owner */\n      tag_195\n        /* \"XODEX2.sol\":2446:2453  owner() */\n      jump\t// in\n    tag_468:\n        /* \"XODEX2.sol\":2446:2469  owner() == _msgSender() */\n      0xffffffffffffffffffffffffffffffffffffffff\n      and\n      eq\n        /* \"XODEX2.sol\":2438:2506  require(owner() == _msgSender(), \"Ownable: caller is not the owner\") */\n      tag_469\n      jumpi\n      mload(0x40)\n      0x08c379a000000000000000000000000000000000000000000000000000000000\n      dup2\n      mstore\n      0x04\n      add\n      tag_470\n      swap1\n      tag_280\n      jump\t// in\n    tag_470:\n      mload(0x40)\n      dup1\n      swap2\n      sub\n      swap1\n      revert\n    tag_469:\n        /* \"XODEX2.sol\":19128:19129  0 */\n      0x00\n        /* \"XODEX2.sol\":19109:19130  newPair != address(0) */\n      0xffffffffffffffffffffffffffffffffffffffff\n      and\n        /* \"XODEX2.sol\":19109:19116  newPair */\n      dup2\n        /* \"XODEX2.sol\":19109:19130  newPair != address(0) */\n      0xffffffffffffffffffffffffffffffffffffffff\n      and\n      sub\n        /* \"XODEX2.sol\":19101:19152  require(newPair != address(0), \"ERR: zero address\") */\n      tag_472\n      jumpi\n      mload(0x40)\n      0x08c379a000000000000000000000000000000000000000000000000000000000\n      dup2\n      mstore\n      0x04\n      add\n      tag_473\n      swap1\n      tag_284\n      jump\t// in\n    tag_473:\n      mload(0x40)\n      dup1\n      swap2\n      sub\n      swap1\n      revert\n    tag_472:\n        /* \"XODEX2.sol\":19178:19185  newPair */\n      dup1\n        /* \"XODEX2.sol\":19162:19175  uniswapV2Pair */\n      0x10\n      0x00\n        /* \"XODEX2.sol\":19162:19185  uniswapV2Pair = newPair */\n      0x0100\n      exp\n      dup2\n      sload\n      dup2\n      0xffffffffffffffffffffffffffffffffffffffff\n      mul\n      not\n      and\n      swap1\n      dup4\n      0xffffffffffffffffffffffffffffffffffffffff\n      and\n      mul\n      or\n      swap1\n      sstore\n      pop\n        /* \"XODEX2.sol\":19027:19192  function set_New_Pair_Address(address newPair) public onlyOwner {... */\n      pop\n      jump\t// out\n        /* \"XODEX2.sol\":16232:16716  function process_Tokens(uint256 percent_Of_Tokens_To_Process) public onlyOwner {... */\n    tag_243:\n        /* \"XODEX2.sol\":2457:2469  _msgSender() */\n      tag_475\n        /* \"XODEX2.sol\":2457:2467  _msgSender */\n      tag_273\n        /* \"XODEX2.sol\":2457:2469  _msgSender() */\n      jump\t// in\n    tag_475:\n        /* \"XODEX2.sol\":2446:2469  owner() == _msgSender() */\n      0xffffffffffffffffffffffffffffffffffffffff\n      and\n        /* \"XODEX2.sol\":2446:2453  owner() */\n      tag_476\n        /* \"XODEX2.sol\":2446:2451  owner */\n      tag_195\n        /* \"XODEX2.sol\":2446:2453  owner() */\n      jump\t// in\n    tag_476:\n        /* \"XODEX2.sol\":2446:2469  owner() == _msgSender() */\n      0xffffffffffffffffffffffffffffffffffffffff\n      and\n      eq\n        /* \"XODEX2.sol\":2438:2506  require(owner() == _msgSender(), \"Ownable: caller is not the owner\") */\n      tag_477\n      jumpi\n      mload(0x40)\n      0x08c379a000000000000000000000000000000000000000000000000000000000\n      dup2\n      mstore\n      0x04\n      add\n      tag_478\n      swap1\n      tag_280\n      jump\t// in\n    tag_478:\n      mload(0x40)\n      dup1\n      swap2\n      sub\n      swap1\n      revert\n    tag_477:\n        /* \"XODEX2.sol\":16375:16385  isSwapping */\n      0x10\n      0x14\n      swap1\n      sload\n      swap1\n      0x0100\n      exp\n      swap1\n      div\n      0xff\n      and\n        /* \"XODEX2.sol\":16374:16385  !isSwapping */\n      iszero\n        /* \"XODEX2.sol\":16366:16422  require(!isSwapping, \"Currently processing, try later.\") */\n      tag_480\n      jumpi\n      mload(0x40)\n      0x08c379a000000000000000000000000000000000000000000000000000000000\n      dup2\n      mstore\n      0x04\n      add\n      tag_481\n      swap1\n      tag_482\n      jump\t// in\n    tag_481:\n      mload(0x40)\n      dup1\n      swap2\n      sub\n      swap1\n      revert\n    tag_480:\n        /* \"XODEX2.sol\":16467:16470  100 */\n      0x64\n        /* \"XODEX2.sol\":16436:16464  percent_Of_Tokens_To_Process */\n      dup2\n        /* \"XODEX2.sol\":16436:16470  percent_Of_Tokens_To_Process > 100 */\n      gt\n        /* \"XODEX2.sol\":16432:16531  if (percent_Of_Tokens_To_Process > 100) {... */\n      iszero\n      tag_483\n      jumpi\n        /* \"XODEX2.sol\":16517:16520  100 */\n      0x64\n        /* \"XODEX2.sol\":16486:16520  percent_Of_Tokens_To_Process = 100 */\n      swap1\n      pop\n        /* \"XODEX2.sol\":16432:16531  if (percent_Of_Tokens_To_Process > 100) {... */\n    tag_483:\n        /* \"XODEX2.sol\":16540:16564  uint256 tokensOnContract */\n      0x00\n        /* \"XODEX2.sol\":16567:16591  balanceOf(address(this)) */\n      tag_484\n        /* \"XODEX2.sol\":16585:16589  this */\n      address\n        /* \"XODEX2.sol\":16567:16576  balanceOf */\n      tag_170\n        /* \"XODEX2.sol\":16567:16591  balanceOf(address(this)) */\n      jump\t// in\n    tag_484:\n        /* \"XODEX2.sol\":16540:16591  uint256 tokensOnContract = balanceOf(address(this)) */\n      swap1\n      pop\n        /* \"XODEX2.sol\":16601:16619  uint256 sendTokens */\n      0x00\n        /* \"XODEX2.sol\":16674:16677  100 */\n      0x64\n        /* \"XODEX2.sol\":16642:16670  percent_Of_Tokens_To_Process */\n      dup4\n        /* \"XODEX2.sol\":16623:16639  tokensOnContract */\n      dup4\n        /* \"XODEX2.sol\":16623:16670  tokensOnContract * percent_Of_Tokens_To_Process */\n      tag_485\n      swap2\n      swap1\n      tag_304\n      jump\t// in\n    tag_485:\n        /* \"XODEX2.sol\":16622:16677  (tokensOnContract * percent_Of_Tokens_To_Process) / 100 */\n      tag_486\n      swap2\n      swap1\n      tag_306\n      jump\t// in\n    tag_486:\n        /* \"XODEX2.sol\":16601:16677  uint256 sendTokens = (tokensOnContract * percent_Of_Tokens_To_Process) / 100 */\n      swap1\n      pop\n        /* \"XODEX2.sol\":16687:16709  swapTokens(sendTokens) */\n      tag_487\n        /* \"XODEX2.sol\":16698:16708  sendTokens */\n      dup2\n        /* \"XODEX2.sol\":16687:16697  swapTokens */\n      tag_488\n        /* \"XODEX2.sol\":16687:16709  swapTokens(sendTokens) */\n      jump\t// in\n    tag_487:\n        /* \"XODEX2.sol\":16311:16716  {... */\n      pop\n      pop\n        /* \"XODEX2.sol\":16232:16716  function process_Tokens(uint256 percent_Of_Tokens_To_Process) public onlyOwner {... */\n      pop\n      jump\t// out\n        /* \"XODEX2.sol\":13929:14070  function allowance(address owner, address spender) public view override returns (uint256) {... */\n    tag_248:\n        /* \"XODEX2.sol\":14010:14017  uint256 */\n      0x00\n        /* \"XODEX2.sol\":14036:14047  _allowances */\n      0x02\n        /* \"XODEX2.sol\":14036:14054  _allowances[owner] */\n      0x00\n        /* \"XODEX2.sol\":14048:14053  owner */\n      dup5\n        /* \"XODEX2.sol\":14036:14054  _allowances[owner] */\n      0xffffffffffffffffffffffffffffffffffffffff\n      and\n      0xffffffffffffffffffffffffffffffffffffffff\n      and\n      dup2\n      mstore\n      0x20\n      add\n      swap1\n      dup2\n      mstore\n      0x20\n      add\n      0x00\n      keccak256\n        /* \"XODEX2.sol\":14036:14063  _allowances[owner][spender] */\n      0x00\n        /* \"XODEX2.sol\":14055:14062  spender */\n      dup4\n        /* \"XODEX2.sol\":14036:14063  _allowances[owner][spender] */\n      0xffffffffffffffffffffffffffffffffffffffff\n      and\n      0xffffffffffffffffffffffffffffffffffffffff\n      and\n      dup2\n      mstore\n      0x20\n      add\n      swap1\n      dup2\n      mstore\n      0x20\n      add\n      0x00\n      keccak256\n      sload\n        /* \"XODEX2.sol\":14029:14063  return _allowances[owner][spender] */\n      swap1\n      pop\n        /* \"XODEX2.sol\":13929:14070  function allowance(address owner, address spender) public view override returns (uint256) {... */\n      swap3\n      swap2\n      pop\n      pop\n      jump\t// out\n        /* \"XODEX2.sol\":15969:16139  function includeInFee(address account) public onlyOwner {... */\n    tag_253:\n        /* \"XODEX2.sol\":2457:2469  _msgSender() */\n      tag_491\n        /* \"XODEX2.sol\":2457:2467  _msgSender */\n      tag_273\n        /* \"XODEX2.sol\":2457:2469  _msgSender() */\n      jump\t// in\n    tag_491:\n        /* \"XODEX2.sol\":2446:2469  owner() == _msgSender() */\n      0xffffffffffffffffffffffffffffffffffffffff\n      and\n        /* \"XODEX2.sol\":2446:2453  owner() */\n      tag_492\n        /* \"XODEX2.sol\":2446:2451  owner */\n      tag_195\n        /* \"XODEX2.sol\":2446:2453  owner() */\n      jump\t// in\n    tag_492:\n        /* \"XODEX2.sol\":2446:2469  owner() == _msgSender() */\n      0xffffffffffffffffffffffffffffffffffffffff\n      and\n      eq\n        /* \"XODEX2.sol\":2438:2506  require(owner() == _msgSender(), \"Ownable: caller is not the owner\") */\n      tag_493\n      jumpi\n      mload(0x40)\n      0x08c379a000000000000000000000000000000000000000000000000000000000\n      dup2\n      mstore\n      0x04\n      add\n      tag_494\n      swap1\n      tag_280\n      jump\t// in\n    tag_494:\n      mload(0x40)\n      dup1\n      swap2\n      sub\n      swap1\n      revert\n    tag_493:\n        /* \"XODEX2.sol\":16062:16063  0 */\n      0x00\n        /* \"XODEX2.sol\":16043:16064  account != address(0) */\n      0xffffffffffffffffffffffffffffffffffffffff\n      and\n        /* \"XODEX2.sol\":16043:16050  account */\n      dup2\n        /* \"XODEX2.sol\":16043:16064  account != address(0) */\n      0xffffffffffffffffffffffffffffffffffffffff\n      and\n      sub\n        /* \"XODEX2.sol\":16035:16086  require(account != address(0), \"ERR: zero address\") */\n      tag_496\n      jumpi\n      mload(0x40)\n      0x08c379a000000000000000000000000000000000000000000000000000000000\n      dup2\n      mstore\n      0x04\n      add\n      tag_497\n      swap1\n      tag_284\n      jump\t// in\n    tag_497:\n      mload(0x40)\n      dup1\n      swap2\n      sub\n      swap1\n      revert\n    tag_496:\n        /* \"XODEX2.sol\":16127:16132  false */\n      0x00\n        /* \"XODEX2.sol\":16097:16115  _isExcludedFromFee */\n      0x03\n        /* \"XODEX2.sol\":16097:16124  _isExcludedFromFee[account] */\n      0x00\n        /* \"XODEX2.sol\":16116:16123  account */\n      dup4\n        /* \"XODEX2.sol\":16097:16124  _isExcludedFromFee[account] */\n      0xffffffffffffffffffffffffffffffffffffffff\n      and\n      0xffffffffffffffffffffffffffffffffffffffff\n      and\n      dup2\n      mstore\n      0x20\n      add\n      swap1\n      dup2\n      mstore\n      0x20\n      add\n      0x00\n      keccak256\n      0x00\n        /* \"XODEX2.sol\":16097:16132  _isExcludedFromFee[account] = false */\n      0x0100\n      exp\n      dup2\n      sload\n      dup2\n      0xff\n      mul\n      not\n      and\n      swap1\n      dup4\n      iszero\n      iszero\n      mul\n      or\n      swap1\n      sstore\n      pop\n        /* \"XODEX2.sol\":15969:16139  function includeInFee(address account) public onlyOwner {... */\n      pop\n      jump\t// out\n        /* \"XODEX2.sol\":2770:3010  function transferOwnership(address newOwner) public virtual onlyOwner {... */\n    tag_257:\n        /* \"XODEX2.sol\":2457:2469  _msgSender() */\n      tag_499\n        /* \"XODEX2.sol\":2457:2467  _msgSender */\n      tag_273\n        /* \"XODEX2.sol\":2457:2469  _msgSender() */\n      jump\t// in\n    tag_499:\n        /* \"XODEX2.sol\":2446:2469  owner() == _msgSender() */\n      0xffffffffffffffffffffffffffffffffffffffff\n      and\n        /* \"XODEX2.sol\":2446:2453  owner() */\n      tag_500\n        /* \"XODEX2.sol\":2446:2451  owner */\n      tag_195\n        /* \"XODEX2.sol\":2446:2453  owner() */\n      jump\t// in\n    tag_500:\n        /* \"XODEX2.sol\":2446:2469  owner() == _msgSender() */\n      0xffffffffffffffffffffffffffffffffffffffff\n      and\n      eq\n        /* \"XODEX2.sol\":2438:2506  require(owner() == _msgSender(), \"Ownable: caller is not the owner\") */\n      tag_501\n      jumpi\n      mload(0x40)\n      0x08c379a000000000000000000000000000000000000000000000000000000000\n      dup2\n      mstore\n      0x04\n      add\n      tag_502\n      swap1\n      tag_280\n      jump\t// in\n    tag_502:\n      mload(0x40)\n      dup1\n      swap2\n      sub\n      swap1\n      revert\n    tag_501:\n        /* \"XODEX2.sol\":2878:2879  0 */\n      0x00\n        /* \"XODEX2.sol\":2858:2880  newOwner != address(0) */\n      0xffffffffffffffffffffffffffffffffffffffff\n      and\n        /* \"XODEX2.sol\":2858:2866  newOwner */\n      dup2\n        /* \"XODEX2.sol\":2858:2880  newOwner != address(0) */\n      0xffffffffffffffffffffffffffffffffffffffff\n      and\n      sub\n        /* \"XODEX2.sol\":2850:2923  require(newOwner != address(0), \"Ownable: new owner is the zero address\") */\n      tag_504\n      jumpi\n      mload(0x40)\n      0x08c379a000000000000000000000000000000000000000000000000000000000\n      dup2\n      mstore\n      0x04\n      add\n      tag_505\n      swap1\n      tag_506\n      jump\t// in\n    tag_505:\n      mload(0x40)\n      dup1\n      swap2\n      sub\n      swap1\n      revert\n    tag_504:\n        /* \"XODEX2.sol\":2967:2975  newOwner */\n      dup1\n        /* \"XODEX2.sol\":2938:2976  OwnershipTransferred(_owner, newOwner) */\n      0xffffffffffffffffffffffffffffffffffffffff\n      and\n        /* \"XODEX2.sol\":2959:2965  _owner */\n      0x00\n      dup1\n      sload\n      swap1\n      0x0100\n      exp\n      swap1\n      div\n      0xffffffffffffffffffffffffffffffffffffffff\n      and\n        /* \"XODEX2.sol\":2938:2976  OwnershipTransferred(_owner, newOwner) */\n      0xffffffffffffffffffffffffffffffffffffffff\n      and\n      0x8be0079c531659141344cd1fd0a4f28419497f9722a3daafe3b4186f6b6457e0\n      mload(0x40)\n      mload(0x40)\n      dup1\n      swap2\n      sub\n      swap1\n      log3\n        /* \"XODEX2.sol\":2995:3003  newOwner */\n      dup1\n        /* \"XODEX2.sol\":2986:2992  _owner */\n      0x00\n      dup1\n        /* \"XODEX2.sol\":2986:3003  _owner = newOwner */\n      0x0100\n      exp\n      dup2\n      sload\n      dup2\n      0xffffffffffffffffffffffffffffffffffffffff\n      mul\n      not\n      and\n      swap1\n      dup4\n      0xffffffffffffffffffffffffffffffffffffffff\n      and\n      mul\n      or\n      swap1\n      sstore\n      pop\n        /* \"XODEX2.sol\":2770:3010  function transferOwnership(address newOwner) public virtual onlyOwner {... */\n      pop\n      jump\t// out\n        /* \"XODEX2.sol\":15267:15479  function Update__Dev_Wallet(address payable wallet) public onlyOwner {... */\n    tag_262:\n        /* \"XODEX2.sol\":2457:2469  _msgSender() */\n      tag_508\n        /* \"XODEX2.sol\":2457:2467  _msgSender */\n      tag_273\n        /* \"XODEX2.sol\":2457:2469  _msgSender() */\n      jump\t// in\n    tag_508:\n        /* \"XODEX2.sol\":2446:2469  owner() == _msgSender() */\n      0xffffffffffffffffffffffffffffffffffffffff\n      and\n        /* \"XODEX2.sol\":2446:2453  owner() */\n      tag_509\n        /* \"XODEX2.sol\":2446:2451  owner */\n      tag_195\n        /* \"XODEX2.sol\":2446:2453  owner() */\n      jump\t// in\n    tag_509:\n        /* \"XODEX2.sol\":2446:2469  owner() == _msgSender() */\n      0xffffffffffffffffffffffffffffffffffffffff\n      and\n      eq\n        /* \"XODEX2.sol\":2438:2506  require(owner() == _msgSender(), \"Ownable: caller is not the owner\") */\n      tag_510\n      jumpi\n      mload(0x40)\n      0x08c379a000000000000000000000000000000000000000000000000000000000\n      dup2\n      mstore\n      0x04\n      add\n      tag_511\n      swap1\n      tag_280\n      jump\t// in\n    tag_511:\n      mload(0x40)\n      dup1\n      swap2\n      sub\n      swap1\n      revert\n    tag_510:\n        /* \"XODEX2.sol\":15372:15373  0 */\n      0x00\n        /* \"XODEX2.sol\":15354:15374  wallet != address(0) */\n      0xffffffffffffffffffffffffffffffffffffffff\n      and\n        /* \"XODEX2.sol\":15354:15360  wallet */\n      dup2\n        /* \"XODEX2.sol\":15354:15374  wallet != address(0) */\n      0xffffffffffffffffffffffffffffffffffffffff\n      and\n      sub\n        /* \"XODEX2.sol\":15346:15396  require(wallet != address(0), \"ERR: zero address\") */\n      tag_513\n      jumpi\n      mload(0x40)\n      0x08c379a000000000000000000000000000000000000000000000000000000000\n      dup2\n      mstore\n      0x04\n      add\n      tag_514\n      swap1\n      tag_284\n      jump\t// in\n    tag_514:\n      mload(0x40)\n      dup1\n      swap2\n      sub\n      swap1\n      revert\n    tag_513:\n        /* \"XODEX2.sol\":15419:15425  wallet */\n      dup1\n        /* \"XODEX2.sol\":15406:15416  Dev_Wallet */\n      0x05\n      0x01\n        /* \"XODEX2.sol\":15406:15425  Dev_Wallet = wallet */\n      0x0100\n      exp\n      dup2\n      sload\n      dup2\n      0xffffffffffffffffffffffffffffffffffffffff\n      mul\n      not\n      and\n      swap1\n      dup4\n      0xffffffffffffffffffffffffffffffffffffffff\n      and\n      mul\n      or\n      swap1\n      sstore\n      pop\n        /* \"XODEX2.sol\":15468:15472  true */\n      0x01\n        /* \"XODEX2.sol\":15435:15453  _isExcludedFromFee */\n      0x03\n        /* \"XODEX2.sol\":15435:15465  _isExcludedFromFee[Dev_Wallet] */\n      0x00\n        /* \"XODEX2.sol\":15454:15464  Dev_Wallet */\n      0x05\n      0x01\n      swap1\n      sload\n      swap1\n      0x0100\n      exp\n      swap1\n      div\n      0xffffffffffffffffffffffffffffffffffffffff\n      and\n        /* \"XODEX2.sol\":15435:15465  _isExcludedFromFee[Dev_Wallet] */\n      0xffffffffffffffffffffffffffffffffffffffff\n      and\n      0xffffffffffffffffffffffffffffffffffffffff\n      and\n      dup2\n      mstore\n      0x20\n      add\n      swap1\n      dup2\n      mstore\n      0x20\n      add\n      0x00\n      keccak256\n      0x00\n        /* \"XODEX2.sol\":15435:15472  _isExcludedFromFee[Dev_Wallet] = true */\n      0x0100\n      exp\n      dup2\n      sload\n      dup2\n      0xff\n      mul\n      not\n      and\n      swap1\n      dup4\n      iszero\n      iszero\n      mul\n      or\n      swap1\n      sstore\n      pop\n        /* \"XODEX2.sol\":15267:15479  function Update__Dev_Wallet(address payable wallet) public onlyOwner {... */\n      pop\n      jump\t// out\n        /* \"XODEX2.sol\":19289:19472  function set_Swap_And_Liquify_Enabled(bool true_or_false) public onlyOwner {... */\n    tag_266:\n        /* \"XODEX2.sol\":2457:2469  _msgSender() */\n      tag_516\n        /* \"XODEX2.sol\":2457:2467  _msgSender */\n      tag_273\n        /* \"XODEX2.sol\":2457:2469  _msgSender() */\n      jump\t// in\n    tag_516:\n        /* \"XODEX2.sol\":2446:2469  owner() == _msgSender() */\n      0xffffffffffffffffffffffffffffffffffffffff\n      and\n        /* \"XODEX2.sol\":2446:2453  owner() */\n      tag_517\n        /* \"XODEX2.sol\":2446:2451  owner */\n      tag_195\n        /* \"XODEX2.sol\":2446:2453  owner() */\n      jump\t// in\n    tag_517:\n        /* \"XODEX2.sol\":2446:2469  owner() == _msgSender() */\n      0xffffffffffffffffffffffffffffffffffffffff\n      and\n      eq\n        /* \"XODEX2.sol\":2438:2506  require(owner() == _msgSender(), \"Ownable: caller is not the owner\") */\n      tag_518\n      jumpi\n      mload(0x40)\n      0x08c379a000000000000000000000000000000000000000000000000000000000\n      dup2\n      mstore\n      0x04\n      add\n      tag_519\n      swap1\n      tag_280\n      jump\t// in\n    tag_519:\n      mload(0x40)\n      dup1\n      swap2\n      sub\n      swap1\n      revert\n    tag_518:\n        /* \"XODEX2.sol\":19394:19407  true_or_false */\n      dup1\n        /* \"XODEX2.sol\":19374:19391  swapAndLiqEnabled */\n      0x10\n      0x15\n        /* \"XODEX2.sol\":19374:19407  swapAndLiqEnabled = true_or_false */\n      0x0100\n      exp\n      dup2\n      sload\n      dup2\n      0xff\n      mul\n      not\n      and\n      swap1\n      dup4\n      iszero\n      iszero\n      mul\n      or\n      swap1\n      sstore\n      pop\n        /* \"XODEX2.sol\":19422:19465  SwapAndLiquifyEnabledUpdated(true_or_false) */\n      0x53726dfcaf90650aa7eb35524f4d3220f07413c8d6cb404cc8c18bf5591bc159\n        /* \"XODEX2.sol\":19451:19464  true_or_false */\n      dup2\n        /* \"XODEX2.sol\":19422:19465  SwapAndLiquifyEnabledUpdated(true_or_false) */\n      mload(0x40)\n      tag_521\n      swap2\n      swap1\n      tag_69\n      jump\t// in\n    tag_521:\n      mload(0x40)\n      dup1\n      swap2\n      sub\n      swap1\n      log1\n        /* \"XODEX2.sol\":19289:19472  function set_Swap_And_Liquify_Enabled(bool true_or_false) public onlyOwner {... */\n      pop\n      jump\t// out\n        /* \"XODEX2.sol\":983:1079  function mul(uint256 a, uint256 b) internal pure returns (uint256) {... */\n    tag_267:\n        /* \"XODEX2.sol\":1041:1048  uint256 */\n      0x00\n        /* \"XODEX2.sol\":1071:1072  b */\n      dup2\n        /* \"XODEX2.sol\":1067:1068  a */\n      dup4\n        /* \"XODEX2.sol\":1067:1072  a * b */\n      tag_523\n      swap2\n      swap1\n      tag_304\n      jump\t// in\n    tag_523:\n        /* \"XODEX2.sol\":1060:1072  return a * b */\n      swap1\n      pop\n        /* \"XODEX2.sol\":983:1079  function mul(uint256 a, uint256 b) internal pure returns (uint256) {... */\n      swap3\n      swap2\n      pop\n      pop\n      jump\t// out\n        /* \"XODEX2.sol\":1085:1181  function div(uint256 a, uint256 b) internal pure returns (uint256) {... */\n    tag_268:\n        /* \"XODEX2.sol\":1143:1150  uint256 */\n      0x00\n        /* \"XODEX2.sol\":1173:1174  b */\n      dup2\n        /* \"XODEX2.sol\":1169:1170  a */\n      dup4\n        /* \"XODEX2.sol\":1169:1174  a / b */\n      tag_525\n      swap2\n      swap1\n      tag_306\n      jump\t// in\n    tag_525:\n        /* \"XODEX2.sol\":1162:1174  return a / b */\n      swap1\n      pop\n        /* \"XODEX2.sol\":1085:1181  function div(uint256 a, uint256 b) internal pure returns (uint256) {... */\n      swap3\n      swap2\n      pop\n      pop\n      jump\t// out\n        /* \"XODEX2.sol\":1690:1786  function _msgSender() internal view virtual returns (address) {... */\n    tag_273:\n        /* \"XODEX2.sol\":1743:1750  address */\n      0x00\n        /* \"XODEX2.sol\":1769:1779  msg.sender */\n      caller\n        /* \"XODEX2.sol\":1762:1779  return msg.sender */\n      swap1\n      pop\n        /* \"XODEX2.sol\":1690:1786  function _msgSender() internal view virtual returns (address) {... */\n      swap1\n      jump\t// out\n        /* \"XODEX2.sol\":21193:21481  function _approve(... */\n    tag_274:\n        /* \"XODEX2.sol\":21332:21333  0 */\n      0x00\n        /* \"XODEX2.sol\":21315:21334  owner != address(0) */\n      0xffffffffffffffffffffffffffffffffffffffff\n      and\n        /* \"XODEX2.sol\":21315:21320  owner */\n      dup4\n        /* \"XODEX2.sol\":21315:21334  owner != address(0) */\n      0xffffffffffffffffffffffffffffffffffffffff\n      and\n      eq\n      iszero\n        /* \"XODEX2.sol\":21315:21359  owner != address(0) && spender != address(0) */\n      dup1\n      iszero\n      tag_528\n      jumpi\n      pop\n        /* \"XODEX2.sol\":21357:21358  0 */\n      0x00\n        /* \"XODEX2.sol\":21338:21359  spender != address(0) */\n      0xffffffffffffffffffffffffffffffffffffffff\n      and\n        /* \"XODEX2.sol\":21338:21345  spender */\n      dup3\n        /* \"XODEX2.sol\":21338:21359  spender != address(0) */\n      0xffffffffffffffffffffffffffffffffffffffff\n      and\n      eq\n      iszero\n        /* \"XODEX2.sol\":21315:21359  owner != address(0) && spender != address(0) */\n    tag_528:\n        /* \"XODEX2.sol\":21307:21381  require(owner != address(0) && spender != address(0), \"ERR: zero address\") */\n      tag_529\n      jumpi\n      mload(0x40)\n      0x08c379a000000000000000000000000000000000000000000000000000000000\n      dup2\n      mstore\n      0x04\n      add\n      tag_530\n      swap1\n      tag_284\n      jump\t// in\n    tag_530:\n      mload(0x40)\n      dup1\n      swap2\n      sub\n      swap1\n      revert\n    tag_529:\n        /* \"XODEX2.sol\":21421:21427  amount */\n      dup1\n        /* \"XODEX2.sol\":21391:21402  _allowances */\n      0x02\n        /* \"XODEX2.sol\":21391:21409  _allowances[owner] */\n      0x00\n        /* \"XODEX2.sol\":21403:21408  owner */\n      dup6\n        /* \"XODEX2.sol\":21391:21409  _allowances[owner] */\n      0xffffffffffffffffffffffffffffffffffffffff\n      and\n      0xffffffffffffffffffffffffffffffffffffffff\n      and\n      dup2\n      mstore\n      0x20\n      add\n      swap1\n      dup2\n      mstore\n      0x20\n      add\n      0x00\n      keccak256\n        /* \"XODEX2.sol\":21391:21418  _allowances[owner][spender] */\n      0x00\n        /* \"XODEX2.sol\":21410:21417  spender */\n      dup5\n        /* \"XODEX2.sol\":21391:21418  _allowances[owner][spender] */\n      0xffffffffffffffffffffffffffffffffffffffff\n      and\n      0xffffffffffffffffffffffffffffffffffffffff\n      and\n      dup2\n      mstore\n      0x20\n      add\n      swap1\n      dup2\n      mstore\n      0x20\n      add\n      0x00\n      keccak256\n        /* \"XODEX2.sol\":21391:21427  _allowances[owner][spender] = amount */\n      dup2\n      swap1\n      sstore\n      pop\n        /* \"XODEX2.sol\":21458:21465  spender */\n      dup2\n        /* \"XODEX2.sol\":21442:21474  Approval(owner, spender, amount) */\n      0xffffffffffffffffffffffffffffffffffffffff\n      and\n        /* \"XODEX2.sol\":21451:21456  owner */\n      dup4\n        /* \"XODEX2.sol\":21442:21474  Approval(owner, spender, amount) */\n      0xffffffffffffffffffffffffffffffffffffffff\n      and\n      0x8c5be1e5ebec7d5bd14f71427d1e84f3dd0314c0f7b2291e5b200ac8c7c3b925\n        /* \"XODEX2.sol\":21467:21473  amount */\n      dup4\n        /* \"XODEX2.sol\":21442:21474  Approval(owner, spender, amount) */\n      mload(0x40)\n      tag_531\n      swap2\n      swap1\n      tag_89\n      jump\t// in\n    tag_531:\n      mload(0x40)\n      dup1\n      swap2\n      sub\n      swap1\n      log3\n        /* \"XODEX2.sol\":21193:21481  function _approve(... */\n      pop\n      pop\n      pop\n      jump\t// out\n        /* \"XODEX2.sol\":21487:23502  function _transfer(... */\n    tag_332:\n        /* \"XODEX2.sol\":21619:21626  owner() */\n      tag_533\n        /* \"XODEX2.sol\":21619:21624  owner */\n      tag_195\n        /* \"XODEX2.sol\":21619:21626  owner() */\n      jump\t// in\n    tag_533:\n        /* \"XODEX2.sol\":21613:21626  to != owner() */\n      0xffffffffffffffffffffffffffffffffffffffff\n      and\n        /* \"XODEX2.sol\":21613:21615  to */\n      dup3\n        /* \"XODEX2.sol\":21613:21626  to != owner() */\n      0xffffffffffffffffffffffffffffffffffffffff\n      and\n      eq\n      iszero\n        /* \"XODEX2.sol\":21613:21658  to != owner() &&... */\n      dup1\n      iszero\n      tag_534\n      jumpi\n      pop\n        /* \"XODEX2.sol\":21648:21658  Dev_Wallet */\n      0x05\n      0x01\n      swap1\n      sload\n      swap1\n      0x0100\n      exp\n      swap1\n      div\n      0xffffffffffffffffffffffffffffffffffffffff\n      and\n        /* \"XODEX2.sol\":21642:21658  to != Dev_Wallet */\n      0xffffffffffffffffffffffffffffffffffffffff\n      and\n        /* \"XODEX2.sol\":21642:21644  to */\n      dup3\n        /* \"XODEX2.sol\":21642:21658  to != Dev_Wallet */\n      0xffffffffffffffffffffffffffffffffffffffff\n      and\n      eq\n      iszero\n        /* \"XODEX2.sol\":21613:21658  to != owner() &&... */\n    tag_534:\n        /* \"XODEX2.sol\":21613:21693  to != owner() &&... */\n      dup1\n      iszero\n      tag_535\n      jumpi\n      pop\n        /* \"XODEX2.sol\":21688:21692  this */\n      address\n        /* \"XODEX2.sol\":21674:21693  to != address(this) */\n      0xffffffffffffffffffffffffffffffffffffffff\n      and\n        /* \"XODEX2.sol\":21674:21676  to */\n      dup3\n        /* \"XODEX2.sol\":21674:21693  to != address(this) */\n      0xffffffffffffffffffffffffffffffffffffffff\n      and\n      eq\n      iszero\n        /* \"XODEX2.sol\":21613:21693  to != owner() &&... */\n    tag_535:\n        /* \"XODEX2.sol\":21613:21728  to != owner() &&... */\n      dup1\n      iszero\n      tag_536\n      jumpi\n      pop\n        /* \"XODEX2.sol\":21715:21728  uniswapV2Pair */\n      0x10\n      0x00\n      swap1\n      sload\n      swap1\n      0x0100\n      exp\n      swap1\n      div\n      0xffffffffffffffffffffffffffffffffffffffff\n      and\n        /* \"XODEX2.sol\":21709:21728  to != uniswapV2Pair */\n      0xffffffffffffffffffffffffffffffffffffffff\n      and\n        /* \"XODEX2.sol\":21709:21711  to */\n      dup3\n        /* \"XODEX2.sol\":21709:21728  to != uniswapV2Pair */\n      0xffffffffffffffffffffffffffffffffffffffff\n      and\n      eq\n      iszero\n        /* \"XODEX2.sol\":21613:21728  to != owner() &&... */\n    tag_536:\n        /* \"XODEX2.sol\":21613:21761  to != owner() &&... */\n      dup1\n      iszero\n      tag_537\n      jumpi\n      pop\n        /* \"XODEX2.sol\":12319:12361  0x000000000000000000000000000000000000dEaD */\n      0xdead\n        /* \"XODEX2.sol\":21744:21761  to != Burn_Wallet */\n      0xffffffffffffffffffffffffffffffffffffffff\n      and\n        /* \"XODEX2.sol\":21744:21746  to */\n      dup3\n        /* \"XODEX2.sol\":21744:21761  to != Burn_Wallet */\n      0xffffffffffffffffffffffffffffffffffffffff\n      and\n      eq\n      iszero\n        /* \"XODEX2.sol\":21613:21761  to != owner() &&... */\n    tag_537:\n        /* \"XODEX2.sol\":21613:21792  to != owner() &&... */\n      dup1\n      iszero\n      tag_538\n      jumpi\n      pop\n        /* \"XODEX2.sol\":21785:21792  owner() */\n      tag_539\n        /* \"XODEX2.sol\":21785:21790  owner */\n      tag_195\n        /* \"XODEX2.sol\":21785:21792  owner() */\n      jump\t// in\n    tag_539:\n        /* \"XODEX2.sol\":21777:21792  from != owner() */\n      0xffffffffffffffffffffffffffffffffffffffff\n      and\n        /* \"XODEX2.sol\":21777:21781  from */\n      dup4\n        /* \"XODEX2.sol\":21777:21792  from != owner() */\n      0xffffffffffffffffffffffffffffffffffffffff\n      and\n      eq\n      iszero\n        /* \"XODEX2.sol\":21613:21792  to != owner() &&... */\n    tag_538:\n        /* \"XODEX2.sol\":21596:22050  if (... */\n      iszero\n      tag_540\n      jumpi\n        /* \"XODEX2.sol\":21817:21835  uint256 heldTokens */\n      0x00\n        /* \"XODEX2.sol\":21838:21851  balanceOf(to) */\n      tag_541\n        /* \"XODEX2.sol\":21848:21850  to */\n      dup4\n        /* \"XODEX2.sol\":21838:21847  balanceOf */\n      tag_170\n        /* \"XODEX2.sol\":21838:21851  balanceOf(to) */\n      jump\t// in\n    tag_541:\n        /* \"XODEX2.sol\":21817:21851  uint256 heldTokens = balanceOf(to) */\n      swap1\n      pop\n        /* \"XODEX2.sol\":21915:21924  _maxToken */\n      sload(0x07)\n        /* \"XODEX2.sol\":21904:21910  amount */\n      dup3\n        /* \"XODEX2.sol\":21891:21901  heldTokens */\n      dup3\n        /* \"XODEX2.sol\":21891:21910  heldTokens + amount */\n      tag_542\n      swap2\n      swap1\n      tag_411\n      jump\t// in\n    tag_542:\n        /* \"XODEX2.sol\":21890:21924  (heldTokens + amount) <= _maxToken */\n      gt\n      iszero\n        /* \"XODEX2.sol\":21865:22039  require(... */\n      tag_543\n      jumpi\n      mload(0x40)\n      0x08c379a000000000000000000000000000000000000000000000000000000000\n      dup2\n      mstore\n      0x04\n      add\n      tag_544\n      swap1\n      tag_545\n      jump\t// in\n    tag_544:\n      mload(0x40)\n      dup1\n      swap2\n      sub\n      swap1\n      revert\n    tag_543:\n        /* \"XODEX2.sol\":21803:22050  {... */\n      pop\n        /* \"XODEX2.sol\":21596:22050  if (... */\n    tag_540:\n        /* \"XODEX2.sol\":22164:22171  owner() */\n      tag_546\n        /* \"XODEX2.sol\":22164:22169  owner */\n      tag_195\n        /* \"XODEX2.sol\":22164:22171  owner() */\n      jump\t// in\n    tag_546:\n        /* \"XODEX2.sol\":22156:22171  from != owner() */\n      0xffffffffffffffffffffffffffffffffffffffff\n      and\n        /* \"XODEX2.sol\":22156:22160  from */\n      dup4\n        /* \"XODEX2.sol\":22156:22171  from != owner() */\n      0xffffffffffffffffffffffffffffffffffffffff\n      and\n      eq\n      iszero\n        /* \"XODEX2.sol\":22156:22188  from != owner() && to != owner() */\n      dup1\n      iszero\n      tag_547\n      jumpi\n      pop\n        /* \"XODEX2.sol\":22181:22188  owner() */\n      tag_548\n        /* \"XODEX2.sol\":22181:22186  owner */\n      tag_195\n        /* \"XODEX2.sol\":22181:22188  owner() */\n      jump\t// in\n    tag_548:\n        /* \"XODEX2.sol\":22175:22188  to != owner() */\n      0xffffffffffffffffffffffffffffffffffffffff\n      and\n        /* \"XODEX2.sol\":22175:22177  to */\n      dup3\n        /* \"XODEX2.sol\":22175:22188  to != owner() */\n      0xffffffffffffffffffffffffffffffffffffffff\n      and\n      eq\n      iszero\n        /* \"XODEX2.sol\":22156:22188  from != owner() && to != owner() */\n    tag_547:\n        /* \"XODEX2.sol\":22152:22295  if (from != owner() && to != owner())... */\n      iszero\n      tag_549\n      jumpi\n        /* \"XODEX2.sol\":22220:22232  _maxTxAmount */\n      sload(0x09)\n        /* \"XODEX2.sol\":22210:22216  amount */\n      dup2\n        /* \"XODEX2.sol\":22210:22232  amount <= _maxTxAmount */\n      gt\n      iszero\n        /* \"XODEX2.sol\":22202:22295  require(amount <= _maxTxAmount, \"You are trying to buy more than the max transaction limit.\") */\n      tag_550\n      jumpi\n      mload(0x40)\n      0x08c379a000000000000000000000000000000000000000000000000000000000\n      dup2\n      mstore\n      0x04\n      add\n      tag_551\n      swap1\n      tag_552\n      jump\t// in\n    tag_551:\n      mload(0x40)\n      dup1\n      swap2\n      sub\n      swap1\n      revert\n    tag_550:\n        /* \"XODEX2.sol\":22152:22295  if (from != owner() && to != owner())... */\n    tag_549:\n        /* \"XODEX2.sol\":22310:22321  isBlackList */\n      0x05\n      0x00\n      swap1\n      sload\n      swap1\n      0x0100\n      exp\n      swap1\n      div\n      0xff\n      and\n        /* \"XODEX2.sol\":22306:22455  if (isBlackList) {... */\n      iszero\n      tag_553\n      jumpi\n        /* \"XODEX2.sol\":22346:22360  _isBlacklisted */\n      0x04\n        /* \"XODEX2.sol\":22346:22366  _isBlacklisted[from] */\n      0x00\n        /* \"XODEX2.sol\":22361:22365  from */\n      dup5\n        /* \"XODEX2.sol\":22346:22366  _isBlacklisted[from] */\n      0xffffffffffffffffffffffffffffffffffffffff\n      and\n      0xffffffffffffffffffffffffffffffffffffffff\n      and\n      dup2\n      mstore\n      0x20\n      add\n      swap1\n      dup2\n      mstore\n      0x20\n      add\n      0x00\n      keccak256\n      0x00\n      swap1\n      sload\n      swap1\n      0x0100\n      exp\n      swap1\n      div\n      0xff\n      and\n        /* \"XODEX2.sol\":22345:22366  !_isBlacklisted[from] */\n      iszero\n        /* \"XODEX2.sol\":22345:22389  !_isBlacklisted[from] && !_isBlacklisted[to] */\n      dup1\n      iszero\n      tag_554\n      jumpi\n      pop\n        /* \"XODEX2.sol\":22371:22385  _isBlacklisted */\n      0x04\n        /* \"XODEX2.sol\":22371:22389  _isBlacklisted[to] */\n      0x00\n        /* \"XODEX2.sol\":22386:22388  to */\n      dup4\n        /* \"XODEX2.sol\":22371:22389  _isBlacklisted[to] */\n      0xffffffffffffffffffffffffffffffffffffffff\n      and\n      0xffffffffffffffffffffffffffffffffffffffff\n      and\n      dup2\n      mstore\n      0x20\n      add\n      swap1\n      dup2\n      mstore\n      0x20\n      add\n      0x00\n      keccak256\n      0x00\n      swap1\n      sload\n      swap1\n      0x0100\n      exp\n      swap1\n      div\n      0xff\n      and\n        /* \"XODEX2.sol\":22370:22389  !_isBlacklisted[to] */\n      iszero\n        /* \"XODEX2.sol\":22345:22389  !_isBlacklisted[from] && !_isBlacklisted[to] */\n    tag_554:\n        /* \"XODEX2.sol\":22337:22444  require(!_isBlacklisted[from] && !_isBlacklisted[to], \"This address is blacklisted. Transaction reverted.\") */\n      tag_555\n      jumpi\n      mload(0x40)\n      0x08c379a000000000000000000000000000000000000000000000000000000000\n      dup2\n      mstore\n      0x04\n      add\n      tag_556\n      swap1\n      tag_557\n      jump\t// in\n    tag_556:\n      mload(0x40)\n      dup1\n      swap2\n      sub\n      swap1\n      revert\n    tag_555:\n        /* \"XODEX2.sol\":22306:22455  if (isBlackList) {... */\n    tag_553:\n        /* \"XODEX2.sol\":22489:22490  0 */\n      0x00\n        /* \"XODEX2.sol\":22473:22491  from != address(0) */\n      0xffffffffffffffffffffffffffffffffffffffff\n      and\n        /* \"XODEX2.sol\":22473:22477  from */\n      dup4\n        /* \"XODEX2.sol\":22473:22491  from != address(0) */\n      0xffffffffffffffffffffffffffffffffffffffff\n      and\n      eq\n      iszero\n        /* \"XODEX2.sol\":22473:22511  from != address(0) && to != address(0) */\n      dup1\n      iszero\n      tag_558\n      jumpi\n      pop\n        /* \"XODEX2.sol\":22509:22510  0 */\n      0x00\n        /* \"XODEX2.sol\":22495:22511  to != address(0) */\n      0xffffffffffffffffffffffffffffffffffffffff\n      and\n        /* \"XODEX2.sol\":22495:22497  to */\n      dup3\n        /* \"XODEX2.sol\":22495:22511  to != address(0) */\n      0xffffffffffffffffffffffffffffffffffffffff\n      and\n      eq\n      iszero\n        /* \"XODEX2.sol\":22473:22511  from != address(0) && to != address(0) */\n    tag_558:\n        /* \"XODEX2.sol\":22465:22537  require(from != address(0) && to != address(0), \"ERR: Using 0 address!\") */\n      tag_559\n      jumpi\n      mload(0x40)\n      0x08c379a000000000000000000000000000000000000000000000000000000000\n      dup2\n      mstore\n      0x04\n      add\n      tag_560\n      swap1\n      tag_561\n      jump\t// in\n    tag_560:\n      mload(0x40)\n      dup1\n      swap2\n      sub\n      swap1\n      revert\n    tag_559:\n        /* \"XODEX2.sol\":22564:22565  0 */\n      0x00\n        /* \"XODEX2.sol\":22555:22561  amount */\n      dup2\n        /* \"XODEX2.sol\":22555:22565  amount > 0 */\n      gt\n        /* \"XODEX2.sol\":22547:22607  require(amount > 0, \"Token value must be higher than zero.\") */\n      tag_562\n      jumpi\n      mload(0x40)\n      0x08c379a000000000000000000000000000000000000000000000000000000000\n      dup2\n      mstore\n      0x04\n      add\n      tag_563\n      swap1\n      tag_564\n      jump\t// in\n    tag_563:\n      mload(0x40)\n      dup1\n      swap2\n      sub\n      swap1\n      revert\n    tag_562:\n        /* \"XODEX2.sol\":22633:22644  swapTrigger */\n      0x05\n      0x16\n      swap1\n      sload\n      swap1\n      0x0100\n      exp\n      swap1\n      div\n      0xff\n      and\n        /* \"XODEX2.sol\":22622:22644  txCount >= swapTrigger */\n      0xff\n      and\n        /* \"XODEX2.sol\":22622:22629  txCount */\n      0x05\n      0x15\n      swap1\n      sload\n      swap1\n      0x0100\n      exp\n      swap1\n      div\n      0xff\n      and\n        /* \"XODEX2.sol\":22622:22644  txCount >= swapTrigger */\n      0xff\n      and\n      lt\n      iszero\n        /* \"XODEX2.sol\":22622:22659  txCount >= swapTrigger && !isSwapping */\n      dup1\n      iszero\n      tag_565\n      jumpi\n      pop\n        /* \"XODEX2.sol\":22649:22659  isSwapping */\n      0x10\n      0x14\n      swap1\n      sload\n      swap1\n      0x0100\n      exp\n      swap1\n      div\n      0xff\n      and\n        /* \"XODEX2.sol\":22648:22659  !isSwapping */\n      iszero\n        /* \"XODEX2.sol\":22622:22659  txCount >= swapTrigger && !isSwapping */\n    tag_565:\n        /* \"XODEX2.sol\":22622:22684  txCount >= swapTrigger && !isSwapping && from != uniswapV2Pair */\n      dup1\n      iszero\n      tag_566\n      jumpi\n      pop\n        /* \"XODEX2.sol\":22671:22684  uniswapV2Pair */\n      0x10\n      0x00\n      swap1\n      sload\n      swap1\n      0x0100\n      exp\n      swap1\n      div\n      0xffffffffffffffffffffffffffffffffffffffff\n      and\n        /* \"XODEX2.sol\":22663:22684  from != uniswapV2Pair */\n      0xffffffffffffffffffffffffffffffffffffffff\n      and\n        /* \"XODEX2.sol\":22663:22667  from */\n      dup4\n        /* \"XODEX2.sol\":22663:22684  from != uniswapV2Pair */\n      0xffffffffffffffffffffffffffffffffffffffff\n      and\n      eq\n      iszero\n        /* \"XODEX2.sol\":22622:22684  txCount >= swapTrigger && !isSwapping && from != uniswapV2Pair */\n    tag_566:\n        /* \"XODEX2.sol\":22622:22705  txCount >= swapTrigger && !isSwapping && from != uniswapV2Pair && swapAndLiqEnabled */\n      dup1\n      iszero\n      tag_567\n      jumpi\n      pop\n        /* \"XODEX2.sol\":22688:22705  swapAndLiqEnabled */\n      0x10\n      0x15\n      swap1\n      sload\n      swap1\n      0x0100\n      exp\n      swap1\n      div\n      0xff\n      and\n        /* \"XODEX2.sol\":22622:22705  txCount >= swapTrigger && !isSwapping && from != uniswapV2Pair && swapAndLiqEnabled */\n    tag_567:\n        /* \"XODEX2.sol\":22618:23042  if (txCount >= swapTrigger && !isSwapping && from != uniswapV2Pair && swapAndLiqEnabled) {... */\n      iszero\n      tag_568\n      jumpi\n        /* \"XODEX2.sol\":22731:22732  0 */\n      0x00\n        /* \"XODEX2.sol\":22721:22728  txCount */\n      0x05\n      0x15\n        /* \"XODEX2.sol\":22721:22732  txCount = 0 */\n      0x0100\n      exp\n      dup2\n      sload\n      dup2\n      0xff\n      mul\n      not\n      and\n      swap1\n      dup4\n      0xff\n      and\n      mul\n      or\n      swap1\n      sstore\n      pop\n        /* \"XODEX2.sol\":22746:22774  uint256 contractTokenBalance */\n      0x00\n        /* \"XODEX2.sol\":22777:22801  balanceOf(address(this)) */\n      tag_569\n        /* \"XODEX2.sol\":22795:22799  this */\n      address\n        /* \"XODEX2.sol\":22777:22786  balanceOf */\n      tag_170\n        /* \"XODEX2.sol\":22777:22801  balanceOf(address(this)) */\n      jump\t// in\n    tag_569:\n        /* \"XODEX2.sol\":22746:22801  uint256 contractTokenBalance = balanceOf(address(this)) */\n      swap1\n      pop\n        /* \"XODEX2.sol\":22842:22854  _maxTxAmount */\n      sload(0x09)\n        /* \"XODEX2.sol\":22819:22839  contractTokenBalance */\n      dup2\n        /* \"XODEX2.sol\":22819:22854  contractTokenBalance > _maxTxAmount */\n      gt\n        /* \"XODEX2.sol\":22815:22924  if (contractTokenBalance > _maxTxAmount) {... */\n      iszero\n      tag_570\n      jumpi\n        /* \"XODEX2.sol\":22897:22909  _maxTxAmount */\n      sload(0x09)\n        /* \"XODEX2.sol\":22874:22909  contractTokenBalance = _maxTxAmount */\n      swap1\n      pop\n        /* \"XODEX2.sol\":22815:22924  if (contractTokenBalance > _maxTxAmount) {... */\n    tag_570:\n        /* \"XODEX2.sol\":22964:22965  0 */\n      0x00\n        /* \"XODEX2.sol\":22941:22961  contractTokenBalance */\n      dup2\n        /* \"XODEX2.sol\":22941:22965  contractTokenBalance > 0 */\n      gt\n        /* \"XODEX2.sol\":22937:23032  if (contractTokenBalance > 0) {... */\n      iszero\n      tag_571\n      jumpi\n        /* \"XODEX2.sol\":22985:23017  swapTokens(contractTokenBalance) */\n      tag_572\n        /* \"XODEX2.sol\":22996:23016  contractTokenBalance */\n      dup2\n        /* \"XODEX2.sol\":22985:22995  swapTokens */\n      tag_488\n        /* \"XODEX2.sol\":22985:23017  swapTokens(contractTokenBalance) */\n      jump\t// in\n    tag_572:\n        /* \"XODEX2.sol\":22937:23032  if (contractTokenBalance > 0) {... */\n    tag_571:\n        /* \"XODEX2.sol\":22707:23042  {... */\n      pop\n        /* \"XODEX2.sol\":22618:23042  if (txCount >= swapTrigger && !isSwapping && from != uniswapV2Pair && swapAndLiqEnabled) {... */\n    tag_568:\n        /* \"XODEX2.sol\":23052:23064  bool takeFee */\n      0x00\n        /* \"XODEX2.sol\":23067:23071  true */\n      0x01\n        /* \"XODEX2.sol\":23052:23071  bool takeFee = true */\n      swap1\n      pop\n        /* \"XODEX2.sol\":23099:23117  _isExcludedFromFee */\n      0x03\n        /* \"XODEX2.sol\":23099:23123  _isExcludedFromFee[from] */\n      0x00\n        /* \"XODEX2.sol\":23118:23122  from */\n      dup6\n        /* \"XODEX2.sol\":23099:23123  _isExcludedFromFee[from] */\n      0xffffffffffffffffffffffffffffffffffffffff\n      and\n      0xffffffffffffffffffffffffffffffffffffffff\n      and\n      dup2\n      mstore\n      0x20\n      add\n      swap1\n      dup2\n      mstore\n      0x20\n      add\n      0x00\n      keccak256\n      0x00\n      swap1\n      sload\n      swap1\n      0x0100\n      exp\n      swap1\n      div\n      0xff\n      and\n        /* \"XODEX2.sol\":23099:23161  _isExcludedFromFee[from] ||... */\n      dup1\n      tag_573\n      jumpi\n      pop\n        /* \"XODEX2.sol\":23139:23157  _isExcludedFromFee */\n      0x03\n        /* \"XODEX2.sol\":23139:23161  _isExcludedFromFee[to] */\n      0x00\n        /* \"XODEX2.sol\":23158:23160  to */\n      dup5\n        /* \"XODEX2.sol\":23139:23161  _isExcludedFromFee[to] */\n      0xffffffffffffffffffffffffffffffffffffffff\n      and\n      0xffffffffffffffffffffffffffffffffffffffff\n      and\n      dup2\n      mstore\n      0x20\n      add\n      swap1\n      dup2\n      mstore\n      0x20\n      add\n      0x00\n      keccak256\n      0x00\n      swap1\n      sload\n      swap1\n      0x0100\n      exp\n      swap1\n      div\n      0xff\n      and\n        /* \"XODEX2.sol\":23099:23161  _isExcludedFromFee[from] ||... */\n    tag_573:\n        /* \"XODEX2.sol\":23099:23240  _isExcludedFromFee[from] ||... */\n      dup1\n      tag_574\n      jumpi\n      pop\n        /* \"XODEX2.sol\":23178:23191  noTransferFee */\n      0x0f\n      0x00\n      swap1\n      sload\n      swap1\n      0x0100\n      exp\n      swap1\n      div\n      0xff\n      and\n        /* \"XODEX2.sol\":23178:23216  noTransferFee && from != uniswapV2Pair */\n      dup1\n      iszero\n      tag_575\n      jumpi\n      pop\n        /* \"XODEX2.sol\":23203:23216  uniswapV2Pair */\n      0x10\n      0x00\n      swap1\n      sload\n      swap1\n      0x0100\n      exp\n      swap1\n      div\n      0xffffffffffffffffffffffffffffffffffffffff\n      and\n        /* \"XODEX2.sol\":23195:23216  from != uniswapV2Pair */\n      0xffffffffffffffffffffffffffffffffffffffff\n      and\n        /* \"XODEX2.sol\":23195:23199  from */\n      dup5\n        /* \"XODEX2.sol\":23195:23216  from != uniswapV2Pair */\n      0xffffffffffffffffffffffffffffffffffffffff\n      and\n      eq\n      iszero\n        /* \"XODEX2.sol\":23178:23216  noTransferFee && from != uniswapV2Pair */\n    tag_575:\n        /* \"XODEX2.sol\":23178:23239  noTransferFee && from != uniswapV2Pair && to != uniswapV2Pair */\n      dup1\n      iszero\n      tag_576\n      jumpi\n      pop\n        /* \"XODEX2.sol\":23226:23239  uniswapV2Pair */\n      0x10\n      0x00\n      swap1\n      sload\n      swap1\n      0x0100\n      exp\n      swap1\n      div\n      0xffffffffffffffffffffffffffffffffffffffff\n      and\n        /* \"XODEX2.sol\":23220:23239  to != uniswapV2Pair */\n      0xffffffffffffffffffffffffffffffffffffffff\n      and\n        /* \"XODEX2.sol\":23220:23222  to */\n      dup4\n        /* \"XODEX2.sol\":23220:23239  to != uniswapV2Pair */\n      0xffffffffffffffffffffffffffffffffffffffff\n      and\n      eq\n      iszero\n        /* \"XODEX2.sol\":23178:23239  noTransferFee && from != uniswapV2Pair && to != uniswapV2Pair */\n    tag_576:\n        /* \"XODEX2.sol\":23099:23240  _isExcludedFromFee[from] ||... */\n    tag_574:\n        /* \"XODEX2.sol\":23082:23444  if (... */\n      iszero\n      tag_577\n      jumpi\n        /* \"XODEX2.sol\":23275:23280  false */\n      0x00\n        /* \"XODEX2.sol\":23265:23280  takeFee = false */\n      swap1\n      pop\n        /* \"XODEX2.sol\":23082:23444  if (... */\n      jump(tag_578)\n    tag_577:\n        /* \"XODEX2.sol\":23309:23322  uniswapV2Pair */\n      0x10\n      0x00\n      swap1\n      sload\n      swap1\n      0x0100\n      exp\n      swap1\n      div\n      0xffffffffffffffffffffffffffffffffffffffff\n      and\n        /* \"XODEX2.sol\":23301:23322  from == uniswapV2Pair */\n      0xffffffffffffffffffffffffffffffffffffffff\n      and\n        /* \"XODEX2.sol\":23301:23305  from */\n      dup5\n        /* \"XODEX2.sol\":23301:23322  from == uniswapV2Pair */\n      0xffffffffffffffffffffffffffffffffffffffff\n      and\n      sub\n        /* \"XODEX2.sol\":23297:23444  if (from == uniswapV2Pair) {... */\n      tag_579\n      jumpi\n        /* \"XODEX2.sol\":23350:23357  _buyFee */\n      sload(0x0c)\n        /* \"XODEX2.sol\":23338:23347  _TotalFee */\n      0x0e\n        /* \"XODEX2.sol\":23338:23357  _TotalFee = _buyFee */\n      dup2\n      swap1\n      sstore\n      pop\n        /* \"XODEX2.sol\":23297:23444  if (from == uniswapV2Pair) {... */\n      jump(tag_580)\n    tag_579:\n        /* \"XODEX2.sol\":23384:23397  uniswapV2Pair */\n      0x10\n      0x00\n      swap1\n      sload\n      swap1\n      0x0100\n      exp\n      swap1\n      div\n      0xffffffffffffffffffffffffffffffffffffffff\n      and\n        /* \"XODEX2.sol\":23378:23397  to == uniswapV2Pair */\n      0xffffffffffffffffffffffffffffffffffffffff\n      and\n        /* \"XODEX2.sol\":23378:23380  to */\n      dup4\n        /* \"XODEX2.sol\":23378:23397  to == uniswapV2Pair */\n      0xffffffffffffffffffffffffffffffffffffffff\n      and\n      sub\n        /* \"XODEX2.sol\":23374:23444  if (to == uniswapV2Pair) {... */\n      tag_581\n      jumpi\n        /* \"XODEX2.sol\":23425:23433  _sellFee */\n      sload(0x0d)\n        /* \"XODEX2.sol\":23413:23422  _TotalFee */\n      0x0e\n        /* \"XODEX2.sol\":23413:23433  _TotalFee = _sellFee */\n      dup2\n      swap1\n      sstore\n      pop\n        /* \"XODEX2.sol\":23374:23444  if (to == uniswapV2Pair) {... */\n    tag_581:\n        /* \"XODEX2.sol\":23297:23444  if (from == uniswapV2Pair) {... */\n    tag_580:\n        /* \"XODEX2.sol\":23082:23444  if (... */\n    tag_578:\n        /* \"XODEX2.sol\":23454:23495  _tokenTransfer(from, to, amount, takeFee) */\n      tag_582\n        /* \"XODEX2.sol\":23469:23473  from */\n      dup5\n        /* \"XODEX2.sol\":23475:23477  to */\n      dup5\n        /* \"XODEX2.sol\":23479:23485  amount */\n      dup5\n        /* \"XODEX2.sol\":23487:23494  takeFee */\n      dup5\n        /* \"XODEX2.sol\":23454:23468  _tokenTransfer */\n      tag_583\n        /* \"XODEX2.sol\":23454:23495  _tokenTransfer(from, to, amount, takeFee) */\n      jump\t// in\n    tag_582:\n        /* \"XODEX2.sol\":21586:23502  {... */\n      pop\n        /* \"XODEX2.sol\":21487:23502  function _transfer(... */\n      pop\n      pop\n      pop\n      jump\t// out\n        /* \"XODEX2.sol\":1187:1418  function sub(... */\n    tag_337:\n        /* \"XODEX2.sol\":1303:1310  uint256 */\n      0x00\n        /* \"XODEX2.sol\":1359:1360  a */\n      dup4\n        /* \"XODEX2.sol\":1354:1355  b */\n      dup4\n        /* \"XODEX2.sol\":1354:1360  b <= a */\n      gt\n      iszero\n        /* \"XODEX2.sol\":1362:1374  errorMessage */\n      dup3\n        /* \"XODEX2.sol\":1346:1375  require(b <= a, errorMessage) */\n      swap1\n      tag_585\n      jumpi\n      mload(0x40)\n      0x08c379a000000000000000000000000000000000000000000000000000000000\n      dup2\n      mstore\n      0x04\n      add\n      tag_586\n      swap2\n      swap1\n      tag_62\n      jump\t// in\n    tag_586:\n      mload(0x40)\n      dup1\n      swap2\n      sub\n      swap1\n      revert\n    tag_585:\n      pop\n        /* \"XODEX2.sol\":1400:1401  b */\n      dup3\n        /* \"XODEX2.sol\":1396:1397  a */\n      dup5\n        /* \"XODEX2.sol\":1396:1401  a - b */\n      sub\n        /* \"XODEX2.sol\":1389:1401  return a - b */\n      swap1\n      pop\n        /* \"XODEX2.sol\":1187:1418  function sub(... */\n      swap4\n      swap3\n      pop\n      pop\n      pop\n      jump\t// out\n        /* \"XODEX2.sol\":779:875  function add(uint256 a, uint256 b) internal pure returns (uint256) {... */\n    tag_376:\n        /* \"XODEX2.sol\":837:844  uint256 */\n      0x00\n        /* \"XODEX2.sol\":867:868  b */\n      dup2\n        /* \"XODEX2.sol\":863:864  a */\n      dup4\n        /* \"XODEX2.sol\":863:868  a + b */\n      tag_588\n      swap2\n      swap1\n      tag_411\n      jump\t// in\n    tag_588:\n        /* \"XODEX2.sol\":856:868  return a + b */\n      swap1\n      pop\n        /* \"XODEX2.sol\":779:875  function add(uint256 a, uint256 b) internal pure returns (uint256) {... */\n      swap3\n      swap2\n      pop\n      pop\n      jump\t// out\n        /* \"XODEX2.sol\":17692:17914  function swapTokens(uint256 contractTokenBalance) private lockSwap {... */\n    tag_488:\n        /* \"XODEX2.sol\":13264:13268  true */\n      0x01\n        /* \"XODEX2.sol\":13251:13261  isSwapping */\n      0x10\n      0x14\n        /* \"XODEX2.sol\":13251:13268  isSwapping = true */\n      0x0100\n      exp\n      dup2\n      sload\n      dup2\n      0xff\n      mul\n      not\n      and\n      swap1\n      dup4\n      iszero\n      iszero\n      mul\n      or\n      swap1\n      sstore\n      pop\n        /* \"XODEX2.sol\":17769:17807  swapTokensForBNB(contractTokenBalance) */\n      tag_591\n        /* \"XODEX2.sol\":17786:17806  contractTokenBalance */\n      dup2\n        /* \"XODEX2.sol\":17769:17785  swapTokensForBNB */\n      tag_592\n        /* \"XODEX2.sol\":17769:17807  swapTokensForBNB(contractTokenBalance) */\n      jump\t// in\n    tag_591:\n        /* \"XODEX2.sol\":17817:17836  uint256 contractBNB */\n      0x00\n        /* \"XODEX2.sol\":17839:17860  address(this).balance */\n      selfbalance\n        /* \"XODEX2.sol\":17817:17860  uint256 contractBNB = address(this).balance */\n      swap1\n      pop\n        /* \"XODEX2.sol\":17870:17907  sendToWallet(Dev_Wallet, contractBNB) */\n      tag_593\n        /* \"XODEX2.sol\":17883:17893  Dev_Wallet */\n      0x05\n      0x01\n      swap1\n      sload\n      swap1\n      0x0100\n      exp\n      swap1\n      div\n      0xffffffffffffffffffffffffffffffffffffffff\n      and\n        /* \"XODEX2.sol\":17895:17906  contractBNB */\n      dup3\n        /* \"XODEX2.sol\":17870:17882  sendToWallet */\n      tag_594\n        /* \"XODEX2.sol\":17870:17907  sendToWallet(Dev_Wallet, contractBNB) */\n      jump\t// in\n    tag_593:\n        /* \"XODEX2.sol\":17759:17914  {... */\n      pop\n        /* \"XODEX2.sol\":13302:13307  false */\n      0x00\n        /* \"XODEX2.sol\":13289:13299  isSwapping */\n      0x10\n      0x14\n        /* \"XODEX2.sol\":13289:13307  isSwapping = false */\n      0x0100\n      exp\n      dup2\n      sload\n      dup2\n      0xff\n      mul\n      not\n      and\n      swap1\n      dup4\n      iszero\n      iszero\n      mul\n      or\n      swap1\n      sstore\n      pop\n        /* \"XODEX2.sol\":17692:17914  function swapTokens(uint256 contractTokenBalance) private lockSwap {... */\n      pop\n      jump\t// out\n        /* \"XODEX2.sol\":23508:23826  function _tokenTransfer(... */\n    tag_583:\n        /* \"XODEX2.sol\":23658:23665  takeFee */\n      dup1\n        /* \"XODEX2.sol\":23653:23744  if (!takeFee) {... */\n      tag_596\n      jumpi\n        /* \"XODEX2.sol\":23681:23693  removeFees() */\n      tag_597\n        /* \"XODEX2.sol\":23681:23691  removeFees */\n      tag_598\n        /* \"XODEX2.sol\":23681:23693  removeFees() */\n      jump\t// in\n    tag_597:\n        /* \"XODEX2.sol\":23653:23744  if (!takeFee) {... */\n      jump(tag_599)\n    tag_596:\n        /* \"XODEX2.sol\":23724:23731  txCount */\n      0x05\n      0x15\n        /* \"XODEX2.sol\":23724:23733  txCount++ */\n      dup2\n      dup2\n      swap1\n      sload\n      swap1\n      0x0100\n      exp\n      swap1\n      div\n      0xff\n      and\n      dup1\n      swap3\n      swap2\n      swap1\n      tag_600\n      swap1\n      tag_601\n      jump\t// in\n    tag_600:\n      swap2\n      swap1\n      0x0100\n      exp\n      dup2\n      sload\n      dup2\n      0xff\n      mul\n      not\n      and\n      swap1\n      dup4\n      0xff\n      and\n      mul\n      or\n      swap1\n      sstore\n      pop\n      pop\n        /* \"XODEX2.sol\":23653:23744  if (!takeFee) {... */\n    tag_599:\n        /* \"XODEX2.sol\":23753:23795  _transferTokens(sender, recipient, amount) */\n      tag_602\n        /* \"XODEX2.sol\":23769:23775  sender */\n      dup5\n        /* \"XODEX2.sol\":23777:23786  recipient */\n      dup5\n        /* \"XODEX2.sol\":23788:23794  amount */\n      dup5\n        /* \"XODEX2.sol\":23753:23768  _transferTokens */\n      tag_603\n        /* \"XODEX2.sol\":23753:23795  _transferTokens(sender, recipient, amount) */\n      jump\t// in\n    tag_602:\n        /* \"XODEX2.sol\":23806:23819  restoreFees() */\n      tag_604\n        /* \"XODEX2.sol\":23806:23817  restoreFees */\n      tag_605\n        /* \"XODEX2.sol\":23806:23819  restoreFees() */\n      jump\t// in\n    tag_604:\n        /* \"XODEX2.sol\":23508:23826  function _tokenTransfer(... */\n      pop\n      pop\n      pop\n      pop\n      jump\t// out\n        /* \"XODEX2.sol\":17920:18379  function swapTokensForBNB(uint256 tokenAmount) private {... */\n    tag_592:\n        /* \"XODEX2.sol\":17985:18006  address[] memory path */\n      0x00\n        /* \"XODEX2.sol\":18023:18024  2 */\n      0x02\n        /* \"XODEX2.sol\":18009:18025  new address[](2) */\n      0xffffffffffffffff\n      dup2\n      gt\n      iszero\n      tag_607\n      jumpi\n      tag_608\n      tag_609\n      jump\t// in\n    tag_608:\n    tag_607:\n      mload(0x40)\n      swap1\n      dup1\n      dup3\n      mstore\n      dup1\n      0x20\n      mul\n      0x20\n      add\n      dup3\n      add\n      0x40\n      mstore\n      dup1\n      iszero\n      tag_610\n      jumpi\n      dup2\n      0x20\n      add\n      0x20\n      dup3\n      mul\n      dup1\n      calldatasize\n      dup4\n      calldatacopy\n      dup1\n      dup3\n      add\n      swap2\n      pop\n      pop\n      swap1\n      pop\n    tag_610:\n      pop\n        /* \"XODEX2.sol\":17985:18025  address[] memory path = new address[](2) */\n      swap1\n      pop\n        /* \"XODEX2.sol\":18053:18057  this */\n      address\n        /* \"XODEX2.sol\":18035:18039  path */\n      dup2\n        /* \"XODEX2.sol\":18040:18041  0 */\n      0x00\n        /* \"XODEX2.sol\":18035:18042  path[0] */\n      dup2\n      mload\n      dup2\n      lt\n      tag_611\n      jumpi\n      tag_612\n      tag_320\n      jump\t// in\n    tag_612:\n    tag_611:\n      0x20\n      mul\n      0x20\n      add\n      add\n        /* \"XODEX2.sol\":18035:18058  path[0] = address(this) */\n      swap1\n      0xffffffffffffffffffffffffffffffffffffffff\n      and\n      swap1\n      dup2\n      0xffffffffffffffffffffffffffffffffffffffff\n      and\n      dup2\n      mstore\n      pop\n      pop\n        /* \"XODEX2.sol\":18078:18093  uniswapV2Router */\n      0x0f\n      0x01\n      swap1\n      sload\n      swap1\n      0x0100\n      exp\n      swap1\n      div\n      0xffffffffffffffffffffffffffffffffffffffff\n      and\n        /* \"XODEX2.sol\":18078:18098  uniswapV2Router.WETH */\n      0xffffffffffffffffffffffffffffffffffffffff\n      and\n      0xad5c4648\n        /* \"XODEX2.sol\":18078:18100  uniswapV2Router.WETH() */\n      mload(0x40)\n      dup2\n      0xffffffff\n      and\n      0xe0\n      shl\n      dup2\n      mstore\n      0x04\n      add\n      0x20\n      mload(0x40)\n      dup1\n      dup4\n      sub\n      dup2\n      dup7\n      gas\n      staticcall\n      iszero\n      dup1\n      iszero\n      tag_614\n      jumpi\n      returndatasize\n      0x00\n      dup1\n      returndatacopy\n      revert(0x00, returndatasize)\n    tag_614:\n      pop\n      pop\n      pop\n      pop\n      mload(0x40)\n      returndatasize\n      not(0x1f)\n      0x1f\n      dup3\n      add\n      and\n      dup3\n      add\n      dup1\n      0x40\n      mstore\n      pop\n      dup2\n      add\n      swap1\n      tag_615\n      swap2\n      swap1\n      tag_288\n      jump\t// in\n    tag_615:\n        /* \"XODEX2.sol\":18068:18072  path */\n      dup2\n        /* \"XODEX2.sol\":18073:18074  1 */\n      0x01\n        /* \"XODEX2.sol\":18068:18075  path[1] */\n      dup2\n      mload\n      dup2\n      lt\n      tag_616\n      jumpi\n      tag_617\n      tag_320\n      jump\t// in\n    tag_617:\n    tag_616:\n      0x20\n      mul\n      0x20\n      add\n      add\n        /* \"XODEX2.sol\":18068:18100  path[1] = uniswapV2Router.WETH() */\n      swap1\n      0xffffffffffffffffffffffffffffffffffffffff\n      and\n      swap1\n      dup2\n      0xffffffffffffffffffffffffffffffffffffffff\n      and\n      dup2\n      mstore\n      pop\n      pop\n        /* \"XODEX2.sol\":18110:18172  _approve(address(this), address(uniswapV2Router), tokenAmount) */\n      tag_618\n        /* \"XODEX2.sol\":18127:18131  this */\n      address\n        /* \"XODEX2.sol\":18142:18157  uniswapV2Router */\n      0x0f\n      0x01\n      swap1\n      sload\n      swap1\n      0x0100\n      exp\n      swap1\n      div\n      0xffffffffffffffffffffffffffffffffffffffff\n      and\n        /* \"XODEX2.sol\":18160:18171  tokenAmount */\n      dup5\n        /* \"XODEX2.sol\":18110:18118  _approve */\n      tag_274\n        /* \"XODEX2.sol\":18110:18172  _approve(address(this), address(uniswapV2Router), tokenAmount) */\n      jump\t// in\n    tag_618:\n        /* \"XODEX2.sol\":18182:18197  uniswapV2Router */\n      0x0f\n      0x01\n      swap1\n      sload\n      swap1\n      0x0100\n      exp\n      swap1\n      div\n      0xffffffffffffffffffffffffffffffffffffffff\n      and\n        /* \"XODEX2.sol\":18182:18248  uniswapV2Router.swapExactTokensForETHSupportingFeeOnTransferTokens */\n      0xffffffffffffffffffffffffffffffffffffffff\n      and\n      0x791ac947\n        /* \"XODEX2.sol\":18262:18273  tokenAmount */\n      dup4\n        /* \"XODEX2.sol\":18287:18288  0 */\n      0x00\n        /* \"XODEX2.sol\":18302:18306  path */\n      dup5\n        /* \"XODEX2.sol\":18328:18332  this */\n      address\n        /* \"XODEX2.sol\":18347:18362  block.timestamp */\n      timestamp\n        /* \"XODEX2.sol\":18182:18372  uniswapV2Router.swapExactTokensForETHSupportingFeeOnTransferTokens(... */\n      mload(0x40)\n      dup7\n      0xffffffff\n      and\n      0xe0\n      shl\n      dup2\n      mstore\n      0x04\n      add\n      tag_619\n      swap6\n      swap5\n      swap4\n      swap3\n      swap2\n      swap1\n      tag_620\n      jump\t// in\n    tag_619:\n      0x00\n      mload(0x40)\n      dup1\n      dup4\n      sub\n      dup2\n      0x00\n      dup8\n      dup1\n      extcodesize\n      iszero\n      dup1\n      iszero\n      tag_621\n      jumpi\n      0x00\n      dup1\n      revert\n    tag_621:\n      pop\n      gas\n      call\n      iszero\n      dup1\n      iszero\n      tag_623\n      jumpi\n      returndatasize\n      0x00\n      dup1\n      returndatacopy\n      revert(0x00, returndatasize)\n    tag_623:\n      pop\n      pop\n      pop\n      pop\n        /* \"XODEX2.sol\":17975:18379  {... */\n      pop\n        /* \"XODEX2.sol\":17920:18379  function swapTokensForBNB(uint256 tokenAmount) private {... */\n      pop\n      jump\t// out\n        /* \"XODEX2.sol\":17576:17686  function sendToWallet(address payable wallet, uint256 amount) private {... */\n    tag_594:\n        /* \"XODEX2.sol\":17656:17662  wallet */\n      dup2\n        /* \"XODEX2.sol\":17656:17671  wallet.transfer */\n      0xffffffffffffffffffffffffffffffffffffffff\n      and\n        /* \"XODEX2.sol\":17656:17679  wallet.transfer(amount) */\n      0x08fc\n        /* \"XODEX2.sol\":17672:17678  amount */\n      dup3\n        /* \"XODEX2.sol\":17656:17679  wallet.transfer(amount) */\n      swap1\n      dup2\n      iszero\n      mul\n      swap1\n      mload(0x40)\n      0x00\n      mload(0x40)\n      dup1\n      dup4\n      sub\n      dup2\n      dup6\n      dup9\n      dup9\n      call\n      swap4\n      pop\n      pop\n      pop\n      pop\n      iszero\n      dup1\n      iszero\n      tag_626\n      jumpi\n      returndatasize\n      0x00\n      dup1\n      returndatacopy\n      revert(0x00, returndatasize)\n    tag_626:\n      pop\n        /* \"XODEX2.sol\":17576:17686  function sendToWallet(address payable wallet, uint256 amount) private {... */\n      pop\n      pop\n      jump\t// out\n        /* \"XODEX2.sol\":17347:17444  function removeFees() private {... */\n    tag_598:\n        /* \"XODEX2.sol\":17404:17405  0 */\n      0x00\n        /* \"XODEX2.sol\":17391:17400  _TotalFee */\n      sload(0x0e)\n        /* \"XODEX2.sol\":17391:17405  _TotalFee == 0 */\n      sub\n        /* \"XODEX2.sol\":17387:17414  if (_TotalFee == 0) return; */\n      iszero\n        /* \"XODEX2.sol\":17407:17414  return; */\n      tag_627\n        /* \"XODEX2.sol\":17387:17414  if (_TotalFee == 0) return; */\n      jumpi\n        /* \"XODEX2.sol\":17436:17437  0 */\n      0x00\n        /* \"XODEX2.sol\":17424:17433  _TotalFee */\n      0x0e\n        /* \"XODEX2.sol\":17424:17437  _TotalFee = 0 */\n      dup2\n      swap1\n      sstore\n      pop\n        /* \"XODEX2.sol\":17347:17444  function removeFees() private {... */\n    tag_627:\n      jump\t// out\n        /* \"XODEX2.sol\":23832:24301  function _transferTokens(... */\n    tag_603:\n        /* \"XODEX2.sol\":23958:23981  uint256 tTransferAmount */\n      0x00\n        /* \"XODEX2.sol\":23983:23995  uint256 tDev */\n      dup1\n        /* \"XODEX2.sol\":23999:24018  _getValues(tAmount) */\n      tag_630\n        /* \"XODEX2.sol\":24010:24017  tAmount */\n      dup4\n        /* \"XODEX2.sol\":23999:24009  _getValues */\n      tag_631\n        /* \"XODEX2.sol\":23999:24018  _getValues(tAmount) */\n      jump\t// in\n    tag_630:\n        /* \"XODEX2.sol\":23957:24018  (uint256 tTransferAmount, uint256 tDev) = _getValues(tAmount) */\n      swap2\n      pop\n      swap2\n      pop\n        /* \"XODEX2.sol\":24050:24082  _totalOwned[sender].sub(tAmount) */\n      tag_632\n        /* \"XODEX2.sol\":24074:24081  tAmount */\n      dup4\n        /* \"XODEX2.sol\":24050:24061  _totalOwned */\n      0x01\n        /* \"XODEX2.sol\":24050:24069  _totalOwned[sender] */\n      0x00\n        /* \"XODEX2.sol\":24062:24068  sender */\n      dup9\n        /* \"XODEX2.sol\":24050:24069  _totalOwned[sender] */\n      0xffffffffffffffffffffffffffffffffffffffff\n      and\n      0xffffffffffffffffffffffffffffffffffffffff\n      and\n      dup2\n      mstore\n      0x20\n      add\n      swap1\n      dup2\n      mstore\n      0x20\n      add\n      0x00\n      keccak256\n      sload\n        /* \"XODEX2.sol\":24050:24073  _totalOwned[sender].sub */\n      tag_633\n      swap1\n        /* \"XODEX2.sol\":24050:24082  _totalOwned[sender].sub(tAmount) */\n      swap2\n      swap1\n      0xffffffff\n      and\n      jump\t// in\n    tag_632:\n        /* \"XODEX2.sol\":24028:24039  _totalOwned */\n      0x01\n        /* \"XODEX2.sol\":24028:24047  _totalOwned[sender] */\n      0x00\n        /* \"XODEX2.sol\":24040:24046  sender */\n      dup8\n        /* \"XODEX2.sol\":24028:24047  _totalOwned[sender] */\n      0xffffffffffffffffffffffffffffffffffffffff\n      and\n      0xffffffffffffffffffffffffffffffffffffffff\n      and\n      dup2\n      mstore\n      0x20\n      add\n      swap1\n      dup2\n      mstore\n      0x20\n      add\n      0x00\n      keccak256\n        /* \"XODEX2.sol\":24028:24082  _totalOwned[sender] = _totalOwned[sender].sub(tAmount) */\n      dup2\n      swap1\n      sstore\n      pop\n        /* \"XODEX2.sol\":24117:24160  _totalOwned[recipient].add(tTransferAmount) */\n      tag_634\n        /* \"XODEX2.sol\":24144:24159  tTransferAmount */\n      dup3\n        /* \"XODEX2.sol\":24117:24128  _totalOwned */\n      0x01\n        /* \"XODEX2.sol\":24117:24139  _totalOwned[recipient] */\n      0x00\n        /* \"XODEX2.sol\":24129:24138  recipient */\n      dup8\n        /* \"XODEX2.sol\":24117:24139  _totalOwned[recipient] */\n      0xffffffffffffffffffffffffffffffffffffffff\n      and\n      0xffffffffffffffffffffffffffffffffffffffff\n      and\n      dup2\n      mstore\n      0x20\n      add\n      swap1\n      dup2\n      mstore\n      0x20\n      add\n      0x00\n      keccak256\n      sload\n        /* \"XODEX2.sol\":24117:24143  _totalOwned[recipient].add */\n      tag_376\n      swap1\n        /* \"XODEX2.sol\":24117:24160  _totalOwned[recipient].add(tTransferAmount) */\n      swap2\n      swap1\n      0xffffffff\n      and\n      jump\t// in\n    tag_634:\n        /* \"XODEX2.sol\":24092:24103  _totalOwned */\n      0x01\n        /* \"XODEX2.sol\":24092:24114  _totalOwned[recipient] */\n      0x00\n        /* \"XODEX2.sol\":24104:24113  recipient */\n      dup7\n        /* \"XODEX2.sol\":24092:24114  _totalOwned[recipient] */\n      0xffffffffffffffffffffffffffffffffffffffff\n      and\n      0xffffffffffffffffffffffffffffffffffffffff\n      and\n      dup2\n      mstore\n      0x20\n      add\n      swap1\n      dup2\n      mstore\n      0x20\n      add\n      0x00\n      keccak256\n        /* \"XODEX2.sol\":24092:24160  _totalOwned[recipient] = _totalOwned[recipient].add(tTransferAmount) */\n      dup2\n      swap1\n      sstore\n      pop\n        /* \"XODEX2.sol\":24199:24235  _totalOwned[address(this)].add(tDev) */\n      tag_635\n        /* \"XODEX2.sol\":24230:24234  tDev */\n      dup2\n        /* \"XODEX2.sol\":24199:24210  _totalOwned */\n      0x01\n        /* \"XODEX2.sol\":24199:24225  _totalOwned[address(this)] */\n      0x00\n        /* \"XODEX2.sol\":24219:24223  this */\n      address\n        /* \"XODEX2.sol\":24199:24225  _totalOwned[address(this)] */\n      0xffffffffffffffffffffffffffffffffffffffff\n      and\n      0xffffffffffffffffffffffffffffffffffffffff\n      and\n      dup2\n      mstore\n      0x20\n      add\n      swap1\n      dup2\n      mstore\n      0x20\n      add\n      0x00\n      keccak256\n      sload\n        /* \"XODEX2.sol\":24199:24229  _totalOwned[address(this)].add */\n      tag_376\n      swap1\n        /* \"XODEX2.sol\":24199:24235  _totalOwned[address(this)].add(tDev) */\n      swap2\n      swap1\n      0xffffffff\n      and\n      jump\t// in\n    tag_635:\n        /* \"XODEX2.sol\":24170:24181  _totalOwned */\n      0x01\n        /* \"XODEX2.sol\":24170:24196  _totalOwned[address(this)] */\n      0x00\n        /* \"XODEX2.sol\":24190:24194  this */\n      address\n        /* \"XODEX2.sol\":24170:24196  _totalOwned[address(this)] */\n      0xffffffffffffffffffffffffffffffffffffffff\n      and\n      0xffffffffffffffffffffffffffffffffffffffff\n      and\n      dup2\n      mstore\n      0x20\n      add\n      swap1\n      dup2\n      mstore\n      0x20\n      add\n      0x00\n      keccak256\n        /* \"XODEX2.sol\":24170:24235  _totalOwned[address(this)] = _totalOwned[address(this)].add(tDev) */\n      dup2\n      swap1\n      sstore\n      pop\n        /* \"XODEX2.sol\":24267:24276  recipient */\n      dup4\n        /* \"XODEX2.sol\":24250:24294  Transfer(sender, recipient, tTransferAmount) */\n      0xffffffffffffffffffffffffffffffffffffffff\n      and\n        /* \"XODEX2.sol\":24259:24265  sender */\n      dup6\n        /* \"XODEX2.sol\":24250:24294  Transfer(sender, recipient, tTransferAmount) */\n      0xffffffffffffffffffffffffffffffffffffffff\n      and\n      0xddf252ad1be2c89b69c2b068fc378daa952ba7f163c4a11628f55a4df523b3ef\n        /* \"XODEX2.sol\":24278:24293  tTransferAmount */\n      dup5\n        /* \"XODEX2.sol\":24250:24294  Transfer(sender, recipient, tTransferAmount) */\n      mload(0x40)\n      tag_636\n      swap2\n      swap1\n      tag_89\n      jump\t// in\n    tag_636:\n      mload(0x40)\n      dup1\n      swap2\n      sub\n      swap1\n      log3\n        /* \"XODEX2.sol\":23947:24301  {... */\n      pop\n      pop\n        /* \"XODEX2.sol\":23832:24301  function _transferTokens(... */\n      pop\n      pop\n      pop\n      jump\t// out\n        /* \"XODEX2.sol\":17450:17570  function restoreFees() private {... */\n    tag_605:\n        /* \"XODEX2.sol\":17508:17520  _TransferFee */\n      sload(0x0b)\n        /* \"XODEX2.sol\":17495:17504  _TotalFee */\n      sload(0x0e)\n        /* \"XODEX2.sol\":17495:17520  _TotalFee == _TransferFee */\n      sub\n        /* \"XODEX2.sol\":17491:17529  if (_TotalFee == _TransferFee) return; */\n      iszero\n        /* \"XODEX2.sol\":17522:17529  return; */\n      tag_637\n        /* \"XODEX2.sol\":17491:17529  if (_TotalFee == _TransferFee) return; */\n      jumpi\n        /* \"XODEX2.sol\":17551:17563  _TransferFee */\n      sload(0x0b)\n        /* \"XODEX2.sol\":17539:17548  _TotalFee */\n      0x0e\n        /* \"XODEX2.sol\":17539:17563  _TotalFee = _TransferFee */\n      dup2\n      swap1\n      sstore\n      pop\n        /* \"XODEX2.sol\":17450:17570  function restoreFees() private {... */\n    tag_637:\n      jump\t// out\n        /* \"XODEX2.sol\":24307:24536  function _getValues(uint256 tAmount) private view returns (uint256, uint256) {... */\n    tag_631:\n        /* \"XODEX2.sol\":24366:24373  uint256 */\n      0x00\n        /* \"XODEX2.sol\":24375:24382  uint256 */\n      dup1\n        /* \"XODEX2.sol\":24394:24406  uint256 tDev */\n      0x00\n        /* \"XODEX2.sol\":24433:24436  100 */\n      0x64\n        /* \"XODEX2.sol\":24420:24429  _TotalFee */\n      sload(0x0e)\n        /* \"XODEX2.sol\":24410:24417  tAmount */\n      dup6\n        /* \"XODEX2.sol\":24410:24429  tAmount * _TotalFee */\n      tag_640\n      swap2\n      swap1\n      tag_304\n      jump\t// in\n    tag_640:\n        /* \"XODEX2.sol\":24409:24436  (tAmount * _TotalFee) / 100 */\n      tag_641\n      swap2\n      swap1\n      tag_306\n      jump\t// in\n    tag_641:\n        /* \"XODEX2.sol\":24394:24436  uint256 tDev = (tAmount * _TotalFee) / 100 */\n      swap1\n      pop\n        /* \"XODEX2.sol\":24446:24469  uint256 tTransferAmount */\n      0x00\n        /* \"XODEX2.sol\":24472:24489  tAmount.sub(tDev) */\n      tag_642\n        /* \"XODEX2.sol\":24484:24488  tDev */\n      dup3\n        /* \"XODEX2.sol\":24472:24479  tAmount */\n      dup7\n        /* \"XODEX2.sol\":24472:24483  tAmount.sub */\n      tag_633\n      swap1\n        /* \"XODEX2.sol\":24472:24489  tAmount.sub(tDev) */\n      swap2\n      swap1\n      0xffffffff\n      and\n      jump\t// in\n    tag_642:\n        /* \"XODEX2.sol\":24446:24489  uint256 tTransferAmount = tAmount.sub(tDev) */\n      swap1\n      pop\n        /* \"XODEX2.sol\":24507:24522  tTransferAmount */\n      dup1\n        /* \"XODEX2.sol\":24524:24528  tDev */\n      dup3\n        /* \"XODEX2.sol\":24499:24529  return (tTransferAmount, tDev) */\n      swap4\n      pop\n      swap4\n      pop\n      pop\n      pop\n        /* \"XODEX2.sol\":24307:24536  function _getValues(uint256 tAmount) private view returns (uint256, uint256) {... */\n      swap2\n      pop\n      swap2\n      jump\t// out\n        /* \"XODEX2.sol\":881:977  function sub(uint256 a, uint256 b) internal pure returns (uint256) {... */\n    tag_633:\n        /* \"XODEX2.sol\":939:946  uint256 */\n      0x00\n        /* \"XODEX2.sol\":969:970  b */\n      dup2\n        /* \"XODEX2.sol\":965:966  a */\n      dup4\n        /* \"XODEX2.sol\":965:970  a - b */\n      tag_644\n      swap2\n      swap1\n      tag_327\n      jump\t// in\n    tag_644:\n        /* \"XODEX2.sol\":958:970  return a - b */\n      swap1\n      pop\n        /* \"XODEX2.sol\":881:977  function sub(uint256 a, uint256 b) internal pure returns (uint256) {... */\n      swap3\n      swap2\n      pop\n      pop\n      jump\t// out\n        /* \"#utility.yul\":7:106   */\n    tag_645:\n        /* \"#utility.yul\":59:65   */\n      0x00\n        /* \"#utility.yul\":93:98   */\n      dup2\n        /* \"#utility.yul\":87:99   */\n      mload\n        /* \"#utility.yul\":77:99   */\n      swap1\n      pop\n        /* \"#utility.yul\":7:106   */\n      swap2\n      swap1\n      pop\n      jump\t// out\n        /* \"#utility.yul\":112:281   */\n    tag_646:\n        /* \"#utility.yul\":196:207   */\n      0x00\n        /* \"#utility.yul\":230:236   */\n      dup3\n        /* \"#utility.yul\":225:228   */\n      dup3\n        /* \"#utility.yul\":218:237   */\n      mstore\n        /* \"#utility.yul\":270:274   */\n      0x20\n        /* \"#utility.yul\":265:268   */\n      dup3\n        /* \"#utility.yul\":261:275   */\n      add\n        /* \"#utility.yul\":246:275   */\n      swap1\n      pop\n        /* \"#utility.yul\":112:281   */\n      swap3\n      swap2\n      pop\n      pop\n      jump\t// out\n        /* \"#utility.yul\":287:533   */\n    tag_647:\n        /* \"#utility.yul\":368:369   */\n      0x00\n        /* \"#utility.yul\":378:491   */\n    tag_723:\n        /* \"#utility.yul\":392:398   */\n      dup4\n        /* \"#utility.yul\":389:390   */\n      dup2\n        /* \"#utility.yul\":386:399   */\n      lt\n        /* \"#utility.yul\":378:491   */\n      iszero\n      tag_725\n      jumpi\n        /* \"#utility.yul\":477:478   */\n      dup1\n        /* \"#utility.yul\":472:475   */\n      dup3\n        /* \"#utility.yul\":468:479   */\n      add\n        /* \"#utility.yul\":462:480   */\n      mload\n        /* \"#utility.yul\":458:459   */\n      dup2\n        /* \"#utility.yul\":453:456   */\n      dup5\n        /* \"#utility.yul\":449:460   */\n      add\n        /* \"#utility.yul\":442:481   */\n      mstore\n        /* \"#utility.yul\":414:416   */\n      0x20\n        /* \"#utility.yul\":411:412   */\n      dup2\n        /* \"#utility.yul\":407:417   */\n      add\n        /* \"#utility.yul\":402:417   */\n      swap1\n      pop\n        /* \"#utility.yul\":378:491   */\n      jump(tag_723)\n    tag_725:\n        /* \"#utility.yul\":525:526   */\n      0x00\n        /* \"#utility.yul\":516:522   */\n      dup5\n        /* \"#utility.yul\":511:514   */\n      dup5\n        /* \"#utility.yul\":507:523   */\n      add\n        /* \"#utility.yul\":500:527   */\n      mstore\n        /* \"#utility.yul\":349:533   */\n      pop\n        /* \"#utility.yul\":287:533   */\n      pop\n      pop\n      pop\n      jump\t// out\n        /* \"#utility.yul\":539:641   */\n    tag_648:\n        /* \"#utility.yul\":580:586   */\n      0x00\n        /* \"#utility.yul\":631:633   */\n      0x1f\n        /* \"#utility.yul\":627:634   */\n      not\n        /* \"#utility.yul\":622:624   */\n      0x1f\n        /* \"#utility.yul\":615:620   */\n      dup4\n        /* \"#utility.yul\":611:625   */\n      add\n        /* \"#utility.yul\":607:635   */\n      and\n        /* \"#utility.yul\":597:635   */\n      swap1\n      pop\n        /* \"#utility.yul\":539:641   */\n      swap2\n      swap1\n      pop\n      jump\t// out\n        /* \"#utility.yul\":647:1024   */\n    tag_649:\n        /* \"#utility.yul\":735:738   */\n      0x00\n        /* \"#utility.yul\":763:802   */\n      tag_728\n        /* \"#utility.yul\":796:801   */\n      dup3\n        /* \"#utility.yul\":763:802   */\n      tag_645\n      jump\t// in\n    tag_728:\n        /* \"#utility.yul\":818:889   */\n      tag_729\n        /* \"#utility.yul\":882:888   */\n      dup2\n        /* \"#utility.yul\":877:880   */\n      dup6\n        /* \"#utility.yul\":818:889   */\n      tag_646\n      jump\t// in\n    tag_729:\n        /* \"#utility.yul\":811:889   */\n      swap4\n      pop\n        /* \"#utility.yul\":898:963   */\n      tag_730\n        /* \"#utility.yul\":956:962   */\n      dup2\n        /* \"#utility.yul\":951:954   */\n      dup6\n        /* \"#utility.yul\":944:948   */\n      0x20\n        /* \"#utility.yul\":937:942   */\n      dup7\n        /* \"#utility.yul\":933:949   */\n      add\n        /* \"#utility.yul\":898:963   */\n      tag_647\n      jump\t// in\n    tag_730:\n        /* \"#utility.yul\":988:1017   */\n      tag_731\n        /* \"#utility.yul\":1010:1016   */\n      dup2\n        /* \"#utility.yul\":988:1017   */\n      tag_648\n      jump\t// in\n    tag_731:\n        /* \"#utility.yul\":983:986   */\n      dup5\n        /* \"#utility.yul\":979:1018   */\n      add\n        /* \"#utility.yul\":972:1018   */\n      swap2\n      pop\n        /* \"#utility.yul\":739:1024   */\n      pop\n        /* \"#utility.yul\":647:1024   */\n      swap3\n      swap2\n      pop\n      pop\n      jump\t// out\n        /* \"#utility.yul\":1030:1343   */\n    tag_62:\n        /* \"#utility.yul\":1143:1147   */\n      0x00\n        /* \"#utility.yul\":1181:1183   */\n      0x20\n        /* \"#utility.yul\":1170:1179   */\n      dup3\n        /* \"#utility.yul\":1166:1184   */\n      add\n        /* \"#utility.yul\":1158:1184   */\n      swap1\n      pop\n        /* \"#utility.yul\":1230:1239   */\n      dup2\n        /* \"#utility.yul\":1224:1228   */\n      dup2\n        /* \"#utility.yul\":1220:1240   */\n      sub\n        /* \"#utility.yul\":1216:1217   */\n      0x00\n        /* \"#utility.yul\":1205:1214   */\n      dup4\n        /* \"#utility.yul\":1201:1218   */\n      add\n        /* \"#utility.yul\":1194:1241   */\n      mstore\n        /* \"#utility.yul\":1258:1336   */\n      tag_733\n        /* \"#utility.yul\":1331:1335   */\n      dup2\n        /* \"#utility.yul\":1322:1328   */\n      dup5\n        /* \"#utility.yul\":1258:1336   */\n      tag_649\n      jump\t// in\n    tag_733:\n        /* \"#utility.yul\":1250:1336   */\n      swap1\n      pop\n        /* \"#utility.yul\":1030:1343   */\n      swap3\n      swap2\n      pop\n      pop\n      jump\t// out\n        /* \"#utility.yul\":1430:1547   */\n    tag_651:\n        /* \"#utility.yul\":1539:1540   */\n      0x00\n        /* \"#utility.yul\":1536:1537   */\n      dup1\n        /* \"#utility.yul\":1529:1541   */\n      revert\n        /* \"#utility.yul\":1553:1670   */\n    tag_652:\n        /* \"#utility.yul\":1662:1663   */\n      0x00\n        /* \"#utility.yul\":1659:1660   */\n      dup1\n        /* \"#utility.yul\":1652:1664   */\n      revert\n        /* \"#utility.yul\":1676:1802   */\n    tag_653:\n        /* \"#utility.yul\":1713:1720   */\n      0x00\n        /* \"#utility.yul\":1753:1795   */\n      0xffffffffffffffffffffffffffffffffffffffff\n        /* \"#utility.yul\":1746:1751   */\n      dup3\n        /* \"#utility.yul\":1742:1796   */\n      and\n        /* \"#utility.yul\":1731:1796   */\n      swap1\n      pop\n        /* \"#utility.yul\":1676:1802   */\n      swap2\n      swap1\n      pop\n      jump\t// out\n        /* \"#utility.yul\":1808:1904   */\n    tag_654:\n        /* \"#utility.yul\":1845:1852   */\n      0x00\n        /* \"#utility.yul\":1874:1898   */\n      tag_739\n        /* \"#utility.yul\":1892:1897   */\n      dup3\n        /* \"#utility.yul\":1874:1898   */\n      tag_653\n      jump\t// in\n    tag_739:\n        /* \"#utility.yul\":1863:1898   */\n      swap1\n      pop\n        /* \"#utility.yul\":1808:1904   */\n      swap2\n      swap1\n      pop\n      jump\t// out\n        /* \"#utility.yul\":1910:2032   */\n    tag_655:\n        /* \"#utility.yul\":1983:2007   */\n      tag_741\n        /* \"#utility.yul\":2001:2006   */\n      dup2\n        /* \"#utility.yul\":1983:2007   */\n      tag_654\n      jump\t// in\n    tag_741:\n        /* \"#utility.yul\":1976:1981   */\n      dup2\n        /* \"#utility.yul\":1973:2008   */\n      eq\n        /* \"#utility.yul\":1963:2026   */\n      tag_742\n      jumpi\n        /* \"#utility.yul\":2022:2023   */\n      0x00\n        /* \"#utility.yul\":2019:2020   */\n      dup1\n        /* \"#utility.yul\":2012:2024   */\n      revert\n        /* \"#utility.yul\":1963:2026   */\n    tag_742:\n        /* \"#utility.yul\":1910:2032   */\n      pop\n      jump\t// out\n        /* \"#utility.yul\":2038:2177   */\n    tag_656:\n        /* \"#utility.yul\":2084:2089   */\n      0x00\n        /* \"#utility.yul\":2122:2128   */\n      dup2\n        /* \"#utility.yul\":2109:2129   */\n      calldataload\n        /* \"#utility.yul\":2100:2129   */\n      swap1\n      pop\n        /* \"#utility.yul\":2138:2171   */\n      tag_744\n        /* \"#utility.yul\":2165:2170   */\n      dup2\n        /* \"#utility.yul\":2138:2171   */\n      tag_655\n      jump\t// in\n    tag_744:\n        /* \"#utility.yul\":2038:2177   */\n      swap3\n      swap2\n      pop\n      pop\n      jump\t// out\n        /* \"#utility.yul\":2183:2260   */\n    tag_657:\n        /* \"#utility.yul\":2220:2227   */\n      0x00\n        /* \"#utility.yul\":2249:2254   */\n      dup2\n        /* \"#utility.yul\":2238:2254   */\n      swap1\n      pop\n        /* \"#utility.yul\":2183:2260   */\n      swap2\n      swap1\n      pop\n      jump\t// out\n        /* \"#utility.yul\":2266:2388   */\n    tag_658:\n        /* \"#utility.yul\":2339:2363   */\n      tag_747\n        /* \"#utility.yul\":2357:2362   */\n      dup2\n        /* \"#utility.yul\":2339:2363   */\n      tag_657\n      jump\t// in\n    tag_747:\n        /* \"#utility.yul\":2332:2337   */\n      dup2\n        /* \"#utility.yul\":2329:2364   */\n      eq\n        /* \"#utility.yul\":2319:2382   */\n      tag_748\n      jumpi\n        /* \"#utility.yul\":2378:2379   */\n      0x00\n        /* \"#utility.yul\":2375:2376   */\n      dup1\n        /* \"#utility.yul\":2368:2380   */\n      revert\n        /* \"#utility.yul\":2319:2382   */\n    tag_748:\n        /* \"#utility.yul\":2266:2388   */\n      pop\n      jump\t// out\n        /* \"#utility.yul\":2394:2533   */\n    tag_659:\n        /* \"#utility.yul\":2440:2445   */\n      0x00\n        /* \"#utility.yul\":2478:2484   */\n      dup2\n        /* \"#utility.yul\":2465:2485   */\n      calldataload\n        /* \"#utility.yul\":2456:2485   */\n      swap1\n      pop\n        /* \"#utility.yul\":2494:2527   */\n      tag_750\n        /* \"#utility.yul\":2521:2526   */\n      dup2\n        /* \"#utility.yul\":2494:2527   */\n      tag_658\n      jump\t// in\n    tag_750:\n        /* \"#utility.yul\":2394:2533   */\n      swap3\n      swap2\n      pop\n      pop\n      jump\t// out\n        /* \"#utility.yul\":2539:3013   */\n    tag_66:\n        /* \"#utility.yul\":2607:2613   */\n      0x00\n        /* \"#utility.yul\":2615:2621   */\n      dup1\n        /* \"#utility.yul\":2664:2666   */\n      0x40\n        /* \"#utility.yul\":2652:2661   */\n      dup4\n        /* \"#utility.yul\":2643:2650   */\n      dup6\n        /* \"#utility.yul\":2639:2662   */\n      sub\n        /* \"#utility.yul\":2635:2667   */\n      slt\n        /* \"#utility.yul\":2632:2751   */\n      iszero\n      tag_752\n      jumpi\n        /* \"#utility.yul\":2670:2749   */\n      tag_753\n      tag_651\n      jump\t// in\n    tag_753:\n        /* \"#utility.yul\":2632:2751   */\n    tag_752:\n        /* \"#utility.yul\":2790:2791   */\n      0x00\n        /* \"#utility.yul\":2815:2868   */\n      tag_754\n        /* \"#utility.yul\":2860:2867   */\n      dup6\n        /* \"#utility.yul\":2851:2857   */\n      dup3\n        /* \"#utility.yul\":2840:2849   */\n      dup7\n        /* \"#utility.yul\":2836:2858   */\n      add\n        /* \"#utility.yul\":2815:2868   */\n      tag_656\n      jump\t// in\n    tag_754:\n        /* \"#utility.yul\":2805:2868   */\n      swap3\n      pop\n        /* \"#utility.yul\":2761:2878   */\n      pop\n        /* \"#utility.yul\":2917:2919   */\n      0x20\n        /* \"#utility.yul\":2943:2996   */\n      tag_755\n        /* \"#utility.yul\":2988:2995   */\n      dup6\n        /* \"#utility.yul\":2979:2985   */\n      dup3\n        /* \"#utility.yul\":2968:2977   */\n      dup7\n        /* \"#utility.yul\":2964:2986   */\n      add\n        /* \"#utility.yul\":2943:2996   */\n      tag_659\n      jump\t// in\n    tag_755:\n        /* \"#utility.yul\":2933:2996   */\n      swap2\n      pop\n        /* \"#utility.yul\":2888:3006   */\n      pop\n        /* \"#utility.yul\":2539:3013   */\n      swap3\n      pop\n      swap3\n      swap1\n      pop\n      jump\t// out\n        /* \"#utility.yul\":3019:3109   */\n    tag_660:\n        /* \"#utility.yul\":3053:3060   */\n      0x00\n        /* \"#utility.yul\":3096:3101   */\n      dup2\n        /* \"#utility.yul\":3089:3102   */\n      iszero\n        /* \"#utility.yul\":3082:3103   */\n      iszero\n        /* \"#utility.yul\":3071:3103   */\n      swap1\n      pop\n        /* \"#utility.yul\":3019:3109   */\n      swap2\n      swap1\n      pop\n      jump\t// out\n        /* \"#utility.yul\":3115:3224   */\n    tag_661:\n        /* \"#utility.yul\":3196:3217   */\n      tag_758\n        /* \"#utility.yul\":3211:3216   */\n      dup2\n        /* \"#utility.yul\":3196:3217   */\n      tag_660\n      jump\t// in\n    tag_758:\n        /* \"#utility.yul\":3191:3194   */\n      dup3\n        /* \"#utility.yul\":3184:3218   */\n      mstore\n        /* \"#utility.yul\":3115:3224   */\n      pop\n      pop\n      jump\t// out\n        /* \"#utility.yul\":3230:3440   */\n    tag_69:\n        /* \"#utility.yul\":3317:3321   */\n      0x00\n        /* \"#utility.yul\":3355:3357   */\n      0x20\n        /* \"#utility.yul\":3344:3353   */\n      dup3\n        /* \"#utility.yul\":3340:3358   */\n      add\n        /* \"#utility.yul\":3332:3358   */\n      swap1\n      pop\n        /* \"#utility.yul\":3368:3433   */\n      tag_760\n        /* \"#utility.yul\":3430:3431   */\n      0x00\n        /* \"#utility.yul\":3419:3428   */\n      dup4\n        /* \"#utility.yul\":3415:3432   */\n      add\n        /* \"#utility.yul\":3406:3412   */\n      dup5\n        /* \"#utility.yul\":3368:3433   */\n      tag_661\n      jump\t// in\n    tag_760:\n        /* \"#utility.yul\":3230:3440   */\n      swap3\n      swap2\n      pop\n      pop\n      jump\t// out\n        /* \"#utility.yul\":3446:3775   */\n    tag_73:\n        /* \"#utility.yul\":3505:3511   */\n      0x00\n        /* \"#utility.yul\":3554:3556   */\n      0x20\n        /* \"#utility.yul\":3542:3551   */\n      dup3\n        /* \"#utility.yul\":3533:3540   */\n      dup5\n        /* \"#utility.yul\":3529:3552   */\n      sub\n        /* \"#utility.yul\":3525:3557   */\n      slt\n        /* \"#utility.yul\":3522:3641   */\n      iszero\n      tag_762\n      jumpi\n        /* \"#utility.yul\":3560:3639   */\n      tag_763\n      tag_651\n      jump\t// in\n    tag_763:\n        /* \"#utility.yul\":3522:3641   */\n    tag_762:\n        /* \"#utility.yul\":3680:3681   */\n      0x00\n        /* \"#utility.yul\":3705:3758   */\n      tag_764\n        /* \"#utility.yul\":3750:3757   */\n      dup5\n        /* \"#utility.yul\":3741:3747   */\n      dup3\n        /* \"#utility.yul\":3730:3739   */\n      dup6\n        /* \"#utility.yul\":3726:3748   */\n      add\n        /* \"#utility.yul\":3705:3758   */\n      tag_656\n      jump\t// in\n    tag_764:\n        /* \"#utility.yul\":3695:3758   */\n      swap2\n      pop\n        /* \"#utility.yul\":3651:3768   */\n      pop\n        /* \"#utility.yul\":3446:3775   */\n      swap3\n      swap2\n      pop\n      pop\n      jump\t// out\n        /* \"#utility.yul\":3781:4110   */\n    tag_78:\n        /* \"#utility.yul\":3840:3846   */\n      0x00\n        /* \"#utility.yul\":3889:3891   */\n      0x20\n        /* \"#utility.yul\":3877:3886   */\n      dup3\n        /* \"#utility.yul\":3868:3875   */\n      dup5\n        /* \"#utility.yul\":3864:3887   */\n      sub\n        /* \"#utility.yul\":3860:3892   */\n      slt\n        /* \"#utility.yul\":3857:3976   */\n      iszero\n      tag_766\n      jumpi\n        /* \"#utility.yul\":3895:3974   */\n      tag_767\n      tag_651\n      jump\t// in\n    tag_767:\n        /* \"#utility.yul\":3857:3976   */\n    tag_766:\n        /* \"#utility.yul\":4015:4016   */\n      0x00\n        /* \"#utility.yul\":4040:4093   */\n      tag_768\n        /* \"#utility.yul\":4085:4092   */\n      dup5\n        /* \"#utility.yul\":4076:4082   */\n      dup3\n        /* \"#utility.yul\":4065:4074   */\n      dup6\n        /* \"#utility.yul\":4061:4083   */\n      add\n        /* \"#utility.yul\":4040:4093   */\n      tag_659\n      jump\t// in\n    tag_768:\n        /* \"#utility.yul\":4030:4093   */\n      swap2\n      pop\n        /* \"#utility.yul\":3986:4103   */\n      pop\n        /* \"#utility.yul\":3781:4110   */\n      swap3\n      swap2\n      pop\n      pop\n      jump\t// out\n        /* \"#utility.yul\":4116:4176   */\n    tag_662:\n        /* \"#utility.yul\":4144:4147   */\n      0x00\n        /* \"#utility.yul\":4165:4170   */\n      dup2\n        /* \"#utility.yul\":4158:4170   */\n      swap1\n      pop\n        /* \"#utility.yul\":4116:4176   */\n      swap2\n      swap1\n      pop\n      jump\t// out\n        /* \"#utility.yul\":4182:4324   */\n    tag_663:\n        /* \"#utility.yul\":4232:4241   */\n      0x00\n        /* \"#utility.yul\":4265:4318   */\n      tag_771\n        /* \"#utility.yul\":4283:4317   */\n      tag_772\n        /* \"#utility.yul\":4292:4316   */\n      tag_773\n        /* \"#utility.yul\":4310:4315   */\n      dup5\n        /* \"#utility.yul\":4292:4316   */\n      tag_653\n      jump\t// in\n    tag_773:\n        /* \"#utility.yul\":4283:4317   */\n      tag_662\n      jump\t// in\n    tag_772:\n        /* \"#utility.yul\":4265:4318   */\n      tag_653\n      jump\t// in\n    tag_771:\n        /* \"#utility.yul\":4252:4318   */\n      swap1\n      pop\n        /* \"#utility.yul\":4182:4324   */\n      swap2\n      swap1\n      pop\n      jump\t// out\n        /* \"#utility.yul\":4330:4456   */\n    tag_664:\n        /* \"#utility.yul\":4380:4389   */\n      0x00\n        /* \"#utility.yul\":4413:4450   */\n      tag_775\n        /* \"#utility.yul\":4444:4449   */\n      dup3\n        /* \"#utility.yul\":4413:4450   */\n      tag_663\n      jump\t// in\n    tag_775:\n        /* \"#utility.yul\":4400:4450   */\n      swap1\n      pop\n        /* \"#utility.yul\":4330:4456   */\n      swap2\n      swap1\n      pop\n      jump\t// out\n        /* \"#utility.yul\":4462:4614   */\n    tag_665:\n        /* \"#utility.yul\":4538:4547   */\n      0x00\n        /* \"#utility.yul\":4571:4608   */\n      tag_777\n        /* \"#utility.yul\":4602:4607   */\n      dup3\n        /* \"#utility.yul\":4571:4608   */\n      tag_664\n      jump\t// in\n    tag_777:\n        /* \"#utility.yul\":4558:4608   */\n      swap1\n      pop\n        /* \"#utility.yul\":4462:4614   */\n      swap2\n      swap1\n      pop\n      jump\t// out\n        /* \"#utility.yul\":4620:4803   */\n    tag_666:\n        /* \"#utility.yul\":4733:4796   */\n      tag_779\n        /* \"#utility.yul\":4790:4795   */\n      dup2\n        /* \"#utility.yul\":4733:4796   */\n      tag_665\n      jump\t// in\n    tag_779:\n        /* \"#utility.yul\":4728:4731   */\n      dup3\n        /* \"#utility.yul\":4721:4797   */\n      mstore\n        /* \"#utility.yul\":4620:4803   */\n      pop\n      pop\n      jump\t// out\n        /* \"#utility.yul\":4809:5083   */\n    tag_84:\n        /* \"#utility.yul\":4928:4932   */\n      0x00\n        /* \"#utility.yul\":4966:4968   */\n      0x20\n        /* \"#utility.yul\":4955:4964   */\n      dup3\n        /* \"#utility.yul\":4951:4969   */\n      add\n        /* \"#utility.yul\":4943:4969   */\n      swap1\n      pop\n        /* \"#utility.yul\":4979:5076   */\n      tag_781\n        /* \"#utility.yul\":5073:5074   */\n      0x00\n        /* \"#utility.yul\":5062:5071   */\n      dup4\n        /* \"#utility.yul\":5058:5075   */\n      add\n        /* \"#utility.yul\":5049:5055   */\n      dup5\n        /* \"#utility.yul\":4979:5076   */\n      tag_666\n      jump\t// in\n    tag_781:\n        /* \"#utility.yul\":4809:5083   */\n      swap3\n      swap2\n      pop\n      pop\n      jump\t// out\n        /* \"#utility.yul\":5089:5207   */\n    tag_667:\n        /* \"#utility.yul\":5176:5200   */\n      tag_783\n        /* \"#utility.yul\":5194:5199   */\n      dup2\n        /* \"#utility.yul\":5176:5200   */\n      tag_657\n      jump\t// in\n    tag_783:\n        /* \"#utility.yul\":5171:5174   */\n      dup3\n        /* \"#utility.yul\":5164:5201   */\n      mstore\n        /* \"#utility.yul\":5089:5207   */\n      pop\n      pop\n      jump\t// out\n        /* \"#utility.yul\":5213:5435   */\n    tag_89:\n        /* \"#utility.yul\":5306:5310   */\n      0x00\n        /* \"#utility.yul\":5344:5346   */\n      0x20\n        /* \"#utility.yul\":5333:5342   */\n      dup3\n        /* \"#utility.yul\":5329:5347   */\n      add\n        /* \"#utility.yul\":5321:5347   */\n      swap1\n      pop\n        /* \"#utility.yul\":5357:5428   */\n      tag_785\n        /* \"#utility.yul\":5425:5426   */\n      0x00\n        /* \"#utility.yul\":5414:5423   */\n      dup4\n        /* \"#utility.yul\":5410:5427   */\n      add\n        /* \"#utility.yul\":5401:5407   */\n      dup5\n        /* \"#utility.yul\":5357:5428   */\n      tag_667\n      jump\t// in\n    tag_785:\n        /* \"#utility.yul\":5213:5435   */\n      swap3\n      swap2\n      pop\n      pop\n      jump\t// out\n        /* \"#utility.yul\":5441:5558   */\n    tag_668:\n        /* \"#utility.yul\":5550:5551   */\n      0x00\n        /* \"#utility.yul\":5547:5548   */\n      dup1\n        /* \"#utility.yul\":5540:5552   */\n      revert\n        /* \"#utility.yul\":5564:5681   */\n    tag_669:\n        /* \"#utility.yul\":5673:5674   */\n      0x00\n        /* \"#utility.yul\":5670:5671   */\n      dup1\n        /* \"#utility.yul\":5663:5675   */\n      revert\n        /* \"#utility.yul\":5687:5804   */\n    tag_670:\n        /* \"#utility.yul\":5796:5797   */\n      0x00\n        /* \"#utility.yul\":5793:5794   */\n      dup1\n        /* \"#utility.yul\":5786:5798   */\n      revert\n        /* \"#utility.yul\":5827:6395   */\n    tag_671:\n        /* \"#utility.yul\":5900:5908   */\n      0x00\n        /* \"#utility.yul\":5910:5916   */\n      dup1\n        /* \"#utility.yul\":5960:5963   */\n      dup4\n        /* \"#utility.yul\":5953:5957   */\n      0x1f\n        /* \"#utility.yul\":5945:5951   */\n      dup5\n        /* \"#utility.yul\":5941:5958   */\n      add\n        /* \"#utility.yul\":5937:5964   */\n      slt\n        /* \"#utility.yul\":5927:6049   */\n      tag_790\n      jumpi\n        /* \"#utility.yul\":5968:6047   */\n      tag_791\n      tag_668\n      jump\t// in\n    tag_791:\n        /* \"#utility.yul\":5927:6049   */\n    tag_790:\n        /* \"#utility.yul\":6081:6087   */\n      dup3\n        /* \"#utility.yul\":6068:6088   */\n      calldataload\n        /* \"#utility.yul\":6058:6088   */\n      swap1\n      pop\n        /* \"#utility.yul\":6111:6129   */\n      0xffffffffffffffff\n        /* \"#utility.yul\":6103:6109   */\n      dup2\n        /* \"#utility.yul\":6100:6130   */\n      gt\n        /* \"#utility.yul\":6097:6214   */\n      iszero\n      tag_792\n      jumpi\n        /* \"#utility.yul\":6133:6212   */\n      tag_793\n      tag_669\n      jump\t// in\n    tag_793:\n        /* \"#utility.yul\":6097:6214   */\n    tag_792:\n        /* \"#utility.yul\":6247:6251   */\n      0x20\n        /* \"#utility.yul\":6239:6245   */\n      dup4\n        /* \"#utility.yul\":6235:6252   */\n      add\n        /* \"#utility.yul\":6223:6252   */\n      swap2\n      pop\n        /* \"#utility.yul\":6301:6304   */\n      dup4\n        /* \"#utility.yul\":6293:6297   */\n      0x20\n        /* \"#utility.yul\":6285:6291   */\n      dup3\n        /* \"#utility.yul\":6281:6298   */\n      mul\n        /* \"#utility.yul\":6271:6279   */\n      dup4\n        /* \"#utility.yul\":6267:6299   */\n      add\n        /* \"#utility.yul\":6264:6305   */\n      gt\n        /* \"#utility.yul\":6261:6389   */\n      iszero\n      tag_794\n      jumpi\n        /* \"#utility.yul\":6308:6387   */\n      tag_795\n      tag_670\n      jump\t// in\n    tag_795:\n        /* \"#utility.yul\":6261:6389   */\n    tag_794:\n        /* \"#utility.yul\":5827:6395   */\n      swap3\n      pop\n      swap3\n      swap1\n      pop\n      jump\t// out\n        /* \"#utility.yul\":6401:6960   */\n    tag_93:\n        /* \"#utility.yul\":6487:6493   */\n      0x00\n        /* \"#utility.yul\":6495:6501   */\n      dup1\n        /* \"#utility.yul\":6544:6546   */\n      0x20\n        /* \"#utility.yul\":6532:6541   */\n      dup4\n        /* \"#utility.yul\":6523:6530   */\n      dup6\n        /* \"#utility.yul\":6519:6542   */\n      sub\n        /* \"#utility.yul\":6515:6547   */\n      slt\n        /* \"#utility.yul\":6512:6631   */\n      iszero\n      tag_797\n      jumpi\n        /* \"#utility.yul\":6550:6629   */\n      tag_798\n      tag_651\n      jump\t// in\n    tag_798:\n        /* \"#utility.yul\":6512:6631   */\n    tag_797:\n        /* \"#utility.yul\":6698:6699   */\n      0x00\n        /* \"#utility.yul\":6687:6696   */\n      dup4\n        /* \"#utility.yul\":6683:6700   */\n      add\n        /* \"#utility.yul\":6670:6701   */\n      calldataload\n        /* \"#utility.yul\":6728:6746   */\n      0xffffffffffffffff\n        /* \"#utility.yul\":6720:6726   */\n      dup2\n        /* \"#utility.yul\":6717:6747   */\n      gt\n        /* \"#utility.yul\":6714:6831   */\n      iszero\n      tag_799\n      jumpi\n        /* \"#utility.yul\":6750:6829   */\n      tag_800\n      tag_652\n      jump\t// in\n    tag_800:\n        /* \"#utility.yul\":6714:6831   */\n    tag_799:\n        /* \"#utility.yul\":6863:6943   */\n      tag_801\n        /* \"#utility.yul\":6935:6942   */\n      dup6\n        /* \"#utility.yul\":6926:6932   */\n      dup3\n        /* \"#utility.yul\":6915:6924   */\n      dup7\n        /* \"#utility.yul\":6911:6933   */\n      add\n        /* \"#utility.yul\":6863:6943   */\n      tag_671\n      jump\t// in\n    tag_801:\n        /* \"#utility.yul\":6845:6943   */\n      swap3\n      pop\n      swap3\n      pop\n        /* \"#utility.yul\":6641:6953   */\n      pop\n        /* \"#utility.yul\":6401:6960   */\n      swap3\n      pop\n      swap3\n      swap1\n      pop\n      jump\t// out\n        /* \"#utility.yul\":6966:7585   */\n    tag_103:\n        /* \"#utility.yul\":7043:7049   */\n      0x00\n        /* \"#utility.yul\":7051:7057   */\n      dup1\n        /* \"#utility.yul\":7059:7065   */\n      0x00\n        /* \"#utility.yul\":7108:7110   */\n      0x60\n        /* \"#utility.yul\":7096:7105   */\n      dup5\n        /* \"#utility.yul\":7087:7094   */\n      dup7\n        /* \"#utility.yul\":7083:7106   */\n      sub\n        /* \"#utility.yul\":7079:7111   */\n      slt\n        /* \"#utility.yul\":7076:7195   */\n      iszero\n      tag_803\n      jumpi\n        /* \"#utility.yul\":7114:7193   */\n      tag_804\n      tag_651\n      jump\t// in\n    tag_804:\n        /* \"#utility.yul\":7076:7195   */\n    tag_803:\n        /* \"#utility.yul\":7234:7235   */\n      0x00\n        /* \"#utility.yul\":7259:7312   */\n      tag_805\n        /* \"#utility.yul\":7304:7311   */\n      dup7\n        /* \"#utility.yul\":7295:7301   */\n      dup3\n        /* \"#utility.yul\":7284:7293   */\n      dup8\n        /* \"#utility.yul\":7280:7302   */\n      add\n        /* \"#utility.yul\":7259:7312   */\n      tag_656\n      jump\t// in\n    tag_805:\n        /* \"#utility.yul\":7249:7312   */\n      swap4\n      pop\n        /* \"#utility.yul\":7205:7322   */\n      pop\n        /* \"#utility.yul\":7361:7363   */\n      0x20\n        /* \"#utility.yul\":7387:7440   */\n      tag_806\n        /* \"#utility.yul\":7432:7439   */\n      dup7\n        /* \"#utility.yul\":7423:7429   */\n      dup3\n        /* \"#utility.yul\":7412:7421   */\n      dup8\n        /* \"#utility.yul\":7408:7430   */\n      add\n        /* \"#utility.yul\":7387:7440   */\n      tag_656\n      jump\t// in\n    tag_806:\n        /* \"#utility.yul\":7377:7440   */\n      swap3\n      pop\n        /* \"#utility.yul\":7332:7450   */\n      pop\n        /* \"#utility.yul\":7489:7491   */\n      0x40\n        /* \"#utility.yul\":7515:7568   */\n      tag_807\n        /* \"#utility.yul\":7560:7567   */\n      dup7\n        /* \"#utility.yul\":7551:7557   */\n      dup3\n        /* \"#utility.yul\":7540:7549   */\n      dup8\n        /* \"#utility.yul\":7536:7558   */\n      add\n        /* \"#utility.yul\":7515:7568   */\n      tag_659\n      jump\t// in\n    tag_807:\n        /* \"#utility.yul\":7505:7568   */\n      swap2\n      pop\n        /* \"#utility.yul\":7460:7578   */\n      pop\n        /* \"#utility.yul\":6966:7585   */\n      swap3\n      pop\n      swap3\n      pop\n      swap3\n      jump\t// out\n        /* \"#utility.yul\":7591:7677   */\n    tag_672:\n        /* \"#utility.yul\":7626:7633   */\n      0x00\n        /* \"#utility.yul\":7666:7670   */\n      0xff\n        /* \"#utility.yul\":7659:7664   */\n      dup3\n        /* \"#utility.yul\":7655:7671   */\n      and\n        /* \"#utility.yul\":7644:7671   */\n      swap1\n      pop\n        /* \"#utility.yul\":7591:7677   */\n      swap2\n      swap1\n      pop\n      jump\t// out\n        /* \"#utility.yul\":7683:7795   */\n    tag_673:\n        /* \"#utility.yul\":7766:7788   */\n      tag_810\n        /* \"#utility.yul\":7782:7787   */\n      dup2\n        /* \"#utility.yul\":7766:7788   */\n      tag_672\n      jump\t// in\n    tag_810:\n        /* \"#utility.yul\":7761:7764   */\n      dup3\n        /* \"#utility.yul\":7754:7789   */\n      mstore\n        /* \"#utility.yul\":7683:7795   */\n      pop\n      pop\n      jump\t// out\n        /* \"#utility.yul\":7801:8015   */\n    tag_123:\n        /* \"#utility.yul\":7890:7894   */\n      0x00\n        /* \"#utility.yul\":7928:7930   */\n      0x20\n        /* \"#utility.yul\":7917:7926   */\n      dup3\n        /* \"#utility.yul\":7913:7931   */\n      add\n        /* \"#utility.yul\":7905:7931   */\n      swap1\n      pop\n        /* \"#utility.yul\":7941:8008   */\n      tag_812\n        /* \"#utility.yul\":8005:8006   */\n      0x00\n        /* \"#utility.yul\":7994:8003   */\n      dup4\n        /* \"#utility.yul\":7990:8007   */\n      add\n        /* \"#utility.yul\":7981:7987   */\n      dup5\n        /* \"#utility.yul\":7941:8008   */\n      tag_673\n      jump\t// in\n    tag_812:\n        /* \"#utility.yul\":7801:8015   */\n      swap3\n      swap2\n      pop\n      pop\n      jump\t// out\n        /* \"#utility.yul\":8021:8139   */\n    tag_674:\n        /* \"#utility.yul\":8108:8132   */\n      tag_814\n        /* \"#utility.yul\":8126:8131   */\n      dup2\n        /* \"#utility.yul\":8108:8132   */\n      tag_654\n      jump\t// in\n    tag_814:\n        /* \"#utility.yul\":8103:8106   */\n      dup3\n        /* \"#utility.yul\":8096:8133   */\n      mstore\n        /* \"#utility.yul\":8021:8139   */\n      pop\n      pop\n      jump\t// out\n        /* \"#utility.yul\":8145:8367   */\n    tag_153:\n        /* \"#utility.yul\":8238:8242   */\n      0x00\n        /* \"#utility.yul\":8276:8278   */\n      0x20\n        /* \"#utility.yul\":8265:8274   */\n      dup3\n        /* \"#utility.yul\":8261:8279   */\n      add\n        /* \"#utility.yul\":8253:8279   */\n      swap1\n      pop\n        /* \"#utility.yul\":8289:8360   */\n      tag_816\n        /* \"#utility.yul\":8357:8358   */\n      0x00\n        /* \"#utility.yul\":8346:8355   */\n      dup4\n        /* \"#utility.yul\":8342:8359   */\n      add\n        /* \"#utility.yul\":8333:8339   */\n      dup5\n        /* \"#utility.yul\":8289:8360   */\n      tag_674\n      jump\t// in\n    tag_816:\n        /* \"#utility.yul\":8145:8367   */\n      swap3\n      swap2\n      pop\n      pop\n      jump\t// out\n        /* \"#utility.yul\":8373:8847   */\n    tag_165:\n        /* \"#utility.yul\":8441:8447   */\n      0x00\n        /* \"#utility.yul\":8449:8455   */\n      dup1\n        /* \"#utility.yul\":8498:8500   */\n      0x40\n        /* \"#utility.yul\":8486:8495   */\n      dup4\n        /* \"#utility.yul\":8477:8484   */\n      dup6\n        /* \"#utility.yul\":8473:8496   */\n      sub\n        /* \"#utility.yul\":8469:8501   */\n      slt\n        /* \"#utility.yul\":8466:8585   */\n      iszero\n      tag_818\n      jumpi\n        /* \"#utility.yul\":8504:8583   */\n      tag_819\n      tag_651\n      jump\t// in\n    tag_819:\n        /* \"#utility.yul\":8466:8585   */\n    tag_818:\n        /* \"#utility.yul\":8624:8625   */\n      0x00\n        /* \"#utility.yul\":8649:8702   */\n      tag_820\n        /* \"#utility.yul\":8694:8701   */\n      dup6\n        /* \"#utility.yul\":8685:8691   */\n      dup3\n        /* \"#utility.yul\":8674:8683   */\n      dup7\n        /* \"#utility.yul\":8670:8692   */\n      add\n        /* \"#utility.yul\":8649:8702   */\n      tag_659\n      jump\t// in\n    tag_820:\n        /* \"#utility.yul\":8639:8702   */\n      swap3\n      pop\n        /* \"#utility.yul\":8595:8712   */\n      pop\n        /* \"#utility.yul\":8751:8753   */\n      0x20\n        /* \"#utility.yul\":8777:8830   */\n      tag_821\n        /* \"#utility.yul\":8822:8829   */\n      dup6\n        /* \"#utility.yul\":8813:8819   */\n      dup3\n        /* \"#utility.yul\":8802:8811   */\n      dup7\n        /* \"#utility.yul\":8798:8820   */\n      add\n        /* \"#utility.yul\":8777:8830   */\n      tag_659\n      jump\t// in\n    tag_821:\n        /* \"#utility.yul\":8767:8830   */\n      swap2\n      pop\n        /* \"#utility.yul\":8722:8840   */\n      pop\n        /* \"#utility.yul\":8373:8847   */\n      swap3\n      pop\n      swap3\n      swap1\n      pop\n      jump\t// out\n        /* \"#utility.yul\":8853:8971   */\n    tag_675:\n        /* \"#utility.yul\":8924:8946   */\n      tag_823\n        /* \"#utility.yul\":8940:8945   */\n      dup2\n        /* \"#utility.yul\":8924:8946   */\n      tag_672\n      jump\t// in\n    tag_823:\n        /* \"#utility.yul\":8917:8922   */\n      dup2\n        /* \"#utility.yul\":8914:8947   */\n      eq\n        /* \"#utility.yul\":8904:8965   */\n      tag_824\n      jumpi\n        /* \"#utility.yul\":8961:8962   */\n      0x00\n        /* \"#utility.yul\":8958:8959   */\n      dup1\n        /* \"#utility.yul\":8951:8963   */\n      revert\n        /* \"#utility.yul\":8904:8965   */\n    tag_824:\n        /* \"#utility.yul\":8853:8971   */\n      pop\n      jump\t// out\n        /* \"#utility.yul\":8977:9112   */\n    tag_676:\n        /* \"#utility.yul\":9021:9026   */\n      0x00\n        /* \"#utility.yul\":9059:9065   */\n      dup2\n        /* \"#utility.yul\":9046:9066   */\n      calldataload\n        /* \"#utility.yul\":9037:9066   */\n      swap1\n      pop\n        /* \"#utility.yul\":9075:9106   */\n      tag_826\n        /* \"#utility.yul\":9100:9105   */\n      dup2\n        /* \"#utility.yul\":9075:9106   */\n      tag_675\n      jump\t// in\n    tag_826:\n        /* \"#utility.yul\":8977:9112   */\n      swap3\n      swap2\n      pop\n      pop\n      jump\t// out\n        /* \"#utility.yul\":9118:9443   */\n    tag_183:\n        /* \"#utility.yul\":9175:9181   */\n      0x00\n        /* \"#utility.yul\":9224:9226   */\n      0x20\n        /* \"#utility.yul\":9212:9221   */\n      dup3\n        /* \"#utility.yul\":9203:9210   */\n      dup5\n        /* \"#utility.yul\":9199:9222   */\n      sub\n        /* \"#utility.yul\":9195:9227   */\n      slt\n        /* \"#utility.yul\":9192:9311   */\n      iszero\n      tag_828\n      jumpi\n        /* \"#utility.yul\":9230:9309   */\n      tag_829\n      tag_651\n      jump\t// in\n    tag_829:\n        /* \"#utility.yul\":9192:9311   */\n    tag_828:\n        /* \"#utility.yul\":9350:9351   */\n      0x00\n        /* \"#utility.yul\":9375:9426   */\n      tag_830\n        /* \"#utility.yul\":9418:9425   */\n      dup5\n        /* \"#utility.yul\":9409:9415   */\n      dup3\n        /* \"#utility.yul\":9398:9407   */\n      dup6\n        /* \"#utility.yul\":9394:9416   */\n      add\n        /* \"#utility.yul\":9375:9426   */\n      tag_676\n      jump\t// in\n    tag_830:\n        /* \"#utility.yul\":9365:9426   */\n      swap2\n      pop\n        /* \"#utility.yul\":9321:9436   */\n      pop\n        /* \"#utility.yul\":9118:9443   */\n      swap3\n      swap2\n      pop\n      pop\n      jump\t// out\n        /* \"#utility.yul\":9449:9565   */\n    tag_677:\n        /* \"#utility.yul\":9519:9540   */\n      tag_832\n        /* \"#utility.yul\":9534:9539   */\n      dup2\n        /* \"#utility.yul\":9519:9540   */\n      tag_660\n      jump\t// in\n    tag_832:\n        /* \"#utility.yul\":9512:9517   */\n      dup2\n        /* \"#utility.yul\":9509:9541   */\n      eq\n        /* \"#utility.yul\":9499:9559   */\n      tag_833\n      jumpi\n        /* \"#utility.yul\":9555:9556   */\n      0x00\n        /* \"#utility.yul\":9552:9553   */\n      dup1\n        /* \"#utility.yul\":9545:9557   */\n      revert\n        /* \"#utility.yul\":9499:9559   */\n    tag_833:\n        /* \"#utility.yul\":9449:9565   */\n      pop\n      jump\t// out\n        /* \"#utility.yul\":9571:9704   */\n    tag_678:\n        /* \"#utility.yul\":9614:9619   */\n      0x00\n        /* \"#utility.yul\":9652:9658   */\n      dup2\n        /* \"#utility.yul\":9639:9659   */\n      calldataload\n        /* \"#utility.yul\":9630:9659   */\n      swap1\n      pop\n        /* \"#utility.yul\":9668:9698   */\n      tag_835\n        /* \"#utility.yul\":9692:9697   */\n      dup2\n        /* \"#utility.yul\":9668:9698   */\n      tag_677\n      jump\t// in\n    tag_835:\n        /* \"#utility.yul\":9571:9704   */\n      swap3\n      swap2\n      pop\n      pop\n      jump\t// out\n        /* \"#utility.yul\":9710:10033   */\n    tag_208:\n        /* \"#utility.yul\":9766:9772   */\n      0x00\n        /* \"#utility.yul\":9815:9817   */\n      0x20\n        /* \"#utility.yul\":9803:9812   */\n      dup3\n        /* \"#utility.yul\":9794:9801   */\n      dup5\n        /* \"#utility.yul\":9790:9813   */\n      sub\n        /* \"#utility.yul\":9786:9818   */\n      slt\n        /* \"#utility.yul\":9783:9902   */\n      iszero\n      tag_837\n      jumpi\n        /* \"#utility.yul\":9821:9900   */\n      tag_838\n      tag_651\n      jump\t// in\n    tag_838:\n        /* \"#utility.yul\":9783:9902   */\n    tag_837:\n        /* \"#utility.yul\":9941:9942   */\n      0x00\n        /* \"#utility.yul\":9966:10016   */\n      tag_839\n        /* \"#utility.yul\":10008:10015   */\n      dup5\n        /* \"#utility.yul\":9999:10005   */\n      dup3\n        /* \"#utility.yul\":9988:9997   */\n      dup6\n        /* \"#utility.yul\":9984:10006   */\n      add\n        /* \"#utility.yul\":9966:10016   */\n      tag_678\n      jump\t// in\n    tag_839:\n        /* \"#utility.yul\":9956:10016   */\n      swap2\n      pop\n        /* \"#utility.yul\":9912:10026   */\n      pop\n        /* \"#utility.yul\":9710:10033   */\n      swap3\n      swap2\n      pop\n      pop\n      jump\t// out\n        /* \"#utility.yul\":10039:10513   */\n    tag_247:\n        /* \"#utility.yul\":10107:10113   */\n      0x00\n        /* \"#utility.yul\":10115:10121   */\n      dup1\n        /* \"#utility.yul\":10164:10166   */\n      0x40\n        /* \"#utility.yul\":10152:10161   */\n      dup4\n        /* \"#utility.yul\":10143:10150   */\n      dup6\n        /* \"#utility.yul\":10139:10162   */\n      sub\n        /* \"#utility.yul\":10135:10167   */\n      slt\n        /* \"#utility.yul\":10132:10251   */\n      iszero\n      tag_841\n      jumpi\n        /* \"#utility.yul\":10170:10249   */\n      tag_842\n      tag_651\n      jump\t// in\n    tag_842:\n        /* \"#utility.yul\":10132:10251   */\n    tag_841:\n        /* \"#utility.yul\":10290:10291   */\n      0x00\n        /* \"#utility.yul\":10315:10368   */\n      tag_843\n        /* \"#utility.yul\":10360:10367   */\n      dup6\n        /* \"#utility.yul\":10351:10357   */\n      dup3\n        /* \"#utility.yul\":10340:10349   */\n      dup7\n        /* \"#utility.yul\":10336:10358   */\n      add\n        /* \"#utility.yul\":10315:10368   */\n      tag_656\n      jump\t// in\n    tag_843:\n        /* \"#utility.yul\":10305:10368   */\n      swap3\n      pop\n        /* \"#utility.yul\":10261:10378   */\n      pop\n        /* \"#utility.yul\":10417:10419   */\n      0x20\n        /* \"#utility.yul\":10443:10496   */\n      tag_844\n        /* \"#utility.yul\":10488:10495   */\n      dup6\n        /* \"#utility.yul\":10479:10485   */\n      dup3\n        /* \"#utility.yul\":10468:10477   */\n      dup7\n        /* \"#utility.yul\":10464:10486   */\n      add\n        /* \"#utility.yul\":10443:10496   */\n      tag_656\n      jump\t// in\n    tag_844:\n        /* \"#utility.yul\":10433:10496   */\n      swap2\n      pop\n        /* \"#utility.yul\":10388:10506   */\n      pop\n        /* \"#utility.yul\":10039:10513   */\n      swap3\n      pop\n      swap3\n      swap1\n      pop\n      jump\t// out\n        /* \"#utility.yul\":10519:10623   */\n    tag_679:\n        /* \"#utility.yul\":10564:10571   */\n      0x00\n        /* \"#utility.yul\":10593:10617   */\n      tag_846\n        /* \"#utility.yul\":10611:10616   */\n      dup3\n        /* \"#utility.yul\":10593:10617   */\n      tag_653\n      jump\t// in\n    tag_846:\n        /* \"#utility.yul\":10582:10617   */\n      swap1\n      pop\n        /* \"#utility.yul\":10519:10623   */\n      swap2\n      swap1\n      pop\n      jump\t// out\n        /* \"#utility.yul\":10629:10767   */\n    tag_680:\n        /* \"#utility.yul\":10710:10742   */\n      tag_848\n        /* \"#utility.yul\":10736:10741   */\n      dup2\n        /* \"#utility.yul\":10710:10742   */\n      tag_679\n      jump\t// in\n    tag_848:\n        /* \"#utility.yul\":10703:10708   */\n      dup2\n        /* \"#utility.yul\":10700:10743   */\n      eq\n        /* \"#utility.yul\":10690:10761   */\n      tag_849\n      jumpi\n        /* \"#utility.yul\":10757:10758   */\n      0x00\n        /* \"#utility.yul\":10754:10755   */\n      dup1\n        /* \"#utility.yul\":10747:10759   */\n      revert\n        /* \"#utility.yul\":10690:10761   */\n    tag_849:\n        /* \"#utility.yul\":10629:10767   */\n      pop\n      jump\t// out\n        /* \"#utility.yul\":10773:10928   */\n    tag_681:\n        /* \"#utility.yul\":10827:10832   */\n      0x00\n        /* \"#utility.yul\":10865:10871   */\n      dup2\n        /* \"#utility.yul\":10852:10872   */\n      calldataload\n        /* \"#utility.yul\":10843:10872   */\n      swap1\n      pop\n        /* \"#utility.yul\":10881:10922   */\n      tag_851\n        /* \"#utility.yul\":10916:10921   */\n      dup2\n        /* \"#utility.yul\":10881:10922   */\n      tag_680\n      jump\t// in\n    tag_851:\n        /* \"#utility.yul\":10773:10928   */\n      swap3\n      swap2\n      pop\n      pop\n      jump\t// out\n        /* \"#utility.yul\":10934:11279   */\n    tag_261:\n        /* \"#utility.yul\":11001:11007   */\n      0x00\n        /* \"#utility.yul\":11050:11052   */\n      0x20\n        /* \"#utility.yul\":11038:11047   */\n      dup3\n        /* \"#utility.yul\":11029:11036   */\n      dup5\n        /* \"#utility.yul\":11025:11048   */\n      sub\n        /* \"#utility.yul\":11021:11053   */\n      slt\n        /* \"#utility.yul\":11018:11137   */\n      iszero\n      tag_853\n      jumpi\n        /* \"#utility.yul\":11056:11135   */\n      tag_854\n      tag_651\n      jump\t// in\n    tag_854:\n        /* \"#utility.yul\":11018:11137   */\n    tag_853:\n        /* \"#utility.yul\":11176:11177   */\n      0x00\n        /* \"#utility.yul\":11201:11262   */\n      tag_855\n        /* \"#utility.yul\":11254:11261   */\n      dup5\n        /* \"#utility.yul\":11245:11251   */\n      dup3\n        /* \"#utility.yul\":11234:11243   */\n      dup6\n        /* \"#utility.yul\":11230:11252   */\n      add\n        /* \"#utility.yul\":11201:11262   */\n      tag_681\n      jump\t// in\n    tag_855:\n        /* \"#utility.yul\":11191:11262   */\n      swap2\n      pop\n        /* \"#utility.yul\":11147:11272   */\n      pop\n        /* \"#utility.yul\":10934:11279   */\n      swap3\n      swap2\n      pop\n      pop\n      jump\t// out\n        /* \"#utility.yul\":11285:11467   */\n    tag_682:\n        /* \"#utility.yul\":11425:11459   */\n      0x4f776e61626c653a2063616c6c6572206973206e6f7420746865206f776e6572\n        /* \"#utility.yul\":11421:11422   */\n      0x00\n        /* \"#utility.yul\":11413:11419   */\n      dup3\n        /* \"#utility.yul\":11409:11423   */\n      add\n        /* \"#utility.yul\":11402:11460   */\n      mstore\n        /* \"#utility.yul\":11285:11467   */\n      pop\n      jump\t// out\n        /* \"#utility.yul\":11473:11839   */\n    tag_683:\n        /* \"#utility.yul\":11615:11618   */\n      0x00\n        /* \"#utility.yul\":11636:11703   */\n      tag_858\n        /* \"#utility.yul\":11700:11702   */\n      0x20\n        /* \"#utility.yul\":11695:11698   */\n      dup4\n        /* \"#utility.yul\":11636:11703   */\n      tag_646\n      jump\t// in\n    tag_858:\n        /* \"#utility.yul\":11629:11703   */\n      swap2\n      pop\n        /* \"#utility.yul\":11712:11805   */\n      tag_859\n        /* \"#utility.yul\":11801:11804   */\n      dup3\n        /* \"#utility.yul\":11712:11805   */\n      tag_682\n      jump\t// in\n    tag_859:\n        /* \"#utility.yul\":11830:11832   */\n      0x20\n        /* \"#utility.yul\":11825:11828   */\n      dup3\n        /* \"#utility.yul\":11821:11833   */\n      add\n        /* \"#utility.yul\":11814:11833   */\n      swap1\n      pop\n        /* \"#utility.yul\":11473:11839   */\n      swap2\n      swap1\n      pop\n      jump\t// out\n        /* \"#utility.yul\":11845:12264   */\n    tag_280:\n        /* \"#utility.yul\":12011:12015   */\n      0x00\n        /* \"#utility.yul\":12049:12051   */\n      0x20\n        /* \"#utility.yul\":12038:12047   */\n      dup3\n        /* \"#utility.yul\":12034:12052   */\n      add\n        /* \"#utility.yul\":12026:12052   */\n      swap1\n      pop\n        /* \"#utility.yul\":12098:12107   */\n      dup2\n        /* \"#utility.yul\":12092:12096   */\n      dup2\n        /* \"#utility.yul\":12088:12108   */\n      sub\n        /* \"#utility.yul\":12084:12085   */\n      0x00\n        /* \"#utility.yul\":12073:12082   */\n      dup4\n        /* \"#utility.yul\":12069:12086   */\n      add\n        /* \"#utility.yul\":12062:12109   */\n      mstore\n        /* \"#utility.yul\":12126:12257   */\n      tag_861\n        /* \"#utility.yul\":12252:12256   */\n      dup2\n        /* \"#utility.yul\":12126:12257   */\n      tag_683\n      jump\t// in\n    tag_861:\n        /* \"#utility.yul\":12118:12257   */\n      swap1\n      pop\n        /* \"#utility.yul\":11845:12264   */\n      swap2\n      swap1\n      pop\n      jump\t// out\n        /* \"#utility.yul\":12270:12437   */\n    tag_684:\n        /* \"#utility.yul\":12410:12429   */\n      0x4552523a207a65726f2061646472657373000000000000000000000000000000\n        /* \"#utility.yul\":12406:12407   */\n      0x00\n        /* \"#utility.yul\":12398:12404   */\n      dup3\n        /* \"#utility.yul\":12394:12408   */\n      add\n        /* \"#utility.yul\":12387:12430   */\n      mstore\n        /* \"#utility.yul\":12270:12437   */\n      pop\n      jump\t// out\n        /* \"#utility.yul\":12443:12809   */\n    tag_685:\n        /* \"#utility.yul\":12585:12588   */\n      0x00\n        /* \"#utility.yul\":12606:12673   */\n      tag_864\n        /* \"#utility.yul\":12670:12672   */\n      0x11\n        /* \"#utility.yul\":12665:12668   */\n      dup4\n        /* \"#utility.yul\":12606:12673   */\n      tag_646\n      jump\t// in\n    tag_864:\n        /* \"#utility.yul\":12599:12673   */\n      swap2\n      pop\n        /* \"#utility.yul\":12682:12775   */\n      tag_865\n        /* \"#utility.yul\":12771:12774   */\n      dup3\n        /* \"#utility.yul\":12682:12775   */\n      tag_684\n      jump\t// in\n    tag_865:\n        /* \"#utility.yul\":12800:12802   */\n      0x20\n        /* \"#utility.yul\":12795:12798   */\n      dup3\n        /* \"#utility.yul\":12791:12803   */\n      add\n        /* \"#utility.yul\":12784:12803   */\n      swap1\n      pop\n        /* \"#utility.yul\":12443:12809   */\n      swap2\n      swap1\n      pop\n      jump\t// out\n        /* \"#utility.yul\":12815:13234   */\n    tag_284:\n        /* \"#utility.yul\":12981:12985   */\n      0x00\n        /* \"#utility.yul\":13019:13021   */\n      0x20\n        /* \"#utility.yul\":13008:13017   */\n      dup3\n        /* \"#utility.yul\":13004:13022   */\n      add\n        /* \"#utility.yul\":12996:13022   */\n      swap1\n      pop\n        /* \"#utility.yul\":13068:13077   */\n      dup2\n        /* \"#utility.yul\":13062:13066   */\n      dup2\n        /* \"#utility.yul\":13058:13078   */\n      sub\n        /* \"#utility.yul\":13054:13055   */\n      0x00\n        /* \"#utility.yul\":13043:13052   */\n      dup4\n        /* \"#utility.yul\":13039:13056   */\n      add\n        /* \"#utility.yul\":13032:13079   */\n      mstore\n        /* \"#utility.yul\":13096:13227   */\n      tag_867\n        /* \"#utility.yul\":13222:13226   */\n      dup2\n        /* \"#utility.yul\":13096:13227   */\n      tag_685\n      jump\t// in\n    tag_867:\n        /* \"#utility.yul\":13088:13227   */\n      swap1\n      pop\n        /* \"#utility.yul\":12815:13234   */\n      swap2\n      swap1\n      pop\n      jump\t// out\n        /* \"#utility.yul\":13240:13383   */\n    tag_686:\n        /* \"#utility.yul\":13297:13302   */\n      0x00\n        /* \"#utility.yul\":13328:13334   */\n      dup2\n        /* \"#utility.yul\":13322:13335   */\n      mload\n        /* \"#utility.yul\":13313:13335   */\n      swap1\n      pop\n        /* \"#utility.yul\":13344:13377   */\n      tag_869\n        /* \"#utility.yul\":13371:13376   */\n      dup2\n        /* \"#utility.yul\":13344:13377   */\n      tag_655\n      jump\t// in\n    tag_869:\n        /* \"#utility.yul\":13240:13383   */\n      swap3\n      swap2\n      pop\n      pop\n      jump\t// out\n        /* \"#utility.yul\":13389:13740   */\n    tag_288:\n        /* \"#utility.yul\":13459:13465   */\n      0x00\n        /* \"#utility.yul\":13508:13510   */\n      0x20\n        /* \"#utility.yul\":13496:13505   */\n      dup3\n        /* \"#utility.yul\":13487:13494   */\n      dup5\n        /* \"#utility.yul\":13483:13506   */\n      sub\n        /* \"#utility.yul\":13479:13511   */\n      slt\n        /* \"#utility.yul\":13476:13595   */\n      iszero\n      tag_871\n      jumpi\n        /* \"#utility.yul\":13514:13593   */\n      tag_872\n      tag_651\n      jump\t// in\n    tag_872:\n        /* \"#utility.yul\":13476:13595   */\n    tag_871:\n        /* \"#utility.yul\":13634:13635   */\n      0x00\n        /* \"#utility.yul\":13659:13723   */\n      tag_873\n        /* \"#utility.yul\":13715:13722   */\n      dup5\n        /* \"#utility.yul\":13706:13712   */\n      dup3\n        /* \"#utility.yul\":13695:13704   */\n      dup6\n        /* \"#utility.yul\":13691:13713   */\n      add\n        /* \"#utility.yul\":13659:13723   */\n      tag_686\n      jump\t// in\n    tag_873:\n        /* \"#utility.yul\":13649:13723   */\n      swap2\n      pop\n        /* \"#utility.yul\":13605:13733   */\n      pop\n        /* \"#utility.yul\":13389:13740   */\n      swap3\n      swap2\n      pop\n      pop\n      jump\t// out\n        /* \"#utility.yul\":13746:14078   */\n    tag_293:\n        /* \"#utility.yul\":13867:13871   */\n      0x00\n        /* \"#utility.yul\":13905:13907   */\n      0x40\n        /* \"#utility.yul\":13894:13903   */\n      dup3\n        /* \"#utility.yul\":13890:13908   */\n      add\n        /* \"#utility.yul\":13882:13908   */\n      swap1\n      pop\n        /* \"#utility.yul\":13918:13989   */\n      tag_875\n        /* \"#utility.yul\":13986:13987   */\n      0x00\n        /* \"#utility.yul\":13975:13984   */\n      dup4\n        /* \"#utility.yul\":13971:13988   */\n      add\n        /* \"#utility.yul\":13962:13968   */\n      dup6\n        /* \"#utility.yul\":13918:13989   */\n      tag_674\n      jump\t// in\n    tag_875:\n        /* \"#utility.yul\":13999:14071   */\n      tag_876\n        /* \"#utility.yul\":14067:14069   */\n      0x20\n        /* \"#utility.yul\":14056:14065   */\n      dup4\n        /* \"#utility.yul\":14052:14070   */\n      add\n        /* \"#utility.yul\":14043:14049   */\n      dup5\n        /* \"#utility.yul\":13999:14071   */\n      tag_674\n      jump\t// in\n    tag_876:\n        /* \"#utility.yul\":13746:14078   */\n      swap4\n      swap3\n      pop\n      pop\n      pop\n      jump\t// out\n        /* \"#utility.yul\":14084:14264   */\n    tag_687:\n        /* \"#utility.yul\":14132:14209   */\n      0x4e487b7100000000000000000000000000000000000000000000000000000000\n        /* \"#utility.yul\":14129:14130   */\n      0x00\n        /* \"#utility.yul\":14122:14210   */\n      mstore\n        /* \"#utility.yul\":14229:14233   */\n      0x11\n        /* \"#utility.yul\":14226:14227   */\n      0x04\n        /* \"#utility.yul\":14219:14234   */\n      mstore\n        /* \"#utility.yul\":14253:14257   */\n      0x24\n        /* \"#utility.yul\":14250:14251   */\n      0x00\n        /* \"#utility.yul\":14243:14258   */\n      revert\n        /* \"#utility.yul\":14270:14680   */\n    tag_304:\n        /* \"#utility.yul\":14310:14317   */\n      0x00\n        /* \"#utility.yul\":14333:14353   */\n      tag_879\n        /* \"#utility.yul\":14351:14352   */\n      dup3\n        /* \"#utility.yul\":14333:14353   */\n      tag_657\n      jump\t// in\n    tag_879:\n        /* \"#utility.yul\":14328:14353   */\n      swap2\n      pop\n        /* \"#utility.yul\":14367:14387   */\n      tag_880\n        /* \"#utility.yul\":14385:14386   */\n      dup4\n        /* \"#utility.yul\":14367:14387   */\n      tag_657\n      jump\t// in\n    tag_880:\n        /* \"#utility.yul\":14362:14387   */\n      swap3\n      pop\n        /* \"#utility.yul\":14422:14423   */\n      dup3\n        /* \"#utility.yul\":14419:14420   */\n      dup3\n        /* \"#utility.yul\":14415:14424   */\n      mul\n        /* \"#utility.yul\":14444:14474   */\n      tag_881\n        /* \"#utility.yul\":14462:14473   */\n      dup2\n        /* \"#utility.yul\":14444:14474   */\n      tag_657\n      jump\t// in\n    tag_881:\n        /* \"#utility.yul\":14433:14474   */\n      swap2\n      pop\n        /* \"#utility.yul\":14623:14624   */\n      dup3\n        /* \"#utility.yul\":14614:14621   */\n      dup3\n        /* \"#utility.yul\":14610:14625   */\n      div\n        /* \"#utility.yul\":14607:14608   */\n      dup5\n        /* \"#utility.yul\":14604:14626   */\n      eq\n        /* \"#utility.yul\":14584:14585   */\n      dup4\n        /* \"#utility.yul\":14577:14586   */\n      iszero\n        /* \"#utility.yul\":14557:14640   */\n      or\n        /* \"#utility.yul\":14534:14673   */\n      tag_882\n      jumpi\n        /* \"#utility.yul\":14653:14671   */\n      tag_883\n      tag_687\n      jump\t// in\n    tag_883:\n        /* \"#utility.yul\":14534:14673   */\n    tag_882:\n        /* \"#utility.yul\":14318:14680   */\n      pop\n        /* \"#utility.yul\":14270:14680   */\n      swap3\n      swap2\n      pop\n      pop\n      jump\t// out\n        /* \"#utility.yul\":14686:14866   */\n    tag_688:\n        /* \"#utility.yul\":14734:14811   */\n      0x4e487b7100000000000000000000000000000000000000000000000000000000\n        /* \"#utility.yul\":14731:14732   */\n      0x00\n        /* \"#utility.yul\":14724:14812   */\n      mstore\n        /* \"#utility.yul\":14831:14835   */\n      0x12\n        /* \"#utility.yul\":14828:14829   */\n      0x04\n        /* \"#utility.yul\":14821:14836   */\n      mstore\n        /* \"#utility.yul\":14855:14859   */\n      0x24\n        /* \"#utility.yul\":14852:14853   */\n      0x00\n        /* \"#utility.yul\":14845:14860   */\n      revert\n        /* \"#utility.yul\":14872:15057   */\n    tag_306:\n        /* \"#utility.yul\":14912:14913   */\n      0x00\n        /* \"#utility.yul\":14929:14949   */\n      tag_886\n        /* \"#utility.yul\":14947:14948   */\n      dup3\n        /* \"#utility.yul\":14929:14949   */\n      tag_657\n      jump\t// in\n    tag_886:\n        /* \"#utility.yul\":14924:14949   */\n      swap2\n      pop\n        /* \"#utility.yul\":14963:14983   */\n      tag_887\n        /* \"#utility.yul\":14981:14982   */\n      dup4\n        /* \"#utility.yul\":14963:14983   */\n      tag_657\n      jump\t// in\n    tag_887:\n        /* \"#utility.yul\":14958:14983   */\n      swap3\n      pop\n        /* \"#utility.yul\":15002:15003   */\n      dup3\n        /* \"#utility.yul\":14992:15027   */\n      tag_888\n      jumpi\n        /* \"#utility.yul\":15007:15025   */\n      tag_889\n      tag_688\n      jump\t// in\n    tag_889:\n        /* \"#utility.yul\":14992:15027   */\n    tag_888:\n        /* \"#utility.yul\":15049:15050   */\n      dup3\n        /* \"#utility.yul\":15046:15047   */\n      dup3\n        /* \"#utility.yul\":15042:15051   */\n      div\n        /* \"#utility.yul\":15037:15051   */\n      swap1\n      pop\n        /* \"#utility.yul\":14872:15057   */\n      swap3\n      swap2\n      pop\n      pop\n      jump\t// out\n        /* \"#utility.yul\":15063:15243   */\n    tag_320:\n        /* \"#utility.yul\":15111:15188   */\n      0x4e487b7100000000000000000000000000000000000000000000000000000000\n        /* \"#utility.yul\":15108:15109   */\n      0x00\n        /* \"#utility.yul\":15101:15189   */\n      mstore\n        /* \"#utility.yul\":15208:15212   */\n      0x32\n        /* \"#utility.yul\":15205:15206   */\n      0x04\n        /* \"#utility.yul\":15198:15213   */\n      mstore\n        /* \"#utility.yul\":15232:15236   */\n      0x24\n        /* \"#utility.yul\":15229:15230   */\n      0x00\n        /* \"#utility.yul\":15222:15237   */\n      revert\n        /* \"#utility.yul\":15249:15443   */\n    tag_327:\n        /* \"#utility.yul\":15289:15293   */\n      0x00\n        /* \"#utility.yul\":15309:15329   */\n      tag_892\n        /* \"#utility.yul\":15327:15328   */\n      dup3\n        /* \"#utility.yul\":15309:15329   */\n      tag_657\n      jump\t// in\n    tag_892:\n        /* \"#utility.yul\":15304:15329   */\n      swap2\n      pop\n        /* \"#utility.yul\":15343:15363   */\n      tag_893\n        /* \"#utility.yul\":15361:15362   */\n      dup4\n        /* \"#utility.yul\":15343:15363   */\n      tag_657\n      jump\t// in\n    tag_893:\n        /* \"#utility.yul\":15338:15363   */\n      swap3\n      pop\n        /* \"#utility.yul\":15387:15388   */\n      dup3\n        /* \"#utility.yul\":15384:15385   */\n      dup3\n        /* \"#utility.yul\":15380:15389   */\n      sub\n        /* \"#utility.yul\":15372:15389   */\n      swap1\n      pop\n        /* \"#utility.yul\":15411:15412   */\n      dup2\n        /* \"#utility.yul\":15405:15409   */\n      dup2\n        /* \"#utility.yul\":15402:15413   */\n      gt\n        /* \"#utility.yul\":15399:15436   */\n      iszero\n      tag_894\n      jumpi\n        /* \"#utility.yul\":15416:15434   */\n      tag_895\n      tag_687\n      jump\t// in\n    tag_895:\n        /* \"#utility.yul\":15399:15436   */\n    tag_894:\n        /* \"#utility.yul\":15249:15443   */\n      swap3\n      swap2\n      pop\n      pop\n      jump\t// out\n        /* \"#utility.yul\":15449:15682   */\n    tag_329:\n        /* \"#utility.yul\":15488:15491   */\n      0x00\n        /* \"#utility.yul\":15511:15535   */\n      tag_897\n        /* \"#utility.yul\":15529:15534   */\n      dup3\n        /* \"#utility.yul\":15511:15535   */\n      tag_657\n      jump\t// in\n    tag_897:\n        /* \"#utility.yul\":15502:15535   */\n      swap2\n      pop\n        /* \"#utility.yul\":15557:15623   */\n      0xffffffffffffffffffffffffffffffffffffffffffffffffffffffffffffffff\n        /* \"#utility.yul\":15550:15555   */\n      dup3\n        /* \"#utility.yul\":15547:15624   */\n      sub\n        /* \"#utility.yul\":15544:15647   */\n      tag_898\n      jumpi\n        /* \"#utility.yul\":15627:15645   */\n      tag_899\n      tag_687\n      jump\t// in\n    tag_899:\n        /* \"#utility.yul\":15544:15647   */\n    tag_898:\n        /* \"#utility.yul\":15674:15675   */\n      0x01\n        /* \"#utility.yul\":15667:15672   */\n      dup3\n        /* \"#utility.yul\":15663:15676   */\n      add\n        /* \"#utility.yul\":15656:15676   */\n      swap1\n      pop\n        /* \"#utility.yul\":15449:15682   */\n      swap2\n      swap1\n      pop\n      jump\t// out\n        /* \"#utility.yul\":15688:15865   */\n    tag_689:\n        /* \"#utility.yul\":15828:15857   */\n      0x43616e206e6f742072656d6f7665206e617469766520746f6b656e0000000000\n        /* \"#utility.yul\":15824:15825   */\n      0x00\n        /* \"#utility.yul\":15816:15822   */\n      dup3\n        /* \"#utility.yul\":15812:15826   */\n      add\n        /* \"#utility.yul\":15805:15858   */\n      mstore\n        /* \"#utility.yul\":15688:15865   */\n      pop\n      jump\t// out\n        /* \"#utility.yul\":15871:16237   */\n    tag_690:\n        /* \"#utility.yul\":16013:16016   */\n      0x00\n        /* \"#utility.yul\":16034:16101   */\n      tag_902\n        /* \"#utility.yul\":16098:16100   */\n      0x1b\n        /* \"#utility.yul\":16093:16096   */\n      dup4\n        /* \"#utility.yul\":16034:16101   */\n      tag_646\n      jump\t// in\n    tag_902:\n        /* \"#utility.yul\":16027:16101   */\n      swap2\n      pop\n        /* \"#utility.yul\":16110:16203   */\n      tag_903\n        /* \"#utility.yul\":16199:16202   */\n      dup3\n        /* \"#utility.yul\":16110:16203   */\n      tag_689\n      jump\t// in\n    tag_903:\n        /* \"#utility.yul\":16228:16230   */\n      0x20\n        /* \"#utility.yul\":16223:16226   */\n      dup3\n        /* \"#utility.yul\":16219:16231   */\n      add\n        /* \"#utility.yul\":16212:16231   */\n      swap1\n      pop\n        /* \"#utility.yul\":15871:16237   */\n      swap2\n      swap1\n      pop\n      jump\t// out\n        /* \"#utility.yul\":16243:16662   */\n    tag_349:\n        /* \"#utility.yul\":16409:16413   */\n      0x00\n        /* \"#utility.yul\":16447:16449   */\n      0x20\n        /* \"#utility.yul\":16436:16445   */\n      dup3\n        /* \"#utility.yul\":16432:16450   */\n      add\n        /* \"#utility.yul\":16424:16450   */\n      swap1\n      pop\n        /* \"#utility.yul\":16496:16505   */\n      dup2\n        /* \"#utility.yul\":16490:16494   */\n      dup2\n        /* \"#utility.yul\":16486:16506   */\n      sub\n        /* \"#utility.yul\":16482:16483   */\n      0x00\n        /* \"#utility.yul\":16471:16480   */\n      dup4\n        /* \"#utility.yul\":16467:16484   */\n      add\n        /* \"#utility.yul\":16460:16507   */\n      mstore\n        /* \"#utility.yul\":16524:16655   */\n      tag_905\n        /* \"#utility.yul\":16650:16654   */\n      dup2\n        /* \"#utility.yul\":16524:16655   */\n      tag_690\n      jump\t// in\n    tag_905:\n        /* \"#utility.yul\":16516:16655   */\n      swap1\n      pop\n        /* \"#utility.yul\":16243:16662   */\n      swap2\n      swap1\n      pop\n      jump\t// out\n        /* \"#utility.yul\":16668:16811   */\n    tag_691:\n        /* \"#utility.yul\":16725:16730   */\n      0x00\n        /* \"#utility.yul\":16756:16762   */\n      dup2\n        /* \"#utility.yul\":16750:16763   */\n      mload\n        /* \"#utility.yul\":16741:16763   */\n      swap1\n      pop\n        /* \"#utility.yul\":16772:16805   */\n      tag_907\n        /* \"#utility.yul\":16799:16804   */\n      dup2\n        /* \"#utility.yul\":16772:16805   */\n      tag_658\n      jump\t// in\n    tag_907:\n        /* \"#utility.yul\":16668:16811   */\n      swap3\n      swap2\n      pop\n      pop\n      jump\t// out\n        /* \"#utility.yul\":16817:17168   */\n    tag_354:\n        /* \"#utility.yul\":16887:16893   */\n      0x00\n        /* \"#utility.yul\":16936:16938   */\n      0x20\n        /* \"#utility.yul\":16924:16933   */\n      dup3\n        /* \"#utility.yul\":16915:16922   */\n      dup5\n        /* \"#utility.yul\":16911:16934   */\n      sub\n        /* \"#utility.yul\":16907:16939   */\n      slt\n        /* \"#utility.yul\":16904:17023   */\n      iszero\n      tag_909\n      jumpi\n        /* \"#utility.yul\":16942:17021   */\n      tag_910\n      tag_651\n      jump\t// in\n    tag_910:\n        /* \"#utility.yul\":16904:17023   */\n    tag_909:\n        /* \"#utility.yul\":17062:17063   */\n      0x00\n        /* \"#utility.yul\":17087:17151   */\n      tag_911\n        /* \"#utility.yul\":17143:17150   */\n      dup5\n        /* \"#utility.yul\":17134:17140   */\n      dup3\n        /* \"#utility.yul\":17123:17132   */\n      dup6\n        /* \"#utility.yul\":17119:17141   */\n      add\n        /* \"#utility.yul\":17087:17151   */\n      tag_691\n      jump\t// in\n    tag_911:\n        /* \"#utility.yul\":17077:17151   */\n      swap2\n      pop\n        /* \"#utility.yul\":17033:17161   */\n      pop\n        /* \"#utility.yul\":16817:17168   */\n      swap3\n      swap2\n      pop\n      pop\n      jump\t// out\n        /* \"#utility.yul\":17174:17506   */\n    tag_357:\n        /* \"#utility.yul\":17295:17299   */\n      0x00\n        /* \"#utility.yul\":17333:17335   */\n      0x40\n        /* \"#utility.yul\":17322:17331   */\n      dup3\n        /* \"#utility.yul\":17318:17336   */\n      add\n        /* \"#utility.yul\":17310:17336   */\n      swap1\n      pop\n        /* \"#utility.yul\":17346:17417   */\n      tag_913\n        /* \"#utility.yul\":17414:17415   */\n      0x00\n        /* \"#utility.yul\":17403:17412   */\n      dup4\n        /* \"#utility.yul\":17399:17416   */\n      add\n        /* \"#utility.yul\":17390:17396   */\n      dup6\n        /* \"#utility.yul\":17346:17417   */\n      tag_674\n      jump\t// in\n    tag_913:\n        /* \"#utility.yul\":17427:17499   */\n      tag_914\n        /* \"#utility.yul\":17495:17497   */\n      0x20\n        /* \"#utility.yul\":17484:17493   */\n      dup4\n        /* \"#utility.yul\":17480:17498   */\n      add\n        /* \"#utility.yul\":17471:17477   */\n      dup5\n        /* \"#utility.yul\":17427:17499   */\n      tag_667\n      jump\t// in\n    tag_914:\n        /* \"#utility.yul\":17174:17506   */\n      swap4\n      swap3\n      pop\n      pop\n      pop\n      jump\t// out\n        /* \"#utility.yul\":17512:17649   */\n    tag_692:\n        /* \"#utility.yul\":17566:17571   */\n      0x00\n        /* \"#utility.yul\":17597:17603   */\n      dup2\n        /* \"#utility.yul\":17591:17604   */\n      mload\n        /* \"#utility.yul\":17582:17604   */\n      swap1\n      pop\n        /* \"#utility.yul\":17613:17643   */\n      tag_916\n        /* \"#utility.yul\":17637:17642   */\n      dup2\n        /* \"#utility.yul\":17613:17643   */\n      tag_677\n      jump\t// in\n    tag_916:\n        /* \"#utility.yul\":17512:17649   */\n      swap3\n      swap2\n      pop\n      pop\n      jump\t// out\n        /* \"#utility.yul\":17655:18000   */\n    tag_361:\n        /* \"#utility.yul\":17722:17728   */\n      0x00\n        /* \"#utility.yul\":17771:17773   */\n      0x20\n        /* \"#utility.yul\":17759:17768   */\n      dup3\n        /* \"#utility.yul\":17750:17757   */\n      dup5\n        /* \"#utility.yul\":17746:17769   */\n      sub\n        /* \"#utility.yul\":17742:17774   */\n      slt\n        /* \"#utility.yul\":17739:17858   */\n      iszero\n      tag_918\n      jumpi\n        /* \"#utility.yul\":17777:17856   */\n      tag_919\n      tag_651\n      jump\t// in\n    tag_919:\n        /* \"#utility.yul\":17739:17858   */\n    tag_918:\n        /* \"#utility.yul\":17897:17898   */\n      0x00\n        /* \"#utility.yul\":17922:17983   */\n      tag_920\n        /* \"#utility.yul\":17975:17982   */\n      dup5\n        /* \"#utility.yul\":17966:17972   */\n      dup3\n        /* \"#utility.yul\":17955:17964   */\n      dup6\n        /* \"#utility.yul\":17951:17973   */\n      add\n        /* \"#utility.yul\":17922:17983   */\n      tag_692\n      jump\t// in\n    tag_920:\n        /* \"#utility.yul\":17912:17983   */\n      swap2\n      pop\n        /* \"#utility.yul\":17868:17993   */\n      pop\n        /* \"#utility.yul\":17655:18000   */\n      swap3\n      swap2\n      pop\n      pop\n      jump\t// out\n        /* \"#utility.yul\":18006:18197   */\n    tag_411:\n        /* \"#utility.yul\":18046:18049   */\n      0x00\n        /* \"#utility.yul\":18065:18085   */\n      tag_922\n        /* \"#utility.yul\":18083:18084   */\n      dup3\n        /* \"#utility.yul\":18065:18085   */\n      tag_657\n      jump\t// in\n    tag_922:\n        /* \"#utility.yul\":18060:18085   */\n      swap2\n      pop\n        /* \"#utility.yul\":18099:18119   */\n      tag_923\n        /* \"#utility.yul\":18117:18118   */\n      dup4\n        /* \"#utility.yul\":18099:18119   */\n      tag_657\n      jump\t// in\n    tag_923:\n        /* \"#utility.yul\":18094:18119   */\n      swap3\n      pop\n        /* \"#utility.yul\":18142:18143   */\n      dup3\n        /* \"#utility.yul\":18139:18140   */\n      dup3\n        /* \"#utility.yul\":18135:18144   */\n      add\n        /* \"#utility.yul\":18128:18144   */\n      swap1\n      pop\n        /* \"#utility.yul\":18163:18166   */\n      dup1\n        /* \"#utility.yul\":18160:18161   */\n      dup3\n        /* \"#utility.yul\":18157:18167   */\n      gt\n        /* \"#utility.yul\":18154:18190   */\n      iszero\n      tag_924\n      jumpi\n        /* \"#utility.yul\":18170:18188   */\n      tag_925\n      tag_687\n      jump\t// in\n    tag_925:\n        /* \"#utility.yul\":18154:18190   */\n    tag_924:\n        /* \"#utility.yul\":18006:18197   */\n      swap3\n      swap2\n      pop\n      pop\n      jump\t// out\n        /* \"#utility.yul\":18203:18369   */\n    tag_693:\n        /* \"#utility.yul\":18343:18361   */\n      0x46656520697320746f6f20686967682100000000000000000000000000000000\n        /* \"#utility.yul\":18339:18340   */\n      0x00\n        /* \"#utility.yul\":18331:18337   */\n      dup3\n        /* \"#utility.yul\":18327:18341   */\n      add\n        /* \"#utility.yul\":18320:18362   */\n      mstore\n        /* \"#utility.yul\":18203:18369   */\n      pop\n      jump\t// out\n        /* \"#utility.yul\":18375:18741   */\n    tag_694:\n        /* \"#utility.yul\":18517:18520   */\n      0x00\n        /* \"#utility.yul\":18538:18605   */\n      tag_928\n        /* \"#utility.yul\":18602:18604   */\n      0x10\n        /* \"#utility.yul\":18597:18600   */\n      dup4\n        /* \"#utility.yul\":18538:18605   */\n      tag_646\n      jump\t// in\n    tag_928:\n        /* \"#utility.yul\":18531:18605   */\n      swap2\n      pop\n        /* \"#utility.yul\":18614:18707   */\n      tag_929\n        /* \"#utility.yul\":18703:18706   */\n      dup3\n        /* \"#utility.yul\":18614:18707   */\n      tag_693\n      jump\t// in\n    tag_929:\n        /* \"#utility.yul\":18732:18734   */\n      0x20\n        /* \"#utility.yul\":18727:18730   */\n      dup3\n        /* \"#utility.yul\":18723:18735   */\n      add\n        /* \"#utility.yul\":18716:18735   */\n      swap1\n      pop\n        /* \"#utility.yul\":18375:18741   */\n      swap2\n      swap1\n      pop\n      jump\t// out\n        /* \"#utility.yul\":18747:19166   */\n    tag_414:\n        /* \"#utility.yul\":18913:18917   */\n      0x00\n        /* \"#utility.yul\":18951:18953   */\n      0x20\n        /* \"#utility.yul\":18940:18949   */\n      dup3\n        /* \"#utility.yul\":18936:18954   */\n      add\n        /* \"#utility.yul\":18928:18954   */\n      swap1\n      pop\n        /* \"#utility.yul\":19000:19009   */\n      dup2\n        /* \"#utility.yul\":18994:18998   */\n      dup2\n        /* \"#utility.yul\":18990:19010   */\n      sub\n        /* \"#utility.yul\":18986:18987   */\n      0x00\n        /* \"#utility.yul\":18975:18984   */\n      dup4\n        /* \"#utility.yul\":18971:18988   */\n      add\n        /* \"#utility.yul\":18964:19011   */\n      mstore\n        /* \"#utility.yul\":19028:19159   */\n      tag_931\n        /* \"#utility.yul\":19154:19158   */\n      dup2\n        /* \"#utility.yul\":19028:19159   */\n      tag_694\n      jump\t// in\n    tag_931:\n        /* \"#utility.yul\":19020:19159   */\n      swap1\n      pop\n        /* \"#utility.yul\":18747:19166   */\n      swap2\n      swap1\n      pop\n      jump\t// out\n        /* \"#utility.yul\":19172:19354   */\n    tag_695:\n        /* \"#utility.yul\":19312:19346   */\n      0x43757272656e746c792070726f63657373696e672c20747279206c617465722e\n        /* \"#utility.yul\":19308:19309   */\n      0x00\n        /* \"#utility.yul\":19300:19306   */\n      dup3\n        /* \"#utility.yul\":19296:19310   */\n      add\n        /* \"#utility.yul\":19289:19347   */\n      mstore\n        /* \"#utility.yul\":19172:19354   */\n      pop\n      jump\t// out\n        /* \"#utility.yul\":19360:19726   */\n    tag_696:\n        /* \"#utility.yul\":19502:19505   */\n      0x00\n        /* \"#utility.yul\":19523:19590   */\n      tag_934\n        /* \"#utility.yul\":19587:19589   */\n      0x20\n        /* \"#utility.yul\":19582:19585   */\n      dup4\n        /* \"#utility.yul\":19523:19590   */\n      tag_646\n      jump\t// in\n    tag_934:\n        /* \"#utility.yul\":19516:19590   */\n      swap2\n      pop\n        /* \"#utility.yul\":19599:19692   */\n      tag_935\n        /* \"#utility.yul\":19688:19691   */\n      dup3\n        /* \"#utility.yul\":19599:19692   */\n      tag_695\n      jump\t// in\n    tag_935:\n        /* \"#utility.yul\":19717:19719   */\n      0x20\n        /* \"#utility.yul\":19712:19715   */\n      dup3\n        /* \"#utility.yul\":19708:19720   */\n      add\n        /* \"#utility.yul\":19701:19720   */\n      swap1\n      pop\n        /* \"#utility.yul\":19360:19726   */\n      swap2\n      swap1\n      pop\n      jump\t// out\n        /* \"#utility.yul\":19732:20151   */\n    tag_482:\n        /* \"#utility.yul\":19898:19902   */\n      0x00\n        /* \"#utility.yul\":19936:19938   */\n      0x20\n        /* \"#utility.yul\":19925:19934   */\n      dup3\n        /* \"#utility.yul\":19921:19939   */\n      add\n        /* \"#utility.yul\":19913:19939   */\n      swap1\n      pop\n        /* \"#utility.yul\":19985:19994   */\n      dup2\n        /* \"#utility.yul\":19979:19983   */\n      dup2\n        /* \"#utility.yul\":19975:19995   */\n      sub\n        /* \"#utility.yul\":19971:19972   */\n      0x00\n        /* \"#utility.yul\":19960:19969   */\n      dup4\n        /* \"#utility.yul\":19956:19973   */\n      add\n        /* \"#utility.yul\":19949:19996   */\n      mstore\n        /* \"#utility.yul\":20013:20144   */\n      tag_937\n        /* \"#utility.yul\":20139:20143   */\n      dup2\n        /* \"#utility.yul\":20013:20144   */\n      tag_696\n      jump\t// in\n    tag_937:\n        /* \"#utility.yul\":20005:20144   */\n      swap1\n      pop\n        /* \"#utility.yul\":19732:20151   */\n      swap2\n      swap1\n      pop\n      jump\t// out\n        /* \"#utility.yul\":20157:20382   */\n    tag_697:\n        /* \"#utility.yul\":20297:20331   */\n      0x4f776e61626c653a206e6577206f776e657220697320746865207a65726f2061\n        /* \"#utility.yul\":20293:20294   */\n      0x00\n        /* \"#utility.yul\":20285:20291   */\n      dup3\n        /* \"#utility.yul\":20281:20295   */\n      add\n        /* \"#utility.yul\":20274:20332   */\n      mstore\n        /* \"#utility.yul\":20366:20374   */\n      0x6464726573730000000000000000000000000000000000000000000000000000\n        /* \"#utility.yul\":20361:20363   */\n      0x20\n        /* \"#utility.yul\":20353:20359   */\n      dup3\n        /* \"#utility.yul\":20349:20364   */\n      add\n        /* \"#utility.yul\":20342:20375   */\n      mstore\n        /* \"#utility.yul\":20157:20382   */\n      pop\n      jump\t// out\n        /* \"#utility.yul\":20388:20754   */\n    tag_698:\n        /* \"#utility.yul\":20530:20533   */\n      0x00\n        /* \"#utility.yul\":20551:20618   */\n      tag_940\n        /* \"#utility.yul\":20615:20617   */\n      0x26\n        /* \"#utility.yul\":20610:20613   */\n      dup4\n        /* \"#utility.yul\":20551:20618   */\n      tag_646\n      jump\t// in\n    tag_940:\n        /* \"#utility.yul\":20544:20618   */\n      swap2\n      pop\n        /* \"#utility.yul\":20627:20720   */\n      tag_941\n        /* \"#utility.yul\":20716:20719   */\n      dup3\n        /* \"#utility.yul\":20627:20720   */\n      tag_697\n      jump\t// in\n    tag_941:\n        /* \"#utility.yul\":20745:20747   */\n      0x40\n        /* \"#utility.yul\":20740:20743   */\n      dup3\n        /* \"#utility.yul\":20736:20748   */\n      add\n        /* \"#utility.yul\":20729:20748   */\n      swap1\n      pop\n        /* \"#utility.yul\":20388:20754   */\n      swap2\n      swap1\n      pop\n      jump\t// out\n        /* \"#utility.yul\":20760:21179   */\n    tag_506:\n        /* \"#utility.yul\":20926:20930   */\n      0x00\n        /* \"#utility.yul\":20964:20966   */\n      0x20\n        /* \"#utility.yul\":20953:20962   */\n      dup3\n        /* \"#utility.yul\":20949:20967   */\n      add\n        /* \"#utility.yul\":20941:20967   */\n      swap1\n      pop\n        /* \"#utility.yul\":21013:21022   */\n      dup2\n        /* \"#utility.yul\":21007:21011   */\n      dup2\n        /* \"#utility.yul\":21003:21023   */\n      sub\n        /* \"#utility.yul\":20999:21000   */\n      0x00\n        /* \"#utility.yul\":20988:20997   */\n      dup4\n        /* \"#utility.yul\":20984:21001   */\n      add\n        /* \"#utility.yul\":20977:21024   */\n      mstore\n        /* \"#utility.yul\":21041:21172   */\n      tag_943\n        /* \"#utility.yul\":21167:21171   */\n      dup2\n        /* \"#utility.yul\":21041:21172   */\n      tag_698\n      jump\t// in\n    tag_943:\n        /* \"#utility.yul\":21033:21172   */\n      swap1\n      pop\n        /* \"#utility.yul\":20760:21179   */\n      swap2\n      swap1\n      pop\n      jump\t// out\n        /* \"#utility.yul\":21185:21490   */\n    tag_699:\n        /* \"#utility.yul\":21325:21359   */\n      0x596f752061726520747279696e6720746f2062757920746f6f206d616e792074\n        /* \"#utility.yul\":21321:21322   */\n      0x00\n        /* \"#utility.yul\":21313:21319   */\n      dup3\n        /* \"#utility.yul\":21309:21323   */\n      add\n        /* \"#utility.yul\":21302:21360   */\n      mstore\n        /* \"#utility.yul\":21394:21428   */\n      0x6f6b656e732e20596f752068617665207265616368656420746865206c696d69\n        /* \"#utility.yul\":21389:21391   */\n      0x20\n        /* \"#utility.yul\":21381:21387   */\n      dup3\n        /* \"#utility.yul\":21377:21392   */\n      add\n        /* \"#utility.yul\":21370:21429   */\n      mstore\n        /* \"#utility.yul\":21463:21482   */\n      0x7420666f72206f6e652077616c6c65742e000000000000000000000000000000\n        /* \"#utility.yul\":21458:21460   */\n      0x40\n        /* \"#utility.yul\":21450:21456   */\n      dup3\n        /* \"#utility.yul\":21446:21461   */\n      add\n        /* \"#utility.yul\":21439:21483   */\n      mstore\n        /* \"#utility.yul\":21185:21490   */\n      pop\n      jump\t// out\n        /* \"#utility.yul\":21496:21862   */\n    tag_700:\n        /* \"#utility.yul\":21638:21641   */\n      0x00\n        /* \"#utility.yul\":21659:21726   */\n      tag_946\n        /* \"#utility.yul\":21723:21725   */\n      0x51\n        /* \"#utility.yul\":21718:21721   */\n      dup4\n        /* \"#utility.yul\":21659:21726   */\n      tag_646\n      jump\t// in\n    tag_946:\n        /* \"#utility.yul\":21652:21726   */\n      swap2\n      pop\n        /* \"#utility.yul\":21735:21828   */\n      tag_947\n        /* \"#utility.yul\":21824:21827   */\n      dup3\n        /* \"#utility.yul\":21735:21828   */\n      tag_699\n      jump\t// in\n    tag_947:\n        /* \"#utility.yul\":21853:21855   */\n      0x60\n        /* \"#utility.yul\":21848:21851   */\n      dup3\n        /* \"#utility.yul\":21844:21856   */\n      add\n        /* \"#utility.yul\":21837:21856   */\n      swap1\n      pop\n        /* \"#utility.yul\":21496:21862   */\n      swap2\n      swap1\n      pop\n      jump\t// out\n        /* \"#utility.yul\":21868:22287   */\n    tag_545:\n        /* \"#utility.yul\":22034:22038   */\n      0x00\n        /* \"#utility.yul\":22072:22074   */\n      0x20\n        /* \"#utility.yul\":22061:22070   */\n      dup3\n        /* \"#utility.yul\":22057:22075   */\n      add\n        /* \"#utility.yul\":22049:22075   */\n      swap1\n      pop\n        /* \"#utility.yul\":22121:22130   */\n      dup2\n        /* \"#utility.yul\":22115:22119   */\n      dup2\n        /* \"#utility.yul\":22111:22131   */\n      sub\n        /* \"#utility.yul\":22107:22108   */\n      0x00\n        /* \"#utility.yul\":22096:22105   */\n      dup4\n        /* \"#utility.yul\":22092:22109   */\n      add\n        /* \"#utility.yul\":22085:22132   */\n      mstore\n        /* \"#utility.yul\":22149:22280   */\n      tag_949\n        /* \"#utility.yul\":22275:22279   */\n      dup2\n        /* \"#utility.yul\":22149:22280   */\n      tag_700\n      jump\t// in\n    tag_949:\n        /* \"#utility.yul\":22141:22280   */\n      swap1\n      pop\n        /* \"#utility.yul\":21868:22287   */\n      swap2\n      swap1\n      pop\n      jump\t// out\n        /* \"#utility.yul\":22293:22538   */\n    tag_701:\n        /* \"#utility.yul\":22433:22467   */\n      0x596f752061726520747279696e6720746f20627579206d6f7265207468616e20\n        /* \"#utility.yul\":22429:22430   */\n      0x00\n        /* \"#utility.yul\":22421:22427   */\n      dup3\n        /* \"#utility.yul\":22417:22431   */\n      add\n        /* \"#utility.yul\":22410:22468   */\n      mstore\n        /* \"#utility.yul\":22502:22530   */\n      0x746865206d6178207472616e73616374696f6e206c696d69742e000000000000\n        /* \"#utility.yul\":22497:22499   */\n      0x20\n        /* \"#utility.yul\":22489:22495   */\n      dup3\n        /* \"#utility.yul\":22485:22500   */\n      add\n        /* \"#utility.yul\":22478:22531   */\n      mstore\n        /* \"#utility.yul\":22293:22538   */\n      pop\n      jump\t// out\n        /* \"#utility.yul\":22544:22910   */\n    tag_702:\n        /* \"#utility.yul\":22686:22689   */\n      0x00\n        /* \"#utility.yul\":22707:22774   */\n      tag_952\n        /* \"#utility.yul\":22771:22773   */\n      0x3a\n        /* \"#utility.yul\":22766:22769   */\n      dup4\n        /* \"#utility.yul\":22707:22774   */\n      tag_646\n      jump\t// in\n    tag_952:\n        /* \"#utility.yul\":22700:22774   */\n      swap2\n      pop\n        /* \"#utility.yul\":22783:22876   */\n      tag_953\n        /* \"#utility.yul\":22872:22875   */\n      dup3\n        /* \"#utility.yul\":22783:22876   */\n      tag_701\n      jump\t// in\n    tag_953:\n        /* \"#utility.yul\":22901:22903   */\n      0x40\n        /* \"#utility.yul\":22896:22899   */\n      dup3\n        /* \"#utility.yul\":22892:22904   */\n      add\n        /* \"#utility.yul\":22885:22904   */\n      swap1\n      pop\n        /* \"#utility.yul\":22544:22910   */\n      swap2\n      swap1\n      pop\n      jump\t// out\n        /* \"#utility.yul\":22916:23335   */\n    tag_552:\n        /* \"#utility.yul\":23082:23086   */\n      0x00\n        /* \"#utility.yul\":23120:23122   */\n      0x20\n        /* \"#utility.yul\":23109:23118   */\n      dup3\n        /* \"#utility.yul\":23105:23123   */\n      add\n        /* \"#utility.yul\":23097:23123   */\n      swap1\n      pop\n        /* \"#utility.yul\":23169:23178   */\n      dup2\n        /* \"#utility.yul\":23163:23167   */\n      dup2\n        /* \"#utility.yul\":23159:23179   */\n      sub\n        /* \"#utility.yul\":23155:23156   */\n      0x00\n        /* \"#utility.yul\":23144:23153   */\n      dup4\n        /* \"#utility.yul\":23140:23157   */\n      add\n        /* \"#utility.yul\":23133:23180   */\n      mstore\n        /* \"#utility.yul\":23197:23328   */\n      tag_955\n        /* \"#utility.yul\":23323:23327   */\n      dup2\n        /* \"#utility.yul\":23197:23328   */\n      tag_702\n      jump\t// in\n    tag_955:\n        /* \"#utility.yul\":23189:23328   */\n      swap1\n      pop\n        /* \"#utility.yul\":22916:23335   */\n      swap2\n      swap1\n      pop\n      jump\t// out\n        /* \"#utility.yul\":23341:23578   */\n    tag_703:\n        /* \"#utility.yul\":23481:23515   */\n      0x54686973206164647265737320697320626c61636b6c69737465642e20547261\n        /* \"#utility.yul\":23477:23478   */\n      0x00\n        /* \"#utility.yul\":23469:23475   */\n      dup3\n        /* \"#utility.yul\":23465:23479   */\n      add\n        /* \"#utility.yul\":23458:23516   */\n      mstore\n        /* \"#utility.yul\":23550:23570   */\n      0x6e73616374696f6e2072657665727465642e0000000000000000000000000000\n        /* \"#utility.yul\":23545:23547   */\n      0x20\n        /* \"#utility.yul\":23537:23543   */\n      dup3\n        /* \"#utility.yul\":23533:23548   */\n      add\n        /* \"#utility.yul\":23526:23571   */\n      mstore\n        /* \"#utility.yul\":23341:23578   */\n      pop\n      jump\t// out\n        /* \"#utility.yul\":23584:23950   */\n    tag_704:\n        /* \"#utility.yul\":23726:23729   */\n      0x00\n        /* \"#utility.yul\":23747:23814   */\n      tag_958\n        /* \"#utility.yul\":23811:23813   */\n      0x32\n        /* \"#utility.yul\":23806:23809   */\n      dup4\n        /* \"#utility.yul\":23747:23814   */\n      tag_646\n      jump\t// in\n    tag_958:\n        /* \"#utility.yul\":23740:23814   */\n      swap2\n      pop\n        /* \"#utility.yul\":23823:23916   */\n      tag_959\n        /* \"#utility.yul\":23912:23915   */\n      dup3\n        /* \"#utility.yul\":23823:23916   */\n      tag_703\n      jump\t// in\n    tag_959:\n        /* \"#utility.yul\":23941:23943   */\n      0x40\n        /* \"#utility.yul\":23936:23939   */\n      dup3\n        /* \"#utility.yul\":23932:23944   */\n      add\n        /* \"#utility.yul\":23925:23944   */\n      swap1\n      pop\n        /* \"#utility.yul\":23584:23950   */\n      swap2\n      swap1\n      pop\n      jump\t// out\n        /* \"#utility.yul\":23956:24375   */\n    tag_557:\n        /* \"#utility.yul\":24122:24126   */\n      0x00\n        /* \"#utility.yul\":24160:24162   */\n      0x20\n        /* \"#utility.yul\":24149:24158   */\n      dup3\n        /* \"#utility.yul\":24145:24163   */\n      add\n        /* \"#utility.yul\":24137:24163   */\n      swap1\n      pop\n        /* \"#utility.yul\":24209:24218   */\n      dup2\n        /* \"#utility.yul\":24203:24207   */\n      dup2\n        /* \"#utility.yul\":24199:24219   */\n      sub\n        /* \"#utility.yul\":24195:24196   */\n      0x00\n        /* \"#utility.yul\":24184:24193   */\n      dup4\n        /* \"#utility.yul\":24180:24197   */\n      add\n        /* \"#utility.yul\":24173:24220   */\n      mstore\n        /* \"#utility.yul\":24237:24368   */\n      tag_961\n        /* \"#utility.yul\":24363:24367   */\n      dup2\n        /* \"#utility.yul\":24237:24368   */\n      tag_704\n      jump\t// in\n    tag_961:\n        /* \"#utility.yul\":24229:24368   */\n      swap1\n      pop\n        /* \"#utility.yul\":23956:24375   */\n      swap2\n      swap1\n      pop\n      jump\t// out\n        /* \"#utility.yul\":24381:24552   */\n    tag_705:\n        /* \"#utility.yul\":24521:24544   */\n      0x4552523a205573696e6720302061646472657373210000000000000000000000\n        /* \"#utility.yul\":24517:24518   */\n      0x00\n        /* \"#utility.yul\":24509:24515   */\n      dup3\n        /* \"#utility.yul\":24505:24519   */\n      add\n        /* \"#utility.yul\":24498:24545   */\n      mstore\n        /* \"#utility.yul\":24381:24552   */\n      pop\n      jump\t// out\n        /* \"#utility.yul\":24558:24924   */\n    tag_706:\n        /* \"#utility.yul\":24700:24703   */\n      0x00\n        /* \"#utility.yul\":24721:24788   */\n      tag_964\n        /* \"#utility.yul\":24785:24787   */\n      0x15\n        /* \"#utility.yul\":24780:24783   */\n      dup4\n        /* \"#utility.yul\":24721:24788   */\n      tag_646\n      jump\t// in\n    tag_964:\n        /* \"#utility.yul\":24714:24788   */\n      swap2\n      pop\n        /* \"#utility.yul\":24797:24890   */\n      tag_965\n        /* \"#utility.yul\":24886:24889   */\n      dup3\n        /* \"#utility.yul\":24797:24890   */\n      tag_705\n      jump\t// in\n    tag_965:\n        /* \"#utility.yul\":24915:24917   */\n      0x20\n        /* \"#utility.yul\":24910:24913   */\n      dup3\n        /* \"#utility.yul\":24906:24918   */\n      add\n        /* \"#utility.yul\":24899:24918   */\n      swap1\n      pop\n        /* \"#utility.yul\":24558:24924   */\n      swap2\n      swap1\n      pop\n      jump\t// out\n        /* \"#utility.yul\":24930:25349   */\n    tag_561:\n        /* \"#utility.yul\":25096:25100   */\n      0x00\n        /* \"#utility.yul\":25134:25136   */\n      0x20\n        /* \"#utility.yul\":25123:25132   */\n      dup3\n        /* \"#utility.yul\":25119:25137   */\n      add\n        /* \"#utility.yul\":25111:25137   */\n      swap1\n      pop\n        /* \"#utility.yul\":25183:25192   */\n      dup2\n        /* \"#utility.yul\":25177:25181   */\n      dup2\n        /* \"#utility.yul\":25173:25193   */\n      sub\n        /* \"#utility.yul\":25169:25170   */\n      0x00\n        /* \"#utility.yul\":25158:25167   */\n      dup4\n        /* \"#utility.yul\":25154:25171   */\n      add\n        /* \"#utility.yul\":25147:25194   */\n      mstore\n        /* \"#utility.yul\":25211:25342   */\n      tag_967\n        /* \"#utility.yul\":25337:25341   */\n      dup2\n        /* \"#utility.yul\":25211:25342   */\n      tag_706\n      jump\t// in\n    tag_967:\n        /* \"#utility.yul\":25203:25342   */\n      swap1\n      pop\n        /* \"#utility.yul\":24930:25349   */\n      swap2\n      swap1\n      pop\n      jump\t// out\n        /* \"#utility.yul\":25355:25579   */\n    tag_707:\n        /* \"#utility.yul\":25495:25529   */\n      0x546f6b656e2076616c7565206d75737420626520686967686572207468616e20\n        /* \"#utility.yul\":25491:25492   */\n      0x00\n        /* \"#utility.yul\":25483:25489   */\n      dup3\n        /* \"#utility.yul\":25479:25493   */\n      add\n        /* \"#utility.yul\":25472:25530   */\n      mstore\n        /* \"#utility.yul\":25564:25571   */\n      0x7a65726f2e000000000000000000000000000000000000000000000000000000\n        /* \"#utility.yul\":25559:25561   */\n      0x20\n        /* \"#utility.yul\":25551:25557   */\n      dup3\n        /* \"#utility.yul\":25547:25562   */\n      add\n        /* \"#utility.yul\":25540:25572   */\n      mstore\n        /* \"#utility.yul\":25355:25579   */\n      pop\n      jump\t// out\n        /* \"#utility.yul\":25585:25951   */\n    tag_708:\n        /* \"#utility.yul\":25727:25730   */\n      0x00\n        /* \"#utility.yul\":25748:25815   */\n      tag_970\n        /* \"#utility.yul\":25812:25814   */\n      0x25\n        /* \"#utility.yul\":25807:25810   */\n      dup4\n        /* \"#utility.yul\":25748:25815   */\n      tag_646\n      jump\t// in\n    tag_970:\n        /* \"#utility.yul\":25741:25815   */\n      swap2\n      pop\n        /* \"#utility.yul\":25824:25917   */\n      tag_971\n        /* \"#utility.yul\":25913:25916   */\n      dup3\n        /* \"#utility.yul\":25824:25917   */\n      tag_707\n      jump\t// in\n    tag_971:\n        /* \"#utility.yul\":25942:25944   */\n      0x40\n        /* \"#utility.yul\":25937:25940   */\n      dup3\n        /* \"#utility.yul\":25933:25945   */\n      add\n        /* \"#utility.yul\":25926:25945   */\n      swap1\n      pop\n        /* \"#utility.yul\":25585:25951   */\n      swap2\n      swap1\n      pop\n      jump\t// out\n        /* \"#utility.yul\":25957:26376   */\n    tag_564:\n        /* \"#utility.yul\":26123:26127   */\n      0x00\n        /* \"#utility.yul\":26161:26163   */\n      0x20\n        /* \"#utility.yul\":26150:26159   */\n      dup3\n        /* \"#utility.yul\":26146:26164   */\n      add\n        /* \"#utility.yul\":26138:26164   */\n      swap1\n      pop\n        /* \"#utility.yul\":26210:26219   */\n      dup2\n        /* \"#utility.yul\":26204:26208   */\n      dup2\n        /* \"#utility.yul\":26200:26220   */\n      sub\n        /* \"#utility.yul\":26196:26197   */\n      0x00\n        /* \"#utility.yul\":26185:26194   */\n      dup4\n        /* \"#utility.yul\":26181:26198   */\n      add\n        /* \"#utility.yul\":26174:26221   */\n      mstore\n        /* \"#utility.yul\":26238:26369   */\n      tag_973\n        /* \"#utility.yul\":26364:26368   */\n      dup2\n        /* \"#utility.yul\":26238:26369   */\n      tag_708\n      jump\t// in\n    tag_973:\n        /* \"#utility.yul\":26230:26369   */\n      swap1\n      pop\n        /* \"#utility.yul\":25957:26376   */\n      swap2\n      swap1\n      pop\n      jump\t// out\n        /* \"#utility.yul\":26382:26549   */\n    tag_601:\n        /* \"#utility.yul\":26419:26422   */\n      0x00\n        /* \"#utility.yul\":26442:26464   */\n      tag_975\n        /* \"#utility.yul\":26458:26463   */\n      dup3\n        /* \"#utility.yul\":26442:26464   */\n      tag_672\n      jump\t// in\n    tag_975:\n        /* \"#utility.yul\":26433:26464   */\n      swap2\n      pop\n        /* \"#utility.yul\":26486:26490   */\n      0xff\n        /* \"#utility.yul\":26479:26484   */\n      dup3\n        /* \"#utility.yul\":26476:26491   */\n      sub\n        /* \"#utility.yul\":26473:26514   */\n      tag_976\n      jumpi\n        /* \"#utility.yul\":26494:26512   */\n      tag_977\n      tag_687\n      jump\t// in\n    tag_977:\n        /* \"#utility.yul\":26473:26514   */\n    tag_976:\n        /* \"#utility.yul\":26541:26542   */\n      0x01\n        /* \"#utility.yul\":26534:26539   */\n      dup3\n        /* \"#utility.yul\":26530:26543   */\n      add\n        /* \"#utility.yul\":26523:26543   */\n      swap1\n      pop\n        /* \"#utility.yul\":26382:26549   */\n      swap2\n      swap1\n      pop\n      jump\t// out\n        /* \"#utility.yul\":26555:26735   */\n    tag_609:\n        /* \"#utility.yul\":26603:26680   */\n      0x4e487b7100000000000000000000000000000000000000000000000000000000\n        /* \"#utility.yul\":26600:26601   */\n      0x00\n        /* \"#utility.yul\":26593:26681   */\n      mstore\n        /* \"#utility.yul\":26700:26704   */\n      0x41\n        /* \"#utility.yul\":26697:26698   */\n      0x04\n        /* \"#utility.yul\":26690:26705   */\n      mstore\n        /* \"#utility.yul\":26724:26728   */\n      0x24\n        /* \"#utility.yul\":26721:26722   */\n      0x00\n        /* \"#utility.yul\":26714:26729   */\n      revert\n        /* \"#utility.yul\":26741:26826   */\n    tag_709:\n        /* \"#utility.yul\":26786:26793   */\n      0x00\n        /* \"#utility.yul\":26815:26820   */\n      dup2\n        /* \"#utility.yul\":26804:26820   */\n      swap1\n      pop\n        /* \"#utility.yul\":26741:26826   */\n      swap2\n      swap1\n      pop\n      jump\t// out\n        /* \"#utility.yul\":26832:26990   */\n    tag_710:\n        /* \"#utility.yul\":26890:26899   */\n      0x00\n        /* \"#utility.yul\":26923:26984   */\n      tag_981\n        /* \"#utility.yul\":26941:26983   */\n      tag_982\n        /* \"#utility.yul\":26950:26982   */\n      tag_983\n        /* \"#utility.yul\":26976:26981   */\n      dup5\n        /* \"#utility.yul\":26950:26982   */\n      tag_709\n      jump\t// in\n    tag_983:\n        /* \"#utility.yul\":26941:26983   */\n      tag_662\n      jump\t// in\n    tag_982:\n        /* \"#utility.yul\":26923:26984   */\n      tag_657\n      jump\t// in\n    tag_981:\n        /* \"#utility.yul\":26910:26984   */\n      swap1\n      pop\n        /* \"#utility.yul\":26832:26990   */\n      swap2\n      swap1\n      pop\n      jump\t// out\n        /* \"#utility.yul\":26996:27143   */\n    tag_711:\n        /* \"#utility.yul\":27091:27136   */\n      tag_985\n        /* \"#utility.yul\":27130:27135   */\n      dup2\n        /* \"#utility.yul\":27091:27136   */\n      tag_710\n      jump\t// in\n    tag_985:\n        /* \"#utility.yul\":27086:27089   */\n      dup3\n        /* \"#utility.yul\":27079:27137   */\n      mstore\n        /* \"#utility.yul\":26996:27143   */\n      pop\n      pop\n      jump\t// out\n        /* \"#utility.yul\":27149:27263   */\n    tag_712:\n        /* \"#utility.yul\":27216:27222   */\n      0x00\n        /* \"#utility.yul\":27250:27255   */\n      dup2\n        /* \"#utility.yul\":27244:27256   */\n      mload\n        /* \"#utility.yul\":27234:27256   */\n      swap1\n      pop\n        /* \"#utility.yul\":27149:27263   */\n      swap2\n      swap1\n      pop\n      jump\t// out\n        /* \"#utility.yul\":27269:27453   */\n    tag_713:\n        /* \"#utility.yul\":27368:27379   */\n      0x00\n        /* \"#utility.yul\":27402:27408   */\n      dup3\n        /* \"#utility.yul\":27397:27400   */\n      dup3\n        /* \"#utility.yul\":27390:27409   */\n      mstore\n        /* \"#utility.yul\":27442:27446   */\n      0x20\n        /* \"#utility.yul\":27437:27440   */\n      dup3\n        /* \"#utility.yul\":27433:27447   */\n      add\n        /* \"#utility.yul\":27418:27447   */\n      swap1\n      pop\n        /* \"#utility.yul\":27269:27453   */\n      swap3\n      swap2\n      pop\n      pop\n      jump\t// out\n        /* \"#utility.yul\":27459:27591   */\n    tag_714:\n        /* \"#utility.yul\":27526:27530   */\n      0x00\n        /* \"#utility.yul\":27549:27552   */\n      dup2\n        /* \"#utility.yul\":27541:27552   */\n      swap1\n      pop\n        /* \"#utility.yul\":27579:27583   */\n      0x20\n        /* \"#utility.yul\":27574:27577   */\n      dup3\n        /* \"#utility.yul\":27570:27584   */\n      add\n        /* \"#utility.yul\":27562:27584   */\n      swap1\n      pop\n        /* \"#utility.yul\":27459:27591   */\n      swap2\n      swap1\n      pop\n      jump\t// out\n        /* \"#utility.yul\":27597:27705   */\n    tag_715:\n        /* \"#utility.yul\":27674:27698   */\n      tag_990\n        /* \"#utility.yul\":27692:27697   */\n      dup2\n        /* \"#utility.yul\":27674:27698   */\n      tag_654\n      jump\t// in\n    tag_990:\n        /* \"#utility.yul\":27669:27672   */\n      dup3\n        /* \"#utility.yul\":27662:27699   */\n      mstore\n        /* \"#utility.yul\":27597:27705   */\n      pop\n      pop\n      jump\t// out\n        /* \"#utility.yul\":27711:27890   */\n    tag_716:\n        /* \"#utility.yul\":27780:27790   */\n      0x00\n        /* \"#utility.yul\":27801:27847   */\n      tag_992\n        /* \"#utility.yul\":27843:27846   */\n      dup4\n        /* \"#utility.yul\":27835:27841   */\n      dup4\n        /* \"#utility.yul\":27801:27847   */\n      tag_715\n      jump\t// in\n    tag_992:\n        /* \"#utility.yul\":27879:27883   */\n      0x20\n        /* \"#utility.yul\":27874:27877   */\n      dup4\n        /* \"#utility.yul\":27870:27884   */\n      add\n        /* \"#utility.yul\":27856:27884   */\n      swap1\n      pop\n        /* \"#utility.yul\":27711:27890   */\n      swap3\n      swap2\n      pop\n      pop\n      jump\t// out\n        /* \"#utility.yul\":27896:28009   */\n    tag_717:\n        /* \"#utility.yul\":27966:27970   */\n      0x00\n        /* \"#utility.yul\":27998:28002   */\n      0x20\n        /* \"#utility.yul\":27993:27996   */\n      dup3\n        /* \"#utility.yul\":27989:28003   */\n      add\n        /* \"#utility.yul\":27981:28003   */\n      swap1\n      pop\n        /* \"#utility.yul\":27896:28009   */\n      swap2\n      swap1\n      pop\n      jump\t// out\n        /* \"#utility.yul\":28045:28777   */\n    tag_718:\n        /* \"#utility.yul\":28164:28167   */\n      0x00\n        /* \"#utility.yul\":28193:28247   */\n      tag_995\n        /* \"#utility.yul\":28241:28246   */\n      dup3\n        /* \"#utility.yul\":28193:28247   */\n      tag_712\n      jump\t// in\n    tag_995:\n        /* \"#utility.yul\":28263:28349   */\n      tag_996\n        /* \"#utility.yul\":28342:28348   */\n      dup2\n        /* \"#utility.yul\":28337:28340   */\n      dup6\n        /* \"#utility.yul\":28263:28349   */\n      tag_713\n      jump\t// in\n    tag_996:\n        /* \"#utility.yul\":28256:28349   */\n      swap4\n      pop\n        /* \"#utility.yul\":28373:28429   */\n      tag_997\n        /* \"#utility.yul\":28423:28428   */\n      dup4\n        /* \"#utility.yul\":28373:28429   */\n      tag_714\n      jump\t// in\n    tag_997:\n        /* \"#utility.yul\":28452:28459   */\n      dup1\n        /* \"#utility.yul\":28483:28484   */\n      0x00\n        /* \"#utility.yul\":28468:28752   */\n    tag_998:\n        /* \"#utility.yul\":28493:28499   */\n      dup4\n        /* \"#utility.yul\":28490:28491   */\n      dup2\n        /* \"#utility.yul\":28487:28500   */\n      lt\n        /* \"#utility.yul\":28468:28752   */\n      iszero\n      tag_1000\n      jumpi\n        /* \"#utility.yul\":28569:28575   */\n      dup2\n        /* \"#utility.yul\":28563:28576   */\n      mload\n        /* \"#utility.yul\":28596:28659   */\n      tag_1001\n        /* \"#utility.yul\":28655:28658   */\n      dup9\n        /* \"#utility.yul\":28640:28653   */\n      dup3\n        /* \"#utility.yul\":28596:28659   */\n      tag_716\n      jump\t// in\n    tag_1001:\n        /* \"#utility.yul\":28589:28659   */\n      swap8\n      pop\n        /* \"#utility.yul\":28682:28742   */\n      tag_1002\n        /* \"#utility.yul\":28735:28741   */\n      dup4\n        /* \"#utility.yul\":28682:28742   */\n      tag_717\n      jump\t// in\n    tag_1002:\n        /* \"#utility.yul\":28672:28742   */\n      swap3\n      pop\n        /* \"#utility.yul\":28528:28752   */\n      pop\n        /* \"#utility.yul\":28515:28516   */\n      0x01\n        /* \"#utility.yul\":28512:28513   */\n      dup2\n        /* \"#utility.yul\":28508:28517   */\n      add\n        /* \"#utility.yul\":28503:28517   */\n      swap1\n      pop\n        /* \"#utility.yul\":28468:28752   */\n      jump(tag_998)\n    tag_1000:\n        /* \"#utility.yul\":28472:28486   */\n      pop\n        /* \"#utility.yul\":28768:28771   */\n      dup6\n        /* \"#utility.yul\":28761:28771   */\n      swap4\n      pop\n        /* \"#utility.yul\":28169:28777   */\n      pop\n      pop\n      pop\n        /* \"#utility.yul\":28045:28777   */\n      swap3\n      swap2\n      pop\n      pop\n      jump\t// out\n        /* \"#utility.yul\":28783:29614   */\n    tag_620:\n        /* \"#utility.yul\":29046:29050   */\n      0x00\n        /* \"#utility.yul\":29084:29087   */\n      0xa0\n        /* \"#utility.yul\":29073:29082   */\n      dup3\n        /* \"#utility.yul\":29069:29088   */\n      add\n        /* \"#utility.yul\":29061:29088   */\n      swap1\n      pop\n        /* \"#utility.yul\":29098:29169   */\n      tag_1004\n        /* \"#utility.yul\":29166:29167   */\n      0x00\n        /* \"#utility.yul\":29155:29164   */\n      dup4\n        /* \"#utility.yul\":29151:29168   */\n      add\n        /* \"#utility.yul\":29142:29148   */\n      dup9\n        /* \"#utility.yul\":29098:29169   */\n      tag_667\n      jump\t// in\n    tag_1004:\n        /* \"#utility.yul\":29179:29259   */\n      tag_1005\n        /* \"#utility.yul\":29255:29257   */\n      0x20\n        /* \"#utility.yul\":29244:29253   */\n      dup4\n        /* \"#utility.yul\":29240:29258   */\n      add\n        /* \"#utility.yul\":29231:29237   */\n      dup8\n        /* \"#utility.yul\":29179:29259   */\n      tag_711\n      jump\t// in\n    tag_1005:\n        /* \"#utility.yul\":29306:29315   */\n      dup2\n        /* \"#utility.yul\":29300:29304   */\n      dup2\n        /* \"#utility.yul\":29296:29316   */\n      sub\n        /* \"#utility.yul\":29291:29293   */\n      0x40\n        /* \"#utility.yul\":29280:29289   */\n      dup4\n        /* \"#utility.yul\":29276:29294   */\n      add\n        /* \"#utility.yul\":29269:29317   */\n      mstore\n        /* \"#utility.yul\":29334:29442   */\n      tag_1006\n        /* \"#utility.yul\":29437:29441   */\n      dup2\n        /* \"#utility.yul\":29428:29434   */\n      dup7\n        /* \"#utility.yul\":29334:29442   */\n      tag_718\n      jump\t// in\n    tag_1006:\n        /* \"#utility.yul\":29326:29442   */\n      swap1\n      pop\n        /* \"#utility.yul\":29452:29524   */\n      tag_1007\n        /* \"#utility.yul\":29520:29522   */\n      0x60\n        /* \"#utility.yul\":29509:29518   */\n      dup4\n        /* \"#utility.yul\":29505:29523   */\n      add\n        /* \"#utility.yul\":29496:29502   */\n      dup6\n        /* \"#utility.yul\":29452:29524   */\n      tag_674\n      jump\t// in\n    tag_1007:\n        /* \"#utility.yul\":29534:29607   */\n      tag_1008\n        /* \"#utility.yul\":29602:29605   */\n      0x80\n        /* \"#utility.yul\":29591:29600   */\n      dup4\n        /* \"#utility.yul\":29587:29606   */\n      add\n        /* \"#utility.yul\":29578:29584   */\n      dup5\n        /* \"#utility.yul\":29534:29607   */\n      tag_667\n      jump\t// in\n    tag_1008:\n        /* \"#utility.yul\":28783:29614   */\n      swap7\n      swap6\n      pop\n      pop\n      pop\n      pop\n      pop\n      pop\n      jump\t// out\n    stop\n    data_974d1b4421da69cc60b481194f0dad36a5bb4e23da810da7a7fb30cdba178330 45524332303a207472616e7366657220616d6f756e74206578636565647320616c6c6f77616e6365\n    data_f8b476f7d28209d77d4a4ac1fe36b9f8259aa1bb6bddfa6e89de7e51615cf8a8 45524332303a2064656372656173656420616c6c6f77616e63652062656c6f77207a65726f\n\n    auxdata: 0xa26469706673582212208b74d900b79dfad122e80dac7e0c80e1423c39e7949658df9e28e3daa196f61064736f6c63430008120033\n}\n",
				"bytecode": {
					"linkReferences": {},
					"object": "60806040527360ee6569662ee29295e2f09a0b657b8d535090b9600560016101000a81548173ffffffffffffffffffffffffffffffffffffffff021916908373ffffffffffffffffffffffffffffffffffffffff1602179055506000600560156101000a81548160ff021916908360ff1602179055506003600560166101000a81548160ff021916908360ff160217905550600a600655620000d76064620000c360026b204fce5e3e250261100000006200067360201b620028ed1790919060201c565b6200068b60201b620029031790919060201c565b6007556007546008556200012160646200010d60016b204fce5e3e250261100000006200067360201b620028ed1790919060201c565b6200068b60201b620029031790919060201c565b600955600954600a55600a600b556005600c556005600d55600b54600e556001600f60006101000a81548160ff0219169083151502179055506001601060156101000a81548160ff0219169083151502179055503480156200018257600080fd5b5073c402fe06948516567f2e59ab88172fee49f5a84c6000806101000a81548173ffffffffffffffffffffffffffffffffffffffff021916908373ffffffffffffffffffffffffffffffffffffffff16021790555060008054906101000a900473ffffffffffffffffffffffffffffffffffffffff1673ffffffffffffffffffffffffffffffffffffffff16600073ffffffffffffffffffffffffffffffffffffffff167f8be0079c531659141344cd1fd0a4f28419497f9722a3daafe3b4186f6b6457e060405160405180910390a36b204fce5e3e250261100000006001600062000273620006a360201b60201c565b73ffffffffffffffffffffffffffffffffffffffff1673ffffffffffffffffffffffffffffffffffffffff1681526020019081526020016000208190555060007310ed43c718714eb63d5aa57b78b54704e256024e90508073ffffffffffffffffffffffffffffffffffffffff1663c45a01556040518163ffffffff1660e01b8152600401602060405180830381865afa15801562000316573d6000803e3d6000fd5b505050506040513d601f19601f820116820180604052508101906200033c919062000736565b73ffffffffffffffffffffffffffffffffffffffff1663c9c65396308373ffffffffffffffffffffffffffffffffffffffff1663ad5c46486040518163ffffffff1660e01b8152600401602060405180830381865afa158015620003a4573d6000803e3d6000fd5b505050506040513d601f19601f82011682018060405250810190620003ca919062000736565b6040518363ffffffff1660e01b8152600401620003e992919062000779565b6020604051808303816000875af115801562000409573d6000803e3d6000fd5b505050506040513d601f19601f820116820180604052508101906200042f919062000736565b601060006101000a81548173ffffffffffffffffffffffffffffffffffffffff021916908373ffffffffffffffffffffffffffffffffffffffff16021790555080600f60016101000a81548173ffffffffffffffffffffffffffffffffffffffff021916908373ffffffffffffffffffffffffffffffffffffffff160217905550600160036000620004c6620006a360201b60201c565b73ffffffffffffffffffffffffffffffffffffffff1673ffffffffffffffffffffffffffffffffffffffff16815260200190815260200160002060006101000a81548160ff0219169083151502179055506001600360003073ffffffffffffffffffffffffffffffffffffffff1673ffffffffffffffffffffffffffffffffffffffff16815260200190815260200160002060006101000a81548160ff021916908315150217905550600160036000600560019054906101000a900473ffffffffffffffffffffffffffffffffffffffff1673ffffffffffffffffffffffffffffffffffffffff1673ffffffffffffffffffffffffffffffffffffffff16815260200190815260200160002060006101000a81548160ff021916908315150217905550620005f9620006a360201b60201c565b73ffffffffffffffffffffffffffffffffffffffff16600073ffffffffffffffffffffffffffffffffffffffff167fddf252ad1be2c89b69c2b068fc378daa952ba7f163c4a11628f55a4df523b3ef6b204fce5e3e25026110000000604051620006649190620007c1565b60405180910390a350620008bf565b600081836200068391906200080d565b905092915050565b600081836200069b919062000887565b905092915050565b60008060009054906101000a900473ffffffffffffffffffffffffffffffffffffffff16905090565b600080fd5b600073ffffffffffffffffffffffffffffffffffffffff82169050919050565b6000620006fe82620006d1565b9050919050565b6200071081620006f1565b81146200071c57600080fd5b50565b600081519050620007308162000705565b92915050565b6000602082840312156200074f576200074e620006cc565b5b60006200075f848285016200071f565b91505092915050565b6200077381620006f1565b82525050565b600060408201905062000790600083018562000768565b6200079f602083018462000768565b9392505050565b6000819050919050565b620007bb81620007a6565b82525050565b6000602082019050620007d86000830184620007b0565b92915050565b7f4e487b7100000000000000000000000000000000000000000000000000000000600052601160045260246000fd5b60006200081a82620007a6565b91506200082783620007a6565b92508282026200083781620007a6565b91508282048414831517620008515762000850620007de565b5b5092915050565b7f4e487b7100000000000000000000000000000000000000000000000000000000600052601260045260246000fd5b60006200089482620007a6565b9150620008a183620007a6565b925082620008b457620008b362000858565b5b828204905092915050565b61499180620008cf6000396000f3fe6080604052600436106102815760003560e01c806370a082311161014f578063a9059cbb116100c1578063dcff02371161007a578063dcff0237146109b9578063dd62ed3e146109e2578063ea2f0b3714610a1f578063f2fde38b14610a48578063f73980f914610a71578063f7739b5f14610a9a57610288565b8063a9059cbb146108ab578063ae7bd3f2146108e8578063b886311514610911578063ba6a6cdb1461093c578063c703952814610965578063d785d5be1461099057610288565b806385ae099f1161011357806385ae099f1461079b5780638da5cb5b146107c657806395d89b41146107f1578063a01cbf9a1461081c578063a2a02c3314610845578063a457c2d71461086e57610288565b806370a08231146106b6578063715018a6146106f3578063768dc7101461070a5780637caefa89146107475780637d1db4a51461077057610288565b80632f536344116101f3578063437823ec116101ac578063437823ec146105b857806346258ab3146105e157806349bd5a5e1461060c5780635238f0e314610637578063590f897e1461066257806367cbd84c1461068d57610288565b80632f53634414610496578063313ce567146104d357806336b1a1bc146104fe57806339509351146105275780633e66c4351461056457806340b9a54b1461058d57610288565b806318160ddd1161024557806318160ddd146103725780631b123b711461039d5780631cdd3be3146103c657806323b872dd146104035780632a77c076146104405780632b37b69b1461046b57610288565b806306fdde031461028d578063095ea7b3146102b85780631282a0a0146102f557806315a2f3491461031e5780631694505e1461034757610288565b3661028857005b600080fd5b34801561029957600080fd5b506102a2610ac3565b6040516102af91906139dc565b60405180910390f35b3480156102c457600080fd5b506102df60048036038101906102da9190613a9c565b610b00565b6040516102ec9190613af7565b60405180910390f35b34801561030157600080fd5b5061031c60048036038101906103179190613b12565b610b1e565b005b34801561032a57600080fd5b5061034560048036038101906103409190613b3f565b610ded565b005b34801561035357600080fd5b5061035c610e97565b6040516103699190613bcb565b60405180910390f35b34801561037e57600080fd5b50610387610ebd565b6040516103949190613bf5565b60405180910390f35b3480156103a957600080fd5b506103c460048036038101906103bf9190613c75565b610ed1565b005b3480156103d257600080fd5b506103ed60048036038101906103e89190613b12565b611088565b6040516103fa9190613af7565b60405180910390f35b34801561040f57600080fd5b5061042a60048036038101906104259190613cc2565b6110a8565b6040516104379190613af7565b60405180910390f35b34801561044c57600080fd5b50610455611181565b6040516104629190613af7565b60405180910390f35b34801561047757600080fd5b50610480611194565b60405161048d9190613bf5565b60405180910390f35b3480156104a257600080fd5b506104bd60048036038101906104b89190613cc2565b61119a565b6040516104ca9190613af7565b60405180910390f35b3480156104df57600080fd5b506104e8611441565b6040516104f59190613d31565b60405180910390f35b34801561050a57600080fd5b5061052560048036038101906105209190613b12565b61144a565b005b34801561053357600080fd5b5061054e60048036038101906105499190613a9c565b61157f565b60405161055b9190613af7565b60405180910390f35b34801561057057600080fd5b5061058b60048036038101906105869190613c75565b611632565b005b34801561059957600080fd5b506105a26117ea565b6040516105af9190613bf5565b60405180910390f35b3480156105c457600080fd5b506105df60048036038101906105da9190613b12565b6117f0565b005b3480156105ed57600080fd5b506105f6611936565b6040516106039190613bf5565b60405180910390f35b34801561061857600080fd5b5061062161193c565b60405161062e9190613d5b565b60405180910390f35b34801561064357600080fd5b5061064c611962565b6040516106599190613bf5565b60405180910390f35b34801561066e57600080fd5b50610677611968565b6040516106849190613bf5565b60405180910390f35b34801561069957600080fd5b506106b460048036038101906106af9190613d76565b61196e565b005b3480156106c257600080fd5b506106dd60048036038101906106d89190613b12565b611a4b565b6040516106ea9190613bf5565b60405180910390f35b3480156106ff57600080fd5b50610708611a94565b005b34801561071657600080fd5b50610731600480360381019061072c9190613b12565b611bce565b60405161073e9190613af7565b60405180910390f35b34801561075357600080fd5b5061076e60048036038101906107699190613de2565b611bee565b005b34801561077c57600080fd5b50610785611c88565b6040516107929190613bf5565b60405180910390f35b3480156107a757600080fd5b506107b0611c8e565b6040516107bd9190613af7565b60405180910390f35b3480156107d257600080fd5b506107db611ca1565b6040516107e89190613d5b565b60405180910390f35b3480156107fd57600080fd5b50610806611cca565b60405161081391906139dc565b60405180910390f35b34801561082857600080fd5b50610843600480360381019061083e9190613b3f565b611d07565b005b34801561085157600080fd5b5061086c60048036038101906108679190613e3b565b611db1565b005b34801561087a57600080fd5b5061089560048036038101906108909190613a9c565b611e4a565b6040516108a29190613af7565b60405180910390f35b3480156108b757600080fd5b506108d260048036038101906108cd9190613a9c565b611f17565b6040516108df9190613af7565b60405180910390f35b3480156108f457600080fd5b5061090f600480360381019061090a9190613e3b565b611f35565b005b34801561091d57600080fd5b50610926611fce565b6040516109339190613af7565b60405180910390f35b34801561094857600080fd5b50610963600480360381019061095e9190613b3f565b611fe1565b005b34801561097157600080fd5b5061097a6120ac565b6040516109879190613af7565b60405180910390f35b34801561099c57600080fd5b506109b760048036038101906109b29190613b12565b6120bf565b005b3480156109c557600080fd5b506109e060048036038101906109db9190613b3f565b6121ee565b005b3480156109ee57600080fd5b50610a096004803603810190610a049190613e68565b6122ff565b604051610a169190613bf5565b60405180910390f35b348015610a2b57600080fd5b50610a466004803603810190610a419190613b12565b612386565b005b348015610a5457600080fd5b50610a6f6004803603810190610a6a9190613b12565b6124cc565b005b348015610a7d57600080fd5b50610a986004803603810190610a939190613ee6565b612674565b005b348015610aa657600080fd5b50610ac16004803603810190610abc9190613e3b565b61281d565b005b60606040518060400160405280600581526020017f584f444558000000000000000000000000000000000000000000000000000000815250905090565b6000610b14610b0d612919565b8484612921565b6001905092915050565b610b26612919565b73ffffffffffffffffffffffffffffffffffffffff16610b44611ca1565b73ffffffffffffffffffffffffffffffffffffffff1614610b9a576040517f08c379a0000000000000000000000000000000000000000000000000000000008152600401610b9190613f5f565b60405180910390fd5b600073ffffffffffffffffffffffffffffffffffffffff168173ffffffffffffffffffffffffffffffffffffffff1603610c09576040517f08c379a0000000000000000000000000000000000000000000000000000000008152600401610c0090613fcb565b60405180910390fd5b60008190508073ffffffffffffffffffffffffffffffffffffffff1663c45a01556040518163ffffffff1660e01b8152600401602060405180830381865afa158015610c59573d6000803e3d6000fd5b505050506040513d601f19601f82011682018060405250810190610c7d9190614000565b73ffffffffffffffffffffffffffffffffffffffff1663c9c65396308373ffffffffffffffffffffffffffffffffffffffff1663ad5c46486040518163ffffffff1660e01b8152600401602060405180830381865afa158015610ce4573d6000803e3d6000fd5b505050506040513d601f19601f82011682018060405250810190610d089190614000565b6040518363ffffffff1660e01b8152600401610d2592919061402d565b6020604051808303816000875af1158015610d44573d6000803e3d6000fd5b505050506040513d601f19601f82011682018060405250810190610d689190614000565b601060006101000a81548173ffffffffffffffffffffffffffffffffffffffff021916908373ffffffffffffffffffffffffffffffffffffffff16021790555080600f60016101000a81548173ffffffffffffffffffffffffffffffffffffffff021916908373ffffffffffffffffffffffffffffffffffffffff1602179055505050565b610df5612919565b73ffffffffffffffffffffffffffffffffffffffff16610e13611ca1565b73ffffffffffffffffffffffffffffffffffffffff1614610e69576040517f08c379a0000000000000000000000000000000000000000000000000000000008152600401610e6090613f5f565b60405180910390fd5b612710816b204fce5e3e25026110000000610e849190614085565b610e8e91906140f6565b60098190555050565b600f60019054906101000a900473ffffffffffffffffffffffffffffffffffffffff1681565b60006b204fce5e3e25026110000000905090565b610ed9612919565b73ffffffffffffffffffffffffffffffffffffffff16610ef7611ca1565b73ffffffffffffffffffffffffffffffffffffffff1614610f4d576040517f08c379a0000000000000000000000000000000000000000000000000000000008152600401610f4490613f5f565b60405180910390fd5b60008060005b84849050811015611081575a821015611070575a925060046000868684818110610f8057610f7f614127565b5b9050602002016020810190610f959190613b12565b73ffffffffffffffffffffffffffffffffffffffff1673ffffffffffffffffffffffffffffffffffffffff16815260200190815260200160002060009054906101000a900460ff1661106157600160046000878785818110610ffa57610ff9614127565b5b905060200201602081019061100f9190613b12565b73ffffffffffffffffffffffffffffffffffffffff1673ffffffffffffffffffffffffffffffffffffffff16815260200190815260200160002060006101000a81548160ff0219169083151502179055505b5a8361106d9190614156565b91505b8061107a9061418a565b9050610f53565b5050505050565b60046020528060005260406000206000915054906101000a900460ff1681565b60006110b5848484612ab5565b611176846110c1612919565b6111718560405180606001604052806028815260200161490f60289139600260008b73ffffffffffffffffffffffffffffffffffffffff1673ffffffffffffffffffffffffffffffffffffffff1681526020019081526020016000206000611127612919565b73ffffffffffffffffffffffffffffffffffffffff1673ffffffffffffffffffffffffffffffffffffffff168152602001908152602001600020546132b79092919063ffffffff16565b612921565b600190509392505050565b600560009054906101000a900460ff1681565b600e5481565b60006111a4612919565b73ffffffffffffffffffffffffffffffffffffffff166111c2611ca1565b73ffffffffffffffffffffffffffffffffffffffff1614611218576040517f08c379a000000000000000000000000000000000000000000000000000000000815260040161120f90613f5f565b60405180910390fd5b600073ffffffffffffffffffffffffffffffffffffffff168473ffffffffffffffffffffffffffffffffffffffff16141580156112825750600073ffffffffffffffffffffffffffffffffffffffff168373ffffffffffffffffffffffffffffffffffffffff1614155b6112c1576040517f08c379a00000000000000000000000000000000000000000000000000000000081526004016112b890613fcb565b60405180910390fd5b3073ffffffffffffffffffffffffffffffffffffffff168473ffffffffffffffffffffffffffffffffffffffff160361132f576040517f08c379a00000000000000000000000000000000000000000000000000000000081526004016113269061421e565b60405180910390fd5b60008473ffffffffffffffffffffffffffffffffffffffff166370a08231306040518263ffffffff1660e01b815260040161136a9190613d5b565b602060405180830381865afa158015611387573d6000803e3d6000fd5b505050506040513d601f19601f820116820180604052508101906113ab9190614253565b9050808311156113b9578092505b8473ffffffffffffffffffffffffffffffffffffffff1663a9059cbb85856040518363ffffffff1660e01b81526004016113f4929190614280565b6020604051808303816000875af1158015611413573d6000803e3d6000fd5b505050506040513d601f19601f8201168201806040525081019061143791906142be565b9150509392505050565b60006012905090565b611452612919565b73ffffffffffffffffffffffffffffffffffffffff16611470611ca1565b73ffffffffffffffffffffffffffffffffffffffff16146114c6576040517f08c379a00000000000000000000000000000000000000000000000000000000081526004016114bd90613f5f565b60405180910390fd5b600073ffffffffffffffffffffffffffffffffffffffff168173ffffffffffffffffffffffffffffffffffffffff1603611535576040517f08c379a000000000000000000000000000000000000000000000000000000000815260040161152c90613fcb565b60405180910390fd5b600081905080600f60016101000a81548173ffffffffffffffffffffffffffffffffffffffff021916908373ffffffffffffffffffffffffffffffffffffffff1602179055505050565b600061162861158c612919565b84611623856002600061159d612919565b73ffffffffffffffffffffffffffffffffffffffff1673ffffffffffffffffffffffffffffffffffffffff16815260200190815260200160002060008973ffffffffffffffffffffffffffffffffffffffff1673ffffffffffffffffffffffffffffffffffffffff1681526020019081526020016000205461330c90919063ffffffff16565b612921565b6001905092915050565b61163a612919565b73ffffffffffffffffffffffffffffffffffffffff16611658611ca1565b73ffffffffffffffffffffffffffffffffffffffff16146116ae576040517f08c379a00000000000000000000000000000000000000000000000000000000081526004016116a590613f5f565b60405180910390fd5b60008060005b848490508110156117e3575a8210156117d2575a9250600460008686848181106116e1576116e0614127565b5b90506020020160208101906116f69190613b12565b73ffffffffffffffffffffffffffffffffffffffff1673ffffffffffffffffffffffffffffffffffffffff16815260200190815260200160002060009054906101000a900460ff16156117c35760006004600087878581811061175c5761175b614127565b5b90506020020160208101906117719190613b12565b73ffffffffffffffffffffffffffffffffffffffff1673ffffffffffffffffffffffffffffffffffffffff16815260200190815260200160002060006101000a81548160ff0219169083151502179055505b5a836117cf9190614156565b91505b806117dc9061418a565b90506116b4565b5050505050565b600c5481565b6117f8612919565b73ffffffffffffffffffffffffffffffffffffffff16611816611ca1565b73ffffffffffffffffffffffffffffffffffffffff161461186c576040517f08c379a000000000000000000000000000000000000000000000000000000000815260040161186390613f5f565b60405180910390fd5b600073ffffffffffffffffffffffffffffffffffffffff168173ffffffffffffffffffffffffffffffffffffffff16036118db576040517f08c379a00000000000000000000000000000000000000000000000000000000081526004016118d290613fcb565b60405180910390fd5b6001600360008373ffffffffffffffffffffffffffffffffffffffff1673ffffffffffffffffffffffffffffffffffffffff16815260200190815260200160002060006101000a81548160ff02191690831515021790555050565b600b5481565b601060009054906101000a900473ffffffffffffffffffffffffffffffffffffffff1681565b60075481565b600d5481565b611976612919565b73ffffffffffffffffffffffffffffffffffffffff16611994611ca1565b73ffffffffffffffffffffffffffffffffffffffff16146119ea576040517f08c379a00000000000000000000000000000000000000000000000000000000081526004016119e190613f5f565b60405180910390fd5b601981836119f891906142eb565b1115611a39576040517f08c379a0000000000000000000000000000000000000000000000000000000008152600401611a309061436b565b60405180910390fd5b80600d8190555081600c819055505050565b6000600160008373ffffffffffffffffffffffffffffffffffffffff1673ffffffffffffffffffffffffffffffffffffffff168152602001908152602001600020549050919050565b611a9c612919565b73ffffffffffffffffffffffffffffffffffffffff16611aba611ca1565b73ffffffffffffffffffffffffffffffffffffffff1614611b10576040517f08c379a0000000000000000000000000000000000000000000000000000000008152600401611b0790613f5f565b60405180910390fd5b600073ffffffffffffffffffffffffffffffffffffffff1660008054906101000a900473ffffffffffffffffffffffffffffffffffffffff1673ffffffffffffffffffffffffffffffffffffffff167f8be0079c531659141344cd1fd0a4f28419497f9722a3daafe3b4186f6b6457e060405160405180910390a360008060006101000a81548173ffffffffffffffffffffffffffffffffffffffff021916908373ffffffffffffffffffffffffffffffffffffffff160217905550565b60036020528060005260406000206000915054906101000a900460ff1681565b611bf6612919565b73ffffffffffffffffffffffffffffffffffffffff16611c14611ca1565b73ffffffffffffffffffffffffffffffffffffffff1614611c6a576040517f08c379a0000000000000000000000000000000000000000000000000000000008152600401611c6190613f5f565b60405180910390fd5b80600560166101000a81548160ff021916908360ff16021790555050565b60095481565b601060159054906101000a900460ff1681565b60008060009054906101000a900473ffffffffffffffffffffffffffffffffffffffff16905090565b60606040518060400160405280600581526020017f584f444558000000000000000000000000000000000000000000000000000000815250905090565b611d0f612919565b73ffffffffffffffffffffffffffffffffffffffff16611d2d611ca1565b73ffffffffffffffffffffffffffffffffffffffff1614611d83576040517f08c379a0000000000000000000000000000000000000000000000000000000008152600401611d7a90613f5f565b60405180910390fd5b612710816b204fce5e3e25026110000000611d9e9190614085565b611da891906140f6565b60078190555050565b611db9612919565b73ffffffffffffffffffffffffffffffffffffffff16611dd7611ca1565b73ffffffffffffffffffffffffffffffffffffffff1614611e2d576040517f08c379a0000000000000000000000000000000000000000000000000000000008152600401611e2490613f5f565b60405180910390fd5b80600560006101000a81548160ff02191690831515021790555050565b6000611f0d611e57612919565b84611f08856040518060600160405280602581526020016149376025913960026000611e81612919565b73ffffffffffffffffffffffffffffffffffffffff1673ffffffffffffffffffffffffffffffffffffffff16815260200190815260200160002060008a73ffffffffffffffffffffffffffffffffffffffff1673ffffffffffffffffffffffffffffffffffffffff168152602001908152602001600020546132b79092919063ffffffff16565b612921565b6001905092915050565b6000611f2b611f24612919565b8484612ab5565b6001905092915050565b611f3d612919565b73ffffffffffffffffffffffffffffffffffffffff16611f5b611ca1565b73ffffffffffffffffffffffffffffffffffffffff1614611fb1576040517f08c379a0000000000000000000000000000000000000000000000000000000008152600401611fa890613f5f565b60405180910390fd5b80600f60006101000a81548160ff02191690831515021790555050565b601060149054906101000a900460ff1681565b611fe9612919565b73ffffffffffffffffffffffffffffffffffffffff16612007611ca1565b73ffffffffffffffffffffffffffffffffffffffff161461205d576040517f08c379a000000000000000000000000000000000000000000000000000000000815260040161205490613f5f565b60405180910390fd5b6006548111156120a2576040517f08c379a00000000000000000000000000000000000000000000000000000000081526004016120999061436b565b60405180910390fd5b80600b8190555050565b600f60009054906101000a900460ff1681565b6120c7612919565b73ffffffffffffffffffffffffffffffffffffffff166120e5611ca1565b73ffffffffffffffffffffffffffffffffffffffff161461213b576040517f08c379a000000000000000000000000000000000000000000000000000000000815260040161213290613f5f565b60405180910390fd5b600073ffffffffffffffffffffffffffffffffffffffff168173ffffffffffffffffffffffffffffffffffffffff16036121aa576040517f08c379a00000000000000000000000000000000000000000000000000000000081526004016121a190613fcb565b60405180910390fd5b80601060006101000a81548173ffffffffffffffffffffffffffffffffffffffff021916908373ffffffffffffffffffffffffffffffffffffffff16021790555050565b6121f6612919565b73ffffffffffffffffffffffffffffffffffffffff16612214611ca1565b73ffffffffffffffffffffffffffffffffffffffff161461226a576040517f08c379a000000000000000000000000000000000000000000000000000000000815260040161226190613f5f565b60405180910390fd5b601060149054906101000a900460ff16156122ba576040517f08c379a00000000000000000000000000000000000000000000000000000000081526004016122b1906143d7565b60405180910390fd5b60648111156122c857606490505b60006122d330611a4b565b90506000606483836122e59190614085565b6122ef91906140f6565b90506122fa81613322565b505050565b6000600260008473ffffffffffffffffffffffffffffffffffffffff1673ffffffffffffffffffffffffffffffffffffffff16815260200190815260200160002060008373ffffffffffffffffffffffffffffffffffffffff1673ffffffffffffffffffffffffffffffffffffffff16815260200190815260200160002054905092915050565b61238e612919565b73ffffffffffffffffffffffffffffffffffffffff166123ac611ca1565b73ffffffffffffffffffffffffffffffffffffffff1614612402576040517f08c379a00000000000000000000000000000000000000000000000000000000081526004016123f990613f5f565b60405180910390fd5b600073ffffffffffffffffffffffffffffffffffffffff168173ffffffffffffffffffffffffffffffffffffffff1603612471576040517f08c379a000000000000000000000000000000000000000000000000000000000815260040161246890613fcb565b60405180910390fd5b6000600360008373ffffffffffffffffffffffffffffffffffffffff1673ffffffffffffffffffffffffffffffffffffffff16815260200190815260200160002060006101000a81548160ff02191690831515021790555050565b6124d4612919565b73ffffffffffffffffffffffffffffffffffffffff166124f2611ca1565b73ffffffffffffffffffffffffffffffffffffffff1614612548576040517f08c379a000000000000000000000000000000000000000000000000000000000815260040161253f90613f5f565b60405180910390fd5b600073ffffffffffffffffffffffffffffffffffffffff168173ffffffffffffffffffffffffffffffffffffffff16036125b7576040517f08c379a00000000000000000000000000000000000000000000000000000000081526004016125ae90614469565b60405180910390fd5b8073ffffffffffffffffffffffffffffffffffffffff1660008054906101000a900473ffffffffffffffffffffffffffffffffffffffff1673ffffffffffffffffffffffffffffffffffffffff167f8be0079c531659141344cd1fd0a4f28419497f9722a3daafe3b4186f6b6457e060405160405180910390a3806000806101000a81548173ffffffffffffffffffffffffffffffffffffffff021916908373ffffffffffffffffffffffffffffffffffffffff16021790555050565b61267c612919565b73ffffffffffffffffffffffffffffffffffffffff1661269a611ca1565b73ffffffffffffffffffffffffffffffffffffffff16146126f0576040517f08c379a00000000000000000000000000000000000000000000000000000000081526004016126e790613f5f565b60405180910390fd5b600073ffffffffffffffffffffffffffffffffffffffff168173ffffffffffffffffffffffffffffffffffffffff160361275f576040517f08c379a000000000000000000000000000000000000000000000000000000000815260040161275690613fcb565b60405180910390fd5b80600560016101000a81548173ffffffffffffffffffffffffffffffffffffffff021916908373ffffffffffffffffffffffffffffffffffffffff160217905550600160036000600560019054906101000a900473ffffffffffffffffffffffffffffffffffffffff1673ffffffffffffffffffffffffffffffffffffffff1673ffffffffffffffffffffffffffffffffffffffff16815260200190815260200160002060006101000a81548160ff02191690831515021790555050565b612825612919565b73ffffffffffffffffffffffffffffffffffffffff16612843611ca1565b73ffffffffffffffffffffffffffffffffffffffff1614612899576040517f08c379a000000000000000000000000000000000000000000000000000000000815260040161289090613f5f565b60405180910390fd5b80601060156101000a81548160ff0219169083151502179055507f53726dfcaf90650aa7eb35524f4d3220f07413c8d6cb404cc8c18bf5591bc159816040516128e29190613af7565b60405180910390a150565b600081836128fb9190614085565b905092915050565b6000818361291191906140f6565b905092915050565b600033905090565b600073ffffffffffffffffffffffffffffffffffffffff168373ffffffffffffffffffffffffffffffffffffffff161415801561298b5750600073ffffffffffffffffffffffffffffffffffffffff168273ffffffffffffffffffffffffffffffffffffffff1614155b6129ca576040517f08c379a00000000000000000000000000000000000000000000000000000000081526004016129c190613fcb565b60405180910390fd5b80600260008573ffffffffffffffffffffffffffffffffffffffff1673ffffffffffffffffffffffffffffffffffffffff16815260200190815260200160002060008473ffffffffffffffffffffffffffffffffffffffff1673ffffffffffffffffffffffffffffffffffffffff168152602001908152602001600020819055508173ffffffffffffffffffffffffffffffffffffffff168373ffffffffffffffffffffffffffffffffffffffff167f8c5be1e5ebec7d5bd14f71427d1e84f3dd0314c0f7b2291e5b200ac8c7c3b92583604051612aa89190613bf5565b60405180910390a3505050565b612abd611ca1565b73ffffffffffffffffffffffffffffffffffffffff168273ffffffffffffffffffffffffffffffffffffffff1614158015612b465750600560019054906101000a900473ffffffffffffffffffffffffffffffffffffffff1673ffffffffffffffffffffffffffffffffffffffff168273ffffffffffffffffffffffffffffffffffffffff1614155b8015612b7e57503073ffffffffffffffffffffffffffffffffffffffff168273ffffffffffffffffffffffffffffffffffffffff1614155b8015612bd85750601060009054906101000a900473ffffffffffffffffffffffffffffffffffffffff1673ffffffffffffffffffffffffffffffffffffffff168273ffffffffffffffffffffffffffffffffffffffff1614155b8015612c12575061dead73ffffffffffffffffffffffffffffffffffffffff168273ffffffffffffffffffffffffffffffffffffffff1614155b8015612c515750612c21611ca1565b73ffffffffffffffffffffffffffffffffffffffff168373ffffffffffffffffffffffffffffffffffffffff1614155b15612cb5576000612c6183611a4b565b90506007548282612c7291906142eb565b1115612cb3576040517f08c379a0000000000000000000000000000000000000000000000000000000008152600401612caa90614521565b60405180910390fd5b505b612cbd611ca1565b73ffffffffffffffffffffffffffffffffffffffff168373ffffffffffffffffffffffffffffffffffffffff1614158015612d2b5750612cfb611ca1565b73ffffffffffffffffffffffffffffffffffffffff168273ffffffffffffffffffffffffffffffffffffffff1614155b15612d7657600954811115612d75576040517f08c379a0000000000000000000000000000000000000000000000000000000008152600401612d6c906145b3565b60405180910390fd5b5b600560009054906101000a900460ff1615612e6f57600460008473ffffffffffffffffffffffffffffffffffffffff1673ffffffffffffffffffffffffffffffffffffffff16815260200190815260200160002060009054906101000a900460ff16158015612e2f5750600460008373ffffffffffffffffffffffffffffffffffffffff1673ffffffffffffffffffffffffffffffffffffffff16815260200190815260200160002060009054906101000a900460ff16155b612e6e576040517f08c379a0000000000000000000000000000000000000000000000000000000008152600401612e6590614645565b60405180910390fd5b5b600073ffffffffffffffffffffffffffffffffffffffff168373ffffffffffffffffffffffffffffffffffffffff1614158015612ed95750600073ffffffffffffffffffffffffffffffffffffffff168273ffffffffffffffffffffffffffffffffffffffff1614155b612f18576040517f08c379a0000000000000000000000000000000000000000000000000000000008152600401612f0f906146b1565b60405180910390fd5b60008111612f5b576040517f08c379a0000000000000000000000000000000000000000000000000000000008152600401612f5290614743565b60405180910390fd5b600560169054906101000a900460ff1660ff16600560159054906101000a900460ff1660ff1610158015612f9c5750601060149054906101000a900460ff16155b8015612ff65750601060009054906101000a900473ffffffffffffffffffffffffffffffffffffffff1673ffffffffffffffffffffffffffffffffffffffff168373ffffffffffffffffffffffffffffffffffffffff1614155b801561300e5750601060159054906101000a900460ff165b15613061576000600560156101000a81548160ff021916908360ff160217905550600061303a30611a4b565b905060095481111561304c5760095490505b600081111561305f5761305e81613322565b5b505b600060019050600360008573ffffffffffffffffffffffffffffffffffffffff1673ffffffffffffffffffffffffffffffffffffffff16815260200190815260200160002060009054906101000a900460ff16806131085750600360008473ffffffffffffffffffffffffffffffffffffffff1673ffffffffffffffffffffffffffffffffffffffff16815260200190815260200160002060009054906101000a900460ff165b806131d35750600f60009054906101000a900460ff1680156131785750601060009054906101000a900473ffffffffffffffffffffffffffffffffffffffff1673ffffffffffffffffffffffffffffffffffffffff168473ffffffffffffffffffffffffffffffffffffffff1614155b80156131d25750601060009054906101000a900473ffffffffffffffffffffffffffffffffffffffff1673ffffffffffffffffffffffffffffffffffffffff168373ffffffffffffffffffffffffffffffffffffffff1614155b5b156131e157600090506132a5565b601060009054906101000a900473ffffffffffffffffffffffffffffffffffffffff1673ffffffffffffffffffffffffffffffffffffffff168473ffffffffffffffffffffffffffffffffffffffff160361324457600c54600e819055506132a4565b601060009054906101000a900473ffffffffffffffffffffffffffffffffffffffff1673ffffffffffffffffffffffffffffffffffffffff168373ffffffffffffffffffffffffffffffffffffffff16036132a357600d54600e819055505b5b5b6132b184848484613396565b50505050565b60008383111582906132ff576040517f08c379a00000000000000000000000000000000000000000000000000000000081526004016132f691906139dc565b60405180910390fd5b5082840390509392505050565b6000818361331a91906142eb565b905092915050565b6001601060146101000a81548160ff021916908315150217905550613346816133fa565b6000479050613377600560019054906101000a900473ffffffffffffffffffffffffffffffffffffffff168261363d565b506000601060146101000a81548160ff02191690831515021790555050565b806133a8576133a3613688565b6133e1565b6005601581819054906101000a900460ff16809291906133c790614763565b91906101000a81548160ff021916908360ff160217905550505b6133ec84848461369e565b6133f46138d9565b50505050565b6000600267ffffffffffffffff8111156134175761341661478c565b5b6040519080825280602002602001820160405280156134455781602001602082028036833780820191505090505b509050308160008151811061345d5761345c614127565b5b602002602001019073ffffffffffffffffffffffffffffffffffffffff16908173ffffffffffffffffffffffffffffffffffffffff1681525050600f60019054906101000a900473ffffffffffffffffffffffffffffffffffffffff1673ffffffffffffffffffffffffffffffffffffffff1663ad5c46486040518163ffffffff1660e01b8152600401602060405180830381865afa158015613504573d6000803e3d6000fd5b505050506040513d601f19601f820116820180604052508101906135289190614000565b8160018151811061353c5761353b614127565b5b602002602001019073ffffffffffffffffffffffffffffffffffffffff16908173ffffffffffffffffffffffffffffffffffffffff16815250506135a330600f60019054906101000a900473ffffffffffffffffffffffffffffffffffffffff1684612921565b600f60019054906101000a900473ffffffffffffffffffffffffffffffffffffffff1673ffffffffffffffffffffffffffffffffffffffff1663791ac9478360008430426040518663ffffffff1660e01b81526004016136079594939291906148b4565b600060405180830381600087803b15801561362157600080fd5b505af1158015613635573d6000803e3d6000fd5b505050505050565b8173ffffffffffffffffffffffffffffffffffffffff166108fc829081150290604051600060405180830381858888f19350505050158015613683573d6000803e3d6000fd5b505050565b6000600e54031561369c576000600e819055505b565b6000806136aa836138f1565b9150915061370083600160008873ffffffffffffffffffffffffffffffffffffffff1673ffffffffffffffffffffffffffffffffffffffff1681526020019081526020016000205461393690919063ffffffff16565b600160008773ffffffffffffffffffffffffffffffffffffffff1673ffffffffffffffffffffffffffffffffffffffff1681526020019081526020016000208190555061379582600160008773ffffffffffffffffffffffffffffffffffffffff1673ffffffffffffffffffffffffffffffffffffffff1681526020019081526020016000205461330c90919063ffffffff16565b600160008673ffffffffffffffffffffffffffffffffffffffff1673ffffffffffffffffffffffffffffffffffffffff1681526020019081526020016000208190555061382a81600160003073ffffffffffffffffffffffffffffffffffffffff1673ffffffffffffffffffffffffffffffffffffffff1681526020019081526020016000205461330c90919063ffffffff16565b600160003073ffffffffffffffffffffffffffffffffffffffff1673ffffffffffffffffffffffffffffffffffffffff168152602001908152602001600020819055508373ffffffffffffffffffffffffffffffffffffffff168573ffffffffffffffffffffffffffffffffffffffff167fddf252ad1be2c89b69c2b068fc378daa952ba7f163c4a11628f55a4df523b3ef846040516138ca9190613bf5565b60405180910390a35050505050565b600b54600e5403156138ef57600b54600e819055505b565b60008060006064600e54856139069190614085565b61391091906140f6565b90506000613927828661393690919063ffffffff16565b90508082935093505050915091565b600081836139449190614156565b905092915050565b600081519050919050565b600082825260208201905092915050565b60005b8381101561398657808201518184015260208101905061396b565b60008484015250505050565b6000601f19601f8301169050919050565b60006139ae8261394c565b6139b88185613957565b93506139c8818560208601613968565b6139d181613992565b840191505092915050565b600060208201905081810360008301526139f681846139a3565b905092915050565b600080fd5b600080fd5b600073ffffffffffffffffffffffffffffffffffffffff82169050919050565b6000613a3382613a08565b9050919050565b613a4381613a28565b8114613a4e57600080fd5b50565b600081359050613a6081613a3a565b92915050565b6000819050919050565b613a7981613a66565b8114613a8457600080fd5b50565b600081359050613a9681613a70565b92915050565b60008060408385031215613ab357613ab26139fe565b5b6000613ac185828601613a51565b9250506020613ad285828601613a87565b9150509250929050565b60008115159050919050565b613af181613adc565b82525050565b6000602082019050613b0c6000830184613ae8565b92915050565b600060208284031215613b2857613b276139fe565b5b6000613b3684828501613a51565b91505092915050565b600060208284031215613b5557613b546139fe565b5b6000613b6384828501613a87565b91505092915050565b6000819050919050565b6000613b91613b8c613b8784613a08565b613b6c565b613a08565b9050919050565b6000613ba382613b76565b9050919050565b6000613bb582613b98565b9050919050565b613bc581613baa565b82525050565b6000602082019050613be06000830184613bbc565b92915050565b613bef81613a66565b82525050565b6000602082019050613c0a6000830184613be6565b92915050565b600080fd5b600080fd5b600080fd5b60008083601f840112613c3557613c34613c10565b5b8235905067ffffffffffffffff811115613c5257613c51613c15565b5b602083019150836020820283011115613c6e57613c6d613c1a565b5b9250929050565b60008060208385031215613c8c57613c8b6139fe565b5b600083013567ffffffffffffffff811115613caa57613ca9613a03565b5b613cb685828601613c1f565b92509250509250929050565b600080600060608486031215613cdb57613cda6139fe565b5b6000613ce986828701613a51565b9350506020613cfa86828701613a51565b9250506040613d0b86828701613a87565b9150509250925092565b600060ff82169050919050565b613d2b81613d15565b82525050565b6000602082019050613d466000830184613d22565b92915050565b613d5581613a28565b82525050565b6000602082019050613d706000830184613d4c565b92915050565b60008060408385031215613d8d57613d8c6139fe565b5b6000613d9b85828601613a87565b9250506020613dac85828601613a87565b9150509250929050565b613dbf81613d15565b8114613dca57600080fd5b50565b600081359050613ddc81613db6565b92915050565b600060208284031215613df857613df76139fe565b5b6000613e0684828501613dcd565b91505092915050565b613e1881613adc565b8114613e2357600080fd5b50565b600081359050613e3581613e0f565b92915050565b600060208284031215613e5157613e506139fe565b5b6000613e5f84828501613e26565b91505092915050565b60008060408385031215613e7f57613e7e6139fe565b5b6000613e8d85828601613a51565b9250506020613e9e85828601613a51565b9150509250929050565b6000613eb382613a08565b9050919050565b613ec381613ea8565b8114613ece57600080fd5b50565b600081359050613ee081613eba565b92915050565b600060208284031215613efc57613efb6139fe565b5b6000613f0a84828501613ed1565b91505092915050565b7f4f776e61626c653a2063616c6c6572206973206e6f7420746865206f776e6572600082015250565b6000613f49602083613957565b9150613f5482613f13565b602082019050919050565b60006020820190508181036000830152613f7881613f3c565b9050919050565b7f4552523a207a65726f2061646472657373000000000000000000000000000000600082015250565b6000613fb5601183613957565b9150613fc082613f7f565b602082019050919050565b60006020820190508181036000830152613fe481613fa8565b9050919050565b600081519050613ffa81613a3a565b92915050565b600060208284031215614016576140156139fe565b5b600061402484828501613feb565b91505092915050565b60006040820190506140426000830185613d4c565b61404f6020830184613d4c565b9392505050565b7f4e487b7100000000000000000000000000000000000000000000000000000000600052601160045260246000fd5b600061409082613a66565b915061409b83613a66565b92508282026140a981613a66565b915082820484148315176140c0576140bf614056565b5b5092915050565b7f4e487b7100000000000000000000000000000000000000000000000000000000600052601260045260246000fd5b600061410182613a66565b915061410c83613a66565b92508261411c5761411b6140c7565b5b828204905092915050565b7f4e487b7100000000000000000000000000000000000000000000000000000000600052603260045260246000fd5b600061416182613a66565b915061416c83613a66565b925082820390508181111561418457614183614056565b5b92915050565b600061419582613a66565b91507fffffffffffffffffffffffffffffffffffffffffffffffffffffffffffffffff82036141c7576141c6614056565b5b600182019050919050565b7f43616e206e6f742072656d6f7665206e617469766520746f6b656e0000000000600082015250565b6000614208601b83613957565b9150614213826141d2565b602082019050919050565b60006020820190508181036000830152614237816141fb565b9050919050565b60008151905061424d81613a70565b92915050565b600060208284031215614269576142686139fe565b5b60006142778482850161423e565b91505092915050565b60006040820190506142956000830185613d4c565b6142a26020830184613be6565b9392505050565b6000815190506142b881613e0f565b92915050565b6000602082840312156142d4576142d36139fe565b5b60006142e2848285016142a9565b91505092915050565b60006142f682613a66565b915061430183613a66565b925082820190508082111561431957614318614056565b5b92915050565b7f46656520697320746f6f20686967682100000000000000000000000000000000600082015250565b6000614355601083613957565b91506143608261431f565b602082019050919050565b6000602082019050818103600083015261438481614348565b9050919050565b7f43757272656e746c792070726f63657373696e672c20747279206c617465722e600082015250565b60006143c1602083613957565b91506143cc8261438b565b602082019050919050565b600060208201905081810360008301526143f0816143b4565b9050919050565b7f4f776e61626c653a206e6577206f776e657220697320746865207a65726f206160008201527f6464726573730000000000000000000000000000000000000000000000000000602082015250565b6000614453602683613957565b915061445e826143f7565b604082019050919050565b6000602082019050818103600083015261448281614446565b9050919050565b7f596f752061726520747279696e6720746f2062757920746f6f206d616e79207460008201527f6f6b656e732e20596f752068617665207265616368656420746865206c696d6960208201527f7420666f72206f6e652077616c6c65742e000000000000000000000000000000604082015250565b600061450b605183613957565b915061451682614489565b606082019050919050565b6000602082019050818103600083015261453a816144fe565b9050919050565b7f596f752061726520747279696e6720746f20627579206d6f7265207468616e2060008201527f746865206d6178207472616e73616374696f6e206c696d69742e000000000000602082015250565b600061459d603a83613957565b91506145a882614541565b604082019050919050565b600060208201905081810360008301526145cc81614590565b9050919050565b7f54686973206164647265737320697320626c61636b6c69737465642e2054726160008201527f6e73616374696f6e2072657665727465642e0000000000000000000000000000602082015250565b600061462f603283613957565b915061463a826145d3565b604082019050919050565b6000602082019050818103600083015261465e81614622565b9050919050565b7f4552523a205573696e6720302061646472657373210000000000000000000000600082015250565b600061469b601583613957565b91506146a682614665565b602082019050919050565b600060208201905081810360008301526146ca8161468e565b9050919050565b7f546f6b656e2076616c7565206d75737420626520686967686572207468616e2060008201527f7a65726f2e000000000000000000000000000000000000000000000000000000602082015250565b600061472d602583613957565b9150614738826146d1565b604082019050919050565b6000602082019050818103600083015261475c81614720565b9050919050565b600061476e82613d15565b915060ff820361478157614780614056565b5b600182019050919050565b7f4e487b7100000000000000000000000000000000000000000000000000000000600052604160045260246000fd5b6000819050919050565b60006147e06147db6147d6846147bb565b613b6c565b613a66565b9050919050565b6147f0816147c5565b82525050565b600081519050919050565b600082825260208201905092915050565b6000819050602082019050919050565b61482b81613a28565b82525050565b600061483d8383614822565b60208301905092915050565b6000602082019050919050565b6000614861826147f6565b61486b8185614801565b935061487683614812565b8060005b838110156148a757815161488e8882614831565b975061489983614849565b92505060018101905061487a565b5085935050505092915050565b600060a0820190506148c96000830188613be6565b6148d660208301876147e7565b81810360408301526148e88186614856565b90506148f76060830185613d4c565b6149046080830184613be6565b969550505050505056fe45524332303a207472616e7366657220616d6f756e74206578636565647320616c6c6f77616e636545524332303a2064656372656173656420616c6c6f77616e63652062656c6f77207a65726fa26469706673582212208b74d900b79dfad122e80dac7e0c80e1423c39e7949658df9e28e3daa196f61064736f6c63430008120033",
					"opcodes": "PUSH1 0x80 PUSH1 0x40 MSTORE PUSH20 0x60EE6569662EE29295E2F09A0B657B8D535090B9 PUSH1 0x5 PUSH1 0x1 PUSH2 0x100 EXP DUP2 SLOAD DUP2 PUSH20 0xFFFFFFFFFFFFFFFFFFFFFFFFFFFFFFFFFFFFFFFF MUL NOT AND SWAP1 DUP4 PUSH20 0xFFFFFFFFFFFFFFFFFFFFFFFFFFFFFFFFFFFFFFFF AND MUL OR SWAP1 SSTORE POP PUSH1 0x0 PUSH1 0x5 PUSH1 0x15 PUSH2 0x100 EXP DUP2 SLOAD DUP2 PUSH1 0xFF MUL NOT AND SWAP1 DUP4 PUSH1 0xFF AND MUL OR SWAP1 SSTORE POP PUSH1 0x3 PUSH1 0x5 PUSH1 0x16 PUSH2 0x100 EXP DUP2 SLOAD DUP2 PUSH1 0xFF MUL NOT AND SWAP1 DUP4 PUSH1 0xFF AND MUL OR SWAP1 SSTORE POP PUSH1 0xA PUSH1 0x6 SSTORE PUSH3 0xD7 PUSH1 0x64 PUSH3 0xC3 PUSH1 0x2 PUSH12 0x204FCE5E3E25026110000000 PUSH3 0x673 PUSH1 0x20 SHL PUSH3 0x28ED OR SWAP1 SWAP2 SWAP1 PUSH1 0x20 SHR JUMP JUMPDEST PUSH3 0x68B PUSH1 0x20 SHL PUSH3 0x2903 OR SWAP1 SWAP2 SWAP1 PUSH1 0x20 SHR JUMP JUMPDEST PUSH1 0x7 SSTORE PUSH1 0x7 SLOAD PUSH1 0x8 SSTORE PUSH3 0x121 PUSH1 0x64 PUSH3 0x10D PUSH1 0x1 PUSH12 0x204FCE5E3E25026110000000 PUSH3 0x673 PUSH1 0x20 SHL PUSH3 0x28ED OR SWAP1 SWAP2 SWAP1 PUSH1 0x20 SHR JUMP JUMPDEST PUSH3 0x68B PUSH1 0x20 SHL PUSH3 0x2903 OR SWAP1 SWAP2 SWAP1 PUSH1 0x20 SHR JUMP JUMPDEST PUSH1 0x9 SSTORE PUSH1 0x9 SLOAD PUSH1 0xA SSTORE PUSH1 0xA PUSH1 0xB SSTORE PUSH1 0x5 PUSH1 0xC SSTORE PUSH1 0x5 PUSH1 0xD SSTORE PUSH1 0xB SLOAD PUSH1 0xE SSTORE PUSH1 0x1 PUSH1 0xF PUSH1 0x0 PUSH2 0x100 EXP DUP2 SLOAD DUP2 PUSH1 0xFF MUL NOT AND SWAP1 DUP4 ISZERO ISZERO MUL OR SWAP1 SSTORE POP PUSH1 0x1 PUSH1 0x10 PUSH1 0x15 PUSH2 0x100 EXP DUP2 SLOAD DUP2 PUSH1 0xFF MUL NOT AND SWAP1 DUP4 ISZERO ISZERO MUL OR SWAP1 SSTORE POP CALLVALUE DUP1 ISZERO PUSH3 0x182 JUMPI PUSH1 0x0 DUP1 REVERT JUMPDEST POP PUSH20 0xC402FE06948516567F2E59AB88172FEE49F5A84C PUSH1 0x0 DUP1 PUSH2 0x100 EXP DUP2 SLOAD DUP2 PUSH20 0xFFFFFFFFFFFFFFFFFFFFFFFFFFFFFFFFFFFFFFFF MUL NOT AND SWAP1 DUP4 PUSH20 0xFFFFFFFFFFFFFFFFFFFFFFFFFFFFFFFFFFFFFFFF AND MUL OR SWAP1 SSTORE POP PUSH1 0x0 DUP1 SLOAD SWAP1 PUSH2 0x100 EXP SWAP1 DIV PUSH20 0xFFFFFFFFFFFFFFFFFFFFFFFFFFFFFFFFFFFFFFFF AND PUSH20 0xFFFFFFFFFFFFFFFFFFFFFFFFFFFFFFFFFFFFFFFF AND PUSH1 0x0 PUSH20 0xFFFFFFFFFFFFFFFFFFFFFFFFFFFFFFFFFFFFFFFF AND PUSH32 0x8BE0079C531659141344CD1FD0A4F28419497F9722A3DAAFE3B4186F6B6457E0 PUSH1 0x40 MLOAD PUSH1 0x40 MLOAD DUP1 SWAP2 SUB SWAP1 LOG3 PUSH12 0x204FCE5E3E25026110000000 PUSH1 0x1 PUSH1 0x0 PUSH3 0x273 PUSH3 0x6A3 PUSH1 0x20 SHL PUSH1 0x20 SHR JUMP JUMPDEST PUSH20 0xFFFFFFFFFFFFFFFFFFFFFFFFFFFFFFFFFFFFFFFF AND PUSH20 0xFFFFFFFFFFFFFFFFFFFFFFFFFFFFFFFFFFFFFFFF AND DUP2 MSTORE PUSH1 0x20 ADD SWAP1 DUP2 MSTORE PUSH1 0x20 ADD PUSH1 0x0 KECCAK256 DUP2 SWAP1 SSTORE POP PUSH1 0x0 PUSH20 0x10ED43C718714EB63D5AA57B78B54704E256024E SWAP1 POP DUP1 PUSH20 0xFFFFFFFFFFFFFFFFFFFFFFFFFFFFFFFFFFFFFFFF AND PUSH4 0xC45A0155 PUSH1 0x40 MLOAD DUP2 PUSH4 0xFFFFFFFF AND PUSH1 0xE0 SHL DUP2 MSTORE PUSH1 0x4 ADD PUSH1 0x20 PUSH1 0x40 MLOAD DUP1 DUP4 SUB DUP2 DUP7 GAS STATICCALL ISZERO DUP1 ISZERO PUSH3 0x316 JUMPI RETURNDATASIZE PUSH1 0x0 DUP1 RETURNDATACOPY RETURNDATASIZE PUSH1 0x0 REVERT JUMPDEST POP POP POP POP PUSH1 0x40 MLOAD RETURNDATASIZE PUSH1 0x1F NOT PUSH1 0x1F DUP3 ADD AND DUP3 ADD DUP1 PUSH1 0x40 MSTORE POP DUP2 ADD SWAP1 PUSH3 0x33C SWAP2 SWAP1 PUSH3 0x736 JUMP JUMPDEST PUSH20 0xFFFFFFFFFFFFFFFFFFFFFFFFFFFFFFFFFFFFFFFF AND PUSH4 0xC9C65396 ADDRESS DUP4 PUSH20 0xFFFFFFFFFFFFFFFFFFFFFFFFFFFFFFFFFFFFFFFF AND PUSH4 0xAD5C4648 PUSH1 0x40 MLOAD DUP2 PUSH4 0xFFFFFFFF AND PUSH1 0xE0 SHL DUP2 MSTORE PUSH1 0x4 ADD PUSH1 0x20 PUSH1 0x40 MLOAD DUP1 DUP4 SUB DUP2 DUP7 GAS STATICCALL ISZERO DUP1 ISZERO PUSH3 0x3A4 JUMPI RETURNDATASIZE PUSH1 0x0 DUP1 RETURNDATACOPY RETURNDATASIZE PUSH1 0x0 REVERT JUMPDEST POP POP POP POP PUSH1 0x40 MLOAD RETURNDATASIZE PUSH1 0x1F NOT PUSH1 0x1F DUP3 ADD AND DUP3 ADD DUP1 PUSH1 0x40 MSTORE POP DUP2 ADD SWAP1 PUSH3 0x3CA SWAP2 SWAP1 PUSH3 0x736 JUMP JUMPDEST PUSH1 0x40 MLOAD DUP4 PUSH4 0xFFFFFFFF AND PUSH1 0xE0 SHL DUP2 MSTORE PUSH1 0x4 ADD PUSH3 0x3E9 SWAP3 SWAP2 SWAP1 PUSH3 0x779 JUMP JUMPDEST PUSH1 0x20 PUSH1 0x40 MLOAD DUP1 DUP4 SUB DUP2 PUSH1 0x0 DUP8 GAS CALL ISZERO DUP1 ISZERO PUSH3 0x409 JUMPI RETURNDATASIZE PUSH1 0x0 DUP1 RETURNDATACOPY RETURNDATASIZE PUSH1 0x0 REVERT JUMPDEST POP POP POP POP PUSH1 0x40 MLOAD RETURNDATASIZE PUSH1 0x1F NOT PUSH1 0x1F DUP3 ADD AND DUP3 ADD DUP1 PUSH1 0x40 MSTORE POP DUP2 ADD SWAP1 PUSH3 0x42F SWAP2 SWAP1 PUSH3 0x736 JUMP JUMPDEST PUSH1 0x10 PUSH1 0x0 PUSH2 0x100 EXP DUP2 SLOAD DUP2 PUSH20 0xFFFFFFFFFFFFFFFFFFFFFFFFFFFFFFFFFFFFFFFF MUL NOT AND SWAP1 DUP4 PUSH20 0xFFFFFFFFFFFFFFFFFFFFFFFFFFFFFFFFFFFFFFFF AND MUL OR SWAP1 SSTORE POP DUP1 PUSH1 0xF PUSH1 0x1 PUSH2 0x100 EXP DUP2 SLOAD DUP2 PUSH20 0xFFFFFFFFFFFFFFFFFFFFFFFFFFFFFFFFFFFFFFFF MUL NOT AND SWAP1 DUP4 PUSH20 0xFFFFFFFFFFFFFFFFFFFFFFFFFFFFFFFFFFFFFFFF AND MUL OR SWAP1 SSTORE POP PUSH1 0x1 PUSH1 0x3 PUSH1 0x0 PUSH3 0x4C6 PUSH3 0x6A3 PUSH1 0x20 SHL PUSH1 0x20 SHR JUMP JUMPDEST PUSH20 0xFFFFFFFFFFFFFFFFFFFFFFFFFFFFFFFFFFFFFFFF AND PUSH20 0xFFFFFFFFFFFFFFFFFFFFFFFFFFFFFFFFFFFFFFFF AND DUP2 MSTORE PUSH1 0x20 ADD SWAP1 DUP2 MSTORE PUSH1 0x20 ADD PUSH1 0x0 KECCAK256 PUSH1 0x0 PUSH2 0x100 EXP DUP2 SLOAD DUP2 PUSH1 0xFF MUL NOT AND SWAP1 DUP4 ISZERO ISZERO MUL OR SWAP1 SSTORE POP PUSH1 0x1 PUSH1 0x3 PUSH1 0x0 ADDRESS PUSH20 0xFFFFFFFFFFFFFFFFFFFFFFFFFFFFFFFFFFFFFFFF AND PUSH20 0xFFFFFFFFFFFFFFFFFFFFFFFFFFFFFFFFFFFFFFFF AND DUP2 MSTORE PUSH1 0x20 ADD SWAP1 DUP2 MSTORE PUSH1 0x20 ADD PUSH1 0x0 KECCAK256 PUSH1 0x0 PUSH2 0x100 EXP DUP2 SLOAD DUP2 PUSH1 0xFF MUL NOT AND SWAP1 DUP4 ISZERO ISZERO MUL OR SWAP1 SSTORE POP PUSH1 0x1 PUSH1 0x3 PUSH1 0x0 PUSH1 0x5 PUSH1 0x1 SWAP1 SLOAD SWAP1 PUSH2 0x100 EXP SWAP1 DIV PUSH20 0xFFFFFFFFFFFFFFFFFFFFFFFFFFFFFFFFFFFFFFFF AND PUSH20 0xFFFFFFFFFFFFFFFFFFFFFFFFFFFFFFFFFFFFFFFF AND PUSH20 0xFFFFFFFFFFFFFFFFFFFFFFFFFFFFFFFFFFFFFFFF AND DUP2 MSTORE PUSH1 0x20 ADD SWAP1 DUP2 MSTORE PUSH1 0x20 ADD PUSH1 0x0 KECCAK256 PUSH1 0x0 PUSH2 0x100 EXP DUP2 SLOAD DUP2 PUSH1 0xFF MUL NOT AND SWAP1 DUP4 ISZERO ISZERO MUL OR SWAP1 SSTORE POP PUSH3 0x5F9 PUSH3 0x6A3 PUSH1 0x20 SHL PUSH1 0x20 SHR JUMP JUMPDEST PUSH20 0xFFFFFFFFFFFFFFFFFFFFFFFFFFFFFFFFFFFFFFFF AND PUSH1 0x0 PUSH20 0xFFFFFFFFFFFFFFFFFFFFFFFFFFFFFFFFFFFFFFFF AND PUSH32 0xDDF252AD1BE2C89B69C2B068FC378DAA952BA7F163C4A11628F55A4DF523B3EF PUSH12 0x204FCE5E3E25026110000000 PUSH1 0x40 MLOAD PUSH3 0x664 SWAP2 SWAP1 PUSH3 0x7C1 JUMP JUMPDEST PUSH1 0x40 MLOAD DUP1 SWAP2 SUB SWAP1 LOG3 POP PUSH3 0x8BF JUMP JUMPDEST PUSH1 0x0 DUP2 DUP4 PUSH3 0x683 SWAP2 SWAP1 PUSH3 0x80D JUMP JUMPDEST SWAP1 POP SWAP3 SWAP2 POP POP JUMP JUMPDEST PUSH1 0x0 DUP2 DUP4 PUSH3 0x69B SWAP2 SWAP1 PUSH3 0x887 JUMP JUMPDEST SWAP1 POP SWAP3 SWAP2 POP POP JUMP JUMPDEST PUSH1 0x0 DUP1 PUSH1 0x0 SWAP1 SLOAD SWAP1 PUSH2 0x100 EXP SWAP1 DIV PUSH20 0xFFFFFFFFFFFFFFFFFFFFFFFFFFFFFFFFFFFFFFFF AND SWAP1 POP SWAP1 JUMP JUMPDEST PUSH1 0x0 DUP1 REVERT JUMPDEST PUSH1 0x0 PUSH20 0xFFFFFFFFFFFFFFFFFFFFFFFFFFFFFFFFFFFFFFFF DUP3 AND SWAP1 POP SWAP2 SWAP1 POP JUMP JUMPDEST PUSH1 0x0 PUSH3 0x6FE DUP3 PUSH3 0x6D1 JUMP JUMPDEST SWAP1 POP SWAP2 SWAP1 POP JUMP JUMPDEST PUSH3 0x710 DUP2 PUSH3 0x6F1 JUMP JUMPDEST DUP2 EQ PUSH3 0x71C JUMPI PUSH1 0x0 DUP1 REVERT JUMPDEST POP JUMP JUMPDEST PUSH1 0x0 DUP2 MLOAD SWAP1 POP PUSH3 0x730 DUP2 PUSH3 0x705 JUMP JUMPDEST SWAP3 SWAP2 POP POP JUMP JUMPDEST PUSH1 0x0 PUSH1 0x20 DUP3 DUP5 SUB SLT ISZERO PUSH3 0x74F JUMPI PUSH3 0x74E PUSH3 0x6CC JUMP JUMPDEST JUMPDEST PUSH1 0x0 PUSH3 0x75F DUP5 DUP3 DUP6 ADD PUSH3 0x71F JUMP JUMPDEST SWAP2 POP POP SWAP3 SWAP2 POP POP JUMP JUMPDEST PUSH3 0x773 DUP2 PUSH3 0x6F1 JUMP JUMPDEST DUP3 MSTORE POP POP JUMP JUMPDEST PUSH1 0x0 PUSH1 0x40 DUP3 ADD SWAP1 POP PUSH3 0x790 PUSH1 0x0 DUP4 ADD DUP6 PUSH3 0x768 JUMP JUMPDEST PUSH3 0x79F PUSH1 0x20 DUP4 ADD DUP5 PUSH3 0x768 JUMP JUMPDEST SWAP4 SWAP3 POP POP POP JUMP JUMPDEST PUSH1 0x0 DUP2 SWAP1 POP SWAP2 SWAP1 POP JUMP JUMPDEST PUSH3 0x7BB DUP2 PUSH3 0x7A6 JUMP JUMPDEST DUP3 MSTORE POP POP JUMP JUMPDEST PUSH1 0x0 PUSH1 0x20 DUP3 ADD SWAP1 POP PUSH3 0x7D8 PUSH1 0x0 DUP4 ADD DUP5 PUSH3 0x7B0 JUMP JUMPDEST SWAP3 SWAP2 POP POP JUMP JUMPDEST PUSH32 0x4E487B7100000000000000000000000000000000000000000000000000000000 PUSH1 0x0 MSTORE PUSH1 0x11 PUSH1 0x4 MSTORE PUSH1 0x24 PUSH1 0x0 REVERT JUMPDEST PUSH1 0x0 PUSH3 0x81A DUP3 PUSH3 0x7A6 JUMP JUMPDEST SWAP2 POP PUSH3 0x827 DUP4 PUSH3 0x7A6 JUMP JUMPDEST SWAP3 POP DUP3 DUP3 MUL PUSH3 0x837 DUP2 PUSH3 0x7A6 JUMP JUMPDEST SWAP2 POP DUP3 DUP3 DIV DUP5 EQ DUP4 ISZERO OR PUSH3 0x851 JUMPI PUSH3 0x850 PUSH3 0x7DE JUMP JUMPDEST JUMPDEST POP SWAP3 SWAP2 POP POP JUMP JUMPDEST PUSH32 0x4E487B7100000000000000000000000000000000000000000000000000000000 PUSH1 0x0 MSTORE PUSH1 0x12 PUSH1 0x4 MSTORE PUSH1 0x24 PUSH1 0x0 REVERT JUMPDEST PUSH1 0x0 PUSH3 0x894 DUP3 PUSH3 0x7A6 JUMP JUMPDEST SWAP2 POP PUSH3 0x8A1 DUP4 PUSH3 0x7A6 JUMP JUMPDEST SWAP3 POP DUP3 PUSH3 0x8B4 JUMPI PUSH3 0x8B3 PUSH3 0x858 JUMP JUMPDEST JUMPDEST DUP3 DUP3 DIV SWAP1 POP SWAP3 SWAP2 POP POP JUMP JUMPDEST PUSH2 0x4991 DUP1 PUSH3 0x8CF PUSH1 0x0 CODECOPY PUSH1 0x0 RETURN INVALID PUSH1 0x80 PUSH1 0x40 MSTORE PUSH1 0x4 CALLDATASIZE LT PUSH2 0x281 JUMPI PUSH1 0x0 CALLDATALOAD PUSH1 0xE0 SHR DUP1 PUSH4 0x70A08231 GT PUSH2 0x14F JUMPI DUP1 PUSH4 0xA9059CBB GT PUSH2 0xC1 JUMPI DUP1 PUSH4 0xDCFF0237 GT PUSH2 0x7A JUMPI DUP1 PUSH4 0xDCFF0237 EQ PUSH2 0x9B9 JUMPI DUP1 PUSH4 0xDD62ED3E EQ PUSH2 0x9E2 JUMPI DUP1 PUSH4 0xEA2F0B37 EQ PUSH2 0xA1F JUMPI DUP1 PUSH4 0xF2FDE38B EQ PUSH2 0xA48 JUMPI DUP1 PUSH4 0xF73980F9 EQ PUSH2 0xA71 JUMPI DUP1 PUSH4 0xF7739B5F EQ PUSH2 0xA9A JUMPI PUSH2 0x288 JUMP JUMPDEST DUP1 PUSH4 0xA9059CBB EQ PUSH2 0x8AB JUMPI DUP1 PUSH4 0xAE7BD3F2 EQ PUSH2 0x8E8 JUMPI DUP1 PUSH4 0xB8863115 EQ PUSH2 0x911 JUMPI DUP1 PUSH4 0xBA6A6CDB EQ PUSH2 0x93C JUMPI DUP1 PUSH4 0xC7039528 EQ PUSH2 0x965 JUMPI DUP1 PUSH4 0xD785D5BE EQ PUSH2 0x990 JUMPI PUSH2 0x288 JUMP JUMPDEST DUP1 PUSH4 0x85AE099F GT PUSH2 0x113 JUMPI DUP1 PUSH4 0x85AE099F EQ PUSH2 0x79B JUMPI DUP1 PUSH4 0x8DA5CB5B EQ PUSH2 0x7C6 JUMPI DUP1 PUSH4 0x95D89B41 EQ PUSH2 0x7F1 JUMPI DUP1 PUSH4 0xA01CBF9A EQ PUSH2 0x81C JUMPI DUP1 PUSH4 0xA2A02C33 EQ PUSH2 0x845 JUMPI DUP1 PUSH4 0xA457C2D7 EQ PUSH2 0x86E JUMPI PUSH2 0x288 JUMP JUMPDEST DUP1 PUSH4 0x70A08231 EQ PUSH2 0x6B6 JUMPI DUP1 PUSH4 0x715018A6 EQ PUSH2 0x6F3 JUMPI DUP1 PUSH4 0x768DC710 EQ PUSH2 0x70A JUMPI DUP1 PUSH4 0x7CAEFA89 EQ PUSH2 0x747 JUMPI DUP1 PUSH4 0x7D1DB4A5 EQ PUSH2 0x770 JUMPI PUSH2 0x288 JUMP JUMPDEST DUP1 PUSH4 0x2F536344 GT PUSH2 0x1F3 JUMPI DUP1 PUSH4 0x437823EC GT PUSH2 0x1AC JUMPI DUP1 PUSH4 0x437823EC EQ PUSH2 0x5B8 JUMPI DUP1 PUSH4 0x46258AB3 EQ PUSH2 0x5E1 JUMPI DUP1 PUSH4 0x49BD5A5E EQ PUSH2 0x60C JUMPI DUP1 PUSH4 0x5238F0E3 EQ PUSH2 0x637 JUMPI DUP1 PUSH4 0x590F897E EQ PUSH2 0x662 JUMPI DUP1 PUSH4 0x67CBD84C EQ PUSH2 0x68D JUMPI PUSH2 0x288 JUMP JUMPDEST DUP1 PUSH4 0x2F536344 EQ PUSH2 0x496 JUMPI DUP1 PUSH4 0x313CE567 EQ PUSH2 0x4D3 JUMPI DUP1 PUSH4 0x36B1A1BC EQ PUSH2 0x4FE JUMPI DUP1 PUSH4 0x39509351 EQ PUSH2 0x527 JUMPI DUP1 PUSH4 0x3E66C435 EQ PUSH2 0x564 JUMPI DUP1 PUSH4 0x40B9A54B EQ PUSH2 0x58D JUMPI PUSH2 0x288 JUMP JUMPDEST DUP1 PUSH4 0x18160DDD GT PUSH2 0x245 JUMPI DUP1 PUSH4 0x18160DDD EQ PUSH2 0x372 JUMPI DUP1 PUSH4 0x1B123B71 EQ PUSH2 0x39D JUMPI DUP1 PUSH4 0x1CDD3BE3 EQ PUSH2 0x3C6 JUMPI DUP1 PUSH4 0x23B872DD EQ PUSH2 0x403 JUMPI DUP1 PUSH4 0x2A77C076 EQ PUSH2 0x440 JUMPI DUP1 PUSH4 0x2B37B69B EQ PUSH2 0x46B JUMPI PUSH2 0x288 JUMP JUMPDEST DUP1 PUSH4 0x6FDDE03 EQ PUSH2 0x28D JUMPI DUP1 PUSH4 0x95EA7B3 EQ PUSH2 0x2B8 JUMPI DUP1 PUSH4 0x1282A0A0 EQ PUSH2 0x2F5 JUMPI DUP1 PUSH4 0x15A2F349 EQ PUSH2 0x31E JUMPI DUP1 PUSH4 0x1694505E EQ PUSH2 0x347 JUMPI PUSH2 0x288 JUMP JUMPDEST CALLDATASIZE PUSH2 0x288 JUMPI STOP JUMPDEST PUSH1 0x0 DUP1 REVERT JUMPDEST CALLVALUE DUP1 ISZERO PUSH2 0x299 JUMPI PUSH1 0x0 DUP1 REVERT JUMPDEST POP PUSH2 0x2A2 PUSH2 0xAC3 JUMP JUMPDEST PUSH1 0x40 MLOAD PUSH2 0x2AF SWAP2 SWAP1 PUSH2 0x39DC JUMP JUMPDEST PUSH1 0x40 MLOAD DUP1 SWAP2 SUB SWAP1 RETURN JUMPDEST CALLVALUE DUP1 ISZERO PUSH2 0x2C4 JUMPI PUSH1 0x0 DUP1 REVERT JUMPDEST POP PUSH2 0x2DF PUSH1 0x4 DUP1 CALLDATASIZE SUB DUP2 ADD SWAP1 PUSH2 0x2DA SWAP2 SWAP1 PUSH2 0x3A9C JUMP JUMPDEST PUSH2 0xB00 JUMP JUMPDEST PUSH1 0x40 MLOAD PUSH2 0x2EC SWAP2 SWAP1 PUSH2 0x3AF7 JUMP JUMPDEST PUSH1 0x40 MLOAD DUP1 SWAP2 SUB SWAP1 RETURN JUMPDEST CALLVALUE DUP1 ISZERO PUSH2 0x301 JUMPI PUSH1 0x0 DUP1 REVERT JUMPDEST POP PUSH2 0x31C PUSH1 0x4 DUP1 CALLDATASIZE SUB DUP2 ADD SWAP1 PUSH2 0x317 SWAP2 SWAP1 PUSH2 0x3B12 JUMP JUMPDEST PUSH2 0xB1E JUMP JUMPDEST STOP JUMPDEST CALLVALUE DUP1 ISZERO PUSH2 0x32A JUMPI PUSH1 0x0 DUP1 REVERT JUMPDEST POP PUSH2 0x345 PUSH1 0x4 DUP1 CALLDATASIZE SUB DUP2 ADD SWAP1 PUSH2 0x340 SWAP2 SWAP1 PUSH2 0x3B3F JUMP JUMPDEST PUSH2 0xDED JUMP JUMPDEST STOP JUMPDEST CALLVALUE DUP1 ISZERO PUSH2 0x353 JUMPI PUSH1 0x0 DUP1 REVERT JUMPDEST POP PUSH2 0x35C PUSH2 0xE97 JUMP JUMPDEST PUSH1 0x40 MLOAD PUSH2 0x369 SWAP2 SWAP1 PUSH2 0x3BCB JUMP JUMPDEST PUSH1 0x40 MLOAD DUP1 SWAP2 SUB SWAP1 RETURN JUMPDEST CALLVALUE DUP1 ISZERO PUSH2 0x37E JUMPI PUSH1 0x0 DUP1 REVERT JUMPDEST POP PUSH2 0x387 PUSH2 0xEBD JUMP JUMPDEST PUSH1 0x40 MLOAD PUSH2 0x394 SWAP2 SWAP1 PUSH2 0x3BF5 JUMP JUMPDEST PUSH1 0x40 MLOAD DUP1 SWAP2 SUB SWAP1 RETURN JUMPDEST CALLVALUE DUP1 ISZERO PUSH2 0x3A9 JUMPI PUSH1 0x0 DUP1 REVERT JUMPDEST POP PUSH2 0x3C4 PUSH1 0x4 DUP1 CALLDATASIZE SUB DUP2 ADD SWAP1 PUSH2 0x3BF SWAP2 SWAP1 PUSH2 0x3C75 JUMP JUMPDEST PUSH2 0xED1 JUMP JUMPDEST STOP JUMPDEST CALLVALUE DUP1 ISZERO PUSH2 0x3D2 JUMPI PUSH1 0x0 DUP1 REVERT JUMPDEST POP PUSH2 0x3ED PUSH1 0x4 DUP1 CALLDATASIZE SUB DUP2 ADD SWAP1 PUSH2 0x3E8 SWAP2 SWAP1 PUSH2 0x3B12 JUMP JUMPDEST PUSH2 0x1088 JUMP JUMPDEST PUSH1 0x40 MLOAD PUSH2 0x3FA SWAP2 SWAP1 PUSH2 0x3AF7 JUMP JUMPDEST PUSH1 0x40 MLOAD DUP1 SWAP2 SUB SWAP1 RETURN JUMPDEST CALLVALUE DUP1 ISZERO PUSH2 0x40F JUMPI PUSH1 0x0 DUP1 REVERT JUMPDEST POP PUSH2 0x42A PUSH1 0x4 DUP1 CALLDATASIZE SUB DUP2 ADD SWAP1 PUSH2 0x425 SWAP2 SWAP1 PUSH2 0x3CC2 JUMP JUMPDEST PUSH2 0x10A8 JUMP JUMPDEST PUSH1 0x40 MLOAD PUSH2 0x437 SWAP2 SWAP1 PUSH2 0x3AF7 JUMP JUMPDEST PUSH1 0x40 MLOAD DUP1 SWAP2 SUB SWAP1 RETURN JUMPDEST CALLVALUE DUP1 ISZERO PUSH2 0x44C JUMPI PUSH1 0x0 DUP1 REVERT JUMPDEST POP PUSH2 0x455 PUSH2 0x1181 JUMP JUMPDEST PUSH1 0x40 MLOAD PUSH2 0x462 SWAP2 SWAP1 PUSH2 0x3AF7 JUMP JUMPDEST PUSH1 0x40 MLOAD DUP1 SWAP2 SUB SWAP1 RETURN JUMPDEST CALLVALUE DUP1 ISZERO PUSH2 0x477 JUMPI PUSH1 0x0 DUP1 REVERT JUMPDEST POP PUSH2 0x480 PUSH2 0x1194 JUMP JUMPDEST PUSH1 0x40 MLOAD PUSH2 0x48D SWAP2 SWAP1 PUSH2 0x3BF5 JUMP JUMPDEST PUSH1 0x40 MLOAD DUP1 SWAP2 SUB SWAP1 RETURN JUMPDEST CALLVALUE DUP1 ISZERO PUSH2 0x4A2 JUMPI PUSH1 0x0 DUP1 REVERT JUMPDEST POP PUSH2 0x4BD PUSH1 0x4 DUP1 CALLDATASIZE SUB DUP2 ADD SWAP1 PUSH2 0x4B8 SWAP2 SWAP1 PUSH2 0x3CC2 JUMP JUMPDEST PUSH2 0x119A JUMP JUMPDEST PUSH1 0x40 MLOAD PUSH2 0x4CA SWAP2 SWAP1 PUSH2 0x3AF7 JUMP JUMPDEST PUSH1 0x40 MLOAD DUP1 SWAP2 SUB SWAP1 RETURN JUMPDEST CALLVALUE DUP1 ISZERO PUSH2 0x4DF JUMPI PUSH1 0x0 DUP1 REVERT JUMPDEST POP PUSH2 0x4E8 PUSH2 0x1441 JUMP JUMPDEST PUSH1 0x40 MLOAD PUSH2 0x4F5 SWAP2 SWAP1 PUSH2 0x3D31 JUMP JUMPDEST PUSH1 0x40 MLOAD DUP1 SWAP2 SUB SWAP1 RETURN JUMPDEST CALLVALUE DUP1 ISZERO PUSH2 0x50A JUMPI PUSH1 0x0 DUP1 REVERT JUMPDEST POP PUSH2 0x525 PUSH1 0x4 DUP1 CALLDATASIZE SUB DUP2 ADD SWAP1 PUSH2 0x520 SWAP2 SWAP1 PUSH2 0x3B12 JUMP JUMPDEST PUSH2 0x144A JUMP JUMPDEST STOP JUMPDEST CALLVALUE DUP1 ISZERO PUSH2 0x533 JUMPI PUSH1 0x0 DUP1 REVERT JUMPDEST POP PUSH2 0x54E PUSH1 0x4 DUP1 CALLDATASIZE SUB DUP2 ADD SWAP1 PUSH2 0x549 SWAP2 SWAP1 PUSH2 0x3A9C JUMP JUMPDEST PUSH2 0x157F JUMP JUMPDEST PUSH1 0x40 MLOAD PUSH2 0x55B SWAP2 SWAP1 PUSH2 0x3AF7 JUMP JUMPDEST PUSH1 0x40 MLOAD DUP1 SWAP2 SUB SWAP1 RETURN JUMPDEST CALLVALUE DUP1 ISZERO PUSH2 0x570 JUMPI PUSH1 0x0 DUP1 REVERT JUMPDEST POP PUSH2 0x58B PUSH1 0x4 DUP1 CALLDATASIZE SUB DUP2 ADD SWAP1 PUSH2 0x586 SWAP2 SWAP1 PUSH2 0x3C75 JUMP JUMPDEST PUSH2 0x1632 JUMP JUMPDEST STOP JUMPDEST CALLVALUE DUP1 ISZERO PUSH2 0x599 JUMPI PUSH1 0x0 DUP1 REVERT JUMPDEST POP PUSH2 0x5A2 PUSH2 0x17EA JUMP JUMPDEST PUSH1 0x40 MLOAD PUSH2 0x5AF SWAP2 SWAP1 PUSH2 0x3BF5 JUMP JUMPDEST PUSH1 0x40 MLOAD DUP1 SWAP2 SUB SWAP1 RETURN JUMPDEST CALLVALUE DUP1 ISZERO PUSH2 0x5C4 JUMPI PUSH1 0x0 DUP1 REVERT JUMPDEST POP PUSH2 0x5DF PUSH1 0x4 DUP1 CALLDATASIZE SUB DUP2 ADD SWAP1 PUSH2 0x5DA SWAP2 SWAP1 PUSH2 0x3B12 JUMP JUMPDEST PUSH2 0x17F0 JUMP JUMPDEST STOP JUMPDEST CALLVALUE DUP1 ISZERO PUSH2 0x5ED JUMPI PUSH1 0x0 DUP1 REVERT JUMPDEST POP PUSH2 0x5F6 PUSH2 0x1936 JUMP JUMPDEST PUSH1 0x40 MLOAD PUSH2 0x603 SWAP2 SWAP1 PUSH2 0x3BF5 JUMP JUMPDEST PUSH1 0x40 MLOAD DUP1 SWAP2 SUB SWAP1 RETURN JUMPDEST CALLVALUE DUP1 ISZERO PUSH2 0x618 JUMPI PUSH1 0x0 DUP1 REVERT JUMPDEST POP PUSH2 0x621 PUSH2 0x193C JUMP JUMPDEST PUSH1 0x40 MLOAD PUSH2 0x62E SWAP2 SWAP1 PUSH2 0x3D5B JUMP JUMPDEST PUSH1 0x40 MLOAD DUP1 SWAP2 SUB SWAP1 RETURN JUMPDEST CALLVALUE DUP1 ISZERO PUSH2 0x643 JUMPI PUSH1 0x0 DUP1 REVERT JUMPDEST POP PUSH2 0x64C PUSH2 0x1962 JUMP JUMPDEST PUSH1 0x40 MLOAD PUSH2 0x659 SWAP2 SWAP1 PUSH2 0x3BF5 JUMP JUMPDEST PUSH1 0x40 MLOAD DUP1 SWAP2 SUB SWAP1 RETURN JUMPDEST CALLVALUE DUP1 ISZERO PUSH2 0x66E JUMPI PUSH1 0x0 DUP1 REVERT JUMPDEST POP PUSH2 0x677 PUSH2 0x1968 JUMP JUMPDEST PUSH1 0x40 MLOAD PUSH2 0x684 SWAP2 SWAP1 PUSH2 0x3BF5 JUMP JUMPDEST PUSH1 0x40 MLOAD DUP1 SWAP2 SUB SWAP1 RETURN JUMPDEST CALLVALUE DUP1 ISZERO PUSH2 0x699 JUMPI PUSH1 0x0 DUP1 REVERT JUMPDEST POP PUSH2 0x6B4 PUSH1 0x4 DUP1 CALLDATASIZE SUB DUP2 ADD SWAP1 PUSH2 0x6AF SWAP2 SWAP1 PUSH2 0x3D76 JUMP JUMPDEST PUSH2 0x196E JUMP JUMPDEST STOP JUMPDEST CALLVALUE DUP1 ISZERO PUSH2 0x6C2 JUMPI PUSH1 0x0 DUP1 REVERT JUMPDEST POP PUSH2 0x6DD PUSH1 0x4 DUP1 CALLDATASIZE SUB DUP2 ADD SWAP1 PUSH2 0x6D8 SWAP2 SWAP1 PUSH2 0x3B12 JUMP JUMPDEST PUSH2 0x1A4B JUMP JUMPDEST PUSH1 0x40 MLOAD PUSH2 0x6EA SWAP2 SWAP1 PUSH2 0x3BF5 JUMP JUMPDEST PUSH1 0x40 MLOAD DUP1 SWAP2 SUB SWAP1 RETURN JUMPDEST CALLVALUE DUP1 ISZERO PUSH2 0x6FF JUMPI PUSH1 0x0 DUP1 REVERT JUMPDEST POP PUSH2 0x708 PUSH2 0x1A94 JUMP JUMPDEST STOP JUMPDEST CALLVALUE DUP1 ISZERO PUSH2 0x716 JUMPI PUSH1 0x0 DUP1 REVERT JUMPDEST POP PUSH2 0x731 PUSH1 0x4 DUP1 CALLDATASIZE SUB DUP2 ADD SWAP1 PUSH2 0x72C SWAP2 SWAP1 PUSH2 0x3B12 JUMP JUMPDEST PUSH2 0x1BCE JUMP JUMPDEST PUSH1 0x40 MLOAD PUSH2 0x73E SWAP2 SWAP1 PUSH2 0x3AF7 JUMP JUMPDEST PUSH1 0x40 MLOAD DUP1 SWAP2 SUB SWAP1 RETURN JUMPDEST CALLVALUE DUP1 ISZERO PUSH2 0x753 JUMPI PUSH1 0x0 DUP1 REVERT JUMPDEST POP PUSH2 0x76E PUSH1 0x4 DUP1 CALLDATASIZE SUB DUP2 ADD SWAP1 PUSH2 0x769 SWAP2 SWAP1 PUSH2 0x3DE2 JUMP JUMPDEST PUSH2 0x1BEE JUMP JUMPDEST STOP JUMPDEST CALLVALUE DUP1 ISZERO PUSH2 0x77C JUMPI PUSH1 0x0 DUP1 REVERT JUMPDEST POP PUSH2 0x785 PUSH2 0x1C88 JUMP JUMPDEST PUSH1 0x40 MLOAD PUSH2 0x792 SWAP2 SWAP1 PUSH2 0x3BF5 JUMP JUMPDEST PUSH1 0x40 MLOAD DUP1 SWAP2 SUB SWAP1 RETURN JUMPDEST CALLVALUE DUP1 ISZERO PUSH2 0x7A7 JUMPI PUSH1 0x0 DUP1 REVERT JUMPDEST POP PUSH2 0x7B0 PUSH2 0x1C8E JUMP JUMPDEST PUSH1 0x40 MLOAD PUSH2 0x7BD SWAP2 SWAP1 PUSH2 0x3AF7 JUMP JUMPDEST PUSH1 0x40 MLOAD DUP1 SWAP2 SUB SWAP1 RETURN JUMPDEST CALLVALUE DUP1 ISZERO PUSH2 0x7D2 JUMPI PUSH1 0x0 DUP1 REVERT JUMPDEST POP PUSH2 0x7DB PUSH2 0x1CA1 JUMP JUMPDEST PUSH1 0x40 MLOAD PUSH2 0x7E8 SWAP2 SWAP1 PUSH2 0x3D5B JUMP JUMPDEST PUSH1 0x40 MLOAD DUP1 SWAP2 SUB SWAP1 RETURN JUMPDEST CALLVALUE DUP1 ISZERO PUSH2 0x7FD JUMPI PUSH1 0x0 DUP1 REVERT JUMPDEST POP PUSH2 0x806 PUSH2 0x1CCA JUMP JUMPDEST PUSH1 0x40 MLOAD PUSH2 0x813 SWAP2 SWAP1 PUSH2 0x39DC JUMP JUMPDEST PUSH1 0x40 MLOAD DUP1 SWAP2 SUB SWAP1 RETURN JUMPDEST CALLVALUE DUP1 ISZERO PUSH2 0x828 JUMPI PUSH1 0x0 DUP1 REVERT JUMPDEST POP PUSH2 0x843 PUSH1 0x4 DUP1 CALLDATASIZE SUB DUP2 ADD SWAP1 PUSH2 0x83E SWAP2 SWAP1 PUSH2 0x3B3F JUMP JUMPDEST PUSH2 0x1D07 JUMP JUMPDEST STOP JUMPDEST CALLVALUE DUP1 ISZERO PUSH2 0x851 JUMPI PUSH1 0x0 DUP1 REVERT JUMPDEST POP PUSH2 0x86C PUSH1 0x4 DUP1 CALLDATASIZE SUB DUP2 ADD SWAP1 PUSH2 0x867 SWAP2 SWAP1 PUSH2 0x3E3B JUMP JUMPDEST PUSH2 0x1DB1 JUMP JUMPDEST STOP JUMPDEST CALLVALUE DUP1 ISZERO PUSH2 0x87A JUMPI PUSH1 0x0 DUP1 REVERT JUMPDEST POP PUSH2 0x895 PUSH1 0x4 DUP1 CALLDATASIZE SUB DUP2 ADD SWAP1 PUSH2 0x890 SWAP2 SWAP1 PUSH2 0x3A9C JUMP JUMPDEST PUSH2 0x1E4A JUMP JUMPDEST PUSH1 0x40 MLOAD PUSH2 0x8A2 SWAP2 SWAP1 PUSH2 0x3AF7 JUMP JUMPDEST PUSH1 0x40 MLOAD DUP1 SWAP2 SUB SWAP1 RETURN JUMPDEST CALLVALUE DUP1 ISZERO PUSH2 0x8B7 JUMPI PUSH1 0x0 DUP1 REVERT JUMPDEST POP PUSH2 0x8D2 PUSH1 0x4 DUP1 CALLDATASIZE SUB DUP2 ADD SWAP1 PUSH2 0x8CD SWAP2 SWAP1 PUSH2 0x3A9C JUMP JUMPDEST PUSH2 0x1F17 JUMP JUMPDEST PUSH1 0x40 MLOAD PUSH2 0x8DF SWAP2 SWAP1 PUSH2 0x3AF7 JUMP JUMPDEST PUSH1 0x40 MLOAD DUP1 SWAP2 SUB SWAP1 RETURN JUMPDEST CALLVALUE DUP1 ISZERO PUSH2 0x8F4 JUMPI PUSH1 0x0 DUP1 REVERT JUMPDEST POP PUSH2 0x90F PUSH1 0x4 DUP1 CALLDATASIZE SUB DUP2 ADD SWAP1 PUSH2 0x90A SWAP2 SWAP1 PUSH2 0x3E3B JUMP JUMPDEST PUSH2 0x1F35 JUMP JUMPDEST STOP JUMPDEST CALLVALUE DUP1 ISZERO PUSH2 0x91D JUMPI PUSH1 0x0 DUP1 REVERT JUMPDEST POP PUSH2 0x926 PUSH2 0x1FCE JUMP JUMPDEST PUSH1 0x40 MLOAD PUSH2 0x933 SWAP2 SWAP1 PUSH2 0x3AF7 JUMP JUMPDEST PUSH1 0x40 MLOAD DUP1 SWAP2 SUB SWAP1 RETURN JUMPDEST CALLVALUE DUP1 ISZERO PUSH2 0x948 JUMPI PUSH1 0x0 DUP1 REVERT JUMPDEST POP PUSH2 0x963 PUSH1 0x4 DUP1 CALLDATASIZE SUB DUP2 ADD SWAP1 PUSH2 0x95E SWAP2 SWAP1 PUSH2 0x3B3F JUMP JUMPDEST PUSH2 0x1FE1 JUMP JUMPDEST STOP JUMPDEST CALLVALUE DUP1 ISZERO PUSH2 0x971 JUMPI PUSH1 0x0 DUP1 REVERT JUMPDEST POP PUSH2 0x97A PUSH2 0x20AC JUMP JUMPDEST PUSH1 0x40 MLOAD PUSH2 0x987 SWAP2 SWAP1 PUSH2 0x3AF7 JUMP JUMPDEST PUSH1 0x40 MLOAD DUP1 SWAP2 SUB SWAP1 RETURN JUMPDEST CALLVALUE DUP1 ISZERO PUSH2 0x99C JUMPI PUSH1 0x0 DUP1 REVERT JUMPDEST POP PUSH2 0x9B7 PUSH1 0x4 DUP1 CALLDATASIZE SUB DUP2 ADD SWAP1 PUSH2 0x9B2 SWAP2 SWAP1 PUSH2 0x3B12 JUMP JUMPDEST PUSH2 0x20BF JUMP JUMPDEST STOP JUMPDEST CALLVALUE DUP1 ISZERO PUSH2 0x9C5 JUMPI PUSH1 0x0 DUP1 REVERT JUMPDEST POP PUSH2 0x9E0 PUSH1 0x4 DUP1 CALLDATASIZE SUB DUP2 ADD SWAP1 PUSH2 0x9DB SWAP2 SWAP1 PUSH2 0x3B3F JUMP JUMPDEST PUSH2 0x21EE JUMP JUMPDEST STOP JUMPDEST CALLVALUE DUP1 ISZERO PUSH2 0x9EE JUMPI PUSH1 0x0 DUP1 REVERT JUMPDEST POP PUSH2 0xA09 PUSH1 0x4 DUP1 CALLDATASIZE SUB DUP2 ADD SWAP1 PUSH2 0xA04 SWAP2 SWAP1 PUSH2 0x3E68 JUMP JUMPDEST PUSH2 0x22FF JUMP JUMPDEST PUSH1 0x40 MLOAD PUSH2 0xA16 SWAP2 SWAP1 PUSH2 0x3BF5 JUMP JUMPDEST PUSH1 0x40 MLOAD DUP1 SWAP2 SUB SWAP1 RETURN JUMPDEST CALLVALUE DUP1 ISZERO PUSH2 0xA2B JUMPI PUSH1 0x0 DUP1 REVERT JUMPDEST POP PUSH2 0xA46 PUSH1 0x4 DUP1 CALLDATASIZE SUB DUP2 ADD SWAP1 PUSH2 0xA41 SWAP2 SWAP1 PUSH2 0x3B12 JUMP JUMPDEST PUSH2 0x2386 JUMP JUMPDEST STOP JUMPDEST CALLVALUE DUP1 ISZERO PUSH2 0xA54 JUMPI PUSH1 0x0 DUP1 REVERT JUMPDEST POP PUSH2 0xA6F PUSH1 0x4 DUP1 CALLDATASIZE SUB DUP2 ADD SWAP1 PUSH2 0xA6A SWAP2 SWAP1 PUSH2 0x3B12 JUMP JUMPDEST PUSH2 0x24CC JUMP JUMPDEST STOP JUMPDEST CALLVALUE DUP1 ISZERO PUSH2 0xA7D JUMPI PUSH1 0x0 DUP1 REVERT JUMPDEST POP PUSH2 0xA98 PUSH1 0x4 DUP1 CALLDATASIZE SUB DUP2 ADD SWAP1 PUSH2 0xA93 SWAP2 SWAP1 PUSH2 0x3EE6 JUMP JUMPDEST PUSH2 0x2674 JUMP JUMPDEST STOP JUMPDEST CALLVALUE DUP1 ISZERO PUSH2 0xAA6 JUMPI PUSH1 0x0 DUP1 REVERT JUMPDEST POP PUSH2 0xAC1 PUSH1 0x4 DUP1 CALLDATASIZE SUB DUP2 ADD SWAP1 PUSH2 0xABC SWAP2 SWAP1 PUSH2 0x3E3B JUMP JUMPDEST PUSH2 0x281D JUMP JUMPDEST STOP JUMPDEST PUSH1 0x60 PUSH1 0x40 MLOAD DUP1 PUSH1 0x40 ADD PUSH1 0x40 MSTORE DUP1 PUSH1 0x5 DUP2 MSTORE PUSH1 0x20 ADD PUSH32 0x584F444558000000000000000000000000000000000000000000000000000000 DUP2 MSTORE POP SWAP1 POP SWAP1 JUMP JUMPDEST PUSH1 0x0 PUSH2 0xB14 PUSH2 0xB0D PUSH2 0x2919 JUMP JUMPDEST DUP5 DUP5 PUSH2 0x2921 JUMP JUMPDEST PUSH1 0x1 SWAP1 POP SWAP3 SWAP2 POP POP JUMP JUMPDEST PUSH2 0xB26 PUSH2 0x2919 JUMP JUMPDEST PUSH20 0xFFFFFFFFFFFFFFFFFFFFFFFFFFFFFFFFFFFFFFFF AND PUSH2 0xB44 PUSH2 0x1CA1 JUMP JUMPDEST PUSH20 0xFFFFFFFFFFFFFFFFFFFFFFFFFFFFFFFFFFFFFFFF AND EQ PUSH2 0xB9A JUMPI PUSH1 0x40 MLOAD PUSH32 0x8C379A000000000000000000000000000000000000000000000000000000000 DUP2 MSTORE PUSH1 0x4 ADD PUSH2 0xB91 SWAP1 PUSH2 0x3F5F JUMP JUMPDEST PUSH1 0x40 MLOAD DUP1 SWAP2 SUB SWAP1 REVERT JUMPDEST PUSH1 0x0 PUSH20 0xFFFFFFFFFFFFFFFFFFFFFFFFFFFFFFFFFFFFFFFF AND DUP2 PUSH20 0xFFFFFFFFFFFFFFFFFFFFFFFFFFFFFFFFFFFFFFFF AND SUB PUSH2 0xC09 JUMPI PUSH1 0x40 MLOAD PUSH32 0x8C379A000000000000000000000000000000000000000000000000000000000 DUP2 MSTORE PUSH1 0x4 ADD PUSH2 0xC00 SWAP1 PUSH2 0x3FCB JUMP JUMPDEST PUSH1 0x40 MLOAD DUP1 SWAP2 SUB SWAP1 REVERT JUMPDEST PUSH1 0x0 DUP2 SWAP1 POP DUP1 PUSH20 0xFFFFFFFFFFFFFFFFFFFFFFFFFFFFFFFFFFFFFFFF AND PUSH4 0xC45A0155 PUSH1 0x40 MLOAD DUP2 PUSH4 0xFFFFFFFF AND PUSH1 0xE0 SHL DUP2 MSTORE PUSH1 0x4 ADD PUSH1 0x20 PUSH1 0x40 MLOAD DUP1 DUP4 SUB DUP2 DUP7 GAS STATICCALL ISZERO DUP1 ISZERO PUSH2 0xC59 JUMPI RETURNDATASIZE PUSH1 0x0 DUP1 RETURNDATACOPY RETURNDATASIZE PUSH1 0x0 REVERT JUMPDEST POP POP POP POP PUSH1 0x40 MLOAD RETURNDATASIZE PUSH1 0x1F NOT PUSH1 0x1F DUP3 ADD AND DUP3 ADD DUP1 PUSH1 0x40 MSTORE POP DUP2 ADD SWAP1 PUSH2 0xC7D SWAP2 SWAP1 PUSH2 0x4000 JUMP JUMPDEST PUSH20 0xFFFFFFFFFFFFFFFFFFFFFFFFFFFFFFFFFFFFFFFF AND PUSH4 0xC9C65396 ADDRESS DUP4 PUSH20 0xFFFFFFFFFFFFFFFFFFFFFFFFFFFFFFFFFFFFFFFF AND PUSH4 0xAD5C4648 PUSH1 0x40 MLOAD DUP2 PUSH4 0xFFFFFFFF AND PUSH1 0xE0 SHL DUP2 MSTORE PUSH1 0x4 ADD PUSH1 0x20 PUSH1 0x40 MLOAD DUP1 DUP4 SUB DUP2 DUP7 GAS STATICCALL ISZERO DUP1 ISZERO PUSH2 0xCE4 JUMPI RETURNDATASIZE PUSH1 0x0 DUP1 RETURNDATACOPY RETURNDATASIZE PUSH1 0x0 REVERT JUMPDEST POP POP POP POP PUSH1 0x40 MLOAD RETURNDATASIZE PUSH1 0x1F NOT PUSH1 0x1F DUP3 ADD AND DUP3 ADD DUP1 PUSH1 0x40 MSTORE POP DUP2 ADD SWAP1 PUSH2 0xD08 SWAP2 SWAP1 PUSH2 0x4000 JUMP JUMPDEST PUSH1 0x40 MLOAD DUP4 PUSH4 0xFFFFFFFF AND PUSH1 0xE0 SHL DUP2 MSTORE PUSH1 0x4 ADD PUSH2 0xD25 SWAP3 SWAP2 SWAP1 PUSH2 0x402D JUMP JUMPDEST PUSH1 0x20 PUSH1 0x40 MLOAD DUP1 DUP4 SUB DUP2 PUSH1 0x0 DUP8 GAS CALL ISZERO DUP1 ISZERO PUSH2 0xD44 JUMPI RETURNDATASIZE PUSH1 0x0 DUP1 RETURNDATACOPY RETURNDATASIZE PUSH1 0x0 REVERT JUMPDEST POP POP POP POP PUSH1 0x40 MLOAD RETURNDATASIZE PUSH1 0x1F NOT PUSH1 0x1F DUP3 ADD AND DUP3 ADD DUP1 PUSH1 0x40 MSTORE POP DUP2 ADD SWAP1 PUSH2 0xD68 SWAP2 SWAP1 PUSH2 0x4000 JUMP JUMPDEST PUSH1 0x10 PUSH1 0x0 PUSH2 0x100 EXP DUP2 SLOAD DUP2 PUSH20 0xFFFFFFFFFFFFFFFFFFFFFFFFFFFFFFFFFFFFFFFF MUL NOT AND SWAP1 DUP4 PUSH20 0xFFFFFFFFFFFFFFFFFFFFFFFFFFFFFFFFFFFFFFFF AND MUL OR SWAP1 SSTORE POP DUP1 PUSH1 0xF PUSH1 0x1 PUSH2 0x100 EXP DUP2 SLOAD DUP2 PUSH20 0xFFFFFFFFFFFFFFFFFFFFFFFFFFFFFFFFFFFFFFFF MUL NOT AND SWAP1 DUP4 PUSH20 0xFFFFFFFFFFFFFFFFFFFFFFFFFFFFFFFFFFFFFFFF AND MUL OR SWAP1 SSTORE POP POP POP JUMP JUMPDEST PUSH2 0xDF5 PUSH2 0x2919 JUMP JUMPDEST PUSH20 0xFFFFFFFFFFFFFFFFFFFFFFFFFFFFFFFFFFFFFFFF AND PUSH2 0xE13 PUSH2 0x1CA1 JUMP JUMPDEST PUSH20 0xFFFFFFFFFFFFFFFFFFFFFFFFFFFFFFFFFFFFFFFF AND EQ PUSH2 0xE69 JUMPI PUSH1 0x40 MLOAD PUSH32 0x8C379A000000000000000000000000000000000000000000000000000000000 DUP2 MSTORE PUSH1 0x4 ADD PUSH2 0xE60 SWAP1 PUSH2 0x3F5F JUMP JUMPDEST PUSH1 0x40 MLOAD DUP1 SWAP2 SUB SWAP1 REVERT JUMPDEST PUSH2 0x2710 DUP2 PUSH12 0x204FCE5E3E25026110000000 PUSH2 0xE84 SWAP2 SWAP1 PUSH2 0x4085 JUMP JUMPDEST PUSH2 0xE8E SWAP2 SWAP1 PUSH2 0x40F6 JUMP JUMPDEST PUSH1 0x9 DUP2 SWAP1 SSTORE POP POP JUMP JUMPDEST PUSH1 0xF PUSH1 0x1 SWAP1 SLOAD SWAP1 PUSH2 0x100 EXP SWAP1 DIV PUSH20 0xFFFFFFFFFFFFFFFFFFFFFFFFFFFFFFFFFFFFFFFF AND DUP2 JUMP JUMPDEST PUSH1 0x0 PUSH12 0x204FCE5E3E25026110000000 SWAP1 POP SWAP1 JUMP JUMPDEST PUSH2 0xED9 PUSH2 0x2919 JUMP JUMPDEST PUSH20 0xFFFFFFFFFFFFFFFFFFFFFFFFFFFFFFFFFFFFFFFF AND PUSH2 0xEF7 PUSH2 0x1CA1 JUMP JUMPDEST PUSH20 0xFFFFFFFFFFFFFFFFFFFFFFFFFFFFFFFFFFFFFFFF AND EQ PUSH2 0xF4D JUMPI PUSH1 0x40 MLOAD PUSH32 0x8C379A000000000000000000000000000000000000000000000000000000000 DUP2 MSTORE PUSH1 0x4 ADD PUSH2 0xF44 SWAP1 PUSH2 0x3F5F JUMP JUMPDEST PUSH1 0x40 MLOAD DUP1 SWAP2 SUB SWAP1 REVERT JUMPDEST PUSH1 0x0 DUP1 PUSH1 0x0 JUMPDEST DUP5 DUP5 SWAP1 POP DUP2 LT ISZERO PUSH2 0x1081 JUMPI GAS DUP3 LT ISZERO PUSH2 0x1070 JUMPI GAS SWAP3 POP PUSH1 0x4 PUSH1 0x0 DUP7 DUP7 DUP5 DUP2 DUP2 LT PUSH2 0xF80 JUMPI PUSH2 0xF7F PUSH2 0x4127 JUMP JUMPDEST JUMPDEST SWAP1 POP PUSH1 0x20 MUL ADD PUSH1 0x20 DUP2 ADD SWAP1 PUSH2 0xF95 SWAP2 SWAP1 PUSH2 0x3B12 JUMP JUMPDEST PUSH20 0xFFFFFFFFFFFFFFFFFFFFFFFFFFFFFFFFFFFFFFFF AND PUSH20 0xFFFFFFFFFFFFFFFFFFFFFFFFFFFFFFFFFFFFFFFF AND DUP2 MSTORE PUSH1 0x20 ADD SWAP1 DUP2 MSTORE PUSH1 0x20 ADD PUSH1 0x0 KECCAK256 PUSH1 0x0 SWAP1 SLOAD SWAP1 PUSH2 0x100 EXP SWAP1 DIV PUSH1 0xFF AND PUSH2 0x1061 JUMPI PUSH1 0x1 PUSH1 0x4 PUSH1 0x0 DUP8 DUP8 DUP6 DUP2 DUP2 LT PUSH2 0xFFA JUMPI PUSH2 0xFF9 PUSH2 0x4127 JUMP JUMPDEST JUMPDEST SWAP1 POP PUSH1 0x20 MUL ADD PUSH1 0x20 DUP2 ADD SWAP1 PUSH2 0x100F SWAP2 SWAP1 PUSH2 0x3B12 JUMP JUMPDEST PUSH20 0xFFFFFFFFFFFFFFFFFFFFFFFFFFFFFFFFFFFFFFFF AND PUSH20 0xFFFFFFFFFFFFFFFFFFFFFFFFFFFFFFFFFFFFFFFF AND DUP2 MSTORE PUSH1 0x20 ADD SWAP1 DUP2 MSTORE PUSH1 0x20 ADD PUSH1 0x0 KECCAK256 PUSH1 0x0 PUSH2 0x100 EXP DUP2 SLOAD DUP2 PUSH1 0xFF MUL NOT AND SWAP1 DUP4 ISZERO ISZERO MUL OR SWAP1 SSTORE POP JUMPDEST GAS DUP4 PUSH2 0x106D SWAP2 SWAP1 PUSH2 0x4156 JUMP JUMPDEST SWAP2 POP JUMPDEST DUP1 PUSH2 0x107A SWAP1 PUSH2 0x418A JUMP JUMPDEST SWAP1 POP PUSH2 0xF53 JUMP JUMPDEST POP POP POP POP POP JUMP JUMPDEST PUSH1 0x4 PUSH1 0x20 MSTORE DUP1 PUSH1 0x0 MSTORE PUSH1 0x40 PUSH1 0x0 KECCAK256 PUSH1 0x0 SWAP2 POP SLOAD SWAP1 PUSH2 0x100 EXP SWAP1 DIV PUSH1 0xFF AND DUP2 JUMP JUMPDEST PUSH1 0x0 PUSH2 0x10B5 DUP5 DUP5 DUP5 PUSH2 0x2AB5 JUMP JUMPDEST PUSH2 0x1176 DUP5 PUSH2 0x10C1 PUSH2 0x2919 JUMP JUMPDEST PUSH2 0x1171 DUP6 PUSH1 0x40 MLOAD DUP1 PUSH1 0x60 ADD PUSH1 0x40 MSTORE DUP1 PUSH1 0x28 DUP2 MSTORE PUSH1 0x20 ADD PUSH2 0x490F PUSH1 0x28 SWAP2 CODECOPY PUSH1 0x2 PUSH1 0x0 DUP12 PUSH20 0xFFFFFFFFFFFFFFFFFFFFFFFFFFFFFFFFFFFFFFFF AND PUSH20 0xFFFFFFFFFFFFFFFFFFFFFFFFFFFFFFFFFFFFFFFF AND DUP2 MSTORE PUSH1 0x20 ADD SWAP1 DUP2 MSTORE PUSH1 0x20 ADD PUSH1 0x0 KECCAK256 PUSH1 0x0 PUSH2 0x1127 PUSH2 0x2919 JUMP JUMPDEST PUSH20 0xFFFFFFFFFFFFFFFFFFFFFFFFFFFFFFFFFFFFFFFF AND PUSH20 0xFFFFFFFFFFFFFFFFFFFFFFFFFFFFFFFFFFFFFFFF AND DUP2 MSTORE PUSH1 0x20 ADD SWAP1 DUP2 MSTORE PUSH1 0x20 ADD PUSH1 0x0 KECCAK256 SLOAD PUSH2 0x32B7 SWAP1 SWAP3 SWAP2 SWAP1 PUSH4 0xFFFFFFFF AND JUMP JUMPDEST PUSH2 0x2921 JUMP JUMPDEST PUSH1 0x1 SWAP1 POP SWAP4 SWAP3 POP POP POP JUMP JUMPDEST PUSH1 0x5 PUSH1 0x0 SWAP1 SLOAD SWAP1 PUSH2 0x100 EXP SWAP1 DIV PUSH1 0xFF AND DUP2 JUMP JUMPDEST PUSH1 0xE SLOAD DUP2 JUMP JUMPDEST PUSH1 0x0 PUSH2 0x11A4 PUSH2 0x2919 JUMP JUMPDEST PUSH20 0xFFFFFFFFFFFFFFFFFFFFFFFFFFFFFFFFFFFFFFFF AND PUSH2 0x11C2 PUSH2 0x1CA1 JUMP JUMPDEST PUSH20 0xFFFFFFFFFFFFFFFFFFFFFFFFFFFFFFFFFFFFFFFF AND EQ PUSH2 0x1218 JUMPI PUSH1 0x40 MLOAD PUSH32 0x8C379A000000000000000000000000000000000000000000000000000000000 DUP2 MSTORE PUSH1 0x4 ADD PUSH2 0x120F SWAP1 PUSH2 0x3F5F JUMP JUMPDEST PUSH1 0x40 MLOAD DUP1 SWAP2 SUB SWAP1 REVERT JUMPDEST PUSH1 0x0 PUSH20 0xFFFFFFFFFFFFFFFFFFFFFFFFFFFFFFFFFFFFFFFF AND DUP5 PUSH20 0xFFFFFFFFFFFFFFFFFFFFFFFFFFFFFFFFFFFFFFFF AND EQ ISZERO DUP1 ISZERO PUSH2 0x1282 JUMPI POP PUSH1 0x0 PUSH20 0xFFFFFFFFFFFFFFFFFFFFFFFFFFFFFFFFFFFFFFFF AND DUP4 PUSH20 0xFFFFFFFFFFFFFFFFFFFFFFFFFFFFFFFFFFFFFFFF AND EQ ISZERO JUMPDEST PUSH2 0x12C1 JUMPI PUSH1 0x40 MLOAD PUSH32 0x8C379A000000000000000000000000000000000000000000000000000000000 DUP2 MSTORE PUSH1 0x4 ADD PUSH2 0x12B8 SWAP1 PUSH2 0x3FCB JUMP JUMPDEST PUSH1 0x40 MLOAD DUP1 SWAP2 SUB SWAP1 REVERT JUMPDEST ADDRESS PUSH20 0xFFFFFFFFFFFFFFFFFFFFFFFFFFFFFFFFFFFFFFFF AND DUP5 PUSH20 0xFFFFFFFFFFFFFFFFFFFFFFFFFFFFFFFFFFFFFFFF AND SUB PUSH2 0x132F JUMPI PUSH1 0x40 MLOAD PUSH32 0x8C379A000000000000000000000000000000000000000000000000000000000 DUP2 MSTORE PUSH1 0x4 ADD PUSH2 0x1326 SWAP1 PUSH2 0x421E JUMP JUMPDEST PUSH1 0x40 MLOAD DUP1 SWAP2 SUB SWAP1 REVERT JUMPDEST PUSH1 0x0 DUP5 PUSH20 0xFFFFFFFFFFFFFFFFFFFFFFFFFFFFFFFFFFFFFFFF AND PUSH4 0x70A08231 ADDRESS PUSH1 0x40 MLOAD DUP3 PUSH4 0xFFFFFFFF AND PUSH1 0xE0 SHL DUP2 MSTORE PUSH1 0x4 ADD PUSH2 0x136A SWAP2 SWAP1 PUSH2 0x3D5B JUMP JUMPDEST PUSH1 0x20 PUSH1 0x40 MLOAD DUP1 DUP4 SUB DUP2 DUP7 GAS STATICCALL ISZERO DUP1 ISZERO PUSH2 0x1387 JUMPI RETURNDATASIZE PUSH1 0x0 DUP1 RETURNDATACOPY RETURNDATASIZE PUSH1 0x0 REVERT JUMPDEST POP POP POP POP PUSH1 0x40 MLOAD RETURNDATASIZE PUSH1 0x1F NOT PUSH1 0x1F DUP3 ADD AND DUP3 ADD DUP1 PUSH1 0x40 MSTORE POP DUP2 ADD SWAP1 PUSH2 0x13AB SWAP2 SWAP1 PUSH2 0x4253 JUMP JUMPDEST SWAP1 POP DUP1 DUP4 GT ISZERO PUSH2 0x13B9 JUMPI DUP1 SWAP3 POP JUMPDEST DUP5 PUSH20 0xFFFFFFFFFFFFFFFFFFFFFFFFFFFFFFFFFFFFFFFF AND PUSH4 0xA9059CBB DUP6 DUP6 PUSH1 0x40 MLOAD DUP4 PUSH4 0xFFFFFFFF AND PUSH1 0xE0 SHL DUP2 MSTORE PUSH1 0x4 ADD PUSH2 0x13F4 SWAP3 SWAP2 SWAP1 PUSH2 0x4280 JUMP JUMPDEST PUSH1 0x20 PUSH1 0x40 MLOAD DUP1 DUP4 SUB DUP2 PUSH1 0x0 DUP8 GAS CALL ISZERO DUP1 ISZERO PUSH2 0x1413 JUMPI RETURNDATASIZE PUSH1 0x0 DUP1 RETURNDATACOPY RETURNDATASIZE PUSH1 0x0 REVERT JUMPDEST POP POP POP POP PUSH1 0x40 MLOAD RETURNDATASIZE PUSH1 0x1F NOT PUSH1 0x1F DUP3 ADD AND DUP3 ADD DUP1 PUSH1 0x40 MSTORE POP DUP2 ADD SWAP1 PUSH2 0x1437 SWAP2 SWAP1 PUSH2 0x42BE JUMP JUMPDEST SWAP2 POP POP SWAP4 SWAP3 POP POP POP JUMP JUMPDEST PUSH1 0x0 PUSH1 0x12 SWAP1 POP SWAP1 JUMP JUMPDEST PUSH2 0x1452 PUSH2 0x2919 JUMP JUMPDEST PUSH20 0xFFFFFFFFFFFFFFFFFFFFFFFFFFFFFFFFFFFFFFFF AND PUSH2 0x1470 PUSH2 0x1CA1 JUMP JUMPDEST PUSH20 0xFFFFFFFFFFFFFFFFFFFFFFFFFFFFFFFFFFFFFFFF AND EQ PUSH2 0x14C6 JUMPI PUSH1 0x40 MLOAD PUSH32 0x8C379A000000000000000000000000000000000000000000000000000000000 DUP2 MSTORE PUSH1 0x4 ADD PUSH2 0x14BD SWAP1 PUSH2 0x3F5F JUMP JUMPDEST PUSH1 0x40 MLOAD DUP1 SWAP2 SUB SWAP1 REVERT JUMPDEST PUSH1 0x0 PUSH20 0xFFFFFFFFFFFFFFFFFFFFFFFFFFFFFFFFFFFFFFFF AND DUP2 PUSH20 0xFFFFFFFFFFFFFFFFFFFFFFFFFFFFFFFFFFFFFFFF AND SUB PUSH2 0x1535 JUMPI PUSH1 0x40 MLOAD PUSH32 0x8C379A000000000000000000000000000000000000000000000000000000000 DUP2 MSTORE PUSH1 0x4 ADD PUSH2 0x152C SWAP1 PUSH2 0x3FCB JUMP JUMPDEST PUSH1 0x40 MLOAD DUP1 SWAP2 SUB SWAP1 REVERT JUMPDEST PUSH1 0x0 DUP2 SWAP1 POP DUP1 PUSH1 0xF PUSH1 0x1 PUSH2 0x100 EXP DUP2 SLOAD DUP2 PUSH20 0xFFFFFFFFFFFFFFFFFFFFFFFFFFFFFFFFFFFFFFFF MUL NOT AND SWAP1 DUP4 PUSH20 0xFFFFFFFFFFFFFFFFFFFFFFFFFFFFFFFFFFFFFFFF AND MUL OR SWAP1 SSTORE POP POP POP JUMP JUMPDEST PUSH1 0x0 PUSH2 0x1628 PUSH2 0x158C PUSH2 0x2919 JUMP JUMPDEST DUP5 PUSH2 0x1623 DUP6 PUSH1 0x2 PUSH1 0x0 PUSH2 0x159D PUSH2 0x2919 JUMP JUMPDEST PUSH20 0xFFFFFFFFFFFFFFFFFFFFFFFFFFFFFFFFFFFFFFFF AND PUSH20 0xFFFFFFFFFFFFFFFFFFFFFFFFFFFFFFFFFFFFFFFF AND DUP2 MSTORE PUSH1 0x20 ADD SWAP1 DUP2 MSTORE PUSH1 0x20 ADD PUSH1 0x0 KECCAK256 PUSH1 0x0 DUP10 PUSH20 0xFFFFFFFFFFFFFFFFFFFFFFFFFFFFFFFFFFFFFFFF AND PUSH20 0xFFFFFFFFFFFFFFFFFFFFFFFFFFFFFFFFFFFFFFFF AND DUP2 MSTORE PUSH1 0x20 ADD SWAP1 DUP2 MSTORE PUSH1 0x20 ADD PUSH1 0x0 KECCAK256 SLOAD PUSH2 0x330C SWAP1 SWAP2 SWAP1 PUSH4 0xFFFFFFFF AND JUMP JUMPDEST PUSH2 0x2921 JUMP JUMPDEST PUSH1 0x1 SWAP1 POP SWAP3 SWAP2 POP POP JUMP JUMPDEST PUSH2 0x163A PUSH2 0x2919 JUMP JUMPDEST PUSH20 0xFFFFFFFFFFFFFFFFFFFFFFFFFFFFFFFFFFFFFFFF AND PUSH2 0x1658 PUSH2 0x1CA1 JUMP JUMPDEST PUSH20 0xFFFFFFFFFFFFFFFFFFFFFFFFFFFFFFFFFFFFFFFF AND EQ PUSH2 0x16AE JUMPI PUSH1 0x40 MLOAD PUSH32 0x8C379A000000000000000000000000000000000000000000000000000000000 DUP2 MSTORE PUSH1 0x4 ADD PUSH2 0x16A5 SWAP1 PUSH2 0x3F5F JUMP JUMPDEST PUSH1 0x40 MLOAD DUP1 SWAP2 SUB SWAP1 REVERT JUMPDEST PUSH1 0x0 DUP1 PUSH1 0x0 JUMPDEST DUP5 DUP5 SWAP1 POP DUP2 LT ISZERO PUSH2 0x17E3 JUMPI GAS DUP3 LT ISZERO PUSH2 0x17D2 JUMPI GAS SWAP3 POP PUSH1 0x4 PUSH1 0x0 DUP7 DUP7 DUP5 DUP2 DUP2 LT PUSH2 0x16E1 JUMPI PUSH2 0x16E0 PUSH2 0x4127 JUMP JUMPDEST JUMPDEST SWAP1 POP PUSH1 0x20 MUL ADD PUSH1 0x20 DUP2 ADD SWAP1 PUSH2 0x16F6 SWAP2 SWAP1 PUSH2 0x3B12 JUMP JUMPDEST PUSH20 0xFFFFFFFFFFFFFFFFFFFFFFFFFFFFFFFFFFFFFFFF AND PUSH20 0xFFFFFFFFFFFFFFFFFFFFFFFFFFFFFFFFFFFFFFFF AND DUP2 MSTORE PUSH1 0x20 ADD SWAP1 DUP2 MSTORE PUSH1 0x20 ADD PUSH1 0x0 KECCAK256 PUSH1 0x0 SWAP1 SLOAD SWAP1 PUSH2 0x100 EXP SWAP1 DIV PUSH1 0xFF AND ISZERO PUSH2 0x17C3 JUMPI PUSH1 0x0 PUSH1 0x4 PUSH1 0x0 DUP8 DUP8 DUP6 DUP2 DUP2 LT PUSH2 0x175C JUMPI PUSH2 0x175B PUSH2 0x4127 JUMP JUMPDEST JUMPDEST SWAP1 POP PUSH1 0x20 MUL ADD PUSH1 0x20 DUP2 ADD SWAP1 PUSH2 0x1771 SWAP2 SWAP1 PUSH2 0x3B12 JUMP JUMPDEST PUSH20 0xFFFFFFFFFFFFFFFFFFFFFFFFFFFFFFFFFFFFFFFF AND PUSH20 0xFFFFFFFFFFFFFFFFFFFFFFFFFFFFFFFFFFFFFFFF AND DUP2 MSTORE PUSH1 0x20 ADD SWAP1 DUP2 MSTORE PUSH1 0x20 ADD PUSH1 0x0 KECCAK256 PUSH1 0x0 PUSH2 0x100 EXP DUP2 SLOAD DUP2 PUSH1 0xFF MUL NOT AND SWAP1 DUP4 ISZERO ISZERO MUL OR SWAP1 SSTORE POP JUMPDEST GAS DUP4 PUSH2 0x17CF SWAP2 SWAP1 PUSH2 0x4156 JUMP JUMPDEST SWAP2 POP JUMPDEST DUP1 PUSH2 0x17DC SWAP1 PUSH2 0x418A JUMP JUMPDEST SWAP1 POP PUSH2 0x16B4 JUMP JUMPDEST POP POP POP POP POP JUMP JUMPDEST PUSH1 0xC SLOAD DUP2 JUMP JUMPDEST PUSH2 0x17F8 PUSH2 0x2919 JUMP JUMPDEST PUSH20 0xFFFFFFFFFFFFFFFFFFFFFFFFFFFFFFFFFFFFFFFF AND PUSH2 0x1816 PUSH2 0x1CA1 JUMP JUMPDEST PUSH20 0xFFFFFFFFFFFFFFFFFFFFFFFFFFFFFFFFFFFFFFFF AND EQ PUSH2 0x186C JUMPI PUSH1 0x40 MLOAD PUSH32 0x8C379A000000000000000000000000000000000000000000000000000000000 DUP2 MSTORE PUSH1 0x4 ADD PUSH2 0x1863 SWAP1 PUSH2 0x3F5F JUMP JUMPDEST PUSH1 0x40 MLOAD DUP1 SWAP2 SUB SWAP1 REVERT JUMPDEST PUSH1 0x0 PUSH20 0xFFFFFFFFFFFFFFFFFFFFFFFFFFFFFFFFFFFFFFFF AND DUP2 PUSH20 0xFFFFFFFFFFFFFFFFFFFFFFFFFFFFFFFFFFFFFFFF AND SUB PUSH2 0x18DB JUMPI PUSH1 0x40 MLOAD PUSH32 0x8C379A000000000000000000000000000000000000000000000000000000000 DUP2 MSTORE PUSH1 0x4 ADD PUSH2 0x18D2 SWAP1 PUSH2 0x3FCB JUMP JUMPDEST PUSH1 0x40 MLOAD DUP1 SWAP2 SUB SWAP1 REVERT JUMPDEST PUSH1 0x1 PUSH1 0x3 PUSH1 0x0 DUP4 PUSH20 0xFFFFFFFFFFFFFFFFFFFFFFFFFFFFFFFFFFFFFFFF AND PUSH20 0xFFFFFFFFFFFFFFFFFFFFFFFFFFFFFFFFFFFFFFFF AND DUP2 MSTORE PUSH1 0x20 ADD SWAP1 DUP2 MSTORE PUSH1 0x20 ADD PUSH1 0x0 KECCAK256 PUSH1 0x0 PUSH2 0x100 EXP DUP2 SLOAD DUP2 PUSH1 0xFF MUL NOT AND SWAP1 DUP4 ISZERO ISZERO MUL OR SWAP1 SSTORE POP POP JUMP JUMPDEST PUSH1 0xB SLOAD DUP2 JUMP JUMPDEST PUSH1 0x10 PUSH1 0x0 SWAP1 SLOAD SWAP1 PUSH2 0x100 EXP SWAP1 DIV PUSH20 0xFFFFFFFFFFFFFFFFFFFFFFFFFFFFFFFFFFFFFFFF AND DUP2 JUMP JUMPDEST PUSH1 0x7 SLOAD DUP2 JUMP JUMPDEST PUSH1 0xD SLOAD DUP2 JUMP JUMPDEST PUSH2 0x1976 PUSH2 0x2919 JUMP JUMPDEST PUSH20 0xFFFFFFFFFFFFFFFFFFFFFFFFFFFFFFFFFFFFFFFF AND PUSH2 0x1994 PUSH2 0x1CA1 JUMP JUMPDEST PUSH20 0xFFFFFFFFFFFFFFFFFFFFFFFFFFFFFFFFFFFFFFFF AND EQ PUSH2 0x19EA JUMPI PUSH1 0x40 MLOAD PUSH32 0x8C379A000000000000000000000000000000000000000000000000000000000 DUP2 MSTORE PUSH1 0x4 ADD PUSH2 0x19E1 SWAP1 PUSH2 0x3F5F JUMP JUMPDEST PUSH1 0x40 MLOAD DUP1 SWAP2 SUB SWAP1 REVERT JUMPDEST PUSH1 0x19 DUP2 DUP4 PUSH2 0x19F8 SWAP2 SWAP1 PUSH2 0x42EB JUMP JUMPDEST GT ISZERO PUSH2 0x1A39 JUMPI PUSH1 0x40 MLOAD PUSH32 0x8C379A000000000000000000000000000000000000000000000000000000000 DUP2 MSTORE PUSH1 0x4 ADD PUSH2 0x1A30 SWAP1 PUSH2 0x436B JUMP JUMPDEST PUSH1 0x40 MLOAD DUP1 SWAP2 SUB SWAP1 REVERT JUMPDEST DUP1 PUSH1 0xD DUP2 SWAP1 SSTORE POP DUP2 PUSH1 0xC DUP2 SWAP1 SSTORE POP POP POP JUMP JUMPDEST PUSH1 0x0 PUSH1 0x1 PUSH1 0x0 DUP4 PUSH20 0xFFFFFFFFFFFFFFFFFFFFFFFFFFFFFFFFFFFFFFFF AND PUSH20 0xFFFFFFFFFFFFFFFFFFFFFFFFFFFFFFFFFFFFFFFF AND DUP2 MSTORE PUSH1 0x20 ADD SWAP1 DUP2 MSTORE PUSH1 0x20 ADD PUSH1 0x0 KECCAK256 SLOAD SWAP1 POP SWAP2 SWAP1 POP JUMP JUMPDEST PUSH2 0x1A9C PUSH2 0x2919 JUMP JUMPDEST PUSH20 0xFFFFFFFFFFFFFFFFFFFFFFFFFFFFFFFFFFFFFFFF AND PUSH2 0x1ABA PUSH2 0x1CA1 JUMP JUMPDEST PUSH20 0xFFFFFFFFFFFFFFFFFFFFFFFFFFFFFFFFFFFFFFFF AND EQ PUSH2 0x1B10 JUMPI PUSH1 0x40 MLOAD PUSH32 0x8C379A000000000000000000000000000000000000000000000000000000000 DUP2 MSTORE PUSH1 0x4 ADD PUSH2 0x1B07 SWAP1 PUSH2 0x3F5F JUMP JUMPDEST PUSH1 0x40 MLOAD DUP1 SWAP2 SUB SWAP1 REVERT JUMPDEST PUSH1 0x0 PUSH20 0xFFFFFFFFFFFFFFFFFFFFFFFFFFFFFFFFFFFFFFFF AND PUSH1 0x0 DUP1 SLOAD SWAP1 PUSH2 0x100 EXP SWAP1 DIV PUSH20 0xFFFFFFFFFFFFFFFFFFFFFFFFFFFFFFFFFFFFFFFF AND PUSH20 0xFFFFFFFFFFFFFFFFFFFFFFFFFFFFFFFFFFFFFFFF AND PUSH32 0x8BE0079C531659141344CD1FD0A4F28419497F9722A3DAAFE3B4186F6B6457E0 PUSH1 0x40 MLOAD PUSH1 0x40 MLOAD DUP1 SWAP2 SUB SWAP1 LOG3 PUSH1 0x0 DUP1 PUSH1 0x0 PUSH2 0x100 EXP DUP2 SLOAD DUP2 PUSH20 0xFFFFFFFFFFFFFFFFFFFFFFFFFFFFFFFFFFFFFFFF MUL NOT AND SWAP1 DUP4 PUSH20 0xFFFFFFFFFFFFFFFFFFFFFFFFFFFFFFFFFFFFFFFF AND MUL OR SWAP1 SSTORE POP JUMP JUMPDEST PUSH1 0x3 PUSH1 0x20 MSTORE DUP1 PUSH1 0x0 MSTORE PUSH1 0x40 PUSH1 0x0 KECCAK256 PUSH1 0x0 SWAP2 POP SLOAD SWAP1 PUSH2 0x100 EXP SWAP1 DIV PUSH1 0xFF AND DUP2 JUMP JUMPDEST PUSH2 0x1BF6 PUSH2 0x2919 JUMP JUMPDEST PUSH20 0xFFFFFFFFFFFFFFFFFFFFFFFFFFFFFFFFFFFFFFFF AND PUSH2 0x1C14 PUSH2 0x1CA1 JUMP JUMPDEST PUSH20 0xFFFFFFFFFFFFFFFFFFFFFFFFFFFFFFFFFFFFFFFF AND EQ PUSH2 0x1C6A JUMPI PUSH1 0x40 MLOAD PUSH32 0x8C379A000000000000000000000000000000000000000000000000000000000 DUP2 MSTORE PUSH1 0x4 ADD PUSH2 0x1C61 SWAP1 PUSH2 0x3F5F JUMP JUMPDEST PUSH1 0x40 MLOAD DUP1 SWAP2 SUB SWAP1 REVERT JUMPDEST DUP1 PUSH1 0x5 PUSH1 0x16 PUSH2 0x100 EXP DUP2 SLOAD DUP2 PUSH1 0xFF MUL NOT AND SWAP1 DUP4 PUSH1 0xFF AND MUL OR SWAP1 SSTORE POP POP JUMP JUMPDEST PUSH1 0x9 SLOAD DUP2 JUMP JUMPDEST PUSH1 0x10 PUSH1 0x15 SWAP1 SLOAD SWAP1 PUSH2 0x100 EXP SWAP1 DIV PUSH1 0xFF AND DUP2 JUMP JUMPDEST PUSH1 0x0 DUP1 PUSH1 0x0 SWAP1 SLOAD SWAP1 PUSH2 0x100 EXP SWAP1 DIV PUSH20 0xFFFFFFFFFFFFFFFFFFFFFFFFFFFFFFFFFFFFFFFF AND SWAP1 POP SWAP1 JUMP JUMPDEST PUSH1 0x60 PUSH1 0x40 MLOAD DUP1 PUSH1 0x40 ADD PUSH1 0x40 MSTORE DUP1 PUSH1 0x5 DUP2 MSTORE PUSH1 0x20 ADD PUSH32 0x584F444558000000000000000000000000000000000000000000000000000000 DUP2 MSTORE POP SWAP1 POP SWAP1 JUMP JUMPDEST PUSH2 0x1D0F PUSH2 0x2919 JUMP JUMPDEST PUSH20 0xFFFFFFFFFFFFFFFFFFFFFFFFFFFFFFFFFFFFFFFF AND PUSH2 0x1D2D PUSH2 0x1CA1 JUMP JUMPDEST PUSH20 0xFFFFFFFFFFFFFFFFFFFFFFFFFFFFFFFFFFFFFFFF AND EQ PUSH2 0x1D83 JUMPI PUSH1 0x40 MLOAD PUSH32 0x8C379A000000000000000000000000000000000000000000000000000000000 DUP2 MSTORE PUSH1 0x4 ADD PUSH2 0x1D7A SWAP1 PUSH2 0x3F5F JUMP JUMPDEST PUSH1 0x40 MLOAD DUP1 SWAP2 SUB SWAP1 REVERT JUMPDEST PUSH2 0x2710 DUP2 PUSH12 0x204FCE5E3E25026110000000 PUSH2 0x1D9E SWAP2 SWAP1 PUSH2 0x4085 JUMP JUMPDEST PUSH2 0x1DA8 SWAP2 SWAP1 PUSH2 0x40F6 JUMP JUMPDEST PUSH1 0x7 DUP2 SWAP1 SSTORE POP POP JUMP JUMPDEST PUSH2 0x1DB9 PUSH2 0x2919 JUMP JUMPDEST PUSH20 0xFFFFFFFFFFFFFFFFFFFFFFFFFFFFFFFFFFFFFFFF AND PUSH2 0x1DD7 PUSH2 0x1CA1 JUMP JUMPDEST PUSH20 0xFFFFFFFFFFFFFFFFFFFFFFFFFFFFFFFFFFFFFFFF AND EQ PUSH2 0x1E2D JUMPI PUSH1 0x40 MLOAD PUSH32 0x8C379A000000000000000000000000000000000000000000000000000000000 DUP2 MSTORE PUSH1 0x4 ADD PUSH2 0x1E24 SWAP1 PUSH2 0x3F5F JUMP JUMPDEST PUSH1 0x40 MLOAD DUP1 SWAP2 SUB SWAP1 REVERT JUMPDEST DUP1 PUSH1 0x5 PUSH1 0x0 PUSH2 0x100 EXP DUP2 SLOAD DUP2 PUSH1 0xFF MUL NOT AND SWAP1 DUP4 ISZERO ISZERO MUL OR SWAP1 SSTORE POP POP JUMP JUMPDEST PUSH1 0x0 PUSH2 0x1F0D PUSH2 0x1E57 PUSH2 0x2919 JUMP JUMPDEST DUP5 PUSH2 0x1F08 DUP6 PUSH1 0x40 MLOAD DUP1 PUSH1 0x60 ADD PUSH1 0x40 MSTORE DUP1 PUSH1 0x25 DUP2 MSTORE PUSH1 0x20 ADD PUSH2 0x4937 PUSH1 0x25 SWAP2 CODECOPY PUSH1 0x2 PUSH1 0x0 PUSH2 0x1E81 PUSH2 0x2919 JUMP JUMPDEST PUSH20 0xFFFFFFFFFFFFFFFFFFFFFFFFFFFFFFFFFFFFFFFF AND PUSH20 0xFFFFFFFFFFFFFFFFFFFFFFFFFFFFFFFFFFFFFFFF AND DUP2 MSTORE PUSH1 0x20 ADD SWAP1 DUP2 MSTORE PUSH1 0x20 ADD PUSH1 0x0 KECCAK256 PUSH1 0x0 DUP11 PUSH20 0xFFFFFFFFFFFFFFFFFFFFFFFFFFFFFFFFFFFFFFFF AND PUSH20 0xFFFFFFFFFFFFFFFFFFFFFFFFFFFFFFFFFFFFFFFF AND DUP2 MSTORE PUSH1 0x20 ADD SWAP1 DUP2 MSTORE PUSH1 0x20 ADD PUSH1 0x0 KECCAK256 SLOAD PUSH2 0x32B7 SWAP1 SWAP3 SWAP2 SWAP1 PUSH4 0xFFFFFFFF AND JUMP JUMPDEST PUSH2 0x2921 JUMP JUMPDEST PUSH1 0x1 SWAP1 POP SWAP3 SWAP2 POP POP JUMP JUMPDEST PUSH1 0x0 PUSH2 0x1F2B PUSH2 0x1F24 PUSH2 0x2919 JUMP JUMPDEST DUP5 DUP5 PUSH2 0x2AB5 JUMP JUMPDEST PUSH1 0x1 SWAP1 POP SWAP3 SWAP2 POP POP JUMP JUMPDEST PUSH2 0x1F3D PUSH2 0x2919 JUMP JUMPDEST PUSH20 0xFFFFFFFFFFFFFFFFFFFFFFFFFFFFFFFFFFFFFFFF AND PUSH2 0x1F5B PUSH2 0x1CA1 JUMP JUMPDEST PUSH20 0xFFFFFFFFFFFFFFFFFFFFFFFFFFFFFFFFFFFFFFFF AND EQ PUSH2 0x1FB1 JUMPI PUSH1 0x40 MLOAD PUSH32 0x8C379A000000000000000000000000000000000000000000000000000000000 DUP2 MSTORE PUSH1 0x4 ADD PUSH2 0x1FA8 SWAP1 PUSH2 0x3F5F JUMP JUMPDEST PUSH1 0x40 MLOAD DUP1 SWAP2 SUB SWAP1 REVERT JUMPDEST DUP1 PUSH1 0xF PUSH1 0x0 PUSH2 0x100 EXP DUP2 SLOAD DUP2 PUSH1 0xFF MUL NOT AND SWAP1 DUP4 ISZERO ISZERO MUL OR SWAP1 SSTORE POP POP JUMP JUMPDEST PUSH1 0x10 PUSH1 0x14 SWAP1 SLOAD SWAP1 PUSH2 0x100 EXP SWAP1 DIV PUSH1 0xFF AND DUP2 JUMP JUMPDEST PUSH2 0x1FE9 PUSH2 0x2919 JUMP JUMPDEST PUSH20 0xFFFFFFFFFFFFFFFFFFFFFFFFFFFFFFFFFFFFFFFF AND PUSH2 0x2007 PUSH2 0x1CA1 JUMP JUMPDEST PUSH20 0xFFFFFFFFFFFFFFFFFFFFFFFFFFFFFFFFFFFFFFFF AND EQ PUSH2 0x205D JUMPI PUSH1 0x40 MLOAD PUSH32 0x8C379A000000000000000000000000000000000000000000000000000000000 DUP2 MSTORE PUSH1 0x4 ADD PUSH2 0x2054 SWAP1 PUSH2 0x3F5F JUMP JUMPDEST PUSH1 0x40 MLOAD DUP1 SWAP2 SUB SWAP1 REVERT JUMPDEST PUSH1 0x6 SLOAD DUP2 GT ISZERO PUSH2 0x20A2 JUMPI PUSH1 0x40 MLOAD PUSH32 0x8C379A000000000000000000000000000000000000000000000000000000000 DUP2 MSTORE PUSH1 0x4 ADD PUSH2 0x2099 SWAP1 PUSH2 0x436B JUMP JUMPDEST PUSH1 0x40 MLOAD DUP1 SWAP2 SUB SWAP1 REVERT JUMPDEST DUP1 PUSH1 0xB DUP2 SWAP1 SSTORE POP POP JUMP JUMPDEST PUSH1 0xF PUSH1 0x0 SWAP1 SLOAD SWAP1 PUSH2 0x100 EXP SWAP1 DIV PUSH1 0xFF AND DUP2 JUMP JUMPDEST PUSH2 0x20C7 PUSH2 0x2919 JUMP JUMPDEST PUSH20 0xFFFFFFFFFFFFFFFFFFFFFFFFFFFFFFFFFFFFFFFF AND PUSH2 0x20E5 PUSH2 0x1CA1 JUMP JUMPDEST PUSH20 0xFFFFFFFFFFFFFFFFFFFFFFFFFFFFFFFFFFFFFFFF AND EQ PUSH2 0x213B JUMPI PUSH1 0x40 MLOAD PUSH32 0x8C379A000000000000000000000000000000000000000000000000000000000 DUP2 MSTORE PUSH1 0x4 ADD PUSH2 0x2132 SWAP1 PUSH2 0x3F5F JUMP JUMPDEST PUSH1 0x40 MLOAD DUP1 SWAP2 SUB SWAP1 REVERT JUMPDEST PUSH1 0x0 PUSH20 0xFFFFFFFFFFFFFFFFFFFFFFFFFFFFFFFFFFFFFFFF AND DUP2 PUSH20 0xFFFFFFFFFFFFFFFFFFFFFFFFFFFFFFFFFFFFFFFF AND SUB PUSH2 0x21AA JUMPI PUSH1 0x40 MLOAD PUSH32 0x8C379A000000000000000000000000000000000000000000000000000000000 DUP2 MSTORE PUSH1 0x4 ADD PUSH2 0x21A1 SWAP1 PUSH2 0x3FCB JUMP JUMPDEST PUSH1 0x40 MLOAD DUP1 SWAP2 SUB SWAP1 REVERT JUMPDEST DUP1 PUSH1 0x10 PUSH1 0x0 PUSH2 0x100 EXP DUP2 SLOAD DUP2 PUSH20 0xFFFFFFFFFFFFFFFFFFFFFFFFFFFFFFFFFFFFFFFF MUL NOT AND SWAP1 DUP4 PUSH20 0xFFFFFFFFFFFFFFFFFFFFFFFFFFFFFFFFFFFFFFFF AND MUL OR SWAP1 SSTORE POP POP JUMP JUMPDEST PUSH2 0x21F6 PUSH2 0x2919 JUMP JUMPDEST PUSH20 0xFFFFFFFFFFFFFFFFFFFFFFFFFFFFFFFFFFFFFFFF AND PUSH2 0x2214 PUSH2 0x1CA1 JUMP JUMPDEST PUSH20 0xFFFFFFFFFFFFFFFFFFFFFFFFFFFFFFFFFFFFFFFF AND EQ PUSH2 0x226A JUMPI PUSH1 0x40 MLOAD PUSH32 0x8C379A000000000000000000000000000000000000000000000000000000000 DUP2 MSTORE PUSH1 0x4 ADD PUSH2 0x2261 SWAP1 PUSH2 0x3F5F JUMP JUMPDEST PUSH1 0x40 MLOAD DUP1 SWAP2 SUB SWAP1 REVERT JUMPDEST PUSH1 0x10 PUSH1 0x14 SWAP1 SLOAD SWAP1 PUSH2 0x100 EXP SWAP1 DIV PUSH1 0xFF AND ISZERO PUSH2 0x22BA JUMPI PUSH1 0x40 MLOAD PUSH32 0x8C379A000000000000000000000000000000000000000000000000000000000 DUP2 MSTORE PUSH1 0x4 ADD PUSH2 0x22B1 SWAP1 PUSH2 0x43D7 JUMP JUMPDEST PUSH1 0x40 MLOAD DUP1 SWAP2 SUB SWAP1 REVERT JUMPDEST PUSH1 0x64 DUP2 GT ISZERO PUSH2 0x22C8 JUMPI PUSH1 0x64 SWAP1 POP JUMPDEST PUSH1 0x0 PUSH2 0x22D3 ADDRESS PUSH2 0x1A4B JUMP JUMPDEST SWAP1 POP PUSH1 0x0 PUSH1 0x64 DUP4 DUP4 PUSH2 0x22E5 SWAP2 SWAP1 PUSH2 0x4085 JUMP JUMPDEST PUSH2 0x22EF SWAP2 SWAP1 PUSH2 0x40F6 JUMP JUMPDEST SWAP1 POP PUSH2 0x22FA DUP2 PUSH2 0x3322 JUMP JUMPDEST POP POP POP JUMP JUMPDEST PUSH1 0x0 PUSH1 0x2 PUSH1 0x0 DUP5 PUSH20 0xFFFFFFFFFFFFFFFFFFFFFFFFFFFFFFFFFFFFFFFF AND PUSH20 0xFFFFFFFFFFFFFFFFFFFFFFFFFFFFFFFFFFFFFFFF AND DUP2 MSTORE PUSH1 0x20 ADD SWAP1 DUP2 MSTORE PUSH1 0x20 ADD PUSH1 0x0 KECCAK256 PUSH1 0x0 DUP4 PUSH20 0xFFFFFFFFFFFFFFFFFFFFFFFFFFFFFFFFFFFFFFFF AND PUSH20 0xFFFFFFFFFFFFFFFFFFFFFFFFFFFFFFFFFFFFFFFF AND DUP2 MSTORE PUSH1 0x20 ADD SWAP1 DUP2 MSTORE PUSH1 0x20 ADD PUSH1 0x0 KECCAK256 SLOAD SWAP1 POP SWAP3 SWAP2 POP POP JUMP JUMPDEST PUSH2 0x238E PUSH2 0x2919 JUMP JUMPDEST PUSH20 0xFFFFFFFFFFFFFFFFFFFFFFFFFFFFFFFFFFFFFFFF AND PUSH2 0x23AC PUSH2 0x1CA1 JUMP JUMPDEST PUSH20 0xFFFFFFFFFFFFFFFFFFFFFFFFFFFFFFFFFFFFFFFF AND EQ PUSH2 0x2402 JUMPI PUSH1 0x40 MLOAD PUSH32 0x8C379A000000000000000000000000000000000000000000000000000000000 DUP2 MSTORE PUSH1 0x4 ADD PUSH2 0x23F9 SWAP1 PUSH2 0x3F5F JUMP JUMPDEST PUSH1 0x40 MLOAD DUP1 SWAP2 SUB SWAP1 REVERT JUMPDEST PUSH1 0x0 PUSH20 0xFFFFFFFFFFFFFFFFFFFFFFFFFFFFFFFFFFFFFFFF AND DUP2 PUSH20 0xFFFFFFFFFFFFFFFFFFFFFFFFFFFFFFFFFFFFFFFF AND SUB PUSH2 0x2471 JUMPI PUSH1 0x40 MLOAD PUSH32 0x8C379A000000000000000000000000000000000000000000000000000000000 DUP2 MSTORE PUSH1 0x4 ADD PUSH2 0x2468 SWAP1 PUSH2 0x3FCB JUMP JUMPDEST PUSH1 0x40 MLOAD DUP1 SWAP2 SUB SWAP1 REVERT JUMPDEST PUSH1 0x0 PUSH1 0x3 PUSH1 0x0 DUP4 PUSH20 0xFFFFFFFFFFFFFFFFFFFFFFFFFFFFFFFFFFFFFFFF AND PUSH20 0xFFFFFFFFFFFFFFFFFFFFFFFFFFFFFFFFFFFFFFFF AND DUP2 MSTORE PUSH1 0x20 ADD SWAP1 DUP2 MSTORE PUSH1 0x20 ADD PUSH1 0x0 KECCAK256 PUSH1 0x0 PUSH2 0x100 EXP DUP2 SLOAD DUP2 PUSH1 0xFF MUL NOT AND SWAP1 DUP4 ISZERO ISZERO MUL OR SWAP1 SSTORE POP POP JUMP JUMPDEST PUSH2 0x24D4 PUSH2 0x2919 JUMP JUMPDEST PUSH20 0xFFFFFFFFFFFFFFFFFFFFFFFFFFFFFFFFFFFFFFFF AND PUSH2 0x24F2 PUSH2 0x1CA1 JUMP JUMPDEST PUSH20 0xFFFFFFFFFFFFFFFFFFFFFFFFFFFFFFFFFFFFFFFF AND EQ PUSH2 0x2548 JUMPI PUSH1 0x40 MLOAD PUSH32 0x8C379A000000000000000000000000000000000000000000000000000000000 DUP2 MSTORE PUSH1 0x4 ADD PUSH2 0x253F SWAP1 PUSH2 0x3F5F JUMP JUMPDEST PUSH1 0x40 MLOAD DUP1 SWAP2 SUB SWAP1 REVERT JUMPDEST PUSH1 0x0 PUSH20 0xFFFFFFFFFFFFFFFFFFFFFFFFFFFFFFFFFFFFFFFF AND DUP2 PUSH20 0xFFFFFFFFFFFFFFFFFFFFFFFFFFFFFFFFFFFFFFFF AND SUB PUSH2 0x25B7 JUMPI PUSH1 0x40 MLOAD PUSH32 0x8C379A000000000000000000000000000000000000000000000000000000000 DUP2 MSTORE PUSH1 0x4 ADD PUSH2 0x25AE SWAP1 PUSH2 0x4469 JUMP JUMPDEST PUSH1 0x40 MLOAD DUP1 SWAP2 SUB SWAP1 REVERT JUMPDEST DUP1 PUSH20 0xFFFFFFFFFFFFFFFFFFFFFFFFFFFFFFFFFFFFFFFF AND PUSH1 0x0 DUP1 SLOAD SWAP1 PUSH2 0x100 EXP SWAP1 DIV PUSH20 0xFFFFFFFFFFFFFFFFFFFFFFFFFFFFFFFFFFFFFFFF AND PUSH20 0xFFFFFFFFFFFFFFFFFFFFFFFFFFFFFFFFFFFFFFFF AND PUSH32 0x8BE0079C531659141344CD1FD0A4F28419497F9722A3DAAFE3B4186F6B6457E0 PUSH1 0x40 MLOAD PUSH1 0x40 MLOAD DUP1 SWAP2 SUB SWAP1 LOG3 DUP1 PUSH1 0x0 DUP1 PUSH2 0x100 EXP DUP2 SLOAD DUP2 PUSH20 0xFFFFFFFFFFFFFFFFFFFFFFFFFFFFFFFFFFFFFFFF MUL NOT AND SWAP1 DUP4 PUSH20 0xFFFFFFFFFFFFFFFFFFFFFFFFFFFFFFFFFFFFFFFF AND MUL OR SWAP1 SSTORE POP POP JUMP JUMPDEST PUSH2 0x267C PUSH2 0x2919 JUMP JUMPDEST PUSH20 0xFFFFFFFFFFFFFFFFFFFFFFFFFFFFFFFFFFFFFFFF AND PUSH2 0x269A PUSH2 0x1CA1 JUMP JUMPDEST PUSH20 0xFFFFFFFFFFFFFFFFFFFFFFFFFFFFFFFFFFFFFFFF AND EQ PUSH2 0x26F0 JUMPI PUSH1 0x40 MLOAD PUSH32 0x8C379A000000000000000000000000000000000000000000000000000000000 DUP2 MSTORE PUSH1 0x4 ADD PUSH2 0x26E7 SWAP1 PUSH2 0x3F5F JUMP JUMPDEST PUSH1 0x40 MLOAD DUP1 SWAP2 SUB SWAP1 REVERT JUMPDEST PUSH1 0x0 PUSH20 0xFFFFFFFFFFFFFFFFFFFFFFFFFFFFFFFFFFFFFFFF AND DUP2 PUSH20 0xFFFFFFFFFFFFFFFFFFFFFFFFFFFFFFFFFFFFFFFF AND SUB PUSH2 0x275F JUMPI PUSH1 0x40 MLOAD PUSH32 0x8C379A000000000000000000000000000000000000000000000000000000000 DUP2 MSTORE PUSH1 0x4 ADD PUSH2 0x2756 SWAP1 PUSH2 0x3FCB JUMP JUMPDEST PUSH1 0x40 MLOAD DUP1 SWAP2 SUB SWAP1 REVERT JUMPDEST DUP1 PUSH1 0x5 PUSH1 0x1 PUSH2 0x100 EXP DUP2 SLOAD DUP2 PUSH20 0xFFFFFFFFFFFFFFFFFFFFFFFFFFFFFFFFFFFFFFFF MUL NOT AND SWAP1 DUP4 PUSH20 0xFFFFFFFFFFFFFFFFFFFFFFFFFFFFFFFFFFFFFFFF AND MUL OR SWAP1 SSTORE POP PUSH1 0x1 PUSH1 0x3 PUSH1 0x0 PUSH1 0x5 PUSH1 0x1 SWAP1 SLOAD SWAP1 PUSH2 0x100 EXP SWAP1 DIV PUSH20 0xFFFFFFFFFFFFFFFFFFFFFFFFFFFFFFFFFFFFFFFF AND PUSH20 0xFFFFFFFFFFFFFFFFFFFFFFFFFFFFFFFFFFFFFFFF AND PUSH20 0xFFFFFFFFFFFFFFFFFFFFFFFFFFFFFFFFFFFFFFFF AND DUP2 MSTORE PUSH1 0x20 ADD SWAP1 DUP2 MSTORE PUSH1 0x20 ADD PUSH1 0x0 KECCAK256 PUSH1 0x0 PUSH2 0x100 EXP DUP2 SLOAD DUP2 PUSH1 0xFF MUL NOT AND SWAP1 DUP4 ISZERO ISZERO MUL OR SWAP1 SSTORE POP POP JUMP JUMPDEST PUSH2 0x2825 PUSH2 0x2919 JUMP JUMPDEST PUSH20 0xFFFFFFFFFFFFFFFFFFFFFFFFFFFFFFFFFFFFFFFF AND PUSH2 0x2843 PUSH2 0x1CA1 JUMP JUMPDEST PUSH20 0xFFFFFFFFFFFFFFFFFFFFFFFFFFFFFFFFFFFFFFFF AND EQ PUSH2 0x2899 JUMPI PUSH1 0x40 MLOAD PUSH32 0x8C379A000000000000000000000000000000000000000000000000000000000 DUP2 MSTORE PUSH1 0x4 ADD PUSH2 0x2890 SWAP1 PUSH2 0x3F5F JUMP JUMPDEST PUSH1 0x40 MLOAD DUP1 SWAP2 SUB SWAP1 REVERT JUMPDEST DUP1 PUSH1 0x10 PUSH1 0x15 PUSH2 0x100 EXP DUP2 SLOAD DUP2 PUSH1 0xFF MUL NOT AND SWAP1 DUP4 ISZERO ISZERO MUL OR SWAP1 SSTORE POP PUSH32 0x53726DFCAF90650AA7EB35524F4D3220F07413C8D6CB404CC8C18BF5591BC159 DUP2 PUSH1 0x40 MLOAD PUSH2 0x28E2 SWAP2 SWAP1 PUSH2 0x3AF7 JUMP JUMPDEST PUSH1 0x40 MLOAD DUP1 SWAP2 SUB SWAP1 LOG1 POP JUMP JUMPDEST PUSH1 0x0 DUP2 DUP4 PUSH2 0x28FB SWAP2 SWAP1 PUSH2 0x4085 JUMP JUMPDEST SWAP1 POP SWAP3 SWAP2 POP POP JUMP JUMPDEST PUSH1 0x0 DUP2 DUP4 PUSH2 0x2911 SWAP2 SWAP1 PUSH2 0x40F6 JUMP JUMPDEST SWAP1 POP SWAP3 SWAP2 POP POP JUMP JUMPDEST PUSH1 0x0 CALLER SWAP1 POP SWAP1 JUMP JUMPDEST PUSH1 0x0 PUSH20 0xFFFFFFFFFFFFFFFFFFFFFFFFFFFFFFFFFFFFFFFF AND DUP4 PUSH20 0xFFFFFFFFFFFFFFFFFFFFFFFFFFFFFFFFFFFFFFFF AND EQ ISZERO DUP1 ISZERO PUSH2 0x298B JUMPI POP PUSH1 0x0 PUSH20 0xFFFFFFFFFFFFFFFFFFFFFFFFFFFFFFFFFFFFFFFF AND DUP3 PUSH20 0xFFFFFFFFFFFFFFFFFFFFFFFFFFFFFFFFFFFFFFFF AND EQ ISZERO JUMPDEST PUSH2 0x29CA JUMPI PUSH1 0x40 MLOAD PUSH32 0x8C379A000000000000000000000000000000000000000000000000000000000 DUP2 MSTORE PUSH1 0x4 ADD PUSH2 0x29C1 SWAP1 PUSH2 0x3FCB JUMP JUMPDEST PUSH1 0x40 MLOAD DUP1 SWAP2 SUB SWAP1 REVERT JUMPDEST DUP1 PUSH1 0x2 PUSH1 0x0 DUP6 PUSH20 0xFFFFFFFFFFFFFFFFFFFFFFFFFFFFFFFFFFFFFFFF AND PUSH20 0xFFFFFFFFFFFFFFFFFFFFFFFFFFFFFFFFFFFFFFFF AND DUP2 MSTORE PUSH1 0x20 ADD SWAP1 DUP2 MSTORE PUSH1 0x20 ADD PUSH1 0x0 KECCAK256 PUSH1 0x0 DUP5 PUSH20 0xFFFFFFFFFFFFFFFFFFFFFFFFFFFFFFFFFFFFFFFF AND PUSH20 0xFFFFFFFFFFFFFFFFFFFFFFFFFFFFFFFFFFFFFFFF AND DUP2 MSTORE PUSH1 0x20 ADD SWAP1 DUP2 MSTORE PUSH1 0x20 ADD PUSH1 0x0 KECCAK256 DUP2 SWAP1 SSTORE POP DUP2 PUSH20 0xFFFFFFFFFFFFFFFFFFFFFFFFFFFFFFFFFFFFFFFF AND DUP4 PUSH20 0xFFFFFFFFFFFFFFFFFFFFFFFFFFFFFFFFFFFFFFFF AND PUSH32 0x8C5BE1E5EBEC7D5BD14F71427D1E84F3DD0314C0F7B2291E5B200AC8C7C3B925 DUP4 PUSH1 0x40 MLOAD PUSH2 0x2AA8 SWAP2 SWAP1 PUSH2 0x3BF5 JUMP JUMPDEST PUSH1 0x40 MLOAD DUP1 SWAP2 SUB SWAP1 LOG3 POP POP POP JUMP JUMPDEST PUSH2 0x2ABD PUSH2 0x1CA1 JUMP JUMPDEST PUSH20 0xFFFFFFFFFFFFFFFFFFFFFFFFFFFFFFFFFFFFFFFF AND DUP3 PUSH20 0xFFFFFFFFFFFFFFFFFFFFFFFFFFFFFFFFFFFFFFFF AND EQ ISZERO DUP1 ISZERO PUSH2 0x2B46 JUMPI POP PUSH1 0x5 PUSH1 0x1 SWAP1 SLOAD SWAP1 PUSH2 0x100 EXP SWAP1 DIV PUSH20 0xFFFFFFFFFFFFFFFFFFFFFFFFFFFFFFFFFFFFFFFF AND PUSH20 0xFFFFFFFFFFFFFFFFFFFFFFFFFFFFFFFFFFFFFFFF AND DUP3 PUSH20 0xFFFFFFFFFFFFFFFFFFFFFFFFFFFFFFFFFFFFFFFF AND EQ ISZERO JUMPDEST DUP1 ISZERO PUSH2 0x2B7E JUMPI POP ADDRESS PUSH20 0xFFFFFFFFFFFFFFFFFFFFFFFFFFFFFFFFFFFFFFFF AND DUP3 PUSH20 0xFFFFFFFFFFFFFFFFFFFFFFFFFFFFFFFFFFFFFFFF AND EQ ISZERO JUMPDEST DUP1 ISZERO PUSH2 0x2BD8 JUMPI POP PUSH1 0x10 PUSH1 0x0 SWAP1 SLOAD SWAP1 PUSH2 0x100 EXP SWAP1 DIV PUSH20 0xFFFFFFFFFFFFFFFFFFFFFFFFFFFFFFFFFFFFFFFF AND PUSH20 0xFFFFFFFFFFFFFFFFFFFFFFFFFFFFFFFFFFFFFFFF AND DUP3 PUSH20 0xFFFFFFFFFFFFFFFFFFFFFFFFFFFFFFFFFFFFFFFF AND EQ ISZERO JUMPDEST DUP1 ISZERO PUSH2 0x2C12 JUMPI POP PUSH2 0xDEAD PUSH20 0xFFFFFFFFFFFFFFFFFFFFFFFFFFFFFFFFFFFFFFFF AND DUP3 PUSH20 0xFFFFFFFFFFFFFFFFFFFFFFFFFFFFFFFFFFFFFFFF AND EQ ISZERO JUMPDEST DUP1 ISZERO PUSH2 0x2C51 JUMPI POP PUSH2 0x2C21 PUSH2 0x1CA1 JUMP JUMPDEST PUSH20 0xFFFFFFFFFFFFFFFFFFFFFFFFFFFFFFFFFFFFFFFF AND DUP4 PUSH20 0xFFFFFFFFFFFFFFFFFFFFFFFFFFFFFFFFFFFFFFFF AND EQ ISZERO JUMPDEST ISZERO PUSH2 0x2CB5 JUMPI PUSH1 0x0 PUSH2 0x2C61 DUP4 PUSH2 0x1A4B JUMP JUMPDEST SWAP1 POP PUSH1 0x7 SLOAD DUP3 DUP3 PUSH2 0x2C72 SWAP2 SWAP1 PUSH2 0x42EB JUMP JUMPDEST GT ISZERO PUSH2 0x2CB3 JUMPI PUSH1 0x40 MLOAD PUSH32 0x8C379A000000000000000000000000000000000000000000000000000000000 DUP2 MSTORE PUSH1 0x4 ADD PUSH2 0x2CAA SWAP1 PUSH2 0x4521 JUMP JUMPDEST PUSH1 0x40 MLOAD DUP1 SWAP2 SUB SWAP1 REVERT JUMPDEST POP JUMPDEST PUSH2 0x2CBD PUSH2 0x1CA1 JUMP JUMPDEST PUSH20 0xFFFFFFFFFFFFFFFFFFFFFFFFFFFFFFFFFFFFFFFF AND DUP4 PUSH20 0xFFFFFFFFFFFFFFFFFFFFFFFFFFFFFFFFFFFFFFFF AND EQ ISZERO DUP1 ISZERO PUSH2 0x2D2B JUMPI POP PUSH2 0x2CFB PUSH2 0x1CA1 JUMP JUMPDEST PUSH20 0xFFFFFFFFFFFFFFFFFFFFFFFFFFFFFFFFFFFFFFFF AND DUP3 PUSH20 0xFFFFFFFFFFFFFFFFFFFFFFFFFFFFFFFFFFFFFFFF AND EQ ISZERO JUMPDEST ISZERO PUSH2 0x2D76 JUMPI PUSH1 0x9 SLOAD DUP2 GT ISZERO PUSH2 0x2D75 JUMPI PUSH1 0x40 MLOAD PUSH32 0x8C379A000000000000000000000000000000000000000000000000000000000 DUP2 MSTORE PUSH1 0x4 ADD PUSH2 0x2D6C SWAP1 PUSH2 0x45B3 JUMP JUMPDEST PUSH1 0x40 MLOAD DUP1 SWAP2 SUB SWAP1 REVERT JUMPDEST JUMPDEST PUSH1 0x5 PUSH1 0x0 SWAP1 SLOAD SWAP1 PUSH2 0x100 EXP SWAP1 DIV PUSH1 0xFF AND ISZERO PUSH2 0x2E6F JUMPI PUSH1 0x4 PUSH1 0x0 DUP5 PUSH20 0xFFFFFFFFFFFFFFFFFFFFFFFFFFFFFFFFFFFFFFFF AND PUSH20 0xFFFFFFFFFFFFFFFFFFFFFFFFFFFFFFFFFFFFFFFF AND DUP2 MSTORE PUSH1 0x20 ADD SWAP1 DUP2 MSTORE PUSH1 0x20 ADD PUSH1 0x0 KECCAK256 PUSH1 0x0 SWAP1 SLOAD SWAP1 PUSH2 0x100 EXP SWAP1 DIV PUSH1 0xFF AND ISZERO DUP1 ISZERO PUSH2 0x2E2F JUMPI POP PUSH1 0x4 PUSH1 0x0 DUP4 PUSH20 0xFFFFFFFFFFFFFFFFFFFFFFFFFFFFFFFFFFFFFFFF AND PUSH20 0xFFFFFFFFFFFFFFFFFFFFFFFFFFFFFFFFFFFFFFFF AND DUP2 MSTORE PUSH1 0x20 ADD SWAP1 DUP2 MSTORE PUSH1 0x20 ADD PUSH1 0x0 KECCAK256 PUSH1 0x0 SWAP1 SLOAD SWAP1 PUSH2 0x100 EXP SWAP1 DIV PUSH1 0xFF AND ISZERO JUMPDEST PUSH2 0x2E6E JUMPI PUSH1 0x40 MLOAD PUSH32 0x8C379A000000000000000000000000000000000000000000000000000000000 DUP2 MSTORE PUSH1 0x4 ADD PUSH2 0x2E65 SWAP1 PUSH2 0x4645 JUMP JUMPDEST PUSH1 0x40 MLOAD DUP1 SWAP2 SUB SWAP1 REVERT JUMPDEST JUMPDEST PUSH1 0x0 PUSH20 0xFFFFFFFFFFFFFFFFFFFFFFFFFFFFFFFFFFFFFFFF AND DUP4 PUSH20 0xFFFFFFFFFFFFFFFFFFFFFFFFFFFFFFFFFFFFFFFF AND EQ ISZERO DUP1 ISZERO PUSH2 0x2ED9 JUMPI POP PUSH1 0x0 PUSH20 0xFFFFFFFFFFFFFFFFFFFFFFFFFFFFFFFFFFFFFFFF AND DUP3 PUSH20 0xFFFFFFFFFFFFFFFFFFFFFFFFFFFFFFFFFFFFFFFF AND EQ ISZERO JUMPDEST PUSH2 0x2F18 JUMPI PUSH1 0x40 MLOAD PUSH32 0x8C379A000000000000000000000000000000000000000000000000000000000 DUP2 MSTORE PUSH1 0x4 ADD PUSH2 0x2F0F SWAP1 PUSH2 0x46B1 JUMP JUMPDEST PUSH1 0x40 MLOAD DUP1 SWAP2 SUB SWAP1 REVERT JUMPDEST PUSH1 0x0 DUP2 GT PUSH2 0x2F5B JUMPI PUSH1 0x40 MLOAD PUSH32 0x8C379A000000000000000000000000000000000000000000000000000000000 DUP2 MSTORE PUSH1 0x4 ADD PUSH2 0x2F52 SWAP1 PUSH2 0x4743 JUMP JUMPDEST PUSH1 0x40 MLOAD DUP1 SWAP2 SUB SWAP1 REVERT JUMPDEST PUSH1 0x5 PUSH1 0x16 SWAP1 SLOAD SWAP1 PUSH2 0x100 EXP SWAP1 DIV PUSH1 0xFF AND PUSH1 0xFF AND PUSH1 0x5 PUSH1 0x15 SWAP1 SLOAD SWAP1 PUSH2 0x100 EXP SWAP1 DIV PUSH1 0xFF AND PUSH1 0xFF AND LT ISZERO DUP1 ISZERO PUSH2 0x2F9C JUMPI POP PUSH1 0x10 PUSH1 0x14 SWAP1 SLOAD SWAP1 PUSH2 0x100 EXP SWAP1 DIV PUSH1 0xFF AND ISZERO JUMPDEST DUP1 ISZERO PUSH2 0x2FF6 JUMPI POP PUSH1 0x10 PUSH1 0x0 SWAP1 SLOAD SWAP1 PUSH2 0x100 EXP SWAP1 DIV PUSH20 0xFFFFFFFFFFFFFFFFFFFFFFFFFFFFFFFFFFFFFFFF AND PUSH20 0xFFFFFFFFFFFFFFFFFFFFFFFFFFFFFFFFFFFFFFFF AND DUP4 PUSH20 0xFFFFFFFFFFFFFFFFFFFFFFFFFFFFFFFFFFFFFFFF AND EQ ISZERO JUMPDEST DUP1 ISZERO PUSH2 0x300E JUMPI POP PUSH1 0x10 PUSH1 0x15 SWAP1 SLOAD SWAP1 PUSH2 0x100 EXP SWAP1 DIV PUSH1 0xFF AND JUMPDEST ISZERO PUSH2 0x3061 JUMPI PUSH1 0x0 PUSH1 0x5 PUSH1 0x15 PUSH2 0x100 EXP DUP2 SLOAD DUP2 PUSH1 0xFF MUL NOT AND SWAP1 DUP4 PUSH1 0xFF AND MUL OR SWAP1 SSTORE POP PUSH1 0x0 PUSH2 0x303A ADDRESS PUSH2 0x1A4B JUMP JUMPDEST SWAP1 POP PUSH1 0x9 SLOAD DUP2 GT ISZERO PUSH2 0x304C JUMPI PUSH1 0x9 SLOAD SWAP1 POP JUMPDEST PUSH1 0x0 DUP2 GT ISZERO PUSH2 0x305F JUMPI PUSH2 0x305E DUP2 PUSH2 0x3322 JUMP JUMPDEST JUMPDEST POP JUMPDEST PUSH1 0x0 PUSH1 0x1 SWAP1 POP PUSH1 0x3 PUSH1 0x0 DUP6 PUSH20 0xFFFFFFFFFFFFFFFFFFFFFFFFFFFFFFFFFFFFFFFF AND PUSH20 0xFFFFFFFFFFFFFFFFFFFFFFFFFFFFFFFFFFFFFFFF AND DUP2 MSTORE PUSH1 0x20 ADD SWAP1 DUP2 MSTORE PUSH1 0x20 ADD PUSH1 0x0 KECCAK256 PUSH1 0x0 SWAP1 SLOAD SWAP1 PUSH2 0x100 EXP SWAP1 DIV PUSH1 0xFF AND DUP1 PUSH2 0x3108 JUMPI POP PUSH1 0x3 PUSH1 0x0 DUP5 PUSH20 0xFFFFFFFFFFFFFFFFFFFFFFFFFFFFFFFFFFFFFFFF AND PUSH20 0xFFFFFFFFFFFFFFFFFFFFFFFFFFFFFFFFFFFFFFFF AND DUP2 MSTORE PUSH1 0x20 ADD SWAP1 DUP2 MSTORE PUSH1 0x20 ADD PUSH1 0x0 KECCAK256 PUSH1 0x0 SWAP1 SLOAD SWAP1 PUSH2 0x100 EXP SWAP1 DIV PUSH1 0xFF AND JUMPDEST DUP1 PUSH2 0x31D3 JUMPI POP PUSH1 0xF PUSH1 0x0 SWAP1 SLOAD SWAP1 PUSH2 0x100 EXP SWAP1 DIV PUSH1 0xFF AND DUP1 ISZERO PUSH2 0x3178 JUMPI POP PUSH1 0x10 PUSH1 0x0 SWAP1 SLOAD SWAP1 PUSH2 0x100 EXP SWAP1 DIV PUSH20 0xFFFFFFFFFFFFFFFFFFFFFFFFFFFFFFFFFFFFFFFF AND PUSH20 0xFFFFFFFFFFFFFFFFFFFFFFFFFFFFFFFFFFFFFFFF AND DUP5 PUSH20 0xFFFFFFFFFFFFFFFFFFFFFFFFFFFFFFFFFFFFFFFF AND EQ ISZERO JUMPDEST DUP1 ISZERO PUSH2 0x31D2 JUMPI POP PUSH1 0x10 PUSH1 0x0 SWAP1 SLOAD SWAP1 PUSH2 0x100 EXP SWAP1 DIV PUSH20 0xFFFFFFFFFFFFFFFFFFFFFFFFFFFFFFFFFFFFFFFF AND PUSH20 0xFFFFFFFFFFFFFFFFFFFFFFFFFFFFFFFFFFFFFFFF AND DUP4 PUSH20 0xFFFFFFFFFFFFFFFFFFFFFFFFFFFFFFFFFFFFFFFF AND EQ ISZERO JUMPDEST JUMPDEST ISZERO PUSH2 0x31E1 JUMPI PUSH1 0x0 SWAP1 POP PUSH2 0x32A5 JUMP JUMPDEST PUSH1 0x10 PUSH1 0x0 SWAP1 SLOAD SWAP1 PUSH2 0x100 EXP SWAP1 DIV PUSH20 0xFFFFFFFFFFFFFFFFFFFFFFFFFFFFFFFFFFFFFFFF AND PUSH20 0xFFFFFFFFFFFFFFFFFFFFFFFFFFFFFFFFFFFFFFFF AND DUP5 PUSH20 0xFFFFFFFFFFFFFFFFFFFFFFFFFFFFFFFFFFFFFFFF AND SUB PUSH2 0x3244 JUMPI PUSH1 0xC SLOAD PUSH1 0xE DUP2 SWAP1 SSTORE POP PUSH2 0x32A4 JUMP JUMPDEST PUSH1 0x10 PUSH1 0x0 SWAP1 SLOAD SWAP1 PUSH2 0x100 EXP SWAP1 DIV PUSH20 0xFFFFFFFFFFFFFFFFFFFFFFFFFFFFFFFFFFFFFFFF AND PUSH20 0xFFFFFFFFFFFFFFFFFFFFFFFFFFFFFFFFFFFFFFFF AND DUP4 PUSH20 0xFFFFFFFFFFFFFFFFFFFFFFFFFFFFFFFFFFFFFFFF AND SUB PUSH2 0x32A3 JUMPI PUSH1 0xD SLOAD PUSH1 0xE DUP2 SWAP1 SSTORE POP JUMPDEST JUMPDEST JUMPDEST PUSH2 0x32B1 DUP5 DUP5 DUP5 DUP5 PUSH2 0x3396 JUMP JUMPDEST POP POP POP POP JUMP JUMPDEST PUSH1 0x0 DUP4 DUP4 GT ISZERO DUP3 SWAP1 PUSH2 0x32FF JUMPI PUSH1 0x40 MLOAD PUSH32 0x8C379A000000000000000000000000000000000000000000000000000000000 DUP2 MSTORE PUSH1 0x4 ADD PUSH2 0x32F6 SWAP2 SWAP1 PUSH2 0x39DC JUMP JUMPDEST PUSH1 0x40 MLOAD DUP1 SWAP2 SUB SWAP1 REVERT JUMPDEST POP DUP3 DUP5 SUB SWAP1 POP SWAP4 SWAP3 POP POP POP JUMP JUMPDEST PUSH1 0x0 DUP2 DUP4 PUSH2 0x331A SWAP2 SWAP1 PUSH2 0x42EB JUMP JUMPDEST SWAP1 POP SWAP3 SWAP2 POP POP JUMP JUMPDEST PUSH1 0x1 PUSH1 0x10 PUSH1 0x14 PUSH2 0x100 EXP DUP2 SLOAD DUP2 PUSH1 0xFF MUL NOT AND SWAP1 DUP4 ISZERO ISZERO MUL OR SWAP1 SSTORE POP PUSH2 0x3346 DUP2 PUSH2 0x33FA JUMP JUMPDEST PUSH1 0x0 SELFBALANCE SWAP1 POP PUSH2 0x3377 PUSH1 0x5 PUSH1 0x1 SWAP1 SLOAD SWAP1 PUSH2 0x100 EXP SWAP1 DIV PUSH20 0xFFFFFFFFFFFFFFFFFFFFFFFFFFFFFFFFFFFFFFFF AND DUP3 PUSH2 0x363D JUMP JUMPDEST POP PUSH1 0x0 PUSH1 0x10 PUSH1 0x14 PUSH2 0x100 EXP DUP2 SLOAD DUP2 PUSH1 0xFF MUL NOT AND SWAP1 DUP4 ISZERO ISZERO MUL OR SWAP1 SSTORE POP POP JUMP JUMPDEST DUP1 PUSH2 0x33A8 JUMPI PUSH2 0x33A3 PUSH2 0x3688 JUMP JUMPDEST PUSH2 0x33E1 JUMP JUMPDEST PUSH1 0x5 PUSH1 0x15 DUP2 DUP2 SWAP1 SLOAD SWAP1 PUSH2 0x100 EXP SWAP1 DIV PUSH1 0xFF AND DUP1 SWAP3 SWAP2 SWAP1 PUSH2 0x33C7 SWAP1 PUSH2 0x4763 JUMP JUMPDEST SWAP2 SWAP1 PUSH2 0x100 EXP DUP2 SLOAD DUP2 PUSH1 0xFF MUL NOT AND SWAP1 DUP4 PUSH1 0xFF AND MUL OR SWAP1 SSTORE POP POP JUMPDEST PUSH2 0x33EC DUP5 DUP5 DUP5 PUSH2 0x369E JUMP JUMPDEST PUSH2 0x33F4 PUSH2 0x38D9 JUMP JUMPDEST POP POP POP POP JUMP JUMPDEST PUSH1 0x0 PUSH1 0x2 PUSH8 0xFFFFFFFFFFFFFFFF DUP2 GT ISZERO PUSH2 0x3417 JUMPI PUSH2 0x3416 PUSH2 0x478C JUMP JUMPDEST JUMPDEST PUSH1 0x40 MLOAD SWAP1 DUP1 DUP3 MSTORE DUP1 PUSH1 0x20 MUL PUSH1 0x20 ADD DUP3 ADD PUSH1 0x40 MSTORE DUP1 ISZERO PUSH2 0x3445 JUMPI DUP2 PUSH1 0x20 ADD PUSH1 0x20 DUP3 MUL DUP1 CALLDATASIZE DUP4 CALLDATACOPY DUP1 DUP3 ADD SWAP2 POP POP SWAP1 POP JUMPDEST POP SWAP1 POP ADDRESS DUP2 PUSH1 0x0 DUP2 MLOAD DUP2 LT PUSH2 0x345D JUMPI PUSH2 0x345C PUSH2 0x4127 JUMP JUMPDEST JUMPDEST PUSH1 0x20 MUL PUSH1 0x20 ADD ADD SWAP1 PUSH20 0xFFFFFFFFFFFFFFFFFFFFFFFFFFFFFFFFFFFFFFFF AND SWAP1 DUP2 PUSH20 0xFFFFFFFFFFFFFFFFFFFFFFFFFFFFFFFFFFFFFFFF AND DUP2 MSTORE POP POP PUSH1 0xF PUSH1 0x1 SWAP1 SLOAD SWAP1 PUSH2 0x100 EXP SWAP1 DIV PUSH20 0xFFFFFFFFFFFFFFFFFFFFFFFFFFFFFFFFFFFFFFFF AND PUSH20 0xFFFFFFFFFFFFFFFFFFFFFFFFFFFFFFFFFFFFFFFF AND PUSH4 0xAD5C4648 PUSH1 0x40 MLOAD DUP2 PUSH4 0xFFFFFFFF AND PUSH1 0xE0 SHL DUP2 MSTORE PUSH1 0x4 ADD PUSH1 0x20 PUSH1 0x40 MLOAD DUP1 DUP4 SUB DUP2 DUP7 GAS STATICCALL ISZERO DUP1 ISZERO PUSH2 0x3504 JUMPI RETURNDATASIZE PUSH1 0x0 DUP1 RETURNDATACOPY RETURNDATASIZE PUSH1 0x0 REVERT JUMPDEST POP POP POP POP PUSH1 0x40 MLOAD RETURNDATASIZE PUSH1 0x1F NOT PUSH1 0x1F DUP3 ADD AND DUP3 ADD DUP1 PUSH1 0x40 MSTORE POP DUP2 ADD SWAP1 PUSH2 0x3528 SWAP2 SWAP1 PUSH2 0x4000 JUMP JUMPDEST DUP2 PUSH1 0x1 DUP2 MLOAD DUP2 LT PUSH2 0x353C JUMPI PUSH2 0x353B PUSH2 0x4127 JUMP JUMPDEST JUMPDEST PUSH1 0x20 MUL PUSH1 0x20 ADD ADD SWAP1 PUSH20 0xFFFFFFFFFFFFFFFFFFFFFFFFFFFFFFFFFFFFFFFF AND SWAP1 DUP2 PUSH20 0xFFFFFFFFFFFFFFFFFFFFFFFFFFFFFFFFFFFFFFFF AND DUP2 MSTORE POP POP PUSH2 0x35A3 ADDRESS PUSH1 0xF PUSH1 0x1 SWAP1 SLOAD SWAP1 PUSH2 0x100 EXP SWAP1 DIV PUSH20 0xFFFFFFFFFFFFFFFFFFFFFFFFFFFFFFFFFFFFFFFF AND DUP5 PUSH2 0x2921 JUMP JUMPDEST PUSH1 0xF PUSH1 0x1 SWAP1 SLOAD SWAP1 PUSH2 0x100 EXP SWAP1 DIV PUSH20 0xFFFFFFFFFFFFFFFFFFFFFFFFFFFFFFFFFFFFFFFF AND PUSH20 0xFFFFFFFFFFFFFFFFFFFFFFFFFFFFFFFFFFFFFFFF AND PUSH4 0x791AC947 DUP4 PUSH1 0x0 DUP5 ADDRESS TIMESTAMP PUSH1 0x40 MLOAD DUP7 PUSH4 0xFFFFFFFF AND PUSH1 0xE0 SHL DUP2 MSTORE PUSH1 0x4 ADD PUSH2 0x3607 SWAP6 SWAP5 SWAP4 SWAP3 SWAP2 SWAP1 PUSH2 0x48B4 JUMP JUMPDEST PUSH1 0x0 PUSH1 0x40 MLOAD DUP1 DUP4 SUB DUP2 PUSH1 0x0 DUP8 DUP1 EXTCODESIZE ISZERO DUP1 ISZERO PUSH2 0x3621 JUMPI PUSH1 0x0 DUP1 REVERT JUMPDEST POP GAS CALL ISZERO DUP1 ISZERO PUSH2 0x3635 JUMPI RETURNDATASIZE PUSH1 0x0 DUP1 RETURNDATACOPY RETURNDATASIZE PUSH1 0x0 REVERT JUMPDEST POP POP POP POP POP POP JUMP JUMPDEST DUP2 PUSH20 0xFFFFFFFFFFFFFFFFFFFFFFFFFFFFFFFFFFFFFFFF AND PUSH2 0x8FC DUP3 SWAP1 DUP2 ISZERO MUL SWAP1 PUSH1 0x40 MLOAD PUSH1 0x0 PUSH1 0x40 MLOAD DUP1 DUP4 SUB DUP2 DUP6 DUP9 DUP9 CALL SWAP4 POP POP POP POP ISZERO DUP1 ISZERO PUSH2 0x3683 JUMPI RETURNDATASIZE PUSH1 0x0 DUP1 RETURNDATACOPY RETURNDATASIZE PUSH1 0x0 REVERT JUMPDEST POP POP POP JUMP JUMPDEST PUSH1 0x0 PUSH1 0xE SLOAD SUB ISZERO PUSH2 0x369C JUMPI PUSH1 0x0 PUSH1 0xE DUP2 SWAP1 SSTORE POP JUMPDEST JUMP JUMPDEST PUSH1 0x0 DUP1 PUSH2 0x36AA DUP4 PUSH2 0x38F1 JUMP JUMPDEST SWAP2 POP SWAP2 POP PUSH2 0x3700 DUP4 PUSH1 0x1 PUSH1 0x0 DUP9 PUSH20 0xFFFFFFFFFFFFFFFFFFFFFFFFFFFFFFFFFFFFFFFF AND PUSH20 0xFFFFFFFFFFFFFFFFFFFFFFFFFFFFFFFFFFFFFFFF AND DUP2 MSTORE PUSH1 0x20 ADD SWAP1 DUP2 MSTORE PUSH1 0x20 ADD PUSH1 0x0 KECCAK256 SLOAD PUSH2 0x3936 SWAP1 SWAP2 SWAP1 PUSH4 0xFFFFFFFF AND JUMP JUMPDEST PUSH1 0x1 PUSH1 0x0 DUP8 PUSH20 0xFFFFFFFFFFFFFFFFFFFFFFFFFFFFFFFFFFFFFFFF AND PUSH20 0xFFFFFFFFFFFFFFFFFFFFFFFFFFFFFFFFFFFFFFFF AND DUP2 MSTORE PUSH1 0x20 ADD SWAP1 DUP2 MSTORE PUSH1 0x20 ADD PUSH1 0x0 KECCAK256 DUP2 SWAP1 SSTORE POP PUSH2 0x3795 DUP3 PUSH1 0x1 PUSH1 0x0 DUP8 PUSH20 0xFFFFFFFFFFFFFFFFFFFFFFFFFFFFFFFFFFFFFFFF AND PUSH20 0xFFFFFFFFFFFFFFFFFFFFFFFFFFFFFFFFFFFFFFFF AND DUP2 MSTORE PUSH1 0x20 ADD SWAP1 DUP2 MSTORE PUSH1 0x20 ADD PUSH1 0x0 KECCAK256 SLOAD PUSH2 0x330C SWAP1 SWAP2 SWAP1 PUSH4 0xFFFFFFFF AND JUMP JUMPDEST PUSH1 0x1 PUSH1 0x0 DUP7 PUSH20 0xFFFFFFFFFFFFFFFFFFFFFFFFFFFFFFFFFFFFFFFF AND PUSH20 0xFFFFFFFFFFFFFFFFFFFFFFFFFFFFFFFFFFFFFFFF AND DUP2 MSTORE PUSH1 0x20 ADD SWAP1 DUP2 MSTORE PUSH1 0x20 ADD PUSH1 0x0 KECCAK256 DUP2 SWAP1 SSTORE POP PUSH2 0x382A DUP2 PUSH1 0x1 PUSH1 0x0 ADDRESS PUSH20 0xFFFFFFFFFFFFFFFFFFFFFFFFFFFFFFFFFFFFFFFF AND PUSH20 0xFFFFFFFFFFFFFFFFFFFFFFFFFFFFFFFFFFFFFFFF AND DUP2 MSTORE PUSH1 0x20 ADD SWAP1 DUP2 MSTORE PUSH1 0x20 ADD PUSH1 0x0 KECCAK256 SLOAD PUSH2 0x330C SWAP1 SWAP2 SWAP1 PUSH4 0xFFFFFFFF AND JUMP JUMPDEST PUSH1 0x1 PUSH1 0x0 ADDRESS PUSH20 0xFFFFFFFFFFFFFFFFFFFFFFFFFFFFFFFFFFFFFFFF AND PUSH20 0xFFFFFFFFFFFFFFFFFFFFFFFFFFFFFFFFFFFFFFFF AND DUP2 MSTORE PUSH1 0x20 ADD SWAP1 DUP2 MSTORE PUSH1 0x20 ADD PUSH1 0x0 KECCAK256 DUP2 SWAP1 SSTORE POP DUP4 PUSH20 0xFFFFFFFFFFFFFFFFFFFFFFFFFFFFFFFFFFFFFFFF AND DUP6 PUSH20 0xFFFFFFFFFFFFFFFFFFFFFFFFFFFFFFFFFFFFFFFF AND PUSH32 0xDDF252AD1BE2C89B69C2B068FC378DAA952BA7F163C4A11628F55A4DF523B3EF DUP5 PUSH1 0x40 MLOAD PUSH2 0x38CA SWAP2 SWAP1 PUSH2 0x3BF5 JUMP JUMPDEST PUSH1 0x40 MLOAD DUP1 SWAP2 SUB SWAP1 LOG3 POP POP POP POP POP JUMP JUMPDEST PUSH1 0xB SLOAD PUSH1 0xE SLOAD SUB ISZERO PUSH2 0x38EF JUMPI PUSH1 0xB SLOAD PUSH1 0xE DUP2 SWAP1 SSTORE POP JUMPDEST JUMP JUMPDEST PUSH1 0x0 DUP1 PUSH1 0x0 PUSH1 0x64 PUSH1 0xE SLOAD DUP6 PUSH2 0x3906 SWAP2 SWAP1 PUSH2 0x4085 JUMP JUMPDEST PUSH2 0x3910 SWAP2 SWAP1 PUSH2 0x40F6 JUMP JUMPDEST SWAP1 POP PUSH1 0x0 PUSH2 0x3927 DUP3 DUP7 PUSH2 0x3936 SWAP1 SWAP2 SWAP1 PUSH4 0xFFFFFFFF AND JUMP JUMPDEST SWAP1 POP DUP1 DUP3 SWAP4 POP SWAP4 POP POP POP SWAP2 POP SWAP2 JUMP JUMPDEST PUSH1 0x0 DUP2 DUP4 PUSH2 0x3944 SWAP2 SWAP1 PUSH2 0x4156 JUMP JUMPDEST SWAP1 POP SWAP3 SWAP2 POP POP JUMP JUMPDEST PUSH1 0x0 DUP2 MLOAD SWAP1 POP SWAP2 SWAP1 POP JUMP JUMPDEST PUSH1 0x0 DUP3 DUP3 MSTORE PUSH1 0x20 DUP3 ADD SWAP1 POP SWAP3 SWAP2 POP POP JUMP JUMPDEST PUSH1 0x0 JUMPDEST DUP4 DUP2 LT ISZERO PUSH2 0x3986 JUMPI DUP1 DUP3 ADD MLOAD DUP2 DUP5 ADD MSTORE PUSH1 0x20 DUP2 ADD SWAP1 POP PUSH2 0x396B JUMP JUMPDEST PUSH1 0x0 DUP5 DUP5 ADD MSTORE POP POP POP POP JUMP JUMPDEST PUSH1 0x0 PUSH1 0x1F NOT PUSH1 0x1F DUP4 ADD AND SWAP1 POP SWAP2 SWAP1 POP JUMP JUMPDEST PUSH1 0x0 PUSH2 0x39AE DUP3 PUSH2 0x394C JUMP JUMPDEST PUSH2 0x39B8 DUP2 DUP6 PUSH2 0x3957 JUMP JUMPDEST SWAP4 POP PUSH2 0x39C8 DUP2 DUP6 PUSH1 0x20 DUP7 ADD PUSH2 0x3968 JUMP JUMPDEST PUSH2 0x39D1 DUP2 PUSH2 0x3992 JUMP JUMPDEST DUP5 ADD SWAP2 POP POP SWAP3 SWAP2 POP POP JUMP JUMPDEST PUSH1 0x0 PUSH1 0x20 DUP3 ADD SWAP1 POP DUP2 DUP2 SUB PUSH1 0x0 DUP4 ADD MSTORE PUSH2 0x39F6 DUP2 DUP5 PUSH2 0x39A3 JUMP JUMPDEST SWAP1 POP SWAP3 SWAP2 POP POP JUMP JUMPDEST PUSH1 0x0 DUP1 REVERT JUMPDEST PUSH1 0x0 DUP1 REVERT JUMPDEST PUSH1 0x0 PUSH20 0xFFFFFFFFFFFFFFFFFFFFFFFFFFFFFFFFFFFFFFFF DUP3 AND SWAP1 POP SWAP2 SWAP1 POP JUMP JUMPDEST PUSH1 0x0 PUSH2 0x3A33 DUP3 PUSH2 0x3A08 JUMP JUMPDEST SWAP1 POP SWAP2 SWAP1 POP JUMP JUMPDEST PUSH2 0x3A43 DUP2 PUSH2 0x3A28 JUMP JUMPDEST DUP2 EQ PUSH2 0x3A4E JUMPI PUSH1 0x0 DUP1 REVERT JUMPDEST POP JUMP JUMPDEST PUSH1 0x0 DUP2 CALLDATALOAD SWAP1 POP PUSH2 0x3A60 DUP2 PUSH2 0x3A3A JUMP JUMPDEST SWAP3 SWAP2 POP POP JUMP JUMPDEST PUSH1 0x0 DUP2 SWAP1 POP SWAP2 SWAP1 POP JUMP JUMPDEST PUSH2 0x3A79 DUP2 PUSH2 0x3A66 JUMP JUMPDEST DUP2 EQ PUSH2 0x3A84 JUMPI PUSH1 0x0 DUP1 REVERT JUMPDEST POP JUMP JUMPDEST PUSH1 0x0 DUP2 CALLDATALOAD SWAP1 POP PUSH2 0x3A96 DUP2 PUSH2 0x3A70 JUMP JUMPDEST SWAP3 SWAP2 POP POP JUMP JUMPDEST PUSH1 0x0 DUP1 PUSH1 0x40 DUP4 DUP6 SUB SLT ISZERO PUSH2 0x3AB3 JUMPI PUSH2 0x3AB2 PUSH2 0x39FE JUMP JUMPDEST JUMPDEST PUSH1 0x0 PUSH2 0x3AC1 DUP6 DUP3 DUP7 ADD PUSH2 0x3A51 JUMP JUMPDEST SWAP3 POP POP PUSH1 0x20 PUSH2 0x3AD2 DUP6 DUP3 DUP7 ADD PUSH2 0x3A87 JUMP JUMPDEST SWAP2 POP POP SWAP3 POP SWAP3 SWAP1 POP JUMP JUMPDEST PUSH1 0x0 DUP2 ISZERO ISZERO SWAP1 POP SWAP2 SWAP1 POP JUMP JUMPDEST PUSH2 0x3AF1 DUP2 PUSH2 0x3ADC JUMP JUMPDEST DUP3 MSTORE POP POP JUMP JUMPDEST PUSH1 0x0 PUSH1 0x20 DUP3 ADD SWAP1 POP PUSH2 0x3B0C PUSH1 0x0 DUP4 ADD DUP5 PUSH2 0x3AE8 JUMP JUMPDEST SWAP3 SWAP2 POP POP JUMP JUMPDEST PUSH1 0x0 PUSH1 0x20 DUP3 DUP5 SUB SLT ISZERO PUSH2 0x3B28 JUMPI PUSH2 0x3B27 PUSH2 0x39FE JUMP JUMPDEST JUMPDEST PUSH1 0x0 PUSH2 0x3B36 DUP5 DUP3 DUP6 ADD PUSH2 0x3A51 JUMP JUMPDEST SWAP2 POP POP SWAP3 SWAP2 POP POP JUMP JUMPDEST PUSH1 0x0 PUSH1 0x20 DUP3 DUP5 SUB SLT ISZERO PUSH2 0x3B55 JUMPI PUSH2 0x3B54 PUSH2 0x39FE JUMP JUMPDEST JUMPDEST PUSH1 0x0 PUSH2 0x3B63 DUP5 DUP3 DUP6 ADD PUSH2 0x3A87 JUMP JUMPDEST SWAP2 POP POP SWAP3 SWAP2 POP POP JUMP JUMPDEST PUSH1 0x0 DUP2 SWAP1 POP SWAP2 SWAP1 POP JUMP JUMPDEST PUSH1 0x0 PUSH2 0x3B91 PUSH2 0x3B8C PUSH2 0x3B87 DUP5 PUSH2 0x3A08 JUMP JUMPDEST PUSH2 0x3B6C JUMP JUMPDEST PUSH2 0x3A08 JUMP JUMPDEST SWAP1 POP SWAP2 SWAP1 POP JUMP JUMPDEST PUSH1 0x0 PUSH2 0x3BA3 DUP3 PUSH2 0x3B76 JUMP JUMPDEST SWAP1 POP SWAP2 SWAP1 POP JUMP JUMPDEST PUSH1 0x0 PUSH2 0x3BB5 DUP3 PUSH2 0x3B98 JUMP JUMPDEST SWAP1 POP SWAP2 SWAP1 POP JUMP JUMPDEST PUSH2 0x3BC5 DUP2 PUSH2 0x3BAA JUMP JUMPDEST DUP3 MSTORE POP POP JUMP JUMPDEST PUSH1 0x0 PUSH1 0x20 DUP3 ADD SWAP1 POP PUSH2 0x3BE0 PUSH1 0x0 DUP4 ADD DUP5 PUSH2 0x3BBC JUMP JUMPDEST SWAP3 SWAP2 POP POP JUMP JUMPDEST PUSH2 0x3BEF DUP2 PUSH2 0x3A66 JUMP JUMPDEST DUP3 MSTORE POP POP JUMP JUMPDEST PUSH1 0x0 PUSH1 0x20 DUP3 ADD SWAP1 POP PUSH2 0x3C0A PUSH1 0x0 DUP4 ADD DUP5 PUSH2 0x3BE6 JUMP JUMPDEST SWAP3 SWAP2 POP POP JUMP JUMPDEST PUSH1 0x0 DUP1 REVERT JUMPDEST PUSH1 0x0 DUP1 REVERT JUMPDEST PUSH1 0x0 DUP1 REVERT JUMPDEST PUSH1 0x0 DUP1 DUP4 PUSH1 0x1F DUP5 ADD SLT PUSH2 0x3C35 JUMPI PUSH2 0x3C34 PUSH2 0x3C10 JUMP JUMPDEST JUMPDEST DUP3 CALLDATALOAD SWAP1 POP PUSH8 0xFFFFFFFFFFFFFFFF DUP2 GT ISZERO PUSH2 0x3C52 JUMPI PUSH2 0x3C51 PUSH2 0x3C15 JUMP JUMPDEST JUMPDEST PUSH1 0x20 DUP4 ADD SWAP2 POP DUP4 PUSH1 0x20 DUP3 MUL DUP4 ADD GT ISZERO PUSH2 0x3C6E JUMPI PUSH2 0x3C6D PUSH2 0x3C1A JUMP JUMPDEST JUMPDEST SWAP3 POP SWAP3 SWAP1 POP JUMP JUMPDEST PUSH1 0x0 DUP1 PUSH1 0x20 DUP4 DUP6 SUB SLT ISZERO PUSH2 0x3C8C JUMPI PUSH2 0x3C8B PUSH2 0x39FE JUMP JUMPDEST JUMPDEST PUSH1 0x0 DUP4 ADD CALLDATALOAD PUSH8 0xFFFFFFFFFFFFFFFF DUP2 GT ISZERO PUSH2 0x3CAA JUMPI PUSH2 0x3CA9 PUSH2 0x3A03 JUMP JUMPDEST JUMPDEST PUSH2 0x3CB6 DUP6 DUP3 DUP7 ADD PUSH2 0x3C1F JUMP JUMPDEST SWAP3 POP SWAP3 POP POP SWAP3 POP SWAP3 SWAP1 POP JUMP JUMPDEST PUSH1 0x0 DUP1 PUSH1 0x0 PUSH1 0x60 DUP5 DUP7 SUB SLT ISZERO PUSH2 0x3CDB JUMPI PUSH2 0x3CDA PUSH2 0x39FE JUMP JUMPDEST JUMPDEST PUSH1 0x0 PUSH2 0x3CE9 DUP7 DUP3 DUP8 ADD PUSH2 0x3A51 JUMP JUMPDEST SWAP4 POP POP PUSH1 0x20 PUSH2 0x3CFA DUP7 DUP3 DUP8 ADD PUSH2 0x3A51 JUMP JUMPDEST SWAP3 POP POP PUSH1 0x40 PUSH2 0x3D0B DUP7 DUP3 DUP8 ADD PUSH2 0x3A87 JUMP JUMPDEST SWAP2 POP POP SWAP3 POP SWAP3 POP SWAP3 JUMP JUMPDEST PUSH1 0x0 PUSH1 0xFF DUP3 AND SWAP1 POP SWAP2 SWAP1 POP JUMP JUMPDEST PUSH2 0x3D2B DUP2 PUSH2 0x3D15 JUMP JUMPDEST DUP3 MSTORE POP POP JUMP JUMPDEST PUSH1 0x0 PUSH1 0x20 DUP3 ADD SWAP1 POP PUSH2 0x3D46 PUSH1 0x0 DUP4 ADD DUP5 PUSH2 0x3D22 JUMP JUMPDEST SWAP3 SWAP2 POP POP JUMP JUMPDEST PUSH2 0x3D55 DUP2 PUSH2 0x3A28 JUMP JUMPDEST DUP3 MSTORE POP POP JUMP JUMPDEST PUSH1 0x0 PUSH1 0x20 DUP3 ADD SWAP1 POP PUSH2 0x3D70 PUSH1 0x0 DUP4 ADD DUP5 PUSH2 0x3D4C JUMP JUMPDEST SWAP3 SWAP2 POP POP JUMP JUMPDEST PUSH1 0x0 DUP1 PUSH1 0x40 DUP4 DUP6 SUB SLT ISZERO PUSH2 0x3D8D JUMPI PUSH2 0x3D8C PUSH2 0x39FE JUMP JUMPDEST JUMPDEST PUSH1 0x0 PUSH2 0x3D9B DUP6 DUP3 DUP7 ADD PUSH2 0x3A87 JUMP JUMPDEST SWAP3 POP POP PUSH1 0x20 PUSH2 0x3DAC DUP6 DUP3 DUP7 ADD PUSH2 0x3A87 JUMP JUMPDEST SWAP2 POP POP SWAP3 POP SWAP3 SWAP1 POP JUMP JUMPDEST PUSH2 0x3DBF DUP2 PUSH2 0x3D15 JUMP JUMPDEST DUP2 EQ PUSH2 0x3DCA JUMPI PUSH1 0x0 DUP1 REVERT JUMPDEST POP JUMP JUMPDEST PUSH1 0x0 DUP2 CALLDATALOAD SWAP1 POP PUSH2 0x3DDC DUP2 PUSH2 0x3DB6 JUMP JUMPDEST SWAP3 SWAP2 POP POP JUMP JUMPDEST PUSH1 0x0 PUSH1 0x20 DUP3 DUP5 SUB SLT ISZERO PUSH2 0x3DF8 JUMPI PUSH2 0x3DF7 PUSH2 0x39FE JUMP JUMPDEST JUMPDEST PUSH1 0x0 PUSH2 0x3E06 DUP5 DUP3 DUP6 ADD PUSH2 0x3DCD JUMP JUMPDEST SWAP2 POP POP SWAP3 SWAP2 POP POP JUMP JUMPDEST PUSH2 0x3E18 DUP2 PUSH2 0x3ADC JUMP JUMPDEST DUP2 EQ PUSH2 0x3E23 JUMPI PUSH1 0x0 DUP1 REVERT JUMPDEST POP JUMP JUMPDEST PUSH1 0x0 DUP2 CALLDATALOAD SWAP1 POP PUSH2 0x3E35 DUP2 PUSH2 0x3E0F JUMP JUMPDEST SWAP3 SWAP2 POP POP JUMP JUMPDEST PUSH1 0x0 PUSH1 0x20 DUP3 DUP5 SUB SLT ISZERO PUSH2 0x3E51 JUMPI PUSH2 0x3E50 PUSH2 0x39FE JUMP JUMPDEST JUMPDEST PUSH1 0x0 PUSH2 0x3E5F DUP5 DUP3 DUP6 ADD PUSH2 0x3E26 JUMP JUMPDEST SWAP2 POP POP SWAP3 SWAP2 POP POP JUMP JUMPDEST PUSH1 0x0 DUP1 PUSH1 0x40 DUP4 DUP6 SUB SLT ISZERO PUSH2 0x3E7F JUMPI PUSH2 0x3E7E PUSH2 0x39FE JUMP JUMPDEST JUMPDEST PUSH1 0x0 PUSH2 0x3E8D DUP6 DUP3 DUP7 ADD PUSH2 0x3A51 JUMP JUMPDEST SWAP3 POP POP PUSH1 0x20 PUSH2 0x3E9E DUP6 DUP3 DUP7 ADD PUSH2 0x3A51 JUMP JUMPDEST SWAP2 POP POP SWAP3 POP SWAP3 SWAP1 POP JUMP JUMPDEST PUSH1 0x0 PUSH2 0x3EB3 DUP3 PUSH2 0x3A08 JUMP JUMPDEST SWAP1 POP SWAP2 SWAP1 POP JUMP JUMPDEST PUSH2 0x3EC3 DUP2 PUSH2 0x3EA8 JUMP JUMPDEST DUP2 EQ PUSH2 0x3ECE JUMPI PUSH1 0x0 DUP1 REVERT JUMPDEST POP JUMP JUMPDEST PUSH1 0x0 DUP2 CALLDATALOAD SWAP1 POP PUSH2 0x3EE0 DUP2 PUSH2 0x3EBA JUMP JUMPDEST SWAP3 SWAP2 POP POP JUMP JUMPDEST PUSH1 0x0 PUSH1 0x20 DUP3 DUP5 SUB SLT ISZERO PUSH2 0x3EFC JUMPI PUSH2 0x3EFB PUSH2 0x39FE JUMP JUMPDEST JUMPDEST PUSH1 0x0 PUSH2 0x3F0A DUP5 DUP3 DUP6 ADD PUSH2 0x3ED1 JUMP JUMPDEST SWAP2 POP POP SWAP3 SWAP2 POP POP JUMP JUMPDEST PUSH32 0x4F776E61626C653A2063616C6C6572206973206E6F7420746865206F776E6572 PUSH1 0x0 DUP3 ADD MSTORE POP JUMP JUMPDEST PUSH1 0x0 PUSH2 0x3F49 PUSH1 0x20 DUP4 PUSH2 0x3957 JUMP JUMPDEST SWAP2 POP PUSH2 0x3F54 DUP3 PUSH2 0x3F13 JUMP JUMPDEST PUSH1 0x20 DUP3 ADD SWAP1 POP SWAP2 SWAP1 POP JUMP JUMPDEST PUSH1 0x0 PUSH1 0x20 DUP3 ADD SWAP1 POP DUP2 DUP2 SUB PUSH1 0x0 DUP4 ADD MSTORE PUSH2 0x3F78 DUP2 PUSH2 0x3F3C JUMP JUMPDEST SWAP1 POP SWAP2 SWAP1 POP JUMP JUMPDEST PUSH32 0x4552523A207A65726F2061646472657373000000000000000000000000000000 PUSH1 0x0 DUP3 ADD MSTORE POP JUMP JUMPDEST PUSH1 0x0 PUSH2 0x3FB5 PUSH1 0x11 DUP4 PUSH2 0x3957 JUMP JUMPDEST SWAP2 POP PUSH2 0x3FC0 DUP3 PUSH2 0x3F7F JUMP JUMPDEST PUSH1 0x20 DUP3 ADD SWAP1 POP SWAP2 SWAP1 POP JUMP JUMPDEST PUSH1 0x0 PUSH1 0x20 DUP3 ADD SWAP1 POP DUP2 DUP2 SUB PUSH1 0x0 DUP4 ADD MSTORE PUSH2 0x3FE4 DUP2 PUSH2 0x3FA8 JUMP JUMPDEST SWAP1 POP SWAP2 SWAP1 POP JUMP JUMPDEST PUSH1 0x0 DUP2 MLOAD SWAP1 POP PUSH2 0x3FFA DUP2 PUSH2 0x3A3A JUMP JUMPDEST SWAP3 SWAP2 POP POP JUMP JUMPDEST PUSH1 0x0 PUSH1 0x20 DUP3 DUP5 SUB SLT ISZERO PUSH2 0x4016 JUMPI PUSH2 0x4015 PUSH2 0x39FE JUMP JUMPDEST JUMPDEST PUSH1 0x0 PUSH2 0x4024 DUP5 DUP3 DUP6 ADD PUSH2 0x3FEB JUMP JUMPDEST SWAP2 POP POP SWAP3 SWAP2 POP POP JUMP JUMPDEST PUSH1 0x0 PUSH1 0x40 DUP3 ADD SWAP1 POP PUSH2 0x4042 PUSH1 0x0 DUP4 ADD DUP6 PUSH2 0x3D4C JUMP JUMPDEST PUSH2 0x404F PUSH1 0x20 DUP4 ADD DUP5 PUSH2 0x3D4C JUMP JUMPDEST SWAP4 SWAP3 POP POP POP JUMP JUMPDEST PUSH32 0x4E487B7100000000000000000000000000000000000000000000000000000000 PUSH1 0x0 MSTORE PUSH1 0x11 PUSH1 0x4 MSTORE PUSH1 0x24 PUSH1 0x0 REVERT JUMPDEST PUSH1 0x0 PUSH2 0x4090 DUP3 PUSH2 0x3A66 JUMP JUMPDEST SWAP2 POP PUSH2 0x409B DUP4 PUSH2 0x3A66 JUMP JUMPDEST SWAP3 POP DUP3 DUP3 MUL PUSH2 0x40A9 DUP2 PUSH2 0x3A66 JUMP JUMPDEST SWAP2 POP DUP3 DUP3 DIV DUP5 EQ DUP4 ISZERO OR PUSH2 0x40C0 JUMPI PUSH2 0x40BF PUSH2 0x4056 JUMP JUMPDEST JUMPDEST POP SWAP3 SWAP2 POP POP JUMP JUMPDEST PUSH32 0x4E487B7100000000000000000000000000000000000000000000000000000000 PUSH1 0x0 MSTORE PUSH1 0x12 PUSH1 0x4 MSTORE PUSH1 0x24 PUSH1 0x0 REVERT JUMPDEST PUSH1 0x0 PUSH2 0x4101 DUP3 PUSH2 0x3A66 JUMP JUMPDEST SWAP2 POP PUSH2 0x410C DUP4 PUSH2 0x3A66 JUMP JUMPDEST SWAP3 POP DUP3 PUSH2 0x411C JUMPI PUSH2 0x411B PUSH2 0x40C7 JUMP JUMPDEST JUMPDEST DUP3 DUP3 DIV SWAP1 POP SWAP3 SWAP2 POP POP JUMP JUMPDEST PUSH32 0x4E487B7100000000000000000000000000000000000000000000000000000000 PUSH1 0x0 MSTORE PUSH1 0x32 PUSH1 0x4 MSTORE PUSH1 0x24 PUSH1 0x0 REVERT JUMPDEST PUSH1 0x0 PUSH2 0x4161 DUP3 PUSH2 0x3A66 JUMP JUMPDEST SWAP2 POP PUSH2 0x416C DUP4 PUSH2 0x3A66 JUMP JUMPDEST SWAP3 POP DUP3 DUP3 SUB SWAP1 POP DUP2 DUP2 GT ISZERO PUSH2 0x4184 JUMPI PUSH2 0x4183 PUSH2 0x4056 JUMP JUMPDEST JUMPDEST SWAP3 SWAP2 POP POP JUMP JUMPDEST PUSH1 0x0 PUSH2 0x4195 DUP3 PUSH2 0x3A66 JUMP JUMPDEST SWAP2 POP PUSH32 0xFFFFFFFFFFFFFFFFFFFFFFFFFFFFFFFFFFFFFFFFFFFFFFFFFFFFFFFFFFFFFFFF DUP3 SUB PUSH2 0x41C7 JUMPI PUSH2 0x41C6 PUSH2 0x4056 JUMP JUMPDEST JUMPDEST PUSH1 0x1 DUP3 ADD SWAP1 POP SWAP2 SWAP1 POP JUMP JUMPDEST PUSH32 0x43616E206E6F742072656D6F7665206E617469766520746F6B656E0000000000 PUSH1 0x0 DUP3 ADD MSTORE POP JUMP JUMPDEST PUSH1 0x0 PUSH2 0x4208 PUSH1 0x1B DUP4 PUSH2 0x3957 JUMP JUMPDEST SWAP2 POP PUSH2 0x4213 DUP3 PUSH2 0x41D2 JUMP JUMPDEST PUSH1 0x20 DUP3 ADD SWAP1 POP SWAP2 SWAP1 POP JUMP JUMPDEST PUSH1 0x0 PUSH1 0x20 DUP3 ADD SWAP1 POP DUP2 DUP2 SUB PUSH1 0x0 DUP4 ADD MSTORE PUSH2 0x4237 DUP2 PUSH2 0x41FB JUMP JUMPDEST SWAP1 POP SWAP2 SWAP1 POP JUMP JUMPDEST PUSH1 0x0 DUP2 MLOAD SWAP1 POP PUSH2 0x424D DUP2 PUSH2 0x3A70 JUMP JUMPDEST SWAP3 SWAP2 POP POP JUMP JUMPDEST PUSH1 0x0 PUSH1 0x20 DUP3 DUP5 SUB SLT ISZERO PUSH2 0x4269 JUMPI PUSH2 0x4268 PUSH2 0x39FE JUMP JUMPDEST JUMPDEST PUSH1 0x0 PUSH2 0x4277 DUP5 DUP3 DUP6 ADD PUSH2 0x423E JUMP JUMPDEST SWAP2 POP POP SWAP3 SWAP2 POP POP JUMP JUMPDEST PUSH1 0x0 PUSH1 0x40 DUP3 ADD SWAP1 POP PUSH2 0x4295 PUSH1 0x0 DUP4 ADD DUP6 PUSH2 0x3D4C JUMP JUMPDEST PUSH2 0x42A2 PUSH1 0x20 DUP4 ADD DUP5 PUSH2 0x3BE6 JUMP JUMPDEST SWAP4 SWAP3 POP POP POP JUMP JUMPDEST PUSH1 0x0 DUP2 MLOAD SWAP1 POP PUSH2 0x42B8 DUP2 PUSH2 0x3E0F JUMP JUMPDEST SWAP3 SWAP2 POP POP JUMP JUMPDEST PUSH1 0x0 PUSH1 0x20 DUP3 DUP5 SUB SLT ISZERO PUSH2 0x42D4 JUMPI PUSH2 0x42D3 PUSH2 0x39FE JUMP JUMPDEST JUMPDEST PUSH1 0x0 PUSH2 0x42E2 DUP5 DUP3 DUP6 ADD PUSH2 0x42A9 JUMP JUMPDEST SWAP2 POP POP SWAP3 SWAP2 POP POP JUMP JUMPDEST PUSH1 0x0 PUSH2 0x42F6 DUP3 PUSH2 0x3A66 JUMP JUMPDEST SWAP2 POP PUSH2 0x4301 DUP4 PUSH2 0x3A66 JUMP JUMPDEST SWAP3 POP DUP3 DUP3 ADD SWAP1 POP DUP1 DUP3 GT ISZERO PUSH2 0x4319 JUMPI PUSH2 0x4318 PUSH2 0x4056 JUMP JUMPDEST JUMPDEST SWAP3 SWAP2 POP POP JUMP JUMPDEST PUSH32 0x46656520697320746F6F20686967682100000000000000000000000000000000 PUSH1 0x0 DUP3 ADD MSTORE POP JUMP JUMPDEST PUSH1 0x0 PUSH2 0x4355 PUSH1 0x10 DUP4 PUSH2 0x3957 JUMP JUMPDEST SWAP2 POP PUSH2 0x4360 DUP3 PUSH2 0x431F JUMP JUMPDEST PUSH1 0x20 DUP3 ADD SWAP1 POP SWAP2 SWAP1 POP JUMP JUMPDEST PUSH1 0x0 PUSH1 0x20 DUP3 ADD SWAP1 POP DUP2 DUP2 SUB PUSH1 0x0 DUP4 ADD MSTORE PUSH2 0x4384 DUP2 PUSH2 0x4348 JUMP JUMPDEST SWAP1 POP SWAP2 SWAP1 POP JUMP JUMPDEST PUSH32 0x43757272656E746C792070726F63657373696E672C20747279206C617465722E PUSH1 0x0 DUP3 ADD MSTORE POP JUMP JUMPDEST PUSH1 0x0 PUSH2 0x43C1 PUSH1 0x20 DUP4 PUSH2 0x3957 JUMP JUMPDEST SWAP2 POP PUSH2 0x43CC DUP3 PUSH2 0x438B JUMP JUMPDEST PUSH1 0x20 DUP3 ADD SWAP1 POP SWAP2 SWAP1 POP JUMP JUMPDEST PUSH1 0x0 PUSH1 0x20 DUP3 ADD SWAP1 POP DUP2 DUP2 SUB PUSH1 0x0 DUP4 ADD MSTORE PUSH2 0x43F0 DUP2 PUSH2 0x43B4 JUMP JUMPDEST SWAP1 POP SWAP2 SWAP1 POP JUMP JUMPDEST PUSH32 0x4F776E61626C653A206E6577206F776E657220697320746865207A65726F2061 PUSH1 0x0 DUP3 ADD MSTORE PUSH32 0x6464726573730000000000000000000000000000000000000000000000000000 PUSH1 0x20 DUP3 ADD MSTORE POP JUMP JUMPDEST PUSH1 0x0 PUSH2 0x4453 PUSH1 0x26 DUP4 PUSH2 0x3957 JUMP JUMPDEST SWAP2 POP PUSH2 0x445E DUP3 PUSH2 0x43F7 JUMP JUMPDEST PUSH1 0x40 DUP3 ADD SWAP1 POP SWAP2 SWAP1 POP JUMP JUMPDEST PUSH1 0x0 PUSH1 0x20 DUP3 ADD SWAP1 POP DUP2 DUP2 SUB PUSH1 0x0 DUP4 ADD MSTORE PUSH2 0x4482 DUP2 PUSH2 0x4446 JUMP JUMPDEST SWAP1 POP SWAP2 SWAP1 POP JUMP JUMPDEST PUSH32 0x596F752061726520747279696E6720746F2062757920746F6F206D616E792074 PUSH1 0x0 DUP3 ADD MSTORE PUSH32 0x6F6B656E732E20596F752068617665207265616368656420746865206C696D69 PUSH1 0x20 DUP3 ADD MSTORE PUSH32 0x7420666F72206F6E652077616C6C65742E000000000000000000000000000000 PUSH1 0x40 DUP3 ADD MSTORE POP JUMP JUMPDEST PUSH1 0x0 PUSH2 0x450B PUSH1 0x51 DUP4 PUSH2 0x3957 JUMP JUMPDEST SWAP2 POP PUSH2 0x4516 DUP3 PUSH2 0x4489 JUMP JUMPDEST PUSH1 0x60 DUP3 ADD SWAP1 POP SWAP2 SWAP1 POP JUMP JUMPDEST PUSH1 0x0 PUSH1 0x20 DUP3 ADD SWAP1 POP DUP2 DUP2 SUB PUSH1 0x0 DUP4 ADD MSTORE PUSH2 0x453A DUP2 PUSH2 0x44FE JUMP JUMPDEST SWAP1 POP SWAP2 SWAP1 POP JUMP JUMPDEST PUSH32 0x596F752061726520747279696E6720746F20627579206D6F7265207468616E20 PUSH1 0x0 DUP3 ADD MSTORE PUSH32 0x746865206D6178207472616E73616374696F6E206C696D69742E000000000000 PUSH1 0x20 DUP3 ADD MSTORE POP JUMP JUMPDEST PUSH1 0x0 PUSH2 0x459D PUSH1 0x3A DUP4 PUSH2 0x3957 JUMP JUMPDEST SWAP2 POP PUSH2 0x45A8 DUP3 PUSH2 0x4541 JUMP JUMPDEST PUSH1 0x40 DUP3 ADD SWAP1 POP SWAP2 SWAP1 POP JUMP JUMPDEST PUSH1 0x0 PUSH1 0x20 DUP3 ADD SWAP1 POP DUP2 DUP2 SUB PUSH1 0x0 DUP4 ADD MSTORE PUSH2 0x45CC DUP2 PUSH2 0x4590 JUMP JUMPDEST SWAP1 POP SWAP2 SWAP1 POP JUMP JUMPDEST PUSH32 0x54686973206164647265737320697320626C61636B6C69737465642E20547261 PUSH1 0x0 DUP3 ADD MSTORE PUSH32 0x6E73616374696F6E2072657665727465642E0000000000000000000000000000 PUSH1 0x20 DUP3 ADD MSTORE POP JUMP JUMPDEST PUSH1 0x0 PUSH2 0x462F PUSH1 0x32 DUP4 PUSH2 0x3957 JUMP JUMPDEST SWAP2 POP PUSH2 0x463A DUP3 PUSH2 0x45D3 JUMP JUMPDEST PUSH1 0x40 DUP3 ADD SWAP1 POP SWAP2 SWAP1 POP JUMP JUMPDEST PUSH1 0x0 PUSH1 0x20 DUP3 ADD SWAP1 POP DUP2 DUP2 SUB PUSH1 0x0 DUP4 ADD MSTORE PUSH2 0x465E DUP2 PUSH2 0x4622 JUMP JUMPDEST SWAP1 POP SWAP2 SWAP1 POP JUMP JUMPDEST PUSH32 0x4552523A205573696E6720302061646472657373210000000000000000000000 PUSH1 0x0 DUP3 ADD MSTORE POP JUMP JUMPDEST PUSH1 0x0 PUSH2 0x469B PUSH1 0x15 DUP4 PUSH2 0x3957 JUMP JUMPDEST SWAP2 POP PUSH2 0x46A6 DUP3 PUSH2 0x4665 JUMP JUMPDEST PUSH1 0x20 DUP3 ADD SWAP1 POP SWAP2 SWAP1 POP JUMP JUMPDEST PUSH1 0x0 PUSH1 0x20 DUP3 ADD SWAP1 POP DUP2 DUP2 SUB PUSH1 0x0 DUP4 ADD MSTORE PUSH2 0x46CA DUP2 PUSH2 0x468E JUMP JUMPDEST SWAP1 POP SWAP2 SWAP1 POP JUMP JUMPDEST PUSH32 0x546F6B656E2076616C7565206D75737420626520686967686572207468616E20 PUSH1 0x0 DUP3 ADD MSTORE PUSH32 0x7A65726F2E000000000000000000000000000000000000000000000000000000 PUSH1 0x20 DUP3 ADD MSTORE POP JUMP JUMPDEST PUSH1 0x0 PUSH2 0x472D PUSH1 0x25 DUP4 PUSH2 0x3957 JUMP JUMPDEST SWAP2 POP PUSH2 0x4738 DUP3 PUSH2 0x46D1 JUMP JUMPDEST PUSH1 0x40 DUP3 ADD SWAP1 POP SWAP2 SWAP1 POP JUMP JUMPDEST PUSH1 0x0 PUSH1 0x20 DUP3 ADD SWAP1 POP DUP2 DUP2 SUB PUSH1 0x0 DUP4 ADD MSTORE PUSH2 0x475C DUP2 PUSH2 0x4720 JUMP JUMPDEST SWAP1 POP SWAP2 SWAP1 POP JUMP JUMPDEST PUSH1 0x0 PUSH2 0x476E DUP3 PUSH2 0x3D15 JUMP JUMPDEST SWAP2 POP PUSH1 0xFF DUP3 SUB PUSH2 0x4781 JUMPI PUSH2 0x4780 PUSH2 0x4056 JUMP JUMPDEST JUMPDEST PUSH1 0x1 DUP3 ADD SWAP1 POP SWAP2 SWAP1 POP JUMP JUMPDEST PUSH32 0x4E487B7100000000000000000000000000000000000000000000000000000000 PUSH1 0x0 MSTORE PUSH1 0x41 PUSH1 0x4 MSTORE PUSH1 0x24 PUSH1 0x0 REVERT JUMPDEST PUSH1 0x0 DUP2 SWAP1 POP SWAP2 SWAP1 POP JUMP JUMPDEST PUSH1 0x0 PUSH2 0x47E0 PUSH2 0x47DB PUSH2 0x47D6 DUP5 PUSH2 0x47BB JUMP JUMPDEST PUSH2 0x3B6C JUMP JUMPDEST PUSH2 0x3A66 JUMP JUMPDEST SWAP1 POP SWAP2 SWAP1 POP JUMP JUMPDEST PUSH2 0x47F0 DUP2 PUSH2 0x47C5 JUMP JUMPDEST DUP3 MSTORE POP POP JUMP JUMPDEST PUSH1 0x0 DUP2 MLOAD SWAP1 POP SWAP2 SWAP1 POP JUMP JUMPDEST PUSH1 0x0 DUP3 DUP3 MSTORE PUSH1 0x20 DUP3 ADD SWAP1 POP SWAP3 SWAP2 POP POP JUMP JUMPDEST PUSH1 0x0 DUP2 SWAP1 POP PUSH1 0x20 DUP3 ADD SWAP1 POP SWAP2 SWAP1 POP JUMP JUMPDEST PUSH2 0x482B DUP2 PUSH2 0x3A28 JUMP JUMPDEST DUP3 MSTORE POP POP JUMP JUMPDEST PUSH1 0x0 PUSH2 0x483D DUP4 DUP4 PUSH2 0x4822 JUMP JUMPDEST PUSH1 0x20 DUP4 ADD SWAP1 POP SWAP3 SWAP2 POP POP JUMP JUMPDEST PUSH1 0x0 PUSH1 0x20 DUP3 ADD SWAP1 POP SWAP2 SWAP1 POP JUMP JUMPDEST PUSH1 0x0 PUSH2 0x4861 DUP3 PUSH2 0x47F6 JUMP JUMPDEST PUSH2 0x486B DUP2 DUP6 PUSH2 0x4801 JUMP JUMPDEST SWAP4 POP PUSH2 0x4876 DUP4 PUSH2 0x4812 JUMP JUMPDEST DUP1 PUSH1 0x0 JUMPDEST DUP4 DUP2 LT ISZERO PUSH2 0x48A7 JUMPI DUP2 MLOAD PUSH2 0x488E DUP9 DUP3 PUSH2 0x4831 JUMP JUMPDEST SWAP8 POP PUSH2 0x4899 DUP4 PUSH2 0x4849 JUMP JUMPDEST SWAP3 POP POP PUSH1 0x1 DUP2 ADD SWAP1 POP PUSH2 0x487A JUMP JUMPDEST POP DUP6 SWAP4 POP POP POP POP SWAP3 SWAP2 POP POP JUMP JUMPDEST PUSH1 0x0 PUSH1 0xA0 DUP3 ADD SWAP1 POP PUSH2 0x48C9 PUSH1 0x0 DUP4 ADD DUP9 PUSH2 0x3BE6 JUMP JUMPDEST PUSH2 0x48D6 PUSH1 0x20 DUP4 ADD DUP8 PUSH2 0x47E7 JUMP JUMPDEST DUP2 DUP2 SUB PUSH1 0x40 DUP4 ADD MSTORE PUSH2 0x48E8 DUP2 DUP7 PUSH2 0x4856 JUMP JUMPDEST SWAP1 POP PUSH2 0x48F7 PUSH1 0x60 DUP4 ADD DUP6 PUSH2 0x3D4C JUMP JUMPDEST PUSH2 0x4904 PUSH1 0x80 DUP4 ADD DUP5 PUSH2 0x3BE6 JUMP JUMPDEST SWAP7 SWAP6 POP POP POP POP POP POP JUMP INVALID GASLIMIT MSTORE NUMBER ORIGIN ADDRESS GASPRICE KECCAK256 PUSH21 0x72616E7366657220616D6F756E7420657863656564 PUSH20 0x20616C6C6F77616E636545524332303A20646563 PUSH19 0x656173656420616C6C6F77616E63652062656C PUSH16 0x77207A65726FA2646970667358221220 DUP12 PUSH21 0xD900B79DFAD122E80DAC7E0C80E1423C39E7949658 0xDF SWAP15 0x28 0xE3 0xDA LOG1 SWAP7 0xF6 LT PUSH5 0x736F6C6343 STOP ADDMOD SLT STOP CALLER "
				},
				"gasEstimates": {
					"creation": {
						"codeDepositCost": "3766600",
						"executionCost": "infinite",
						"totalCost": "infinite"
					},
					"external": {
						"Update__Dev_Wallet(address)": "53722",
						"_TotalFee()": "2585",
						"_TransferFee()": "2496",
						"_buyFee()": "2585",
						"_isBlacklisted(address)": "2935",
						"_isExcludedFromFee(address)": "2935",
						"_maxToken()": "2540",
						"_maxTxAmount()": "2563",
						"_sellFee()": "2562",
						"_set_Fees(uint256,uint256)": "infinite",
						"_set_Transfer_Fee(uint256)": "26997",
						"allowance(address,address)": "infinite",
						"approve(address,uint256)": "infinite",
						"balanceOf(address)": "2887",
						"blacklist_Toggle(bool)": "27052",
						"blacklist_Wallets(address[])": "infinite",
						"decimals()": "411",
						"decreaseAllowance(address,uint256)": "infinite",
						"excludeFromFee(address)": "27132",
						"includeInFee(address)": "27175",
						"increaseAllowance(address,uint256)": "infinite",
						"isBlackList()": "2605",
						"isSwapping()": "2610",
						"name()": "infinite",
						"noTransferFee()": "2604",
						"owner()": "2589",
						"process_Tokens(uint256)": "infinite",
						"recover_Tokens(address,address,uint256)": "infinite",
						"renounceOwnership()": "30397",
						"set_Max_TX_Percent(uint256)": "infinite",
						"set_Max_Wal_Percent(uint256)": "infinite",
						"set_New_Pair_Address(address)": "27152",
						"set_New_Router_Address(address)": "27150",
						"set_New_Router_and_Make_Pair(address)": "infinite",
						"set_Number_Of_Transactions_Before_Liquify_Trigger(uint8)": "27081",
						"set_Swap_And_Liquify_Enabled(bool)": "infinite",
						"set_TransferFees(bool)": "26986",
						"swapAndLiqEnabled()": "2566",
						"symbol()": "infinite",
						"totalSupply()": "383",
						"transfer(address,uint256)": "infinite",
						"transferFrom(address,address,uint256)": "infinite",
						"transferOwnership(address)": "30785",
						"unBlacklist_Wallets(address[])": "infinite",
						"uniswapV2Pair()": "2603",
						"uniswapV2Router()": "infinite"
					},
					"internal": {
						"_approve(address,address,uint256)": "infinite",
						"_getValues(uint256)": "infinite",
						"_tokenTransfer(address,address,uint256,bool)": "infinite",
						"_transfer(address,address,uint256)": "infinite",
						"_transferTokens(address,address,uint256)": "infinite",
						"removeFees()": "7149",
						"restoreFees()": "28449",
						"sendToWallet(address payable,uint256)": "infinite",
						"swapTokens(uint256)": "infinite",
						"swapTokensForBNB(uint256)": "infinite"
					}
				},
				"methodIdentifiers": {
					"Update__Dev_Wallet(address)": "f73980f9",
					"_TotalFee()": "2b37b69b",
					"_TransferFee()": "46258ab3",
					"_buyFee()": "40b9a54b",
					"_isBlacklisted(address)": "1cdd3be3",
					"_isExcludedFromFee(address)": "768dc710",
					"_maxToken()": "5238f0e3",
					"_maxTxAmount()": "7d1db4a5",
					"_sellFee()": "590f897e",
					"_set_Fees(uint256,uint256)": "67cbd84c",
					"_set_Transfer_Fee(uint256)": "ba6a6cdb",
					"allowance(address,address)": "dd62ed3e",
					"approve(address,uint256)": "095ea7b3",
					"balanceOf(address)": "70a08231",
					"blacklist_Toggle(bool)": "a2a02c33",
					"blacklist_Wallets(address[])": "1b123b71",
					"decimals()": "313ce567",
					"decreaseAllowance(address,uint256)": "a457c2d7",
					"excludeFromFee(address)": "437823ec",
					"includeInFee(address)": "ea2f0b37",
					"increaseAllowance(address,uint256)": "39509351",
					"isBlackList()": "2a77c076",
					"isSwapping()": "b8863115",
					"name()": "06fdde03",
					"noTransferFee()": "c7039528",
					"owner()": "8da5cb5b",
					"process_Tokens(uint256)": "dcff0237",
					"recover_Tokens(address,address,uint256)": "2f536344",
					"renounceOwnership()": "715018a6",
					"set_Max_TX_Percent(uint256)": "15a2f349",
					"set_Max_Wal_Percent(uint256)": "a01cbf9a",
					"set_New_Pair_Address(address)": "d785d5be",
					"set_New_Router_Address(address)": "36b1a1bc",
					"set_New_Router_and_Make_Pair(address)": "1282a0a0",
					"set_Number_Of_Transactions_Before_Liquify_Trigger(uint8)": "7caefa89",
					"set_Swap_And_Liquify_Enabled(bool)": "f7739b5f",
					"set_TransferFees(bool)": "ae7bd3f2",
					"swapAndLiqEnabled()": "85ae099f",
					"symbol()": "95d89b41",
					"totalSupply()": "18160ddd",
					"transfer(address,uint256)": "a9059cbb",
					"transferFrom(address,address,uint256)": "23b872dd",
					"transferOwnership(address)": "f2fde38b",
					"unBlacklist_Wallets(address[])": "3e66c435",
					"uniswapV2Pair()": "49bd5a5e",
					"uniswapV2Router()": "1694505e"
				}
			},
			"storageLayout": {
				"storage": [
					{
						"astId": 198,
						"contract": "XODEX2.sol:XODEX",
						"label": "_owner",
						"offset": 0,
						"slot": "0",
						"type": "t_address"
					},
					{
						"astId": 983,
						"contract": "XODEX2.sol:XODEX",
						"label": "_totalOwned",
						"offset": 0,
						"slot": "1",
						"type": "t_mapping(t_address,t_uint256)"
					},
					{
						"astId": 989,
						"contract": "XODEX2.sol:XODEX",
						"label": "_allowances",
						"offset": 0,
						"slot": "2",
						"type": "t_mapping(t_address,t_mapping(t_address,t_uint256))"
					},
					{
						"astId": 993,
						"contract": "XODEX2.sol:XODEX",
						"label": "_isExcludedFromFee",
						"offset": 0,
						"slot": "3",
						"type": "t_mapping(t_address,t_bool)"
					},
					{
						"astId": 997,
						"contract": "XODEX2.sol:XODEX",
						"label": "_isBlacklisted",
						"offset": 0,
						"slot": "4",
						"type": "t_mapping(t_address,t_bool)"
					},
					{
						"astId": 1015,
						"contract": "XODEX2.sol:XODEX",
						"label": "isBlackList",
						"offset": 0,
						"slot": "5",
						"type": "t_bool"
					},
					{
						"astId": 1021,
						"contract": "XODEX2.sol:XODEX",
						"label": "Dev_Wallet",
						"offset": 1,
						"slot": "5",
						"type": "t_address_payable"
					},
					{
						"astId": 1030,
						"contract": "XODEX2.sol:XODEX",
						"label": "txCount",
						"offset": 21,
						"slot": "5",
						"type": "t_uint8"
					},
					{
						"astId": 1033,
						"contract": "XODEX2.sol:XODEX",
						"label": "swapTrigger",
						"offset": 22,
						"slot": "5",
						"type": "t_uint8"
					},
					{
						"astId": 1039,
						"contract": "XODEX2.sol:XODEX",
						"label": "maxTransferFee",
						"offset": 0,
						"slot": "6",
						"type": "t_uint256"
					},
					{
						"astId": 1048,
						"contract": "XODEX2.sol:XODEX",
						"label": "_maxToken",
						"offset": 0,
						"slot": "7",
						"type": "t_uint256"
					},
					{
						"astId": 1051,
						"contract": "XODEX2.sol:XODEX",
						"label": "_prevMaxToken",
						"offset": 0,
						"slot": "8",
						"type": "t_uint256"
					},
					{
						"astId": 1060,
						"contract": "XODEX2.sol:XODEX",
						"label": "_maxTxAmount",
						"offset": 0,
						"slot": "9",
						"type": "t_uint256"
					},
					{
						"astId": 1063,
						"contract": "XODEX2.sol:XODEX",
						"label": "_prevMaxTxAmount",
						"offset": 0,
						"slot": "10",
						"type": "t_uint256"
					},
					{
						"astId": 1066,
						"contract": "XODEX2.sol:XODEX",
						"label": "_TransferFee",
						"offset": 0,
						"slot": "11",
						"type": "t_uint256"
					},
					{
						"astId": 1069,
						"contract": "XODEX2.sol:XODEX",
						"label": "_buyFee",
						"offset": 0,
						"slot": "12",
						"type": "t_uint256"
					},
					{
						"astId": 1072,
						"contract": "XODEX2.sol:XODEX",
						"label": "_sellFee",
						"offset": 0,
						"slot": "13",
						"type": "t_uint256"
					},
					{
						"astId": 1075,
						"contract": "XODEX2.sol:XODEX",
						"label": "_TotalFee",
						"offset": 0,
						"slot": "14",
						"type": "t_uint256"
					},
					{
						"astId": 1078,
						"contract": "XODEX2.sol:XODEX",
						"label": "noTransferFee",
						"offset": 0,
						"slot": "15",
						"type": "t_bool"
					},
					{
						"astId": 1081,
						"contract": "XODEX2.sol:XODEX",
						"label": "uniswapV2Router",
						"offset": 1,
						"slot": "15",
						"type": "t_contract(IUniswapV2Router02)967"
					},
					{
						"astId": 1083,
						"contract": "XODEX2.sol:XODEX",
						"label": "uniswapV2Pair",
						"offset": 0,
						"slot": "16",
						"type": "t_address"
					},
					{
						"astId": 1085,
						"contract": "XODEX2.sol:XODEX",
						"label": "isSwapping",
						"offset": 20,
						"slot": "16",
						"type": "t_bool"
					},
					{
						"astId": 1088,
						"contract": "XODEX2.sol:XODEX",
						"label": "swapAndLiqEnabled",
						"offset": 21,
						"slot": "16",
						"type": "t_bool"
					}
				],
				"types": {
					"t_address": {
						"encoding": "inplace",
						"label": "address",
						"numberOfBytes": "20"
					},
					"t_address_payable": {
						"encoding": "inplace",
						"label": "address payable",
						"numberOfBytes": "20"
					},
					"t_bool": {
						"encoding": "inplace",
						"label": "bool",
						"numberOfBytes": "1"
					},
					"t_contract(IUniswapV2Router02)967": {
						"encoding": "inplace",
						"label": "contract IUniswapV2Router02",
						"numberOfBytes": "20"
					},
					"t_mapping(t_address,t_bool)": {
						"encoding": "mapping",
						"key": "t_address",
						"label": "mapping(address => bool)",
						"numberOfBytes": "32",
						"value": "t_bool"
					},
					"t_mapping(t_address,t_mapping(t_address,t_uint256))": {
						"encoding": "mapping",
						"key": "t_address",
						"label": "mapping(address => mapping(address => uint256))",
						"numberOfBytes": "32",
						"value": "t_mapping(t_address,t_uint256)"
					},
					"t_mapping(t_address,t_uint256)": {
						"encoding": "mapping",
						"key": "t_address",
						"label": "mapping(address => uint256)",
						"numberOfBytes": "32",
						"value": "t_uint256"
					},
					"t_uint256": {
						"encoding": "inplace",
						"label": "uint256",
						"numberOfBytes": "32"
					},
					"t_uint8": {
						"encoding": "inplace",
						"label": "uint8",
						"numberOfBytes": "1"
					}
				}
			},
			"userdoc": {
				"kind": "user",
				"methods": {},
				"version": 1
			}
		}
	}
}